{
	"合约/_11_错误和异常处理_抛出异常.sol": {
		"TestToken": {
			"abi": [
				{
					"inputs": [
						{
							"internalType": "uint256",
							"name": "available",
							"type": "uint256"
						},
						{
							"internalType": "uint256",
							"name": "required",
							"type": "uint256"
						}
					],
					"name": "InsufficientBalance",
					"type": "error"
				},
				{
					"inputs": [
						{
							"internalType": "uint256",
							"name": "available",
							"type": "uint256"
						},
						{
							"internalType": "uint256",
							"name": "required",
							"type": "uint256"
						}
					],
					"name": "check",
					"outputs": [],
					"stateMutability": "pure",
					"type": "function"
				}
			],
			"devdoc": {
				"kind": "dev",
				"methods": {},
				"version": 1
			},
			"evm": {
				"assembly": "    /* \"\\xe5\\x90\\x88\\xe7\\xba\\xa6/_11_\\xe9\\x94\\x99\\xe8\\xaf\\xaf\\xe5\\x92\\x8c\\xe5\\xbc\\x82\\xe5\\xb8\\xb8\\xe5\\xa4\\x84\\xe7\\x90\\x86_\\xe6\\x8a\\x9b\\xe5\\x87\\xba\\xe5\\xbc\\x82\\xe5\\xb8\\xb8.sol\":133:2167  contract TestToken {... */\n  mstore(0x40, 0x80)\n  callvalue\n  dup1\n  iszero\n  tag_1\n  jumpi\n  0x00\n  dup1\n  revert\ntag_1:\n  pop\n  dataSize(sub_0)\n  dup1\n  dataOffset(sub_0)\n  0x00\n  codecopy\n  0x00\n  return\nstop\n\nsub_0: assembly {\n        /* \"\\xe5\\x90\\x88\\xe7\\xba\\xa6/_11_\\xe9\\x94\\x99\\xe8\\xaf\\xaf\\xe5\\x92\\x8c\\xe5\\xbc\\x82\\xe5\\xb8\\xb8\\xe5\\xa4\\x84\\xe7\\x90\\x86_\\xe6\\x8a\\x9b\\xe5\\x87\\xba\\xe5\\xbc\\x82\\xe5\\xb8\\xb8.sol\":133:2167  contract TestToken {... */\n      mstore(0x40, 0x80)\n      callvalue\n      dup1\n      iszero\n      tag_1\n      jumpi\n      0x00\n      dup1\n      revert\n    tag_1:\n      pop\n      jumpi(tag_2, lt(calldatasize, 0x04))\n      shr(0xe0, calldataload(0x00))\n      dup1\n      0x8fefd8ea\n      eq\n      tag_3\n      jumpi\n    tag_2:\n      0x00\n      dup1\n      revert\n        /* \"\\xe5\\x90\\x88\\xe7\\xba\\xa6/_11_\\xe9\\x94\\x99\\xe8\\xaf\\xaf\\xe5\\x92\\x8c\\xe5\\xbc\\x82\\xe5\\xb8\\xb8\\xe5\\xa4\\x84\\xe7\\x90\\x86_\\xe6\\x8a\\x9b\\xe5\\x87\\xba\\xe5\\xbc\\x82\\xe5\\xb8\\xb8.sol\":1622:2164  function check(uint256 available, uint256 required) public pure {... */\n    tag_3:\n      tag_4\n      0x04\n      dup1\n      calldatasize\n      sub\n      dup2\n      add\n      swap1\n      tag_5\n      swap2\n      swap1\n      tag_6\n      jump\t// in\n    tag_5:\n      tag_7\n      jump\t// in\n    tag_4:\n      stop\n    tag_7:\n        /* \"\\xe5\\x90\\x88\\xe7\\xba\\xa6/_11_\\xe9\\x94\\x99\\xe8\\xaf\\xaf\\xe5\\x92\\x8c\\xe5\\xbc\\x82\\xe5\\xb8\\xb8\\xe5\\xa4\\x84\\xe7\\x90\\x86_\\xe6\\x8a\\x9b\\xe5\\x87\\xba\\xe5\\xbc\\x82\\xe5\\xb8\\xb8.sol\":1771:1779  required */\n      dup1\n        /* \"\\xe5\\x90\\x88\\xe7\\xba\\xa6/_11_\\xe9\\x94\\x99\\xe8\\xaf\\xaf\\xe5\\x92\\x8c\\xe5\\xbc\\x82\\xe5\\xb8\\xb8\\xe5\\xa4\\x84\\xe7\\x90\\x86_\\xe6\\x8a\\x9b\\xe5\\x87\\xba\\xe5\\xbc\\x82\\xe5\\xb8\\xb8.sol\":1759:1768  available */\n      dup3\n        /* \"\\xe5\\x90\\x88\\xe7\\xba\\xa6/_11_\\xe9\\x94\\x99\\xe8\\xaf\\xaf\\xe5\\x92\\x8c\\xe5\\xbc\\x82\\xe5\\xb8\\xb8\\xe5\\xa4\\x84\\xe7\\x90\\x86_\\xe6\\x8a\\x9b\\xe5\\x87\\xba\\xe5\\xbc\\x82\\xe5\\xb8\\xb8.sol\":1759:1779  available < required */\n      lt\n        /* \"\\xe5\\x90\\x88\\xe7\\xba\\xa6/_11_\\xe9\\x94\\x99\\xe8\\xaf\\xaf\\xe5\\x92\\x8c\\xe5\\xbc\\x82\\xe5\\xb8\\xb8\\xe5\\xa4\\x84\\xe7\\x90\\x86_\\xe6\\x8a\\x9b\\xe5\\x87\\xba\\xe5\\xbc\\x82\\xe5\\xb8\\xb8.sol\":1755:2157  if (available < required) {... */\n      iszero\n      tag_9\n      jumpi\n        /* \"\\xe5\\x90\\x88\\xe7\\xba\\xa6/_11_\\xe9\\x94\\x99\\xe8\\xaf\\xaf\\xe5\\x92\\x8c\\xe5\\xbc\\x82\\xe5\\xb8\\xb8\\xe5\\xa4\\x84\\xe7\\x90\\x86_\\xe6\\x8a\\x9b\\xe5\\x87\\xba\\xe5\\xbc\\x82\\xe5\\xb8\\xb8.sol\":1894:1903  available */\n      dup2\n        /* \"\\xe5\\x90\\x88\\xe7\\xba\\xa6/_11_\\xe9\\x94\\x99\\xe8\\xaf\\xaf\\xe5\\x92\\x8c\\xe5\\xbc\\x82\\xe5\\xb8\\xb8\\xe5\\xa4\\x84\\xe7\\x90\\x86_\\xe6\\x8a\\x9b\\xe5\\x87\\xba\\xe5\\xbc\\x82\\xe5\\xb8\\xb8.sol\":1932:1940  required */\n      dup2\n        /* \"\\xe5\\x90\\x88\\xe7\\xba\\xa6/_11_\\xe9\\x94\\x99\\xe8\\xaf\\xaf\\xe5\\x92\\x8c\\xe5\\xbc\\x82\\xe5\\xb8\\xb8\\xe5\\xa4\\x84\\xe7\\x90\\x86_\\xe6\\x8a\\x9b\\xe5\\x87\\xba\\xe5\\xbc\\x82\\xe5\\xb8\\xb8.sol\":1844:1956  InsufficientBalance({... */\n      mload(0x40)\n      0xcf47918100000000000000000000000000000000000000000000000000000000\n      dup2\n      mstore\n      0x04\n      add\n      tag_10\n      swap3\n      swap2\n      swap1\n      tag_11\n      jump\t// in\n    tag_10:\n      mload(0x40)\n      dup1\n      swap2\n      sub\n      swap1\n      revert\n        /* \"\\xe5\\x90\\x88\\xe7\\xba\\xa6/_11_\\xe9\\x94\\x99\\xe8\\xaf\\xaf\\xe5\\x92\\x8c\\xe5\\xbc\\x82\\xe5\\xb8\\xb8\\xe5\\xa4\\x84\\xe7\\x90\\x86_\\xe6\\x8a\\x9b\\xe5\\x87\\xba\\xe5\\xbc\\x82\\xe5\\xb8\\xb8.sol\":1755:2157  if (available < required) {... */\n    tag_9:\n        /* \"\\xe5\\x90\\x88\\xe7\\xba\\xa6/_11_\\xe9\\x94\\x99\\xe8\\xaf\\xaf\\xe5\\x92\\x8c\\xe5\\xbc\\x82\\xe5\\xb8\\xb8\\xe5\\xa4\\x84\\xe7\\x90\\x86_\\xe6\\x8a\\x9b\\xe5\\x87\\xba\\xe5\\xbc\\x82\\xe5\\xb8\\xb8.sol\":1991:1999  required */\n      dup1\n        /* \"\\xe5\\x90\\x88\\xe7\\xba\\xa6/_11_\\xe9\\x94\\x99\\xe8\\xaf\\xaf\\xe5\\x92\\x8c\\xe5\\xbc\\x82\\xe5\\xb8\\xb8\\xe5\\xa4\\x84\\xe7\\x90\\x86_\\xe6\\x8a\\x9b\\xe5\\x87\\xba\\xe5\\xbc\\x82\\xe5\\xb8\\xb8.sol\":1978:1987  available */\n      dup3\n        /* \"\\xe5\\x90\\x88\\xe7\\xba\\xa6/_11_\\xe9\\x94\\x99\\xe8\\xaf\\xaf\\xe5\\x92\\x8c\\xe5\\xbc\\x82\\xe5\\xb8\\xb8\\xe5\\xa4\\x84\\xe7\\x90\\x86_\\xe6\\x8a\\x9b\\xe5\\x87\\xba\\xe5\\xbc\\x82\\xe5\\xb8\\xb8.sol\":1978:1999  available == required */\n      sub\n        /* \"\\xe5\\x90\\x88\\xe7\\xba\\xa6/_11_\\xe9\\x94\\x99\\xe8\\xaf\\xaf\\xe5\\x92\\x8c\\xe5\\xbc\\x82\\xe5\\xb8\\xb8\\xe5\\xa4\\x84\\xe7\\x90\\x86_\\xe6\\x8a\\x9b\\xe5\\x87\\xba\\xe5\\xbc\\x82\\xe5\\xb8\\xb8.sol\":1974:2157  if (available == required) {... */\n      tag_13\n      jumpi\n        /* \"\\xe5\\x90\\x88\\xe7\\xba\\xa6/_11_\\xe9\\x94\\x99\\xe8\\xaf\\xaf\\xe5\\x92\\x8c\\xe5\\xbc\\x82\\xe5\\xb8\\xb8\\xe5\\xa4\\x84\\xe7\\x90\\x86_\\xe6\\x8a\\x9b\\xe5\\x87\\xba\\xe5\\xbc\\x82\\xe5\\xb8\\xb8.sol\":2059:2095  revert(unicode\"余额不足啦....\") */\n      mload(0x40)\n      0x08c379a000000000000000000000000000000000000000000000000000000000\n      dup2\n      mstore\n      0x04\n      add\n      tag_14\n      swap1\n      tag_15\n      jump\t// in\n    tag_14:\n      mload(0x40)\n      dup1\n      swap2\n      sub\n      swap1\n      revert\n        /* \"\\xe5\\x90\\x88\\xe7\\xba\\xa6/_11_\\xe9\\x94\\x99\\xe8\\xaf\\xaf\\xe5\\x92\\x8c\\xe5\\xbc\\x82\\xe5\\xb8\\xb8\\xe5\\xa4\\x84\\xe7\\x90\\x86_\\xe6\\x8a\\x9b\\xe5\\x87\\xba\\xe5\\xbc\\x82\\xe5\\xb8\\xb8.sol\":1974:2157  if (available == required) {... */\n    tag_13:\n        /* \"\\xe5\\x90\\x88\\xe7\\xba\\xa6/_11_\\xe9\\x94\\x99\\xe8\\xaf\\xaf\\xe5\\x92\\x8c\\xe5\\xbc\\x82\\xe5\\xb8\\xb8\\xe5\\xa4\\x84\\xe7\\x90\\x86_\\xe6\\x8a\\x9b\\xe5\\x87\\xba\\xe5\\xbc\\x82\\xe5\\xb8\\xb8.sol\":1622:2164  function check(uint256 available, uint256 required) public pure {... */\n      pop\n      pop\n      jump\t// out\n        /* \"#utility.yul\":88:205   */\n    tag_18:\n        /* \"#utility.yul\":197:198   */\n      0x00\n        /* \"#utility.yul\":194:195   */\n      dup1\n        /* \"#utility.yul\":187:199   */\n      revert\n        /* \"#utility.yul\":334:411   */\n    tag_20:\n        /* \"#utility.yul\":371:378   */\n      0x00\n        /* \"#utility.yul\":400:405   */\n      dup2\n        /* \"#utility.yul\":389:405   */\n      swap1\n      pop\n        /* \"#utility.yul\":334:411   */\n      swap2\n      swap1\n      pop\n      jump\t// out\n        /* \"#utility.yul\":417:539   */\n    tag_21:\n        /* \"#utility.yul\":490:514   */\n      tag_33\n        /* \"#utility.yul\":508:513   */\n      dup2\n        /* \"#utility.yul\":490:514   */\n      tag_20\n      jump\t// in\n    tag_33:\n        /* \"#utility.yul\":483:488   */\n      dup2\n        /* \"#utility.yul\":480:515   */\n      eq\n        /* \"#utility.yul\":470:533   */\n      tag_34\n      jumpi\n        /* \"#utility.yul\":529:530   */\n      0x00\n        /* \"#utility.yul\":526:527   */\n      dup1\n        /* \"#utility.yul\":519:531   */\n      revert\n        /* \"#utility.yul\":470:533   */\n    tag_34:\n        /* \"#utility.yul\":417:539   */\n      pop\n      jump\t// out\n        /* \"#utility.yul\":545:684   */\n    tag_22:\n        /* \"#utility.yul\":591:596   */\n      0x00\n        /* \"#utility.yul\":629:635   */\n      dup2\n        /* \"#utility.yul\":616:636   */\n      calldataload\n        /* \"#utility.yul\":607:636   */\n      swap1\n      pop\n        /* \"#utility.yul\":645:678   */\n      tag_36\n        /* \"#utility.yul\":672:677   */\n      dup2\n        /* \"#utility.yul\":645:678   */\n      tag_21\n      jump\t// in\n    tag_36:\n        /* \"#utility.yul\":545:684   */\n      swap3\n      swap2\n      pop\n      pop\n      jump\t// out\n        /* \"#utility.yul\":690:1164   */\n    tag_6:\n        /* \"#utility.yul\":758:764   */\n      0x00\n        /* \"#utility.yul\":766:772   */\n      dup1\n        /* \"#utility.yul\":815:817   */\n      0x40\n        /* \"#utility.yul\":803:812   */\n      dup4\n        /* \"#utility.yul\":794:801   */\n      dup6\n        /* \"#utility.yul\":790:813   */\n      sub\n        /* \"#utility.yul\":786:818   */\n      slt\n        /* \"#utility.yul\":783:902   */\n      iszero\n      tag_38\n      jumpi\n        /* \"#utility.yul\":821:900   */\n      tag_39\n      tag_18\n      jump\t// in\n    tag_39:\n        /* \"#utility.yul\":783:902   */\n    tag_38:\n        /* \"#utility.yul\":941:942   */\n      0x00\n        /* \"#utility.yul\":966:1019   */\n      tag_40\n        /* \"#utility.yul\":1011:1018   */\n      dup6\n        /* \"#utility.yul\":1002:1008   */\n      dup3\n        /* \"#utility.yul\":991:1000   */\n      dup7\n        /* \"#utility.yul\":987:1009   */\n      add\n        /* \"#utility.yul\":966:1019   */\n      tag_22\n      jump\t// in\n    tag_40:\n        /* \"#utility.yul\":956:1019   */\n      swap3\n      pop\n        /* \"#utility.yul\":912:1029   */\n      pop\n        /* \"#utility.yul\":1068:1070   */\n      0x20\n        /* \"#utility.yul\":1094:1147   */\n      tag_41\n        /* \"#utility.yul\":1139:1146   */\n      dup6\n        /* \"#utility.yul\":1130:1136   */\n      dup3\n        /* \"#utility.yul\":1119:1128   */\n      dup7\n        /* \"#utility.yul\":1115:1137   */\n      add\n        /* \"#utility.yul\":1094:1147   */\n      tag_22\n      jump\t// in\n    tag_41:\n        /* \"#utility.yul\":1084:1147   */\n      swap2\n      pop\n        /* \"#utility.yul\":1039:1157   */\n      pop\n        /* \"#utility.yul\":690:1164   */\n      swap3\n      pop\n      swap3\n      swap1\n      pop\n      jump\t// out\n        /* \"#utility.yul\":1170:1288   */\n    tag_23:\n        /* \"#utility.yul\":1257:1281   */\n      tag_43\n        /* \"#utility.yul\":1275:1280   */\n      dup2\n        /* \"#utility.yul\":1257:1281   */\n      tag_20\n      jump\t// in\n    tag_43:\n        /* \"#utility.yul\":1252:1255   */\n      dup3\n        /* \"#utility.yul\":1245:1282   */\n      mstore\n        /* \"#utility.yul\":1170:1288   */\n      pop\n      pop\n      jump\t// out\n        /* \"#utility.yul\":1294:1626   */\n    tag_11:\n        /* \"#utility.yul\":1415:1419   */\n      0x00\n        /* \"#utility.yul\":1453:1455   */\n      0x40\n        /* \"#utility.yul\":1442:1451   */\n      dup3\n        /* \"#utility.yul\":1438:1456   */\n      add\n        /* \"#utility.yul\":1430:1456   */\n      swap1\n      pop\n        /* \"#utility.yul\":1466:1537   */\n      tag_45\n        /* \"#utility.yul\":1534:1535   */\n      0x00\n        /* \"#utility.yul\":1523:1532   */\n      dup4\n        /* \"#utility.yul\":1519:1536   */\n      add\n        /* \"#utility.yul\":1510:1516   */\n      dup6\n        /* \"#utility.yul\":1466:1537   */\n      tag_23\n      jump\t// in\n    tag_45:\n        /* \"#utility.yul\":1547:1619   */\n      tag_46\n        /* \"#utility.yul\":1615:1617   */\n      0x20\n        /* \"#utility.yul\":1604:1613   */\n      dup4\n        /* \"#utility.yul\":1600:1618   */\n      add\n        /* \"#utility.yul\":1591:1597   */\n      dup5\n        /* \"#utility.yul\":1547:1619   */\n      tag_23\n      jump\t// in\n    tag_46:\n        /* \"#utility.yul\":1294:1626   */\n      swap4\n      swap3\n      pop\n      pop\n      pop\n      jump\t// out\n        /* \"#utility.yul\":1632:1801   */\n    tag_24:\n        /* \"#utility.yul\":1716:1727   */\n      0x00\n        /* \"#utility.yul\":1750:1756   */\n      dup3\n        /* \"#utility.yul\":1745:1748   */\n      dup3\n        /* \"#utility.yul\":1738:1757   */\n      mstore\n        /* \"#utility.yul\":1790:1794   */\n      0x20\n        /* \"#utility.yul\":1785:1788   */\n      dup3\n        /* \"#utility.yul\":1781:1795   */\n      add\n        /* \"#utility.yul\":1766:1795   */\n      swap1\n      pop\n        /* \"#utility.yul\":1632:1801   */\n      swap3\n      swap2\n      pop\n      pop\n      jump\t// out\n        /* \"#utility.yul\":1807:2021   */\n    tag_25:\n        /* \"#utility.yul\":1947:2013   */\n      0xe4bd99e9a29de4b88de8b6b3e595a62e2e2e2e00000000000000000000000000\n        /* \"#utility.yul\":1943:1944   */\n      0x00\n        /* \"#utility.yul\":1935:1941   */\n      dup3\n        /* \"#utility.yul\":1931:1945   */\n      add\n        /* \"#utility.yul\":1924:2014   */\n      mstore\n        /* \"#utility.yul\":1807:2021   */\n      pop\n      jump\t// out\n        /* \"#utility.yul\":2027:2393   */\n    tag_26:\n        /* \"#utility.yul\":2169:2172   */\n      0x00\n        /* \"#utility.yul\":2190:2257   */\n      tag_50\n        /* \"#utility.yul\":2254:2256   */\n      0x13\n        /* \"#utility.yul\":2249:2252   */\n      dup4\n        /* \"#utility.yul\":2190:2257   */\n      tag_24\n      jump\t// in\n    tag_50:\n        /* \"#utility.yul\":2183:2257   */\n      swap2\n      pop\n        /* \"#utility.yul\":2266:2359   */\n      tag_51\n        /* \"#utility.yul\":2355:2358   */\n      dup3\n        /* \"#utility.yul\":2266:2359   */\n      tag_25\n      jump\t// in\n    tag_51:\n        /* \"#utility.yul\":2384:2386   */\n      0x20\n        /* \"#utility.yul\":2379:2382   */\n      dup3\n        /* \"#utility.yul\":2375:2387   */\n      add\n        /* \"#utility.yul\":2368:2387   */\n      swap1\n      pop\n        /* \"#utility.yul\":2027:2393   */\n      swap2\n      swap1\n      pop\n      jump\t// out\n        /* \"#utility.yul\":2399:2818   */\n    tag_15:\n        /* \"#utility.yul\":2565:2569   */\n      0x00\n        /* \"#utility.yul\":2603:2605   */\n      0x20\n        /* \"#utility.yul\":2592:2601   */\n      dup3\n        /* \"#utility.yul\":2588:2606   */\n      add\n        /* \"#utility.yul\":2580:2606   */\n      swap1\n      pop\n        /* \"#utility.yul\":2652:2661   */\n      dup2\n        /* \"#utility.yul\":2646:2650   */\n      dup2\n        /* \"#utility.yul\":2642:2662   */\n      sub\n        /* \"#utility.yul\":2638:2639   */\n      0x00\n        /* \"#utility.yul\":2627:2636   */\n      dup4\n        /* \"#utility.yul\":2623:2640   */\n      add\n        /* \"#utility.yul\":2616:2663   */\n      mstore\n        /* \"#utility.yul\":2680:2811   */\n      tag_53\n        /* \"#utility.yul\":2806:2810   */\n      dup2\n        /* \"#utility.yul\":2680:2811   */\n      tag_26\n      jump\t// in\n    tag_53:\n        /* \"#utility.yul\":2672:2811   */\n      swap1\n      pop\n        /* \"#utility.yul\":2399:2818   */\n      swap2\n      swap1\n      pop\n      jump\t// out\n\n    auxdata: 0xa2646970667358221220764325331c38464db2317bad15f01277d74b86c709ec0a0c4cfbf623dcb73c8364736f6c63430008110033\n}\n",
				"bytecode": {
					"linkReferences": {},
					"object": "608060405234801561001057600080fd5b5061023f806100206000396000f3fe608060405234801561001057600080fd5b506004361061002b5760003560e01c80638fefd8ea14610030575b600080fd5b61004a60048036038101906100459190610114565b61004c565b005b808210156100935781816040517fcf47918100000000000000000000000000000000000000000000000000000000815260040161008a929190610163565b60405180910390fd5b8082036100d5576040517f08c379a00000000000000000000000000000000000000000000000000000000081526004016100cc906101e9565b60405180910390fd5b5050565b600080fd5b6000819050919050565b6100f1816100de565b81146100fc57600080fd5b50565b60008135905061010e816100e8565b92915050565b6000806040838503121561012b5761012a6100d9565b5b6000610139858286016100ff565b925050602061014a858286016100ff565b9150509250929050565b61015d816100de565b82525050565b60006040820190506101786000830185610154565b6101856020830184610154565b9392505050565b600082825260208201905092915050565b7fe4bd99e9a29de4b88de8b6b3e595a62e2e2e2e00000000000000000000000000600082015250565b60006101d360138361018c565b91506101de8261019d565b602082019050919050565b60006020820190508181036000830152610202816101c6565b905091905056fea2646970667358221220764325331c38464db2317bad15f01277d74b86c709ec0a0c4cfbf623dcb73c8364736f6c63430008110033",
					"opcodes": "PUSH1 0x80 PUSH1 0x40 MSTORE CALLVALUE DUP1 ISZERO PUSH2 0x10 JUMPI PUSH1 0x0 DUP1 REVERT JUMPDEST POP PUSH2 0x23F DUP1 PUSH2 0x20 PUSH1 0x0 CODECOPY PUSH1 0x0 RETURN INVALID PUSH1 0x80 PUSH1 0x40 MSTORE CALLVALUE DUP1 ISZERO PUSH2 0x10 JUMPI PUSH1 0x0 DUP1 REVERT JUMPDEST POP PUSH1 0x4 CALLDATASIZE LT PUSH2 0x2B JUMPI PUSH1 0x0 CALLDATALOAD PUSH1 0xE0 SHR DUP1 PUSH4 0x8FEFD8EA EQ PUSH2 0x30 JUMPI JUMPDEST PUSH1 0x0 DUP1 REVERT JUMPDEST PUSH2 0x4A PUSH1 0x4 DUP1 CALLDATASIZE SUB DUP2 ADD SWAP1 PUSH2 0x45 SWAP2 SWAP1 PUSH2 0x114 JUMP JUMPDEST PUSH2 0x4C JUMP JUMPDEST STOP JUMPDEST DUP1 DUP3 LT ISZERO PUSH2 0x93 JUMPI DUP2 DUP2 PUSH1 0x40 MLOAD PUSH32 0xCF47918100000000000000000000000000000000000000000000000000000000 DUP2 MSTORE PUSH1 0x4 ADD PUSH2 0x8A SWAP3 SWAP2 SWAP1 PUSH2 0x163 JUMP JUMPDEST PUSH1 0x40 MLOAD DUP1 SWAP2 SUB SWAP1 REVERT JUMPDEST DUP1 DUP3 SUB PUSH2 0xD5 JUMPI PUSH1 0x40 MLOAD PUSH32 0x8C379A000000000000000000000000000000000000000000000000000000000 DUP2 MSTORE PUSH1 0x4 ADD PUSH2 0xCC SWAP1 PUSH2 0x1E9 JUMP JUMPDEST PUSH1 0x40 MLOAD DUP1 SWAP2 SUB SWAP1 REVERT JUMPDEST POP POP JUMP JUMPDEST PUSH1 0x0 DUP1 REVERT JUMPDEST PUSH1 0x0 DUP2 SWAP1 POP SWAP2 SWAP1 POP JUMP JUMPDEST PUSH2 0xF1 DUP2 PUSH2 0xDE JUMP JUMPDEST DUP2 EQ PUSH2 0xFC JUMPI PUSH1 0x0 DUP1 REVERT JUMPDEST POP JUMP JUMPDEST PUSH1 0x0 DUP2 CALLDATALOAD SWAP1 POP PUSH2 0x10E DUP2 PUSH2 0xE8 JUMP JUMPDEST SWAP3 SWAP2 POP POP JUMP JUMPDEST PUSH1 0x0 DUP1 PUSH1 0x40 DUP4 DUP6 SUB SLT ISZERO PUSH2 0x12B JUMPI PUSH2 0x12A PUSH2 0xD9 JUMP JUMPDEST JUMPDEST PUSH1 0x0 PUSH2 0x139 DUP6 DUP3 DUP7 ADD PUSH2 0xFF JUMP JUMPDEST SWAP3 POP POP PUSH1 0x20 PUSH2 0x14A DUP6 DUP3 DUP7 ADD PUSH2 0xFF JUMP JUMPDEST SWAP2 POP POP SWAP3 POP SWAP3 SWAP1 POP JUMP JUMPDEST PUSH2 0x15D DUP2 PUSH2 0xDE JUMP JUMPDEST DUP3 MSTORE POP POP JUMP JUMPDEST PUSH1 0x0 PUSH1 0x40 DUP3 ADD SWAP1 POP PUSH2 0x178 PUSH1 0x0 DUP4 ADD DUP6 PUSH2 0x154 JUMP JUMPDEST PUSH2 0x185 PUSH1 0x20 DUP4 ADD DUP5 PUSH2 0x154 JUMP JUMPDEST SWAP4 SWAP3 POP POP POP JUMP JUMPDEST PUSH1 0x0 DUP3 DUP3 MSTORE PUSH1 0x20 DUP3 ADD SWAP1 POP SWAP3 SWAP2 POP POP JUMP JUMPDEST PUSH32 0xE4BD99E9A29DE4B88DE8B6B3E595A62E2E2E2E00000000000000000000000000 PUSH1 0x0 DUP3 ADD MSTORE POP JUMP JUMPDEST PUSH1 0x0 PUSH2 0x1D3 PUSH1 0x13 DUP4 PUSH2 0x18C JUMP JUMPDEST SWAP2 POP PUSH2 0x1DE DUP3 PUSH2 0x19D JUMP JUMPDEST PUSH1 0x20 DUP3 ADD SWAP1 POP SWAP2 SWAP1 POP JUMP JUMPDEST PUSH1 0x0 PUSH1 0x20 DUP3 ADD SWAP1 POP DUP2 DUP2 SUB PUSH1 0x0 DUP4 ADD MSTORE PUSH2 0x202 DUP2 PUSH2 0x1C6 JUMP JUMPDEST SWAP1 POP SWAP2 SWAP1 POP JUMP INVALID LOG2 PUSH5 0x6970667358 0x22 SLT KECCAK256 PUSH23 0x4325331C38464DB2317BAD15F01277D74B86C709EC0A0C 0x4C 0xFB 0xF6 0x23 0xDC 0xB7 EXTCODECOPY DUP4 PUSH5 0x736F6C6343 STOP ADDMOD GT STOP CALLER "
				},
				"gasEstimates": {
					"creation": {
						"codeDepositCost": "115000",
						"executionCost": "159",
						"totalCost": "115159"
					},
					"external": {
						"check(uint256,uint256)": "infinite"
					}
				},
				"methodIdentifiers": {
					"check(uint256,uint256)": "8fefd8ea"
				}
			},
			"storageLayout": {
				"storage": [],
				"types": null
			},
			"userdoc": {
				"kind": "user",
				"methods": {
					"check(uint256,uint256)": {
						"notice": "- Solidity 中的错误（关键字error）提供了一种方便且省gas的方式来向用户解释为什么一个操作会失败。 它们可以被定义在合约（包括接口和库）内部和外部。 - 使用revert语句来抛出一个异常, 它会还原当前调用中的发生的所有变化，并将错误数据传回给调用者。 revert语句接受一个自定义错误作为不带括号的直接参数: revert CustomError(arg1, arg2); 出于向后兼容的原因，还有revert()函数，它使用圆括号并接受一个字符串:revert(); revert(“description”); - 在EVM内部定义了两个内建的error, 分别是Panic(uint256)和Error(string) Panic这类error的含义与java中的RuntimeException类似, 即正常的函数代码永远不会产生 Panic ,  甚至是基于一个无效的外部输入时。如果发生了，那就说明出现了一个需要你修复的 bug。 Error这类error的含义与java中的非RuntimeException类似 - 使用自定义错误实例通常比使用字符串描述便宜得多，因为你可以使用错误名称来描述它，该名称仅用4个字节编码。 - 错误不能被重写或覆盖，但是可以继承。 - 在内部， Solidity 对异常执行回退操作（指令 0xfd ），从而让 EVM 回退对状态所做的所有更改。"
					}
				},
				"version": 1
			}
		}
	}
}