{
	"合约/_11_合约_继承_函数重写.sol": {
		"A": {
			"abi": [
				{
					"inputs": [],
					"name": "f",
					"outputs": [
						{
							"internalType": "uint256",
							"name": "",
							"type": "uint256"
						}
					],
					"stateMutability": "view",
					"type": "function"
				}
			],
			"devdoc": {
				"kind": "dev",
				"methods": {},
				"version": 1
			},
			"evm": {
				"assembly": "    /* \"\\xe5\\x90\\x88\\xe7\\xba\\xa6/_11_\\xe5\\x90\\x88\\xe7\\xba\\xa6_\\xe7\\xbb\\xa7\\xe6\\x89\\xbf_\\xe5\\x87\\xbd\\xe6\\x95\\xb0\\xe9\\x87\\x8d\\xe5\\x86\\x99.sol\":1880:1962  contract A{... */\n  mstore(0x40, 0x80)\n  callvalue\n  dup1\n  iszero\n  tag_1\n  jumpi\n  0x00\n  dup1\n  revert\ntag_1:\n  pop\n  dataSize(sub_0)\n  dup1\n  dataOffset(sub_0)\n  0x00\n  codecopy\n  0x00\n  return\nstop\n\nsub_0: assembly {\n        /* \"\\xe5\\x90\\x88\\xe7\\xba\\xa6/_11_\\xe5\\x90\\x88\\xe7\\xba\\xa6_\\xe7\\xbb\\xa7\\xe6\\x89\\xbf_\\xe5\\x87\\xbd\\xe6\\x95\\xb0\\xe9\\x87\\x8d\\xe5\\x86\\x99.sol\":1880:1962  contract A{... */\n      mstore(0x40, 0x80)\n      callvalue\n      dup1\n      iszero\n      tag_1\n      jumpi\n      0x00\n      dup1\n      revert\n    tag_1:\n      pop\n      jumpi(tag_2, lt(calldatasize, 0x04))\n      shr(0xe0, calldataload(0x00))\n      dup1\n      0x26121ff0\n      eq\n      tag_3\n      jumpi\n    tag_2:\n      0x00\n      dup1\n      revert\n        /* \"\\xe5\\x90\\x88\\xe7\\xba\\xa6/_11_\\xe5\\x90\\x88\\xe7\\xba\\xa6_\\xe7\\xbb\\xa7\\xe6\\x89\\xbf_\\xe5\\x87\\xbd\\xe6\\x95\\xb0\\xe9\\x87\\x8d\\xe5\\x86\\x99.sol\":1897:1959  function f() external view virtual returns(uint) { return 5; } */\n    tag_3:\n      tag_4\n      tag_5\n      jump\t// in\n    tag_4:\n      mload(0x40)\n      tag_6\n      swap2\n      swap1\n      tag_7\n      jump\t// in\n    tag_6:\n      mload(0x40)\n      dup1\n      swap2\n      sub\n      swap1\n      return\n    tag_5:\n        /* \"\\xe5\\x90\\x88\\xe7\\xba\\xa6/_11_\\xe5\\x90\\x88\\xe7\\xba\\xa6_\\xe7\\xbb\\xa7\\xe6\\x89\\xbf_\\xe5\\x87\\xbd\\xe6\\x95\\xb0\\xe9\\x87\\x8d\\xe5\\x86\\x99.sol\":1940:1944  uint */\n      0x00\n        /* \"\\xe5\\x90\\x88\\xe7\\xba\\xa6/_11_\\xe5\\x90\\x88\\xe7\\xba\\xa6_\\xe7\\xbb\\xa7\\xe6\\x89\\xbf_\\xe5\\x87\\xbd\\xe6\\x95\\xb0\\xe9\\x87\\x8d\\xe5\\x86\\x99.sol\":1955:1956  5 */\n      0x05\n        /* \"\\xe5\\x90\\x88\\xe7\\xba\\xa6/_11_\\xe5\\x90\\x88\\xe7\\xba\\xa6_\\xe7\\xbb\\xa7\\xe6\\x89\\xbf_\\xe5\\x87\\xbd\\xe6\\x95\\xb0\\xe9\\x87\\x8d\\xe5\\x86\\x99.sol\":1948:1956  return 5 */\n      swap1\n      pop\n        /* \"\\xe5\\x90\\x88\\xe7\\xba\\xa6/_11_\\xe5\\x90\\x88\\xe7\\xba\\xa6_\\xe7\\xbb\\xa7\\xe6\\x89\\xbf_\\xe5\\x87\\xbd\\xe6\\x95\\xb0\\xe9\\x87\\x8d\\xe5\\x86\\x99.sol\":1897:1959  function f() external view virtual returns(uint) { return 5; } */\n      swap1\n      jump\t// out\n        /* \"#utility.yul\":7:84   */\n    tag_9:\n        /* \"#utility.yul\":44:51   */\n      0x00\n        /* \"#utility.yul\":73:78   */\n      dup2\n        /* \"#utility.yul\":62:78   */\n      swap1\n      pop\n        /* \"#utility.yul\":7:84   */\n      swap2\n      swap1\n      pop\n      jump\t// out\n        /* \"#utility.yul\":90:208   */\n    tag_10:\n        /* \"#utility.yul\":177:201   */\n      tag_14\n        /* \"#utility.yul\":195:200   */\n      dup2\n        /* \"#utility.yul\":177:201   */\n      tag_9\n      jump\t// in\n    tag_14:\n        /* \"#utility.yul\":172:175   */\n      dup3\n        /* \"#utility.yul\":165:202   */\n      mstore\n        /* \"#utility.yul\":90:208   */\n      pop\n      pop\n      jump\t// out\n        /* \"#utility.yul\":214:436   */\n    tag_7:\n        /* \"#utility.yul\":307:311   */\n      0x00\n        /* \"#utility.yul\":345:347   */\n      0x20\n        /* \"#utility.yul\":334:343   */\n      dup3\n        /* \"#utility.yul\":330:348   */\n      add\n        /* \"#utility.yul\":322:348   */\n      swap1\n      pop\n        /* \"#utility.yul\":358:429   */\n      tag_16\n        /* \"#utility.yul\":426:427   */\n      0x00\n        /* \"#utility.yul\":415:424   */\n      dup4\n        /* \"#utility.yul\":411:428   */\n      add\n        /* \"#utility.yul\":402:408   */\n      dup5\n        /* \"#utility.yul\":358:429   */\n      tag_10\n      jump\t// in\n    tag_16:\n        /* \"#utility.yul\":214:436   */\n      swap3\n      swap2\n      pop\n      pop\n      jump\t// out\n\n    auxdata: 0xa2646970667358221220d92e4a170f6f7b54ed6816eb6e34cef51837bc39974458731d8c9df8c93f395764736f6c63430008110033\n}\n",
				"bytecode": {
					"linkReferences": {},
					"object": "608060405234801561001057600080fd5b5060b68061001f6000396000f3fe6080604052348015600f57600080fd5b506004361060285760003560e01c806326121ff014602d575b600080fd5b60336047565b604051603e91906067565b60405180910390f35b60006005905090565b6000819050919050565b6061816050565b82525050565b6000602082019050607a6000830184605a565b9291505056fea2646970667358221220d92e4a170f6f7b54ed6816eb6e34cef51837bc39974458731d8c9df8c93f395764736f6c63430008110033",
					"opcodes": "PUSH1 0x80 PUSH1 0x40 MSTORE CALLVALUE DUP1 ISZERO PUSH2 0x10 JUMPI PUSH1 0x0 DUP1 REVERT JUMPDEST POP PUSH1 0xB6 DUP1 PUSH2 0x1F PUSH1 0x0 CODECOPY PUSH1 0x0 RETURN INVALID PUSH1 0x80 PUSH1 0x40 MSTORE CALLVALUE DUP1 ISZERO PUSH1 0xF JUMPI PUSH1 0x0 DUP1 REVERT JUMPDEST POP PUSH1 0x4 CALLDATASIZE LT PUSH1 0x28 JUMPI PUSH1 0x0 CALLDATALOAD PUSH1 0xE0 SHR DUP1 PUSH4 0x26121FF0 EQ PUSH1 0x2D JUMPI JUMPDEST PUSH1 0x0 DUP1 REVERT JUMPDEST PUSH1 0x33 PUSH1 0x47 JUMP JUMPDEST PUSH1 0x40 MLOAD PUSH1 0x3E SWAP2 SWAP1 PUSH1 0x67 JUMP JUMPDEST PUSH1 0x40 MLOAD DUP1 SWAP2 SUB SWAP1 RETURN JUMPDEST PUSH1 0x0 PUSH1 0x5 SWAP1 POP SWAP1 JUMP JUMPDEST PUSH1 0x0 DUP2 SWAP1 POP SWAP2 SWAP1 POP JUMP JUMPDEST PUSH1 0x61 DUP2 PUSH1 0x50 JUMP JUMPDEST DUP3 MSTORE POP POP JUMP JUMPDEST PUSH1 0x0 PUSH1 0x20 DUP3 ADD SWAP1 POP PUSH1 0x7A PUSH1 0x0 DUP4 ADD DUP5 PUSH1 0x5A JUMP JUMPDEST SWAP3 SWAP2 POP POP JUMP INVALID LOG2 PUSH5 0x6970667358 0x22 SLT KECCAK256 0xD9 0x2E 0x4A OR 0xF PUSH16 0x7B54ED6816EB6E34CEF51837BC399744 PC PUSH20 0x1D8C9DF8C93F395764736F6C6343000811003300 "
				},
				"gasEstimates": {
					"creation": {
						"codeDepositCost": "36400",
						"executionCost": "87",
						"totalCost": "36487"
					},
					"external": {
						"f()": "315"
					}
				},
				"methodIdentifiers": {
					"f()": "26121ff0"
				}
			},
			"storageLayout": {
				"storage": [],
				"types": null
			},
			"userdoc": {
				"kind": "user",
				"methods": {},
				"version": 1
			}
		}
	}
}