{
	"合约/_11_合约_继承_函数重写.sol": {
		"Base": {
			"abi": [
				{
					"inputs": [],
					"name": "boo",
					"outputs": [],
					"stateMutability": "view",
					"type": "function"
				},
				{
					"inputs": [],
					"name": "foo",
					"outputs": [],
					"stateMutability": "view",
					"type": "function"
				}
			],
			"devdoc": {
				"kind": "dev",
				"methods": {},
				"version": 1
			},
			"evm": {
				"assembly": "    /* \"\\xe5\\x90\\x88\\xe7\\xba\\xa6/_11_\\xe5\\x90\\x88\\xe7\\xba\\xa6_\\xe7\\xbb\\xa7\\xe6\\x89\\xbf_\\xe5\\x87\\xbd\\xe6\\x95\\xb0\\xe9\\x87\\x8d\\xe5\\x86\\x99.sol\":946:1051  contract Base{... */\n  mstore(0x40, 0x80)\n  callvalue\n  dup1\n  iszero\n  tag_1\n  jumpi\n  0x00\n  dup1\n  revert\ntag_1:\n  pop\n  dataSize(sub_0)\n  dup1\n  dataOffset(sub_0)\n  0x00\n  codecopy\n  0x00\n  return\nstop\n\nsub_0: assembly {\n        /* \"\\xe5\\x90\\x88\\xe7\\xba\\xa6/_11_\\xe5\\x90\\x88\\xe7\\xba\\xa6_\\xe7\\xbb\\xa7\\xe6\\x89\\xbf_\\xe5\\x87\\xbd\\xe6\\x95\\xb0\\xe9\\x87\\x8d\\xe5\\x86\\x99.sol\":946:1051  contract Base{... */\n      mstore(0x40, 0x80)\n      callvalue\n      dup1\n      iszero\n      tag_1\n      jumpi\n      0x00\n      dup1\n      revert\n    tag_1:\n      pop\n      jumpi(tag_2, lt(calldatasize, 0x04))\n      shr(0xe0, calldataload(0x00))\n      dup1\n      0x4b3df200\n      eq\n      tag_3\n      jumpi\n      dup1\n      0xc2985578\n      eq\n      tag_4\n      jumpi\n    tag_2:\n      0x00\n      dup1\n      revert\n        /* \"\\xe5\\x90\\x88\\xe7\\xba\\xa6/_11_\\xe5\\x90\\x88\\xe7\\xba\\xa6_\\xe7\\xbb\\xa7\\xe6\\x89\\xbf_\\xe5\\x87\\xbd\\xe6\\x95\\xb0\\xe9\\x87\\x8d\\xe5\\x86\\x99.sol\":1011:1048  function boo() virtual public view {} */\n    tag_3:\n      tag_5\n      tag_6\n      jump\t// in\n    tag_5:\n      stop\n        /* \"\\xe5\\x90\\x88\\xe7\\xba\\xa6/_11_\\xe5\\x90\\x88\\xe7\\xba\\xa6_\\xe7\\xbb\\xa7\\xe6\\x89\\xbf_\\xe5\\x87\\xbd\\xe6\\x95\\xb0\\xe9\\x87\\x8d\\xe5\\x86\\x99.sol\":966:1005  function foo() virtual external view {} */\n    tag_4:\n      tag_7\n      tag_8\n      jump\t// in\n    tag_7:\n      stop\n        /* \"\\xe5\\x90\\x88\\xe7\\xba\\xa6/_11_\\xe5\\x90\\x88\\xe7\\xba\\xa6_\\xe7\\xbb\\xa7\\xe6\\x89\\xbf_\\xe5\\x87\\xbd\\xe6\\x95\\xb0\\xe9\\x87\\x8d\\xe5\\x86\\x99.sol\":1011:1048  function boo() virtual public view {} */\n    tag_6:\n      jump\t// out\n        /* \"\\xe5\\x90\\x88\\xe7\\xba\\xa6/_11_\\xe5\\x90\\x88\\xe7\\xba\\xa6_\\xe7\\xbb\\xa7\\xe6\\x89\\xbf_\\xe5\\x87\\xbd\\xe6\\x95\\xb0\\xe9\\x87\\x8d\\xe5\\x86\\x99.sol\":966:1005  function foo() virtual external view {} */\n    tag_8:\n      jump\t// out\n\n    auxdata: 0xa2646970667358221220f09220b0990500fd1980ff78270a54b7ee68a98f4337b8bbf580e46f4d0bd1b064736f6c63430008110033\n}\n",
				"bytecode": {
					"linkReferences": {},
					"object": "6080604052348015600f57600080fd5b5060818061001e6000396000f3fe6080604052348015600f57600080fd5b506004361060325760003560e01c80634b3df200146037578063c298557814603f575b600080fd5b603d6047565b005b60456049565b005b565b56fea2646970667358221220f09220b0990500fd1980ff78270a54b7ee68a98f4337b8bbf580e46f4d0bd1b064736f6c63430008110033",
					"opcodes": "PUSH1 0x80 PUSH1 0x40 MSTORE CALLVALUE DUP1 ISZERO PUSH1 0xF JUMPI PUSH1 0x0 DUP1 REVERT JUMPDEST POP PUSH1 0x81 DUP1 PUSH2 0x1E PUSH1 0x0 CODECOPY PUSH1 0x0 RETURN INVALID PUSH1 0x80 PUSH1 0x40 MSTORE CALLVALUE DUP1 ISZERO PUSH1 0xF JUMPI PUSH1 0x0 DUP1 REVERT JUMPDEST POP PUSH1 0x4 CALLDATASIZE LT PUSH1 0x32 JUMPI PUSH1 0x0 CALLDATALOAD PUSH1 0xE0 SHR DUP1 PUSH4 0x4B3DF200 EQ PUSH1 0x37 JUMPI DUP1 PUSH4 0xC2985578 EQ PUSH1 0x3F JUMPI JUMPDEST PUSH1 0x0 DUP1 REVERT JUMPDEST PUSH1 0x3D PUSH1 0x47 JUMP JUMPDEST STOP JUMPDEST PUSH1 0x45 PUSH1 0x49 JUMP JUMPDEST STOP JUMPDEST JUMP JUMPDEST JUMP INVALID LOG2 PUSH5 0x6970667358 0x22 SLT KECCAK256 CREATE SWAP3 KECCAK256 0xB0 SWAP10 SDIV STOP REVERT NOT DUP1 SELFDESTRUCT PUSH25 0x270A54B7EE68A98F4337B8BBF580E46F4D0BD1B064736F6C63 NUMBER STOP ADDMOD GT STOP CALLER "
				},
				"gasEstimates": {
					"creation": {
						"codeDepositCost": "25800",
						"executionCost": "81",
						"totalCost": "25881"
					},
					"external": {
						"boo()": "122",
						"foo()": "144"
					}
				},
				"methodIdentifiers": {
					"boo()": "4b3df200",
					"foo()": "c2985578"
				}
			},
			"storageLayout": {
				"storage": [],
				"types": null
			},
			"userdoc": {
				"kind": "user",
				"methods": {},
				"notice": "- 父合约标记为 virtual 函数可以在继承合约里重写(overridden)以更改他们的行为。 重写的函数需要使用关键字 override 修饰。 - 重写函数只能将函数的可见性从 external 更改为 public 。 - 重写函数只能将函数的可变性按照以下顺序更改为更严格的一种：  nonpayable 可以被 view 和 pure 覆盖。  view 可以被 pure 覆盖。  payable 是一个例外，不能更改为任何其他可变性。 - 如果函数没有标记为 virtual ， 那么派生合约将不能重写该方法 - 已重写的方法仍然可以使用(super. 或者 父合约.) 来调用 - private 的函数是不可以标记为 virtual 的。 - 除接口之外（因为接口会自动作为 virtual ），没有实现的函数必须标记为 virtual",
				"version": 1
			}
		}
	}
}