{
	"合约/_11_合约_继承_函数重写.sol": {
		"Inherited": {
			"abi": [
				{
					"inputs": [],
					"name": "foo",
					"outputs": [],
					"stateMutability": "nonpayable",
					"type": "function"
				}
			],
			"devdoc": {
				"kind": "dev",
				"methods": {},
				"version": 1
			},
			"evm": {
				"assembly": "    /* \"\\xe5\\x90\\x88\\xe7\\xba\\xa6/_11_\\xe5\\x90\\x88\\xe7\\xba\\xa6_\\xe7\\xbb\\xa7\\xe6\\x89\\xbf_\\xe5\\x87\\xbd\\xe6\\x95\\xb0\\xe9\\x87\\x8d\\xe5\\x86\\x99.sol\":1467:1664  contract Inherited is Base1, Base2{... */\n  mstore(0x40, 0x80)\n  callvalue\n  dup1\n  iszero\n  tag_1\n  jumpi\n  0x00\n  dup1\n  revert\ntag_1:\n  pop\n  dataSize(sub_0)\n  dup1\n  dataOffset(sub_0)\n  0x00\n  codecopy\n  0x00\n  return\nstop\n\nsub_0: assembly {\n        /* \"\\xe5\\x90\\x88\\xe7\\xba\\xa6/_11_\\xe5\\x90\\x88\\xe7\\xba\\xa6_\\xe7\\xbb\\xa7\\xe6\\x89\\xbf_\\xe5\\x87\\xbd\\xe6\\x95\\xb0\\xe9\\x87\\x8d\\xe5\\x86\\x99.sol\":1467:1664  contract Inherited is Base1, Base2{... */\n      mstore(0x40, 0x80)\n      callvalue\n      dup1\n      iszero\n      tag_1\n      jumpi\n      0x00\n      dup1\n      revert\n    tag_1:\n      pop\n      jumpi(tag_2, lt(calldatasize, 0x04))\n      shr(0xe0, calldataload(0x00))\n      dup1\n      0xc2985578\n      eq\n      tag_3\n      jumpi\n    tag_2:\n      0x00\n      dup1\n      revert\n        /* \"\\xe5\\x90\\x88\\xe7\\xba\\xa6/_11_\\xe5\\x90\\x88\\xe7\\xba\\xa6_\\xe7\\xbb\\xa7\\xe6\\x89\\xbf_\\xe5\\x87\\xbd\\xe6\\x95\\xb0\\xe9\\x87\\x8d\\xe5\\x86\\x99.sol\":1614:1661  function foo() public override(Base1, Base2) {} */\n    tag_3:\n      tag_4\n      tag_5\n      jump\t// in\n    tag_4:\n      stop\n    tag_5:\n      jump\t// out\n\n    auxdata: 0xa2646970667358221220ed12771cff835f94200dc3f582deaa580d913d45983c47ff72f0953d2e166f8e64736f6c63430008110033\n}\n",
				"bytecode": {
					"linkReferences": {},
					"object": "6080604052348015600f57600080fd5b50606d80601d6000396000f3fe6080604052348015600f57600080fd5b506004361060285760003560e01c8063c298557814602d575b600080fd5b60336035565b005b56fea2646970667358221220ed12771cff835f94200dc3f582deaa580d913d45983c47ff72f0953d2e166f8e64736f6c63430008110033",
					"opcodes": "PUSH1 0x80 PUSH1 0x40 MSTORE CALLVALUE DUP1 ISZERO PUSH1 0xF JUMPI PUSH1 0x0 DUP1 REVERT JUMPDEST POP PUSH1 0x6D DUP1 PUSH1 0x1D PUSH1 0x0 CODECOPY PUSH1 0x0 RETURN INVALID PUSH1 0x80 PUSH1 0x40 MSTORE CALLVALUE DUP1 ISZERO PUSH1 0xF JUMPI PUSH1 0x0 DUP1 REVERT JUMPDEST POP PUSH1 0x4 CALLDATASIZE LT PUSH1 0x28 JUMPI PUSH1 0x0 CALLDATALOAD PUSH1 0xE0 SHR DUP1 PUSH4 0xC2985578 EQ PUSH1 0x2D JUMPI JUMPDEST PUSH1 0x0 DUP1 REVERT JUMPDEST PUSH1 0x33 PUSH1 0x35 JUMP JUMPDEST STOP JUMPDEST JUMP INVALID LOG2 PUSH5 0x6970667358 0x22 SLT KECCAK256 0xED SLT PUSH24 0x1CFF835F94200DC3F582DEAA580D913D45983C47FF72F095 RETURNDATASIZE 0x2E AND PUSH16 0x8E64736F6C6343000811003300000000 "
				},
				"gasEstimates": {
					"creation": {
						"codeDepositCost": "21800",
						"executionCost": "75",
						"totalCost": "21875"
					},
					"external": {
						"foo()": "122"
					}
				},
				"methodIdentifiers": {
					"foo()": "c2985578"
				}
			},
			"storageLayout": {
				"storage": [],
				"types": null
			},
			"userdoc": {
				"kind": "user",
				"methods": {},
				"version": 1
			}
		}
	}
}