{
	"合约/_18_库.sol": {
		"C": {
			"abi": [
				{
					"inputs": [],
					"name": "addr1",
					"outputs": [
						{
							"internalType": "address",
							"name": "",
							"type": "address"
						}
					],
					"stateMutability": "view",
					"type": "function"
				},
				{
					"inputs": [],
					"name": "addr2",
					"outputs": [
						{
							"internalType": "address",
							"name": "",
							"type": "address"
						}
					],
					"stateMutability": "view",
					"type": "function"
				},
				{
					"inputs": [
						{
							"internalType": "uint256",
							"name": "value",
							"type": "uint256"
						}
					],
					"name": "register",
					"outputs": [],
					"stateMutability": "nonpayable",
					"type": "function"
				}
			],
			"devdoc": {
				"kind": "dev",
				"methods": {},
				"version": 1
			},
			"evm": {
				"assembly": "    /* \"\\xe5\\x90\\x88\\xe7\\xba\\xa6/_18_\\xe5\\xba\\x93.sol\":1899:2449  contract C {... */\n  mstore(0x40, 0x80)\n  callvalue\n  dup1\n  iszero\n  tag_1\n  jumpi\n  0x00\n  dup1\n  revert\ntag_1:\n  pop\n  dataSize(sub_0)\n  dup1\n  dataOffset(sub_0)\n  0x00\n  codecopy\n  0x00\n  return\nstop\n\nsub_0: assembly {\n        /* \"\\xe5\\x90\\x88\\xe7\\xba\\xa6/_18_\\xe5\\xba\\x93.sol\":1899:2449  contract C {... */\n      mstore(0x40, 0x80)\n      callvalue\n      dup1\n      iszero\n      tag_1\n      jumpi\n      0x00\n      dup1\n      revert\n    tag_1:\n      pop\n      jumpi(tag_2, lt(calldatasize, 0x04))\n      shr(0xe0, calldataload(0x00))\n      dup1\n      0x8de38f98\n      eq\n      tag_3\n      jumpi\n      dup1\n      0xeabe09ad\n      eq\n      tag_4\n      jumpi\n      dup1\n      0xf207564e\n      eq\n      tag_5\n      jumpi\n    tag_2:\n      0x00\n      dup1\n      revert\n        /* \"\\xe5\\x90\\x88\\xe7\\xba\\xa6/_18_\\xe5\\xba\\x93.sol\":2356:2442  function addr2() public view returns (address) {... */\n    tag_3:\n      tag_6\n      tag_7\n      jump\t// in\n    tag_6:\n      mload(0x40)\n      tag_8\n      swap2\n      swap1\n      tag_9\n      jump\t// in\n    tag_8:\n      mload(0x40)\n      dup1\n      swap2\n      sub\n      swap1\n      return\n        /* \"\\xe5\\x90\\x88\\xe7\\xba\\xa6/_18_\\xe5\\xba\\x93.sol\":2265:2348  function addr1() public view returns (address) {... */\n    tag_4:\n      tag_10\n      tag_11\n      jump\t// in\n    tag_10:\n      mload(0x40)\n      tag_12\n      swap2\n      swap1\n      tag_9\n      jump\t// in\n    tag_12:\n      mload(0x40)\n      dup1\n      swap2\n      sub\n      swap1\n      return\n        /* \"\\xe5\\x90\\x88\\xe7\\xba\\xa6/_18_\\xe5\\xba\\x93.sol\":1942:2161  function register(uint256 value) public {... */\n    tag_5:\n      tag_13\n      0x04\n      dup1\n      calldatasize\n      sub\n      dup2\n      add\n      swap1\n      tag_14\n      swap2\n      swap1\n      tag_15\n      jump\t// in\n    tag_14:\n      tag_16\n      jump\t// in\n    tag_13:\n      stop\n        /* \"\\xe5\\x90\\x88\\xe7\\xba\\xa6/_18_\\xe5\\xba\\x93.sol\":2356:2442  function addr2() public view returns (address) {... */\n    tag_7:\n        /* \"\\xe5\\x90\\x88\\xe7\\xba\\xa6/_18_\\xe5\\xba\\x93.sol\":2394:2401  address */\n      0x00\n        /* \"\\xe5\\x90\\x88\\xe7\\xba\\xa6/_18_\\xe5\\xba\\x93.sol\":2429:2433  this */\n      address\n        /* \"\\xe5\\x90\\x88\\xe7\\xba\\xa6/_18_\\xe5\\xba\\x93.sol\":2414:2434  return address(this) */\n      swap1\n      pop\n        /* \"\\xe5\\x90\\x88\\xe7\\xba\\xa6/_18_\\xe5\\xba\\x93.sol\":2356:2442  function addr2() public view returns (address) {... */\n      swap1\n      jump\t// out\n        /* \"\\xe5\\x90\\x88\\xe7\\xba\\xa6/_18_\\xe5\\xba\\x93.sol\":2265:2348  function addr1() public view returns (address) {... */\n    tag_11:\n        /* \"\\xe5\\x90\\x88\\xe7\\xba\\xa6/_18_\\xe5\\xba\\x93.sol\":2303:2310  address */\n      0x00\n        /* \"\\xe5\\x90\\x88\\xe7\\xba\\xa6/_18_\\xe5\\xba\\x93.sol\":2330:2333  Set */\n      linkerSymbol(\"e5689726233081e6c4938b439e59198aaab53a794b7f5a1c3f820c4c43aa5fed\")\n        /* \"\\xe5\\x90\\x88\\xe7\\xba\\xa6/_18_\\xe5\\xba\\x93.sol\":2330:2338  Set.addr */\n      0x767800de\n        /* \"\\xe5\\x90\\x88\\xe7\\xba\\xa6/_18_\\xe5\\xba\\x93.sol\":2330:2340  Set.addr() */\n      mload(0x40)\n      dup2\n      0xffffffff\n      and\n      0xe0\n      shl\n      dup2\n      mstore\n      0x04\n      add\n      0x20\n      mload(0x40)\n      dup1\n      dup4\n      sub\n      dup2\n      dup7\n      gas\n      delegatecall\n      iszero\n      dup1\n      iszero\n      tag_20\n      jumpi\n      returndatasize\n      0x00\n      dup1\n      returndatacopy\n      revert(0x00, returndatasize)\n    tag_20:\n      pop\n      pop\n      pop\n      pop\n      mload(0x40)\n      returndatasize\n      not(0x1f)\n      0x1f\n      dup3\n      add\n      and\n      dup3\n      add\n      dup1\n      0x40\n      mstore\n      pop\n      dup2\n      add\n      swap1\n      tag_21\n      swap2\n      swap1\n      tag_22\n      jump\t// in\n    tag_21:\n        /* \"\\xe5\\x90\\x88\\xe7\\xba\\xa6/_18_\\xe5\\xba\\x93.sol\":2323:2340  return Set.addr() */\n      swap1\n      pop\n        /* \"\\xe5\\x90\\x88\\xe7\\xba\\xa6/_18_\\xe5\\xba\\x93.sol\":2265:2348  function addr1() public view returns (address) {... */\n      swap1\n      jump\t// out\n        /* \"\\xe5\\x90\\x88\\xe7\\xba\\xa6/_18_\\xe5\\xba\\x93.sol\":1942:2161  function register(uint256 value) public {... */\n    tag_16:\n        /* \"\\xe5\\x90\\x88\\xe7\\xba\\xa6/_18_\\xe5\\xba\\x93.sol\":2122:2125  Set */\n      linkerSymbol(\"e5689726233081e6c4938b439e59198aaab53a794b7f5a1c3f820c4c43aa5fed\")\n        /* \"\\xe5\\x90\\x88\\xe7\\xba\\xa6/_18_\\xe5\\xba\\x93.sol\":2122:2132  Set.insert */\n      0x3ab90ad8\n        /* \"\\xe5\\x90\\x88\\xe7\\xba\\xa6/_18_\\xe5\\xba\\x93.sol\":2133:2144  knownValues */\n      0x00\n        /* \"\\xe5\\x90\\x88\\xe7\\xba\\xa6/_18_\\xe5\\xba\\x93.sol\":2146:2151  value */\n      dup4\n        /* \"\\xe5\\x90\\x88\\xe7\\xba\\xa6/_18_\\xe5\\xba\\x93.sol\":2122:2152  Set.insert(knownValues, value) */\n      mload(0x40)\n      dup4\n      0xffffffff\n      and\n      0xe0\n      shl\n      dup2\n      mstore\n      0x04\n      add\n      tag_24\n      swap3\n      swap2\n      swap1\n      tag_25\n      jump\t// in\n    tag_24:\n      0x20\n      mload(0x40)\n      dup1\n      dup4\n      sub\n      dup2\n      dup7\n      gas\n      delegatecall\n      iszero\n      dup1\n      iszero\n      tag_27\n      jumpi\n      returndatasize\n      0x00\n      dup1\n      returndatacopy\n      revert(0x00, returndatasize)\n    tag_27:\n      pop\n      pop\n      pop\n      pop\n      mload(0x40)\n      returndatasize\n      not(0x1f)\n      0x1f\n      dup3\n      add\n      and\n      dup3\n      add\n      dup1\n      0x40\n      mstore\n      pop\n      dup2\n      add\n      swap1\n      tag_28\n      swap2\n      swap1\n      tag_29\n      jump\t// in\n    tag_28:\n        /* \"\\xe5\\x90\\x88\\xe7\\xba\\xa6/_18_\\xe5\\xba\\x93.sol\":2114:2153  require(Set.insert(knownValues, value)) */\n      tag_30\n      jumpi\n      0x00\n      dup1\n      revert\n    tag_30:\n        /* \"\\xe5\\x90\\x88\\xe7\\xba\\xa6/_18_\\xe5\\xba\\x93.sol\":1942:2161  function register(uint256 value) public {... */\n      pop\n      jump\t// out\n        /* \"#utility.yul\":7:133   */\n    tag_31:\n        /* \"#utility.yul\":44:51   */\n      0x00\n        /* \"#utility.yul\":84:126   */\n      0xffffffffffffffffffffffffffffffffffffffff\n        /* \"#utility.yul\":77:82   */\n      dup3\n        /* \"#utility.yul\":73:127   */\n      and\n        /* \"#utility.yul\":62:127   */\n      swap1\n      pop\n        /* \"#utility.yul\":7:133   */\n      swap2\n      swap1\n      pop\n      jump\t// out\n        /* \"#utility.yul\":139:235   */\n    tag_32:\n        /* \"#utility.yul\":176:183   */\n      0x00\n        /* \"#utility.yul\":205:229   */\n      tag_50\n        /* \"#utility.yul\":223:228   */\n      dup3\n        /* \"#utility.yul\":205:229   */\n      tag_31\n      jump\t// in\n    tag_50:\n        /* \"#utility.yul\":194:229   */\n      swap1\n      pop\n        /* \"#utility.yul\":139:235   */\n      swap2\n      swap1\n      pop\n      jump\t// out\n        /* \"#utility.yul\":241:359   */\n    tag_33:\n        /* \"#utility.yul\":328:352   */\n      tag_52\n        /* \"#utility.yul\":346:351   */\n      dup2\n        /* \"#utility.yul\":328:352   */\n      tag_32\n      jump\t// in\n    tag_52:\n        /* \"#utility.yul\":323:326   */\n      dup3\n        /* \"#utility.yul\":316:353   */\n      mstore\n        /* \"#utility.yul\":241:359   */\n      pop\n      pop\n      jump\t// out\n        /* \"#utility.yul\":365:587   */\n    tag_9:\n        /* \"#utility.yul\":458:462   */\n      0x00\n        /* \"#utility.yul\":496:498   */\n      0x20\n        /* \"#utility.yul\":485:494   */\n      dup3\n        /* \"#utility.yul\":481:499   */\n      add\n        /* \"#utility.yul\":473:499   */\n      swap1\n      pop\n        /* \"#utility.yul\":509:580   */\n      tag_54\n        /* \"#utility.yul\":577:578   */\n      0x00\n        /* \"#utility.yul\":566:575   */\n      dup4\n        /* \"#utility.yul\":562:579   */\n      add\n        /* \"#utility.yul\":553:559   */\n      dup5\n        /* \"#utility.yul\":509:580   */\n      tag_33\n      jump\t// in\n    tag_54:\n        /* \"#utility.yul\":365:587   */\n      swap3\n      swap2\n      pop\n      pop\n      jump\t// out\n        /* \"#utility.yul\":674:791   */\n    tag_35:\n        /* \"#utility.yul\":783:784   */\n      0x00\n        /* \"#utility.yul\":780:781   */\n      dup1\n        /* \"#utility.yul\":773:785   */\n      revert\n        /* \"#utility.yul\":920:997   */\n    tag_37:\n        /* \"#utility.yul\":957:964   */\n      0x00\n        /* \"#utility.yul\":986:991   */\n      dup2\n        /* \"#utility.yul\":975:991   */\n      swap1\n      pop\n        /* \"#utility.yul\":920:997   */\n      swap2\n      swap1\n      pop\n      jump\t// out\n        /* \"#utility.yul\":1003:1125   */\n    tag_38:\n        /* \"#utility.yul\":1076:1100   */\n      tag_60\n        /* \"#utility.yul\":1094:1099   */\n      dup2\n        /* \"#utility.yul\":1076:1100   */\n      tag_37\n      jump\t// in\n    tag_60:\n        /* \"#utility.yul\":1069:1074   */\n      dup2\n        /* \"#utility.yul\":1066:1101   */\n      eq\n        /* \"#utility.yul\":1056:1119   */\n      tag_61\n      jumpi\n        /* \"#utility.yul\":1115:1116   */\n      0x00\n        /* \"#utility.yul\":1112:1113   */\n      dup1\n        /* \"#utility.yul\":1105:1117   */\n      revert\n        /* \"#utility.yul\":1056:1119   */\n    tag_61:\n        /* \"#utility.yul\":1003:1125   */\n      pop\n      jump\t// out\n        /* \"#utility.yul\":1131:1270   */\n    tag_39:\n        /* \"#utility.yul\":1177:1182   */\n      0x00\n        /* \"#utility.yul\":1215:1221   */\n      dup2\n        /* \"#utility.yul\":1202:1222   */\n      calldataload\n        /* \"#utility.yul\":1193:1222   */\n      swap1\n      pop\n        /* \"#utility.yul\":1231:1264   */\n      tag_63\n        /* \"#utility.yul\":1258:1263   */\n      dup2\n        /* \"#utility.yul\":1231:1264   */\n      tag_38\n      jump\t// in\n    tag_63:\n        /* \"#utility.yul\":1131:1270   */\n      swap3\n      swap2\n      pop\n      pop\n      jump\t// out\n        /* \"#utility.yul\":1276:1605   */\n    tag_15:\n        /* \"#utility.yul\":1335:1341   */\n      0x00\n        /* \"#utility.yul\":1384:1386   */\n      0x20\n        /* \"#utility.yul\":1372:1381   */\n      dup3\n        /* \"#utility.yul\":1363:1370   */\n      dup5\n        /* \"#utility.yul\":1359:1382   */\n      sub\n        /* \"#utility.yul\":1355:1387   */\n      slt\n        /* \"#utility.yul\":1352:1471   */\n      iszero\n      tag_65\n      jumpi\n        /* \"#utility.yul\":1390:1469   */\n      tag_66\n      tag_35\n      jump\t// in\n    tag_66:\n        /* \"#utility.yul\":1352:1471   */\n    tag_65:\n        /* \"#utility.yul\":1510:1511   */\n      0x00\n        /* \"#utility.yul\":1535:1588   */\n      tag_67\n        /* \"#utility.yul\":1580:1587   */\n      dup5\n        /* \"#utility.yul\":1571:1577   */\n      dup3\n        /* \"#utility.yul\":1560:1569   */\n      dup6\n        /* \"#utility.yul\":1556:1578   */\n      add\n        /* \"#utility.yul\":1535:1588   */\n      tag_39\n      jump\t// in\n    tag_67:\n        /* \"#utility.yul\":1525:1588   */\n      swap2\n      pop\n        /* \"#utility.yul\":1481:1598   */\n      pop\n        /* \"#utility.yul\":1276:1605   */\n      swap3\n      swap2\n      pop\n      pop\n      jump\t// out\n        /* \"#utility.yul\":1611:1733   */\n    tag_40:\n        /* \"#utility.yul\":1684:1708   */\n      tag_69\n        /* \"#utility.yul\":1702:1707   */\n      dup2\n        /* \"#utility.yul\":1684:1708   */\n      tag_32\n      jump\t// in\n    tag_69:\n        /* \"#utility.yul\":1677:1682   */\n      dup2\n        /* \"#utility.yul\":1674:1709   */\n      eq\n        /* \"#utility.yul\":1664:1727   */\n      tag_70\n      jumpi\n        /* \"#utility.yul\":1723:1724   */\n      0x00\n        /* \"#utility.yul\":1720:1721   */\n      dup1\n        /* \"#utility.yul\":1713:1725   */\n      revert\n        /* \"#utility.yul\":1664:1727   */\n    tag_70:\n        /* \"#utility.yul\":1611:1733   */\n      pop\n      jump\t// out\n        /* \"#utility.yul\":1739:1882   */\n    tag_41:\n        /* \"#utility.yul\":1796:1801   */\n      0x00\n        /* \"#utility.yul\":1827:1833   */\n      dup2\n        /* \"#utility.yul\":1821:1834   */\n      mload\n        /* \"#utility.yul\":1812:1834   */\n      swap1\n      pop\n        /* \"#utility.yul\":1843:1876   */\n      tag_72\n        /* \"#utility.yul\":1870:1875   */\n      dup2\n        /* \"#utility.yul\":1843:1876   */\n      tag_40\n      jump\t// in\n    tag_72:\n        /* \"#utility.yul\":1739:1882   */\n      swap3\n      swap2\n      pop\n      pop\n      jump\t// out\n        /* \"#utility.yul\":1888:2239   */\n    tag_22:\n        /* \"#utility.yul\":1958:1964   */\n      0x00\n        /* \"#utility.yul\":2007:2009   */\n      0x20\n        /* \"#utility.yul\":1995:2004   */\n      dup3\n        /* \"#utility.yul\":1986:1993   */\n      dup5\n        /* \"#utility.yul\":1982:2005   */\n      sub\n        /* \"#utility.yul\":1978:2010   */\n      slt\n        /* \"#utility.yul\":1975:2094   */\n      iszero\n      tag_74\n      jumpi\n        /* \"#utility.yul\":2013:2092   */\n      tag_75\n      tag_35\n      jump\t// in\n    tag_75:\n        /* \"#utility.yul\":1975:2094   */\n    tag_74:\n        /* \"#utility.yul\":2133:2134   */\n      0x00\n        /* \"#utility.yul\":2158:2222   */\n      tag_76\n        /* \"#utility.yul\":2214:2221   */\n      dup5\n        /* \"#utility.yul\":2205:2211   */\n      dup3\n        /* \"#utility.yul\":2194:2203   */\n      dup6\n        /* \"#utility.yul\":2190:2212   */\n      add\n        /* \"#utility.yul\":2158:2222   */\n      tag_41\n      jump\t// in\n    tag_76:\n        /* \"#utility.yul\":2148:2222   */\n      swap2\n      pop\n        /* \"#utility.yul\":2104:2232   */\n      pop\n        /* \"#utility.yul\":1888:2239   */\n      swap3\n      swap2\n      pop\n      pop\n      jump\t// out\n        /* \"#utility.yul\":2245:2368   */\n    tag_42:\n        /* \"#utility.yul\":2356:2361   */\n      dup1\n        /* \"#utility.yul\":2351:2354   */\n      dup3\n        /* \"#utility.yul\":2344:2362   */\n      mstore\n        /* \"#utility.yul\":2245:2368   */\n      pop\n      pop\n      jump\t// out\n        /* \"#utility.yul\":2374:2500   */\n    tag_43:\n        /* \"#utility.yul\":2469:2493   */\n      tag_79\n        /* \"#utility.yul\":2487:2492   */\n      dup2\n        /* \"#utility.yul\":2469:2493   */\n      tag_37\n      jump\t// in\n    tag_79:\n        /* \"#utility.yul\":2464:2467   */\n      dup3\n        /* \"#utility.yul\":2457:2494   */\n      mstore\n        /* \"#utility.yul\":2374:2500   */\n      pop\n      pop\n      jump\t// out\n        /* \"#utility.yul\":2506:2894   */\n    tag_25:\n        /* \"#utility.yul\":2651:2655   */\n      0x00\n        /* \"#utility.yul\":2689:2691   */\n      0x40\n        /* \"#utility.yul\":2678:2687   */\n      dup3\n        /* \"#utility.yul\":2674:2692   */\n      add\n        /* \"#utility.yul\":2666:2692   */\n      swap1\n      pop\n        /* \"#utility.yul\":2702:2797   */\n      tag_81\n        /* \"#utility.yul\":2794:2795   */\n      0x00\n        /* \"#utility.yul\":2783:2792   */\n      dup4\n        /* \"#utility.yul\":2779:2796   */\n      add\n        /* \"#utility.yul\":2770:2776   */\n      dup6\n        /* \"#utility.yul\":2702:2797   */\n      tag_42\n      jump\t// in\n    tag_81:\n        /* \"#utility.yul\":2807:2887   */\n      tag_82\n        /* \"#utility.yul\":2883:2885   */\n      0x20\n        /* \"#utility.yul\":2872:2881   */\n      dup4\n        /* \"#utility.yul\":2868:2886   */\n      add\n        /* \"#utility.yul\":2859:2865   */\n      dup5\n        /* \"#utility.yul\":2807:2887   */\n      tag_43\n      jump\t// in\n    tag_82:\n        /* \"#utility.yul\":2506:2894   */\n      swap4\n      swap3\n      pop\n      pop\n      pop\n      jump\t// out\n        /* \"#utility.yul\":2900:2990   */\n    tag_44:\n        /* \"#utility.yul\":2934:2941   */\n      0x00\n        /* \"#utility.yul\":2977:2982   */\n      dup2\n        /* \"#utility.yul\":2970:2983   */\n      iszero\n        /* \"#utility.yul\":2963:2984   */\n      iszero\n        /* \"#utility.yul\":2952:2984   */\n      swap1\n      pop\n        /* \"#utility.yul\":2900:2990   */\n      swap2\n      swap1\n      pop\n      jump\t// out\n        /* \"#utility.yul\":2996:3112   */\n    tag_45:\n        /* \"#utility.yul\":3066:3087   */\n      tag_85\n        /* \"#utility.yul\":3081:3086   */\n      dup2\n        /* \"#utility.yul\":3066:3087   */\n      tag_44\n      jump\t// in\n    tag_85:\n        /* \"#utility.yul\":3059:3064   */\n      dup2\n        /* \"#utility.yul\":3056:3088   */\n      eq\n        /* \"#utility.yul\":3046:3106   */\n      tag_86\n      jumpi\n        /* \"#utility.yul\":3102:3103   */\n      0x00\n        /* \"#utility.yul\":3099:3100   */\n      dup1\n        /* \"#utility.yul\":3092:3104   */\n      revert\n        /* \"#utility.yul\":3046:3106   */\n    tag_86:\n        /* \"#utility.yul\":2996:3112   */\n      pop\n      jump\t// out\n        /* \"#utility.yul\":3118:3255   */\n    tag_46:\n        /* \"#utility.yul\":3172:3177   */\n      0x00\n        /* \"#utility.yul\":3203:3209   */\n      dup2\n        /* \"#utility.yul\":3197:3210   */\n      mload\n        /* \"#utility.yul\":3188:3210   */\n      swap1\n      pop\n        /* \"#utility.yul\":3219:3249   */\n      tag_88\n        /* \"#utility.yul\":3243:3248   */\n      dup2\n        /* \"#utility.yul\":3219:3249   */\n      tag_45\n      jump\t// in\n    tag_88:\n        /* \"#utility.yul\":3118:3255   */\n      swap3\n      swap2\n      pop\n      pop\n      jump\t// out\n        /* \"#utility.yul\":3261:3606   */\n    tag_29:\n        /* \"#utility.yul\":3328:3334   */\n      0x00\n        /* \"#utility.yul\":3377:3379   */\n      0x20\n        /* \"#utility.yul\":3365:3374   */\n      dup3\n        /* \"#utility.yul\":3356:3363   */\n      dup5\n        /* \"#utility.yul\":3352:3375   */\n      sub\n        /* \"#utility.yul\":3348:3380   */\n      slt\n        /* \"#utility.yul\":3345:3464   */\n      iszero\n      tag_90\n      jumpi\n        /* \"#utility.yul\":3383:3462   */\n      tag_91\n      tag_35\n      jump\t// in\n    tag_91:\n        /* \"#utility.yul\":3345:3464   */\n    tag_90:\n        /* \"#utility.yul\":3503:3504   */\n      0x00\n        /* \"#utility.yul\":3528:3589   */\n      tag_92\n        /* \"#utility.yul\":3581:3588   */\n      dup5\n        /* \"#utility.yul\":3572:3578   */\n      dup3\n        /* \"#utility.yul\":3561:3570   */\n      dup6\n        /* \"#utility.yul\":3557:3579   */\n      add\n        /* \"#utility.yul\":3528:3589   */\n      tag_46\n      jump\t// in\n    tag_92:\n        /* \"#utility.yul\":3518:3589   */\n      swap2\n      pop\n        /* \"#utility.yul\":3474:3599   */\n      pop\n        /* \"#utility.yul\":3261:3606   */\n      swap3\n      swap2\n      pop\n      pop\n      jump\t// out\n\n    auxdata: 0xa2646970667358221220afc056f4d18376d20e147f4edd7ad11b0e8c6f30b8cd6354b2bf32b9547a65f564736f6c63430008110033\n}\n",
				"bytecode": {
					"linkReferences": {
						"合约/_18_库.sol": {
							"Set": [
								{
									"length": 20,
									"start": 202
								},
								{
									"length": 20,
									"start": 316
								}
							]
						}
					},
					"object": "608060405234801561001057600080fd5b50610398806100206000396000f3fe608060405234801561001057600080fd5b50600436106100415760003560e01c80638de38f9814610046578063eabe09ad14610064578063f207564e14610082575b600080fd5b61004e61009e565b60405161005b91906101e2565b60405180910390f35b61006c6100a6565b60405161007991906101e2565b60405180910390f35b61009c60048036038101906100979190610238565b61011a565b005b600030905090565b600073__$e5689726233081e6c4938b439e59198aaa$__63767800de6040518163ffffffff1660e01b8152600401602060405180830381865af41580156100f1573d6000803e3d6000fd5b505050506040513d601f19601f820116820180604052508101906101159190610291565b905090565b73__$e5689726233081e6c4938b439e59198aaa$__633ab90ad86000836040518363ffffffff1660e01b81526004016101549291906102d4565b602060405180830381865af4158015610171573d6000803e3d6000fd5b505050506040513d601f19601f820116820180604052508101906101959190610335565b61019e57600080fd5b50565b600073ffffffffffffffffffffffffffffffffffffffff82169050919050565b60006101cc826101a1565b9050919050565b6101dc816101c1565b82525050565b60006020820190506101f760008301846101d3565b92915050565b600080fd5b6000819050919050565b61021581610202565b811461022057600080fd5b50565b6000813590506102328161020c565b92915050565b60006020828403121561024e5761024d6101fd565b5b600061025c84828501610223565b91505092915050565b61026e816101c1565b811461027957600080fd5b50565b60008151905061028b81610265565b92915050565b6000602082840312156102a7576102a66101fd565b5b60006102b58482850161027c565b91505092915050565b8082525050565b6102ce81610202565b82525050565b60006040820190506102e960008301856102be565b6102f660208301846102c5565b9392505050565b60008115159050919050565b610312816102fd565b811461031d57600080fd5b50565b60008151905061032f81610309565b92915050565b60006020828403121561034b5761034a6101fd565b5b600061035984828501610320565b9150509291505056fea2646970667358221220afc056f4d18376d20e147f4edd7ad11b0e8c6f30b8cd6354b2bf32b9547a65f564736f6c63430008110033",
					"opcodes": "PUSH1 0x80 PUSH1 0x40 MSTORE CALLVALUE DUP1 ISZERO PUSH2 0x10 JUMPI PUSH1 0x0 DUP1 REVERT JUMPDEST POP PUSH2 0x398 DUP1 PUSH2 0x20 PUSH1 0x0 CODECOPY PUSH1 0x0 RETURN INVALID PUSH1 0x80 PUSH1 0x40 MSTORE CALLVALUE DUP1 ISZERO PUSH2 0x10 JUMPI PUSH1 0x0 DUP1 REVERT JUMPDEST POP PUSH1 0x4 CALLDATASIZE LT PUSH2 0x41 JUMPI PUSH1 0x0 CALLDATALOAD PUSH1 0xE0 SHR DUP1 PUSH4 0x8DE38F98 EQ PUSH2 0x46 JUMPI DUP1 PUSH4 0xEABE09AD EQ PUSH2 0x64 JUMPI DUP1 PUSH4 0xF207564E EQ PUSH2 0x82 JUMPI JUMPDEST PUSH1 0x0 DUP1 REVERT JUMPDEST PUSH2 0x4E PUSH2 0x9E JUMP JUMPDEST PUSH1 0x40 MLOAD PUSH2 0x5B SWAP2 SWAP1 PUSH2 0x1E2 JUMP JUMPDEST PUSH1 0x40 MLOAD DUP1 SWAP2 SUB SWAP1 RETURN JUMPDEST PUSH2 0x6C PUSH2 0xA6 JUMP JUMPDEST PUSH1 0x40 MLOAD PUSH2 0x79 SWAP2 SWAP1 PUSH2 0x1E2 JUMP JUMPDEST PUSH1 0x40 MLOAD DUP1 SWAP2 SUB SWAP1 RETURN JUMPDEST PUSH2 0x9C PUSH1 0x4 DUP1 CALLDATASIZE SUB DUP2 ADD SWAP1 PUSH2 0x97 SWAP2 SWAP1 PUSH2 0x238 JUMP JUMPDEST PUSH2 0x11A JUMP JUMPDEST STOP JUMPDEST PUSH1 0x0 ADDRESS SWAP1 POP SWAP1 JUMP JUMPDEST PUSH1 0x0 PUSH20 0x0 PUSH4 0x767800DE PUSH1 0x40 MLOAD DUP2 PUSH4 0xFFFFFFFF AND PUSH1 0xE0 SHL DUP2 MSTORE PUSH1 0x4 ADD PUSH1 0x20 PUSH1 0x40 MLOAD DUP1 DUP4 SUB DUP2 DUP7 GAS DELEGATECALL ISZERO DUP1 ISZERO PUSH2 0xF1 JUMPI RETURNDATASIZE PUSH1 0x0 DUP1 RETURNDATACOPY RETURNDATASIZE PUSH1 0x0 REVERT JUMPDEST POP POP POP POP PUSH1 0x40 MLOAD RETURNDATASIZE PUSH1 0x1F NOT PUSH1 0x1F DUP3 ADD AND DUP3 ADD DUP1 PUSH1 0x40 MSTORE POP DUP2 ADD SWAP1 PUSH2 0x115 SWAP2 SWAP1 PUSH2 0x291 JUMP JUMPDEST SWAP1 POP SWAP1 JUMP JUMPDEST PUSH20 0x0 PUSH4 0x3AB90AD8 PUSH1 0x0 DUP4 PUSH1 0x40 MLOAD DUP4 PUSH4 0xFFFFFFFF AND PUSH1 0xE0 SHL DUP2 MSTORE PUSH1 0x4 ADD PUSH2 0x154 SWAP3 SWAP2 SWAP1 PUSH2 0x2D4 JUMP JUMPDEST PUSH1 0x20 PUSH1 0x40 MLOAD DUP1 DUP4 SUB DUP2 DUP7 GAS DELEGATECALL ISZERO DUP1 ISZERO PUSH2 0x171 JUMPI RETURNDATASIZE PUSH1 0x0 DUP1 RETURNDATACOPY RETURNDATASIZE PUSH1 0x0 REVERT JUMPDEST POP POP POP POP PUSH1 0x40 MLOAD RETURNDATASIZE PUSH1 0x1F NOT PUSH1 0x1F DUP3 ADD AND DUP3 ADD DUP1 PUSH1 0x40 MSTORE POP DUP2 ADD SWAP1 PUSH2 0x195 SWAP2 SWAP1 PUSH2 0x335 JUMP JUMPDEST PUSH2 0x19E JUMPI PUSH1 0x0 DUP1 REVERT JUMPDEST POP JUMP JUMPDEST PUSH1 0x0 PUSH20 0xFFFFFFFFFFFFFFFFFFFFFFFFFFFFFFFFFFFFFFFF DUP3 AND SWAP1 POP SWAP2 SWAP1 POP JUMP JUMPDEST PUSH1 0x0 PUSH2 0x1CC DUP3 PUSH2 0x1A1 JUMP JUMPDEST SWAP1 POP SWAP2 SWAP1 POP JUMP JUMPDEST PUSH2 0x1DC DUP2 PUSH2 0x1C1 JUMP JUMPDEST DUP3 MSTORE POP POP JUMP JUMPDEST PUSH1 0x0 PUSH1 0x20 DUP3 ADD SWAP1 POP PUSH2 0x1F7 PUSH1 0x0 DUP4 ADD DUP5 PUSH2 0x1D3 JUMP JUMPDEST SWAP3 SWAP2 POP POP JUMP JUMPDEST PUSH1 0x0 DUP1 REVERT JUMPDEST PUSH1 0x0 DUP2 SWAP1 POP SWAP2 SWAP1 POP JUMP JUMPDEST PUSH2 0x215 DUP2 PUSH2 0x202 JUMP JUMPDEST DUP2 EQ PUSH2 0x220 JUMPI PUSH1 0x0 DUP1 REVERT JUMPDEST POP JUMP JUMPDEST PUSH1 0x0 DUP2 CALLDATALOAD SWAP1 POP PUSH2 0x232 DUP2 PUSH2 0x20C JUMP JUMPDEST SWAP3 SWAP2 POP POP JUMP JUMPDEST PUSH1 0x0 PUSH1 0x20 DUP3 DUP5 SUB SLT ISZERO PUSH2 0x24E JUMPI PUSH2 0x24D PUSH2 0x1FD JUMP JUMPDEST JUMPDEST PUSH1 0x0 PUSH2 0x25C DUP5 DUP3 DUP6 ADD PUSH2 0x223 JUMP JUMPDEST SWAP2 POP POP SWAP3 SWAP2 POP POP JUMP JUMPDEST PUSH2 0x26E DUP2 PUSH2 0x1C1 JUMP JUMPDEST DUP2 EQ PUSH2 0x279 JUMPI PUSH1 0x0 DUP1 REVERT JUMPDEST POP JUMP JUMPDEST PUSH1 0x0 DUP2 MLOAD SWAP1 POP PUSH2 0x28B DUP2 PUSH2 0x265 JUMP JUMPDEST SWAP3 SWAP2 POP POP JUMP JUMPDEST PUSH1 0x0 PUSH1 0x20 DUP3 DUP5 SUB SLT ISZERO PUSH2 0x2A7 JUMPI PUSH2 0x2A6 PUSH2 0x1FD JUMP JUMPDEST JUMPDEST PUSH1 0x0 PUSH2 0x2B5 DUP5 DUP3 DUP6 ADD PUSH2 0x27C JUMP JUMPDEST SWAP2 POP POP SWAP3 SWAP2 POP POP JUMP JUMPDEST DUP1 DUP3 MSTORE POP POP JUMP JUMPDEST PUSH2 0x2CE DUP2 PUSH2 0x202 JUMP JUMPDEST DUP3 MSTORE POP POP JUMP JUMPDEST PUSH1 0x0 PUSH1 0x40 DUP3 ADD SWAP1 POP PUSH2 0x2E9 PUSH1 0x0 DUP4 ADD DUP6 PUSH2 0x2BE JUMP JUMPDEST PUSH2 0x2F6 PUSH1 0x20 DUP4 ADD DUP5 PUSH2 0x2C5 JUMP JUMPDEST SWAP4 SWAP3 POP POP POP JUMP JUMPDEST PUSH1 0x0 DUP2 ISZERO ISZERO SWAP1 POP SWAP2 SWAP1 POP JUMP JUMPDEST PUSH2 0x312 DUP2 PUSH2 0x2FD JUMP JUMPDEST DUP2 EQ PUSH2 0x31D JUMPI PUSH1 0x0 DUP1 REVERT JUMPDEST POP JUMP JUMPDEST PUSH1 0x0 DUP2 MLOAD SWAP1 POP PUSH2 0x32F DUP2 PUSH2 0x309 JUMP JUMPDEST SWAP3 SWAP2 POP POP JUMP JUMPDEST PUSH1 0x0 PUSH1 0x20 DUP3 DUP5 SUB SLT ISZERO PUSH2 0x34B JUMPI PUSH2 0x34A PUSH2 0x1FD JUMP JUMPDEST JUMPDEST PUSH1 0x0 PUSH2 0x359 DUP5 DUP3 DUP6 ADD PUSH2 0x320 JUMP JUMPDEST SWAP2 POP POP SWAP3 SWAP2 POP POP JUMP INVALID LOG2 PUSH5 0x6970667358 0x22 SLT KECCAK256 0xAF 0xC0 JUMP DELEGATECALL 0xD1 DUP4 PUSH23 0xD20E147F4EDD7AD11B0E8C6F30B8CD6354B2BF32B9547A PUSH6 0xF564736F6C63 NUMBER STOP ADDMOD GT STOP CALLER "
				},
				"gasEstimates": {
					"creation": {
						"codeDepositCost": "184000",
						"executionCost": "226",
						"totalCost": "184226"
					},
					"external": {
						"addr1()": "infinite",
						"addr2()": "363",
						"register(uint256)": "infinite"
					}
				},
				"methodIdentifiers": {
					"addr1()": "eabe09ad",
					"addr2()": "8de38f98",
					"register(uint256)": "f207564e"
				}
			},
			"storageLayout": {
				"storage": [
					{
						"astId": 95,
						"contract": "合约/_18_库.sol:C",
						"label": "knownValues",
						"offset": 0,
						"slot": "0",
						"type": "t_struct(Data)6_storage"
					}
				],
				"types": {
					"t_bool": {
						"encoding": "inplace",
						"label": "bool",
						"numberOfBytes": "1"
					},
					"t_mapping(t_uint256,t_bool)": {
						"encoding": "mapping",
						"key": "t_uint256",
						"label": "mapping(uint256 => bool)",
						"numberOfBytes": "32",
						"value": "t_bool"
					},
					"t_struct(Data)6_storage": {
						"encoding": "inplace",
						"label": "struct Data",
						"members": [
							{
								"astId": 5,
								"contract": "合约/_18_库.sol:C",
								"label": "flags",
								"offset": 0,
								"slot": "0",
								"type": "t_mapping(t_uint256,t_bool)"
							}
						],
						"numberOfBytes": "32"
					},
					"t_uint256": {
						"encoding": "inplace",
						"label": "uint256",
						"numberOfBytes": "32"
					}
				}
			},
			"userdoc": {
				"kind": "user",
				"methods": {},
				"version": 1
			}
		}
	}
}