{
	"合约/_18_库.sol": {
		"Set": {
			"abi": [
				{
					"inputs": [],
					"name": "addr",
					"outputs": [
						{
							"internalType": "address",
							"name": "",
							"type": "address"
						}
					],
					"stateMutability": "view",
					"type": "function"
				}
			],
			"devdoc": {
				"kind": "dev",
				"methods": {},
				"version": 1
			},
			"evm": {
				"assembly": "    /* \"\\xe5\\x90\\x88\\xe7\\xba\\xa6/_18_\\xe5\\xba\\x93.sol\":218:1895  library Set {... */\n  dataSize(sub_0)\n  dataOffset(sub_0)\n  0x0b\n  dup3\n  dup3\n  dup3\n  codecopy\n  dup1\n  mload\n  0x00\n  byte\n  0x73\n  eq\n  tag_1\n  jumpi\n  mstore(0x00, 0x4e487b7100000000000000000000000000000000000000000000000000000000)\n  mstore(0x04, 0x00)\n  revert(0x00, 0x24)\ntag_1:\n  mstore(0x00, address)\n  0x73\n  dup2\n  mstore8\n  dup3\n  dup2\n  return\nstop\n\nsub_0: assembly {\n        /* \"\\xe5\\x90\\x88\\xe7\\xba\\xa6/_18_\\xe5\\xba\\x93.sol\":218:1895  library Set {... */\n      eq(address, deployTimeAddress())\n      mstore(0x40, 0x80)\n      jumpi(tag_1, lt(calldatasize, 0x04))\n      shr(0xe0, calldataload(0x00))\n      dup1\n      0x3ab90ad8\n      eq\n      tag_2\n      jumpi\n      dup1\n      0x438854c1\n      eq\n      tag_3\n      jumpi\n      dup1\n      0x767800de\n      eq\n      tag_4\n      jumpi\n      dup1\n      0x9ffe9b2f\n      eq\n      tag_5\n      jumpi\n    tag_1:\n      0x00\n      dup1\n      revert\n        /* \"\\xe5\\x90\\x88\\xe7\\xba\\xa6/_18_\\xe5\\xba\\x93.sol\":1264:1463  function insert(Data storage self, uint256 value) public returns (bool) {... */\n    tag_2:\n      dup2\n      dup1\n      iszero\n      tag_6\n      jumpi\n      0x00\n      dup1\n      revert\n    tag_6:\n      pop\n      tag_7\n      0x04\n      dup1\n      calldatasize\n      sub\n      dup2\n      add\n      swap1\n      tag_8\n      swap2\n      swap1\n      tag_9\n      jump\t// in\n    tag_8:\n      tag_10\n      jump\t// in\n    tag_7:\n      mload(0x40)\n      tag_11\n      swap2\n      swap1\n      tag_12\n      jump\t// in\n    tag_11:\n      mload(0x40)\n      dup1\n      swap2\n      sub\n      swap1\n      return\n        /* \"\\xe5\\x90\\x88\\xe7\\xba\\xa6/_18_\\xe5\\xba\\x93.sol\":1677:1799  function contains(Data storage self, uint256 value) public view returns (bool) {... */\n    tag_3:\n      tag_13\n      0x04\n      dup1\n      calldatasize\n      sub\n      dup2\n      add\n      swap1\n      tag_14\n      swap2\n      swap1\n      tag_9\n      jump\t// in\n    tag_14:\n      tag_15\n      jump\t// in\n    tag_13:\n      mload(0x40)\n      tag_16\n      swap2\n      swap1\n      tag_12\n      jump\t// in\n    tag_16:\n      mload(0x40)\n      dup1\n      swap2\n      sub\n      swap1\n      return\n        /* \"\\xe5\\x90\\x88\\xe7\\xba\\xa6/_18_\\xe5\\xba\\x93.sol\":1807:1892  function addr() public view returns (address) {... */\n    tag_4:\n      tag_17\n      tag_18\n      jump\t// in\n    tag_17:\n      mload(0x40)\n      tag_19\n      swap2\n      swap1\n      tag_20\n      jump\t// in\n    tag_19:\n      mload(0x40)\n      dup1\n      swap2\n      sub\n      swap1\n      return\n        /* \"\\xe5\\x90\\x88\\xe7\\xba\\xa6/_18_\\xe5\\xba\\x93.sol\":1471:1669  function remove(Data storage self, uint256 value) public returns (bool) {... */\n    tag_5:\n      dup2\n      dup1\n      iszero\n      tag_21\n      jumpi\n      0x00\n      dup1\n      revert\n    tag_21:\n      pop\n      tag_22\n      0x04\n      dup1\n      calldatasize\n      sub\n      dup2\n      add\n      swap1\n      tag_23\n      swap2\n      swap1\n      tag_9\n      jump\t// in\n    tag_23:\n      tag_24\n      jump\t// in\n    tag_22:\n      mload(0x40)\n      tag_25\n      swap2\n      swap1\n      tag_12\n      jump\t// in\n    tag_25:\n      mload(0x40)\n      dup1\n      swap2\n      sub\n      swap1\n      return\n        /* \"\\xe5\\x90\\x88\\xe7\\xba\\xa6/_18_\\xe5\\xba\\x93.sol\":1264:1463  function insert(Data storage self, uint256 value) public returns (bool) {... */\n    tag_10:\n        /* \"\\xe5\\x90\\x88\\xe7\\xba\\xa6/_18_\\xe5\\xba\\x93.sol\":1330:1334  bool */\n      0x00\n        /* \"\\xe5\\x90\\x88\\xe7\\xba\\xa6/_18_\\xe5\\xba\\x93.sol\":1351:1355  self */\n      dup3\n        /* \"\\xe5\\x90\\x88\\xe7\\xba\\xa6/_18_\\xe5\\xba\\x93.sol\":1351:1361  self.flags */\n      0x00\n      add\n        /* \"\\xe5\\x90\\x88\\xe7\\xba\\xa6/_18_\\xe5\\xba\\x93.sol\":1351:1368  self.flags[value] */\n      0x00\n        /* \"\\xe5\\x90\\x88\\xe7\\xba\\xa6/_18_\\xe5\\xba\\x93.sol\":1362:1367  value */\n      dup4\n        /* \"\\xe5\\x90\\x88\\xe7\\xba\\xa6/_18_\\xe5\\xba\\x93.sol\":1351:1368  self.flags[value] */\n      dup2\n      mstore\n      0x20\n      add\n      swap1\n      dup2\n      mstore\n      0x20\n      add\n      0x00\n      keccak256\n      0x00\n      swap1\n      sload\n      swap1\n      0x0100\n      exp\n      swap1\n      div\n      0xff\n      and\n        /* \"\\xe5\\x90\\x88\\xe7\\xba\\xa6/_18_\\xe5\\xba\\x93.sol\":1347:1382  if (self.flags[value]) return false */\n      iszero\n      tag_27\n      jumpi\n        /* \"\\xe5\\x90\\x88\\xe7\\xba\\xa6/_18_\\xe5\\xba\\x93.sol\":1377:1382  false */\n      0x00\n        /* \"\\xe5\\x90\\x88\\xe7\\xba\\xa6/_18_\\xe5\\xba\\x93.sol\":1370:1382  return false */\n      swap1\n      pop\n      jump(tag_26)\n        /* \"\\xe5\\x90\\x88\\xe7\\xba\\xa6/_18_\\xe5\\xba\\x93.sol\":1347:1382  if (self.flags[value]) return false */\n    tag_27:\n        /* \"\\xe5\\x90\\x88\\xe7\\xba\\xa6/_18_\\xe5\\xba\\x93.sol\":1429:1433  true */\n      0x01\n        /* \"\\xe5\\x90\\x88\\xe7\\xba\\xa6/_18_\\xe5\\xba\\x93.sol\":1409:1413  self */\n      dup4\n        /* \"\\xe5\\x90\\x88\\xe7\\xba\\xa6/_18_\\xe5\\xba\\x93.sol\":1409:1419  self.flags */\n      0x00\n      add\n        /* \"\\xe5\\x90\\x88\\xe7\\xba\\xa6/_18_\\xe5\\xba\\x93.sol\":1409:1426  self.flags[value] */\n      0x00\n        /* \"\\xe5\\x90\\x88\\xe7\\xba\\xa6/_18_\\xe5\\xba\\x93.sol\":1420:1425  value */\n      dup5\n        /* \"\\xe5\\x90\\x88\\xe7\\xba\\xa6/_18_\\xe5\\xba\\x93.sol\":1409:1426  self.flags[value] */\n      dup2\n      mstore\n      0x20\n      add\n      swap1\n      dup2\n      mstore\n      0x20\n      add\n      0x00\n      keccak256\n      0x00\n        /* \"\\xe5\\x90\\x88\\xe7\\xba\\xa6/_18_\\xe5\\xba\\x93.sol\":1409:1433  self.flags[value] = true */\n      0x0100\n      exp\n      dup2\n      sload\n      dup2\n      0xff\n      mul\n      not\n      and\n      swap1\n      dup4\n      iszero\n      iszero\n      mul\n      or\n      swap1\n      sstore\n      pop\n        /* \"\\xe5\\x90\\x88\\xe7\\xba\\xa6/_18_\\xe5\\xba\\x93.sol\":1451:1455  true */\n      0x01\n        /* \"\\xe5\\x90\\x88\\xe7\\xba\\xa6/_18_\\xe5\\xba\\x93.sol\":1444:1455  return true */\n      swap1\n      pop\n        /* \"\\xe5\\x90\\x88\\xe7\\xba\\xa6/_18_\\xe5\\xba\\x93.sol\":1264:1463  function insert(Data storage self, uint256 value) public returns (bool) {... */\n    tag_26:\n      swap3\n      swap2\n      pop\n      pop\n      jump\t// out\n        /* \"\\xe5\\x90\\x88\\xe7\\xba\\xa6/_18_\\xe5\\xba\\x93.sol\":1677:1799  function contains(Data storage self, uint256 value) public view returns (bool) {... */\n    tag_15:\n        /* \"\\xe5\\x90\\x88\\xe7\\xba\\xa6/_18_\\xe5\\xba\\x93.sol\":1750:1754  bool */\n      0x00\n        /* \"\\xe5\\x90\\x88\\xe7\\xba\\xa6/_18_\\xe5\\xba\\x93.sol\":1774:1778  self */\n      dup3\n        /* \"\\xe5\\x90\\x88\\xe7\\xba\\xa6/_18_\\xe5\\xba\\x93.sol\":1774:1784  self.flags */\n      0x00\n      add\n        /* \"\\xe5\\x90\\x88\\xe7\\xba\\xa6/_18_\\xe5\\xba\\x93.sol\":1774:1791  self.flags[value] */\n      0x00\n        /* \"\\xe5\\x90\\x88\\xe7\\xba\\xa6/_18_\\xe5\\xba\\x93.sol\":1785:1790  value */\n      dup4\n        /* \"\\xe5\\x90\\x88\\xe7\\xba\\xa6/_18_\\xe5\\xba\\x93.sol\":1774:1791  self.flags[value] */\n      dup2\n      mstore\n      0x20\n      add\n      swap1\n      dup2\n      mstore\n      0x20\n      add\n      0x00\n      keccak256\n      0x00\n      swap1\n      sload\n      swap1\n      0x0100\n      exp\n      swap1\n      div\n      0xff\n      and\n        /* \"\\xe5\\x90\\x88\\xe7\\xba\\xa6/_18_\\xe5\\xba\\x93.sol\":1767:1791  return self.flags[value] */\n      swap1\n      pop\n        /* \"\\xe5\\x90\\x88\\xe7\\xba\\xa6/_18_\\xe5\\xba\\x93.sol\":1677:1799  function contains(Data storage self, uint256 value) public view returns (bool) {... */\n      swap3\n      swap2\n      pop\n      pop\n      jump\t// out\n        /* \"\\xe5\\x90\\x88\\xe7\\xba\\xa6/_18_\\xe5\\xba\\x93.sol\":1807:1892  function addr() public view returns (address) {... */\n    tag_18:\n        /* \"\\xe5\\x90\\x88\\xe7\\xba\\xa6/_18_\\xe5\\xba\\x93.sol\":1844:1851  address */\n      0x00\n        /* \"\\xe5\\x90\\x88\\xe7\\xba\\xa6/_18_\\xe5\\xba\\x93.sol\":1879:1883  this */\n      address\n        /* \"\\xe5\\x90\\x88\\xe7\\xba\\xa6/_18_\\xe5\\xba\\x93.sol\":1864:1884  return address(this) */\n      swap1\n      pop\n        /* \"\\xe5\\x90\\x88\\xe7\\xba\\xa6/_18_\\xe5\\xba\\x93.sol\":1807:1892  function addr() public view returns (address) {... */\n      swap1\n      jump\t// out\n        /* \"\\xe5\\x90\\x88\\xe7\\xba\\xa6/_18_\\xe5\\xba\\x93.sol\":1471:1669  function remove(Data storage self, uint256 value) public returns (bool) {... */\n    tag_24:\n        /* \"\\xe5\\x90\\x88\\xe7\\xba\\xa6/_18_\\xe5\\xba\\x93.sol\":1537:1541  bool */\n      0x00\n        /* \"\\xe5\\x90\\x88\\xe7\\xba\\xa6/_18_\\xe5\\xba\\x93.sol\":1559:1563  self */\n      dup3\n        /* \"\\xe5\\x90\\x88\\xe7\\xba\\xa6/_18_\\xe5\\xba\\x93.sol\":1559:1569  self.flags */\n      0x00\n      add\n        /* \"\\xe5\\x90\\x88\\xe7\\xba\\xa6/_18_\\xe5\\xba\\x93.sol\":1559:1576  self.flags[value] */\n      0x00\n        /* \"\\xe5\\x90\\x88\\xe7\\xba\\xa6/_18_\\xe5\\xba\\x93.sol\":1570:1575  value */\n      dup4\n        /* \"\\xe5\\x90\\x88\\xe7\\xba\\xa6/_18_\\xe5\\xba\\x93.sol\":1559:1576  self.flags[value] */\n      dup2\n      mstore\n      0x20\n      add\n      swap1\n      dup2\n      mstore\n      0x20\n      add\n      0x00\n      keccak256\n      0x00\n      swap1\n      sload\n      swap1\n      0x0100\n      exp\n      swap1\n      div\n      0xff\n      and\n        /* \"\\xe5\\x90\\x88\\xe7\\xba\\xa6/_18_\\xe5\\xba\\x93.sol\":1554:1590  if (!self.flags[value]) return false */\n      tag_31\n      jumpi\n        /* \"\\xe5\\x90\\x88\\xe7\\xba\\xa6/_18_\\xe5\\xba\\x93.sol\":1585:1590  false */\n      0x00\n        /* \"\\xe5\\x90\\x88\\xe7\\xba\\xa6/_18_\\xe5\\xba\\x93.sol\":1578:1590  return false */\n      swap1\n      pop\n      jump(tag_30)\n        /* \"\\xe5\\x90\\x88\\xe7\\xba\\xa6/_18_\\xe5\\xba\\x93.sol\":1554:1590  if (!self.flags[value]) return false */\n    tag_31:\n        /* \"\\xe5\\x90\\x88\\xe7\\xba\\xa6/_18_\\xe5\\xba\\x93.sol\":1634:1639  false */\n      0x00\n        /* \"\\xe5\\x90\\x88\\xe7\\xba\\xa6/_18_\\xe5\\xba\\x93.sol\":1614:1618  self */\n      dup4\n        /* \"\\xe5\\x90\\x88\\xe7\\xba\\xa6/_18_\\xe5\\xba\\x93.sol\":1614:1624  self.flags */\n      0x00\n      add\n        /* \"\\xe5\\x90\\x88\\xe7\\xba\\xa6/_18_\\xe5\\xba\\x93.sol\":1614:1631  self.flags[value] */\n      0x00\n        /* \"\\xe5\\x90\\x88\\xe7\\xba\\xa6/_18_\\xe5\\xba\\x93.sol\":1625:1630  value */\n      dup5\n        /* \"\\xe5\\x90\\x88\\xe7\\xba\\xa6/_18_\\xe5\\xba\\x93.sol\":1614:1631  self.flags[value] */\n      dup2\n      mstore\n      0x20\n      add\n      swap1\n      dup2\n      mstore\n      0x20\n      add\n      0x00\n      keccak256\n      0x00\n        /* \"\\xe5\\x90\\x88\\xe7\\xba\\xa6/_18_\\xe5\\xba\\x93.sol\":1614:1639  self.flags[value] = false */\n      0x0100\n      exp\n      dup2\n      sload\n      dup2\n      0xff\n      mul\n      not\n      and\n      swap1\n      dup4\n      iszero\n      iszero\n      mul\n      or\n      swap1\n      sstore\n      pop\n        /* \"\\xe5\\x90\\x88\\xe7\\xba\\xa6/_18_\\xe5\\xba\\x93.sol\":1657:1661  true */\n      0x01\n        /* \"\\xe5\\x90\\x88\\xe7\\xba\\xa6/_18_\\xe5\\xba\\x93.sol\":1650:1661  return true */\n      swap1\n      pop\n        /* \"\\xe5\\x90\\x88\\xe7\\xba\\xa6/_18_\\xe5\\xba\\x93.sol\":1471:1669  function remove(Data storage self, uint256 value) public returns (bool) {... */\n    tag_30:\n      swap3\n      swap2\n      pop\n      pop\n      jump\t// out\n        /* \"#utility.yul\":88:205   */\n    tag_33:\n        /* \"#utility.yul\":197:198   */\n      0x00\n        /* \"#utility.yul\":194:195   */\n      dup1\n        /* \"#utility.yul\":187:199   */\n      revert\n        /* \"#utility.yul\":334:431   */\n    tag_35:\n        /* \"#utility.yul\":391:398   */\n      0x00\n        /* \"#utility.yul\":420:425   */\n      dup2\n        /* \"#utility.yul\":409:425   */\n      swap1\n      pop\n        /* \"#utility.yul\":334:431   */\n      swap2\n      swap1\n      pop\n      jump\t// out\n        /* \"#utility.yul\":437:599   */\n    tag_36:\n        /* \"#utility.yul\":530:574   */\n      tag_52\n        /* \"#utility.yul\":568:573   */\n      dup2\n        /* \"#utility.yul\":530:574   */\n      tag_35\n      jump\t// in\n    tag_52:\n        /* \"#utility.yul\":523:528   */\n      dup2\n        /* \"#utility.yul\":520:575   */\n      eq\n        /* \"#utility.yul\":510:593   */\n      tag_53\n      jumpi\n        /* \"#utility.yul\":589:590   */\n      0x00\n        /* \"#utility.yul\":586:587   */\n      dup1\n        /* \"#utility.yul\":579:591   */\n      revert\n        /* \"#utility.yul\":510:593   */\n    tag_53:\n        /* \"#utility.yul\":437:599   */\n      pop\n      jump\t// out\n        /* \"#utility.yul\":605:784   */\n    tag_37:\n        /* \"#utility.yul\":671:676   */\n      0x00\n        /* \"#utility.yul\":709:715   */\n      dup2\n        /* \"#utility.yul\":696:716   */\n      calldataload\n        /* \"#utility.yul\":687:716   */\n      swap1\n      pop\n        /* \"#utility.yul\":725:778   */\n      tag_55\n        /* \"#utility.yul\":772:777   */\n      dup2\n        /* \"#utility.yul\":725:778   */\n      tag_36\n      jump\t// in\n    tag_55:\n        /* \"#utility.yul\":605:784   */\n      swap3\n      swap2\n      pop\n      pop\n      jump\t// out\n        /* \"#utility.yul\":790:867   */\n    tag_38:\n        /* \"#utility.yul\":827:834   */\n      0x00\n        /* \"#utility.yul\":856:861   */\n      dup2\n        /* \"#utility.yul\":845:861   */\n      swap1\n      pop\n        /* \"#utility.yul\":790:867   */\n      swap2\n      swap1\n      pop\n      jump\t// out\n        /* \"#utility.yul\":873:995   */\n    tag_39:\n        /* \"#utility.yul\":946:970   */\n      tag_58\n        /* \"#utility.yul\":964:969   */\n      dup2\n        /* \"#utility.yul\":946:970   */\n      tag_38\n      jump\t// in\n    tag_58:\n        /* \"#utility.yul\":939:944   */\n      dup2\n        /* \"#utility.yul\":936:971   */\n      eq\n        /* \"#utility.yul\":926:989   */\n      tag_59\n      jumpi\n        /* \"#utility.yul\":985:986   */\n      0x00\n        /* \"#utility.yul\":982:983   */\n      dup1\n        /* \"#utility.yul\":975:987   */\n      revert\n        /* \"#utility.yul\":926:989   */\n    tag_59:\n        /* \"#utility.yul\":873:995   */\n      pop\n      jump\t// out\n        /* \"#utility.yul\":1001:1140   */\n    tag_40:\n        /* \"#utility.yul\":1047:1052   */\n      0x00\n        /* \"#utility.yul\":1085:1091   */\n      dup2\n        /* \"#utility.yul\":1072:1092   */\n      calldataload\n        /* \"#utility.yul\":1063:1092   */\n      swap1\n      pop\n        /* \"#utility.yul\":1101:1134   */\n      tag_61\n        /* \"#utility.yul\":1128:1133   */\n      dup2\n        /* \"#utility.yul\":1101:1134   */\n      tag_39\n      jump\t// in\n    tag_61:\n        /* \"#utility.yul\":1001:1140   */\n      swap3\n      swap2\n      pop\n      pop\n      jump\t// out\n        /* \"#utility.yul\":1146:1660   */\n    tag_9:\n        /* \"#utility.yul\":1234:1240   */\n      0x00\n        /* \"#utility.yul\":1242:1248   */\n      dup1\n        /* \"#utility.yul\":1291:1293   */\n      0x40\n        /* \"#utility.yul\":1279:1288   */\n      dup4\n        /* \"#utility.yul\":1270:1277   */\n      dup6\n        /* \"#utility.yul\":1266:1289   */\n      sub\n        /* \"#utility.yul\":1262:1294   */\n      slt\n        /* \"#utility.yul\":1259:1378   */\n      iszero\n      tag_63\n      jumpi\n        /* \"#utility.yul\":1297:1376   */\n      tag_64\n      tag_33\n      jump\t// in\n    tag_64:\n        /* \"#utility.yul\":1259:1378   */\n    tag_63:\n        /* \"#utility.yul\":1417:1418   */\n      0x00\n        /* \"#utility.yul\":1442:1515   */\n      tag_65\n        /* \"#utility.yul\":1507:1514   */\n      dup6\n        /* \"#utility.yul\":1498:1504   */\n      dup3\n        /* \"#utility.yul\":1487:1496   */\n      dup7\n        /* \"#utility.yul\":1483:1505   */\n      add\n        /* \"#utility.yul\":1442:1515   */\n      tag_37\n      jump\t// in\n    tag_65:\n        /* \"#utility.yul\":1432:1515   */\n      swap3\n      pop\n        /* \"#utility.yul\":1388:1525   */\n      pop\n        /* \"#utility.yul\":1564:1566   */\n      0x20\n        /* \"#utility.yul\":1590:1643   */\n      tag_66\n        /* \"#utility.yul\":1635:1642   */\n      dup6\n        /* \"#utility.yul\":1626:1632   */\n      dup3\n        /* \"#utility.yul\":1615:1624   */\n      dup7\n        /* \"#utility.yul\":1611:1633   */\n      add\n        /* \"#utility.yul\":1590:1643   */\n      tag_40\n      jump\t// in\n    tag_66:\n        /* \"#utility.yul\":1580:1643   */\n      swap2\n      pop\n        /* \"#utility.yul\":1535:1653   */\n      pop\n        /* \"#utility.yul\":1146:1660   */\n      swap3\n      pop\n      swap3\n      swap1\n      pop\n      jump\t// out\n        /* \"#utility.yul\":1666:1756   */\n    tag_41:\n        /* \"#utility.yul\":1700:1707   */\n      0x00\n        /* \"#utility.yul\":1743:1748   */\n      dup2\n        /* \"#utility.yul\":1736:1749   */\n      iszero\n        /* \"#utility.yul\":1729:1750   */\n      iszero\n        /* \"#utility.yul\":1718:1750   */\n      swap1\n      pop\n        /* \"#utility.yul\":1666:1756   */\n      swap2\n      swap1\n      pop\n      jump\t// out\n        /* \"#utility.yul\":1762:1879   */\n    tag_42:\n        /* \"#utility.yul\":1851:1872   */\n      tag_69\n        /* \"#utility.yul\":1866:1871   */\n      dup2\n        /* \"#utility.yul\":1851:1872   */\n      tag_41\n      jump\t// in\n    tag_69:\n        /* \"#utility.yul\":1846:1849   */\n      dup3\n        /* \"#utility.yul\":1839:1873   */\n      mstore\n        /* \"#utility.yul\":1762:1879   */\n      pop\n      pop\n      jump\t// out\n        /* \"#utility.yul\":1885:2111   */\n    tag_12:\n        /* \"#utility.yul\":1980:1984   */\n      0x00\n        /* \"#utility.yul\":2018:2020   */\n      0x20\n        /* \"#utility.yul\":2007:2016   */\n      dup3\n        /* \"#utility.yul\":2003:2021   */\n      add\n        /* \"#utility.yul\":1995:2021   */\n      swap1\n      pop\n        /* \"#utility.yul\":2031:2104   */\n      tag_71\n        /* \"#utility.yul\":2101:2102   */\n      0x00\n        /* \"#utility.yul\":2090:2099   */\n      dup4\n        /* \"#utility.yul\":2086:2103   */\n      add\n        /* \"#utility.yul\":2077:2083   */\n      dup5\n        /* \"#utility.yul\":2031:2104   */\n      tag_42\n      jump\t// in\n    tag_71:\n        /* \"#utility.yul\":1885:2111   */\n      swap3\n      swap2\n      pop\n      pop\n      jump\t// out\n        /* \"#utility.yul\":2117:2243   */\n    tag_43:\n        /* \"#utility.yul\":2154:2161   */\n      0x00\n        /* \"#utility.yul\":2194:2236   */\n      0xffffffffffffffffffffffffffffffffffffffff\n        /* \"#utility.yul\":2187:2192   */\n      dup3\n        /* \"#utility.yul\":2183:2237   */\n      and\n        /* \"#utility.yul\":2172:2237   */\n      swap1\n      pop\n        /* \"#utility.yul\":2117:2243   */\n      swap2\n      swap1\n      pop\n      jump\t// out\n        /* \"#utility.yul\":2249:2345   */\n    tag_44:\n        /* \"#utility.yul\":2286:2293   */\n      0x00\n        /* \"#utility.yul\":2315:2339   */\n      tag_74\n        /* \"#utility.yul\":2333:2338   */\n      dup3\n        /* \"#utility.yul\":2315:2339   */\n      tag_43\n      jump\t// in\n    tag_74:\n        /* \"#utility.yul\":2304:2339   */\n      swap1\n      pop\n        /* \"#utility.yul\":2249:2345   */\n      swap2\n      swap1\n      pop\n      jump\t// out\n        /* \"#utility.yul\":2351:2477   */\n    tag_45:\n        /* \"#utility.yul\":2446:2470   */\n      tag_76\n        /* \"#utility.yul\":2464:2469   */\n      dup2\n        /* \"#utility.yul\":2446:2470   */\n      tag_44\n      jump\t// in\n    tag_76:\n        /* \"#utility.yul\":2441:2444   */\n      dup3\n        /* \"#utility.yul\":2434:2471   */\n      mstore\n        /* \"#utility.yul\":2351:2477   */\n      pop\n      pop\n      jump\t// out\n        /* \"#utility.yul\":2483:2721   */\n    tag_20:\n        /* \"#utility.yul\":2584:2588   */\n      0x00\n        /* \"#utility.yul\":2622:2624   */\n      0x20\n        /* \"#utility.yul\":2611:2620   */\n      dup3\n        /* \"#utility.yul\":2607:2625   */\n      add\n        /* \"#utility.yul\":2599:2625   */\n      swap1\n      pop\n        /* \"#utility.yul\":2635:2714   */\n      tag_78\n        /* \"#utility.yul\":2711:2712   */\n      0x00\n        /* \"#utility.yul\":2700:2709   */\n      dup4\n        /* \"#utility.yul\":2696:2713   */\n      add\n        /* \"#utility.yul\":2687:2693   */\n      dup5\n        /* \"#utility.yul\":2635:2714   */\n      tag_45\n      jump\t// in\n    tag_78:\n        /* \"#utility.yul\":2483:2721   */\n      swap3\n      swap2\n      pop\n      pop\n      jump\t// out\n\n    auxdata: 0xa2646970667358221220ece89ba4428d6607f434cff724c1871a6b0f863bffc7dca662b06de106a0ef0364736f6c63430008110033\n}\n",
				"bytecode": {
					"linkReferences": {},
					"object": "6103a8610053600b82828239805160001a607314610046577f4e487b7100000000000000000000000000000000000000000000000000000000600052600060045260246000fd5b30600052607381538281f3fe73000000000000000000000000000000000000000030146080604052600436106100565760003560e01c80633ab90ad81461005b578063438854c114610098578063767800de146100c85780639ffe9b2f146100e6575b600080fd5b81801561006757600080fd5b50610082600480360381019061007d91906102a0565b610123565b60405161008f91906102fb565b60405180910390f35b6100b260048036038101906100ad91906102a0565b61018f565b6040516100bf91906102fb565b60405180910390f35b6100d06101bc565b6040516100dd9190610357565b60405180910390f35b8180156100f257600080fd5b5061010d600480360381019061010891906102a0565b6101c4565b60405161011a91906102fb565b60405180910390f35b600082600001600083815260200190815260200160002060009054906101000a900460ff16156101565760009050610189565b600183600001600084815260200190815260200160002060006101000a81548160ff021916908315150217905550600190505b92915050565b600082600001600083815260200190815260200160002060009054906101000a900460ff16905092915050565b600030905090565b600082600001600083815260200190815260200160002060009054906101000a900460ff166101f65760009050610229565b600083600001600084815260200190815260200160002060006101000a81548160ff021916908315150217905550600190505b92915050565b600080fd5b6000819050919050565b61024781610234565b811461025257600080fd5b50565b6000813590506102648161023e565b92915050565b6000819050919050565b61027d8161026a565b811461028857600080fd5b50565b60008135905061029a81610274565b92915050565b600080604083850312156102b7576102b661022f565b5b60006102c585828601610255565b92505060206102d68582860161028b565b9150509250929050565b60008115159050919050565b6102f5816102e0565b82525050565b600060208201905061031060008301846102ec565b92915050565b600073ffffffffffffffffffffffffffffffffffffffff82169050919050565b600061034182610316565b9050919050565b61035181610336565b82525050565b600060208201905061036c6000830184610348565b9291505056fea2646970667358221220ece89ba4428d6607f434cff724c1871a6b0f863bffc7dca662b06de106a0ef0364736f6c63430008110033",
					"opcodes": "PUSH2 0x3A8 PUSH2 0x53 PUSH1 0xB DUP3 DUP3 DUP3 CODECOPY DUP1 MLOAD PUSH1 0x0 BYTE PUSH1 0x73 EQ PUSH2 0x46 JUMPI PUSH32 0x4E487B7100000000000000000000000000000000000000000000000000000000 PUSH1 0x0 MSTORE PUSH1 0x0 PUSH1 0x4 MSTORE PUSH1 0x24 PUSH1 0x0 REVERT JUMPDEST ADDRESS PUSH1 0x0 MSTORE PUSH1 0x73 DUP2 MSTORE8 DUP3 DUP2 RETURN INVALID PUSH20 0x0 ADDRESS EQ PUSH1 0x80 PUSH1 0x40 MSTORE PUSH1 0x4 CALLDATASIZE LT PUSH2 0x56 JUMPI PUSH1 0x0 CALLDATALOAD PUSH1 0xE0 SHR DUP1 PUSH4 0x3AB90AD8 EQ PUSH2 0x5B JUMPI DUP1 PUSH4 0x438854C1 EQ PUSH2 0x98 JUMPI DUP1 PUSH4 0x767800DE EQ PUSH2 0xC8 JUMPI DUP1 PUSH4 0x9FFE9B2F EQ PUSH2 0xE6 JUMPI JUMPDEST PUSH1 0x0 DUP1 REVERT JUMPDEST DUP2 DUP1 ISZERO PUSH2 0x67 JUMPI PUSH1 0x0 DUP1 REVERT JUMPDEST POP PUSH2 0x82 PUSH1 0x4 DUP1 CALLDATASIZE SUB DUP2 ADD SWAP1 PUSH2 0x7D SWAP2 SWAP1 PUSH2 0x2A0 JUMP JUMPDEST PUSH2 0x123 JUMP JUMPDEST PUSH1 0x40 MLOAD PUSH2 0x8F SWAP2 SWAP1 PUSH2 0x2FB JUMP JUMPDEST PUSH1 0x40 MLOAD DUP1 SWAP2 SUB SWAP1 RETURN JUMPDEST PUSH2 0xB2 PUSH1 0x4 DUP1 CALLDATASIZE SUB DUP2 ADD SWAP1 PUSH2 0xAD SWAP2 SWAP1 PUSH2 0x2A0 JUMP JUMPDEST PUSH2 0x18F JUMP JUMPDEST PUSH1 0x40 MLOAD PUSH2 0xBF SWAP2 SWAP1 PUSH2 0x2FB JUMP JUMPDEST PUSH1 0x40 MLOAD DUP1 SWAP2 SUB SWAP1 RETURN JUMPDEST PUSH2 0xD0 PUSH2 0x1BC JUMP JUMPDEST PUSH1 0x40 MLOAD PUSH2 0xDD SWAP2 SWAP1 PUSH2 0x357 JUMP JUMPDEST PUSH1 0x40 MLOAD DUP1 SWAP2 SUB SWAP1 RETURN JUMPDEST DUP2 DUP1 ISZERO PUSH2 0xF2 JUMPI PUSH1 0x0 DUP1 REVERT JUMPDEST POP PUSH2 0x10D PUSH1 0x4 DUP1 CALLDATASIZE SUB DUP2 ADD SWAP1 PUSH2 0x108 SWAP2 SWAP1 PUSH2 0x2A0 JUMP JUMPDEST PUSH2 0x1C4 JUMP JUMPDEST PUSH1 0x40 MLOAD PUSH2 0x11A SWAP2 SWAP1 PUSH2 0x2FB JUMP JUMPDEST PUSH1 0x40 MLOAD DUP1 SWAP2 SUB SWAP1 RETURN JUMPDEST PUSH1 0x0 DUP3 PUSH1 0x0 ADD PUSH1 0x0 DUP4 DUP2 MSTORE PUSH1 0x20 ADD SWAP1 DUP2 MSTORE PUSH1 0x20 ADD PUSH1 0x0 KECCAK256 PUSH1 0x0 SWAP1 SLOAD SWAP1 PUSH2 0x100 EXP SWAP1 DIV PUSH1 0xFF AND ISZERO PUSH2 0x156 JUMPI PUSH1 0x0 SWAP1 POP PUSH2 0x189 JUMP JUMPDEST PUSH1 0x1 DUP4 PUSH1 0x0 ADD PUSH1 0x0 DUP5 DUP2 MSTORE PUSH1 0x20 ADD SWAP1 DUP2 MSTORE PUSH1 0x20 ADD PUSH1 0x0 KECCAK256 PUSH1 0x0 PUSH2 0x100 EXP DUP2 SLOAD DUP2 PUSH1 0xFF MUL NOT AND SWAP1 DUP4 ISZERO ISZERO MUL OR SWAP1 SSTORE POP PUSH1 0x1 SWAP1 POP JUMPDEST SWAP3 SWAP2 POP POP JUMP JUMPDEST PUSH1 0x0 DUP3 PUSH1 0x0 ADD PUSH1 0x0 DUP4 DUP2 MSTORE PUSH1 0x20 ADD SWAP1 DUP2 MSTORE PUSH1 0x20 ADD PUSH1 0x0 KECCAK256 PUSH1 0x0 SWAP1 SLOAD SWAP1 PUSH2 0x100 EXP SWAP1 DIV PUSH1 0xFF AND SWAP1 POP SWAP3 SWAP2 POP POP JUMP JUMPDEST PUSH1 0x0 ADDRESS SWAP1 POP SWAP1 JUMP JUMPDEST PUSH1 0x0 DUP3 PUSH1 0x0 ADD PUSH1 0x0 DUP4 DUP2 MSTORE PUSH1 0x20 ADD SWAP1 DUP2 MSTORE PUSH1 0x20 ADD PUSH1 0x0 KECCAK256 PUSH1 0x0 SWAP1 SLOAD SWAP1 PUSH2 0x100 EXP SWAP1 DIV PUSH1 0xFF AND PUSH2 0x1F6 JUMPI PUSH1 0x0 SWAP1 POP PUSH2 0x229 JUMP JUMPDEST PUSH1 0x0 DUP4 PUSH1 0x0 ADD PUSH1 0x0 DUP5 DUP2 MSTORE PUSH1 0x20 ADD SWAP1 DUP2 MSTORE PUSH1 0x20 ADD PUSH1 0x0 KECCAK256 PUSH1 0x0 PUSH2 0x100 EXP DUP2 SLOAD DUP2 PUSH1 0xFF MUL NOT AND SWAP1 DUP4 ISZERO ISZERO MUL OR SWAP1 SSTORE POP PUSH1 0x1 SWAP1 POP JUMPDEST SWAP3 SWAP2 POP POP JUMP JUMPDEST PUSH1 0x0 DUP1 REVERT JUMPDEST PUSH1 0x0 DUP2 SWAP1 POP SWAP2 SWAP1 POP JUMP JUMPDEST PUSH2 0x247 DUP2 PUSH2 0x234 JUMP JUMPDEST DUP2 EQ PUSH2 0x252 JUMPI PUSH1 0x0 DUP1 REVERT JUMPDEST POP JUMP JUMPDEST PUSH1 0x0 DUP2 CALLDATALOAD SWAP1 POP PUSH2 0x264 DUP2 PUSH2 0x23E JUMP JUMPDEST SWAP3 SWAP2 POP POP JUMP JUMPDEST PUSH1 0x0 DUP2 SWAP1 POP SWAP2 SWAP1 POP JUMP JUMPDEST PUSH2 0x27D DUP2 PUSH2 0x26A JUMP JUMPDEST DUP2 EQ PUSH2 0x288 JUMPI PUSH1 0x0 DUP1 REVERT JUMPDEST POP JUMP JUMPDEST PUSH1 0x0 DUP2 CALLDATALOAD SWAP1 POP PUSH2 0x29A DUP2 PUSH2 0x274 JUMP JUMPDEST SWAP3 SWAP2 POP POP JUMP JUMPDEST PUSH1 0x0 DUP1 PUSH1 0x40 DUP4 DUP6 SUB SLT ISZERO PUSH2 0x2B7 JUMPI PUSH2 0x2B6 PUSH2 0x22F JUMP JUMPDEST JUMPDEST PUSH1 0x0 PUSH2 0x2C5 DUP6 DUP3 DUP7 ADD PUSH2 0x255 JUMP JUMPDEST SWAP3 POP POP PUSH1 0x20 PUSH2 0x2D6 DUP6 DUP3 DUP7 ADD PUSH2 0x28B JUMP JUMPDEST SWAP2 POP POP SWAP3 POP SWAP3 SWAP1 POP JUMP JUMPDEST PUSH1 0x0 DUP2 ISZERO ISZERO SWAP1 POP SWAP2 SWAP1 POP JUMP JUMPDEST PUSH2 0x2F5 DUP2 PUSH2 0x2E0 JUMP JUMPDEST DUP3 MSTORE POP POP JUMP JUMPDEST PUSH1 0x0 PUSH1 0x20 DUP3 ADD SWAP1 POP PUSH2 0x310 PUSH1 0x0 DUP4 ADD DUP5 PUSH2 0x2EC JUMP JUMPDEST SWAP3 SWAP2 POP POP JUMP JUMPDEST PUSH1 0x0 PUSH20 0xFFFFFFFFFFFFFFFFFFFFFFFFFFFFFFFFFFFFFFFF DUP3 AND SWAP1 POP SWAP2 SWAP1 POP JUMP JUMPDEST PUSH1 0x0 PUSH2 0x341 DUP3 PUSH2 0x316 JUMP JUMPDEST SWAP1 POP SWAP2 SWAP1 POP JUMP JUMPDEST PUSH2 0x351 DUP2 PUSH2 0x336 JUMP JUMPDEST DUP3 MSTORE POP POP JUMP JUMPDEST PUSH1 0x0 PUSH1 0x20 DUP3 ADD SWAP1 POP PUSH2 0x36C PUSH1 0x0 DUP4 ADD DUP5 PUSH2 0x348 JUMP JUMPDEST SWAP3 SWAP2 POP POP JUMP INVALID LOG2 PUSH5 0x6970667358 0x22 SLT KECCAK256 0xEC 0xE8 SWAP12 LOG4 TIMESTAMP DUP14 PUSH7 0x7F434CFF724C1 DUP8 BYTE PUSH12 0xF863BFFC7DCA662B06DE106 LOG0 0xEF SUB PUSH5 0x736F6C6343 STOP ADDMOD GT STOP CALLER "
				},
				"gasEstimates": {
					"creation": {
						"codeDepositCost": "187200",
						"executionCost": "257",
						"totalCost": "187457"
					},
					"external": {
						"addr()": "391",
						"contains(Data storage,uint256)": "2985",
						"insert(Data storage,uint256)": "27360",
						"remove(Data storage,uint256)": "27423"
					}
				},
				"methodIdentifiers": {
					"addr()": "767800de",
					"contains(Data storage,uint256)": "438854c1",
					"insert(Data storage,uint256)": "3ab90ad8",
					"remove(Data storage,uint256)": "9ffe9b2f"
				}
			},
			"storageLayout": {
				"storage": [],
				"types": null
			},
			"userdoc": {
				"kind": "user",
				"methods": {
					"insert(Data storage,uint256)": {
						"notice": "库与合约类似，库的目的是只需要在特定的地址部署一次，而它们的代码可以通过 EVM 的 DELEGATECALL特性进行重用。 这意味着如果库函数被调用，它的代码在调用合约的上下文中执行，即 this 指向调用合约，特别注意，他访问的是调用合约存储的状态。  因为我们假定库是无状态的，所以如果它们不修改状态（view或者pure函数），库函数仅能通过直接调用来使用（即不使用 DELEGATECALL 关键字），  - 没有状态变量 - 不能够继承或被继承 - 不能接收以太币 - 不可以被销毁 - 特别是，任何库不可能被销毁。"
					}
				},
				"version": 1
			}
		}
	}
}