{
	"合约/_12_错误与异常处理_assert和require.sol": {
		"A": {
			"abi": [
				{
					"inputs": [
						{
							"internalType": "uint256",
							"name": "a",
							"type": "uint256"
						},
						{
							"internalType": "uint256",
							"name": "b",
							"type": "uint256"
						}
					],
					"name": "div",
					"outputs": [
						{
							"internalType": "uint256",
							"name": "",
							"type": "uint256"
						}
					],
					"stateMutability": "pure",
					"type": "function"
				},
				{
					"inputs": [
						{
							"internalType": "uint256",
							"name": "a",
							"type": "uint256"
						},
						{
							"internalType": "uint256",
							"name": "b",
							"type": "uint256"
						}
					],
					"name": "requireTest",
					"outputs": [],
					"stateMutability": "pure",
					"type": "function"
				}
			],
			"devdoc": {
				"kind": "dev",
				"methods": {},
				"version": 1
			},
			"evm": {
				"assembly": "    /* \"\\xe5\\x90\\x88\\xe7\\xba\\xa6/_12_\\xe9\\x94\\x99\\xe8\\xaf\\xaf\\xe4\\xb8\\x8e\\xe5\\xbc\\x82\\xe5\\xb8\\xb8\\xe5\\xa4\\x84\\xe7\\x90\\x86_assert\\xe5\\x92\\x8crequire.sol\":66:2389  contract A {... */\n  mstore(0x40, 0x80)\n  callvalue\n  dup1\n  iszero\n  tag_1\n  jumpi\n  0x00\n  dup1\n  revert\ntag_1:\n  pop\n  dataSize(sub_0)\n  dup1\n  dataOffset(sub_0)\n  0x00\n  codecopy\n  0x00\n  return\nstop\n\nsub_0: assembly {\n        /* \"\\xe5\\x90\\x88\\xe7\\xba\\xa6/_12_\\xe9\\x94\\x99\\xe8\\xaf\\xaf\\xe4\\xb8\\x8e\\xe5\\xbc\\x82\\xe5\\xb8\\xb8\\xe5\\xa4\\x84\\xe7\\x90\\x86_assert\\xe5\\x92\\x8crequire.sol\":66:2389  contract A {... */\n      mstore(0x40, 0x80)\n      callvalue\n      dup1\n      iszero\n      tag_1\n      jumpi\n      0x00\n      dup1\n      revert\n    tag_1:\n      pop\n      jumpi(tag_2, lt(calldatasize, 0x04))\n      shr(0xe0, calldataload(0x00))\n      dup1\n      0x88f8eda3\n      eq\n      tag_3\n      jumpi\n      dup1\n      0xa391c15b\n      eq\n      tag_4\n      jumpi\n    tag_2:\n      0x00\n      dup1\n      revert\n        /* \"\\xe5\\x90\\x88\\xe7\\xba\\xa6/_12_\\xe9\\x94\\x99\\xe8\\xaf\\xaf\\xe4\\xb8\\x8e\\xe5\\xbc\\x82\\xe5\\xb8\\xb8\\xe5\\xa4\\x84\\xe7\\x90\\x86_assert\\xe5\\x92\\x8crequire.sol\":613:771  function requireTest(uint256 a, uint256 b) public pure {... */\n    tag_3:\n      tag_5\n      0x04\n      dup1\n      calldatasize\n      sub\n      dup2\n      add\n      swap1\n      tag_6\n      swap2\n      swap1\n      tag_7\n      jump\t// in\n    tag_6:\n      tag_8\n      jump\t// in\n    tag_5:\n      stop\n        /* \"\\xe5\\x90\\x88\\xe7\\xba\\xa6/_12_\\xe9\\x94\\x99\\xe8\\xaf\\xaf\\xe4\\xb8\\x8e\\xe5\\xbc\\x82\\xe5\\xb8\\xb8\\xe5\\xa4\\x84\\xe7\\x90\\x86_assert\\xe5\\x92\\x8crequire.sol\":777:981  function div(uint256 a, uint256 b) public pure returns (uint256) {... */\n    tag_4:\n      tag_9\n      0x04\n      dup1\n      calldatasize\n      sub\n      dup2\n      add\n      swap1\n      tag_10\n      swap2\n      swap1\n      tag_7\n      jump\t// in\n    tag_10:\n      tag_11\n      jump\t// in\n    tag_9:\n      mload(0x40)\n      tag_12\n      swap2\n      swap1\n      tag_13\n      jump\t// in\n    tag_12:\n      mload(0x40)\n      dup1\n      swap2\n      sub\n      swap1\n      return\n        /* \"\\xe5\\x90\\x88\\xe7\\xba\\xa6/_12_\\xe9\\x94\\x99\\xe8\\xaf\\xaf\\xe4\\xb8\\x8e\\xe5\\xbc\\x82\\xe5\\xb8\\xb8\\xe5\\xa4\\x84\\xe7\\x90\\x86_assert\\xe5\\x92\\x8crequire.sol\":613:771  function requireTest(uint256 a, uint256 b) public pure {... */\n    tag_8:\n        /* \"\\xe5\\x90\\x88\\xe7\\xba\\xa6/_12_\\xe9\\x94\\x99\\xe8\\xaf\\xaf\\xe4\\xb8\\x8e\\xe5\\xbc\\x82\\xe5\\xb8\\xb8\\xe5\\xa4\\x84\\xe7\\x90\\x86_assert\\xe5\\x92\\x8crequire.sol\":691:692  b */\n      dup1\n        /* \"\\xe5\\x90\\x88\\xe7\\xba\\xa6/_12_\\xe9\\x94\\x99\\xe8\\xaf\\xaf\\xe4\\xb8\\x8e\\xe5\\xbc\\x82\\xe5\\xb8\\xb8\\xe5\\xa4\\x84\\xe7\\x90\\x86_assert\\xe5\\x92\\x8crequire.sol\":687:688  a */\n      dup3\n        /* \"\\xe5\\x90\\x88\\xe7\\xba\\xa6/_12_\\xe9\\x94\\x99\\xe8\\xaf\\xaf\\xe4\\xb8\\x8e\\xe5\\xbc\\x82\\xe5\\xb8\\xb8\\xe5\\xa4\\x84\\xe7\\x90\\x86_assert\\xe5\\x92\\x8crequire.sol\":687:692  a < b */\n      lt\n        /* \"\\xe5\\x90\\x88\\xe7\\xba\\xa6/_12_\\xe9\\x94\\x99\\xe8\\xaf\\xaf\\xe4\\xb8\\x8e\\xe5\\xbc\\x82\\xe5\\xb8\\xb8\\xe5\\xa4\\x84\\xe7\\x90\\x86_assert\\xe5\\x92\\x8crequire.sol\":679:710  require(a < b, \"error message\") */\n      tag_15\n      jumpi\n      mload(0x40)\n      0x08c379a000000000000000000000000000000000000000000000000000000000\n      dup2\n      mstore\n      0x04\n      add\n      tag_16\n      swap1\n      tag_17\n      jump\t// in\n    tag_16:\n      mload(0x40)\n      dup1\n      swap2\n      sub\n      swap1\n      revert\n    tag_15:\n        /* \"\\xe5\\x90\\x88\\xe7\\xba\\xa6/_12_\\xe9\\x94\\x99\\xe8\\xaf\\xaf\\xe4\\xb8\\x8e\\xe5\\xbc\\x82\\xe5\\xb8\\xb8\\xe5\\xa4\\x84\\xe7\\x90\\x86_assert\\xe5\\x92\\x8crequire.sol\":613:771  function requireTest(uint256 a, uint256 b) public pure {... */\n      pop\n      pop\n      jump\t// out\n        /* \"\\xe5\\x90\\x88\\xe7\\xba\\xa6/_12_\\xe9\\x94\\x99\\xe8\\xaf\\xaf\\xe4\\xb8\\x8e\\xe5\\xbc\\x82\\xe5\\xb8\\xb8\\xe5\\xa4\\x84\\xe7\\x90\\x86_assert\\xe5\\x92\\x8crequire.sol\":777:981  function div(uint256 a, uint256 b) public pure returns (uint256) {... */\n    tag_11:\n        /* \"\\xe5\\x90\\x88\\xe7\\xba\\xa6/_12_\\xe9\\x94\\x99\\xe8\\xaf\\xaf\\xe4\\xb8\\x8e\\xe5\\xbc\\x82\\xe5\\xb8\\xb8\\xe5\\xa4\\x84\\xe7\\x90\\x86_assert\\xe5\\x92\\x8crequire.sol\":833:840  uint256 */\n      0x00\n        /* \"\\xe5\\x90\\x88\\xe7\\xba\\xa6/_12_\\xe9\\x94\\x99\\xe8\\xaf\\xaf\\xe4\\xb8\\x8e\\xe5\\xbc\\x82\\xe5\\xb8\\xb8\\xe5\\xa4\\x84\\xe7\\x90\\x86_assert\\xe5\\x92\\x8crequire.sol\":865:866  0 */\n      dup1\n        /* \"\\xe5\\x90\\x88\\xe7\\xba\\xa6/_12_\\xe9\\x94\\x99\\xe8\\xaf\\xaf\\xe4\\xb8\\x8e\\xe5\\xbc\\x82\\xe5\\xb8\\xb8\\xe5\\xa4\\x84\\xe7\\x90\\x86_assert\\xe5\\x92\\x8crequire.sol\":860:861  b */\n      dup3\n        /* \"\\xe5\\x90\\x88\\xe7\\xba\\xa6/_12_\\xe9\\x94\\x99\\xe8\\xaf\\xaf\\xe4\\xb8\\x8e\\xe5\\xbc\\x82\\xe5\\xb8\\xb8\\xe5\\xa4\\x84\\xe7\\x90\\x86_assert\\xe5\\x92\\x8crequire.sol\":860:866  b != 0 */\n      sub\n        /* \"\\xe5\\x90\\x88\\xe7\\xba\\xa6/_12_\\xe9\\x94\\x99\\xe8\\xaf\\xaf\\xe4\\xb8\\x8e\\xe5\\xbc\\x82\\xe5\\xb8\\xb8\\xe5\\xa4\\x84\\xe7\\x90\\x86_assert\\xe5\\x92\\x8crequire.sol\":853:867  assert(b != 0) */\n      tag_19\n      jumpi\n      tag_20\n      tag_21\n      jump\t// in\n    tag_20:\n    tag_19:\n        /* \"\\xe5\\x90\\x88\\xe7\\xba\\xa6/_12_\\xe9\\x94\\x99\\xe8\\xaf\\xaf\\xe4\\xb8\\x8e\\xe5\\xbc\\x82\\xe5\\xb8\\xb8\\xe5\\xa4\\x84\\xe7\\x90\\x86_assert\\xe5\\x92\\x8crequire.sol\":972:973  b */\n      dup2\n        /* \"\\xe5\\x90\\x88\\xe7\\xba\\xa6/_12_\\xe9\\x94\\x99\\xe8\\xaf\\xaf\\xe4\\xb8\\x8e\\xe5\\xbc\\x82\\xe5\\xb8\\xb8\\xe5\\xa4\\x84\\xe7\\x90\\x86_assert\\xe5\\x92\\x8crequire.sol\":968:969  a */\n      dup4\n        /* \"\\xe5\\x90\\x88\\xe7\\xba\\xa6/_12_\\xe9\\x94\\x99\\xe8\\xaf\\xaf\\xe4\\xb8\\x8e\\xe5\\xbc\\x82\\xe5\\xb8\\xb8\\xe5\\xa4\\x84\\xe7\\x90\\x86_assert\\xe5\\x92\\x8crequire.sol\":968:973  a / b */\n      tag_22\n      swap2\n      swap1\n      tag_23\n      jump\t// in\n    tag_22:\n        /* \"\\xe5\\x90\\x88\\xe7\\xba\\xa6/_12_\\xe9\\x94\\x99\\xe8\\xaf\\xaf\\xe4\\xb8\\x8e\\xe5\\xbc\\x82\\xe5\\xb8\\xb8\\xe5\\xa4\\x84\\xe7\\x90\\x86_assert\\xe5\\x92\\x8crequire.sol\":961:973  return a / b */\n      swap1\n      pop\n        /* \"\\xe5\\x90\\x88\\xe7\\xba\\xa6/_12_\\xe9\\x94\\x99\\xe8\\xaf\\xaf\\xe4\\xb8\\x8e\\xe5\\xbc\\x82\\xe5\\xb8\\xb8\\xe5\\xa4\\x84\\xe7\\x90\\x86_assert\\xe5\\x92\\x8crequire.sol\":777:981  function div(uint256 a, uint256 b) public pure returns (uint256) {... */\n      swap3\n      swap2\n      pop\n      pop\n      jump\t// out\n        /* \"#utility.yul\":88:205   */\n    tag_25:\n        /* \"#utility.yul\":197:198   */\n      0x00\n        /* \"#utility.yul\":194:195   */\n      dup1\n        /* \"#utility.yul\":187:199   */\n      revert\n        /* \"#utility.yul\":334:411   */\n    tag_27:\n        /* \"#utility.yul\":371:378   */\n      0x00\n        /* \"#utility.yul\":400:405   */\n      dup2\n        /* \"#utility.yul\":389:405   */\n      swap1\n      pop\n        /* \"#utility.yul\":334:411   */\n      swap2\n      swap1\n      pop\n      jump\t// out\n        /* \"#utility.yul\":417:539   */\n    tag_28:\n        /* \"#utility.yul\":490:514   */\n      tag_42\n        /* \"#utility.yul\":508:513   */\n      dup2\n        /* \"#utility.yul\":490:514   */\n      tag_27\n      jump\t// in\n    tag_42:\n        /* \"#utility.yul\":483:488   */\n      dup2\n        /* \"#utility.yul\":480:515   */\n      eq\n        /* \"#utility.yul\":470:533   */\n      tag_43\n      jumpi\n        /* \"#utility.yul\":529:530   */\n      0x00\n        /* \"#utility.yul\":526:527   */\n      dup1\n        /* \"#utility.yul\":519:531   */\n      revert\n        /* \"#utility.yul\":470:533   */\n    tag_43:\n        /* \"#utility.yul\":417:539   */\n      pop\n      jump\t// out\n        /* \"#utility.yul\":545:684   */\n    tag_29:\n        /* \"#utility.yul\":591:596   */\n      0x00\n        /* \"#utility.yul\":629:635   */\n      dup2\n        /* \"#utility.yul\":616:636   */\n      calldataload\n        /* \"#utility.yul\":607:636   */\n      swap1\n      pop\n        /* \"#utility.yul\":645:678   */\n      tag_45\n        /* \"#utility.yul\":672:677   */\n      dup2\n        /* \"#utility.yul\":645:678   */\n      tag_28\n      jump\t// in\n    tag_45:\n        /* \"#utility.yul\":545:684   */\n      swap3\n      swap2\n      pop\n      pop\n      jump\t// out\n        /* \"#utility.yul\":690:1164   */\n    tag_7:\n        /* \"#utility.yul\":758:764   */\n      0x00\n        /* \"#utility.yul\":766:772   */\n      dup1\n        /* \"#utility.yul\":815:817   */\n      0x40\n        /* \"#utility.yul\":803:812   */\n      dup4\n        /* \"#utility.yul\":794:801   */\n      dup6\n        /* \"#utility.yul\":790:813   */\n      sub\n        /* \"#utility.yul\":786:818   */\n      slt\n        /* \"#utility.yul\":783:902   */\n      iszero\n      tag_47\n      jumpi\n        /* \"#utility.yul\":821:900   */\n      tag_48\n      tag_25\n      jump\t// in\n    tag_48:\n        /* \"#utility.yul\":783:902   */\n    tag_47:\n        /* \"#utility.yul\":941:942   */\n      0x00\n        /* \"#utility.yul\":966:1019   */\n      tag_49\n        /* \"#utility.yul\":1011:1018   */\n      dup6\n        /* \"#utility.yul\":1002:1008   */\n      dup3\n        /* \"#utility.yul\":991:1000   */\n      dup7\n        /* \"#utility.yul\":987:1009   */\n      add\n        /* \"#utility.yul\":966:1019   */\n      tag_29\n      jump\t// in\n    tag_49:\n        /* \"#utility.yul\":956:1019   */\n      swap3\n      pop\n        /* \"#utility.yul\":912:1029   */\n      pop\n        /* \"#utility.yul\":1068:1070   */\n      0x20\n        /* \"#utility.yul\":1094:1147   */\n      tag_50\n        /* \"#utility.yul\":1139:1146   */\n      dup6\n        /* \"#utility.yul\":1130:1136   */\n      dup3\n        /* \"#utility.yul\":1119:1128   */\n      dup7\n        /* \"#utility.yul\":1115:1137   */\n      add\n        /* \"#utility.yul\":1094:1147   */\n      tag_29\n      jump\t// in\n    tag_50:\n        /* \"#utility.yul\":1084:1147   */\n      swap2\n      pop\n        /* \"#utility.yul\":1039:1157   */\n      pop\n        /* \"#utility.yul\":690:1164   */\n      swap3\n      pop\n      swap3\n      swap1\n      pop\n      jump\t// out\n        /* \"#utility.yul\":1170:1288   */\n    tag_30:\n        /* \"#utility.yul\":1257:1281   */\n      tag_52\n        /* \"#utility.yul\":1275:1280   */\n      dup2\n        /* \"#utility.yul\":1257:1281   */\n      tag_27\n      jump\t// in\n    tag_52:\n        /* \"#utility.yul\":1252:1255   */\n      dup3\n        /* \"#utility.yul\":1245:1282   */\n      mstore\n        /* \"#utility.yul\":1170:1288   */\n      pop\n      pop\n      jump\t// out\n        /* \"#utility.yul\":1294:1516   */\n    tag_13:\n        /* \"#utility.yul\":1387:1391   */\n      0x00\n        /* \"#utility.yul\":1425:1427   */\n      0x20\n        /* \"#utility.yul\":1414:1423   */\n      dup3\n        /* \"#utility.yul\":1410:1428   */\n      add\n        /* \"#utility.yul\":1402:1428   */\n      swap1\n      pop\n        /* \"#utility.yul\":1438:1509   */\n      tag_54\n        /* \"#utility.yul\":1506:1507   */\n      0x00\n        /* \"#utility.yul\":1495:1504   */\n      dup4\n        /* \"#utility.yul\":1491:1508   */\n      add\n        /* \"#utility.yul\":1482:1488   */\n      dup5\n        /* \"#utility.yul\":1438:1509   */\n      tag_30\n      jump\t// in\n    tag_54:\n        /* \"#utility.yul\":1294:1516   */\n      swap3\n      swap2\n      pop\n      pop\n      jump\t// out\n        /* \"#utility.yul\":1522:1691   */\n    tag_31:\n        /* \"#utility.yul\":1606:1617   */\n      0x00\n        /* \"#utility.yul\":1640:1646   */\n      dup3\n        /* \"#utility.yul\":1635:1638   */\n      dup3\n        /* \"#utility.yul\":1628:1647   */\n      mstore\n        /* \"#utility.yul\":1680:1684   */\n      0x20\n        /* \"#utility.yul\":1675:1678   */\n      dup3\n        /* \"#utility.yul\":1671:1685   */\n      add\n        /* \"#utility.yul\":1656:1685   */\n      swap1\n      pop\n        /* \"#utility.yul\":1522:1691   */\n      swap3\n      swap2\n      pop\n      pop\n      jump\t// out\n        /* \"#utility.yul\":1697:1860   */\n    tag_32:\n        /* \"#utility.yul\":1837:1852   */\n      0x6572726f72206d65737361676500000000000000000000000000000000000000\n        /* \"#utility.yul\":1833:1834   */\n      0x00\n        /* \"#utility.yul\":1825:1831   */\n      dup3\n        /* \"#utility.yul\":1821:1835   */\n      add\n        /* \"#utility.yul\":1814:1853   */\n      mstore\n        /* \"#utility.yul\":1697:1860   */\n      pop\n      jump\t// out\n        /* \"#utility.yul\":1866:2232   */\n    tag_33:\n        /* \"#utility.yul\":2008:2011   */\n      0x00\n        /* \"#utility.yul\":2029:2096   */\n      tag_58\n        /* \"#utility.yul\":2093:2095   */\n      0x0d\n        /* \"#utility.yul\":2088:2091   */\n      dup4\n        /* \"#utility.yul\":2029:2096   */\n      tag_31\n      jump\t// in\n    tag_58:\n        /* \"#utility.yul\":2022:2096   */\n      swap2\n      pop\n        /* \"#utility.yul\":2105:2198   */\n      tag_59\n        /* \"#utility.yul\":2194:2197   */\n      dup3\n        /* \"#utility.yul\":2105:2198   */\n      tag_32\n      jump\t// in\n    tag_59:\n        /* \"#utility.yul\":2223:2225   */\n      0x20\n        /* \"#utility.yul\":2218:2221   */\n      dup3\n        /* \"#utility.yul\":2214:2226   */\n      add\n        /* \"#utility.yul\":2207:2226   */\n      swap1\n      pop\n        /* \"#utility.yul\":1866:2232   */\n      swap2\n      swap1\n      pop\n      jump\t// out\n        /* \"#utility.yul\":2238:2657   */\n    tag_17:\n        /* \"#utility.yul\":2404:2408   */\n      0x00\n        /* \"#utility.yul\":2442:2444   */\n      0x20\n        /* \"#utility.yul\":2431:2440   */\n      dup3\n        /* \"#utility.yul\":2427:2445   */\n      add\n        /* \"#utility.yul\":2419:2445   */\n      swap1\n      pop\n        /* \"#utility.yul\":2491:2500   */\n      dup2\n        /* \"#utility.yul\":2485:2489   */\n      dup2\n        /* \"#utility.yul\":2481:2501   */\n      sub\n        /* \"#utility.yul\":2477:2478   */\n      0x00\n        /* \"#utility.yul\":2466:2475   */\n      dup4\n        /* \"#utility.yul\":2462:2479   */\n      add\n        /* \"#utility.yul\":2455:2502   */\n      mstore\n        /* \"#utility.yul\":2519:2650   */\n      tag_61\n        /* \"#utility.yul\":2645:2649   */\n      dup2\n        /* \"#utility.yul\":2519:2650   */\n      tag_33\n      jump\t// in\n    tag_61:\n        /* \"#utility.yul\":2511:2650   */\n      swap1\n      pop\n        /* \"#utility.yul\":2238:2657   */\n      swap2\n      swap1\n      pop\n      jump\t// out\n        /* \"#utility.yul\":2663:2843   */\n    tag_21:\n        /* \"#utility.yul\":2711:2788   */\n      0x4e487b7100000000000000000000000000000000000000000000000000000000\n        /* \"#utility.yul\":2708:2709   */\n      0x00\n        /* \"#utility.yul\":2701:2789   */\n      mstore\n        /* \"#utility.yul\":2808:2812   */\n      0x01\n        /* \"#utility.yul\":2805:2806   */\n      0x04\n        /* \"#utility.yul\":2798:2813   */\n      mstore\n        /* \"#utility.yul\":2832:2836   */\n      0x24\n        /* \"#utility.yul\":2829:2830   */\n      0x00\n        /* \"#utility.yul\":2822:2837   */\n      revert\n        /* \"#utility.yul\":2849:3029   */\n    tag_34:\n        /* \"#utility.yul\":2897:2974   */\n      0x4e487b7100000000000000000000000000000000000000000000000000000000\n        /* \"#utility.yul\":2894:2895   */\n      0x00\n        /* \"#utility.yul\":2887:2975   */\n      mstore\n        /* \"#utility.yul\":2994:2998   */\n      0x12\n        /* \"#utility.yul\":2991:2992   */\n      0x04\n        /* \"#utility.yul\":2984:2999   */\n      mstore\n        /* \"#utility.yul\":3018:3022   */\n      0x24\n        /* \"#utility.yul\":3015:3016   */\n      0x00\n        /* \"#utility.yul\":3008:3023   */\n      revert\n        /* \"#utility.yul\":3221:3406   */\n    tag_23:\n        /* \"#utility.yul\":3261:3262   */\n      0x00\n        /* \"#utility.yul\":3278:3298   */\n      tag_66\n        /* \"#utility.yul\":3296:3297   */\n      dup3\n        /* \"#utility.yul\":3278:3298   */\n      tag_27\n      jump\t// in\n    tag_66:\n        /* \"#utility.yul\":3273:3298   */\n      swap2\n      pop\n        /* \"#utility.yul\":3312:3332   */\n      tag_67\n        /* \"#utility.yul\":3330:3331   */\n      dup4\n        /* \"#utility.yul\":3312:3332   */\n      tag_27\n      jump\t// in\n    tag_67:\n        /* \"#utility.yul\":3307:3332   */\n      swap3\n      pop\n        /* \"#utility.yul\":3351:3352   */\n      dup3\n        /* \"#utility.yul\":3341:3376   */\n      tag_68\n      jumpi\n        /* \"#utility.yul\":3356:3374   */\n      tag_69\n      tag_34\n      jump\t// in\n    tag_69:\n        /* \"#utility.yul\":3341:3376   */\n    tag_68:\n        /* \"#utility.yul\":3398:3399   */\n      dup3\n        /* \"#utility.yul\":3395:3396   */\n      dup3\n        /* \"#utility.yul\":3391:3400   */\n      div\n        /* \"#utility.yul\":3386:3400   */\n      swap1\n      pop\n        /* \"#utility.yul\":3221:3406   */\n      swap3\n      swap2\n      pop\n      pop\n      jump\t// out\n\n    auxdata: 0xa26469706673582212201dc92282a40d83233532d458200979d27da6340916161f3ddfc70d0e013d175064736f6c63430008110033\n}\n",
				"bytecode": {
					"linkReferences": {},
					"object": "608060405234801561001057600080fd5b506102da806100206000396000f3fe608060405234801561001057600080fd5b50600436106100365760003560e01c806388f8eda31461003b578063a391c15b14610057575b600080fd5b6100556004803603810190610050919061012e565b610087565b005b610071600480360381019061006c919061012e565b6100cd565b60405161007e919061017d565b60405180910390f35b8082106100c9576040517f08c379a00000000000000000000000000000000000000000000000000000000081526004016100c0906101f5565b60405180910390fd5b5050565b60008082036100df576100de610215565b5b81836100eb9190610273565b905092915050565b600080fd5b6000819050919050565b61010b816100f8565b811461011657600080fd5b50565b60008135905061012881610102565b92915050565b60008060408385031215610145576101446100f3565b5b600061015385828601610119565b925050602061016485828601610119565b9150509250929050565b610177816100f8565b82525050565b6000602082019050610192600083018461016e565b92915050565b600082825260208201905092915050565b7f6572726f72206d65737361676500000000000000000000000000000000000000600082015250565b60006101df600d83610198565b91506101ea826101a9565b602082019050919050565b6000602082019050818103600083015261020e816101d2565b9050919050565b7f4e487b7100000000000000000000000000000000000000000000000000000000600052600160045260246000fd5b7f4e487b7100000000000000000000000000000000000000000000000000000000600052601260045260246000fd5b600061027e826100f8565b9150610289836100f8565b92508261029957610298610244565b5b82820490509291505056fea26469706673582212201dc92282a40d83233532d458200979d27da6340916161f3ddfc70d0e013d175064736f6c63430008110033",
					"opcodes": "PUSH1 0x80 PUSH1 0x40 MSTORE CALLVALUE DUP1 ISZERO PUSH2 0x10 JUMPI PUSH1 0x0 DUP1 REVERT JUMPDEST POP PUSH2 0x2DA DUP1 PUSH2 0x20 PUSH1 0x0 CODECOPY PUSH1 0x0 RETURN INVALID PUSH1 0x80 PUSH1 0x40 MSTORE CALLVALUE DUP1 ISZERO PUSH2 0x10 JUMPI PUSH1 0x0 DUP1 REVERT JUMPDEST POP PUSH1 0x4 CALLDATASIZE LT PUSH2 0x36 JUMPI PUSH1 0x0 CALLDATALOAD PUSH1 0xE0 SHR DUP1 PUSH4 0x88F8EDA3 EQ PUSH2 0x3B JUMPI DUP1 PUSH4 0xA391C15B EQ PUSH2 0x57 JUMPI JUMPDEST PUSH1 0x0 DUP1 REVERT JUMPDEST PUSH2 0x55 PUSH1 0x4 DUP1 CALLDATASIZE SUB DUP2 ADD SWAP1 PUSH2 0x50 SWAP2 SWAP1 PUSH2 0x12E JUMP JUMPDEST PUSH2 0x87 JUMP JUMPDEST STOP JUMPDEST PUSH2 0x71 PUSH1 0x4 DUP1 CALLDATASIZE SUB DUP2 ADD SWAP1 PUSH2 0x6C SWAP2 SWAP1 PUSH2 0x12E JUMP JUMPDEST PUSH2 0xCD JUMP JUMPDEST PUSH1 0x40 MLOAD PUSH2 0x7E SWAP2 SWAP1 PUSH2 0x17D JUMP JUMPDEST PUSH1 0x40 MLOAD DUP1 SWAP2 SUB SWAP1 RETURN JUMPDEST DUP1 DUP3 LT PUSH2 0xC9 JUMPI PUSH1 0x40 MLOAD PUSH32 0x8C379A000000000000000000000000000000000000000000000000000000000 DUP2 MSTORE PUSH1 0x4 ADD PUSH2 0xC0 SWAP1 PUSH2 0x1F5 JUMP JUMPDEST PUSH1 0x40 MLOAD DUP1 SWAP2 SUB SWAP1 REVERT JUMPDEST POP POP JUMP JUMPDEST PUSH1 0x0 DUP1 DUP3 SUB PUSH2 0xDF JUMPI PUSH2 0xDE PUSH2 0x215 JUMP JUMPDEST JUMPDEST DUP2 DUP4 PUSH2 0xEB SWAP2 SWAP1 PUSH2 0x273 JUMP JUMPDEST SWAP1 POP SWAP3 SWAP2 POP POP JUMP JUMPDEST PUSH1 0x0 DUP1 REVERT JUMPDEST PUSH1 0x0 DUP2 SWAP1 POP SWAP2 SWAP1 POP JUMP JUMPDEST PUSH2 0x10B DUP2 PUSH2 0xF8 JUMP JUMPDEST DUP2 EQ PUSH2 0x116 JUMPI PUSH1 0x0 DUP1 REVERT JUMPDEST POP JUMP JUMPDEST PUSH1 0x0 DUP2 CALLDATALOAD SWAP1 POP PUSH2 0x128 DUP2 PUSH2 0x102 JUMP JUMPDEST SWAP3 SWAP2 POP POP JUMP JUMPDEST PUSH1 0x0 DUP1 PUSH1 0x40 DUP4 DUP6 SUB SLT ISZERO PUSH2 0x145 JUMPI PUSH2 0x144 PUSH2 0xF3 JUMP JUMPDEST JUMPDEST PUSH1 0x0 PUSH2 0x153 DUP6 DUP3 DUP7 ADD PUSH2 0x119 JUMP JUMPDEST SWAP3 POP POP PUSH1 0x20 PUSH2 0x164 DUP6 DUP3 DUP7 ADD PUSH2 0x119 JUMP JUMPDEST SWAP2 POP POP SWAP3 POP SWAP3 SWAP1 POP JUMP JUMPDEST PUSH2 0x177 DUP2 PUSH2 0xF8 JUMP JUMPDEST DUP3 MSTORE POP POP JUMP JUMPDEST PUSH1 0x0 PUSH1 0x20 DUP3 ADD SWAP1 POP PUSH2 0x192 PUSH1 0x0 DUP4 ADD DUP5 PUSH2 0x16E JUMP JUMPDEST SWAP3 SWAP2 POP POP JUMP JUMPDEST PUSH1 0x0 DUP3 DUP3 MSTORE PUSH1 0x20 DUP3 ADD SWAP1 POP SWAP3 SWAP2 POP POP JUMP JUMPDEST PUSH32 0x6572726F72206D65737361676500000000000000000000000000000000000000 PUSH1 0x0 DUP3 ADD MSTORE POP JUMP JUMPDEST PUSH1 0x0 PUSH2 0x1DF PUSH1 0xD DUP4 PUSH2 0x198 JUMP JUMPDEST SWAP2 POP PUSH2 0x1EA DUP3 PUSH2 0x1A9 JUMP JUMPDEST PUSH1 0x20 DUP3 ADD SWAP1 POP SWAP2 SWAP1 POP JUMP JUMPDEST PUSH1 0x0 PUSH1 0x20 DUP3 ADD SWAP1 POP DUP2 DUP2 SUB PUSH1 0x0 DUP4 ADD MSTORE PUSH2 0x20E DUP2 PUSH2 0x1D2 JUMP JUMPDEST SWAP1 POP SWAP2 SWAP1 POP JUMP JUMPDEST PUSH32 0x4E487B7100000000000000000000000000000000000000000000000000000000 PUSH1 0x0 MSTORE PUSH1 0x1 PUSH1 0x4 MSTORE PUSH1 0x24 PUSH1 0x0 REVERT JUMPDEST PUSH32 0x4E487B7100000000000000000000000000000000000000000000000000000000 PUSH1 0x0 MSTORE PUSH1 0x12 PUSH1 0x4 MSTORE PUSH1 0x24 PUSH1 0x0 REVERT JUMPDEST PUSH1 0x0 PUSH2 0x27E DUP3 PUSH2 0xF8 JUMP JUMPDEST SWAP2 POP PUSH2 0x289 DUP4 PUSH2 0xF8 JUMP JUMPDEST SWAP3 POP DUP3 PUSH2 0x299 JUMPI PUSH2 0x298 PUSH2 0x244 JUMP JUMPDEST JUMPDEST DUP3 DUP3 DIV SWAP1 POP SWAP3 SWAP2 POP POP JUMP INVALID LOG2 PUSH5 0x6970667358 0x22 SLT KECCAK256 SAR 0xC9 0x22 DUP3 LOG4 0xD DUP4 0x23 CALLDATALOAD ORIGIN 0xD4 PC KECCAK256 MULMOD PUSH26 0xD27DA6340916161F3DDFC70D0E013D175064736F6C6343000811 STOP CALLER "
				},
				"gasEstimates": {
					"creation": {
						"codeDepositCost": "146000",
						"executionCost": "190",
						"totalCost": "146190"
					},
					"external": {
						"div(uint256,uint256)": "infinite",
						"requireTest(uint256,uint256)": "infinite"
					}
				},
				"methodIdentifiers": {
					"div(uint256,uint256)": "a391c15b",
					"requireTest(uint256,uint256)": "88f8eda3"
				}
			},
			"storageLayout": {
				"storage": [],
				"types": null
			},
			"userdoc": {
				"kind": "user",
				"methods": {
					"requireTest(uint256,uint256)": {
						"notice": "- 在EVM内部定义了两个内建的error, 分别是Panic(uint256)和Error(string) Panic这类error的含义与java中的RuntimeException类似, 即正常的函数代码永远不会产生 Panic ,  甚至是基于一个无效的外部输入时。如果发生了，那就说明出现了一个需要你修复的 bug。 Error这类error的含义与java中的非RuntimeException类似 - EVM中提供了assert来产生Panic异常, require产生Error异常"
					}
				},
				"version": 1
			}
		}
	}
}