{
	"合约/test.sol": {
		"A": {
			"abi": [
				{
					"inputs": [],
					"stateMutability": "nonpayable",
					"type": "constructor"
				},
				{
					"anonymous": false,
					"inputs": [
						{
							"indexed": false,
							"internalType": "string",
							"name": "message",
							"type": "string"
						}
					],
					"name": "Log",
					"type": "event"
				},
				{
					"inputs": [],
					"name": "foo",
					"outputs": [],
					"stateMutability": "nonpayable",
					"type": "function"
				}
			],
			"devdoc": {
				"kind": "dev",
				"methods": {},
				"version": 1
			},
			"evm": {
				"assembly": "    /* \"\\xe5\\x90\\x88\\xe7\\xba\\xa6/test.sol\":328:482  contract A is O {... */\n  mstore(0x40, 0x80)\n    /* \"\\xe5\\x90\\x88\\xe7\\xba\\xa6/test.sol\":350:389  constructor() {... */\n  callvalue\n  dup1\n  iszero\n  tag_1\n  jumpi\n  0x00\n  dup1\n  revert\ntag_1:\n  pop\n    /* \"\\xe5\\x90\\x88\\xe7\\xba\\xa6/test.sol\":103:111  log(\"O\") */\n  tag_5\n  mload(0x40)\n  dup1\n  0x40\n  add\n  0x40\n  mstore\n  dup1\n  0x01\n  dup2\n  mstore\n  0x20\n  add\n  0x4f00000000000000000000000000000000000000000000000000000000000000\n  dup2\n  mstore\n  pop\n    /* \"\\xe5\\x90\\x88\\xe7\\xba\\xa6/test.sol\":103:106  log */\n  shl(0x20, tag_6)\n    /* \"\\xe5\\x90\\x88\\xe7\\xba\\xa6/test.sol\":103:111  log(\"O\") */\n  0x20\n  shr\n  jump\t// in\ntag_5:\n    /* \"\\xe5\\x90\\x88\\xe7\\xba\\xa6/test.sol\":374:382  log(\"A\") */\n  tag_8\n  mload(0x40)\n  dup1\n  0x40\n  add\n  0x40\n  mstore\n  dup1\n  0x01\n  dup2\n  mstore\n  0x20\n  add\n  0x4100000000000000000000000000000000000000000000000000000000000000\n  dup2\n  mstore\n  pop\n    /* \"\\xe5\\x90\\x88\\xe7\\xba\\xa6/test.sol\":374:377  log */\n  shl(0x20, tag_6)\n    /* \"\\xe5\\x90\\x88\\xe7\\xba\\xa6/test.sol\":374:382  log(\"A\") */\n  0x20\n  shr\n  jump\t// in\ntag_8:\n    /* \"\\xe5\\x90\\x88\\xe7\\xba\\xa6/test.sol\":328:482  contract A is O {... */\n  jump(tag_9)\n    /* \"\\xe5\\x90\\x88\\xe7\\xba\\xa6/test.sol\":156:235  function log(string memory message) internal {... */\ntag_6:\n    /* \"\\xe5\\x90\\x88\\xe7\\xba\\xa6/test.sol\":216:228  Log(message) */\n  0xcf34ef537ac33ee1ac626ca1587a0a7e8e51561e5514f8cb36afa1c5102b3bab\n    /* \"\\xe5\\x90\\x88\\xe7\\xba\\xa6/test.sol\":220:227  message */\n  dup2\n    /* \"\\xe5\\x90\\x88\\xe7\\xba\\xa6/test.sol\":216:228  Log(message) */\n  mload(0x40)\n  tag_11\n  swap2\n  swap1\n  tag_12\n  jump\t// in\ntag_11:\n  mload(0x40)\n  dup1\n  swap2\n  sub\n  swap1\n  log1\n    /* \"\\xe5\\x90\\x88\\xe7\\xba\\xa6/test.sol\":156:235  function log(string memory message) internal {... */\n  pop\n  jump\t// out\n    /* \"#utility.yul\":7:106   */\ntag_13:\n    /* \"#utility.yul\":59:65   */\n  0x00\n    /* \"#utility.yul\":93:98   */\n  dup2\n    /* \"#utility.yul\":87:99   */\n  mload\n    /* \"#utility.yul\":77:99   */\n  swap1\n  pop\n    /* \"#utility.yul\":7:106   */\n  swap2\n  swap1\n  pop\n  jump\t// out\n    /* \"#utility.yul\":112:281   */\ntag_14:\n    /* \"#utility.yul\":196:207   */\n  0x00\n    /* \"#utility.yul\":230:236   */\n  dup3\n    /* \"#utility.yul\":225:228   */\n  dup3\n    /* \"#utility.yul\":218:237   */\n  mstore\n    /* \"#utility.yul\":270:274   */\n  0x20\n    /* \"#utility.yul\":265:268   */\n  dup3\n    /* \"#utility.yul\":261:275   */\n  add\n    /* \"#utility.yul\":246:275   */\n  swap1\n  pop\n    /* \"#utility.yul\":112:281   */\n  swap3\n  swap2\n  pop\n  pop\n  jump\t// out\n    /* \"#utility.yul\":287:533   */\ntag_15:\n    /* \"#utility.yul\":368:369   */\n  0x00\n    /* \"#utility.yul\":378:491   */\ntag_22:\n    /* \"#utility.yul\":392:398   */\n  dup4\n    /* \"#utility.yul\":389:390   */\n  dup2\n    /* \"#utility.yul\":386:399   */\n  lt\n    /* \"#utility.yul\":378:491   */\n  iszero\n  tag_24\n  jumpi\n    /* \"#utility.yul\":477:478   */\n  dup1\n    /* \"#utility.yul\":472:475   */\n  dup3\n    /* \"#utility.yul\":468:479   */\n  add\n    /* \"#utility.yul\":462:480   */\n  mload\n    /* \"#utility.yul\":458:459   */\n  dup2\n    /* \"#utility.yul\":453:456   */\n  dup5\n    /* \"#utility.yul\":449:460   */\n  add\n    /* \"#utility.yul\":442:481   */\n  mstore\n    /* \"#utility.yul\":414:416   */\n  0x20\n    /* \"#utility.yul\":411:412   */\n  dup2\n    /* \"#utility.yul\":407:417   */\n  add\n    /* \"#utility.yul\":402:417   */\n  swap1\n  pop\n    /* \"#utility.yul\":378:491   */\n  jump(tag_22)\ntag_24:\n    /* \"#utility.yul\":525:526   */\n  0x00\n    /* \"#utility.yul\":516:522   */\n  dup5\n    /* \"#utility.yul\":511:514   */\n  dup5\n    /* \"#utility.yul\":507:523   */\n  add\n    /* \"#utility.yul\":500:527   */\n  mstore\n    /* \"#utility.yul\":349:533   */\n  pop\n    /* \"#utility.yul\":287:533   */\n  pop\n  pop\n  pop\n  jump\t// out\n    /* \"#utility.yul\":539:641   */\ntag_16:\n    /* \"#utility.yul\":580:586   */\n  0x00\n    /* \"#utility.yul\":631:633   */\n  0x1f\n    /* \"#utility.yul\":627:634   */\n  not\n    /* \"#utility.yul\":622:624   */\n  0x1f\n    /* \"#utility.yul\":615:620   */\n  dup4\n    /* \"#utility.yul\":611:625   */\n  add\n    /* \"#utility.yul\":607:635   */\n  and\n    /* \"#utility.yul\":597:635   */\n  swap1\n  pop\n    /* \"#utility.yul\":539:641   */\n  swap2\n  swap1\n  pop\n  jump\t// out\n    /* \"#utility.yul\":647:1024   */\ntag_17:\n    /* \"#utility.yul\":735:738   */\n  0x00\n    /* \"#utility.yul\":763:802   */\n  tag_27\n    /* \"#utility.yul\":796:801   */\n  dup3\n    /* \"#utility.yul\":763:802   */\n  tag_13\n  jump\t// in\ntag_27:\n    /* \"#utility.yul\":818:889   */\n  tag_28\n    /* \"#utility.yul\":882:888   */\n  dup2\n    /* \"#utility.yul\":877:880   */\n  dup6\n    /* \"#utility.yul\":818:889   */\n  tag_14\n  jump\t// in\ntag_28:\n    /* \"#utility.yul\":811:889   */\n  swap4\n  pop\n    /* \"#utility.yul\":898:963   */\n  tag_29\n    /* \"#utility.yul\":956:962   */\n  dup2\n    /* \"#utility.yul\":951:954   */\n  dup6\n    /* \"#utility.yul\":944:948   */\n  0x20\n    /* \"#utility.yul\":937:942   */\n  dup7\n    /* \"#utility.yul\":933:949   */\n  add\n    /* \"#utility.yul\":898:963   */\n  tag_15\n  jump\t// in\ntag_29:\n    /* \"#utility.yul\":988:1017   */\n  tag_30\n    /* \"#utility.yul\":1010:1016   */\n  dup2\n    /* \"#utility.yul\":988:1017   */\n  tag_16\n  jump\t// in\ntag_30:\n    /* \"#utility.yul\":983:986   */\n  dup5\n    /* \"#utility.yul\":979:1018   */\n  add\n    /* \"#utility.yul\":972:1018   */\n  swap2\n  pop\n    /* \"#utility.yul\":739:1024   */\n  pop\n    /* \"#utility.yul\":647:1024   */\n  swap3\n  swap2\n  pop\n  pop\n  jump\t// out\n    /* \"#utility.yul\":1030:1343   */\ntag_12:\n    /* \"#utility.yul\":1143:1147   */\n  0x00\n    /* \"#utility.yul\":1181:1183   */\n  0x20\n    /* \"#utility.yul\":1170:1179   */\n  dup3\n    /* \"#utility.yul\":1166:1184   */\n  add\n    /* \"#utility.yul\":1158:1184   */\n  swap1\n  pop\n    /* \"#utility.yul\":1230:1239   */\n  dup2\n    /* \"#utility.yul\":1224:1228   */\n  dup2\n    /* \"#utility.yul\":1220:1240   */\n  sub\n    /* \"#utility.yul\":1216:1217   */\n  0x00\n    /* \"#utility.yul\":1205:1214   */\n  dup4\n    /* \"#utility.yul\":1201:1218   */\n  add\n    /* \"#utility.yul\":1194:1241   */\n  mstore\n    /* \"#utility.yul\":1258:1336   */\n  tag_32\n    /* \"#utility.yul\":1331:1335   */\n  dup2\n    /* \"#utility.yul\":1322:1328   */\n  dup5\n    /* \"#utility.yul\":1258:1336   */\n  tag_17\n  jump\t// in\ntag_32:\n    /* \"#utility.yul\":1250:1336   */\n  swap1\n  pop\n    /* \"#utility.yul\":1030:1343   */\n  swap3\n  swap2\n  pop\n  pop\n  jump\t// out\n    /* \"\\xe5\\x90\\x88\\xe7\\xba\\xa6/test.sol\":328:482  contract A is O {... */\ntag_9:\n  dataSize(sub_0)\n  dup1\n  dataOffset(sub_0)\n  0x00\n  codecopy\n  0x00\n  return\nstop\n\nsub_0: assembly {\n        /* \"\\xe5\\x90\\x88\\xe7\\xba\\xa6/test.sol\":328:482  contract A is O {... */\n      mstore(0x40, 0x80)\n      callvalue\n      dup1\n      iszero\n      tag_1\n      jumpi\n      0x00\n      dup1\n      revert\n    tag_1:\n      pop\n      jumpi(tag_2, lt(calldatasize, 0x04))\n      shr(0xe0, calldataload(0x00))\n      dup1\n      0xc2985578\n      eq\n      tag_3\n      jumpi\n    tag_2:\n      0x00\n      dup1\n      revert\n        /* \"\\xe5\\x90\\x88\\xe7\\xba\\xa6/test.sol\":395:480  function foo() public virtual override {... */\n    tag_3:\n      tag_4\n      tag_5\n      jump\t// in\n    tag_4:\n      stop\n    tag_5:\n        /* \"\\xe5\\x90\\x88\\xe7\\xba\\xa6/test.sol\":444:452  log(\"A\") */\n      tag_7\n      mload(0x40)\n      dup1\n      0x40\n      add\n      0x40\n      mstore\n      dup1\n      0x01\n      dup2\n      mstore\n      0x20\n      add\n      0x4100000000000000000000000000000000000000000000000000000000000000\n      dup2\n      mstore\n      pop\n        /* \"\\xe5\\x90\\x88\\xe7\\xba\\xa6/test.sol\":444:447  log */\n      tag_8\n        /* \"\\xe5\\x90\\x88\\xe7\\xba\\xa6/test.sol\":444:452  log(\"A\") */\n      jump\t// in\n    tag_7:\n        /* \"\\xe5\\x90\\x88\\xe7\\xba\\xa6/test.sol\":462:473  super.foo() */\n      tag_9\n        /* \"\\xe5\\x90\\x88\\xe7\\xba\\xa6/test.sol\":462:471  super.foo */\n      tag_10\n        /* \"\\xe5\\x90\\x88\\xe7\\xba\\xa6/test.sol\":462:473  super.foo() */\n      jump\t// in\n    tag_9:\n        /* \"\\xe5\\x90\\x88\\xe7\\xba\\xa6/test.sol\":395:480  function foo() public virtual override {... */\n      jump\t// out\n        /* \"\\xe5\\x90\\x88\\xe7\\xba\\xa6/test.sol\":156:235  function log(string memory message) internal {... */\n    tag_8:\n        /* \"\\xe5\\x90\\x88\\xe7\\xba\\xa6/test.sol\":216:228  Log(message) */\n      0xcf34ef537ac33ee1ac626ca1587a0a7e8e51561e5514f8cb36afa1c5102b3bab\n        /* \"\\xe5\\x90\\x88\\xe7\\xba\\xa6/test.sol\":220:227  message */\n      dup2\n        /* \"\\xe5\\x90\\x88\\xe7\\xba\\xa6/test.sol\":216:228  Log(message) */\n      mload(0x40)\n      tag_12\n      swap2\n      swap1\n      tag_13\n      jump\t// in\n    tag_12:\n      mload(0x40)\n      dup1\n      swap2\n      sub\n      swap1\n      log1\n        /* \"\\xe5\\x90\\x88\\xe7\\xba\\xa6/test.sol\":156:235  function log(string memory message) internal {... */\n      pop\n      jump\t// out\n        /* \"\\xe5\\x90\\x88\\xe7\\xba\\xa6/test.sol\":269:324  function foo() public virtual {... */\n    tag_10:\n        /* \"\\xe5\\x90\\x88\\xe7\\xba\\xa6/test.sol\":309:317  log(\"O\") */\n      tag_15\n      mload(0x40)\n      dup1\n      0x40\n      add\n      0x40\n      mstore\n      dup1\n      0x01\n      dup2\n      mstore\n      0x20\n      add\n      0x4f00000000000000000000000000000000000000000000000000000000000000\n      dup2\n      mstore\n      pop\n        /* \"\\xe5\\x90\\x88\\xe7\\xba\\xa6/test.sol\":309:312  log */\n      tag_8\n        /* \"\\xe5\\x90\\x88\\xe7\\xba\\xa6/test.sol\":309:317  log(\"O\") */\n      jump\t// in\n    tag_15:\n        /* \"\\xe5\\x90\\x88\\xe7\\xba\\xa6/test.sol\":269:324  function foo() public virtual {... */\n      jump\t// out\n        /* \"#utility.yul\":7:106   */\n    tag_16:\n        /* \"#utility.yul\":59:65   */\n      0x00\n        /* \"#utility.yul\":93:98   */\n      dup2\n        /* \"#utility.yul\":87:99   */\n      mload\n        /* \"#utility.yul\":77:99   */\n      swap1\n      pop\n        /* \"#utility.yul\":7:106   */\n      swap2\n      swap1\n      pop\n      jump\t// out\n        /* \"#utility.yul\":112:281   */\n    tag_17:\n        /* \"#utility.yul\":196:207   */\n      0x00\n        /* \"#utility.yul\":230:236   */\n      dup3\n        /* \"#utility.yul\":225:228   */\n      dup3\n        /* \"#utility.yul\":218:237   */\n      mstore\n        /* \"#utility.yul\":270:274   */\n      0x20\n        /* \"#utility.yul\":265:268   */\n      dup3\n        /* \"#utility.yul\":261:275   */\n      add\n        /* \"#utility.yul\":246:275   */\n      swap1\n      pop\n        /* \"#utility.yul\":112:281   */\n      swap3\n      swap2\n      pop\n      pop\n      jump\t// out\n        /* \"#utility.yul\":287:533   */\n    tag_18:\n        /* \"#utility.yul\":368:369   */\n      0x00\n        /* \"#utility.yul\":378:491   */\n    tag_25:\n        /* \"#utility.yul\":392:398   */\n      dup4\n        /* \"#utility.yul\":389:390   */\n      dup2\n        /* \"#utility.yul\":386:399   */\n      lt\n        /* \"#utility.yul\":378:491   */\n      iszero\n      tag_27\n      jumpi\n        /* \"#utility.yul\":477:478   */\n      dup1\n        /* \"#utility.yul\":472:475   */\n      dup3\n        /* \"#utility.yul\":468:479   */\n      add\n        /* \"#utility.yul\":462:480   */\n      mload\n        /* \"#utility.yul\":458:459   */\n      dup2\n        /* \"#utility.yul\":453:456   */\n      dup5\n        /* \"#utility.yul\":449:460   */\n      add\n        /* \"#utility.yul\":442:481   */\n      mstore\n        /* \"#utility.yul\":414:416   */\n      0x20\n        /* \"#utility.yul\":411:412   */\n      dup2\n        /* \"#utility.yul\":407:417   */\n      add\n        /* \"#utility.yul\":402:417   */\n      swap1\n      pop\n        /* \"#utility.yul\":378:491   */\n      jump(tag_25)\n    tag_27:\n        /* \"#utility.yul\":525:526   */\n      0x00\n        /* \"#utility.yul\":516:522   */\n      dup5\n        /* \"#utility.yul\":511:514   */\n      dup5\n        /* \"#utility.yul\":507:523   */\n      add\n        /* \"#utility.yul\":500:527   */\n      mstore\n        /* \"#utility.yul\":349:533   */\n      pop\n        /* \"#utility.yul\":287:533   */\n      pop\n      pop\n      pop\n      jump\t// out\n        /* \"#utility.yul\":539:641   */\n    tag_19:\n        /* \"#utility.yul\":580:586   */\n      0x00\n        /* \"#utility.yul\":631:633   */\n      0x1f\n        /* \"#utility.yul\":627:634   */\n      not\n        /* \"#utility.yul\":622:624   */\n      0x1f\n        /* \"#utility.yul\":615:620   */\n      dup4\n        /* \"#utility.yul\":611:625   */\n      add\n        /* \"#utility.yul\":607:635   */\n      and\n        /* \"#utility.yul\":597:635   */\n      swap1\n      pop\n        /* \"#utility.yul\":539:641   */\n      swap2\n      swap1\n      pop\n      jump\t// out\n        /* \"#utility.yul\":647:1024   */\n    tag_20:\n        /* \"#utility.yul\":735:738   */\n      0x00\n        /* \"#utility.yul\":763:802   */\n      tag_30\n        /* \"#utility.yul\":796:801   */\n      dup3\n        /* \"#utility.yul\":763:802   */\n      tag_16\n      jump\t// in\n    tag_30:\n        /* \"#utility.yul\":818:889   */\n      tag_31\n        /* \"#utility.yul\":882:888   */\n      dup2\n        /* \"#utility.yul\":877:880   */\n      dup6\n        /* \"#utility.yul\":818:889   */\n      tag_17\n      jump\t// in\n    tag_31:\n        /* \"#utility.yul\":811:889   */\n      swap4\n      pop\n        /* \"#utility.yul\":898:963   */\n      tag_32\n        /* \"#utility.yul\":956:962   */\n      dup2\n        /* \"#utility.yul\":951:954   */\n      dup6\n        /* \"#utility.yul\":944:948   */\n      0x20\n        /* \"#utility.yul\":937:942   */\n      dup7\n        /* \"#utility.yul\":933:949   */\n      add\n        /* \"#utility.yul\":898:963   */\n      tag_18\n      jump\t// in\n    tag_32:\n        /* \"#utility.yul\":988:1017   */\n      tag_33\n        /* \"#utility.yul\":1010:1016   */\n      dup2\n        /* \"#utility.yul\":988:1017   */\n      tag_19\n      jump\t// in\n    tag_33:\n        /* \"#utility.yul\":983:986   */\n      dup5\n        /* \"#utility.yul\":979:1018   */\n      add\n        /* \"#utility.yul\":972:1018   */\n      swap2\n      pop\n        /* \"#utility.yul\":739:1024   */\n      pop\n        /* \"#utility.yul\":647:1024   */\n      swap3\n      swap2\n      pop\n      pop\n      jump\t// out\n        /* \"#utility.yul\":1030:1343   */\n    tag_13:\n        /* \"#utility.yul\":1143:1147   */\n      0x00\n        /* \"#utility.yul\":1181:1183   */\n      0x20\n        /* \"#utility.yul\":1170:1179   */\n      dup3\n        /* \"#utility.yul\":1166:1184   */\n      add\n        /* \"#utility.yul\":1158:1184   */\n      swap1\n      pop\n        /* \"#utility.yul\":1230:1239   */\n      dup2\n        /* \"#utility.yul\":1224:1228   */\n      dup2\n        /* \"#utility.yul\":1220:1240   */\n      sub\n        /* \"#utility.yul\":1216:1217   */\n      0x00\n        /* \"#utility.yul\":1205:1214   */\n      dup4\n        /* \"#utility.yul\":1201:1218   */\n      add\n        /* \"#utility.yul\":1194:1241   */\n      mstore\n        /* \"#utility.yul\":1258:1336   */\n      tag_35\n        /* \"#utility.yul\":1331:1335   */\n      dup2\n        /* \"#utility.yul\":1322:1328   */\n      dup5\n        /* \"#utility.yul\":1258:1336   */\n      tag_20\n      jump\t// in\n    tag_35:\n        /* \"#utility.yul\":1250:1336   */\n      swap1\n      pop\n        /* \"#utility.yul\":1030:1343   */\n      swap3\n      swap2\n      pop\n      pop\n      jump\t// out\n\n    auxdata: 0xa26469706673582212206ab6bbd805acdee120affd8ef07b12e34425b39c0455dfc9310d40c3e73d4e9e64736f6c63430008110033\n}\n",
				"bytecode": {
					"linkReferences": {},
					"object": "608060405234801561001057600080fd5b506100556040518060400160405280600181526020017f4f0000000000000000000000000000000000000000000000000000000000000081525061009e60201b60201c565b6100996040518060400160405280600181526020017f410000000000000000000000000000000000000000000000000000000000000081525061009e60201b60201c565b61018a565b7fcf34ef537ac33ee1ac626ca1587a0a7e8e51561e5514f8cb36afa1c5102b3bab816040516100cd9190610168565b60405180910390a150565b600081519050919050565b600082825260208201905092915050565b60005b838110156101125780820151818401526020810190506100f7565b60008484015250505050565b6000601f19601f8301169050919050565b600061013a826100d8565b61014481856100e3565b93506101548185602086016100f4565b61015d8161011e565b840191505092915050565b60006020820190508181036000830152610182818461012f565b905092915050565b6101e4806101996000396000f3fe608060405234801561001057600080fd5b506004361061002b5760003560e01c8063c298557814610030575b600080fd5b61003861003a565b005b6100786040518060400160405280600181526020017f4100000000000000000000000000000000000000000000000000000000000000815250610082565b6100806100bc565b565b7fcf34ef537ac33ee1ac626ca1587a0a7e8e51561e5514f8cb36afa1c5102b3bab816040516100b1919061018c565b60405180910390a150565b6100fa6040518060400160405280600181526020017f4f00000000000000000000000000000000000000000000000000000000000000815250610082565b565b600081519050919050565b600082825260208201905092915050565b60005b8381101561013657808201518184015260208101905061011b565b60008484015250505050565b6000601f19601f8301169050919050565b600061015e826100fc565b6101688185610107565b9350610178818560208601610118565b61018181610142565b840191505092915050565b600060208201905081810360008301526101a68184610153565b90509291505056fea26469706673582212206ab6bbd805acdee120affd8ef07b12e34425b39c0455dfc9310d40c3e73d4e9e64736f6c63430008110033",
					"opcodes": "PUSH1 0x80 PUSH1 0x40 MSTORE CALLVALUE DUP1 ISZERO PUSH2 0x10 JUMPI PUSH1 0x0 DUP1 REVERT JUMPDEST POP PUSH2 0x55 PUSH1 0x40 MLOAD DUP1 PUSH1 0x40 ADD PUSH1 0x40 MSTORE DUP1 PUSH1 0x1 DUP2 MSTORE PUSH1 0x20 ADD PUSH32 0x4F00000000000000000000000000000000000000000000000000000000000000 DUP2 MSTORE POP PUSH2 0x9E PUSH1 0x20 SHL PUSH1 0x20 SHR JUMP JUMPDEST PUSH2 0x99 PUSH1 0x40 MLOAD DUP1 PUSH1 0x40 ADD PUSH1 0x40 MSTORE DUP1 PUSH1 0x1 DUP2 MSTORE PUSH1 0x20 ADD PUSH32 0x4100000000000000000000000000000000000000000000000000000000000000 DUP2 MSTORE POP PUSH2 0x9E PUSH1 0x20 SHL PUSH1 0x20 SHR JUMP JUMPDEST PUSH2 0x18A JUMP JUMPDEST PUSH32 0xCF34EF537AC33EE1AC626CA1587A0A7E8E51561E5514F8CB36AFA1C5102B3BAB DUP2 PUSH1 0x40 MLOAD PUSH2 0xCD SWAP2 SWAP1 PUSH2 0x168 JUMP JUMPDEST PUSH1 0x40 MLOAD DUP1 SWAP2 SUB SWAP1 LOG1 POP JUMP JUMPDEST PUSH1 0x0 DUP2 MLOAD SWAP1 POP SWAP2 SWAP1 POP JUMP JUMPDEST PUSH1 0x0 DUP3 DUP3 MSTORE PUSH1 0x20 DUP3 ADD SWAP1 POP SWAP3 SWAP2 POP POP JUMP JUMPDEST PUSH1 0x0 JUMPDEST DUP4 DUP2 LT ISZERO PUSH2 0x112 JUMPI DUP1 DUP3 ADD MLOAD DUP2 DUP5 ADD MSTORE PUSH1 0x20 DUP2 ADD SWAP1 POP PUSH2 0xF7 JUMP JUMPDEST PUSH1 0x0 DUP5 DUP5 ADD MSTORE POP POP POP POP JUMP JUMPDEST PUSH1 0x0 PUSH1 0x1F NOT PUSH1 0x1F DUP4 ADD AND SWAP1 POP SWAP2 SWAP1 POP JUMP JUMPDEST PUSH1 0x0 PUSH2 0x13A DUP3 PUSH2 0xD8 JUMP JUMPDEST PUSH2 0x144 DUP2 DUP6 PUSH2 0xE3 JUMP JUMPDEST SWAP4 POP PUSH2 0x154 DUP2 DUP6 PUSH1 0x20 DUP7 ADD PUSH2 0xF4 JUMP JUMPDEST PUSH2 0x15D DUP2 PUSH2 0x11E JUMP JUMPDEST DUP5 ADD SWAP2 POP POP SWAP3 SWAP2 POP POP JUMP JUMPDEST PUSH1 0x0 PUSH1 0x20 DUP3 ADD SWAP1 POP DUP2 DUP2 SUB PUSH1 0x0 DUP4 ADD MSTORE PUSH2 0x182 DUP2 DUP5 PUSH2 0x12F JUMP JUMPDEST SWAP1 POP SWAP3 SWAP2 POP POP JUMP JUMPDEST PUSH2 0x1E4 DUP1 PUSH2 0x199 PUSH1 0x0 CODECOPY PUSH1 0x0 RETURN INVALID PUSH1 0x80 PUSH1 0x40 MSTORE CALLVALUE DUP1 ISZERO PUSH2 0x10 JUMPI PUSH1 0x0 DUP1 REVERT JUMPDEST POP PUSH1 0x4 CALLDATASIZE LT PUSH2 0x2B JUMPI PUSH1 0x0 CALLDATALOAD PUSH1 0xE0 SHR DUP1 PUSH4 0xC2985578 EQ PUSH2 0x30 JUMPI JUMPDEST PUSH1 0x0 DUP1 REVERT JUMPDEST PUSH2 0x38 PUSH2 0x3A JUMP JUMPDEST STOP JUMPDEST PUSH2 0x78 PUSH1 0x40 MLOAD DUP1 PUSH1 0x40 ADD PUSH1 0x40 MSTORE DUP1 PUSH1 0x1 DUP2 MSTORE PUSH1 0x20 ADD PUSH32 0x4100000000000000000000000000000000000000000000000000000000000000 DUP2 MSTORE POP PUSH2 0x82 JUMP JUMPDEST PUSH2 0x80 PUSH2 0xBC JUMP JUMPDEST JUMP JUMPDEST PUSH32 0xCF34EF537AC33EE1AC626CA1587A0A7E8E51561E5514F8CB36AFA1C5102B3BAB DUP2 PUSH1 0x40 MLOAD PUSH2 0xB1 SWAP2 SWAP1 PUSH2 0x18C JUMP JUMPDEST PUSH1 0x40 MLOAD DUP1 SWAP2 SUB SWAP1 LOG1 POP JUMP JUMPDEST PUSH2 0xFA PUSH1 0x40 MLOAD DUP1 PUSH1 0x40 ADD PUSH1 0x40 MSTORE DUP1 PUSH1 0x1 DUP2 MSTORE PUSH1 0x20 ADD PUSH32 0x4F00000000000000000000000000000000000000000000000000000000000000 DUP2 MSTORE POP PUSH2 0x82 JUMP JUMPDEST JUMP JUMPDEST PUSH1 0x0 DUP2 MLOAD SWAP1 POP SWAP2 SWAP1 POP JUMP JUMPDEST PUSH1 0x0 DUP3 DUP3 MSTORE PUSH1 0x20 DUP3 ADD SWAP1 POP SWAP3 SWAP2 POP POP JUMP JUMPDEST PUSH1 0x0 JUMPDEST DUP4 DUP2 LT ISZERO PUSH2 0x136 JUMPI DUP1 DUP3 ADD MLOAD DUP2 DUP5 ADD MSTORE PUSH1 0x20 DUP2 ADD SWAP1 POP PUSH2 0x11B JUMP JUMPDEST PUSH1 0x0 DUP5 DUP5 ADD MSTORE POP POP POP POP JUMP JUMPDEST PUSH1 0x0 PUSH1 0x1F NOT PUSH1 0x1F DUP4 ADD AND SWAP1 POP SWAP2 SWAP1 POP JUMP JUMPDEST PUSH1 0x0 PUSH2 0x15E DUP3 PUSH2 0xFC JUMP JUMPDEST PUSH2 0x168 DUP2 DUP6 PUSH2 0x107 JUMP JUMPDEST SWAP4 POP PUSH2 0x178 DUP2 DUP6 PUSH1 0x20 DUP7 ADD PUSH2 0x118 JUMP JUMPDEST PUSH2 0x181 DUP2 PUSH2 0x142 JUMP JUMPDEST DUP5 ADD SWAP2 POP POP SWAP3 SWAP2 POP POP JUMP JUMPDEST PUSH1 0x0 PUSH1 0x20 DUP3 ADD SWAP1 POP DUP2 DUP2 SUB PUSH1 0x0 DUP4 ADD MSTORE PUSH2 0x1A6 DUP2 DUP5 PUSH2 0x153 JUMP JUMPDEST SWAP1 POP SWAP3 SWAP2 POP POP JUMP INVALID LOG2 PUSH5 0x6970667358 0x22 SLT KECCAK256 PUSH11 0xB6BBD805ACDEE120AFFD8E CREATE PUSH28 0x12E34425B39C0455DFC9310D40C3E73D4E9E64736F6C634300081100 CALLER "
				},
				"gasEstimates": {
					"creation": {
						"codeDepositCost": "96800",
						"executionCost": "infinite",
						"totalCost": "infinite"
					},
					"external": {
						"foo()": "infinite"
					}
				},
				"methodIdentifiers": {
					"foo()": "c2985578"
				}
			},
			"storageLayout": {
				"storage": [
					{
						"astId": 25,
						"contract": "合约/test.sol:A",
						"label": "owner",
						"offset": 0,
						"slot": "0",
						"type": "t_address_payable"
					}
				],
				"types": {
					"t_address_payable": {
						"encoding": "inplace",
						"label": "address payable",
						"numberOfBytes": "20"
					}
				}
			},
			"userdoc": {
				"kind": "user",
				"methods": {},
				"version": 1
			}
		}
	}
}