{
	"合约/_07_合约_特别的函数.sol": {
		"Receiver": {
			"abi": [
				{
					"anonymous": false,
					"inputs": [
						{
							"indexed": false,
							"internalType": "address",
							"name": "",
							"type": "address"
						},
						{
							"indexed": false,
							"internalType": "uint256",
							"name": "",
							"type": "uint256"
						}
					],
					"name": "Received",
					"type": "event"
				},
				{
					"inputs": [
						{
							"internalType": "address",
							"name": "",
							"type": "address"
						}
					],
					"name": "amounts",
					"outputs": [
						{
							"internalType": "uint256",
							"name": "",
							"type": "uint256"
						}
					],
					"stateMutability": "view",
					"type": "function"
				},
				{
					"inputs": [],
					"name": "getBalance",
					"outputs": [
						{
							"internalType": "uint256",
							"name": "",
							"type": "uint256"
						}
					],
					"stateMutability": "view",
					"type": "function"
				},
				{
					"stateMutability": "payable",
					"type": "receive"
				}
			],
			"devdoc": {
				"kind": "dev",
				"methods": {},
				"version": 1
			},
			"evm": {
				"assembly": "    /* \"\\xe5\\x90\\x88\\xe7\\xba\\xa6/_07_\\xe5\\x90\\x88\\xe7\\xba\\xa6_\\xe7\\x89\\xb9\\xe5\\x88\\xab\\xe7\\x9a\\x84\\xe5\\x87\\xbd\\xe6\\x95\\xb0.sol\":1298:1976  contract Receiver {... */\n  mstore(0x40, 0x80)\n  callvalue\n  dup1\n  iszero\n  tag_1\n  jumpi\n  0x00\n  dup1\n  revert\ntag_1:\n  pop\n  dataSize(sub_0)\n  dup1\n  dataOffset(sub_0)\n  0x00\n  codecopy\n  0x00\n  return\nstop\n\nsub_0: assembly {\n        /* \"\\xe5\\x90\\x88\\xe7\\xba\\xa6/_07_\\xe5\\x90\\x88\\xe7\\xba\\xa6_\\xe7\\x89\\xb9\\xe5\\x88\\xab\\xe7\\x9a\\x84\\xe5\\x87\\xbd\\xe6\\x95\\xb0.sol\":1298:1976  contract Receiver {... */\n      mstore(0x40, 0x80)\n      jumpi(tag_1, lt(calldatasize, 0x04))\n      shr(0xe0, calldataload(0x00))\n      dup1\n      0x12065fe0\n      eq\n      tag_3\n      jumpi\n      dup1\n      0x55a3b2c1\n      eq\n      tag_4\n      jumpi\n      jump(tag_2)\n    tag_1:\n      jumpi(tag_2, calldatasize)\n        /* \"\\xe5\\x90\\x88\\xe7\\xba\\xa6/_07_\\xe5\\x90\\x88\\xe7\\xba\\xa6_\\xe7\\x89\\xb9\\xe5\\x88\\xab\\xe7\\x9a\\x84\\xe5\\x87\\xbd\\xe6\\x95\\xb0.sol\":1604:1635  Received(msg.sender, msg.value) */\n      0x88a5966d370b9919b20f3e2c13ff65706f196a4e32cc2c12bf57088f88525874\n        /* \"\\xe5\\x90\\x88\\xe7\\xba\\xa6/_07_\\xe5\\x90\\x88\\xe7\\xba\\xa6_\\xe7\\x89\\xb9\\xe5\\x88\\xab\\xe7\\x9a\\x84\\xe5\\x87\\xbd\\xe6\\x95\\xb0.sol\":1613:1623  msg.sender */\n      caller\n        /* \"\\xe5\\x90\\x88\\xe7\\xba\\xa6/_07_\\xe5\\x90\\x88\\xe7\\xba\\xa6_\\xe7\\x89\\xb9\\xe5\\x88\\xab\\xe7\\x9a\\x84\\xe5\\x87\\xbd\\xe6\\x95\\xb0.sol\":1625:1634  msg.value */\n      callvalue\n        /* \"\\xe5\\x90\\x88\\xe7\\xba\\xa6/_07_\\xe5\\x90\\x88\\xe7\\xba\\xa6_\\xe7\\x89\\xb9\\xe5\\x88\\xab\\xe7\\x9a\\x84\\xe5\\x87\\xbd\\xe6\\x95\\xb0.sol\":1604:1635  Received(msg.sender, msg.value) */\n      mload(0x40)\n      tag_7\n      swap3\n      swap2\n      swap1\n      tag_8\n      jump\t// in\n    tag_7:\n      mload(0x40)\n      dup1\n      swap2\n      sub\n      swap1\n      log1\n        /* \"\\xe5\\x90\\x88\\xe7\\xba\\xa6/_07_\\xe5\\x90\\x88\\xe7\\xba\\xa6_\\xe7\\x89\\xb9\\xe5\\x88\\xab\\xe7\\x9a\\x84\\xe5\\x87\\xbd\\xe6\\x95\\xb0.sol\":1298:1976  contract Receiver {... */\n      stop\n    tag_2:\n      0x00\n      dup1\n      revert\n        /* \"\\xe5\\x90\\x88\\xe7\\xba\\xa6/_07_\\xe5\\x90\\x88\\xe7\\xba\\xa6_\\xe7\\x89\\xb9\\xe5\\x88\\xab\\xe7\\x9a\\x84\\xe5\\x87\\xbd\\xe6\\x95\\xb0.sol\":1412:1511  function getBalance() public view returns (uint256) {... */\n    tag_3:\n      callvalue\n      dup1\n      iszero\n      tag_9\n      jumpi\n      0x00\n      dup1\n      revert\n    tag_9:\n      pop\n      tag_10\n      tag_11\n      jump\t// in\n    tag_10:\n      mload(0x40)\n      tag_12\n      swap2\n      swap1\n      tag_13\n      jump\t// in\n    tag_12:\n      mload(0x40)\n      dup1\n      swap2\n      sub\n      swap1\n      return\n        /* \"\\xe5\\x90\\x88\\xe7\\xba\\xa6/_07_\\xe5\\x90\\x88\\xe7\\xba\\xa6_\\xe7\\x89\\xb9\\xe5\\x88\\xab\\xe7\\x9a\\x84\\xe5\\x87\\xbd\\xe6\\x95\\xb0.sol\":1323:1365  mapping(address => uint256) public amounts */\n    tag_4:\n      callvalue\n      dup1\n      iszero\n      tag_14\n      jumpi\n      0x00\n      dup1\n      revert\n    tag_14:\n      pop\n      tag_15\n      0x04\n      dup1\n      calldatasize\n      sub\n      dup2\n      add\n      swap1\n      tag_16\n      swap2\n      swap1\n      tag_17\n      jump\t// in\n    tag_16:\n      tag_18\n      jump\t// in\n    tag_15:\n      mload(0x40)\n      tag_19\n      swap2\n      swap1\n      tag_13\n      jump\t// in\n    tag_19:\n      mload(0x40)\n      dup1\n      swap2\n      sub\n      swap1\n      return\n        /* \"\\xe5\\x90\\x88\\xe7\\xba\\xa6/_07_\\xe5\\x90\\x88\\xe7\\xba\\xa6_\\xe7\\x89\\xb9\\xe5\\x88\\xab\\xe7\\x9a\\x84\\xe5\\x87\\xbd\\xe6\\x95\\xb0.sol\":1412:1511  function getBalance() public view returns (uint256) {... */\n    tag_11:\n        /* \"\\xe5\\x90\\x88\\xe7\\xba\\xa6/_07_\\xe5\\x90\\x88\\xe7\\xba\\xa6_\\xe7\\x89\\xb9\\xe5\\x88\\xab\\xe7\\x9a\\x84\\xe5\\x87\\xbd\\xe6\\x95\\xb0.sol\":1455:1462  uint256 */\n      0x00\n        /* \"\\xe5\\x90\\x88\\xe7\\xba\\xa6/_07_\\xe5\\x90\\x88\\xe7\\xba\\xa6_\\xe7\\x89\\xb9\\xe5\\x88\\xab\\xe7\\x9a\\x84\\xe5\\x87\\xbd\\xe6\\x95\\xb0.sol\":1482:1503  address(this).balance */\n      selfbalance\n        /* \"\\xe5\\x90\\x88\\xe7\\xba\\xa6/_07_\\xe5\\x90\\x88\\xe7\\xba\\xa6_\\xe7\\x89\\xb9\\xe5\\x88\\xab\\xe7\\x9a\\x84\\xe5\\x87\\xbd\\xe6\\x95\\xb0.sol\":1475:1503  return address(this).balance */\n      swap1\n      pop\n        /* \"\\xe5\\x90\\x88\\xe7\\xba\\xa6/_07_\\xe5\\x90\\x88\\xe7\\xba\\xa6_\\xe7\\x89\\xb9\\xe5\\x88\\xab\\xe7\\x9a\\x84\\xe5\\x87\\xbd\\xe6\\x95\\xb0.sol\":1412:1511  function getBalance() public view returns (uint256) {... */\n      swap1\n      jump\t// out\n        /* \"\\xe5\\x90\\x88\\xe7\\xba\\xa6/_07_\\xe5\\x90\\x88\\xe7\\xba\\xa6_\\xe7\\x89\\xb9\\xe5\\x88\\xab\\xe7\\x9a\\x84\\xe5\\x87\\xbd\\xe6\\x95\\xb0.sol\":1323:1365  mapping(address => uint256) public amounts */\n    tag_18:\n      mstore(0x20, 0x00)\n      dup1\n      0x00\n      mstore\n      keccak256(0x00, 0x40)\n      0x00\n      swap2\n      pop\n      swap1\n      pop\n      sload\n      dup2\n      jump\t// out\n        /* \"#utility.yul\":7:133   */\n    tag_21:\n        /* \"#utility.yul\":44:51   */\n      0x00\n        /* \"#utility.yul\":84:126   */\n      0xffffffffffffffffffffffffffffffffffffffff\n        /* \"#utility.yul\":77:82   */\n      dup3\n        /* \"#utility.yul\":73:127   */\n      and\n        /* \"#utility.yul\":62:127   */\n      swap1\n      pop\n        /* \"#utility.yul\":7:133   */\n      swap2\n      swap1\n      pop\n      jump\t// out\n        /* \"#utility.yul\":139:235   */\n    tag_22:\n        /* \"#utility.yul\":176:183   */\n      0x00\n        /* \"#utility.yul\":205:229   */\n      tag_34\n        /* \"#utility.yul\":223:228   */\n      dup3\n        /* \"#utility.yul\":205:229   */\n      tag_21\n      jump\t// in\n    tag_34:\n        /* \"#utility.yul\":194:229   */\n      swap1\n      pop\n        /* \"#utility.yul\":139:235   */\n      swap2\n      swap1\n      pop\n      jump\t// out\n        /* \"#utility.yul\":241:359   */\n    tag_23:\n        /* \"#utility.yul\":328:352   */\n      tag_36\n        /* \"#utility.yul\":346:351   */\n      dup2\n        /* \"#utility.yul\":328:352   */\n      tag_22\n      jump\t// in\n    tag_36:\n        /* \"#utility.yul\":323:326   */\n      dup3\n        /* \"#utility.yul\":316:353   */\n      mstore\n        /* \"#utility.yul\":241:359   */\n      pop\n      pop\n      jump\t// out\n        /* \"#utility.yul\":365:442   */\n    tag_24:\n        /* \"#utility.yul\":402:409   */\n      0x00\n        /* \"#utility.yul\":431:436   */\n      dup2\n        /* \"#utility.yul\":420:436   */\n      swap1\n      pop\n        /* \"#utility.yul\":365:442   */\n      swap2\n      swap1\n      pop\n      jump\t// out\n        /* \"#utility.yul\":448:566   */\n    tag_25:\n        /* \"#utility.yul\":535:559   */\n      tag_39\n        /* \"#utility.yul\":553:558   */\n      dup2\n        /* \"#utility.yul\":535:559   */\n      tag_24\n      jump\t// in\n    tag_39:\n        /* \"#utility.yul\":530:533   */\n      dup3\n        /* \"#utility.yul\":523:560   */\n      mstore\n        /* \"#utility.yul\":448:566   */\n      pop\n      pop\n      jump\t// out\n        /* \"#utility.yul\":572:904   */\n    tag_8:\n        /* \"#utility.yul\":693:697   */\n      0x00\n        /* \"#utility.yul\":731:733   */\n      0x40\n        /* \"#utility.yul\":720:729   */\n      dup3\n        /* \"#utility.yul\":716:734   */\n      add\n        /* \"#utility.yul\":708:734   */\n      swap1\n      pop\n        /* \"#utility.yul\":744:815   */\n      tag_41\n        /* \"#utility.yul\":812:813   */\n      0x00\n        /* \"#utility.yul\":801:810   */\n      dup4\n        /* \"#utility.yul\":797:814   */\n      add\n        /* \"#utility.yul\":788:794   */\n      dup6\n        /* \"#utility.yul\":744:815   */\n      tag_23\n      jump\t// in\n    tag_41:\n        /* \"#utility.yul\":825:897   */\n      tag_42\n        /* \"#utility.yul\":893:895   */\n      0x20\n        /* \"#utility.yul\":882:891   */\n      dup4\n        /* \"#utility.yul\":878:896   */\n      add\n        /* \"#utility.yul\":869:875   */\n      dup5\n        /* \"#utility.yul\":825:897   */\n      tag_25\n      jump\t// in\n    tag_42:\n        /* \"#utility.yul\":572:904   */\n      swap4\n      swap3\n      pop\n      pop\n      pop\n      jump\t// out\n        /* \"#utility.yul\":910:1132   */\n    tag_13:\n        /* \"#utility.yul\":1003:1007   */\n      0x00\n        /* \"#utility.yul\":1041:1043   */\n      0x20\n        /* \"#utility.yul\":1030:1039   */\n      dup3\n        /* \"#utility.yul\":1026:1044   */\n      add\n        /* \"#utility.yul\":1018:1044   */\n      swap1\n      pop\n        /* \"#utility.yul\":1054:1125   */\n      tag_44\n        /* \"#utility.yul\":1122:1123   */\n      0x00\n        /* \"#utility.yul\":1111:1120   */\n      dup4\n        /* \"#utility.yul\":1107:1124   */\n      add\n        /* \"#utility.yul\":1098:1104   */\n      dup5\n        /* \"#utility.yul\":1054:1125   */\n      tag_25\n      jump\t// in\n    tag_44:\n        /* \"#utility.yul\":910:1132   */\n      swap3\n      swap2\n      pop\n      pop\n      jump\t// out\n        /* \"#utility.yul\":1219:1336   */\n    tag_27:\n        /* \"#utility.yul\":1328:1329   */\n      0x00\n        /* \"#utility.yul\":1325:1326   */\n      dup1\n        /* \"#utility.yul\":1318:1330   */\n      revert\n        /* \"#utility.yul\":1465:1587   */\n    tag_29:\n        /* \"#utility.yul\":1538:1562   */\n      tag_49\n        /* \"#utility.yul\":1556:1561   */\n      dup2\n        /* \"#utility.yul\":1538:1562   */\n      tag_22\n      jump\t// in\n    tag_49:\n        /* \"#utility.yul\":1531:1536   */\n      dup2\n        /* \"#utility.yul\":1528:1563   */\n      eq\n        /* \"#utility.yul\":1518:1581   */\n      tag_50\n      jumpi\n        /* \"#utility.yul\":1577:1578   */\n      0x00\n        /* \"#utility.yul\":1574:1575   */\n      dup1\n        /* \"#utility.yul\":1567:1579   */\n      revert\n        /* \"#utility.yul\":1518:1581   */\n    tag_50:\n        /* \"#utility.yul\":1465:1587   */\n      pop\n      jump\t// out\n        /* \"#utility.yul\":1593:1732   */\n    tag_30:\n        /* \"#utility.yul\":1639:1644   */\n      0x00\n        /* \"#utility.yul\":1677:1683   */\n      dup2\n        /* \"#utility.yul\":1664:1684   */\n      calldataload\n        /* \"#utility.yul\":1655:1684   */\n      swap1\n      pop\n        /* \"#utility.yul\":1693:1726   */\n      tag_52\n        /* \"#utility.yul\":1720:1725   */\n      dup2\n        /* \"#utility.yul\":1693:1726   */\n      tag_29\n      jump\t// in\n    tag_52:\n        /* \"#utility.yul\":1593:1732   */\n      swap3\n      swap2\n      pop\n      pop\n      jump\t// out\n        /* \"#utility.yul\":1738:2067   */\n    tag_17:\n        /* \"#utility.yul\":1797:1803   */\n      0x00\n        /* \"#utility.yul\":1846:1848   */\n      0x20\n        /* \"#utility.yul\":1834:1843   */\n      dup3\n        /* \"#utility.yul\":1825:1832   */\n      dup5\n        /* \"#utility.yul\":1821:1844   */\n      sub\n        /* \"#utility.yul\":1817:1849   */\n      slt\n        /* \"#utility.yul\":1814:1933   */\n      iszero\n      tag_54\n      jumpi\n        /* \"#utility.yul\":1852:1931   */\n      tag_55\n      tag_27\n      jump\t// in\n    tag_55:\n        /* \"#utility.yul\":1814:1933   */\n    tag_54:\n        /* \"#utility.yul\":1972:1973   */\n      0x00\n        /* \"#utility.yul\":1997:2050   */\n      tag_56\n        /* \"#utility.yul\":2042:2049   */\n      dup5\n        /* \"#utility.yul\":2033:2039   */\n      dup3\n        /* \"#utility.yul\":2022:2031   */\n      dup6\n        /* \"#utility.yul\":2018:2040   */\n      add\n        /* \"#utility.yul\":1997:2050   */\n      tag_30\n      jump\t// in\n    tag_56:\n        /* \"#utility.yul\":1987:2050   */\n      swap2\n      pop\n        /* \"#utility.yul\":1943:2060   */\n      pop\n        /* \"#utility.yul\":1738:2067   */\n      swap3\n      swap2\n      pop\n      pop\n      jump\t// out\n\n    auxdata: 0xa2646970667358221220503592602c602fdecca2c51b82160b93777a09aa5b487f0285299ea449b1512f64736f6c63430008110033\n}\n",
				"bytecode": {
					"linkReferences": {},
					"object": "608060405234801561001057600080fd5b5061022c806100206000396000f3fe60806040526004361061002d5760003560e01c806312065fe01461007257806355a3b2c11461009d5761006d565b3661006d577f88a5966d370b9919b20f3e2c13ff65706f196a4e32cc2c12bf57088f885258743334604051610063929190610154565b60405180910390a1005b600080fd5b34801561007e57600080fd5b506100876100da565b604051610094919061017d565b60405180910390f35b3480156100a957600080fd5b506100c460048036038101906100bf91906101c9565b6100e2565b6040516100d1919061017d565b60405180910390f35b600047905090565b60006020528060005260406000206000915090505481565b600073ffffffffffffffffffffffffffffffffffffffff82169050919050565b6000610125826100fa565b9050919050565b6101358161011a565b82525050565b6000819050919050565b61014e8161013b565b82525050565b6000604082019050610169600083018561012c565b6101766020830184610145565b9392505050565b60006020820190506101926000830184610145565b92915050565b600080fd5b6101a68161011a565b81146101b157600080fd5b50565b6000813590506101c38161019d565b92915050565b6000602082840312156101df576101de610198565b5b60006101ed848285016101b4565b9150509291505056fea2646970667358221220503592602c602fdecca2c51b82160b93777a09aa5b487f0285299ea449b1512f64736f6c63430008110033",
					"opcodes": "PUSH1 0x80 PUSH1 0x40 MSTORE CALLVALUE DUP1 ISZERO PUSH2 0x10 JUMPI PUSH1 0x0 DUP1 REVERT JUMPDEST POP PUSH2 0x22C DUP1 PUSH2 0x20 PUSH1 0x0 CODECOPY PUSH1 0x0 RETURN INVALID PUSH1 0x80 PUSH1 0x40 MSTORE PUSH1 0x4 CALLDATASIZE LT PUSH2 0x2D JUMPI PUSH1 0x0 CALLDATALOAD PUSH1 0xE0 SHR DUP1 PUSH4 0x12065FE0 EQ PUSH2 0x72 JUMPI DUP1 PUSH4 0x55A3B2C1 EQ PUSH2 0x9D JUMPI PUSH2 0x6D JUMP JUMPDEST CALLDATASIZE PUSH2 0x6D JUMPI PUSH32 0x88A5966D370B9919B20F3E2C13FF65706F196A4E32CC2C12BF57088F88525874 CALLER CALLVALUE PUSH1 0x40 MLOAD PUSH2 0x63 SWAP3 SWAP2 SWAP1 PUSH2 0x154 JUMP JUMPDEST PUSH1 0x40 MLOAD DUP1 SWAP2 SUB SWAP1 LOG1 STOP JUMPDEST PUSH1 0x0 DUP1 REVERT JUMPDEST CALLVALUE DUP1 ISZERO PUSH2 0x7E JUMPI PUSH1 0x0 DUP1 REVERT JUMPDEST POP PUSH2 0x87 PUSH2 0xDA JUMP JUMPDEST PUSH1 0x40 MLOAD PUSH2 0x94 SWAP2 SWAP1 PUSH2 0x17D JUMP JUMPDEST PUSH1 0x40 MLOAD DUP1 SWAP2 SUB SWAP1 RETURN JUMPDEST CALLVALUE DUP1 ISZERO PUSH2 0xA9 JUMPI PUSH1 0x0 DUP1 REVERT JUMPDEST POP PUSH2 0xC4 PUSH1 0x4 DUP1 CALLDATASIZE SUB DUP2 ADD SWAP1 PUSH2 0xBF SWAP2 SWAP1 PUSH2 0x1C9 JUMP JUMPDEST PUSH2 0xE2 JUMP JUMPDEST PUSH1 0x40 MLOAD PUSH2 0xD1 SWAP2 SWAP1 PUSH2 0x17D JUMP JUMPDEST PUSH1 0x40 MLOAD DUP1 SWAP2 SUB SWAP1 RETURN JUMPDEST PUSH1 0x0 SELFBALANCE SWAP1 POP SWAP1 JUMP JUMPDEST PUSH1 0x0 PUSH1 0x20 MSTORE DUP1 PUSH1 0x0 MSTORE PUSH1 0x40 PUSH1 0x0 KECCAK256 PUSH1 0x0 SWAP2 POP SWAP1 POP SLOAD DUP2 JUMP JUMPDEST PUSH1 0x0 PUSH20 0xFFFFFFFFFFFFFFFFFFFFFFFFFFFFFFFFFFFFFFFF DUP3 AND SWAP1 POP SWAP2 SWAP1 POP JUMP JUMPDEST PUSH1 0x0 PUSH2 0x125 DUP3 PUSH2 0xFA JUMP JUMPDEST SWAP1 POP SWAP2 SWAP1 POP JUMP JUMPDEST PUSH2 0x135 DUP2 PUSH2 0x11A JUMP JUMPDEST DUP3 MSTORE POP POP JUMP JUMPDEST PUSH1 0x0 DUP2 SWAP1 POP SWAP2 SWAP1 POP JUMP JUMPDEST PUSH2 0x14E DUP2 PUSH2 0x13B JUMP JUMPDEST DUP3 MSTORE POP POP JUMP JUMPDEST PUSH1 0x0 PUSH1 0x40 DUP3 ADD SWAP1 POP PUSH2 0x169 PUSH1 0x0 DUP4 ADD DUP6 PUSH2 0x12C JUMP JUMPDEST PUSH2 0x176 PUSH1 0x20 DUP4 ADD DUP5 PUSH2 0x145 JUMP JUMPDEST SWAP4 SWAP3 POP POP POP JUMP JUMPDEST PUSH1 0x0 PUSH1 0x20 DUP3 ADD SWAP1 POP PUSH2 0x192 PUSH1 0x0 DUP4 ADD DUP5 PUSH2 0x145 JUMP JUMPDEST SWAP3 SWAP2 POP POP JUMP JUMPDEST PUSH1 0x0 DUP1 REVERT JUMPDEST PUSH2 0x1A6 DUP2 PUSH2 0x11A JUMP JUMPDEST DUP2 EQ PUSH2 0x1B1 JUMPI PUSH1 0x0 DUP1 REVERT JUMPDEST POP JUMP JUMPDEST PUSH1 0x0 DUP2 CALLDATALOAD SWAP1 POP PUSH2 0x1C3 DUP2 PUSH2 0x19D JUMP JUMPDEST SWAP3 SWAP2 POP POP JUMP JUMPDEST PUSH1 0x0 PUSH1 0x20 DUP3 DUP5 SUB SLT ISZERO PUSH2 0x1DF JUMPI PUSH2 0x1DE PUSH2 0x198 JUMP JUMPDEST JUMPDEST PUSH1 0x0 PUSH2 0x1ED DUP5 DUP3 DUP6 ADD PUSH2 0x1B4 JUMP JUMPDEST SWAP2 POP POP SWAP3 SWAP2 POP POP JUMP INVALID LOG2 PUSH5 0x6970667358 0x22 SLT KECCAK256 POP CALLDATALOAD SWAP3 PUSH1 0x2C PUSH1 0x2F 0xDE 0xCC LOG2 0xC5 SHL DUP3 AND SIGNEXTEND SWAP4 PUSH24 0x7A09AA5B487F0285299EA449B1512F64736F6C6343000811 STOP CALLER "
				},
				"gasEstimates": {
					"creation": {
						"codeDepositCost": "111200",
						"executionCost": "159",
						"totalCost": "111359"
					},
					"external": {
						"amounts(address)": "2814",
						"getBalance()": "317"
					}
				},
				"methodIdentifiers": {
					"amounts(address)": "55a3b2c1",
					"getBalance()": "12065fe0"
				}
			},
			"storageLayout": {
				"storage": [
					{
						"astId": 6,
						"contract": "合约/_07_合约_特别的函数.sol:Receiver",
						"label": "amounts",
						"offset": 0,
						"slot": "0",
						"type": "t_mapping(t_address,t_uint256)"
					}
				],
				"types": {
					"t_address": {
						"encoding": "inplace",
						"label": "address",
						"numberOfBytes": "20"
					},
					"t_mapping(t_address,t_uint256)": {
						"encoding": "mapping",
						"key": "t_address",
						"label": "mapping(address => uint256)",
						"numberOfBytes": "32",
						"value": "t_uint256"
					},
					"t_uint256": {
						"encoding": "inplace",
						"label": "uint256",
						"numberOfBytes": "32"
					}
				}
			},
			"userdoc": {
				"kind": "user",
				"methods": {},
				"notice": "receive接收以太: 一个合约最多有一个 receive 函数, 声明函数为： receive() external payable { ... } 可以是virtual, 可以被重载, 也可以有修改器 在对合约没有任何附加数据调用（通常是对合约转账）是会执行 receive 函数．　例如　通过 .send() or .transfer() or address{value: 100}.call(\"\") 如果 receive 函数不存在，就会调用payable的fallback回退函数 如果两个函数都没有，这个合约就没法通过常规的转账交易接收以太（会抛出异常） fallback回退函数: 合约可以最多有一个回退函数。函数声明为：  fallback () external [payable] fallback (bytes calldata input) external [payable] returns (bytes memory output) 可以是virtual的, 可以被重载, 可以有修改器 如果其他合约对当前合约的调用中, 没有函数与给定的函数标识符匹配, fallback会被调用 或者当其他合约向当前合约发送以太, 而当前合约没有receive函数时, 会调用payable的fallback函数 ",
				"version": 1
			}
		}
	}
}