{
	"合约/_07_合约_特别的函数.sol": {
		"Sender": {
			"abi": [
				{
					"stateMutability": "payable",
					"type": "fallback"
				},
				{
					"inputs": [],
					"name": "getBalance",
					"outputs": [
						{
							"internalType": "uint256",
							"name": "",
							"type": "uint256"
						}
					],
					"stateMutability": "view",
					"type": "function"
				},
				{
					"inputs": [
						{
							"internalType": "address payable",
							"name": "addr",
							"type": "address"
						},
						{
							"internalType": "uint256",
							"name": "amount",
							"type": "uint256"
						}
					],
					"name": "send",
					"outputs": [],
					"stateMutability": "nonpayable",
					"type": "function"
				},
				{
					"stateMutability": "payable",
					"type": "receive"
				}
			],
			"devdoc": {
				"kind": "dev",
				"methods": {},
				"version": 1
			},
			"evm": {
				"assembly": "    /* \"\\xe5\\x90\\x88\\xe7\\xba\\xa6/_07_\\xe5\\x90\\x88\\xe7\\xba\\xa6_\\xe7\\x89\\xb9\\xe5\\x88\\xab\\xe7\\x9a\\x84\\xe5\\x87\\xbd\\xe6\\x95\\xb0.sol\":1980:2317  contract Sender {... */\n  mstore(0x40, 0x80)\n  callvalue\n  dup1\n  iszero\n  tag_1\n  jumpi\n  0x00\n  dup1\n  revert\ntag_1:\n  pop\n  dataSize(sub_0)\n  dup1\n  dataOffset(sub_0)\n  0x00\n  codecopy\n  0x00\n  return\nstop\n\nsub_0: assembly {\n        /* \"\\xe5\\x90\\x88\\xe7\\xba\\xa6/_07_\\xe5\\x90\\x88\\xe7\\xba\\xa6_\\xe7\\x89\\xb9\\xe5\\x88\\xab\\xe7\\x9a\\x84\\xe5\\x87\\xbd\\xe6\\x95\\xb0.sol\":1980:2317  contract Sender {... */\n      mstore(0x40, 0x80)\n      jumpi(tag_1, lt(calldatasize, 0x04))\n      shr(0xe0, calldataload(0x00))\n      dup1\n      0x12065fe0\n      eq\n      tag_3\n      jumpi\n      dup1\n      0xd0679d34\n      eq\n      tag_4\n      jumpi\n      jump(tag_2)\n    tag_1:\n      jumpi(tag_2, calldatasize)\n      stop\n    tag_2:\n      stop\n        /* \"\\xe5\\x90\\x88\\xe7\\xba\\xa6/_07_\\xe5\\x90\\x88\\xe7\\xba\\xa6_\\xe7\\x89\\xb9\\xe5\\x88\\xab\\xe7\\x9a\\x84\\xe5\\x87\\xbd\\xe6\\x95\\xb0.sol\":2003:2102  function getBalance() public view returns (uint256) {... */\n    tag_3:\n      callvalue\n      dup1\n      iszero\n      tag_9\n      jumpi\n      0x00\n      dup1\n      revert\n    tag_9:\n      pop\n      tag_10\n      tag_11\n      jump\t// in\n    tag_10:\n      mload(0x40)\n      tag_12\n      swap2\n      swap1\n      tag_13\n      jump\t// in\n    tag_12:\n      mload(0x40)\n      dup1\n      swap2\n      sub\n      swap1\n      return\n        /* \"\\xe5\\x90\\x88\\xe7\\xba\\xa6/_07_\\xe5\\x90\\x88\\xe7\\xba\\xa6_\\xe7\\x89\\xb9\\xe5\\x88\\xab\\xe7\\x9a\\x84\\xe5\\x87\\xbd\\xe6\\x95\\xb0.sol\":2110:2239  function send(address payable addr, uint256 amount) public{... */\n    tag_4:\n      callvalue\n      dup1\n      iszero\n      tag_14\n      jumpi\n      0x00\n      dup1\n      revert\n    tag_14:\n      pop\n      tag_15\n      0x04\n      dup1\n      calldatasize\n      sub\n      dup2\n      add\n      swap1\n      tag_16\n      swap2\n      swap1\n      tag_17\n      jump\t// in\n    tag_16:\n      tag_18\n      jump\t// in\n    tag_15:\n      stop\n        /* \"\\xe5\\x90\\x88\\xe7\\xba\\xa6/_07_\\xe5\\x90\\x88\\xe7\\xba\\xa6_\\xe7\\x89\\xb9\\xe5\\x88\\xab\\xe7\\x9a\\x84\\xe5\\x87\\xbd\\xe6\\x95\\xb0.sol\":2003:2102  function getBalance() public view returns (uint256) {... */\n    tag_11:\n        /* \"\\xe5\\x90\\x88\\xe7\\xba\\xa6/_07_\\xe5\\x90\\x88\\xe7\\xba\\xa6_\\xe7\\x89\\xb9\\xe5\\x88\\xab\\xe7\\x9a\\x84\\xe5\\x87\\xbd\\xe6\\x95\\xb0.sol\":2046:2053  uint256 */\n      0x00\n        /* \"\\xe5\\x90\\x88\\xe7\\xba\\xa6/_07_\\xe5\\x90\\x88\\xe7\\xba\\xa6_\\xe7\\x89\\xb9\\xe5\\x88\\xab\\xe7\\x9a\\x84\\xe5\\x87\\xbd\\xe6\\x95\\xb0.sol\":2073:2094  address(this).balance */\n      selfbalance\n        /* \"\\xe5\\x90\\x88\\xe7\\xba\\xa6/_07_\\xe5\\x90\\x88\\xe7\\xba\\xa6_\\xe7\\x89\\xb9\\xe5\\x88\\xab\\xe7\\x9a\\x84\\xe5\\x87\\xbd\\xe6\\x95\\xb0.sol\":2066:2094  return address(this).balance */\n      swap1\n      pop\n        /* \"\\xe5\\x90\\x88\\xe7\\xba\\xa6/_07_\\xe5\\x90\\x88\\xe7\\xba\\xa6_\\xe7\\x89\\xb9\\xe5\\x88\\xab\\xe7\\x9a\\x84\\xe5\\x87\\xbd\\xe6\\x95\\xb0.sol\":2003:2102  function getBalance() public view returns (uint256) {... */\n      swap1\n      jump\t// out\n        /* \"\\xe5\\x90\\x88\\xe7\\xba\\xa6/_07_\\xe5\\x90\\x88\\xe7\\xba\\xa6_\\xe7\\x89\\xb9\\xe5\\x88\\xab\\xe7\\x9a\\x84\\xe5\\x87\\xbd\\xe6\\x95\\xb0.sol\":2110:2239  function send(address payable addr, uint256 amount) public{... */\n    tag_18:\n        /* \"\\xe5\\x90\\x88\\xe7\\xba\\xa6/_07_\\xe5\\x90\\x88\\xe7\\xba\\xa6_\\xe7\\x89\\xb9\\xe5\\x88\\xab\\xe7\\x9a\\x84\\xe5\\x87\\xbd\\xe6\\x95\\xb0.sol\":2179:2183  addr */\n      dup2\n        /* \"\\xe5\\x90\\x88\\xe7\\xba\\xa6/_07_\\xe5\\x90\\x88\\xe7\\xba\\xa6_\\xe7\\x89\\xb9\\xe5\\x88\\xab\\xe7\\x9a\\x84\\xe5\\x87\\xbd\\xe6\\x95\\xb0.sol\":2179:2192  addr.transfer */\n      0xffffffffffffffffffffffffffffffffffffffff\n      and\n        /* \"\\xe5\\x90\\x88\\xe7\\xba\\xa6/_07_\\xe5\\x90\\x88\\xe7\\xba\\xa6_\\xe7\\x89\\xb9\\xe5\\x88\\xab\\xe7\\x9a\\x84\\xe5\\x87\\xbd\\xe6\\x95\\xb0.sol\":2179:2200  addr.transfer(amount) */\n      0x08fc\n        /* \"\\xe5\\x90\\x88\\xe7\\xba\\xa6/_07_\\xe5\\x90\\x88\\xe7\\xba\\xa6_\\xe7\\x89\\xb9\\xe5\\x88\\xab\\xe7\\x9a\\x84\\xe5\\x87\\xbd\\xe6\\x95\\xb0.sol\":2193:2199  amount */\n      dup3\n        /* \"\\xe5\\x90\\x88\\xe7\\xba\\xa6/_07_\\xe5\\x90\\x88\\xe7\\xba\\xa6_\\xe7\\x89\\xb9\\xe5\\x88\\xab\\xe7\\x9a\\x84\\xe5\\x87\\xbd\\xe6\\x95\\xb0.sol\":2179:2200  addr.transfer(amount) */\n      swap1\n      dup2\n      iszero\n      mul\n      swap1\n      mload(0x40)\n      0x00\n      mload(0x40)\n      dup1\n      dup4\n      sub\n      dup2\n      dup6\n      dup9\n      dup9\n      call\n      swap4\n      pop\n      pop\n      pop\n      pop\n      iszero\n      dup1\n      iszero\n      tag_22\n      jumpi\n      returndatasize\n      0x00\n      dup1\n      returndatacopy\n      revert(0x00, returndatasize)\n    tag_22:\n      pop\n        /* \"\\xe5\\x90\\x88\\xe7\\xba\\xa6/_07_\\xe5\\x90\\x88\\xe7\\xba\\xa6_\\xe7\\x89\\xb9\\xe5\\x88\\xab\\xe7\\x9a\\x84\\xe5\\x87\\xbd\\xe6\\x95\\xb0.sol\":2110:2239  function send(address payable addr, uint256 amount) public{... */\n      pop\n      pop\n      jump\t// out\n        /* \"#utility.yul\":7:84   */\n    tag_23:\n        /* \"#utility.yul\":44:51   */\n      0x00\n        /* \"#utility.yul\":73:78   */\n      dup2\n        /* \"#utility.yul\":62:78   */\n      swap1\n      pop\n        /* \"#utility.yul\":7:84   */\n      swap2\n      swap1\n      pop\n      jump\t// out\n        /* \"#utility.yul\":90:208   */\n    tag_24:\n        /* \"#utility.yul\":177:201   */\n      tag_37\n        /* \"#utility.yul\":195:200   */\n      dup2\n        /* \"#utility.yul\":177:201   */\n      tag_23\n      jump\t// in\n    tag_37:\n        /* \"#utility.yul\":172:175   */\n      dup3\n        /* \"#utility.yul\":165:202   */\n      mstore\n        /* \"#utility.yul\":90:208   */\n      pop\n      pop\n      jump\t// out\n        /* \"#utility.yul\":214:436   */\n    tag_13:\n        /* \"#utility.yul\":307:311   */\n      0x00\n        /* \"#utility.yul\":345:347   */\n      0x20\n        /* \"#utility.yul\":334:343   */\n      dup3\n        /* \"#utility.yul\":330:348   */\n      add\n        /* \"#utility.yul\":322:348   */\n      swap1\n      pop\n        /* \"#utility.yul\":358:429   */\n      tag_39\n        /* \"#utility.yul\":426:427   */\n      0x00\n        /* \"#utility.yul\":415:424   */\n      dup4\n        /* \"#utility.yul\":411:428   */\n      add\n        /* \"#utility.yul\":402:408   */\n      dup5\n        /* \"#utility.yul\":358:429   */\n      tag_24\n      jump\t// in\n    tag_39:\n        /* \"#utility.yul\":214:436   */\n      swap3\n      swap2\n      pop\n      pop\n      jump\t// out\n        /* \"#utility.yul\":523:640   */\n    tag_26:\n        /* \"#utility.yul\":632:633   */\n      0x00\n        /* \"#utility.yul\":629:630   */\n      dup1\n        /* \"#utility.yul\":622:634   */\n      revert\n        /* \"#utility.yul\":769:895   */\n    tag_28:\n        /* \"#utility.yul\":806:813   */\n      0x00\n        /* \"#utility.yul\":846:888   */\n      0xffffffffffffffffffffffffffffffffffffffff\n        /* \"#utility.yul\":839:844   */\n      dup3\n        /* \"#utility.yul\":835:889   */\n      and\n        /* \"#utility.yul\":824:889   */\n      swap1\n      pop\n        /* \"#utility.yul\":769:895   */\n      swap2\n      swap1\n      pop\n      jump\t// out\n        /* \"#utility.yul\":901:1005   */\n    tag_29:\n        /* \"#utility.yul\":946:953   */\n      0x00\n        /* \"#utility.yul\":975:999   */\n      tag_45\n        /* \"#utility.yul\":993:998   */\n      dup3\n        /* \"#utility.yul\":975:999   */\n      tag_28\n      jump\t// in\n    tag_45:\n        /* \"#utility.yul\":964:999   */\n      swap1\n      pop\n        /* \"#utility.yul\":901:1005   */\n      swap2\n      swap1\n      pop\n      jump\t// out\n        /* \"#utility.yul\":1011:1149   */\n    tag_30:\n        /* \"#utility.yul\":1092:1124   */\n      tag_47\n        /* \"#utility.yul\":1118:1123   */\n      dup2\n        /* \"#utility.yul\":1092:1124   */\n      tag_29\n      jump\t// in\n    tag_47:\n        /* \"#utility.yul\":1085:1090   */\n      dup2\n        /* \"#utility.yul\":1082:1125   */\n      eq\n        /* \"#utility.yul\":1072:1143   */\n      tag_48\n      jumpi\n        /* \"#utility.yul\":1139:1140   */\n      0x00\n        /* \"#utility.yul\":1136:1137   */\n      dup1\n        /* \"#utility.yul\":1129:1141   */\n      revert\n        /* \"#utility.yul\":1072:1143   */\n    tag_48:\n        /* \"#utility.yul\":1011:1149   */\n      pop\n      jump\t// out\n        /* \"#utility.yul\":1155:1310   */\n    tag_31:\n        /* \"#utility.yul\":1209:1214   */\n      0x00\n        /* \"#utility.yul\":1247:1253   */\n      dup2\n        /* \"#utility.yul\":1234:1254   */\n      calldataload\n        /* \"#utility.yul\":1225:1254   */\n      swap1\n      pop\n        /* \"#utility.yul\":1263:1304   */\n      tag_50\n        /* \"#utility.yul\":1298:1303   */\n      dup2\n        /* \"#utility.yul\":1263:1304   */\n      tag_30\n      jump\t// in\n    tag_50:\n        /* \"#utility.yul\":1155:1310   */\n      swap3\n      swap2\n      pop\n      pop\n      jump\t// out\n        /* \"#utility.yul\":1316:1438   */\n    tag_32:\n        /* \"#utility.yul\":1389:1413   */\n      tag_52\n        /* \"#utility.yul\":1407:1412   */\n      dup2\n        /* \"#utility.yul\":1389:1413   */\n      tag_23\n      jump\t// in\n    tag_52:\n        /* \"#utility.yul\":1382:1387   */\n      dup2\n        /* \"#utility.yul\":1379:1414   */\n      eq\n        /* \"#utility.yul\":1369:1432   */\n      tag_53\n      jumpi\n        /* \"#utility.yul\":1428:1429   */\n      0x00\n        /* \"#utility.yul\":1425:1426   */\n      dup1\n        /* \"#utility.yul\":1418:1430   */\n      revert\n        /* \"#utility.yul\":1369:1432   */\n    tag_53:\n        /* \"#utility.yul\":1316:1438   */\n      pop\n      jump\t// out\n        /* \"#utility.yul\":1444:1583   */\n    tag_33:\n        /* \"#utility.yul\":1490:1495   */\n      0x00\n        /* \"#utility.yul\":1528:1534   */\n      dup2\n        /* \"#utility.yul\":1515:1535   */\n      calldataload\n        /* \"#utility.yul\":1506:1535   */\n      swap1\n      pop\n        /* \"#utility.yul\":1544:1577   */\n      tag_55\n        /* \"#utility.yul\":1571:1576   */\n      dup2\n        /* \"#utility.yul\":1544:1577   */\n      tag_32\n      jump\t// in\n    tag_55:\n        /* \"#utility.yul\":1444:1583   */\n      swap3\n      swap2\n      pop\n      pop\n      jump\t// out\n        /* \"#utility.yul\":1589:2079   */\n    tag_17:\n        /* \"#utility.yul\":1665:1671   */\n      0x00\n        /* \"#utility.yul\":1673:1679   */\n      dup1\n        /* \"#utility.yul\":1722:1724   */\n      0x40\n        /* \"#utility.yul\":1710:1719   */\n      dup4\n        /* \"#utility.yul\":1701:1708   */\n      dup6\n        /* \"#utility.yul\":1697:1720   */\n      sub\n        /* \"#utility.yul\":1693:1725   */\n      slt\n        /* \"#utility.yul\":1690:1809   */\n      iszero\n      tag_57\n      jumpi\n        /* \"#utility.yul\":1728:1807   */\n      tag_58\n      tag_26\n      jump\t// in\n    tag_58:\n        /* \"#utility.yul\":1690:1809   */\n    tag_57:\n        /* \"#utility.yul\":1848:1849   */\n      0x00\n        /* \"#utility.yul\":1873:1934   */\n      tag_59\n        /* \"#utility.yul\":1926:1933   */\n      dup6\n        /* \"#utility.yul\":1917:1923   */\n      dup3\n        /* \"#utility.yul\":1906:1915   */\n      dup7\n        /* \"#utility.yul\":1902:1924   */\n      add\n        /* \"#utility.yul\":1873:1934   */\n      tag_31\n      jump\t// in\n    tag_59:\n        /* \"#utility.yul\":1863:1934   */\n      swap3\n      pop\n        /* \"#utility.yul\":1819:1944   */\n      pop\n        /* \"#utility.yul\":1983:1985   */\n      0x20\n        /* \"#utility.yul\":2009:2062   */\n      tag_60\n        /* \"#utility.yul\":2054:2061   */\n      dup6\n        /* \"#utility.yul\":2045:2051   */\n      dup3\n        /* \"#utility.yul\":2034:2043   */\n      dup7\n        /* \"#utility.yul\":2030:2052   */\n      add\n        /* \"#utility.yul\":2009:2062   */\n      tag_33\n      jump\t// in\n    tag_60:\n        /* \"#utility.yul\":1999:2062   */\n      swap2\n      pop\n        /* \"#utility.yul\":1954:2072   */\n      pop\n        /* \"#utility.yul\":1589:2079   */\n      swap3\n      pop\n      swap3\n      swap1\n      pop\n      jump\t// out\n\n    auxdata: 0xa26469706673582212201e14a6b21f4ee953baa2ce2a91e0b39f98b7b3faec28efb8b8e01edb083c871764736f6c63430008110033\n}\n",
				"bytecode": {
					"linkReferences": {},
					"object": "608060405234801561001057600080fd5b50610216806100206000396000f3fe60806040526004361061002d5760003560e01c806312065fe014610036578063d0679d341461006157610034565b3661003457005b005b34801561004257600080fd5b5061004b61008a565b60405161005891906100f6565b60405180910390f35b34801561006d57600080fd5b50610088600480360381019061008391906101a0565b610092565b005b600047905090565b8173ffffffffffffffffffffffffffffffffffffffff166108fc829081150290604051600060405180830381858888f193505050501580156100d8573d6000803e3d6000fd5b505050565b6000819050919050565b6100f0816100dd565b82525050565b600060208201905061010b60008301846100e7565b92915050565b600080fd5b600073ffffffffffffffffffffffffffffffffffffffff82169050919050565b600061014182610116565b9050919050565b61015181610136565b811461015c57600080fd5b50565b60008135905061016e81610148565b92915050565b61017d816100dd565b811461018857600080fd5b50565b60008135905061019a81610174565b92915050565b600080604083850312156101b7576101b6610111565b5b60006101c58582860161015f565b92505060206101d68582860161018b565b915050925092905056fea26469706673582212201e14a6b21f4ee953baa2ce2a91e0b39f98b7b3faec28efb8b8e01edb083c871764736f6c63430008110033",
					"opcodes": "PUSH1 0x80 PUSH1 0x40 MSTORE CALLVALUE DUP1 ISZERO PUSH2 0x10 JUMPI PUSH1 0x0 DUP1 REVERT JUMPDEST POP PUSH2 0x216 DUP1 PUSH2 0x20 PUSH1 0x0 CODECOPY PUSH1 0x0 RETURN INVALID PUSH1 0x80 PUSH1 0x40 MSTORE PUSH1 0x4 CALLDATASIZE LT PUSH2 0x2D JUMPI PUSH1 0x0 CALLDATALOAD PUSH1 0xE0 SHR DUP1 PUSH4 0x12065FE0 EQ PUSH2 0x36 JUMPI DUP1 PUSH4 0xD0679D34 EQ PUSH2 0x61 JUMPI PUSH2 0x34 JUMP JUMPDEST CALLDATASIZE PUSH2 0x34 JUMPI STOP JUMPDEST STOP JUMPDEST CALLVALUE DUP1 ISZERO PUSH2 0x42 JUMPI PUSH1 0x0 DUP1 REVERT JUMPDEST POP PUSH2 0x4B PUSH2 0x8A JUMP JUMPDEST PUSH1 0x40 MLOAD PUSH2 0x58 SWAP2 SWAP1 PUSH2 0xF6 JUMP JUMPDEST PUSH1 0x40 MLOAD DUP1 SWAP2 SUB SWAP1 RETURN JUMPDEST CALLVALUE DUP1 ISZERO PUSH2 0x6D JUMPI PUSH1 0x0 DUP1 REVERT JUMPDEST POP PUSH2 0x88 PUSH1 0x4 DUP1 CALLDATASIZE SUB DUP2 ADD SWAP1 PUSH2 0x83 SWAP2 SWAP1 PUSH2 0x1A0 JUMP JUMPDEST PUSH2 0x92 JUMP JUMPDEST STOP JUMPDEST PUSH1 0x0 SELFBALANCE SWAP1 POP SWAP1 JUMP JUMPDEST DUP2 PUSH20 0xFFFFFFFFFFFFFFFFFFFFFFFFFFFFFFFFFFFFFFFF AND PUSH2 0x8FC DUP3 SWAP1 DUP2 ISZERO MUL SWAP1 PUSH1 0x40 MLOAD PUSH1 0x0 PUSH1 0x40 MLOAD DUP1 DUP4 SUB DUP2 DUP6 DUP9 DUP9 CALL SWAP4 POP POP POP POP ISZERO DUP1 ISZERO PUSH2 0xD8 JUMPI RETURNDATASIZE PUSH1 0x0 DUP1 RETURNDATACOPY RETURNDATASIZE PUSH1 0x0 REVERT JUMPDEST POP POP POP JUMP JUMPDEST PUSH1 0x0 DUP2 SWAP1 POP SWAP2 SWAP1 POP JUMP JUMPDEST PUSH2 0xF0 DUP2 PUSH2 0xDD JUMP JUMPDEST DUP3 MSTORE POP POP JUMP JUMPDEST PUSH1 0x0 PUSH1 0x20 DUP3 ADD SWAP1 POP PUSH2 0x10B PUSH1 0x0 DUP4 ADD DUP5 PUSH2 0xE7 JUMP JUMPDEST SWAP3 SWAP2 POP POP JUMP JUMPDEST PUSH1 0x0 DUP1 REVERT JUMPDEST PUSH1 0x0 PUSH20 0xFFFFFFFFFFFFFFFFFFFFFFFFFFFFFFFFFFFFFFFF DUP3 AND SWAP1 POP SWAP2 SWAP1 POP JUMP JUMPDEST PUSH1 0x0 PUSH2 0x141 DUP3 PUSH2 0x116 JUMP JUMPDEST SWAP1 POP SWAP2 SWAP1 POP JUMP JUMPDEST PUSH2 0x151 DUP2 PUSH2 0x136 JUMP JUMPDEST DUP2 EQ PUSH2 0x15C JUMPI PUSH1 0x0 DUP1 REVERT JUMPDEST POP JUMP JUMPDEST PUSH1 0x0 DUP2 CALLDATALOAD SWAP1 POP PUSH2 0x16E DUP2 PUSH2 0x148 JUMP JUMPDEST SWAP3 SWAP2 POP POP JUMP JUMPDEST PUSH2 0x17D DUP2 PUSH2 0xDD JUMP JUMPDEST DUP2 EQ PUSH2 0x188 JUMPI PUSH1 0x0 DUP1 REVERT JUMPDEST POP JUMP JUMPDEST PUSH1 0x0 DUP2 CALLDATALOAD SWAP1 POP PUSH2 0x19A DUP2 PUSH2 0x174 JUMP JUMPDEST SWAP3 SWAP2 POP POP JUMP JUMPDEST PUSH1 0x0 DUP1 PUSH1 0x40 DUP4 DUP6 SUB SLT ISZERO PUSH2 0x1B7 JUMPI PUSH2 0x1B6 PUSH2 0x111 JUMP JUMPDEST JUMPDEST PUSH1 0x0 PUSH2 0x1C5 DUP6 DUP3 DUP7 ADD PUSH2 0x15F JUMP JUMPDEST SWAP3 POP POP PUSH1 0x20 PUSH2 0x1D6 DUP6 DUP3 DUP7 ADD PUSH2 0x18B JUMP JUMPDEST SWAP2 POP POP SWAP3 POP SWAP3 SWAP1 POP JUMP INVALID LOG2 PUSH5 0x6970667358 0x22 SLT KECCAK256 0x1E EQ 0xA6 0xB2 0x1F 0x4E 0xE9 MSTORE8 0xBA LOG2 0xCE 0x2A SWAP2 0xE0 0xB3 SWAP16 SWAP9 0xB7 0xB3 STATICCALL 0xEC 0x28 0xEF 0xB8 0xB8 0xE0 0x1E 0xDB ADDMOD EXTCODECOPY DUP8 OR PUSH5 0x736F6C6343 STOP ADDMOD GT STOP CALLER "
				},
				"gasEstimates": {
					"creation": {
						"codeDepositCost": "106800",
						"executionCost": "153",
						"totalCost": "106953"
					},
					"external": {
						"": "107",
						"getBalance()": "317",
						"send(address,uint256)": "infinite"
					}
				},
				"methodIdentifiers": {
					"getBalance()": "12065fe0",
					"send(address,uint256)": "d0679d34"
				}
			},
			"storageLayout": {
				"storage": [],
				"types": null
			},
			"userdoc": {
				"kind": "user",
				"methods": {},
				"version": 1
			}
		}
	}
}