{
	"data": {
		"bytecode": {
			"linkReferences": {},
			"object": "6080604052348015600f57600080fd5b50608f8061001e6000396000f3fe6080604052348015600f57600080fd5b506004361060325760003560e01c80634b3df200146037578063c298557814603f575b600080fd5b603d6047565b005b60456055565b005b604d6057565b60536057565b565b565b56fea264697066735822122092e430d114f3975b376de347c5fadead812bf80c38aade7e0b2a281e3d52109664736f6c63430008110033",
			"opcodes": "PUSH1 0x80 PUSH1 0x40 MSTORE CALLVALUE DUP1 ISZERO PUSH1 0xF JUMPI PUSH1 0x0 DUP1 REVERT JUMPDEST POP PUSH1 0x8F DUP1 PUSH2 0x1E PUSH1 0x0 CODECOPY PUSH1 0x0 RETURN INVALID PUSH1 0x80 PUSH1 0x40 MSTORE CALLVALUE DUP1 ISZERO PUSH1 0xF JUMPI PUSH1 0x0 DUP1 REVERT JUMPDEST POP PUSH1 0x4 CALLDATASIZE LT PUSH1 0x32 JUMPI PUSH1 0x0 CALLDATALOAD PUSH1 0xE0 SHR DUP1 PUSH4 0x4B3DF200 EQ PUSH1 0x37 JUMPI DUP1 PUSH4 0xC2985578 EQ PUSH1 0x3F JUMPI JUMPDEST PUSH1 0x0 DUP1 REVERT JUMPDEST PUSH1 0x3D PUSH1 0x47 JUMP JUMPDEST STOP JUMPDEST PUSH1 0x45 PUSH1 0x55 JUMP JUMPDEST STOP JUMPDEST PUSH1 0x4D PUSH1 0x57 JUMP JUMPDEST PUSH1 0x53 PUSH1 0x57 JUMP JUMPDEST JUMP JUMPDEST JUMP JUMPDEST JUMP INVALID LOG2 PUSH5 0x6970667358 0x22 SLT KECCAK256 SWAP3 0xE4 ADDRESS 0xD1 EQ RETURN SWAP8 JUMPDEST CALLDATACOPY PUSH14 0xE347C5FADEAD812BF80C38AADE7E SIGNEXTEND 0x2A 0x28 0x1E RETURNDATASIZE MSTORE LT SWAP7 PUSH5 0x736F6C6343 STOP ADDMOD GT STOP CALLER "
		},
		"gasEstimates": {
			"creation": {
				"codeDepositCost": "28600",
				"executionCost": "81",
				"totalCost": "28681"
			},
			"external": {
				"boo()": "infinite",
				"foo()": "144"
			}
		},
		"methodIdentifiers": {
			"boo()": "4b3df200",
			"foo()": "c2985578"
		}
	},
	"abi": [
		{
			"inputs": [],
			"name": "boo",
			"outputs": [],
			"stateMutability": "view",
			"type": "function"
		},
		{
			"inputs": [],
			"name": "foo",
			"outputs": [],
			"stateMutability": "pure",
			"type": "function"
		}
	]
}