{
	"_02_数据类型_值类型_bool.sol": {
		"TinyStoryge": {
			"abi": [
				{
					"inputs": [],
					"name": "getFlag",
					"outputs": [
						{
							"internalType": "bool",
							"name": "",
							"type": "bool"
						}
					],
					"stateMutability": "view",
					"type": "function"
				}
			],
			"devdoc": {
				"kind": "dev",
				"methods": {},
				"version": 1
			},
			"evm": {
				"assembly": "    /* \"_02_\\xe6\\x95\\xb0\\xe6\\x8d\\xae\\xe7\\xb1\\xbb\\xe5\\x9e\\x8b_\\xe5\\x80\\xbc\\xe7\\xb1\\xbb\\xe5\\x9e\\x8b_bool.sol\":131:487  contract TinyStoryge {... */\n  mstore(0x40, 0x80)\n  callvalue\n  dup1\n  iszero\n  tag_1\n  jumpi\n  0x00\n  dup1\n  revert\ntag_1:\n  pop\n  dataSize(sub_0)\n  dup1\n  dataOffset(sub_0)\n  0x00\n  codecopy\n  0x00\n  return\nstop\n\nsub_0: assembly {\n        /* \"_02_\\xe6\\x95\\xb0\\xe6\\x8d\\xae\\xe7\\xb1\\xbb\\xe5\\x9e\\x8b_\\xe5\\x80\\xbc\\xe7\\xb1\\xbb\\xe5\\x9e\\x8b_bool.sol\":131:487  contract TinyStoryge {... */\n      mstore(0x40, 0x80)\n      callvalue\n      dup1\n      iszero\n      tag_1\n      jumpi\n      0x00\n      dup1\n      revert\n    tag_1:\n      pop\n      jumpi(tag_2, lt(calldatasize, 0x04))\n      shr(0xe0, calldataload(0x00))\n      dup1\n      0xf9633930\n      eq\n      tag_3\n      jumpi\n    tag_2:\n      0x00\n      dup1\n      revert\n        /* \"_02_\\xe6\\x95\\xb0\\xe6\\x8d\\xae\\xe7\\xb1\\xbb\\xe5\\x9e\\x8b_\\xe5\\x80\\xbc\\xe7\\xb1\\xbb\\xe5\\x9e\\x8b_bool.sol\":402:477  function getFlag() public view returns(bool) {... */\n    tag_3:\n      tag_4\n      tag_5\n      jump\t// in\n    tag_4:\n      mload(0x40)\n      tag_6\n      swap2\n      swap1\n      tag_7\n      jump\t// in\n    tag_6:\n      mload(0x40)\n      dup1\n      swap2\n      sub\n      swap1\n      return\n    tag_5:\n        /* \"_02_\\xe6\\x95\\xb0\\xe6\\x8d\\xae\\xe7\\xb1\\xbb\\xe5\\x9e\\x8b_\\xe5\\x80\\xbc\\xe7\\xb1\\xbb\\xe5\\x9e\\x8b_bool.sol\":441:445  bool */\n      0x00\n        /* \"_02_\\xe6\\x95\\xb0\\xe6\\x8d\\xae\\xe7\\xb1\\xbb\\xe5\\x9e\\x8b_\\xe5\\x80\\xbc\\xe7\\xb1\\xbb\\xe5\\x9e\\x8b_bool.sol\":465:469  flag */\n      dup1\n      0x00\n      swap1\n      sload\n      swap1\n      0x0100\n      exp\n      swap1\n      div\n      0xff\n      and\n        /* \"_02_\\xe6\\x95\\xb0\\xe6\\x8d\\xae\\xe7\\xb1\\xbb\\xe5\\x9e\\x8b_\\xe5\\x80\\xbc\\xe7\\xb1\\xbb\\xe5\\x9e\\x8b_bool.sol\":458:469  return flag */\n      swap1\n      pop\n        /* \"_02_\\xe6\\x95\\xb0\\xe6\\x8d\\xae\\xe7\\xb1\\xbb\\xe5\\x9e\\x8b_\\xe5\\x80\\xbc\\xe7\\xb1\\xbb\\xe5\\x9e\\x8b_bool.sol\":402:477  function getFlag() public view returns(bool) {... */\n      swap1\n      jump\t// out\n        /* \"#utility.yul\":7:97   */\n    tag_9:\n        /* \"#utility.yul\":41:48   */\n      0x00\n        /* \"#utility.yul\":84:89   */\n      dup2\n        /* \"#utility.yul\":77:90   */\n      iszero\n        /* \"#utility.yul\":70:91   */\n      iszero\n        /* \"#utility.yul\":59:91   */\n      swap1\n      pop\n        /* \"#utility.yul\":7:97   */\n      swap2\n      swap1\n      pop\n      jump\t// out\n        /* \"#utility.yul\":103:212   */\n    tag_10:\n        /* \"#utility.yul\":184:205   */\n      tag_14\n        /* \"#utility.yul\":199:204   */\n      dup2\n        /* \"#utility.yul\":184:205   */\n      tag_9\n      jump\t// in\n    tag_14:\n        /* \"#utility.yul\":179:182   */\n      dup3\n        /* \"#utility.yul\":172:206   */\n      mstore\n        /* \"#utility.yul\":103:212   */\n      pop\n      pop\n      jump\t// out\n        /* \"#utility.yul\":218:428   */\n    tag_7:\n        /* \"#utility.yul\":305:309   */\n      0x00\n        /* \"#utility.yul\":343:345   */\n      0x20\n        /* \"#utility.yul\":332:341   */\n      dup3\n        /* \"#utility.yul\":328:346   */\n      add\n        /* \"#utility.yul\":320:346   */\n      swap1\n      pop\n        /* \"#utility.yul\":356:421   */\n      tag_16\n        /* \"#utility.yul\":418:419   */\n      0x00\n        /* \"#utility.yul\":407:416   */\n      dup4\n        /* \"#utility.yul\":403:420   */\n      add\n        /* \"#utility.yul\":394:400   */\n      dup5\n        /* \"#utility.yul\":356:421   */\n      tag_10\n      jump\t// in\n    tag_16:\n        /* \"#utility.yul\":218:428   */\n      swap3\n      swap2\n      pop\n      pop\n      jump\t// out\n\n    auxdata: 0xa2646970667358221220574d4686b17f18235e136c5b223db59626c6e854247ddb8ae61323bc5376278864736f6c63430008110033\n}\n",
				"bytecode": {
					"linkReferences": {},
					"object": "608060405234801561001057600080fd5b5060c58061001f6000396000f3fe6080604052348015600f57600080fd5b506004361060285760003560e01c8063f963393014602d575b600080fd5b60336047565b604051603e91906076565b60405180910390f35b60008060009054906101000a900460ff16905090565b60008115159050919050565b607081605d565b82525050565b6000602082019050608960008301846069565b9291505056fea2646970667358221220574d4686b17f18235e136c5b223db59626c6e854247ddb8ae61323bc5376278864736f6c63430008110033",
					"opcodes": "PUSH1 0x80 PUSH1 0x40 MSTORE CALLVALUE DUP1 ISZERO PUSH2 0x10 JUMPI PUSH1 0x0 DUP1 REVERT JUMPDEST POP PUSH1 0xC5 DUP1 PUSH2 0x1F PUSH1 0x0 CODECOPY PUSH1 0x0 RETURN INVALID PUSH1 0x80 PUSH1 0x40 MSTORE CALLVALUE DUP1 ISZERO PUSH1 0xF JUMPI PUSH1 0x0 DUP1 REVERT JUMPDEST POP PUSH1 0x4 CALLDATASIZE LT PUSH1 0x28 JUMPI PUSH1 0x0 CALLDATALOAD PUSH1 0xE0 SHR DUP1 PUSH4 0xF9633930 EQ PUSH1 0x2D JUMPI JUMPDEST PUSH1 0x0 DUP1 REVERT JUMPDEST PUSH1 0x33 PUSH1 0x47 JUMP JUMPDEST PUSH1 0x40 MLOAD PUSH1 0x3E SWAP2 SWAP1 PUSH1 0x76 JUMP JUMPDEST PUSH1 0x40 MLOAD DUP1 SWAP2 SUB SWAP1 RETURN JUMPDEST PUSH1 0x0 DUP1 PUSH1 0x0 SWAP1 SLOAD SWAP1 PUSH2 0x100 EXP SWAP1 DIV PUSH1 0xFF AND SWAP1 POP SWAP1 JUMP JUMPDEST PUSH1 0x0 DUP2 ISZERO ISZERO SWAP1 POP SWAP2 SWAP1 POP JUMP JUMPDEST PUSH1 0x70 DUP2 PUSH1 0x5D JUMP JUMPDEST DUP3 MSTORE POP POP JUMP JUMPDEST PUSH1 0x0 PUSH1 0x20 DUP3 ADD SWAP1 POP PUSH1 0x89 PUSH1 0x0 DUP4 ADD DUP5 PUSH1 0x69 JUMP JUMPDEST SWAP3 SWAP2 POP POP JUMP INVALID LOG2 PUSH5 0x6970667358 0x22 SLT KECCAK256 JUMPI 0x4D CHAINID DUP7 0xB1 PUSH32 0x18235E136C5B223DB59626C6E854247DDB8AE61323BC5376278864736F6C6343 STOP ADDMOD GT STOP CALLER "
				},
				"gasEstimates": {
					"creation": {
						"codeDepositCost": "39400",
						"executionCost": "93",
						"totalCost": "39493"
					},
					"external": {
						"getFlag()": "2457"
					}
				},
				"methodIdentifiers": {
					"getFlag()": "f9633930"
				}
			},
			"storageLayout": {
				"storage": [
					{
						"astId": 5,
						"contract": "_02_数据类型_值类型_bool.sol:TinyStoryge",
						"label": "flag",
						"offset": 0,
						"slot": "0",
						"type": "t_bool"
					}
				],
				"types": {
					"t_bool": {
						"encoding": "inplace",
						"label": "bool",
						"numberOfBytes": "1"
					}
				}
			},
			"userdoc": {
				"kind": "user",
				"methods": {},
				"notice": "!!!!与go类似, 任何的变量都有零值!!!!",
				"version": 1
			}
		}
	}
}