{
	"_16_数据类型_引用类型_结构体.sol": {
		"LearnStructs": {
			"abi": [
				{
					"inputs": [],
					"stateMutability": "nonpayable",
					"type": "constructor"
				},
				{
					"inputs": [],
					"name": "getMovie",
					"outputs": [
						{
							"components": [
								{
									"internalType": "string",
									"name": "title",
									"type": "string"
								},
								{
									"internalType": "string",
									"name": "director",
									"type": "string"
								},
								{
									"internalType": "uint256",
									"name": "id",
									"type": "uint256"
								}
							],
							"internalType": "struct LearnStructs.Movie",
							"name": "",
							"type": "tuple"
						}
					],
					"stateMutability": "view",
					"type": "function"
				},
				{
					"inputs": [],
					"name": "test",
					"outputs": [
						{
							"components": [
								{
									"internalType": "string",
									"name": "title",
									"type": "string"
								},
								{
									"internalType": "string",
									"name": "director",
									"type": "string"
								},
								{
									"internalType": "uint256",
									"name": "id",
									"type": "uint256"
								},
								{
									"internalType": "string[]",
									"name": "maker",
									"type": "string[]"
								}
							],
							"internalType": "struct LearnStructs.Tv",
							"name": "",
							"type": "tuple"
						},
						{
							"components": [
								{
									"internalType": "string",
									"name": "title",
									"type": "string"
								},
								{
									"internalType": "string",
									"name": "director",
									"type": "string"
								},
								{
									"internalType": "uint256",
									"name": "id",
									"type": "uint256"
								},
								{
									"internalType": "string[]",
									"name": "maker",
									"type": "string[]"
								}
							],
							"internalType": "struct LearnStructs.Tv",
							"name": "",
							"type": "tuple"
						}
					],
					"stateMutability": "nonpayable",
					"type": "function"
				},
				{
					"inputs": [],
					"name": "tv",
					"outputs": [
						{
							"internalType": "string",
							"name": "title",
							"type": "string"
						},
						{
							"internalType": "string",
							"name": "director",
							"type": "string"
						},
						{
							"internalType": "uint256",
							"name": "id",
							"type": "uint256"
						}
					],
					"stateMutability": "view",
					"type": "function"
				}
			],
			"devdoc": {
				"kind": "dev",
				"methods": {},
				"version": 1
			},
			"evm": {
				"assembly": "    /* \"_16_\\xe6\\x95\\xb0\\xe6\\x8d\\xae\\xe7\\xb1\\xbb\\xe5\\x9e\\x8b_\\xe5\\xbc\\x95\\xe7\\x94\\xa8\\xe7\\xb1\\xbb\\xe5\\x9e\\x8b_\\xe7\\xbb\\x93\\xe6\\x9e\\x84\\xe4\\xbd\\x93.sol\":66:950  contract LearnStructs {... */\n  mstore(0x40, 0x80)\n    /* \"_16_\\xe6\\x95\\xb0\\xe6\\x8d\\xae\\xe7\\xb1\\xbb\\xe5\\x9e\\x8b_\\xe5\\xbc\\x95\\xe7\\x94\\xa8\\xe7\\xb1\\xbb\\xe5\\x9e\\x8b_\\xe7\\xbb\\x93\\xe6\\x9e\\x84\\xe4\\xbd\\x93.sol\":209:276  constructor () {... */\n  callvalue\n  dup1\n  iszero\n  tag_1\n  jumpi\n  0x00\n  dup1\n  revert\ntag_1:\n  pop\n    /* \"_16_\\xe6\\x95\\xb0\\xe6\\x8d\\xae\\xe7\\xb1\\xbb\\xe5\\x9e\\x8b_\\xe5\\xbc\\x95\\xe7\\x94\\xa8\\xe7\\xb1\\xbb\\xe5\\x9e\\x8b_\\xe7\\xbb\\x93\\xe6\\x9e\\x84\\xe4\\xbd\\x93.sol\":243:268  Movie(\"xcad\", \"sdfa\", 12) */\n  mload(0x40)\n  dup1\n  0x60\n  add\n  0x40\n  mstore\n  dup1\n  mload(0x40)\n  dup1\n  0x40\n  add\n  0x40\n  mstore\n  dup1\n  0x04\n  dup2\n  mstore\n  0x20\n  add\n  0x7863616400000000000000000000000000000000000000000000000000000000\n  dup2\n  mstore\n  pop\n  dup2\n  mstore\n  0x20\n  add\n  mload(0x40)\n  dup1\n  0x40\n  add\n  0x40\n  mstore\n  dup1\n  0x04\n  dup2\n  mstore\n  0x20\n  add\n  0x7364666100000000000000000000000000000000000000000000000000000000\n  dup2\n  mstore\n  pop\n  dup2\n  mstore\n  0x20\n  add\n    /* \"_16_\\xe6\\x95\\xb0\\xe6\\x8d\\xae\\xe7\\xb1\\xbb\\xe5\\x9e\\x8b_\\xe5\\xbc\\x95\\xe7\\x94\\xa8\\xe7\\xb1\\xbb\\xe5\\x9e\\x8b_\\xe7\\xbb\\x93\\xe6\\x9e\\x84\\xe4\\xbd\\x93.sol\":265:267  12 */\n  0x0c\n    /* \"_16_\\xe6\\x95\\xb0\\xe6\\x8d\\xae\\xe7\\xb1\\xbb\\xe5\\x9e\\x8b_\\xe5\\xbc\\x95\\xe7\\x94\\xa8\\xe7\\xb1\\xbb\\xe5\\x9e\\x8b_\\xe7\\xbb\\x93\\xe6\\x9e\\x84\\xe4\\xbd\\x93.sol\":243:268  Movie(\"xcad\", \"sdfa\", 12) */\n  dup2\n  mstore\n  pop\n    /* \"_16_\\xe6\\x95\\xb0\\xe6\\x8d\\xae\\xe7\\xb1\\xbb\\xe5\\x9e\\x8b_\\xe5\\xbc\\x95\\xe7\\x94\\xa8\\xe7\\xb1\\xbb\\xe5\\x9e\\x8b_\\xe7\\xbb\\x93\\xe6\\x9e\\x84\\xe4\\xbd\\x93.sol\":235:240  movie */\n  0x00\n    /* \"_16_\\xe6\\x95\\xb0\\xe6\\x8d\\xae\\xe7\\xb1\\xbb\\xe5\\x9e\\x8b_\\xe5\\xbc\\x95\\xe7\\x94\\xa8\\xe7\\xb1\\xbb\\xe5\\x9e\\x8b_\\xe7\\xbb\\x93\\xe6\\x9e\\x84\\xe4\\xbd\\x93.sol\":235:268  movie = Movie(\"xcad\", \"sdfa\", 12) */\n  dup1\n  dup3\n  add\n  mload\n  dup2\n  0x00\n  add\n  swap1\n  dup2\n  tag_4\n  swap2\n  swap1\n  tag_5\n  jump\t// in\ntag_4:\n  pop\n  0x20\n  dup3\n  add\n  mload\n  dup2\n  0x01\n  add\n  swap1\n  dup2\n  tag_6\n  swap2\n  swap1\n  tag_5\n  jump\t// in\ntag_6:\n  pop\n  0x40\n  dup3\n  add\n  mload\n  dup2\n  0x02\n  add\n  sstore\n  swap1\n  pop\n  pop\n    /* \"_16_\\xe6\\x95\\xb0\\xe6\\x8d\\xae\\xe7\\xb1\\xbb\\xe5\\x9e\\x8b_\\xe5\\xbc\\x95\\xe7\\x94\\xa8\\xe7\\xb1\\xbb\\xe5\\x9e\\x8b_\\xe7\\xbb\\x93\\xe6\\x9e\\x84\\xe4\\xbd\\x93.sol\":66:950  contract LearnStructs {... */\n  jump(tag_7)\n    /* \"#utility.yul\":7:106   */\ntag_8:\n    /* \"#utility.yul\":59:65   */\n  0x00\n    /* \"#utility.yul\":93:98   */\n  dup2\n    /* \"#utility.yul\":87:99   */\n  mload\n    /* \"#utility.yul\":77:99   */\n  swap1\n  pop\n    /* \"#utility.yul\":7:106   */\n  swap2\n  swap1\n  pop\n  jump\t// out\n    /* \"#utility.yul\":112:292   */\ntag_9:\n    /* \"#utility.yul\":160:237   */\n  0x4e487b7100000000000000000000000000000000000000000000000000000000\n    /* \"#utility.yul\":157:158   */\n  0x00\n    /* \"#utility.yul\":150:238   */\n  mstore\n    /* \"#utility.yul\":257:261   */\n  0x41\n    /* \"#utility.yul\":254:255   */\n  0x04\n    /* \"#utility.yul\":247:262   */\n  mstore\n    /* \"#utility.yul\":281:285   */\n  0x24\n    /* \"#utility.yul\":278:279   */\n  0x00\n    /* \"#utility.yul\":271:286   */\n  revert\n    /* \"#utility.yul\":298:478   */\ntag_10:\n    /* \"#utility.yul\":346:423   */\n  0x4e487b7100000000000000000000000000000000000000000000000000000000\n    /* \"#utility.yul\":343:344   */\n  0x00\n    /* \"#utility.yul\":336:424   */\n  mstore\n    /* \"#utility.yul\":443:447   */\n  0x22\n    /* \"#utility.yul\":440:441   */\n  0x04\n    /* \"#utility.yul\":433:448   */\n  mstore\n    /* \"#utility.yul\":467:471   */\n  0x24\n    /* \"#utility.yul\":464:465   */\n  0x00\n    /* \"#utility.yul\":457:472   */\n  revert\n    /* \"#utility.yul\":484:804   */\ntag_11:\n    /* \"#utility.yul\":528:534   */\n  0x00\n    /* \"#utility.yul\":565:566   */\n  0x02\n    /* \"#utility.yul\":559:563   */\n  dup3\n    /* \"#utility.yul\":555:567   */\n  div\n    /* \"#utility.yul\":545:567   */\n  swap1\n  pop\n    /* \"#utility.yul\":612:613   */\n  0x01\n    /* \"#utility.yul\":606:610   */\n  dup3\n    /* \"#utility.yul\":602:614   */\n  and\n    /* \"#utility.yul\":633:651   */\n  dup1\n    /* \"#utility.yul\":623:704   */\n  tag_33\n  jumpi\n    /* \"#utility.yul\":689:693   */\n  0x7f\n    /* \"#utility.yul\":681:687   */\n  dup3\n    /* \"#utility.yul\":677:694   */\n  and\n    /* \"#utility.yul\":667:694   */\n  swap2\n  pop\n    /* \"#utility.yul\":623:704   */\ntag_33:\n    /* \"#utility.yul\":751:753   */\n  0x20\n    /* \"#utility.yul\":743:749   */\n  dup3\n    /* \"#utility.yul\":740:754   */\n  lt\n    /* \"#utility.yul\":720:738   */\n  dup2\n    /* \"#utility.yul\":717:755   */\n  sub\n    /* \"#utility.yul\":714:798   */\n  tag_34\n  jumpi\n    /* \"#utility.yul\":770:788   */\n  tag_35\n  tag_10\n  jump\t// in\ntag_35:\n    /* \"#utility.yul\":714:798   */\ntag_34:\n    /* \"#utility.yul\":535:804   */\n  pop\n    /* \"#utility.yul\":484:804   */\n  swap2\n  swap1\n  pop\n  jump\t// out\n    /* \"#utility.yul\":810:951   */\ntag_12:\n    /* \"#utility.yul\":859:863   */\n  0x00\n    /* \"#utility.yul\":882:885   */\n  dup2\n    /* \"#utility.yul\":874:885   */\n  swap1\n  pop\n    /* \"#utility.yul\":905:908   */\n  dup2\n    /* \"#utility.yul\":902:903   */\n  0x00\n    /* \"#utility.yul\":895:909   */\n  mstore\n    /* \"#utility.yul\":939:943   */\n  0x20\n    /* \"#utility.yul\":936:937   */\n  0x00\n    /* \"#utility.yul\":926:944   */\n  keccak256\n    /* \"#utility.yul\":918:944   */\n  swap1\n  pop\n    /* \"#utility.yul\":810:951   */\n  swap2\n  swap1\n  pop\n  jump\t// out\n    /* \"#utility.yul\":957:1050   */\ntag_13:\n    /* \"#utility.yul\":994:1000   */\n  0x00\n    /* \"#utility.yul\":1041:1043   */\n  0x20\n    /* \"#utility.yul\":1036:1038   */\n  0x1f\n    /* \"#utility.yul\":1029:1034   */\n  dup4\n    /* \"#utility.yul\":1025:1039   */\n  add\n    /* \"#utility.yul\":1021:1044   */\n  div\n    /* \"#utility.yul\":1011:1044   */\n  swap1\n  pop\n    /* \"#utility.yul\":957:1050   */\n  swap2\n  swap1\n  pop\n  jump\t// out\n    /* \"#utility.yul\":1056:1163   */\ntag_14:\n    /* \"#utility.yul\":1100:1108   */\n  0x00\n    /* \"#utility.yul\":1150:1155   */\n  dup3\n    /* \"#utility.yul\":1144:1148   */\n  dup3\n    /* \"#utility.yul\":1140:1156   */\n  shl\n    /* \"#utility.yul\":1119:1156   */\n  swap1\n  pop\n    /* \"#utility.yul\":1056:1163   */\n  swap3\n  swap2\n  pop\n  pop\n  jump\t// out\n    /* \"#utility.yul\":1169:1562   */\ntag_15:\n    /* \"#utility.yul\":1238:1244   */\n  0x00\n    /* \"#utility.yul\":1288:1289   */\n  0x08\n    /* \"#utility.yul\":1276:1286   */\n  dup4\n    /* \"#utility.yul\":1272:1290   */\n  mul\n    /* \"#utility.yul\":1311:1408   */\n  tag_40\n    /* \"#utility.yul\":1341:1407   */\n  0xffffffffffffffffffffffffffffffffffffffffffffffffffffffffffffffff\n    /* \"#utility.yul\":1330:1339   */\n  dup3\n    /* \"#utility.yul\":1311:1408   */\n  tag_14\n  jump\t// in\ntag_40:\n    /* \"#utility.yul\":1429:1468   */\n  tag_41\n    /* \"#utility.yul\":1459:1467   */\n  dup7\n    /* \"#utility.yul\":1448:1457   */\n  dup4\n    /* \"#utility.yul\":1429:1468   */\n  tag_14\n  jump\t// in\ntag_41:\n    /* \"#utility.yul\":1417:1468   */\n  swap6\n  pop\n    /* \"#utility.yul\":1501:1505   */\n  dup1\n    /* \"#utility.yul\":1497:1506   */\n  not\n    /* \"#utility.yul\":1490:1495   */\n  dup5\n    /* \"#utility.yul\":1486:1507   */\n  and\n    /* \"#utility.yul\":1477:1507   */\n  swap4\n  pop\n    /* \"#utility.yul\":1550:1554   */\n  dup1\n    /* \"#utility.yul\":1540:1548   */\n  dup7\n    /* \"#utility.yul\":1536:1555   */\n  and\n    /* \"#utility.yul\":1529:1534   */\n  dup5\n    /* \"#utility.yul\":1526:1556   */\n  or\n    /* \"#utility.yul\":1516:1556   */\n  swap3\n  pop\n    /* \"#utility.yul\":1245:1562   */\n  pop\n  pop\n    /* \"#utility.yul\":1169:1562   */\n  swap4\n  swap3\n  pop\n  pop\n  pop\n  jump\t// out\n    /* \"#utility.yul\":1568:1645   */\ntag_16:\n    /* \"#utility.yul\":1605:1612   */\n  0x00\n    /* \"#utility.yul\":1634:1639   */\n  dup2\n    /* \"#utility.yul\":1623:1639   */\n  swap1\n  pop\n    /* \"#utility.yul\":1568:1645   */\n  swap2\n  swap1\n  pop\n  jump\t// out\n    /* \"#utility.yul\":1651:1711   */\ntag_17:\n    /* \"#utility.yul\":1679:1682   */\n  0x00\n    /* \"#utility.yul\":1700:1705   */\n  dup2\n    /* \"#utility.yul\":1693:1705   */\n  swap1\n  pop\n    /* \"#utility.yul\":1651:1711   */\n  swap2\n  swap1\n  pop\n  jump\t// out\n    /* \"#utility.yul\":1717:1859   */\ntag_18:\n    /* \"#utility.yul\":1767:1776   */\n  0x00\n    /* \"#utility.yul\":1800:1853   */\n  tag_45\n    /* \"#utility.yul\":1818:1852   */\n  tag_46\n    /* \"#utility.yul\":1827:1851   */\n  tag_47\n    /* \"#utility.yul\":1845:1850   */\n  dup5\n    /* \"#utility.yul\":1827:1851   */\n  tag_16\n  jump\t// in\ntag_47:\n    /* \"#utility.yul\":1818:1852   */\n  tag_17\n  jump\t// in\ntag_46:\n    /* \"#utility.yul\":1800:1853   */\n  tag_16\n  jump\t// in\ntag_45:\n    /* \"#utility.yul\":1787:1853   */\n  swap1\n  pop\n    /* \"#utility.yul\":1717:1859   */\n  swap2\n  swap1\n  pop\n  jump\t// out\n    /* \"#utility.yul\":1865:1940   */\ntag_19:\n    /* \"#utility.yul\":1908:1911   */\n  0x00\n    /* \"#utility.yul\":1929:1934   */\n  dup2\n    /* \"#utility.yul\":1922:1934   */\n  swap1\n  pop\n    /* \"#utility.yul\":1865:1940   */\n  swap2\n  swap1\n  pop\n  jump\t// out\n    /* \"#utility.yul\":1946:2215   */\ntag_20:\n    /* \"#utility.yul\":2056:2095   */\n  tag_50\n    /* \"#utility.yul\":2087:2094   */\n  dup4\n    /* \"#utility.yul\":2056:2095   */\n  tag_18\n  jump\t// in\ntag_50:\n    /* \"#utility.yul\":2117:2208   */\n  tag_51\n    /* \"#utility.yul\":2166:2207   */\n  tag_52\n    /* \"#utility.yul\":2190:2206   */\n  dup3\n    /* \"#utility.yul\":2166:2207   */\n  tag_19\n  jump\t// in\ntag_52:\n    /* \"#utility.yul\":2158:2164   */\n  dup5\n    /* \"#utility.yul\":2151:2155   */\n  dup5\n    /* \"#utility.yul\":2145:2156   */\n  sload\n    /* \"#utility.yul\":2117:2208   */\n  tag_15\n  jump\t// in\ntag_51:\n    /* \"#utility.yul\":2111:2115   */\n  dup3\n    /* \"#utility.yul\":2104:2209   */\n  sstore\n    /* \"#utility.yul\":2022:2215   */\n  pop\n    /* \"#utility.yul\":1946:2215   */\n  pop\n  pop\n  pop\n  jump\t// out\n    /* \"#utility.yul\":2221:2294   */\ntag_21:\n    /* \"#utility.yul\":2266:2269   */\n  0x00\n    /* \"#utility.yul\":2221:2294   */\n  swap1\n  jump\t// out\n    /* \"#utility.yul\":2300:2489   */\ntag_22:\n    /* \"#utility.yul\":2377:2409   */\n  tag_55\n  tag_21\n  jump\t// in\ntag_55:\n    /* \"#utility.yul\":2418:2483   */\n  tag_56\n    /* \"#utility.yul\":2476:2482   */\n  dup2\n    /* \"#utility.yul\":2468:2474   */\n  dup5\n    /* \"#utility.yul\":2462:2466   */\n  dup5\n    /* \"#utility.yul\":2418:2483   */\n  tag_20\n  jump\t// in\ntag_56:\n    /* \"#utility.yul\":2353:2489   */\n  pop\n    /* \"#utility.yul\":2300:2489   */\n  pop\n  pop\n  jump\t// out\n    /* \"#utility.yul\":2495:2681   */\ntag_23:\n    /* \"#utility.yul\":2555:2675   */\ntag_58:\n    /* \"#utility.yul\":2572:2575   */\n  dup2\n    /* \"#utility.yul\":2565:2570   */\n  dup2\n    /* \"#utility.yul\":2562:2576   */\n  lt\n    /* \"#utility.yul\":2555:2675   */\n  iszero\n  tag_60\n  jumpi\n    /* \"#utility.yul\":2626:2665   */\n  tag_61\n    /* \"#utility.yul\":2663:2664   */\n  0x00\n    /* \"#utility.yul\":2656:2661   */\n  dup3\n    /* \"#utility.yul\":2626:2665   */\n  tag_22\n  jump\t// in\ntag_61:\n    /* \"#utility.yul\":2599:2600   */\n  0x01\n    /* \"#utility.yul\":2592:2597   */\n  dup2\n    /* \"#utility.yul\":2588:2601   */\n  add\n    /* \"#utility.yul\":2579:2601   */\n  swap1\n  pop\n    /* \"#utility.yul\":2555:2675   */\n  jump(tag_58)\ntag_60:\n    /* \"#utility.yul\":2495:2681   */\n  pop\n  pop\n  jump\t// out\n    /* \"#utility.yul\":2687:3230   */\ntag_24:\n    /* \"#utility.yul\":2788:2790   */\n  0x1f\n    /* \"#utility.yul\":2783:2786   */\n  dup3\n    /* \"#utility.yul\":2780:2791   */\n  gt\n    /* \"#utility.yul\":2777:3223   */\n  iszero\n  tag_63\n  jumpi\n    /* \"#utility.yul\":2822:2860   */\n  tag_64\n    /* \"#utility.yul\":2854:2859   */\n  dup2\n    /* \"#utility.yul\":2822:2860   */\n  tag_12\n  jump\t// in\ntag_64:\n    /* \"#utility.yul\":2906:2935   */\n  tag_65\n    /* \"#utility.yul\":2924:2934   */\n  dup5\n    /* \"#utility.yul\":2906:2935   */\n  tag_13\n  jump\t// in\ntag_65:\n    /* \"#utility.yul\":2896:2904   */\n  dup2\n    /* \"#utility.yul\":2892:2936   */\n  add\n    /* \"#utility.yul\":3089:3091   */\n  0x20\n    /* \"#utility.yul\":3077:3087   */\n  dup6\n    /* \"#utility.yul\":3074:3092   */\n  lt\n    /* \"#utility.yul\":3071:3120   */\n  iszero\n  tag_66\n  jumpi\n    /* \"#utility.yul\":3110:3118   */\n  dup2\n    /* \"#utility.yul\":3095:3118   */\n  swap1\n  pop\n    /* \"#utility.yul\":3071:3120   */\ntag_66:\n    /* \"#utility.yul\":3133:3213   */\n  tag_67\n    /* \"#utility.yul\":3189:3211   */\n  tag_68\n    /* \"#utility.yul\":3207:3210   */\n  dup6\n    /* \"#utility.yul\":3189:3211   */\n  tag_13\n  jump\t// in\ntag_68:\n    /* \"#utility.yul\":3179:3187   */\n  dup4\n    /* \"#utility.yul\":3175:3212   */\n  add\n    /* \"#utility.yul\":3162:3173   */\n  dup3\n    /* \"#utility.yul\":3133:3213   */\n  tag_23\n  jump\t// in\ntag_67:\n    /* \"#utility.yul\":2792:3223   */\n  pop\n  pop\n    /* \"#utility.yul\":2777:3223   */\ntag_63:\n    /* \"#utility.yul\":2687:3230   */\n  pop\n  pop\n  pop\n  jump\t// out\n    /* \"#utility.yul\":3236:3353   */\ntag_25:\n    /* \"#utility.yul\":3290:3298   */\n  0x00\n    /* \"#utility.yul\":3340:3345   */\n  dup3\n    /* \"#utility.yul\":3334:3338   */\n  dup3\n    /* \"#utility.yul\":3330:3346   */\n  shr\n    /* \"#utility.yul\":3309:3346   */\n  swap1\n  pop\n    /* \"#utility.yul\":3236:3353   */\n  swap3\n  swap2\n  pop\n  pop\n  jump\t// out\n    /* \"#utility.yul\":3359:3528   */\ntag_26:\n    /* \"#utility.yul\":3403:3409   */\n  0x00\n    /* \"#utility.yul\":3436:3487   */\n  tag_71\n    /* \"#utility.yul\":3484:3485   */\n  0x00\n    /* \"#utility.yul\":3480:3486   */\n  not\n    /* \"#utility.yul\":3472:3477   */\n  dup5\n    /* \"#utility.yul\":3469:3470   */\n  0x08\n    /* \"#utility.yul\":3465:3478   */\n  mul\n    /* \"#utility.yul\":3436:3487   */\n  tag_25\n  jump\t// in\ntag_71:\n    /* \"#utility.yul\":3432:3488   */\n  not\n    /* \"#utility.yul\":3517:3521   */\n  dup1\n    /* \"#utility.yul\":3511:3515   */\n  dup4\n    /* \"#utility.yul\":3507:3522   */\n  and\n    /* \"#utility.yul\":3497:3522   */\n  swap2\n  pop\n    /* \"#utility.yul\":3410:3528   */\n  pop\n    /* \"#utility.yul\":3359:3528   */\n  swap3\n  swap2\n  pop\n  pop\n  jump\t// out\n    /* \"#utility.yul\":3533:3828   */\ntag_27:\n    /* \"#utility.yul\":3609:3613   */\n  0x00\n    /* \"#utility.yul\":3755:3784   */\n  tag_73\n    /* \"#utility.yul\":3780:3783   */\n  dup4\n    /* \"#utility.yul\":3774:3778   */\n  dup4\n    /* \"#utility.yul\":3755:3784   */\n  tag_26\n  jump\t// in\ntag_73:\n    /* \"#utility.yul\":3747:3784   */\n  swap2\n  pop\n    /* \"#utility.yul\":3817:3820   */\n  dup3\n    /* \"#utility.yul\":3814:3815   */\n  0x02\n    /* \"#utility.yul\":3810:3821   */\n  mul\n    /* \"#utility.yul\":3804:3808   */\n  dup3\n    /* \"#utility.yul\":3801:3822   */\n  or\n    /* \"#utility.yul\":3793:3822   */\n  swap1\n  pop\n    /* \"#utility.yul\":3533:3828   */\n  swap3\n  swap2\n  pop\n  pop\n  jump\t// out\n    /* \"#utility.yul\":3833:5228   */\ntag_5:\n    /* \"#utility.yul\":3950:3987   */\n  tag_75\n    /* \"#utility.yul\":3983:3986   */\n  dup3\n    /* \"#utility.yul\":3950:3987   */\n  tag_8\n  jump\t// in\ntag_75:\n    /* \"#utility.yul\":4052:4070   */\n  0xffffffffffffffff\n    /* \"#utility.yul\":4044:4050   */\n  dup2\n    /* \"#utility.yul\":4041:4071   */\n  gt\n    /* \"#utility.yul\":4038:4094   */\n  iszero\n  tag_76\n  jumpi\n    /* \"#utility.yul\":4074:4092   */\n  tag_77\n  tag_9\n  jump\t// in\ntag_77:\n    /* \"#utility.yul\":4038:4094   */\ntag_76:\n    /* \"#utility.yul\":4118:4156   */\n  tag_78\n    /* \"#utility.yul\":4150:4154   */\n  dup3\n    /* \"#utility.yul\":4144:4155   */\n  sload\n    /* \"#utility.yul\":4118:4156   */\n  tag_11\n  jump\t// in\ntag_78:\n    /* \"#utility.yul\":4203:4270   */\n  tag_79\n    /* \"#utility.yul\":4263:4269   */\n  dup3\n    /* \"#utility.yul\":4255:4261   */\n  dup3\n    /* \"#utility.yul\":4249:4253   */\n  dup6\n    /* \"#utility.yul\":4203:4270   */\n  tag_24\n  jump\t// in\ntag_79:\n    /* \"#utility.yul\":4297:4298   */\n  0x00\n    /* \"#utility.yul\":4321:4325   */\n  0x20\n    /* \"#utility.yul\":4308:4325   */\n  swap1\n  pop\n    /* \"#utility.yul\":4353:4355   */\n  0x1f\n    /* \"#utility.yul\":4345:4351   */\n  dup4\n    /* \"#utility.yul\":4342:4356   */\n  gt\n    /* \"#utility.yul\":4370:4371   */\n  0x01\n    /* \"#utility.yul\":4365:4983   */\n  dup2\n  eq\n  tag_81\n  jumpi\n    /* \"#utility.yul\":5027:5028   */\n  0x00\n    /* \"#utility.yul\":5044:5050   */\n  dup5\n    /* \"#utility.yul\":5041:5118   */\n  iszero\n  tag_82\n  jumpi\n    /* \"#utility.yul\":5093:5102   */\n  dup3\n    /* \"#utility.yul\":5088:5091   */\n  dup8\n    /* \"#utility.yul\":5084:5103   */\n  add\n    /* \"#utility.yul\":5078:5104   */\n  mload\n    /* \"#utility.yul\":5069:5104   */\n  swap1\n  pop\n    /* \"#utility.yul\":5041:5118   */\ntag_82:\n    /* \"#utility.yul\":5144:5211   */\n  tag_83\n    /* \"#utility.yul\":5204:5210   */\n  dup6\n    /* \"#utility.yul\":5197:5202   */\n  dup3\n    /* \"#utility.yul\":5144:5211   */\n  tag_27\n  jump\t// in\ntag_83:\n    /* \"#utility.yul\":5138:5142   */\n  dup7\n    /* \"#utility.yul\":5131:5212   */\n  sstore\n    /* \"#utility.yul\":5000:5222   */\n  pop\n    /* \"#utility.yul\":4335:5222   */\n  jump(tag_80)\n    /* \"#utility.yul\":4365:4983   */\ntag_81:\n    /* \"#utility.yul\":4417:4421   */\n  0x1f\n    /* \"#utility.yul\":4413:4422   */\n  not\n    /* \"#utility.yul\":4405:4411   */\n  dup5\n    /* \"#utility.yul\":4401:4423   */\n  and\n    /* \"#utility.yul\":4451:4488   */\n  tag_84\n    /* \"#utility.yul\":4483:4487   */\n  dup7\n    /* \"#utility.yul\":4451:4488   */\n  tag_12\n  jump\t// in\ntag_84:\n    /* \"#utility.yul\":4510:4511   */\n  0x00\n    /* \"#utility.yul\":4524:4732   */\ntag_85:\n    /* \"#utility.yul\":4538:4545   */\n  dup3\n    /* \"#utility.yul\":4535:4536   */\n  dup2\n    /* \"#utility.yul\":4532:4546   */\n  lt\n    /* \"#utility.yul\":4524:4732   */\n  iszero\n  tag_87\n  jumpi\n    /* \"#utility.yul\":4617:4626   */\n  dup5\n    /* \"#utility.yul\":4612:4615   */\n  dup10\n    /* \"#utility.yul\":4608:4627   */\n  add\n    /* \"#utility.yul\":4602:4628   */\n  mload\n    /* \"#utility.yul\":4594:4600   */\n  dup3\n    /* \"#utility.yul\":4587:4629   */\n  sstore\n    /* \"#utility.yul\":4668:4669   */\n  0x01\n    /* \"#utility.yul\":4660:4666   */\n  dup3\n    /* \"#utility.yul\":4656:4670   */\n  add\n    /* \"#utility.yul\":4646:4670   */\n  swap2\n  pop\n    /* \"#utility.yul\":4715:4717   */\n  0x20\n    /* \"#utility.yul\":4704:4713   */\n  dup6\n    /* \"#utility.yul\":4700:4718   */\n  add\n    /* \"#utility.yul\":4687:4718   */\n  swap5\n  pop\n    /* \"#utility.yul\":4561:4565   */\n  0x20\n    /* \"#utility.yul\":4558:4559   */\n  dup2\n    /* \"#utility.yul\":4554:4566   */\n  add\n    /* \"#utility.yul\":4549:4566   */\n  swap1\n  pop\n    /* \"#utility.yul\":4524:4732   */\n  jump(tag_85)\ntag_87:\n    /* \"#utility.yul\":4760:4766   */\n  dup7\n    /* \"#utility.yul\":4751:4758   */\n  dup4\n    /* \"#utility.yul\":4748:4767   */\n  lt\n    /* \"#utility.yul\":4745:4924   */\n  iszero\n  tag_88\n  jumpi\n    /* \"#utility.yul\":4818:4827   */\n  dup5\n    /* \"#utility.yul\":4813:4816   */\n  dup10\n    /* \"#utility.yul\":4809:4828   */\n  add\n    /* \"#utility.yul\":4803:4829   */\n  mload\n    /* \"#utility.yul\":4861:4909   */\n  tag_89\n    /* \"#utility.yul\":4903:4907   */\n  0x1f\n    /* \"#utility.yul\":4895:4901   */\n  dup10\n    /* \"#utility.yul\":4891:4908   */\n  and\n    /* \"#utility.yul\":4880:4889   */\n  dup3\n    /* \"#utility.yul\":4861:4909   */\n  tag_26\n  jump\t// in\ntag_89:\n    /* \"#utility.yul\":4853:4859   */\n  dup4\n    /* \"#utility.yul\":4846:4910   */\n  sstore\n    /* \"#utility.yul\":4768:4924   */\n  pop\n    /* \"#utility.yul\":4745:4924   */\ntag_88:\n    /* \"#utility.yul\":4970:4971   */\n  0x01\n    /* \"#utility.yul\":4966:4967   */\n  0x02\n    /* \"#utility.yul\":4958:4964   */\n  dup9\n    /* \"#utility.yul\":4954:4968   */\n  mul\n    /* \"#utility.yul\":4950:4972   */\n  add\n    /* \"#utility.yul\":4944:4948   */\n  dup9\n    /* \"#utility.yul\":4937:4973   */\n  sstore\n    /* \"#utility.yul\":4372:4983   */\n  pop\n  pop\n  pop\n    /* \"#utility.yul\":4335:5222   */\ntag_80:\n  pop\n    /* \"#utility.yul\":3925:5228   */\n  pop\n  pop\n  pop\n    /* \"#utility.yul\":3833:5228   */\n  pop\n  pop\n  jump\t// out\n    /* \"_16_\\xe6\\x95\\xb0\\xe6\\x8d\\xae\\xe7\\xb1\\xbb\\xe5\\x9e\\x8b_\\xe5\\xbc\\x95\\xe7\\x94\\xa8\\xe7\\xb1\\xbb\\xe5\\x9e\\x8b_\\xe7\\xbb\\x93\\xe6\\x9e\\x84\\xe4\\xbd\\x93.sol\":66:950  contract LearnStructs {... */\ntag_7:\n  dataSize(sub_0)\n  dup1\n  dataOffset(sub_0)\n  0x00\n  codecopy\n  0x00\n  return\nstop\n\nsub_0: assembly {\n        /* \"_16_\\xe6\\x95\\xb0\\xe6\\x8d\\xae\\xe7\\xb1\\xbb\\xe5\\x9e\\x8b_\\xe5\\xbc\\x95\\xe7\\x94\\xa8\\xe7\\xb1\\xbb\\xe5\\x9e\\x8b_\\xe7\\xbb\\x93\\xe6\\x9e\\x84\\xe4\\xbd\\x93.sol\":66:950  contract LearnStructs {... */\n      mstore(0x40, 0x80)\n      callvalue\n      dup1\n      iszero\n      tag_1\n      jumpi\n      0x00\n      dup1\n      revert\n    tag_1:\n      pop\n      jumpi(tag_2, lt(calldatasize, 0x04))\n      shr(0xe0, calldataload(0x00))\n      dup1\n      0x7b5f4eef\n      eq\n      tag_3\n      jumpi\n      dup1\n      0xbd8a7322\n      eq\n      tag_4\n      jumpi\n      dup1\n      0xf8a8fd6d\n      eq\n      tag_5\n      jumpi\n    tag_2:\n      0x00\n      dup1\n      revert\n        /* \"_16_\\xe6\\x95\\xb0\\xe6\\x8d\\xae\\xe7\\xb1\\xbb\\xe5\\x9e\\x8b_\\xe5\\xbc\\x95\\xe7\\x94\\xa8\\xe7\\xb1\\xbb\\xe5\\x9e\\x8b_\\xe7\\xbb\\x93\\xe6\\x9e\\x84\\xe4\\xbd\\x93.sol\":284:371  function getMovie () public view returns (Movie memory) {... */\n    tag_3:\n      tag_6\n      tag_7\n      jump\t// in\n    tag_6:\n      mload(0x40)\n      tag_8\n      swap2\n      swap1\n      tag_9\n      jump\t// in\n    tag_8:\n      mload(0x40)\n      dup1\n      swap2\n      sub\n      swap1\n      return\n        /* \"_16_\\xe6\\x95\\xb0\\xe6\\x8d\\xae\\xe7\\xb1\\xbb\\xe5\\x9e\\x8b_\\xe5\\xbc\\x95\\xe7\\x94\\xa8\\xe7\\xb1\\xbb\\xe5\\x9e\\x8b_\\xe7\\xbb\\x93\\xe6\\x9e\\x84\\xe4\\xbd\\x93.sol\":497:509  Tv public tv */\n    tag_4:\n      tag_10\n      tag_11\n      jump\t// in\n    tag_10:\n      mload(0x40)\n      tag_12\n      swap4\n      swap3\n      swap2\n      swap1\n      tag_13\n      jump\t// in\n    tag_12:\n      mload(0x40)\n      dup1\n      swap2\n      sub\n      swap1\n      return\n        /* \"_16_\\xe6\\x95\\xb0\\xe6\\x8d\\xae\\xe7\\xb1\\xbb\\xe5\\x9e\\x8b_\\xe5\\xbc\\x95\\xe7\\x94\\xa8\\xe7\\xb1\\xbb\\xe5\\x9e\\x8b_\\xe7\\xbb\\x93\\xe6\\x9e\\x84\\xe4\\xbd\\x93.sol\":605:947  function test() public returns (Tv memory, Tv memory) {... */\n    tag_5:\n      tag_14\n      tag_15\n      jump\t// in\n    tag_14:\n      mload(0x40)\n      tag_16\n      swap3\n      swap2\n      swap1\n      tag_17\n      jump\t// in\n    tag_16:\n      mload(0x40)\n      dup1\n      swap2\n      sub\n      swap1\n      return\n        /* \"_16_\\xe6\\x95\\xb0\\xe6\\x8d\\xae\\xe7\\xb1\\xbb\\xe5\\x9e\\x8b_\\xe5\\xbc\\x95\\xe7\\x94\\xa8\\xe7\\xb1\\xbb\\xe5\\x9e\\x8b_\\xe7\\xbb\\x93\\xe6\\x9e\\x84\\xe4\\xbd\\x93.sol\":284:371  function getMovie () public view returns (Movie memory) {... */\n    tag_7:\n        /* \"_16_\\xe6\\x95\\xb0\\xe6\\x8d\\xae\\xe7\\xb1\\xbb\\xe5\\x9e\\x8b_\\xe5\\xbc\\x95\\xe7\\x94\\xa8\\xe7\\xb1\\xbb\\xe5\\x9e\\x8b_\\xe7\\xbb\\x93\\xe6\\x9e\\x84\\xe4\\xbd\\x93.sol\":326:338  Movie memory */\n      tag_18\n      tag_19\n      jump\t// in\n    tag_18:\n        /* \"_16_\\xe6\\x95\\xb0\\xe6\\x8d\\xae\\xe7\\xb1\\xbb\\xe5\\x9e\\x8b_\\xe5\\xbc\\x95\\xe7\\x94\\xa8\\xe7\\xb1\\xbb\\xe5\\x9e\\x8b_\\xe7\\xbb\\x93\\xe6\\x9e\\x84\\xe4\\xbd\\x93.sol\":358:363  movie */\n      0x00\n        /* \"_16_\\xe6\\x95\\xb0\\xe6\\x8d\\xae\\xe7\\xb1\\xbb\\xe5\\x9e\\x8b_\\xe5\\xbc\\x95\\xe7\\x94\\xa8\\xe7\\xb1\\xbb\\xe5\\x9e\\x8b_\\xe7\\xbb\\x93\\xe6\\x9e\\x84\\xe4\\xbd\\x93.sol\":351:363  return movie */\n      mload(0x40)\n      dup1\n      0x60\n      add\n      0x40\n      mstore\n      swap1\n      dup2\n      0x00\n      dup3\n      add\n      dup1\n      sload\n      tag_21\n      swap1\n      tag_22\n      jump\t// in\n    tag_21:\n      dup1\n      0x1f\n      add\n      0x20\n      dup1\n      swap2\n      div\n      mul\n      0x20\n      add\n      mload(0x40)\n      swap1\n      dup2\n      add\n      0x40\n      mstore\n      dup1\n      swap3\n      swap2\n      swap1\n      dup2\n      dup2\n      mstore\n      0x20\n      add\n      dup3\n      dup1\n      sload\n      tag_23\n      swap1\n      tag_22\n      jump\t// in\n    tag_23:\n      dup1\n      iszero\n      tag_24\n      jumpi\n      dup1\n      0x1f\n      lt\n      tag_25\n      jumpi\n      0x0100\n      dup1\n      dup4\n      sload\n      div\n      mul\n      dup4\n      mstore\n      swap2\n      0x20\n      add\n      swap2\n      jump(tag_24)\n    tag_25:\n      dup3\n      add\n      swap2\n      swap1\n      0x00\n      mstore\n      keccak256(0x00, 0x20)\n      swap1\n    tag_26:\n      dup2\n      sload\n      dup2\n      mstore\n      swap1\n      0x01\n      add\n      swap1\n      0x20\n      add\n      dup1\n      dup4\n      gt\n      tag_26\n      jumpi\n      dup3\n      swap1\n      sub\n      0x1f\n      and\n      dup3\n      add\n      swap2\n    tag_24:\n      pop\n      pop\n      pop\n      pop\n      pop\n      dup2\n      mstore\n      0x20\n      add\n      0x01\n      dup3\n      add\n      dup1\n      sload\n      tag_27\n      swap1\n      tag_22\n      jump\t// in\n    tag_27:\n      dup1\n      0x1f\n      add\n      0x20\n      dup1\n      swap2\n      div\n      mul\n      0x20\n      add\n      mload(0x40)\n      swap1\n      dup2\n      add\n      0x40\n      mstore\n      dup1\n      swap3\n      swap2\n      swap1\n      dup2\n      dup2\n      mstore\n      0x20\n      add\n      dup3\n      dup1\n      sload\n      tag_28\n      swap1\n      tag_22\n      jump\t// in\n    tag_28:\n      dup1\n      iszero\n      tag_29\n      jumpi\n      dup1\n      0x1f\n      lt\n      tag_30\n      jumpi\n      0x0100\n      dup1\n      dup4\n      sload\n      div\n      mul\n      dup4\n      mstore\n      swap2\n      0x20\n      add\n      swap2\n      jump(tag_29)\n    tag_30:\n      dup3\n      add\n      swap2\n      swap1\n      0x00\n      mstore\n      keccak256(0x00, 0x20)\n      swap1\n    tag_31:\n      dup2\n      sload\n      dup2\n      mstore\n      swap1\n      0x01\n      add\n      swap1\n      0x20\n      add\n      dup1\n      dup4\n      gt\n      tag_31\n      jumpi\n      dup3\n      swap1\n      sub\n      0x1f\n      and\n      dup3\n      add\n      swap2\n    tag_29:\n      pop\n      pop\n      pop\n      pop\n      pop\n      dup2\n      mstore\n      0x20\n      add\n      0x02\n      dup3\n      add\n      sload\n      dup2\n      mstore\n      pop\n      pop\n      swap1\n      pop\n        /* \"_16_\\xe6\\x95\\xb0\\xe6\\x8d\\xae\\xe7\\xb1\\xbb\\xe5\\x9e\\x8b_\\xe5\\xbc\\x95\\xe7\\x94\\xa8\\xe7\\xb1\\xbb\\xe5\\x9e\\x8b_\\xe7\\xbb\\x93\\xe6\\x9e\\x84\\xe4\\xbd\\x93.sol\":284:371  function getMovie () public view returns (Movie memory) {... */\n      swap1\n      jump\t// out\n        /* \"_16_\\xe6\\x95\\xb0\\xe6\\x8d\\xae\\xe7\\xb1\\xbb\\xe5\\x9e\\x8b_\\xe5\\xbc\\x95\\xe7\\x94\\xa8\\xe7\\xb1\\xbb\\xe5\\x9e\\x8b_\\xe7\\xbb\\x93\\xe6\\x9e\\x84\\xe4\\xbd\\x93.sol\":497:509  Tv public tv */\n    tag_11:\n      0x03\n      dup1\n      0x00\n      add\n      dup1\n      sload\n      tag_32\n      swap1\n      tag_22\n      jump\t// in\n    tag_32:\n      dup1\n      0x1f\n      add\n      0x20\n      dup1\n      swap2\n      div\n      mul\n      0x20\n      add\n      mload(0x40)\n      swap1\n      dup2\n      add\n      0x40\n      mstore\n      dup1\n      swap3\n      swap2\n      swap1\n      dup2\n      dup2\n      mstore\n      0x20\n      add\n      dup3\n      dup1\n      sload\n      tag_33\n      swap1\n      tag_22\n      jump\t// in\n    tag_33:\n      dup1\n      iszero\n      tag_34\n      jumpi\n      dup1\n      0x1f\n      lt\n      tag_35\n      jumpi\n      0x0100\n      dup1\n      dup4\n      sload\n      div\n      mul\n      dup4\n      mstore\n      swap2\n      0x20\n      add\n      swap2\n      jump(tag_34)\n    tag_35:\n      dup3\n      add\n      swap2\n      swap1\n      0x00\n      mstore\n      keccak256(0x00, 0x20)\n      swap1\n    tag_36:\n      dup2\n      sload\n      dup2\n      mstore\n      swap1\n      0x01\n      add\n      swap1\n      0x20\n      add\n      dup1\n      dup4\n      gt\n      tag_36\n      jumpi\n      dup3\n      swap1\n      sub\n      0x1f\n      and\n      dup3\n      add\n      swap2\n    tag_34:\n      pop\n      pop\n      pop\n      pop\n      pop\n      swap1\n      dup1\n      0x01\n      add\n      dup1\n      sload\n      tag_37\n      swap1\n      tag_22\n      jump\t// in\n    tag_37:\n      dup1\n      0x1f\n      add\n      0x20\n      dup1\n      swap2\n      div\n      mul\n      0x20\n      add\n      mload(0x40)\n      swap1\n      dup2\n      add\n      0x40\n      mstore\n      dup1\n      swap3\n      swap2\n      swap1\n      dup2\n      dup2\n      mstore\n      0x20\n      add\n      dup3\n      dup1\n      sload\n      tag_38\n      swap1\n      tag_22\n      jump\t// in\n    tag_38:\n      dup1\n      iszero\n      tag_39\n      jumpi\n      dup1\n      0x1f\n      lt\n      tag_40\n      jumpi\n      0x0100\n      dup1\n      dup4\n      sload\n      div\n      mul\n      dup4\n      mstore\n      swap2\n      0x20\n      add\n      swap2\n      jump(tag_39)\n    tag_40:\n      dup3\n      add\n      swap2\n      swap1\n      0x00\n      mstore\n      keccak256(0x00, 0x20)\n      swap1\n    tag_41:\n      dup2\n      sload\n      dup2\n      mstore\n      swap1\n      0x01\n      add\n      swap1\n      0x20\n      add\n      dup1\n      dup4\n      gt\n      tag_41\n      jumpi\n      dup3\n      swap1\n      sub\n      0x1f\n      and\n      dup3\n      add\n      swap2\n    tag_39:\n      pop\n      pop\n      pop\n      pop\n      pop\n      swap1\n      dup1\n      0x02\n      add\n      sload\n      swap1\n      pop\n      dup4\n      jump\t// out\n        /* \"_16_\\xe6\\x95\\xb0\\xe6\\x8d\\xae\\xe7\\xb1\\xbb\\xe5\\x9e\\x8b_\\xe5\\xbc\\x95\\xe7\\x94\\xa8\\xe7\\xb1\\xbb\\xe5\\x9e\\x8b_\\xe7\\xbb\\x93\\xe6\\x9e\\x84\\xe4\\xbd\\x93.sol\":605:947  function test() public returns (Tv memory, Tv memory) {... */\n    tag_15:\n        /* \"_16_\\xe6\\x95\\xb0\\xe6\\x8d\\xae\\xe7\\xb1\\xbb\\xe5\\x9e\\x8b_\\xe5\\xbc\\x95\\xe7\\x94\\xa8\\xe7\\xb1\\xbb\\xe5\\x9e\\x8b_\\xe7\\xbb\\x93\\xe6\\x9e\\x84\\xe4\\xbd\\x93.sol\":637:646  Tv memory */\n      tag_42\n      tag_43\n      jump\t// in\n    tag_42:\n        /* \"_16_\\xe6\\x95\\xb0\\xe6\\x8d\\xae\\xe7\\xb1\\xbb\\xe5\\x9e\\x8b_\\xe5\\xbc\\x95\\xe7\\x94\\xa8\\xe7\\xb1\\xbb\\xe5\\x9e\\x8b_\\xe7\\xbb\\x93\\xe6\\x9e\\x84\\xe4\\xbd\\x93.sol\":648:657  Tv memory */\n      tag_44\n      tag_43\n      jump\t// in\n    tag_44:\n        /* \"_16_\\xe6\\x95\\xb0\\xe6\\x8d\\xae\\xe7\\xb1\\xbb\\xe5\\x9e\\x8b_\\xe5\\xbc\\x95\\xe7\\x94\\xa8\\xe7\\xb1\\xbb\\xe5\\x9e\\x8b_\\xe7\\xbb\\x93\\xe6\\x9e\\x84\\xe4\\xbd\\x93.sol\":670:681  Tv memory t */\n      0x00\n        /* \"_16_\\xe6\\x95\\xb0\\xe6\\x8d\\xae\\xe7\\xb1\\xbb\\xe5\\x9e\\x8b_\\xe5\\xbc\\x95\\xe7\\x94\\xa8\\xe7\\xb1\\xbb\\xe5\\x9e\\x8b_\\xe7\\xbb\\x93\\xe6\\x9e\\x84\\xe4\\xbd\\x93.sol\":684:722  Tv(\"test\", \"aaa\", 19, new string[](1)) */\n      mload(0x40)\n      dup1\n      0x80\n      add\n      0x40\n      mstore\n      dup1\n      mload(0x40)\n      dup1\n      0x40\n      add\n      0x40\n      mstore\n      dup1\n      0x04\n      dup2\n      mstore\n      0x20\n      add\n      0x7465737400000000000000000000000000000000000000000000000000000000\n      dup2\n      mstore\n      pop\n      dup2\n      mstore\n      0x20\n      add\n      mload(0x40)\n      dup1\n      0x40\n      add\n      0x40\n      mstore\n      dup1\n      0x03\n      dup2\n      mstore\n      0x20\n      add\n      0x6161610000000000000000000000000000000000000000000000000000000000\n      dup2\n      mstore\n      pop\n      dup2\n      mstore\n      0x20\n      add\n        /* \"_16_\\xe6\\x95\\xb0\\xe6\\x8d\\xae\\xe7\\xb1\\xbb\\xe5\\x9e\\x8b_\\xe5\\xbc\\x95\\xe7\\x94\\xa8\\xe7\\xb1\\xbb\\xe5\\x9e\\x8b_\\xe7\\xbb\\x93\\xe6\\x9e\\x84\\xe4\\xbd\\x93.sol\":702:704  19 */\n      0x13\n        /* \"_16_\\xe6\\x95\\xb0\\xe6\\x8d\\xae\\xe7\\xb1\\xbb\\xe5\\x9e\\x8b_\\xe5\\xbc\\x95\\xe7\\x94\\xa8\\xe7\\xb1\\xbb\\xe5\\x9e\\x8b_\\xe7\\xbb\\x93\\xe6\\x9e\\x84\\xe4\\xbd\\x93.sol\":684:722  Tv(\"test\", \"aaa\", 19, new string[](1)) */\n      dup2\n      mstore\n      0x20\n      add\n        /* \"_16_\\xe6\\x95\\xb0\\xe6\\x8d\\xae\\xe7\\xb1\\xbb\\xe5\\x9e\\x8b_\\xe5\\xbc\\x95\\xe7\\x94\\xa8\\xe7\\xb1\\xbb\\xe5\\x9e\\x8b_\\xe7\\xbb\\x93\\xe6\\x9e\\x84\\xe4\\xbd\\x93.sol\":719:720  1 */\n      0x01\n        /* \"_16_\\xe6\\x95\\xb0\\xe6\\x8d\\xae\\xe7\\xb1\\xbb\\xe5\\x9e\\x8b_\\xe5\\xbc\\x95\\xe7\\x94\\xa8\\xe7\\xb1\\xbb\\xe5\\x9e\\x8b_\\xe7\\xbb\\x93\\xe6\\x9e\\x84\\xe4\\xbd\\x93.sol\":706:721  new string[](1) */\n      0xffffffffffffffff\n      dup2\n      gt\n      iszero\n      tag_46\n      jumpi\n      tag_47\n      tag_48\n      jump\t// in\n    tag_47:\n    tag_46:\n      mload(0x40)\n      swap1\n      dup1\n      dup3\n      mstore\n      dup1\n      0x20\n      mul\n      0x20\n      add\n      dup3\n      add\n      0x40\n      mstore\n      dup1\n      iszero\n      tag_49\n      jumpi\n      dup2\n      0x20\n      add\n    tag_50:\n      0x60\n      dup2\n      mstore\n      0x20\n      add\n      swap1\n      0x01\n      swap1\n      sub\n      swap1\n      dup2\n      tag_50\n      jumpi\n      swap1\n      pop\n    tag_49:\n      pop\n        /* \"_16_\\xe6\\x95\\xb0\\xe6\\x8d\\xae\\xe7\\xb1\\xbb\\xe5\\x9e\\x8b_\\xe5\\xbc\\x95\\xe7\\x94\\xa8\\xe7\\xb1\\xbb\\xe5\\x9e\\x8b_\\xe7\\xbb\\x93\\xe6\\x9e\\x84\\xe4\\xbd\\x93.sol\":684:722  Tv(\"test\", \"aaa\", 19, new string[](1)) */\n      dup2\n      mstore\n      pop\n        /* \"_16_\\xe6\\x95\\xb0\\xe6\\x8d\\xae\\xe7\\xb1\\xbb\\xe5\\x9e\\x8b_\\xe5\\xbc\\x95\\xe7\\x94\\xa8\\xe7\\xb1\\xbb\\xe5\\x9e\\x8b_\\xe7\\xbb\\x93\\xe6\\x9e\\x84\\xe4\\xbd\\x93.sol\":670:722  Tv memory t = Tv(\"test\", \"aaa\", 19, new string[](1)) */\n      swap1\n      pop\n        /* \"_16_\\xe6\\x95\\xb0\\xe6\\x8d\\xae\\xe7\\xb1\\xbb\\xe5\\x9e\\x8b_\\xe5\\xbc\\x95\\xe7\\x94\\xa8\\xe7\\xb1\\xbb\\xe5\\x9e\\x8b_\\xe7\\xbb\\x93\\xe6\\x9e\\x84\\xe4\\xbd\\x93.sol\":733:756  t.maker[0] = \"zhangsan\" */\n      mload(0x40)\n      dup1\n      0x40\n      add\n      0x40\n      mstore\n      dup1\n      0x08\n      dup2\n      mstore\n      0x20\n      add\n      0x7a68616e6773616e000000000000000000000000000000000000000000000000\n      dup2\n      mstore\n      pop\n        /* \"_16_\\xe6\\x95\\xb0\\xe6\\x8d\\xae\\xe7\\xb1\\xbb\\xe5\\x9e\\x8b_\\xe5\\xbc\\x95\\xe7\\x94\\xa8\\xe7\\xb1\\xbb\\xe5\\x9e\\x8b_\\xe7\\xbb\\x93\\xe6\\x9e\\x84\\xe4\\xbd\\x93.sol\":733:734  t */\n      dup2\n        /* \"_16_\\xe6\\x95\\xb0\\xe6\\x8d\\xae\\xe7\\xb1\\xbb\\xe5\\x9e\\x8b_\\xe5\\xbc\\x95\\xe7\\x94\\xa8\\xe7\\xb1\\xbb\\xe5\\x9e\\x8b_\\xe7\\xbb\\x93\\xe6\\x9e\\x84\\xe4\\xbd\\x93.sol\":733:740  t.maker */\n      0x60\n      add\n      mload\n        /* \"_16_\\xe6\\x95\\xb0\\xe6\\x8d\\xae\\xe7\\xb1\\xbb\\xe5\\x9e\\x8b_\\xe5\\xbc\\x95\\xe7\\x94\\xa8\\xe7\\xb1\\xbb\\xe5\\x9e\\x8b_\\xe7\\xbb\\x93\\xe6\\x9e\\x84\\xe4\\xbd\\x93.sol\":741:742  0 */\n      0x00\n        /* \"_16_\\xe6\\x95\\xb0\\xe6\\x8d\\xae\\xe7\\xb1\\xbb\\xe5\\x9e\\x8b_\\xe5\\xbc\\x95\\xe7\\x94\\xa8\\xe7\\xb1\\xbb\\xe5\\x9e\\x8b_\\xe7\\xbb\\x93\\xe6\\x9e\\x84\\xe4\\xbd\\x93.sol\":733:743  t.maker[0] */\n      dup2\n      mload\n      dup2\n      lt\n      tag_51\n      jumpi\n      tag_52\n      tag_53\n      jump\t// in\n    tag_52:\n    tag_51:\n      0x20\n      mul\n      0x20\n      add\n      add\n        /* \"_16_\\xe6\\x95\\xb0\\xe6\\x8d\\xae\\xe7\\xb1\\xbb\\xe5\\x9e\\x8b_\\xe5\\xbc\\x95\\xe7\\x94\\xa8\\xe7\\xb1\\xbb\\xe5\\x9e\\x8b_\\xe7\\xbb\\x93\\xe6\\x9e\\x84\\xe4\\xbd\\x93.sol\":733:756  t.maker[0] = \"zhangsan\" */\n      dup2\n      swap1\n      mstore\n      pop\n        /* \"_16_\\xe6\\x95\\xb0\\xe6\\x8d\\xae\\xe7\\xb1\\xbb\\xe5\\x9e\\x8b_\\xe5\\xbc\\x95\\xe7\\x94\\xa8\\xe7\\xb1\\xbb\\xe5\\x9e\\x8b_\\xe7\\xbb\\x93\\xe6\\x9e\\x84\\xe4\\xbd\\x93.sol\":772:773  t */\n      dup1\n        /* \"_16_\\xe6\\x95\\xb0\\xe6\\x8d\\xae\\xe7\\xb1\\xbb\\xe5\\x9e\\x8b_\\xe5\\xbc\\x95\\xe7\\x94\\xa8\\xe7\\xb1\\xbb\\xe5\\x9e\\x8b_\\xe7\\xbb\\x93\\xe6\\x9e\\x84\\xe4\\xbd\\x93.sol\":767:769  tv */\n      0x03\n        /* \"_16_\\xe6\\x95\\xb0\\xe6\\x8d\\xae\\xe7\\xb1\\xbb\\xe5\\x9e\\x8b_\\xe5\\xbc\\x95\\xe7\\x94\\xa8\\xe7\\xb1\\xbb\\xe5\\x9e\\x8b_\\xe7\\xbb\\x93\\xe6\\x9e\\x84\\xe4\\xbd\\x93.sol\":767:773  tv = t */\n      0x00\n      dup3\n      add\n      mload\n      dup2\n      0x00\n      add\n      swap1\n      dup2\n      tag_54\n      swap2\n      swap1\n      tag_55\n      jump\t// in\n    tag_54:\n      pop\n      0x20\n      dup3\n      add\n      mload\n      dup2\n      0x01\n      add\n      swap1\n      dup2\n      tag_56\n      swap2\n      swap1\n      tag_55\n      jump\t// in\n    tag_56:\n      pop\n      0x40\n      dup3\n      add\n      mload\n      dup2\n      0x02\n      add\n      sstore\n      0x60\n      dup3\n      add\n      mload\n      dup2\n      0x03\n      add\n      swap1\n      dup1\n      mload\n      swap1\n      0x20\n      add\n      swap1\n      tag_57\n      swap3\n      swap2\n      swap1\n      tag_58\n      jump\t// in\n    tag_57:\n      pop\n      swap1\n      pop\n      pop\n        /* \"_16_\\xe6\\x95\\xb0\\xe6\\x8d\\xae\\xe7\\xb1\\xbb\\xe5\\x9e\\x8b_\\xe5\\xbc\\x95\\xe7\\x94\\xa8\\xe7\\xb1\\xbb\\xe5\\x9e\\x8b_\\xe7\\xbb\\x93\\xe6\\x9e\\x84\\xe4\\xbd\\x93.sol\":803:822  t.maker[0] = \"lisi\" */\n      mload(0x40)\n      dup1\n      0x40\n      add\n      0x40\n      mstore\n      dup1\n      0x04\n      dup2\n      mstore\n      0x20\n      add\n      0x6c69736900000000000000000000000000000000000000000000000000000000\n      dup2\n      mstore\n      pop\n        /* \"_16_\\xe6\\x95\\xb0\\xe6\\x8d\\xae\\xe7\\xb1\\xbb\\xe5\\x9e\\x8b_\\xe5\\xbc\\x95\\xe7\\x94\\xa8\\xe7\\xb1\\xbb\\xe5\\x9e\\x8b_\\xe7\\xbb\\x93\\xe6\\x9e\\x84\\xe4\\xbd\\x93.sol\":803:804  t */\n      dup2\n        /* \"_16_\\xe6\\x95\\xb0\\xe6\\x8d\\xae\\xe7\\xb1\\xbb\\xe5\\x9e\\x8b_\\xe5\\xbc\\x95\\xe7\\x94\\xa8\\xe7\\xb1\\xbb\\xe5\\x9e\\x8b_\\xe7\\xbb\\x93\\xe6\\x9e\\x84\\xe4\\xbd\\x93.sol\":803:810  t.maker */\n      0x60\n      add\n      mload\n        /* \"_16_\\xe6\\x95\\xb0\\xe6\\x8d\\xae\\xe7\\xb1\\xbb\\xe5\\x9e\\x8b_\\xe5\\xbc\\x95\\xe7\\x94\\xa8\\xe7\\xb1\\xbb\\xe5\\x9e\\x8b_\\xe7\\xbb\\x93\\xe6\\x9e\\x84\\xe4\\xbd\\x93.sol\":811:812  0 */\n      0x00\n        /* \"_16_\\xe6\\x95\\xb0\\xe6\\x8d\\xae\\xe7\\xb1\\xbb\\xe5\\x9e\\x8b_\\xe5\\xbc\\x95\\xe7\\x94\\xa8\\xe7\\xb1\\xbb\\xe5\\x9e\\x8b_\\xe7\\xbb\\x93\\xe6\\x9e\\x84\\xe4\\xbd\\x93.sol\":803:813  t.maker[0] */\n      dup2\n      mload\n      dup2\n      lt\n      tag_59\n      jumpi\n      tag_60\n      tag_53\n      jump\t// in\n    tag_60:\n    tag_59:\n      0x20\n      mul\n      0x20\n      add\n      add\n        /* \"_16_\\xe6\\x95\\xb0\\xe6\\x8d\\xae\\xe7\\xb1\\xbb\\xe5\\x9e\\x8b_\\xe5\\xbc\\x95\\xe7\\x94\\xa8\\xe7\\xb1\\xbb\\xe5\\x9e\\x8b_\\xe7\\xbb\\x93\\xe6\\x9e\\x84\\xe4\\xbd\\x93.sol\":803:822  t.maker[0] = \"lisi\" */\n      dup2\n      swap1\n      mstore\n      pop\n        /* \"_16_\\xe6\\x95\\xb0\\xe6\\x8d\\xae\\xe7\\xb1\\xbb\\xe5\\x9e\\x8b_\\xe5\\xbc\\x95\\xe7\\x94\\xa8\\xe7\\xb1\\xbb\\xe5\\x9e\\x8b_\\xe7\\xbb\\x93\\xe6\\x9e\\x84\\xe4\\xbd\\x93.sol\":833:851  t.title = \"title1\" */\n      mload(0x40)\n      dup1\n      0x40\n      add\n      0x40\n      mstore\n      dup1\n      0x06\n      dup2\n      mstore\n      0x20\n      add\n      0x7469746c65310000000000000000000000000000000000000000000000000000\n      dup2\n      mstore\n      pop\n        /* \"_16_\\xe6\\x95\\xb0\\xe6\\x8d\\xae\\xe7\\xb1\\xbb\\xe5\\x9e\\x8b_\\xe5\\xbc\\x95\\xe7\\x94\\xa8\\xe7\\xb1\\xbb\\xe5\\x9e\\x8b_\\xe7\\xbb\\x93\\xe6\\x9e\\x84\\xe4\\xbd\\x93.sol\":833:834  t */\n      dup2\n        /* \"_16_\\xe6\\x95\\xb0\\xe6\\x8d\\xae\\xe7\\xb1\\xbb\\xe5\\x9e\\x8b_\\xe5\\xbc\\x95\\xe7\\x94\\xa8\\xe7\\xb1\\xbb\\xe5\\x9e\\x8b_\\xe7\\xbb\\x93\\xe6\\x9e\\x84\\xe4\\xbd\\x93.sol\":833:840  t.title */\n      0x00\n      add\n        /* \"_16_\\xe6\\x95\\xb0\\xe6\\x8d\\xae\\xe7\\xb1\\xbb\\xe5\\x9e\\x8b_\\xe5\\xbc\\x95\\xe7\\x94\\xa8\\xe7\\xb1\\xbb\\xe5\\x9e\\x8b_\\xe7\\xbb\\x93\\xe6\\x9e\\x84\\xe4\\xbd\\x93.sol\":833:851  t.title = \"title1\" */\n      dup2\n      swap1\n      mstore\n      pop\n        /* \"_16_\\xe6\\x95\\xb0\\xe6\\x8d\\xae\\xe7\\xb1\\xbb\\xe5\\x9e\\x8b_\\xe5\\xbc\\x95\\xe7\\x94\\xa8\\xe7\\xb1\\xbb\\xe5\\x9e\\x8b_\\xe7\\xbb\\x93\\xe6\\x9e\\x84\\xe4\\xbd\\x93.sol\":873:875  tv */\n      0x03\n        /* \"_16_\\xe6\\x95\\xb0\\xe6\\x8d\\xae\\xe7\\xb1\\xbb\\xe5\\x9e\\x8b_\\xe5\\xbc\\x95\\xe7\\x94\\xa8\\xe7\\xb1\\xbb\\xe5\\x9e\\x8b_\\xe7\\xbb\\x93\\xe6\\x9e\\x84\\xe4\\xbd\\x93.sol\":877:878  t */\n      dup2\n        /* \"_16_\\xe6\\x95\\xb0\\xe6\\x8d\\xae\\xe7\\xb1\\xbb\\xe5\\x9e\\x8b_\\xe5\\xbc\\x95\\xe7\\x94\\xa8\\xe7\\xb1\\xbb\\xe5\\x9e\\x8b_\\xe7\\xbb\\x93\\xe6\\x9e\\x84\\xe4\\xbd\\x93.sol\":864:879  return  (tv, t) */\n      dup2\n      mload(0x40)\n      dup1\n      0x80\n      add\n      0x40\n      mstore\n      swap1\n      dup2\n      0x00\n      dup3\n      add\n      dup1\n      sload\n      tag_61\n      swap1\n      tag_22\n      jump\t// in\n    tag_61:\n      dup1\n      0x1f\n      add\n      0x20\n      dup1\n      swap2\n      div\n      mul\n      0x20\n      add\n      mload(0x40)\n      swap1\n      dup2\n      add\n      0x40\n      mstore\n      dup1\n      swap3\n      swap2\n      swap1\n      dup2\n      dup2\n      mstore\n      0x20\n      add\n      dup3\n      dup1\n      sload\n      tag_62\n      swap1\n      tag_22\n      jump\t// in\n    tag_62:\n      dup1\n      iszero\n      tag_63\n      jumpi\n      dup1\n      0x1f\n      lt\n      tag_64\n      jumpi\n      0x0100\n      dup1\n      dup4\n      sload\n      div\n      mul\n      dup4\n      mstore\n      swap2\n      0x20\n      add\n      swap2\n      jump(tag_63)\n    tag_64:\n      dup3\n      add\n      swap2\n      swap1\n      0x00\n      mstore\n      keccak256(0x00, 0x20)\n      swap1\n    tag_65:\n      dup2\n      sload\n      dup2\n      mstore\n      swap1\n      0x01\n      add\n      swap1\n      0x20\n      add\n      dup1\n      dup4\n      gt\n      tag_65\n      jumpi\n      dup3\n      swap1\n      sub\n      0x1f\n      and\n      dup3\n      add\n      swap2\n    tag_63:\n      pop\n      pop\n      pop\n      pop\n      pop\n      dup2\n      mstore\n      0x20\n      add\n      0x01\n      dup3\n      add\n      dup1\n      sload\n      tag_66\n      swap1\n      tag_22\n      jump\t// in\n    tag_66:\n      dup1\n      0x1f\n      add\n      0x20\n      dup1\n      swap2\n      div\n      mul\n      0x20\n      add\n      mload(0x40)\n      swap1\n      dup2\n      add\n      0x40\n      mstore\n      dup1\n      swap3\n      swap2\n      swap1\n      dup2\n      dup2\n      mstore\n      0x20\n      add\n      dup3\n      dup1\n      sload\n      tag_67\n      swap1\n      tag_22\n      jump\t// in\n    tag_67:\n      dup1\n      iszero\n      tag_68\n      jumpi\n      dup1\n      0x1f\n      lt\n      tag_69\n      jumpi\n      0x0100\n      dup1\n      dup4\n      sload\n      div\n      mul\n      dup4\n      mstore\n      swap2\n      0x20\n      add\n      swap2\n      jump(tag_68)\n    tag_69:\n      dup3\n      add\n      swap2\n      swap1\n      0x00\n      mstore\n      keccak256(0x00, 0x20)\n      swap1\n    tag_70:\n      dup2\n      sload\n      dup2\n      mstore\n      swap1\n      0x01\n      add\n      swap1\n      0x20\n      add\n      dup1\n      dup4\n      gt\n      tag_70\n      jumpi\n      dup3\n      swap1\n      sub\n      0x1f\n      and\n      dup3\n      add\n      swap2\n    tag_68:\n      pop\n      pop\n      pop\n      pop\n      pop\n      dup2\n      mstore\n      0x20\n      add\n      0x02\n      dup3\n      add\n      sload\n      dup2\n      mstore\n      0x20\n      add\n      0x03\n      dup3\n      add\n      dup1\n      sload\n      dup1\n      0x20\n      mul\n      0x20\n      add\n      mload(0x40)\n      swap1\n      dup2\n      add\n      0x40\n      mstore\n      dup1\n      swap3\n      swap2\n      swap1\n      dup2\n      dup2\n      mstore\n      0x20\n      add\n      0x00\n      swap1\n    tag_71:\n      dup3\n      dup3\n      lt\n      iszero\n      tag_72\n      jumpi\n      dup4\n      dup3\n      swap1\n      0x00\n      mstore\n      keccak256(0x00, 0x20)\n      add\n      dup1\n      sload\n      tag_74\n      swap1\n      tag_22\n      jump\t// in\n    tag_74:\n      dup1\n      0x1f\n      add\n      0x20\n      dup1\n      swap2\n      div\n      mul\n      0x20\n      add\n      mload(0x40)\n      swap1\n      dup2\n      add\n      0x40\n      mstore\n      dup1\n      swap3\n      swap2\n      swap1\n      dup2\n      dup2\n      mstore\n      0x20\n      add\n      dup3\n      dup1\n      sload\n      tag_75\n      swap1\n      tag_22\n      jump\t// in\n    tag_75:\n      dup1\n      iszero\n      tag_76\n      jumpi\n      dup1\n      0x1f\n      lt\n      tag_77\n      jumpi\n      0x0100\n      dup1\n      dup4\n      sload\n      div\n      mul\n      dup4\n      mstore\n      swap2\n      0x20\n      add\n      swap2\n      jump(tag_76)\n    tag_77:\n      dup3\n      add\n      swap2\n      swap1\n      0x00\n      mstore\n      keccak256(0x00, 0x20)\n      swap1\n    tag_78:\n      dup2\n      sload\n      dup2\n      mstore\n      swap1\n      0x01\n      add\n      swap1\n      0x20\n      add\n      dup1\n      dup4\n      gt\n      tag_78\n      jumpi\n      dup3\n      swap1\n      sub\n      0x1f\n      and\n      dup3\n      add\n      swap2\n    tag_76:\n      pop\n      pop\n      pop\n      pop\n      pop\n      dup2\n      mstore\n      0x20\n      add\n      swap1\n      0x01\n      add\n      swap1\n      jump(tag_71)\n    tag_72:\n      pop\n      pop\n      pop\n      pop\n      dup2\n      mstore\n      pop\n      pop\n      swap2\n      pop\n      swap3\n      pop\n      swap3\n      pop\n      pop\n        /* \"_16_\\xe6\\x95\\xb0\\xe6\\x8d\\xae\\xe7\\xb1\\xbb\\xe5\\x9e\\x8b_\\xe5\\xbc\\x95\\xe7\\x94\\xa8\\xe7\\xb1\\xbb\\xe5\\x9e\\x8b_\\xe7\\xbb\\x93\\xe6\\x9e\\x84\\xe4\\xbd\\x93.sol\":605:947  function test() public returns (Tv memory, Tv memory) {... */\n      swap1\n      swap2\n      jump\t// out\n    tag_19:\n      mload(0x40)\n      dup1\n      0x60\n      add\n      0x40\n      mstore\n      dup1\n      0x60\n      dup2\n      mstore\n      0x20\n      add\n      0x60\n      dup2\n      mstore\n      0x20\n      add\n      0x00\n      dup2\n      mstore\n      pop\n      swap1\n      jump\t// out\n    tag_43:\n      mload(0x40)\n      dup1\n      0x80\n      add\n      0x40\n      mstore\n      dup1\n      0x60\n      dup2\n      mstore\n      0x20\n      add\n      0x60\n      dup2\n      mstore\n      0x20\n      add\n      0x00\n      dup2\n      mstore\n      0x20\n      add\n      0x60\n      dup2\n      mstore\n      pop\n      swap1\n      jump\t// out\n    tag_58:\n      dup3\n      dup1\n      sload\n      dup3\n      dup3\n      sstore\n      swap1\n      0x00\n      mstore\n      keccak256(0x00, 0x20)\n      swap1\n      dup2\n      add\n      swap3\n      dup3\n      iszero\n      tag_79\n      jumpi\n      swap2\n      0x20\n      mul\n      dup3\n      add\n    tag_80:\n      dup3\n      dup2\n      gt\n      iszero\n      tag_81\n      jumpi\n      dup3\n      mload\n      dup3\n      swap1\n      dup2\n      tag_82\n      swap2\n      swap1\n      tag_55\n      jump\t// in\n    tag_82:\n      pop\n      swap2\n      0x20\n      add\n      swap2\n      swap1\n      0x01\n      add\n      swap1\n      jump(tag_80)\n    tag_81:\n    tag_79:\n      pop\n      swap1\n      pop\n      tag_83\n      swap2\n      swap1\n      tag_84\n      jump\t// in\n    tag_83:\n      pop\n      swap1\n      jump\t// out\n    tag_84:\n    tag_85:\n      dup1\n      dup3\n      gt\n      iszero\n      tag_86\n      jumpi\n      0x00\n      dup2\n      dup2\n      tag_87\n      swap2\n      swap1\n      tag_88\n      jump\t// in\n    tag_87:\n      pop\n      0x01\n      add\n      jump(tag_85)\n    tag_86:\n      pop\n      swap1\n      jump\t// out\n    tag_88:\n      pop\n      dup1\n      sload\n      tag_89\n      swap1\n      tag_22\n      jump\t// in\n    tag_89:\n      0x00\n      dup3\n      sstore\n      dup1\n      0x1f\n      lt\n      tag_91\n      jumpi\n      pop\n      jump(tag_90)\n    tag_91:\n      0x1f\n      add\n      0x20\n      swap1\n      div\n      swap1\n      0x00\n      mstore\n      keccak256(0x00, 0x20)\n      swap1\n      dup2\n      add\n      swap1\n      tag_92\n      swap2\n      swap1\n      tag_93\n      jump\t// in\n    tag_92:\n    tag_90:\n      pop\n      jump\t// out\n    tag_93:\n    tag_94:\n      dup1\n      dup3\n      gt\n      iszero\n      tag_95\n      jumpi\n      0x00\n      dup2\n      0x00\n      swap1\n      sstore\n      pop\n      0x01\n      add\n      jump(tag_94)\n    tag_95:\n      pop\n      swap1\n      jump\t// out\n        /* \"#utility.yul\":7:106   */\n    tag_96:\n        /* \"#utility.yul\":59:65   */\n      0x00\n        /* \"#utility.yul\":93:98   */\n      dup2\n        /* \"#utility.yul\":87:99   */\n      mload\n        /* \"#utility.yul\":77:99   */\n      swap1\n      pop\n        /* \"#utility.yul\":7:106   */\n      swap2\n      swap1\n      pop\n      jump\t// out\n        /* \"#utility.yul\":112:271   */\n    tag_97:\n        /* \"#utility.yul\":186:197   */\n      0x00\n        /* \"#utility.yul\":220:226   */\n      dup3\n        /* \"#utility.yul\":215:218   */\n      dup3\n        /* \"#utility.yul\":208:227   */\n      mstore\n        /* \"#utility.yul\":260:264   */\n      0x20\n        /* \"#utility.yul\":255:258   */\n      dup3\n        /* \"#utility.yul\":251:265   */\n      add\n        /* \"#utility.yul\":236:265   */\n      swap1\n      pop\n        /* \"#utility.yul\":112:271   */\n      swap3\n      swap2\n      pop\n      pop\n      jump\t// out\n        /* \"#utility.yul\":277:523   */\n    tag_98:\n        /* \"#utility.yul\":358:359   */\n      0x00\n        /* \"#utility.yul\":368:481   */\n    tag_134:\n        /* \"#utility.yul\":382:388   */\n      dup4\n        /* \"#utility.yul\":379:380   */\n      dup2\n        /* \"#utility.yul\":376:389   */\n      lt\n        /* \"#utility.yul\":368:481   */\n      iszero\n      tag_136\n      jumpi\n        /* \"#utility.yul\":467:468   */\n      dup1\n        /* \"#utility.yul\":462:465   */\n      dup3\n        /* \"#utility.yul\":458:469   */\n      add\n        /* \"#utility.yul\":452:470   */\n      mload\n        /* \"#utility.yul\":448:449   */\n      dup2\n        /* \"#utility.yul\":443:446   */\n      dup5\n        /* \"#utility.yul\":439:450   */\n      add\n        /* \"#utility.yul\":432:471   */\n      mstore\n        /* \"#utility.yul\":404:406   */\n      0x20\n        /* \"#utility.yul\":401:402   */\n      dup2\n        /* \"#utility.yul\":397:407   */\n      add\n        /* \"#utility.yul\":392:407   */\n      swap1\n      pop\n        /* \"#utility.yul\":368:481   */\n      jump(tag_134)\n    tag_136:\n        /* \"#utility.yul\":515:516   */\n      0x00\n        /* \"#utility.yul\":506:512   */\n      dup5\n        /* \"#utility.yul\":501:504   */\n      dup5\n        /* \"#utility.yul\":497:513   */\n      add\n        /* \"#utility.yul\":490:517   */\n      mstore\n        /* \"#utility.yul\":339:523   */\n      pop\n        /* \"#utility.yul\":277:523   */\n      pop\n      pop\n      pop\n      jump\t// out\n        /* \"#utility.yul\":529:631   */\n    tag_99:\n        /* \"#utility.yul\":570:576   */\n      0x00\n        /* \"#utility.yul\":621:623   */\n      0x1f\n        /* \"#utility.yul\":617:624   */\n      not\n        /* \"#utility.yul\":612:614   */\n      0x1f\n        /* \"#utility.yul\":605:610   */\n      dup4\n        /* \"#utility.yul\":601:615   */\n      add\n        /* \"#utility.yul\":597:625   */\n      and\n        /* \"#utility.yul\":587:625   */\n      swap1\n      pop\n        /* \"#utility.yul\":529:631   */\n      swap2\n      swap1\n      pop\n      jump\t// out\n        /* \"#utility.yul\":637:994   */\n    tag_100:\n        /* \"#utility.yul\":715:718   */\n      0x00\n        /* \"#utility.yul\":743:782   */\n      tag_139\n        /* \"#utility.yul\":776:781   */\n      dup3\n        /* \"#utility.yul\":743:782   */\n      tag_96\n      jump\t// in\n    tag_139:\n        /* \"#utility.yul\":798:859   */\n      tag_140\n        /* \"#utility.yul\":852:858   */\n      dup2\n        /* \"#utility.yul\":847:850   */\n      dup6\n        /* \"#utility.yul\":798:859   */\n      tag_97\n      jump\t// in\n    tag_140:\n        /* \"#utility.yul\":791:859   */\n      swap4\n      pop\n        /* \"#utility.yul\":868:933   */\n      tag_141\n        /* \"#utility.yul\":926:932   */\n      dup2\n        /* \"#utility.yul\":921:924   */\n      dup6\n        /* \"#utility.yul\":914:918   */\n      0x20\n        /* \"#utility.yul\":907:912   */\n      dup7\n        /* \"#utility.yul\":903:919   */\n      add\n        /* \"#utility.yul\":868:933   */\n      tag_98\n      jump\t// in\n    tag_141:\n        /* \"#utility.yul\":958:987   */\n      tag_142\n        /* \"#utility.yul\":980:986   */\n      dup2\n        /* \"#utility.yul\":958:987   */\n      tag_99\n      jump\t// in\n    tag_142:\n        /* \"#utility.yul\":953:956   */\n      dup5\n        /* \"#utility.yul\":949:988   */\n      add\n        /* \"#utility.yul\":942:988   */\n      swap2\n      pop\n        /* \"#utility.yul\":719:994   */\n      pop\n        /* \"#utility.yul\":637:994   */\n      swap3\n      swap2\n      pop\n      pop\n      jump\t// out\n        /* \"#utility.yul\":1000:1077   */\n    tag_101:\n        /* \"#utility.yul\":1037:1044   */\n      0x00\n        /* \"#utility.yul\":1066:1071   */\n      dup2\n        /* \"#utility.yul\":1055:1071   */\n      swap1\n      pop\n        /* \"#utility.yul\":1000:1077   */\n      swap2\n      swap1\n      pop\n      jump\t// out\n        /* \"#utility.yul\":1083:1191   */\n    tag_102:\n        /* \"#utility.yul\":1160:1184   */\n      tag_145\n        /* \"#utility.yul\":1178:1183   */\n      dup2\n        /* \"#utility.yul\":1160:1184   */\n      tag_101\n      jump\t// in\n    tag_145:\n        /* \"#utility.yul\":1155:1158   */\n      dup3\n        /* \"#utility.yul\":1148:1185   */\n      mstore\n        /* \"#utility.yul\":1083:1191   */\n      pop\n      pop\n      jump\t// out\n        /* \"#utility.yul\":1259:2103   */\n    tag_103:\n        /* \"#utility.yul\":1368:1371   */\n      0x00\n        /* \"#utility.yul\":1404:1408   */\n      0x60\n        /* \"#utility.yul\":1399:1402   */\n      dup4\n        /* \"#utility.yul\":1395:1409   */\n      add\n        /* \"#utility.yul\":1492:1496   */\n      0x00\n        /* \"#utility.yul\":1485:1490   */\n      dup4\n        /* \"#utility.yul\":1481:1497   */\n      add\n        /* \"#utility.yul\":1475:1498   */\n      mload\n        /* \"#utility.yul\":1545:1548   */\n      dup5\n        /* \"#utility.yul\":1539:1543   */\n      dup3\n        /* \"#utility.yul\":1535:1549   */\n      sub\n        /* \"#utility.yul\":1528:1532   */\n      0x00\n        /* \"#utility.yul\":1523:1526   */\n      dup7\n        /* \"#utility.yul\":1519:1533   */\n      add\n        /* \"#utility.yul\":1512:1550   */\n      mstore\n        /* \"#utility.yul\":1571:1644   */\n      tag_147\n        /* \"#utility.yul\":1639:1643   */\n      dup3\n        /* \"#utility.yul\":1625:1637   */\n      dup3\n        /* \"#utility.yul\":1571:1644   */\n      tag_100\n      jump\t// in\n    tag_147:\n        /* \"#utility.yul\":1563:1644   */\n      swap2\n      pop\n        /* \"#utility.yul\":1419:1655   */\n      pop\n        /* \"#utility.yul\":1741:1745   */\n      0x20\n        /* \"#utility.yul\":1734:1739   */\n      dup4\n        /* \"#utility.yul\":1730:1746   */\n      add\n        /* \"#utility.yul\":1724:1747   */\n      mload\n        /* \"#utility.yul\":1794:1797   */\n      dup5\n        /* \"#utility.yul\":1788:1792   */\n      dup3\n        /* \"#utility.yul\":1784:1798   */\n      sub\n        /* \"#utility.yul\":1777:1781   */\n      0x20\n        /* \"#utility.yul\":1772:1775   */\n      dup7\n        /* \"#utility.yul\":1768:1782   */\n      add\n        /* \"#utility.yul\":1761:1799   */\n      mstore\n        /* \"#utility.yul\":1820:1893   */\n      tag_148\n        /* \"#utility.yul\":1888:1892   */\n      dup3\n        /* \"#utility.yul\":1874:1886   */\n      dup3\n        /* \"#utility.yul\":1820:1893   */\n      tag_100\n      jump\t// in\n    tag_148:\n        /* \"#utility.yul\":1812:1893   */\n      swap2\n      pop\n        /* \"#utility.yul\":1665:1904   */\n      pop\n        /* \"#utility.yul\":1984:1988   */\n      0x40\n        /* \"#utility.yul\":1977:1982   */\n      dup4\n        /* \"#utility.yul\":1973:1989   */\n      add\n        /* \"#utility.yul\":1967:1990   */\n      mload\n        /* \"#utility.yul\":2003:2066   */\n      tag_149\n        /* \"#utility.yul\":2060:2064   */\n      0x40\n        /* \"#utility.yul\":2055:2058   */\n      dup7\n        /* \"#utility.yul\":2051:2065   */\n      add\n        /* \"#utility.yul\":2037:2049   */\n      dup3\n        /* \"#utility.yul\":2003:2066   */\n      tag_102\n      jump\t// in\n    tag_149:\n        /* \"#utility.yul\":1914:2076   */\n      pop\n        /* \"#utility.yul\":2093:2097   */\n      dup1\n        /* \"#utility.yul\":2086:2097   */\n      swap2\n      pop\n        /* \"#utility.yul\":1373:2103   */\n      pop\n        /* \"#utility.yul\":1259:2103   */\n      swap3\n      swap2\n      pop\n      pop\n      jump\t// out\n        /* \"#utility.yul\":2109:2462   */\n    tag_9:\n        /* \"#utility.yul\":2242:2246   */\n      0x00\n        /* \"#utility.yul\":2280:2282   */\n      0x20\n        /* \"#utility.yul\":2269:2278   */\n      dup3\n        /* \"#utility.yul\":2265:2283   */\n      add\n        /* \"#utility.yul\":2257:2283   */\n      swap1\n      pop\n        /* \"#utility.yul\":2329:2338   */\n      dup2\n        /* \"#utility.yul\":2323:2327   */\n      dup2\n        /* \"#utility.yul\":2319:2339   */\n      sub\n        /* \"#utility.yul\":2315:2316   */\n      0x00\n        /* \"#utility.yul\":2304:2313   */\n      dup4\n        /* \"#utility.yul\":2300:2317   */\n      add\n        /* \"#utility.yul\":2293:2340   */\n      mstore\n        /* \"#utility.yul\":2357:2455   */\n      tag_151\n        /* \"#utility.yul\":2450:2454   */\n      dup2\n        /* \"#utility.yul\":2441:2447   */\n      dup5\n        /* \"#utility.yul\":2357:2455   */\n      tag_103\n      jump\t// in\n    tag_151:\n        /* \"#utility.yul\":2349:2455   */\n      swap1\n      pop\n        /* \"#utility.yul\":2109:2462   */\n      swap3\n      swap2\n      pop\n      pop\n      jump\t// out\n        /* \"#utility.yul\":2468:2637   */\n    tag_104:\n        /* \"#utility.yul\":2552:2563   */\n      0x00\n        /* \"#utility.yul\":2586:2592   */\n      dup3\n        /* \"#utility.yul\":2581:2584   */\n      dup3\n        /* \"#utility.yul\":2574:2593   */\n      mstore\n        /* \"#utility.yul\":2626:2630   */\n      0x20\n        /* \"#utility.yul\":2621:2624   */\n      dup3\n        /* \"#utility.yul\":2617:2631   */\n      add\n        /* \"#utility.yul\":2602:2631   */\n      swap1\n      pop\n        /* \"#utility.yul\":2468:2637   */\n      swap3\n      swap2\n      pop\n      pop\n      jump\t// out\n        /* \"#utility.yul\":2643:3020   */\n    tag_105:\n        /* \"#utility.yul\":2731:2734   */\n      0x00\n        /* \"#utility.yul\":2759:2798   */\n      tag_154\n        /* \"#utility.yul\":2792:2797   */\n      dup3\n        /* \"#utility.yul\":2759:2798   */\n      tag_96\n      jump\t// in\n    tag_154:\n        /* \"#utility.yul\":2814:2885   */\n      tag_155\n        /* \"#utility.yul\":2878:2884   */\n      dup2\n        /* \"#utility.yul\":2873:2876   */\n      dup6\n        /* \"#utility.yul\":2814:2885   */\n      tag_104\n      jump\t// in\n    tag_155:\n        /* \"#utility.yul\":2807:2885   */\n      swap4\n      pop\n        /* \"#utility.yul\":2894:2959   */\n      tag_156\n        /* \"#utility.yul\":2952:2958   */\n      dup2\n        /* \"#utility.yul\":2947:2950   */\n      dup6\n        /* \"#utility.yul\":2940:2944   */\n      0x20\n        /* \"#utility.yul\":2933:2938   */\n      dup7\n        /* \"#utility.yul\":2929:2945   */\n      add\n        /* \"#utility.yul\":2894:2959   */\n      tag_98\n      jump\t// in\n    tag_156:\n        /* \"#utility.yul\":2984:3013   */\n      tag_157\n        /* \"#utility.yul\":3006:3012   */\n      dup2\n        /* \"#utility.yul\":2984:3013   */\n      tag_99\n      jump\t// in\n    tag_157:\n        /* \"#utility.yul\":2979:2982   */\n      dup5\n        /* \"#utility.yul\":2975:3014   */\n      add\n        /* \"#utility.yul\":2968:3014   */\n      swap2\n      pop\n        /* \"#utility.yul\":2735:3020   */\n      pop\n        /* \"#utility.yul\":2643:3020   */\n      swap3\n      swap2\n      pop\n      pop\n      jump\t// out\n        /* \"#utility.yul\":3026:3144   */\n    tag_106:\n        /* \"#utility.yul\":3113:3137   */\n      tag_159\n        /* \"#utility.yul\":3131:3136   */\n      dup2\n        /* \"#utility.yul\":3113:3137   */\n      tag_101\n      jump\t// in\n    tag_159:\n        /* \"#utility.yul\":3108:3111   */\n      dup3\n        /* \"#utility.yul\":3101:3138   */\n      mstore\n        /* \"#utility.yul\":3026:3144   */\n      pop\n      pop\n      jump\t// out\n        /* \"#utility.yul\":3150:3774   */\n    tag_13:\n        /* \"#utility.yul\":3339:3343   */\n      0x00\n        /* \"#utility.yul\":3377:3379   */\n      0x60\n        /* \"#utility.yul\":3366:3375   */\n      dup3\n        /* \"#utility.yul\":3362:3380   */\n      add\n        /* \"#utility.yul\":3354:3380   */\n      swap1\n      pop\n        /* \"#utility.yul\":3426:3435   */\n      dup2\n        /* \"#utility.yul\":3420:3424   */\n      dup2\n        /* \"#utility.yul\":3416:3436   */\n      sub\n        /* \"#utility.yul\":3412:3413   */\n      0x00\n        /* \"#utility.yul\":3401:3410   */\n      dup4\n        /* \"#utility.yul\":3397:3414   */\n      add\n        /* \"#utility.yul\":3390:3437   */\n      mstore\n        /* \"#utility.yul\":3454:3532   */\n      tag_161\n        /* \"#utility.yul\":3527:3531   */\n      dup2\n        /* \"#utility.yul\":3518:3524   */\n      dup7\n        /* \"#utility.yul\":3454:3532   */\n      tag_105\n      jump\t// in\n    tag_161:\n        /* \"#utility.yul\":3446:3532   */\n      swap1\n      pop\n        /* \"#utility.yul\":3579:3588   */\n      dup2\n        /* \"#utility.yul\":3573:3577   */\n      dup2\n        /* \"#utility.yul\":3569:3589   */\n      sub\n        /* \"#utility.yul\":3564:3566   */\n      0x20\n        /* \"#utility.yul\":3553:3562   */\n      dup4\n        /* \"#utility.yul\":3549:3567   */\n      add\n        /* \"#utility.yul\":3542:3590   */\n      mstore\n        /* \"#utility.yul\":3607:3685   */\n      tag_162\n        /* \"#utility.yul\":3680:3684   */\n      dup2\n        /* \"#utility.yul\":3671:3677   */\n      dup6\n        /* \"#utility.yul\":3607:3685   */\n      tag_105\n      jump\t// in\n    tag_162:\n        /* \"#utility.yul\":3599:3685   */\n      swap1\n      pop\n        /* \"#utility.yul\":3695:3767   */\n      tag_163\n        /* \"#utility.yul\":3763:3765   */\n      0x40\n        /* \"#utility.yul\":3752:3761   */\n      dup4\n        /* \"#utility.yul\":3748:3766   */\n      add\n        /* \"#utility.yul\":3739:3745   */\n      dup5\n        /* \"#utility.yul\":3695:3767   */\n      tag_106\n      jump\t// in\n    tag_163:\n        /* \"#utility.yul\":3150:3774   */\n      swap5\n      swap4\n      pop\n      pop\n      pop\n      pop\n      jump\t// out\n        /* \"#utility.yul\":3780:3904   */\n    tag_107:\n        /* \"#utility.yul\":3857:3863   */\n      0x00\n        /* \"#utility.yul\":3891:3896   */\n      dup2\n        /* \"#utility.yul\":3885:3897   */\n      mload\n        /* \"#utility.yul\":3875:3897   */\n      swap1\n      pop\n        /* \"#utility.yul\":3780:3904   */\n      swap2\n      swap1\n      pop\n      jump\t// out\n        /* \"#utility.yul\":3910:4094   */\n    tag_108:\n        /* \"#utility.yul\":4009:4020   */\n      0x00\n        /* \"#utility.yul\":4043:4049   */\n      dup3\n        /* \"#utility.yul\":4038:4041   */\n      dup3\n        /* \"#utility.yul\":4031:4050   */\n      mstore\n        /* \"#utility.yul\":4083:4087   */\n      0x20\n        /* \"#utility.yul\":4078:4081   */\n      dup3\n        /* \"#utility.yul\":4074:4088   */\n      add\n        /* \"#utility.yul\":4059:4088   */\n      swap1\n      pop\n        /* \"#utility.yul\":3910:4094   */\n      swap3\n      swap2\n      pop\n      pop\n      jump\t// out\n        /* \"#utility.yul\":4100:4242   */\n    tag_109:\n        /* \"#utility.yul\":4177:4181   */\n      0x00\n        /* \"#utility.yul\":4200:4203   */\n      dup2\n        /* \"#utility.yul\":4192:4203   */\n      swap1\n      pop\n        /* \"#utility.yul\":4230:4234   */\n      0x20\n        /* \"#utility.yul\":4225:4228   */\n      dup3\n        /* \"#utility.yul\":4221:4235   */\n      add\n        /* \"#utility.yul\":4213:4235   */\n      swap1\n      pop\n        /* \"#utility.yul\":4100:4242   */\n      swap2\n      swap1\n      pop\n      jump\t// out\n        /* \"#utility.yul\":4248:4444   */\n    tag_110:\n        /* \"#utility.yul\":4337:4347   */\n      0x00\n        /* \"#utility.yul\":4372:4438   */\n      tag_168\n        /* \"#utility.yul\":4434:4437   */\n      dup4\n        /* \"#utility.yul\":4426:4432   */\n      dup4\n        /* \"#utility.yul\":4372:4438   */\n      tag_100\n      jump\t// in\n    tag_168:\n        /* \"#utility.yul\":4358:4438   */\n      swap1\n      pop\n        /* \"#utility.yul\":4248:4444   */\n      swap3\n      swap2\n      pop\n      pop\n      jump\t// out\n        /* \"#utility.yul\":4450:4573   */\n    tag_111:\n        /* \"#utility.yul\":4530:4534   */\n      0x00\n        /* \"#utility.yul\":4562:4566   */\n      0x20\n        /* \"#utility.yul\":4557:4560   */\n      dup3\n        /* \"#utility.yul\":4553:4567   */\n      add\n        /* \"#utility.yul\":4545:4567   */\n      swap1\n      pop\n        /* \"#utility.yul\":4450:4573   */\n      swap2\n      swap1\n      pop\n      jump\t// out\n        /* \"#utility.yul\":4607:5578   */\n    tag_112:\n        /* \"#utility.yul\":4736:4739   */\n      0x00\n        /* \"#utility.yul\":4765:4829   */\n      tag_171\n        /* \"#utility.yul\":4823:4828   */\n      dup3\n        /* \"#utility.yul\":4765:4829   */\n      tag_107\n      jump\t// in\n    tag_171:\n        /* \"#utility.yul\":4845:4931   */\n      tag_172\n        /* \"#utility.yul\":4924:4930   */\n      dup2\n        /* \"#utility.yul\":4919:4922   */\n      dup6\n        /* \"#utility.yul\":4845:4931   */\n      tag_108\n      jump\t// in\n    tag_172:\n        /* \"#utility.yul\":4838:4931   */\n      swap4\n      pop\n        /* \"#utility.yul\":4957:4960   */\n      dup4\n        /* \"#utility.yul\":5002:5006   */\n      0x20\n        /* \"#utility.yul\":4994:5000   */\n      dup3\n        /* \"#utility.yul\":4990:5007   */\n      mul\n        /* \"#utility.yul\":4985:4988   */\n      dup6\n        /* \"#utility.yul\":4981:5008   */\n      add\n        /* \"#utility.yul\":5032:5098   */\n      tag_173\n        /* \"#utility.yul\":5092:5097   */\n      dup6\n        /* \"#utility.yul\":5032:5098   */\n      tag_109\n      jump\t// in\n    tag_173:\n        /* \"#utility.yul\":5121:5128   */\n      dup1\n        /* \"#utility.yul\":5152:5153   */\n      0x00\n        /* \"#utility.yul\":5137:5533   */\n    tag_174:\n        /* \"#utility.yul\":5162:5168   */\n      dup6\n        /* \"#utility.yul\":5159:5160   */\n      dup2\n        /* \"#utility.yul\":5156:5169   */\n      lt\n        /* \"#utility.yul\":5137:5533   */\n      iszero\n      tag_176\n      jumpi\n        /* \"#utility.yul\":5233:5242   */\n      dup5\n        /* \"#utility.yul\":5227:5231   */\n      dup5\n        /* \"#utility.yul\":5223:5243   */\n      sub\n        /* \"#utility.yul\":5218:5221   */\n      dup10\n        /* \"#utility.yul\":5211:5244   */\n      mstore\n        /* \"#utility.yul\":5284:5290   */\n      dup2\n        /* \"#utility.yul\":5278:5291   */\n      mload\n        /* \"#utility.yul\":5312:5396   */\n      tag_177\n        /* \"#utility.yul\":5391:5395   */\n      dup6\n        /* \"#utility.yul\":5376:5389   */\n      dup3\n        /* \"#utility.yul\":5312:5396   */\n      tag_110\n      jump\t// in\n    tag_177:\n        /* \"#utility.yul\":5304:5396   */\n      swap5\n      pop\n        /* \"#utility.yul\":5419:5489   */\n      tag_178\n        /* \"#utility.yul\":5482:5488   */\n      dup4\n        /* \"#utility.yul\":5419:5489   */\n      tag_111\n      jump\t// in\n    tag_178:\n        /* \"#utility.yul\":5409:5489   */\n      swap3\n      pop\n        /* \"#utility.yul\":5518:5522   */\n      0x20\n        /* \"#utility.yul\":5513:5516   */\n      dup11\n        /* \"#utility.yul\":5509:5523   */\n      add\n        /* \"#utility.yul\":5502:5523   */\n      swap10\n      pop\n        /* \"#utility.yul\":5197:5533   */\n      pop\n        /* \"#utility.yul\":5184:5185   */\n      0x01\n        /* \"#utility.yul\":5181:5182   */\n      dup2\n        /* \"#utility.yul\":5177:5186   */\n      add\n        /* \"#utility.yul\":5172:5186   */\n      swap1\n      pop\n        /* \"#utility.yul\":5137:5533   */\n      jump(tag_174)\n    tag_176:\n        /* \"#utility.yul\":5141:5155   */\n      pop\n        /* \"#utility.yul\":5549:5553   */\n      dup3\n        /* \"#utility.yul\":5542:5553   */\n      swap8\n      pop\n        /* \"#utility.yul\":5569:5572   */\n      dup8\n        /* \"#utility.yul\":5562:5572   */\n      swap6\n      pop\n        /* \"#utility.yul\":4741:5578   */\n      pop\n      pop\n      pop\n      pop\n      pop\n        /* \"#utility.yul\":4607:5578   */\n      swap3\n      swap2\n      pop\n      pop\n      jump\t// out\n        /* \"#utility.yul\":5640:6776   */\n    tag_113:\n        /* \"#utility.yul\":5745:5748   */\n      0x00\n        /* \"#utility.yul\":5781:5785   */\n      0x80\n        /* \"#utility.yul\":5776:5779   */\n      dup4\n        /* \"#utility.yul\":5772:5786   */\n      add\n        /* \"#utility.yul\":5869:5873   */\n      0x00\n        /* \"#utility.yul\":5862:5867   */\n      dup4\n        /* \"#utility.yul\":5858:5874   */\n      add\n        /* \"#utility.yul\":5852:5875   */\n      mload\n        /* \"#utility.yul\":5922:5925   */\n      dup5\n        /* \"#utility.yul\":5916:5920   */\n      dup3\n        /* \"#utility.yul\":5912:5926   */\n      sub\n        /* \"#utility.yul\":5905:5909   */\n      0x00\n        /* \"#utility.yul\":5900:5903   */\n      dup7\n        /* \"#utility.yul\":5896:5910   */\n      add\n        /* \"#utility.yul\":5889:5927   */\n      mstore\n        /* \"#utility.yul\":5948:6021   */\n      tag_180\n        /* \"#utility.yul\":6016:6020   */\n      dup3\n        /* \"#utility.yul\":6002:6014   */\n      dup3\n        /* \"#utility.yul\":5948:6021   */\n      tag_100\n      jump\t// in\n    tag_180:\n        /* \"#utility.yul\":5940:6021   */\n      swap2\n      pop\n        /* \"#utility.yul\":5796:6032   */\n      pop\n        /* \"#utility.yul\":6118:6122   */\n      0x20\n        /* \"#utility.yul\":6111:6116   */\n      dup4\n        /* \"#utility.yul\":6107:6123   */\n      add\n        /* \"#utility.yul\":6101:6124   */\n      mload\n        /* \"#utility.yul\":6171:6174   */\n      dup5\n        /* \"#utility.yul\":6165:6169   */\n      dup3\n        /* \"#utility.yul\":6161:6175   */\n      sub\n        /* \"#utility.yul\":6154:6158   */\n      0x20\n        /* \"#utility.yul\":6149:6152   */\n      dup7\n        /* \"#utility.yul\":6145:6159   */\n      add\n        /* \"#utility.yul\":6138:6176   */\n      mstore\n        /* \"#utility.yul\":6197:6270   */\n      tag_181\n        /* \"#utility.yul\":6265:6269   */\n      dup3\n        /* \"#utility.yul\":6251:6263   */\n      dup3\n        /* \"#utility.yul\":6197:6270   */\n      tag_100\n      jump\t// in\n    tag_181:\n        /* \"#utility.yul\":6189:6270   */\n      swap2\n      pop\n        /* \"#utility.yul\":6042:6281   */\n      pop\n        /* \"#utility.yul\":6361:6365   */\n      0x40\n        /* \"#utility.yul\":6354:6359   */\n      dup4\n        /* \"#utility.yul\":6350:6366   */\n      add\n        /* \"#utility.yul\":6344:6367   */\n      mload\n        /* \"#utility.yul\":6380:6443   */\n      tag_182\n        /* \"#utility.yul\":6437:6441   */\n      0x40\n        /* \"#utility.yul\":6432:6435   */\n      dup7\n        /* \"#utility.yul\":6428:6442   */\n      add\n        /* \"#utility.yul\":6414:6426   */\n      dup3\n        /* \"#utility.yul\":6380:6443   */\n      tag_102\n      jump\t// in\n    tag_182:\n        /* \"#utility.yul\":6291:6453   */\n      pop\n        /* \"#utility.yul\":6536:6540   */\n      0x60\n        /* \"#utility.yul\":6529:6534   */\n      dup4\n        /* \"#utility.yul\":6525:6541   */\n      add\n        /* \"#utility.yul\":6519:6542   */\n      mload\n        /* \"#utility.yul\":6589:6592   */\n      dup5\n        /* \"#utility.yul\":6583:6587   */\n      dup3\n        /* \"#utility.yul\":6579:6593   */\n      sub\n        /* \"#utility.yul\":6572:6576   */\n      0x60\n        /* \"#utility.yul\":6567:6570   */\n      dup7\n        /* \"#utility.yul\":6563:6577   */\n      add\n        /* \"#utility.yul\":6556:6594   */\n      mstore\n        /* \"#utility.yul\":6615:6738   */\n      tag_183\n        /* \"#utility.yul\":6733:6737   */\n      dup3\n        /* \"#utility.yul\":6719:6731   */\n      dup3\n        /* \"#utility.yul\":6615:6738   */\n      tag_112\n      jump\t// in\n    tag_183:\n        /* \"#utility.yul\":6607:6738   */\n      swap2\n      pop\n        /* \"#utility.yul\":6463:6749   */\n      pop\n        /* \"#utility.yul\":6766:6770   */\n      dup1\n        /* \"#utility.yul\":6759:6770   */\n      swap2\n      pop\n        /* \"#utility.yul\":5750:6776   */\n      pop\n        /* \"#utility.yul\":5640:6776   */\n      swap3\n      swap2\n      pop\n      pop\n      jump\t// out\n        /* \"#utility.yul\":6782:7360   */\n    tag_17:\n        /* \"#utility.yul\":6975:6979   */\n      0x00\n        /* \"#utility.yul\":7013:7015   */\n      0x40\n        /* \"#utility.yul\":7002:7011   */\n      dup3\n        /* \"#utility.yul\":6998:7016   */\n      add\n        /* \"#utility.yul\":6990:7016   */\n      swap1\n      pop\n        /* \"#utility.yul\":7062:7071   */\n      dup2\n        /* \"#utility.yul\":7056:7060   */\n      dup2\n        /* \"#utility.yul\":7052:7072   */\n      sub\n        /* \"#utility.yul\":7048:7049   */\n      0x00\n        /* \"#utility.yul\":7037:7046   */\n      dup4\n        /* \"#utility.yul\":7033:7050   */\n      add\n        /* \"#utility.yul\":7026:7073   */\n      mstore\n        /* \"#utility.yul\":7090:7184   */\n      tag_185\n        /* \"#utility.yul\":7179:7183   */\n      dup2\n        /* \"#utility.yul\":7170:7176   */\n      dup6\n        /* \"#utility.yul\":7090:7184   */\n      tag_113\n      jump\t// in\n    tag_185:\n        /* \"#utility.yul\":7082:7184   */\n      swap1\n      pop\n        /* \"#utility.yul\":7231:7240   */\n      dup2\n        /* \"#utility.yul\":7225:7229   */\n      dup2\n        /* \"#utility.yul\":7221:7241   */\n      sub\n        /* \"#utility.yul\":7216:7218   */\n      0x20\n        /* \"#utility.yul\":7205:7214   */\n      dup4\n        /* \"#utility.yul\":7201:7219   */\n      add\n        /* \"#utility.yul\":7194:7242   */\n      mstore\n        /* \"#utility.yul\":7259:7353   */\n      tag_186\n        /* \"#utility.yul\":7348:7352   */\n      dup2\n        /* \"#utility.yul\":7339:7345   */\n      dup5\n        /* \"#utility.yul\":7259:7353   */\n      tag_113\n      jump\t// in\n    tag_186:\n        /* \"#utility.yul\":7251:7353   */\n      swap1\n      pop\n        /* \"#utility.yul\":6782:7360   */\n      swap4\n      swap3\n      pop\n      pop\n      pop\n      jump\t// out\n        /* \"#utility.yul\":7366:7546   */\n    tag_114:\n        /* \"#utility.yul\":7414:7491   */\n      0x4e487b7100000000000000000000000000000000000000000000000000000000\n        /* \"#utility.yul\":7411:7412   */\n      0x00\n        /* \"#utility.yul\":7404:7492   */\n      mstore\n        /* \"#utility.yul\":7511:7515   */\n      0x22\n        /* \"#utility.yul\":7508:7509   */\n      0x04\n        /* \"#utility.yul\":7501:7516   */\n      mstore\n        /* \"#utility.yul\":7535:7539   */\n      0x24\n        /* \"#utility.yul\":7532:7533   */\n      0x00\n        /* \"#utility.yul\":7525:7540   */\n      revert\n        /* \"#utility.yul\":7552:7872   */\n    tag_22:\n        /* \"#utility.yul\":7596:7602   */\n      0x00\n        /* \"#utility.yul\":7633:7634   */\n      0x02\n        /* \"#utility.yul\":7627:7631   */\n      dup3\n        /* \"#utility.yul\":7623:7635   */\n      div\n        /* \"#utility.yul\":7613:7635   */\n      swap1\n      pop\n        /* \"#utility.yul\":7680:7681   */\n      0x01\n        /* \"#utility.yul\":7674:7678   */\n      dup3\n        /* \"#utility.yul\":7670:7682   */\n      and\n        /* \"#utility.yul\":7701:7719   */\n      dup1\n        /* \"#utility.yul\":7691:7772   */\n      tag_189\n      jumpi\n        /* \"#utility.yul\":7757:7761   */\n      0x7f\n        /* \"#utility.yul\":7749:7755   */\n      dup3\n        /* \"#utility.yul\":7745:7762   */\n      and\n        /* \"#utility.yul\":7735:7762   */\n      swap2\n      pop\n        /* \"#utility.yul\":7691:7772   */\n    tag_189:\n        /* \"#utility.yul\":7819:7821   */\n      0x20\n        /* \"#utility.yul\":7811:7817   */\n      dup3\n        /* \"#utility.yul\":7808:7822   */\n      lt\n        /* \"#utility.yul\":7788:7806   */\n      dup2\n        /* \"#utility.yul\":7785:7823   */\n      sub\n        /* \"#utility.yul\":7782:7866   */\n      tag_190\n      jumpi\n        /* \"#utility.yul\":7838:7856   */\n      tag_191\n      tag_114\n      jump\t// in\n    tag_191:\n        /* \"#utility.yul\":7782:7866   */\n    tag_190:\n        /* \"#utility.yul\":7603:7872   */\n      pop\n        /* \"#utility.yul\":7552:7872   */\n      swap2\n      swap1\n      pop\n      jump\t// out\n        /* \"#utility.yul\":7878:8058   */\n    tag_48:\n        /* \"#utility.yul\":7926:8003   */\n      0x4e487b7100000000000000000000000000000000000000000000000000000000\n        /* \"#utility.yul\":7923:7924   */\n      0x00\n        /* \"#utility.yul\":7916:8004   */\n      mstore\n        /* \"#utility.yul\":8023:8027   */\n      0x41\n        /* \"#utility.yul\":8020:8021   */\n      0x04\n        /* \"#utility.yul\":8013:8028   */\n      mstore\n        /* \"#utility.yul\":8047:8051   */\n      0x24\n        /* \"#utility.yul\":8044:8045   */\n      0x00\n        /* \"#utility.yul\":8037:8052   */\n      revert\n        /* \"#utility.yul\":8064:8244   */\n    tag_53:\n        /* \"#utility.yul\":8112:8189   */\n      0x4e487b7100000000000000000000000000000000000000000000000000000000\n        /* \"#utility.yul\":8109:8110   */\n      0x00\n        /* \"#utility.yul\":8102:8190   */\n      mstore\n        /* \"#utility.yul\":8209:8213   */\n      0x32\n        /* \"#utility.yul\":8206:8207   */\n      0x04\n        /* \"#utility.yul\":8199:8214   */\n      mstore\n        /* \"#utility.yul\":8233:8237   */\n      0x24\n        /* \"#utility.yul\":8230:8231   */\n      0x00\n        /* \"#utility.yul\":8223:8238   */\n      revert\n        /* \"#utility.yul\":8250:8391   */\n    tag_115:\n        /* \"#utility.yul\":8299:8303   */\n      0x00\n        /* \"#utility.yul\":8322:8325   */\n      dup2\n        /* \"#utility.yul\":8314:8325   */\n      swap1\n      pop\n        /* \"#utility.yul\":8345:8348   */\n      dup2\n        /* \"#utility.yul\":8342:8343   */\n      0x00\n        /* \"#utility.yul\":8335:8349   */\n      mstore\n        /* \"#utility.yul\":8379:8383   */\n      0x20\n        /* \"#utility.yul\":8376:8377   */\n      0x00\n        /* \"#utility.yul\":8366:8384   */\n      keccak256\n        /* \"#utility.yul\":8358:8384   */\n      swap1\n      pop\n        /* \"#utility.yul\":8250:8391   */\n      swap2\n      swap1\n      pop\n      jump\t// out\n        /* \"#utility.yul\":8397:8490   */\n    tag_116:\n        /* \"#utility.yul\":8434:8440   */\n      0x00\n        /* \"#utility.yul\":8481:8483   */\n      0x20\n        /* \"#utility.yul\":8476:8478   */\n      0x1f\n        /* \"#utility.yul\":8469:8474   */\n      dup4\n        /* \"#utility.yul\":8465:8479   */\n      add\n        /* \"#utility.yul\":8461:8484   */\n      div\n        /* \"#utility.yul\":8451:8484   */\n      swap1\n      pop\n        /* \"#utility.yul\":8397:8490   */\n      swap2\n      swap1\n      pop\n      jump\t// out\n        /* \"#utility.yul\":8496:8603   */\n    tag_117:\n        /* \"#utility.yul\":8540:8548   */\n      0x00\n        /* \"#utility.yul\":8590:8595   */\n      dup3\n        /* \"#utility.yul\":8584:8588   */\n      dup3\n        /* \"#utility.yul\":8580:8596   */\n      shl\n        /* \"#utility.yul\":8559:8596   */\n      swap1\n      pop\n        /* \"#utility.yul\":8496:8603   */\n      swap3\n      swap2\n      pop\n      pop\n      jump\t// out\n        /* \"#utility.yul\":8609:9002   */\n    tag_118:\n        /* \"#utility.yul\":8678:8684   */\n      0x00\n        /* \"#utility.yul\":8728:8729   */\n      0x08\n        /* \"#utility.yul\":8716:8726   */\n      dup4\n        /* \"#utility.yul\":8712:8730   */\n      mul\n        /* \"#utility.yul\":8751:8848   */\n      tag_198\n        /* \"#utility.yul\":8781:8847   */\n      0xffffffffffffffffffffffffffffffffffffffffffffffffffffffffffffffff\n        /* \"#utility.yul\":8770:8779   */\n      dup3\n        /* \"#utility.yul\":8751:8848   */\n      tag_117\n      jump\t// in\n    tag_198:\n        /* \"#utility.yul\":8869:8908   */\n      tag_199\n        /* \"#utility.yul\":8899:8907   */\n      dup7\n        /* \"#utility.yul\":8888:8897   */\n      dup4\n        /* \"#utility.yul\":8869:8908   */\n      tag_117\n      jump\t// in\n    tag_199:\n        /* \"#utility.yul\":8857:8908   */\n      swap6\n      pop\n        /* \"#utility.yul\":8941:8945   */\n      dup1\n        /* \"#utility.yul\":8937:8946   */\n      not\n        /* \"#utility.yul\":8930:8935   */\n      dup5\n        /* \"#utility.yul\":8926:8947   */\n      and\n        /* \"#utility.yul\":8917:8947   */\n      swap4\n      pop\n        /* \"#utility.yul\":8990:8994   */\n      dup1\n        /* \"#utility.yul\":8980:8988   */\n      dup7\n        /* \"#utility.yul\":8976:8995   */\n      and\n        /* \"#utility.yul\":8969:8974   */\n      dup5\n        /* \"#utility.yul\":8966:8996   */\n      or\n        /* \"#utility.yul\":8956:8996   */\n      swap3\n      pop\n        /* \"#utility.yul\":8685:9002   */\n      pop\n      pop\n        /* \"#utility.yul\":8609:9002   */\n      swap4\n      swap3\n      pop\n      pop\n      pop\n      jump\t// out\n        /* \"#utility.yul\":9008:9068   */\n    tag_119:\n        /* \"#utility.yul\":9036:9039   */\n      0x00\n        /* \"#utility.yul\":9057:9062   */\n      dup2\n        /* \"#utility.yul\":9050:9062   */\n      swap1\n      pop\n        /* \"#utility.yul\":9008:9068   */\n      swap2\n      swap1\n      pop\n      jump\t// out\n        /* \"#utility.yul\":9074:9216   */\n    tag_120:\n        /* \"#utility.yul\":9124:9133   */\n      0x00\n        /* \"#utility.yul\":9157:9210   */\n      tag_202\n        /* \"#utility.yul\":9175:9209   */\n      tag_203\n        /* \"#utility.yul\":9184:9208   */\n      tag_204\n        /* \"#utility.yul\":9202:9207   */\n      dup5\n        /* \"#utility.yul\":9184:9208   */\n      tag_101\n      jump\t// in\n    tag_204:\n        /* \"#utility.yul\":9175:9209   */\n      tag_119\n      jump\t// in\n    tag_203:\n        /* \"#utility.yul\":9157:9210   */\n      tag_101\n      jump\t// in\n    tag_202:\n        /* \"#utility.yul\":9144:9210   */\n      swap1\n      pop\n        /* \"#utility.yul\":9074:9216   */\n      swap2\n      swap1\n      pop\n      jump\t// out\n        /* \"#utility.yul\":9222:9297   */\n    tag_121:\n        /* \"#utility.yul\":9265:9268   */\n      0x00\n        /* \"#utility.yul\":9286:9291   */\n      dup2\n        /* \"#utility.yul\":9279:9291   */\n      swap1\n      pop\n        /* \"#utility.yul\":9222:9297   */\n      swap2\n      swap1\n      pop\n      jump\t// out\n        /* \"#utility.yul\":9303:9572   */\n    tag_122:\n        /* \"#utility.yul\":9413:9452   */\n      tag_207\n        /* \"#utility.yul\":9444:9451   */\n      dup4\n        /* \"#utility.yul\":9413:9452   */\n      tag_120\n      jump\t// in\n    tag_207:\n        /* \"#utility.yul\":9474:9565   */\n      tag_208\n        /* \"#utility.yul\":9523:9564   */\n      tag_209\n        /* \"#utility.yul\":9547:9563   */\n      dup3\n        /* \"#utility.yul\":9523:9564   */\n      tag_121\n      jump\t// in\n    tag_209:\n        /* \"#utility.yul\":9515:9521   */\n      dup5\n        /* \"#utility.yul\":9508:9512   */\n      dup5\n        /* \"#utility.yul\":9502:9513   */\n      sload\n        /* \"#utility.yul\":9474:9565   */\n      tag_118\n      jump\t// in\n    tag_208:\n        /* \"#utility.yul\":9468:9472   */\n      dup3\n        /* \"#utility.yul\":9461:9566   */\n      sstore\n        /* \"#utility.yul\":9379:9572   */\n      pop\n        /* \"#utility.yul\":9303:9572   */\n      pop\n      pop\n      pop\n      jump\t// out\n        /* \"#utility.yul\":9578:9651   */\n    tag_123:\n        /* \"#utility.yul\":9623:9626   */\n      0x00\n        /* \"#utility.yul\":9578:9651   */\n      swap1\n      jump\t// out\n        /* \"#utility.yul\":9657:9846   */\n    tag_124:\n        /* \"#utility.yul\":9734:9766   */\n      tag_212\n      tag_123\n      jump\t// in\n    tag_212:\n        /* \"#utility.yul\":9775:9840   */\n      tag_213\n        /* \"#utility.yul\":9833:9839   */\n      dup2\n        /* \"#utility.yul\":9825:9831   */\n      dup5\n        /* \"#utility.yul\":9819:9823   */\n      dup5\n        /* \"#utility.yul\":9775:9840   */\n      tag_122\n      jump\t// in\n    tag_213:\n        /* \"#utility.yul\":9710:9846   */\n      pop\n        /* \"#utility.yul\":9657:9846   */\n      pop\n      pop\n      jump\t// out\n        /* \"#utility.yul\":9852:10038   */\n    tag_125:\n        /* \"#utility.yul\":9912:10032   */\n    tag_215:\n        /* \"#utility.yul\":9929:9932   */\n      dup2\n        /* \"#utility.yul\":9922:9927   */\n      dup2\n        /* \"#utility.yul\":9919:9933   */\n      lt\n        /* \"#utility.yul\":9912:10032   */\n      iszero\n      tag_217\n      jumpi\n        /* \"#utility.yul\":9983:10022   */\n      tag_218\n        /* \"#utility.yul\":10020:10021   */\n      0x00\n        /* \"#utility.yul\":10013:10018   */\n      dup3\n        /* \"#utility.yul\":9983:10022   */\n      tag_124\n      jump\t// in\n    tag_218:\n        /* \"#utility.yul\":9956:9957   */\n      0x01\n        /* \"#utility.yul\":9949:9954   */\n      dup2\n        /* \"#utility.yul\":9945:9958   */\n      add\n        /* \"#utility.yul\":9936:9958   */\n      swap1\n      pop\n        /* \"#utility.yul\":9912:10032   */\n      jump(tag_215)\n    tag_217:\n        /* \"#utility.yul\":9852:10038   */\n      pop\n      pop\n      jump\t// out\n        /* \"#utility.yul\":10044:10587   */\n    tag_126:\n        /* \"#utility.yul\":10145:10147   */\n      0x1f\n        /* \"#utility.yul\":10140:10143   */\n      dup3\n        /* \"#utility.yul\":10137:10148   */\n      gt\n        /* \"#utility.yul\":10134:10580   */\n      iszero\n      tag_220\n      jumpi\n        /* \"#utility.yul\":10179:10217   */\n      tag_221\n        /* \"#utility.yul\":10211:10216   */\n      dup2\n        /* \"#utility.yul\":10179:10217   */\n      tag_115\n      jump\t// in\n    tag_221:\n        /* \"#utility.yul\":10263:10292   */\n      tag_222\n        /* \"#utility.yul\":10281:10291   */\n      dup5\n        /* \"#utility.yul\":10263:10292   */\n      tag_116\n      jump\t// in\n    tag_222:\n        /* \"#utility.yul\":10253:10261   */\n      dup2\n        /* \"#utility.yul\":10249:10293   */\n      add\n        /* \"#utility.yul\":10446:10448   */\n      0x20\n        /* \"#utility.yul\":10434:10444   */\n      dup6\n        /* \"#utility.yul\":10431:10449   */\n      lt\n        /* \"#utility.yul\":10428:10477   */\n      iszero\n      tag_223\n      jumpi\n        /* \"#utility.yul\":10467:10475   */\n      dup2\n        /* \"#utility.yul\":10452:10475   */\n      swap1\n      pop\n        /* \"#utility.yul\":10428:10477   */\n    tag_223:\n        /* \"#utility.yul\":10490:10570   */\n      tag_224\n        /* \"#utility.yul\":10546:10568   */\n      tag_225\n        /* \"#utility.yul\":10564:10567   */\n      dup6\n        /* \"#utility.yul\":10546:10568   */\n      tag_116\n      jump\t// in\n    tag_225:\n        /* \"#utility.yul\":10536:10544   */\n      dup4\n        /* \"#utility.yul\":10532:10569   */\n      add\n        /* \"#utility.yul\":10519:10530   */\n      dup3\n        /* \"#utility.yul\":10490:10570   */\n      tag_125\n      jump\t// in\n    tag_224:\n        /* \"#utility.yul\":10149:10580   */\n      pop\n      pop\n        /* \"#utility.yul\":10134:10580   */\n    tag_220:\n        /* \"#utility.yul\":10044:10587   */\n      pop\n      pop\n      pop\n      jump\t// out\n        /* \"#utility.yul\":10593:10710   */\n    tag_127:\n        /* \"#utility.yul\":10647:10655   */\n      0x00\n        /* \"#utility.yul\":10697:10702   */\n      dup3\n        /* \"#utility.yul\":10691:10695   */\n      dup3\n        /* \"#utility.yul\":10687:10703   */\n      shr\n        /* \"#utility.yul\":10666:10703   */\n      swap1\n      pop\n        /* \"#utility.yul\":10593:10710   */\n      swap3\n      swap2\n      pop\n      pop\n      jump\t// out\n        /* \"#utility.yul\":10716:10885   */\n    tag_128:\n        /* \"#utility.yul\":10760:10766   */\n      0x00\n        /* \"#utility.yul\":10793:10844   */\n      tag_228\n        /* \"#utility.yul\":10841:10842   */\n      0x00\n        /* \"#utility.yul\":10837:10843   */\n      not\n        /* \"#utility.yul\":10829:10834   */\n      dup5\n        /* \"#utility.yul\":10826:10827   */\n      0x08\n        /* \"#utility.yul\":10822:10835   */\n      mul\n        /* \"#utility.yul\":10793:10844   */\n      tag_127\n      jump\t// in\n    tag_228:\n        /* \"#utility.yul\":10789:10845   */\n      not\n        /* \"#utility.yul\":10874:10878   */\n      dup1\n        /* \"#utility.yul\":10868:10872   */\n      dup4\n        /* \"#utility.yul\":10864:10879   */\n      and\n        /* \"#utility.yul\":10854:10879   */\n      swap2\n      pop\n        /* \"#utility.yul\":10767:10885   */\n      pop\n        /* \"#utility.yul\":10716:10885   */\n      swap3\n      swap2\n      pop\n      pop\n      jump\t// out\n        /* \"#utility.yul\":10890:11185   */\n    tag_129:\n        /* \"#utility.yul\":10966:10970   */\n      0x00\n        /* \"#utility.yul\":11112:11141   */\n      tag_230\n        /* \"#utility.yul\":11137:11140   */\n      dup4\n        /* \"#utility.yul\":11131:11135   */\n      dup4\n        /* \"#utility.yul\":11112:11141   */\n      tag_128\n      jump\t// in\n    tag_230:\n        /* \"#utility.yul\":11104:11141   */\n      swap2\n      pop\n        /* \"#utility.yul\":11174:11177   */\n      dup3\n        /* \"#utility.yul\":11171:11172   */\n      0x02\n        /* \"#utility.yul\":11167:11178   */\n      mul\n        /* \"#utility.yul\":11161:11165   */\n      dup3\n        /* \"#utility.yul\":11158:11179   */\n      or\n        /* \"#utility.yul\":11150:11179   */\n      swap1\n      pop\n        /* \"#utility.yul\":10890:11185   */\n      swap3\n      swap2\n      pop\n      pop\n      jump\t// out\n        /* \"#utility.yul\":11190:12585   */\n    tag_55:\n        /* \"#utility.yul\":11307:11344   */\n      tag_232\n        /* \"#utility.yul\":11340:11343   */\n      dup3\n        /* \"#utility.yul\":11307:11344   */\n      tag_96\n      jump\t// in\n    tag_232:\n        /* \"#utility.yul\":11409:11427   */\n      0xffffffffffffffff\n        /* \"#utility.yul\":11401:11407   */\n      dup2\n        /* \"#utility.yul\":11398:11428   */\n      gt\n        /* \"#utility.yul\":11395:11451   */\n      iszero\n      tag_233\n      jumpi\n        /* \"#utility.yul\":11431:11449   */\n      tag_234\n      tag_48\n      jump\t// in\n    tag_234:\n        /* \"#utility.yul\":11395:11451   */\n    tag_233:\n        /* \"#utility.yul\":11475:11513   */\n      tag_235\n        /* \"#utility.yul\":11507:11511   */\n      dup3\n        /* \"#utility.yul\":11501:11512   */\n      sload\n        /* \"#utility.yul\":11475:11513   */\n      tag_22\n      jump\t// in\n    tag_235:\n        /* \"#utility.yul\":11560:11627   */\n      tag_236\n        /* \"#utility.yul\":11620:11626   */\n      dup3\n        /* \"#utility.yul\":11612:11618   */\n      dup3\n        /* \"#utility.yul\":11606:11610   */\n      dup6\n        /* \"#utility.yul\":11560:11627   */\n      tag_126\n      jump\t// in\n    tag_236:\n        /* \"#utility.yul\":11654:11655   */\n      0x00\n        /* \"#utility.yul\":11678:11682   */\n      0x20\n        /* \"#utility.yul\":11665:11682   */\n      swap1\n      pop\n        /* \"#utility.yul\":11710:11712   */\n      0x1f\n        /* \"#utility.yul\":11702:11708   */\n      dup4\n        /* \"#utility.yul\":11699:11713   */\n      gt\n        /* \"#utility.yul\":11727:11728   */\n      0x01\n        /* \"#utility.yul\":11722:12340   */\n      dup2\n      eq\n      tag_238\n      jumpi\n        /* \"#utility.yul\":12384:12385   */\n      0x00\n        /* \"#utility.yul\":12401:12407   */\n      dup5\n        /* \"#utility.yul\":12398:12475   */\n      iszero\n      tag_239\n      jumpi\n        /* \"#utility.yul\":12450:12459   */\n      dup3\n        /* \"#utility.yul\":12445:12448   */\n      dup8\n        /* \"#utility.yul\":12441:12460   */\n      add\n        /* \"#utility.yul\":12435:12461   */\n      mload\n        /* \"#utility.yul\":12426:12461   */\n      swap1\n      pop\n        /* \"#utility.yul\":12398:12475   */\n    tag_239:\n        /* \"#utility.yul\":12501:12568   */\n      tag_240\n        /* \"#utility.yul\":12561:12567   */\n      dup6\n        /* \"#utility.yul\":12554:12559   */\n      dup3\n        /* \"#utility.yul\":12501:12568   */\n      tag_129\n      jump\t// in\n    tag_240:\n        /* \"#utility.yul\":12495:12499   */\n      dup7\n        /* \"#utility.yul\":12488:12569   */\n      sstore\n        /* \"#utility.yul\":12357:12579   */\n      pop\n        /* \"#utility.yul\":11692:12579   */\n      jump(tag_237)\n        /* \"#utility.yul\":11722:12340   */\n    tag_238:\n        /* \"#utility.yul\":11774:11778   */\n      0x1f\n        /* \"#utility.yul\":11770:11779   */\n      not\n        /* \"#utility.yul\":11762:11768   */\n      dup5\n        /* \"#utility.yul\":11758:11780   */\n      and\n        /* \"#utility.yul\":11808:11845   */\n      tag_241\n        /* \"#utility.yul\":11840:11844   */\n      dup7\n        /* \"#utility.yul\":11808:11845   */\n      tag_115\n      jump\t// in\n    tag_241:\n        /* \"#utility.yul\":11867:11868   */\n      0x00\n        /* \"#utility.yul\":11881:12089   */\n    tag_242:\n        /* \"#utility.yul\":11895:11902   */\n      dup3\n        /* \"#utility.yul\":11892:11893   */\n      dup2\n        /* \"#utility.yul\":11889:11903   */\n      lt\n        /* \"#utility.yul\":11881:12089   */\n      iszero\n      tag_244\n      jumpi\n        /* \"#utility.yul\":11974:11983   */\n      dup5\n        /* \"#utility.yul\":11969:11972   */\n      dup10\n        /* \"#utility.yul\":11965:11984   */\n      add\n        /* \"#utility.yul\":11959:11985   */\n      mload\n        /* \"#utility.yul\":11951:11957   */\n      dup3\n        /* \"#utility.yul\":11944:11986   */\n      sstore\n        /* \"#utility.yul\":12025:12026   */\n      0x01\n        /* \"#utility.yul\":12017:12023   */\n      dup3\n        /* \"#utility.yul\":12013:12027   */\n      add\n        /* \"#utility.yul\":12003:12027   */\n      swap2\n      pop\n        /* \"#utility.yul\":12072:12074   */\n      0x20\n        /* \"#utility.yul\":12061:12070   */\n      dup6\n        /* \"#utility.yul\":12057:12075   */\n      add\n        /* \"#utility.yul\":12044:12075   */\n      swap5\n      pop\n        /* \"#utility.yul\":11918:11922   */\n      0x20\n        /* \"#utility.yul\":11915:11916   */\n      dup2\n        /* \"#utility.yul\":11911:11923   */\n      add\n        /* \"#utility.yul\":11906:11923   */\n      swap1\n      pop\n        /* \"#utility.yul\":11881:12089   */\n      jump(tag_242)\n    tag_244:\n        /* \"#utility.yul\":12117:12123   */\n      dup7\n        /* \"#utility.yul\":12108:12115   */\n      dup4\n        /* \"#utility.yul\":12105:12124   */\n      lt\n        /* \"#utility.yul\":12102:12281   */\n      iszero\n      tag_245\n      jumpi\n        /* \"#utility.yul\":12175:12184   */\n      dup5\n        /* \"#utility.yul\":12170:12173   */\n      dup10\n        /* \"#utility.yul\":12166:12185   */\n      add\n        /* \"#utility.yul\":12160:12186   */\n      mload\n        /* \"#utility.yul\":12218:12266   */\n      tag_246\n        /* \"#utility.yul\":12260:12264   */\n      0x1f\n        /* \"#utility.yul\":12252:12258   */\n      dup10\n        /* \"#utility.yul\":12248:12265   */\n      and\n        /* \"#utility.yul\":12237:12246   */\n      dup3\n        /* \"#utility.yul\":12218:12266   */\n      tag_128\n      jump\t// in\n    tag_246:\n        /* \"#utility.yul\":12210:12216   */\n      dup4\n        /* \"#utility.yul\":12203:12267   */\n      sstore\n        /* \"#utility.yul\":12125:12281   */\n      pop\n        /* \"#utility.yul\":12102:12281   */\n    tag_245:\n        /* \"#utility.yul\":12327:12328   */\n      0x01\n        /* \"#utility.yul\":12323:12324   */\n      0x02\n        /* \"#utility.yul\":12315:12321   */\n      dup9\n        /* \"#utility.yul\":12311:12325   */\n      mul\n        /* \"#utility.yul\":12307:12329   */\n      add\n        /* \"#utility.yul\":12301:12305   */\n      dup9\n        /* \"#utility.yul\":12294:12330   */\n      sstore\n        /* \"#utility.yul\":11729:12340   */\n      pop\n      pop\n      pop\n        /* \"#utility.yul\":11692:12579   */\n    tag_237:\n      pop\n        /* \"#utility.yul\":11282:12585   */\n      pop\n      pop\n      pop\n        /* \"#utility.yul\":11190:12585   */\n      pop\n      pop\n      jump\t// out\n\n    auxdata: 0xa2646970667358221220d81cd890acea1fd52ecae9c6bad00f3fedb1d612affe897998ffadc8403e5bf464736f6c63430008110033\n}\n",
				"bytecode": {
					"linkReferences": {},
					"object": "60806040523480156200001157600080fd5b5060405180606001604052806040518060400160405280600481526020017f786361640000000000000000000000000000000000000000000000000000000081525081526020016040518060400160405280600481526020017f73646661000000000000000000000000000000000000000000000000000000008152508152602001600c815250600080820151816000019081620000b0919062000356565b506020820151816001019081620000c8919062000356565b50604082015181600201559050506200043d565b600081519050919050565b7f4e487b7100000000000000000000000000000000000000000000000000000000600052604160045260246000fd5b7f4e487b7100000000000000000000000000000000000000000000000000000000600052602260045260246000fd5b600060028204905060018216806200015e57607f821691505b60208210810362000174576200017362000116565b5b50919050565b60008190508160005260206000209050919050565b60006020601f8301049050919050565b600082821b905092915050565b600060088302620001de7fffffffffffffffffffffffffffffffffffffffffffffffffffffffffffffffff826200019f565b620001ea86836200019f565b95508019841693508086168417925050509392505050565b6000819050919050565b6000819050919050565b600062000237620002316200022b8462000202565b6200020c565b62000202565b9050919050565b6000819050919050565b620002538362000216565b6200026b62000262826200023e565b848454620001ac565b825550505050565b600090565b6200028262000273565b6200028f81848462000248565b505050565b5b81811015620002b757620002ab60008262000278565b60018101905062000295565b5050565b601f8211156200030657620002d0816200017a565b620002db846200018f565b81016020851015620002eb578190505b62000303620002fa856200018f565b83018262000294565b50505b505050565b600082821c905092915050565b60006200032b600019846008026200030b565b1980831691505092915050565b600062000346838362000318565b9150826002028217905092915050565b6200036182620000dc565b67ffffffffffffffff8111156200037d576200037c620000e7565b5b62000389825462000145565b62000396828285620002bb565b600060209050601f831160018114620003ce5760008415620003b9578287015190505b620003c5858262000338565b86555062000435565b601f198416620003de866200017a565b60005b828110156200040857848901518255600182019150602085019450602081019050620003e1565b8683101562000428578489015162000424601f89168262000318565b8355505b6001600288020188555050505b505050505050565b610f2a806200044d6000396000f3fe608060405234801561001057600080fd5b50600436106100415760003560e01c80637b5f4eef14610046578063bd8a732214610064578063f8a8fd6d14610084575b600080fd5b61004e6100a3565b60405161005b919061098e565b60405180910390f35b61006c6101eb565b60405161007b93929190610a09565b60405180910390f35b61008c610313565b60405161009a929190610b81565b60405180910390f35b6100ab61076b565b60006040518060600160405290816000820180546100c890610be7565b80601f01602080910402602001604051908101604052809291908181526020018280546100f490610be7565b80156101415780601f1061011657610100808354040283529160200191610141565b820191906000526020600020905b81548152906001019060200180831161012457829003601f168201915b5050505050815260200160018201805461015a90610be7565b80601f016020809104026020016040519081016040528092919081815260200182805461018690610be7565b80156101d35780601f106101a8576101008083540402835291602001916101d3565b820191906000526020600020905b8154815290600101906020018083116101b657829003601f168201915b50505050508152602001600282015481525050905090565b60038060000180546101fc90610be7565b80601f016020809104026020016040519081016040528092919081815260200182805461022890610be7565b80156102755780601f1061024a57610100808354040283529160200191610275565b820191906000526020600020905b81548152906001019060200180831161025857829003601f168201915b50505050509080600101805461028a90610be7565b80601f01602080910402602001604051908101604052809291908181526020018280546102b690610be7565b80156103035780601f106102d857610100808354040283529160200191610303565b820191906000526020600020905b8154815290600101906020018083116102e657829003601f168201915b5050505050908060020154905083565b61031b61078c565b61032361078c565b600060405180608001604052806040518060400160405280600481526020017f746573740000000000000000000000000000000000000000000000000000000081525081526020016040518060400160405280600381526020017f6161610000000000000000000000000000000000000000000000000000000000815250815260200160138152602001600167ffffffffffffffff8111156103c8576103c7610c18565b5b6040519080825280602002602001820160405280156103fb57816020015b60608152602001906001900390816103e65790505b5081525090506040518060400160405280600881526020017f7a68616e6773616e000000000000000000000000000000000000000000000000815250816060015160008151811061044f5761044e610c47565b5b602002602001018190525080600360008201518160000190816104729190610e22565b5060208201518160010190816104889190610e22565b506040820151816002015560608201518160030190805190602001906104af9291906107b4565b509050506040518060400160405280600481526020017f6c69736900000000000000000000000000000000000000000000000000000000815250816060015160008151811061050157610500610c47565b5b60200260200101819052506040518060400160405280600681526020017f7469746c6531000000000000000000000000000000000000000000000000000081525081600001819052506003818160405180608001604052908160008201805461056990610be7565b80601f016020809104026020016040519081016040528092919081815260200182805461059590610be7565b80156105e25780601f106105b7576101008083540402835291602001916105e2565b820191906000526020600020905b8154815290600101906020018083116105c557829003601f168201915b505050505081526020016001820180546105fb90610be7565b80601f016020809104026020016040519081016040528092919081815260200182805461062790610be7565b80156106745780601f1061064957610100808354040283529160200191610674565b820191906000526020600020905b81548152906001019060200180831161065757829003601f168201915b505050505081526020016002820154815260200160038201805480602002602001604051908101604052809291908181526020016000905b828210156107585783829060005260206000200180546106cb90610be7565b80601f01602080910402602001604051908101604052809291908181526020018280546106f790610be7565b80156107445780601f1061071957610100808354040283529160200191610744565b820191906000526020600020905b81548152906001019060200180831161072757829003601f168201915b5050505050815260200190600101906106ac565b5050505081525050915092509250509091565b60405180606001604052806060815260200160608152602001600081525090565b6040518060800160405280606081526020016060815260200160008152602001606081525090565b8280548282559060005260206000209081019282156107fc579160200282015b828111156107fb5782518290816107eb9190610e22565b50916020019190600101906107d4565b5b509050610809919061080d565b5090565b5b8082111561082d57600081816108249190610831565b5060010161080e565b5090565b50805461083d90610be7565b6000825580601f1061084f575061086e565b601f01602090049060005260206000209081019061086d9190610871565b5b50565b5b8082111561088a576000816000905550600101610872565b5090565b600081519050919050565b600082825260208201905092915050565b60005b838110156108c85780820151818401526020810190506108ad565b60008484015250505050565b6000601f19601f8301169050919050565b60006108f08261088e565b6108fa8185610899565b935061090a8185602086016108aa565b610913816108d4565b840191505092915050565b6000819050919050565b6109318161091e565b82525050565b6000606083016000830151848203600086015261095482826108e5565b9150506020830151848203602086015261096e82826108e5565b91505060408301516109836040860182610928565b508091505092915050565b600060208201905081810360008301526109a88184610937565b905092915050565b600082825260208201905092915050565b60006109cc8261088e565b6109d681856109b0565b93506109e68185602086016108aa565b6109ef816108d4565b840191505092915050565b610a038161091e565b82525050565b60006060820190508181036000830152610a2381866109c1565b90508181036020830152610a3781856109c1565b9050610a4660408301846109fa565b949350505050565b600081519050919050565b600082825260208201905092915050565b6000819050602082019050919050565b6000610a8683836108e5565b905092915050565b6000602082019050919050565b6000610aa682610a4e565b610ab08185610a59565b935083602082028501610ac285610a6a565b8060005b85811015610afe5784840389528151610adf8582610a7a565b9450610aea83610a8e565b925060208a01995050600181019050610ac6565b50829750879550505050505092915050565b60006080830160008301518482036000860152610b2d82826108e5565b91505060208301518482036020860152610b4782826108e5565b9150506040830151610b5c6040860182610928565b5060608301518482036060860152610b748282610a9b565b9150508091505092915050565b60006040820190508181036000830152610b9b8185610b10565b90508181036020830152610baf8184610b10565b90509392505050565b7f4e487b7100000000000000000000000000000000000000000000000000000000600052602260045260246000fd5b60006002820490506001821680610bff57607f821691505b602082108103610c1257610c11610bb8565b5b50919050565b7f4e487b7100000000000000000000000000000000000000000000000000000000600052604160045260246000fd5b7f4e487b7100000000000000000000000000000000000000000000000000000000600052603260045260246000fd5b60008190508160005260206000209050919050565b60006020601f8301049050919050565b600082821b905092915050565b600060088302610cd87fffffffffffffffffffffffffffffffffffffffffffffffffffffffffffffffff82610c9b565b610ce28683610c9b565b95508019841693508086168417925050509392505050565b6000819050919050565b6000610d1f610d1a610d158461091e565b610cfa565b61091e565b9050919050565b6000819050919050565b610d3983610d04565b610d4d610d4582610d26565b848454610ca8565b825550505050565b600090565b610d62610d55565b610d6d818484610d30565b505050565b5b81811015610d9157610d86600082610d5a565b600181019050610d73565b5050565b601f821115610dd657610da781610c76565b610db084610c8b565b81016020851015610dbf578190505b610dd3610dcb85610c8b565b830182610d72565b50505b505050565b600082821c905092915050565b6000610df960001984600802610ddb565b1980831691505092915050565b6000610e128383610de8565b9150826002028217905092915050565b610e2b8261088e565b67ffffffffffffffff811115610e4457610e43610c18565b5b610e4e8254610be7565b610e59828285610d95565b600060209050601f831160018114610e8c5760008415610e7a578287015190505b610e848582610e06565b865550610eec565b601f198416610e9a86610c76565b60005b82811015610ec257848901518255600182019150602085019450602081019050610e9d565b86831015610edf5784890151610edb601f891682610de8565b8355505b6001600288020188555050505b50505050505056fea2646970667358221220d81cd890acea1fd52ecae9c6bad00f3fedb1d612affe897998ffadc8403e5bf464736f6c63430008110033",
					"opcodes": "PUSH1 0x80 PUSH1 0x40 MSTORE CALLVALUE DUP1 ISZERO PUSH3 0x11 JUMPI PUSH1 0x0 DUP1 REVERT JUMPDEST POP PUSH1 0x40 MLOAD DUP1 PUSH1 0x60 ADD PUSH1 0x40 MSTORE DUP1 PUSH1 0x40 MLOAD DUP1 PUSH1 0x40 ADD PUSH1 0x40 MSTORE DUP1 PUSH1 0x4 DUP2 MSTORE PUSH1 0x20 ADD PUSH32 0x7863616400000000000000000000000000000000000000000000000000000000 DUP2 MSTORE POP DUP2 MSTORE PUSH1 0x20 ADD PUSH1 0x40 MLOAD DUP1 PUSH1 0x40 ADD PUSH1 0x40 MSTORE DUP1 PUSH1 0x4 DUP2 MSTORE PUSH1 0x20 ADD PUSH32 0x7364666100000000000000000000000000000000000000000000000000000000 DUP2 MSTORE POP DUP2 MSTORE PUSH1 0x20 ADD PUSH1 0xC DUP2 MSTORE POP PUSH1 0x0 DUP1 DUP3 ADD MLOAD DUP2 PUSH1 0x0 ADD SWAP1 DUP2 PUSH3 0xB0 SWAP2 SWAP1 PUSH3 0x356 JUMP JUMPDEST POP PUSH1 0x20 DUP3 ADD MLOAD DUP2 PUSH1 0x1 ADD SWAP1 DUP2 PUSH3 0xC8 SWAP2 SWAP1 PUSH3 0x356 JUMP JUMPDEST POP PUSH1 0x40 DUP3 ADD MLOAD DUP2 PUSH1 0x2 ADD SSTORE SWAP1 POP POP PUSH3 0x43D JUMP JUMPDEST PUSH1 0x0 DUP2 MLOAD SWAP1 POP SWAP2 SWAP1 POP JUMP JUMPDEST PUSH32 0x4E487B7100000000000000000000000000000000000000000000000000000000 PUSH1 0x0 MSTORE PUSH1 0x41 PUSH1 0x4 MSTORE PUSH1 0x24 PUSH1 0x0 REVERT JUMPDEST PUSH32 0x4E487B7100000000000000000000000000000000000000000000000000000000 PUSH1 0x0 MSTORE PUSH1 0x22 PUSH1 0x4 MSTORE PUSH1 0x24 PUSH1 0x0 REVERT JUMPDEST PUSH1 0x0 PUSH1 0x2 DUP3 DIV SWAP1 POP PUSH1 0x1 DUP3 AND DUP1 PUSH3 0x15E JUMPI PUSH1 0x7F DUP3 AND SWAP2 POP JUMPDEST PUSH1 0x20 DUP3 LT DUP2 SUB PUSH3 0x174 JUMPI PUSH3 0x173 PUSH3 0x116 JUMP JUMPDEST JUMPDEST POP SWAP2 SWAP1 POP JUMP JUMPDEST PUSH1 0x0 DUP2 SWAP1 POP DUP2 PUSH1 0x0 MSTORE PUSH1 0x20 PUSH1 0x0 KECCAK256 SWAP1 POP SWAP2 SWAP1 POP JUMP JUMPDEST PUSH1 0x0 PUSH1 0x20 PUSH1 0x1F DUP4 ADD DIV SWAP1 POP SWAP2 SWAP1 POP JUMP JUMPDEST PUSH1 0x0 DUP3 DUP3 SHL SWAP1 POP SWAP3 SWAP2 POP POP JUMP JUMPDEST PUSH1 0x0 PUSH1 0x8 DUP4 MUL PUSH3 0x1DE PUSH32 0xFFFFFFFFFFFFFFFFFFFFFFFFFFFFFFFFFFFFFFFFFFFFFFFFFFFFFFFFFFFFFFFF DUP3 PUSH3 0x19F JUMP JUMPDEST PUSH3 0x1EA DUP7 DUP4 PUSH3 0x19F JUMP JUMPDEST SWAP6 POP DUP1 NOT DUP5 AND SWAP4 POP DUP1 DUP7 AND DUP5 OR SWAP3 POP POP POP SWAP4 SWAP3 POP POP POP JUMP JUMPDEST PUSH1 0x0 DUP2 SWAP1 POP SWAP2 SWAP1 POP JUMP JUMPDEST PUSH1 0x0 DUP2 SWAP1 POP SWAP2 SWAP1 POP JUMP JUMPDEST PUSH1 0x0 PUSH3 0x237 PUSH3 0x231 PUSH3 0x22B DUP5 PUSH3 0x202 JUMP JUMPDEST PUSH3 0x20C JUMP JUMPDEST PUSH3 0x202 JUMP JUMPDEST SWAP1 POP SWAP2 SWAP1 POP JUMP JUMPDEST PUSH1 0x0 DUP2 SWAP1 POP SWAP2 SWAP1 POP JUMP JUMPDEST PUSH3 0x253 DUP4 PUSH3 0x216 JUMP JUMPDEST PUSH3 0x26B PUSH3 0x262 DUP3 PUSH3 0x23E JUMP JUMPDEST DUP5 DUP5 SLOAD PUSH3 0x1AC JUMP JUMPDEST DUP3 SSTORE POP POP POP POP JUMP JUMPDEST PUSH1 0x0 SWAP1 JUMP JUMPDEST PUSH3 0x282 PUSH3 0x273 JUMP JUMPDEST PUSH3 0x28F DUP2 DUP5 DUP5 PUSH3 0x248 JUMP JUMPDEST POP POP POP JUMP JUMPDEST JUMPDEST DUP2 DUP2 LT ISZERO PUSH3 0x2B7 JUMPI PUSH3 0x2AB PUSH1 0x0 DUP3 PUSH3 0x278 JUMP JUMPDEST PUSH1 0x1 DUP2 ADD SWAP1 POP PUSH3 0x295 JUMP JUMPDEST POP POP JUMP JUMPDEST PUSH1 0x1F DUP3 GT ISZERO PUSH3 0x306 JUMPI PUSH3 0x2D0 DUP2 PUSH3 0x17A JUMP JUMPDEST PUSH3 0x2DB DUP5 PUSH3 0x18F JUMP JUMPDEST DUP2 ADD PUSH1 0x20 DUP6 LT ISZERO PUSH3 0x2EB JUMPI DUP2 SWAP1 POP JUMPDEST PUSH3 0x303 PUSH3 0x2FA DUP6 PUSH3 0x18F JUMP JUMPDEST DUP4 ADD DUP3 PUSH3 0x294 JUMP JUMPDEST POP POP JUMPDEST POP POP POP JUMP JUMPDEST PUSH1 0x0 DUP3 DUP3 SHR SWAP1 POP SWAP3 SWAP2 POP POP JUMP JUMPDEST PUSH1 0x0 PUSH3 0x32B PUSH1 0x0 NOT DUP5 PUSH1 0x8 MUL PUSH3 0x30B JUMP JUMPDEST NOT DUP1 DUP4 AND SWAP2 POP POP SWAP3 SWAP2 POP POP JUMP JUMPDEST PUSH1 0x0 PUSH3 0x346 DUP4 DUP4 PUSH3 0x318 JUMP JUMPDEST SWAP2 POP DUP3 PUSH1 0x2 MUL DUP3 OR SWAP1 POP SWAP3 SWAP2 POP POP JUMP JUMPDEST PUSH3 0x361 DUP3 PUSH3 0xDC JUMP JUMPDEST PUSH8 0xFFFFFFFFFFFFFFFF DUP2 GT ISZERO PUSH3 0x37D JUMPI PUSH3 0x37C PUSH3 0xE7 JUMP JUMPDEST JUMPDEST PUSH3 0x389 DUP3 SLOAD PUSH3 0x145 JUMP JUMPDEST PUSH3 0x396 DUP3 DUP3 DUP6 PUSH3 0x2BB JUMP JUMPDEST PUSH1 0x0 PUSH1 0x20 SWAP1 POP PUSH1 0x1F DUP4 GT PUSH1 0x1 DUP2 EQ PUSH3 0x3CE JUMPI PUSH1 0x0 DUP5 ISZERO PUSH3 0x3B9 JUMPI DUP3 DUP8 ADD MLOAD SWAP1 POP JUMPDEST PUSH3 0x3C5 DUP6 DUP3 PUSH3 0x338 JUMP JUMPDEST DUP7 SSTORE POP PUSH3 0x435 JUMP JUMPDEST PUSH1 0x1F NOT DUP5 AND PUSH3 0x3DE DUP7 PUSH3 0x17A JUMP JUMPDEST PUSH1 0x0 JUMPDEST DUP3 DUP2 LT ISZERO PUSH3 0x408 JUMPI DUP5 DUP10 ADD MLOAD DUP3 SSTORE PUSH1 0x1 DUP3 ADD SWAP2 POP PUSH1 0x20 DUP6 ADD SWAP5 POP PUSH1 0x20 DUP2 ADD SWAP1 POP PUSH3 0x3E1 JUMP JUMPDEST DUP7 DUP4 LT ISZERO PUSH3 0x428 JUMPI DUP5 DUP10 ADD MLOAD PUSH3 0x424 PUSH1 0x1F DUP10 AND DUP3 PUSH3 0x318 JUMP JUMPDEST DUP4 SSTORE POP JUMPDEST PUSH1 0x1 PUSH1 0x2 DUP9 MUL ADD DUP9 SSTORE POP POP POP JUMPDEST POP POP POP POP POP POP JUMP JUMPDEST PUSH2 0xF2A DUP1 PUSH3 0x44D PUSH1 0x0 CODECOPY PUSH1 0x0 RETURN INVALID PUSH1 0x80 PUSH1 0x40 MSTORE CALLVALUE DUP1 ISZERO PUSH2 0x10 JUMPI PUSH1 0x0 DUP1 REVERT JUMPDEST POP PUSH1 0x4 CALLDATASIZE LT PUSH2 0x41 JUMPI PUSH1 0x0 CALLDATALOAD PUSH1 0xE0 SHR DUP1 PUSH4 0x7B5F4EEF EQ PUSH2 0x46 JUMPI DUP1 PUSH4 0xBD8A7322 EQ PUSH2 0x64 JUMPI DUP1 PUSH4 0xF8A8FD6D EQ PUSH2 0x84 JUMPI JUMPDEST PUSH1 0x0 DUP1 REVERT JUMPDEST PUSH2 0x4E PUSH2 0xA3 JUMP JUMPDEST PUSH1 0x40 MLOAD PUSH2 0x5B SWAP2 SWAP1 PUSH2 0x98E JUMP JUMPDEST PUSH1 0x40 MLOAD DUP1 SWAP2 SUB SWAP1 RETURN JUMPDEST PUSH2 0x6C PUSH2 0x1EB JUMP JUMPDEST PUSH1 0x40 MLOAD PUSH2 0x7B SWAP4 SWAP3 SWAP2 SWAP1 PUSH2 0xA09 JUMP JUMPDEST PUSH1 0x40 MLOAD DUP1 SWAP2 SUB SWAP1 RETURN JUMPDEST PUSH2 0x8C PUSH2 0x313 JUMP JUMPDEST PUSH1 0x40 MLOAD PUSH2 0x9A SWAP3 SWAP2 SWAP1 PUSH2 0xB81 JUMP JUMPDEST PUSH1 0x40 MLOAD DUP1 SWAP2 SUB SWAP1 RETURN JUMPDEST PUSH2 0xAB PUSH2 0x76B JUMP JUMPDEST PUSH1 0x0 PUSH1 0x40 MLOAD DUP1 PUSH1 0x60 ADD PUSH1 0x40 MSTORE SWAP1 DUP2 PUSH1 0x0 DUP3 ADD DUP1 SLOAD PUSH2 0xC8 SWAP1 PUSH2 0xBE7 JUMP JUMPDEST DUP1 PUSH1 0x1F ADD PUSH1 0x20 DUP1 SWAP2 DIV MUL PUSH1 0x20 ADD PUSH1 0x40 MLOAD SWAP1 DUP2 ADD PUSH1 0x40 MSTORE DUP1 SWAP3 SWAP2 SWAP1 DUP2 DUP2 MSTORE PUSH1 0x20 ADD DUP3 DUP1 SLOAD PUSH2 0xF4 SWAP1 PUSH2 0xBE7 JUMP JUMPDEST DUP1 ISZERO PUSH2 0x141 JUMPI DUP1 PUSH1 0x1F LT PUSH2 0x116 JUMPI PUSH2 0x100 DUP1 DUP4 SLOAD DIV MUL DUP4 MSTORE SWAP2 PUSH1 0x20 ADD SWAP2 PUSH2 0x141 JUMP JUMPDEST DUP3 ADD SWAP2 SWAP1 PUSH1 0x0 MSTORE PUSH1 0x20 PUSH1 0x0 KECCAK256 SWAP1 JUMPDEST DUP2 SLOAD DUP2 MSTORE SWAP1 PUSH1 0x1 ADD SWAP1 PUSH1 0x20 ADD DUP1 DUP4 GT PUSH2 0x124 JUMPI DUP3 SWAP1 SUB PUSH1 0x1F AND DUP3 ADD SWAP2 JUMPDEST POP POP POP POP POP DUP2 MSTORE PUSH1 0x20 ADD PUSH1 0x1 DUP3 ADD DUP1 SLOAD PUSH2 0x15A SWAP1 PUSH2 0xBE7 JUMP JUMPDEST DUP1 PUSH1 0x1F ADD PUSH1 0x20 DUP1 SWAP2 DIV MUL PUSH1 0x20 ADD PUSH1 0x40 MLOAD SWAP1 DUP2 ADD PUSH1 0x40 MSTORE DUP1 SWAP3 SWAP2 SWAP1 DUP2 DUP2 MSTORE PUSH1 0x20 ADD DUP3 DUP1 SLOAD PUSH2 0x186 SWAP1 PUSH2 0xBE7 JUMP JUMPDEST DUP1 ISZERO PUSH2 0x1D3 JUMPI DUP1 PUSH1 0x1F LT PUSH2 0x1A8 JUMPI PUSH2 0x100 DUP1 DUP4 SLOAD DIV MUL DUP4 MSTORE SWAP2 PUSH1 0x20 ADD SWAP2 PUSH2 0x1D3 JUMP JUMPDEST DUP3 ADD SWAP2 SWAP1 PUSH1 0x0 MSTORE PUSH1 0x20 PUSH1 0x0 KECCAK256 SWAP1 JUMPDEST DUP2 SLOAD DUP2 MSTORE SWAP1 PUSH1 0x1 ADD SWAP1 PUSH1 0x20 ADD DUP1 DUP4 GT PUSH2 0x1B6 JUMPI DUP3 SWAP1 SUB PUSH1 0x1F AND DUP3 ADD SWAP2 JUMPDEST POP POP POP POP POP DUP2 MSTORE PUSH1 0x20 ADD PUSH1 0x2 DUP3 ADD SLOAD DUP2 MSTORE POP POP SWAP1 POP SWAP1 JUMP JUMPDEST PUSH1 0x3 DUP1 PUSH1 0x0 ADD DUP1 SLOAD PUSH2 0x1FC SWAP1 PUSH2 0xBE7 JUMP JUMPDEST DUP1 PUSH1 0x1F ADD PUSH1 0x20 DUP1 SWAP2 DIV MUL PUSH1 0x20 ADD PUSH1 0x40 MLOAD SWAP1 DUP2 ADD PUSH1 0x40 MSTORE DUP1 SWAP3 SWAP2 SWAP1 DUP2 DUP2 MSTORE PUSH1 0x20 ADD DUP3 DUP1 SLOAD PUSH2 0x228 SWAP1 PUSH2 0xBE7 JUMP JUMPDEST DUP1 ISZERO PUSH2 0x275 JUMPI DUP1 PUSH1 0x1F LT PUSH2 0x24A JUMPI PUSH2 0x100 DUP1 DUP4 SLOAD DIV MUL DUP4 MSTORE SWAP2 PUSH1 0x20 ADD SWAP2 PUSH2 0x275 JUMP JUMPDEST DUP3 ADD SWAP2 SWAP1 PUSH1 0x0 MSTORE PUSH1 0x20 PUSH1 0x0 KECCAK256 SWAP1 JUMPDEST DUP2 SLOAD DUP2 MSTORE SWAP1 PUSH1 0x1 ADD SWAP1 PUSH1 0x20 ADD DUP1 DUP4 GT PUSH2 0x258 JUMPI DUP3 SWAP1 SUB PUSH1 0x1F AND DUP3 ADD SWAP2 JUMPDEST POP POP POP POP POP SWAP1 DUP1 PUSH1 0x1 ADD DUP1 SLOAD PUSH2 0x28A SWAP1 PUSH2 0xBE7 JUMP JUMPDEST DUP1 PUSH1 0x1F ADD PUSH1 0x20 DUP1 SWAP2 DIV MUL PUSH1 0x20 ADD PUSH1 0x40 MLOAD SWAP1 DUP2 ADD PUSH1 0x40 MSTORE DUP1 SWAP3 SWAP2 SWAP1 DUP2 DUP2 MSTORE PUSH1 0x20 ADD DUP3 DUP1 SLOAD PUSH2 0x2B6 SWAP1 PUSH2 0xBE7 JUMP JUMPDEST DUP1 ISZERO PUSH2 0x303 JUMPI DUP1 PUSH1 0x1F LT PUSH2 0x2D8 JUMPI PUSH2 0x100 DUP1 DUP4 SLOAD DIV MUL DUP4 MSTORE SWAP2 PUSH1 0x20 ADD SWAP2 PUSH2 0x303 JUMP JUMPDEST DUP3 ADD SWAP2 SWAP1 PUSH1 0x0 MSTORE PUSH1 0x20 PUSH1 0x0 KECCAK256 SWAP1 JUMPDEST DUP2 SLOAD DUP2 MSTORE SWAP1 PUSH1 0x1 ADD SWAP1 PUSH1 0x20 ADD DUP1 DUP4 GT PUSH2 0x2E6 JUMPI DUP3 SWAP1 SUB PUSH1 0x1F AND DUP3 ADD SWAP2 JUMPDEST POP POP POP POP POP SWAP1 DUP1 PUSH1 0x2 ADD SLOAD SWAP1 POP DUP4 JUMP JUMPDEST PUSH2 0x31B PUSH2 0x78C JUMP JUMPDEST PUSH2 0x323 PUSH2 0x78C JUMP JUMPDEST PUSH1 0x0 PUSH1 0x40 MLOAD DUP1 PUSH1 0x80 ADD PUSH1 0x40 MSTORE DUP1 PUSH1 0x40 MLOAD DUP1 PUSH1 0x40 ADD PUSH1 0x40 MSTORE DUP1 PUSH1 0x4 DUP2 MSTORE PUSH1 0x20 ADD PUSH32 0x7465737400000000000000000000000000000000000000000000000000000000 DUP2 MSTORE POP DUP2 MSTORE PUSH1 0x20 ADD PUSH1 0x40 MLOAD DUP1 PUSH1 0x40 ADD PUSH1 0x40 MSTORE DUP1 PUSH1 0x3 DUP2 MSTORE PUSH1 0x20 ADD PUSH32 0x6161610000000000000000000000000000000000000000000000000000000000 DUP2 MSTORE POP DUP2 MSTORE PUSH1 0x20 ADD PUSH1 0x13 DUP2 MSTORE PUSH1 0x20 ADD PUSH1 0x1 PUSH8 0xFFFFFFFFFFFFFFFF DUP2 GT ISZERO PUSH2 0x3C8 JUMPI PUSH2 0x3C7 PUSH2 0xC18 JUMP JUMPDEST JUMPDEST PUSH1 0x40 MLOAD SWAP1 DUP1 DUP3 MSTORE DUP1 PUSH1 0x20 MUL PUSH1 0x20 ADD DUP3 ADD PUSH1 0x40 MSTORE DUP1 ISZERO PUSH2 0x3FB JUMPI DUP2 PUSH1 0x20 ADD JUMPDEST PUSH1 0x60 DUP2 MSTORE PUSH1 0x20 ADD SWAP1 PUSH1 0x1 SWAP1 SUB SWAP1 DUP2 PUSH2 0x3E6 JUMPI SWAP1 POP JUMPDEST POP DUP2 MSTORE POP SWAP1 POP PUSH1 0x40 MLOAD DUP1 PUSH1 0x40 ADD PUSH1 0x40 MSTORE DUP1 PUSH1 0x8 DUP2 MSTORE PUSH1 0x20 ADD PUSH32 0x7A68616E6773616E000000000000000000000000000000000000000000000000 DUP2 MSTORE POP DUP2 PUSH1 0x60 ADD MLOAD PUSH1 0x0 DUP2 MLOAD DUP2 LT PUSH2 0x44F JUMPI PUSH2 0x44E PUSH2 0xC47 JUMP JUMPDEST JUMPDEST PUSH1 0x20 MUL PUSH1 0x20 ADD ADD DUP2 SWAP1 MSTORE POP DUP1 PUSH1 0x3 PUSH1 0x0 DUP3 ADD MLOAD DUP2 PUSH1 0x0 ADD SWAP1 DUP2 PUSH2 0x472 SWAP2 SWAP1 PUSH2 0xE22 JUMP JUMPDEST POP PUSH1 0x20 DUP3 ADD MLOAD DUP2 PUSH1 0x1 ADD SWAP1 DUP2 PUSH2 0x488 SWAP2 SWAP1 PUSH2 0xE22 JUMP JUMPDEST POP PUSH1 0x40 DUP3 ADD MLOAD DUP2 PUSH1 0x2 ADD SSTORE PUSH1 0x60 DUP3 ADD MLOAD DUP2 PUSH1 0x3 ADD SWAP1 DUP1 MLOAD SWAP1 PUSH1 0x20 ADD SWAP1 PUSH2 0x4AF SWAP3 SWAP2 SWAP1 PUSH2 0x7B4 JUMP JUMPDEST POP SWAP1 POP POP PUSH1 0x40 MLOAD DUP1 PUSH1 0x40 ADD PUSH1 0x40 MSTORE DUP1 PUSH1 0x4 DUP2 MSTORE PUSH1 0x20 ADD PUSH32 0x6C69736900000000000000000000000000000000000000000000000000000000 DUP2 MSTORE POP DUP2 PUSH1 0x60 ADD MLOAD PUSH1 0x0 DUP2 MLOAD DUP2 LT PUSH2 0x501 JUMPI PUSH2 0x500 PUSH2 0xC47 JUMP JUMPDEST JUMPDEST PUSH1 0x20 MUL PUSH1 0x20 ADD ADD DUP2 SWAP1 MSTORE POP PUSH1 0x40 MLOAD DUP1 PUSH1 0x40 ADD PUSH1 0x40 MSTORE DUP1 PUSH1 0x6 DUP2 MSTORE PUSH1 0x20 ADD PUSH32 0x7469746C65310000000000000000000000000000000000000000000000000000 DUP2 MSTORE POP DUP2 PUSH1 0x0 ADD DUP2 SWAP1 MSTORE POP PUSH1 0x3 DUP2 DUP2 PUSH1 0x40 MLOAD DUP1 PUSH1 0x80 ADD PUSH1 0x40 MSTORE SWAP1 DUP2 PUSH1 0x0 DUP3 ADD DUP1 SLOAD PUSH2 0x569 SWAP1 PUSH2 0xBE7 JUMP JUMPDEST DUP1 PUSH1 0x1F ADD PUSH1 0x20 DUP1 SWAP2 DIV MUL PUSH1 0x20 ADD PUSH1 0x40 MLOAD SWAP1 DUP2 ADD PUSH1 0x40 MSTORE DUP1 SWAP3 SWAP2 SWAP1 DUP2 DUP2 MSTORE PUSH1 0x20 ADD DUP3 DUP1 SLOAD PUSH2 0x595 SWAP1 PUSH2 0xBE7 JUMP JUMPDEST DUP1 ISZERO PUSH2 0x5E2 JUMPI DUP1 PUSH1 0x1F LT PUSH2 0x5B7 JUMPI PUSH2 0x100 DUP1 DUP4 SLOAD DIV MUL DUP4 MSTORE SWAP2 PUSH1 0x20 ADD SWAP2 PUSH2 0x5E2 JUMP JUMPDEST DUP3 ADD SWAP2 SWAP1 PUSH1 0x0 MSTORE PUSH1 0x20 PUSH1 0x0 KECCAK256 SWAP1 JUMPDEST DUP2 SLOAD DUP2 MSTORE SWAP1 PUSH1 0x1 ADD SWAP1 PUSH1 0x20 ADD DUP1 DUP4 GT PUSH2 0x5C5 JUMPI DUP3 SWAP1 SUB PUSH1 0x1F AND DUP3 ADD SWAP2 JUMPDEST POP POP POP POP POP DUP2 MSTORE PUSH1 0x20 ADD PUSH1 0x1 DUP3 ADD DUP1 SLOAD PUSH2 0x5FB SWAP1 PUSH2 0xBE7 JUMP JUMPDEST DUP1 PUSH1 0x1F ADD PUSH1 0x20 DUP1 SWAP2 DIV MUL PUSH1 0x20 ADD PUSH1 0x40 MLOAD SWAP1 DUP2 ADD PUSH1 0x40 MSTORE DUP1 SWAP3 SWAP2 SWAP1 DUP2 DUP2 MSTORE PUSH1 0x20 ADD DUP3 DUP1 SLOAD PUSH2 0x627 SWAP1 PUSH2 0xBE7 JUMP JUMPDEST DUP1 ISZERO PUSH2 0x674 JUMPI DUP1 PUSH1 0x1F LT PUSH2 0x649 JUMPI PUSH2 0x100 DUP1 DUP4 SLOAD DIV MUL DUP4 MSTORE SWAP2 PUSH1 0x20 ADD SWAP2 PUSH2 0x674 JUMP JUMPDEST DUP3 ADD SWAP2 SWAP1 PUSH1 0x0 MSTORE PUSH1 0x20 PUSH1 0x0 KECCAK256 SWAP1 JUMPDEST DUP2 SLOAD DUP2 MSTORE SWAP1 PUSH1 0x1 ADD SWAP1 PUSH1 0x20 ADD DUP1 DUP4 GT PUSH2 0x657 JUMPI DUP3 SWAP1 SUB PUSH1 0x1F AND DUP3 ADD SWAP2 JUMPDEST POP POP POP POP POP DUP2 MSTORE PUSH1 0x20 ADD PUSH1 0x2 DUP3 ADD SLOAD DUP2 MSTORE PUSH1 0x20 ADD PUSH1 0x3 DUP3 ADD DUP1 SLOAD DUP1 PUSH1 0x20 MUL PUSH1 0x20 ADD PUSH1 0x40 MLOAD SWAP1 DUP2 ADD PUSH1 0x40 MSTORE DUP1 SWAP3 SWAP2 SWAP1 DUP2 DUP2 MSTORE PUSH1 0x20 ADD PUSH1 0x0 SWAP1 JUMPDEST DUP3 DUP3 LT ISZERO PUSH2 0x758 JUMPI DUP4 DUP3 SWAP1 PUSH1 0x0 MSTORE PUSH1 0x20 PUSH1 0x0 KECCAK256 ADD DUP1 SLOAD PUSH2 0x6CB SWAP1 PUSH2 0xBE7 JUMP JUMPDEST DUP1 PUSH1 0x1F ADD PUSH1 0x20 DUP1 SWAP2 DIV MUL PUSH1 0x20 ADD PUSH1 0x40 MLOAD SWAP1 DUP2 ADD PUSH1 0x40 MSTORE DUP1 SWAP3 SWAP2 SWAP1 DUP2 DUP2 MSTORE PUSH1 0x20 ADD DUP3 DUP1 SLOAD PUSH2 0x6F7 SWAP1 PUSH2 0xBE7 JUMP JUMPDEST DUP1 ISZERO PUSH2 0x744 JUMPI DUP1 PUSH1 0x1F LT PUSH2 0x719 JUMPI PUSH2 0x100 DUP1 DUP4 SLOAD DIV MUL DUP4 MSTORE SWAP2 PUSH1 0x20 ADD SWAP2 PUSH2 0x744 JUMP JUMPDEST DUP3 ADD SWAP2 SWAP1 PUSH1 0x0 MSTORE PUSH1 0x20 PUSH1 0x0 KECCAK256 SWAP1 JUMPDEST DUP2 SLOAD DUP2 MSTORE SWAP1 PUSH1 0x1 ADD SWAP1 PUSH1 0x20 ADD DUP1 DUP4 GT PUSH2 0x727 JUMPI DUP3 SWAP1 SUB PUSH1 0x1F AND DUP3 ADD SWAP2 JUMPDEST POP POP POP POP POP DUP2 MSTORE PUSH1 0x20 ADD SWAP1 PUSH1 0x1 ADD SWAP1 PUSH2 0x6AC JUMP JUMPDEST POP POP POP POP DUP2 MSTORE POP POP SWAP2 POP SWAP3 POP SWAP3 POP POP SWAP1 SWAP2 JUMP JUMPDEST PUSH1 0x40 MLOAD DUP1 PUSH1 0x60 ADD PUSH1 0x40 MSTORE DUP1 PUSH1 0x60 DUP2 MSTORE PUSH1 0x20 ADD PUSH1 0x60 DUP2 MSTORE PUSH1 0x20 ADD PUSH1 0x0 DUP2 MSTORE POP SWAP1 JUMP JUMPDEST PUSH1 0x40 MLOAD DUP1 PUSH1 0x80 ADD PUSH1 0x40 MSTORE DUP1 PUSH1 0x60 DUP2 MSTORE PUSH1 0x20 ADD PUSH1 0x60 DUP2 MSTORE PUSH1 0x20 ADD PUSH1 0x0 DUP2 MSTORE PUSH1 0x20 ADD PUSH1 0x60 DUP2 MSTORE POP SWAP1 JUMP JUMPDEST DUP3 DUP1 SLOAD DUP3 DUP3 SSTORE SWAP1 PUSH1 0x0 MSTORE PUSH1 0x20 PUSH1 0x0 KECCAK256 SWAP1 DUP2 ADD SWAP3 DUP3 ISZERO PUSH2 0x7FC JUMPI SWAP2 PUSH1 0x20 MUL DUP3 ADD JUMPDEST DUP3 DUP2 GT ISZERO PUSH2 0x7FB JUMPI DUP3 MLOAD DUP3 SWAP1 DUP2 PUSH2 0x7EB SWAP2 SWAP1 PUSH2 0xE22 JUMP JUMPDEST POP SWAP2 PUSH1 0x20 ADD SWAP2 SWAP1 PUSH1 0x1 ADD SWAP1 PUSH2 0x7D4 JUMP JUMPDEST JUMPDEST POP SWAP1 POP PUSH2 0x809 SWAP2 SWAP1 PUSH2 0x80D JUMP JUMPDEST POP SWAP1 JUMP JUMPDEST JUMPDEST DUP1 DUP3 GT ISZERO PUSH2 0x82D JUMPI PUSH1 0x0 DUP2 DUP2 PUSH2 0x824 SWAP2 SWAP1 PUSH2 0x831 JUMP JUMPDEST POP PUSH1 0x1 ADD PUSH2 0x80E JUMP JUMPDEST POP SWAP1 JUMP JUMPDEST POP DUP1 SLOAD PUSH2 0x83D SWAP1 PUSH2 0xBE7 JUMP JUMPDEST PUSH1 0x0 DUP3 SSTORE DUP1 PUSH1 0x1F LT PUSH2 0x84F JUMPI POP PUSH2 0x86E JUMP JUMPDEST PUSH1 0x1F ADD PUSH1 0x20 SWAP1 DIV SWAP1 PUSH1 0x0 MSTORE PUSH1 0x20 PUSH1 0x0 KECCAK256 SWAP1 DUP2 ADD SWAP1 PUSH2 0x86D SWAP2 SWAP1 PUSH2 0x871 JUMP JUMPDEST JUMPDEST POP JUMP JUMPDEST JUMPDEST DUP1 DUP3 GT ISZERO PUSH2 0x88A JUMPI PUSH1 0x0 DUP2 PUSH1 0x0 SWAP1 SSTORE POP PUSH1 0x1 ADD PUSH2 0x872 JUMP JUMPDEST POP SWAP1 JUMP JUMPDEST PUSH1 0x0 DUP2 MLOAD SWAP1 POP SWAP2 SWAP1 POP JUMP JUMPDEST PUSH1 0x0 DUP3 DUP3 MSTORE PUSH1 0x20 DUP3 ADD SWAP1 POP SWAP3 SWAP2 POP POP JUMP JUMPDEST PUSH1 0x0 JUMPDEST DUP4 DUP2 LT ISZERO PUSH2 0x8C8 JUMPI DUP1 DUP3 ADD MLOAD DUP2 DUP5 ADD MSTORE PUSH1 0x20 DUP2 ADD SWAP1 POP PUSH2 0x8AD JUMP JUMPDEST PUSH1 0x0 DUP5 DUP5 ADD MSTORE POP POP POP POP JUMP JUMPDEST PUSH1 0x0 PUSH1 0x1F NOT PUSH1 0x1F DUP4 ADD AND SWAP1 POP SWAP2 SWAP1 POP JUMP JUMPDEST PUSH1 0x0 PUSH2 0x8F0 DUP3 PUSH2 0x88E JUMP JUMPDEST PUSH2 0x8FA DUP2 DUP6 PUSH2 0x899 JUMP JUMPDEST SWAP4 POP PUSH2 0x90A DUP2 DUP6 PUSH1 0x20 DUP7 ADD PUSH2 0x8AA JUMP JUMPDEST PUSH2 0x913 DUP2 PUSH2 0x8D4 JUMP JUMPDEST DUP5 ADD SWAP2 POP POP SWAP3 SWAP2 POP POP JUMP JUMPDEST PUSH1 0x0 DUP2 SWAP1 POP SWAP2 SWAP1 POP JUMP JUMPDEST PUSH2 0x931 DUP2 PUSH2 0x91E JUMP JUMPDEST DUP3 MSTORE POP POP JUMP JUMPDEST PUSH1 0x0 PUSH1 0x60 DUP4 ADD PUSH1 0x0 DUP4 ADD MLOAD DUP5 DUP3 SUB PUSH1 0x0 DUP7 ADD MSTORE PUSH2 0x954 DUP3 DUP3 PUSH2 0x8E5 JUMP JUMPDEST SWAP2 POP POP PUSH1 0x20 DUP4 ADD MLOAD DUP5 DUP3 SUB PUSH1 0x20 DUP7 ADD MSTORE PUSH2 0x96E DUP3 DUP3 PUSH2 0x8E5 JUMP JUMPDEST SWAP2 POP POP PUSH1 0x40 DUP4 ADD MLOAD PUSH2 0x983 PUSH1 0x40 DUP7 ADD DUP3 PUSH2 0x928 JUMP JUMPDEST POP DUP1 SWAP2 POP POP SWAP3 SWAP2 POP POP JUMP JUMPDEST PUSH1 0x0 PUSH1 0x20 DUP3 ADD SWAP1 POP DUP2 DUP2 SUB PUSH1 0x0 DUP4 ADD MSTORE PUSH2 0x9A8 DUP2 DUP5 PUSH2 0x937 JUMP JUMPDEST SWAP1 POP SWAP3 SWAP2 POP POP JUMP JUMPDEST PUSH1 0x0 DUP3 DUP3 MSTORE PUSH1 0x20 DUP3 ADD SWAP1 POP SWAP3 SWAP2 POP POP JUMP JUMPDEST PUSH1 0x0 PUSH2 0x9CC DUP3 PUSH2 0x88E JUMP JUMPDEST PUSH2 0x9D6 DUP2 DUP6 PUSH2 0x9B0 JUMP JUMPDEST SWAP4 POP PUSH2 0x9E6 DUP2 DUP6 PUSH1 0x20 DUP7 ADD PUSH2 0x8AA JUMP JUMPDEST PUSH2 0x9EF DUP2 PUSH2 0x8D4 JUMP JUMPDEST DUP5 ADD SWAP2 POP POP SWAP3 SWAP2 POP POP JUMP JUMPDEST PUSH2 0xA03 DUP2 PUSH2 0x91E JUMP JUMPDEST DUP3 MSTORE POP POP JUMP JUMPDEST PUSH1 0x0 PUSH1 0x60 DUP3 ADD SWAP1 POP DUP2 DUP2 SUB PUSH1 0x0 DUP4 ADD MSTORE PUSH2 0xA23 DUP2 DUP7 PUSH2 0x9C1 JUMP JUMPDEST SWAP1 POP DUP2 DUP2 SUB PUSH1 0x20 DUP4 ADD MSTORE PUSH2 0xA37 DUP2 DUP6 PUSH2 0x9C1 JUMP JUMPDEST SWAP1 POP PUSH2 0xA46 PUSH1 0x40 DUP4 ADD DUP5 PUSH2 0x9FA JUMP JUMPDEST SWAP5 SWAP4 POP POP POP POP JUMP JUMPDEST PUSH1 0x0 DUP2 MLOAD SWAP1 POP SWAP2 SWAP1 POP JUMP JUMPDEST PUSH1 0x0 DUP3 DUP3 MSTORE PUSH1 0x20 DUP3 ADD SWAP1 POP SWAP3 SWAP2 POP POP JUMP JUMPDEST PUSH1 0x0 DUP2 SWAP1 POP PUSH1 0x20 DUP3 ADD SWAP1 POP SWAP2 SWAP1 POP JUMP JUMPDEST PUSH1 0x0 PUSH2 0xA86 DUP4 DUP4 PUSH2 0x8E5 JUMP JUMPDEST SWAP1 POP SWAP3 SWAP2 POP POP JUMP JUMPDEST PUSH1 0x0 PUSH1 0x20 DUP3 ADD SWAP1 POP SWAP2 SWAP1 POP JUMP JUMPDEST PUSH1 0x0 PUSH2 0xAA6 DUP3 PUSH2 0xA4E JUMP JUMPDEST PUSH2 0xAB0 DUP2 DUP6 PUSH2 0xA59 JUMP JUMPDEST SWAP4 POP DUP4 PUSH1 0x20 DUP3 MUL DUP6 ADD PUSH2 0xAC2 DUP6 PUSH2 0xA6A JUMP JUMPDEST DUP1 PUSH1 0x0 JUMPDEST DUP6 DUP2 LT ISZERO PUSH2 0xAFE JUMPI DUP5 DUP5 SUB DUP10 MSTORE DUP2 MLOAD PUSH2 0xADF DUP6 DUP3 PUSH2 0xA7A JUMP JUMPDEST SWAP5 POP PUSH2 0xAEA DUP4 PUSH2 0xA8E JUMP JUMPDEST SWAP3 POP PUSH1 0x20 DUP11 ADD SWAP10 POP POP PUSH1 0x1 DUP2 ADD SWAP1 POP PUSH2 0xAC6 JUMP JUMPDEST POP DUP3 SWAP8 POP DUP8 SWAP6 POP POP POP POP POP POP SWAP3 SWAP2 POP POP JUMP JUMPDEST PUSH1 0x0 PUSH1 0x80 DUP4 ADD PUSH1 0x0 DUP4 ADD MLOAD DUP5 DUP3 SUB PUSH1 0x0 DUP7 ADD MSTORE PUSH2 0xB2D DUP3 DUP3 PUSH2 0x8E5 JUMP JUMPDEST SWAP2 POP POP PUSH1 0x20 DUP4 ADD MLOAD DUP5 DUP3 SUB PUSH1 0x20 DUP7 ADD MSTORE PUSH2 0xB47 DUP3 DUP3 PUSH2 0x8E5 JUMP JUMPDEST SWAP2 POP POP PUSH1 0x40 DUP4 ADD MLOAD PUSH2 0xB5C PUSH1 0x40 DUP7 ADD DUP3 PUSH2 0x928 JUMP JUMPDEST POP PUSH1 0x60 DUP4 ADD MLOAD DUP5 DUP3 SUB PUSH1 0x60 DUP7 ADD MSTORE PUSH2 0xB74 DUP3 DUP3 PUSH2 0xA9B JUMP JUMPDEST SWAP2 POP POP DUP1 SWAP2 POP POP SWAP3 SWAP2 POP POP JUMP JUMPDEST PUSH1 0x0 PUSH1 0x40 DUP3 ADD SWAP1 POP DUP2 DUP2 SUB PUSH1 0x0 DUP4 ADD MSTORE PUSH2 0xB9B DUP2 DUP6 PUSH2 0xB10 JUMP JUMPDEST SWAP1 POP DUP2 DUP2 SUB PUSH1 0x20 DUP4 ADD MSTORE PUSH2 0xBAF DUP2 DUP5 PUSH2 0xB10 JUMP JUMPDEST SWAP1 POP SWAP4 SWAP3 POP POP POP JUMP JUMPDEST PUSH32 0x4E487B7100000000000000000000000000000000000000000000000000000000 PUSH1 0x0 MSTORE PUSH1 0x22 PUSH1 0x4 MSTORE PUSH1 0x24 PUSH1 0x0 REVERT JUMPDEST PUSH1 0x0 PUSH1 0x2 DUP3 DIV SWAP1 POP PUSH1 0x1 DUP3 AND DUP1 PUSH2 0xBFF JUMPI PUSH1 0x7F DUP3 AND SWAP2 POP JUMPDEST PUSH1 0x20 DUP3 LT DUP2 SUB PUSH2 0xC12 JUMPI PUSH2 0xC11 PUSH2 0xBB8 JUMP JUMPDEST JUMPDEST POP SWAP2 SWAP1 POP JUMP JUMPDEST PUSH32 0x4E487B7100000000000000000000000000000000000000000000000000000000 PUSH1 0x0 MSTORE PUSH1 0x41 PUSH1 0x4 MSTORE PUSH1 0x24 PUSH1 0x0 REVERT JUMPDEST PUSH32 0x4E487B7100000000000000000000000000000000000000000000000000000000 PUSH1 0x0 MSTORE PUSH1 0x32 PUSH1 0x4 MSTORE PUSH1 0x24 PUSH1 0x0 REVERT JUMPDEST PUSH1 0x0 DUP2 SWAP1 POP DUP2 PUSH1 0x0 MSTORE PUSH1 0x20 PUSH1 0x0 KECCAK256 SWAP1 POP SWAP2 SWAP1 POP JUMP JUMPDEST PUSH1 0x0 PUSH1 0x20 PUSH1 0x1F DUP4 ADD DIV SWAP1 POP SWAP2 SWAP1 POP JUMP JUMPDEST PUSH1 0x0 DUP3 DUP3 SHL SWAP1 POP SWAP3 SWAP2 POP POP JUMP JUMPDEST PUSH1 0x0 PUSH1 0x8 DUP4 MUL PUSH2 0xCD8 PUSH32 0xFFFFFFFFFFFFFFFFFFFFFFFFFFFFFFFFFFFFFFFFFFFFFFFFFFFFFFFFFFFFFFFF DUP3 PUSH2 0xC9B JUMP JUMPDEST PUSH2 0xCE2 DUP7 DUP4 PUSH2 0xC9B JUMP JUMPDEST SWAP6 POP DUP1 NOT DUP5 AND SWAP4 POP DUP1 DUP7 AND DUP5 OR SWAP3 POP POP POP SWAP4 SWAP3 POP POP POP JUMP JUMPDEST PUSH1 0x0 DUP2 SWAP1 POP SWAP2 SWAP1 POP JUMP JUMPDEST PUSH1 0x0 PUSH2 0xD1F PUSH2 0xD1A PUSH2 0xD15 DUP5 PUSH2 0x91E JUMP JUMPDEST PUSH2 0xCFA JUMP JUMPDEST PUSH2 0x91E JUMP JUMPDEST SWAP1 POP SWAP2 SWAP1 POP JUMP JUMPDEST PUSH1 0x0 DUP2 SWAP1 POP SWAP2 SWAP1 POP JUMP JUMPDEST PUSH2 0xD39 DUP4 PUSH2 0xD04 JUMP JUMPDEST PUSH2 0xD4D PUSH2 0xD45 DUP3 PUSH2 0xD26 JUMP JUMPDEST DUP5 DUP5 SLOAD PUSH2 0xCA8 JUMP JUMPDEST DUP3 SSTORE POP POP POP POP JUMP JUMPDEST PUSH1 0x0 SWAP1 JUMP JUMPDEST PUSH2 0xD62 PUSH2 0xD55 JUMP JUMPDEST PUSH2 0xD6D DUP2 DUP5 DUP5 PUSH2 0xD30 JUMP JUMPDEST POP POP POP JUMP JUMPDEST JUMPDEST DUP2 DUP2 LT ISZERO PUSH2 0xD91 JUMPI PUSH2 0xD86 PUSH1 0x0 DUP3 PUSH2 0xD5A JUMP JUMPDEST PUSH1 0x1 DUP2 ADD SWAP1 POP PUSH2 0xD73 JUMP JUMPDEST POP POP JUMP JUMPDEST PUSH1 0x1F DUP3 GT ISZERO PUSH2 0xDD6 JUMPI PUSH2 0xDA7 DUP2 PUSH2 0xC76 JUMP JUMPDEST PUSH2 0xDB0 DUP5 PUSH2 0xC8B JUMP JUMPDEST DUP2 ADD PUSH1 0x20 DUP6 LT ISZERO PUSH2 0xDBF JUMPI DUP2 SWAP1 POP JUMPDEST PUSH2 0xDD3 PUSH2 0xDCB DUP6 PUSH2 0xC8B JUMP JUMPDEST DUP4 ADD DUP3 PUSH2 0xD72 JUMP JUMPDEST POP POP JUMPDEST POP POP POP JUMP JUMPDEST PUSH1 0x0 DUP3 DUP3 SHR SWAP1 POP SWAP3 SWAP2 POP POP JUMP JUMPDEST PUSH1 0x0 PUSH2 0xDF9 PUSH1 0x0 NOT DUP5 PUSH1 0x8 MUL PUSH2 0xDDB JUMP JUMPDEST NOT DUP1 DUP4 AND SWAP2 POP POP SWAP3 SWAP2 POP POP JUMP JUMPDEST PUSH1 0x0 PUSH2 0xE12 DUP4 DUP4 PUSH2 0xDE8 JUMP JUMPDEST SWAP2 POP DUP3 PUSH1 0x2 MUL DUP3 OR SWAP1 POP SWAP3 SWAP2 POP POP JUMP JUMPDEST PUSH2 0xE2B DUP3 PUSH2 0x88E JUMP JUMPDEST PUSH8 0xFFFFFFFFFFFFFFFF DUP2 GT ISZERO PUSH2 0xE44 JUMPI PUSH2 0xE43 PUSH2 0xC18 JUMP JUMPDEST JUMPDEST PUSH2 0xE4E DUP3 SLOAD PUSH2 0xBE7 JUMP JUMPDEST PUSH2 0xE59 DUP3 DUP3 DUP6 PUSH2 0xD95 JUMP JUMPDEST PUSH1 0x0 PUSH1 0x20 SWAP1 POP PUSH1 0x1F DUP4 GT PUSH1 0x1 DUP2 EQ PUSH2 0xE8C JUMPI PUSH1 0x0 DUP5 ISZERO PUSH2 0xE7A JUMPI DUP3 DUP8 ADD MLOAD SWAP1 POP JUMPDEST PUSH2 0xE84 DUP6 DUP3 PUSH2 0xE06 JUMP JUMPDEST DUP7 SSTORE POP PUSH2 0xEEC JUMP JUMPDEST PUSH1 0x1F NOT DUP5 AND PUSH2 0xE9A DUP7 PUSH2 0xC76 JUMP JUMPDEST PUSH1 0x0 JUMPDEST DUP3 DUP2 LT ISZERO PUSH2 0xEC2 JUMPI DUP5 DUP10 ADD MLOAD DUP3 SSTORE PUSH1 0x1 DUP3 ADD SWAP2 POP PUSH1 0x20 DUP6 ADD SWAP5 POP PUSH1 0x20 DUP2 ADD SWAP1 POP PUSH2 0xE9D JUMP JUMPDEST DUP7 DUP4 LT ISZERO PUSH2 0xEDF JUMPI DUP5 DUP10 ADD MLOAD PUSH2 0xEDB PUSH1 0x1F DUP10 AND DUP3 PUSH2 0xDE8 JUMP JUMPDEST DUP4 SSTORE POP JUMPDEST PUSH1 0x1 PUSH1 0x2 DUP9 MUL ADD DUP9 SSTORE POP POP POP JUMPDEST POP POP POP POP POP POP JUMP INVALID LOG2 PUSH5 0x6970667358 0x22 SLT KECCAK256 0xD8 SHR 0xD8 SWAP1 0xAC 0xEA 0x1F 0xD5 0x2E 0xCA 0xE9 0xC6 0xBA 0xD0 0xF EXTCODEHASH 0xED 0xB1 0xD6 SLT 0xAF INVALID DUP10 PUSH26 0x98FFADC8403E5BF464736F6C6343000811003300000000000000 "
				},
				"gasEstimates": {
					"creation": {
						"codeDepositCost": "776400",
						"executionCost": "infinite",
						"totalCost": "infinite"
					},
					"external": {
						"getMovie()": "infinite",
						"test()": "infinite",
						"tv()": "infinite"
					}
				},
				"methodIdentifiers": {
					"getMovie()": "7b5f4eef",
					"test()": "f8a8fd6d",
					"tv()": "bd8a7322"
				}
			},
			"storageLayout": {
				"storage": [
					{
						"astId": 11,
						"contract": "_16_数据类型_引用类型_结构体.sol:LearnStructs",
						"label": "movie",
						"offset": 0,
						"slot": "0",
						"type": "t_struct(Movie)8_storage"
					},
					{
						"astId": 45,
						"contract": "_16_数据类型_引用类型_结构体.sol:LearnStructs",
						"label": "tv",
						"offset": 0,
						"slot": "3",
						"type": "t_struct(Tv)42_storage"
					}
				],
				"types": {
					"t_array(t_string_storage)dyn_storage": {
						"base": "t_string_storage",
						"encoding": "dynamic_array",
						"label": "string[]",
						"numberOfBytes": "32"
					},
					"t_string_storage": {
						"encoding": "bytes",
						"label": "string",
						"numberOfBytes": "32"
					},
					"t_struct(Movie)8_storage": {
						"encoding": "inplace",
						"label": "struct LearnStructs.Movie",
						"members": [
							{
								"astId": 3,
								"contract": "_16_数据类型_引用类型_结构体.sol:LearnStructs",
								"label": "title",
								"offset": 0,
								"slot": "0",
								"type": "t_string_storage"
							},
							{
								"astId": 5,
								"contract": "_16_数据类型_引用类型_结构体.sol:LearnStructs",
								"label": "director",
								"offset": 0,
								"slot": "1",
								"type": "t_string_storage"
							},
							{
								"astId": 7,
								"contract": "_16_数据类型_引用类型_结构体.sol:LearnStructs",
								"label": "id",
								"offset": 0,
								"slot": "2",
								"type": "t_uint256"
							}
						],
						"numberOfBytes": "96"
					},
					"t_struct(Tv)42_storage": {
						"encoding": "inplace",
						"label": "struct LearnStructs.Tv",
						"members": [
							{
								"astId": 34,
								"contract": "_16_数据类型_引用类型_结构体.sol:LearnStructs",
								"label": "title",
								"offset": 0,
								"slot": "0",
								"type": "t_string_storage"
							},
							{
								"astId": 36,
								"contract": "_16_数据类型_引用类型_结构体.sol:LearnStructs",
								"label": "director",
								"offset": 0,
								"slot": "1",
								"type": "t_string_storage"
							},
							{
								"astId": 38,
								"contract": "_16_数据类型_引用类型_结构体.sol:LearnStructs",
								"label": "id",
								"offset": 0,
								"slot": "2",
								"type": "t_uint256"
							},
							{
								"astId": 41,
								"contract": "_16_数据类型_引用类型_结构体.sol:LearnStructs",
								"label": "maker",
								"offset": 0,
								"slot": "3",
								"type": "t_array(t_string_storage)dyn_storage"
							}
						],
						"numberOfBytes": "128"
					},
					"t_uint256": {
						"encoding": "inplace",
						"label": "uint256",
						"numberOfBytes": "32"
					}
				}
			},
			"userdoc": {
				"kind": "user",
				"methods": {},
				"version": 1
			}
		}
	}
}