{
	"_09_数据类型_值类型_定长字节数组.sol": {
		"HelloWorld": {
			"abi": [
				{
					"inputs": [],
					"name": "b",
					"outputs": [
						{
							"internalType": "bytes3",
							"name": "",
							"type": "bytes3"
						}
					],
					"stateMutability": "view",
					"type": "function"
				},
				{
					"inputs": [],
					"name": "b1",
					"outputs": [
						{
							"internalType": "bytes1",
							"name": "",
							"type": "bytes1"
						}
					],
					"stateMutability": "view",
					"type": "function"
				},
				{
					"inputs": [],
					"name": "length",
					"outputs": [
						{
							"internalType": "uint8",
							"name": "",
							"type": "uint8"
						}
					],
					"stateMutability": "view",
					"type": "function"
				},
				{
					"inputs": [],
					"name": "s",
					"outputs": [
						{
							"internalType": "bytes4",
							"name": "",
							"type": "bytes4"
						}
					],
					"stateMutability": "view",
					"type": "function"
				}
			],
			"devdoc": {
				"kind": "dev",
				"methods": {},
				"version": 1
			},
			"evm": {
				"assembly": "    /* \"_09_\\xe6\\x95\\xb0\\xe6\\x8d\\xae\\xe7\\xb1\\xbb\\xe5\\x9e\\x8b_\\xe5\\x80\\xbc\\xe7\\xb1\\xbb\\xe5\\x9e\\x8b_\\xe5\\xae\\x9a\\xe9\\x95\\xbf\\xe5\\xad\\x97\\xe8\\x8a\\x82\\xe6\\x95\\xb0\\xe7\\xbb\\x84.sol\":68:1103  contract HelloWorld {... */\n  mstore(0x40, 0x80)\n    /* \"_09_\\xe6\\x95\\xb0\\xe6\\x8d\\xae\\xe7\\xb1\\xbb\\xe5\\x9e\\x8b_\\xe5\\x80\\xbc\\xe7\\xb1\\xbb\\xe5\\x9e\\x8b_\\xe5\\xae\\x9a\\xe9\\x95\\xbf\\xe5\\xad\\x97\\xe8\\x8a\\x82\\xe6\\x95\\xb0\\xe7\\xbb\\x84.sol\":676:686  0xab_cd_ef */\n  0xabcdef\n    /* \"_09_\\xe6\\x95\\xb0\\xe6\\x8d\\xae\\xe7\\xb1\\xbb\\xe5\\x9e\\x8b_\\xe5\\x80\\xbc\\xe7\\xb1\\xbb\\xe5\\x9e\\x8b_\\xe5\\xae\\x9a\\xe9\\x95\\xbf\\xe5\\xad\\x97\\xe8\\x8a\\x82\\xe6\\x95\\xb0\\xe7\\xbb\\x84.sol\":658:686  bytes3 public b = 0xab_cd_ef */\n  0xe8\n  shl\n  0x00\n  dup1\n  0x0100\n  exp\n  dup2\n  sload\n  dup2\n  0xffffff\n  mul\n  not\n  and\n  swap1\n  dup4\n  0xe8\n  shr\n  mul\n  or\n  swap1\n  sstore\n  pop\n    /* \"_09_\\xe6\\x95\\xb0\\xe6\\x8d\\xae\\xe7\\xb1\\xbb\\xe5\\x9e\\x8b_\\xe5\\x80\\xbc\\xe7\\xb1\\xbb\\xe5\\x9e\\x8b_\\xe5\\xae\\x9a\\xe9\\x95\\xbf\\xe5\\xad\\x97\\xe8\\x8a\\x82\\xe6\\x95\\xb0\\xe7\\xbb\\x84.sol\":769:770  b */\n  0x00\n  dup1\n  sload\n  swap1\n  0x0100\n  exp\n  swap1\n  div\n  0xe8\n  shl\n    /* \"_09_\\xe6\\x95\\xb0\\xe6\\x8d\\xae\\xe7\\xb1\\xbb\\xe5\\x9e\\x8b_\\xe5\\x80\\xbc\\xe7\\xb1\\xbb\\xe5\\x9e\\x8b_\\xe5\\xae\\x9a\\xe9\\x95\\xbf\\xe5\\xad\\x97\\xe8\\x8a\\x82\\xe6\\x95\\xb0\\xe7\\xbb\\x84.sol\":771:772  2 */\n  0x02\n    /* \"_09_\\xe6\\x95\\xb0\\xe6\\x8d\\xae\\xe7\\xb1\\xbb\\xe5\\x9e\\x8b_\\xe5\\x80\\xbc\\xe7\\xb1\\xbb\\xe5\\x9e\\x8b_\\xe5\\xae\\x9a\\xe9\\x95\\xbf\\xe5\\xad\\x97\\xe8\\x8a\\x82\\xe6\\x95\\xb0\\xe7\\xbb\\x84.sol\":769:773  b[2] */\n  0x03\n  dup2\n  lt\n  tag_1\n  jumpi\n  tag_2\n  tag_3\n  jump\t// in\ntag_2:\ntag_1:\n  byte\n  0xf8\n  shl\n    /* \"_09_\\xe6\\x95\\xb0\\xe6\\x8d\\xae\\xe7\\xb1\\xbb\\xe5\\x9e\\x8b_\\xe5\\x80\\xbc\\xe7\\xb1\\xbb\\xe5\\x9e\\x8b_\\xe5\\xae\\x9a\\xe9\\x95\\xbf\\xe5\\xad\\x97\\xe8\\x8a\\x82\\xe6\\x95\\xb0\\xe7\\xbb\\x84.sol\":750:773  bytes1 public b1 = b[2] */\n  0x00\n  exp(0x0100, 0x03)\n  dup2\n  sload\n  dup2\n  0xff\n  mul\n  not\n  and\n  swap1\n  dup4\n  0xf8\n  shr\n  mul\n  or\n  swap1\n  sstore\n  pop\n    /* \"_09_\\xe6\\x95\\xb0\\xe6\\x8d\\xae\\xe7\\xb1\\xbb\\xe5\\x9e\\x8b_\\xe5\\x80\\xbc\\xe7\\xb1\\xbb\\xe5\\x9e\\x8b_\\xe5\\xae\\x9a\\xe9\\x95\\xbf\\xe5\\xad\\x97\\xe8\\x8a\\x82\\xe6\\x95\\xb0\\xe7\\xbb\\x84.sol\":811:812  b */\n  0x00\n  dup1\n  sload\n  swap1\n  0x0100\n  exp\n  swap1\n  pop\n  pop\n    /* \"_09_\\xe6\\x95\\xb0\\xe6\\x8d\\xae\\xe7\\xb1\\xbb\\xe5\\x9e\\x8b_\\xe5\\x80\\xbc\\xe7\\xb1\\xbb\\xe5\\x9e\\x8b_\\xe5\\xae\\x9a\\xe9\\x95\\xbf\\xe5\\xad\\x97\\xe8\\x8a\\x82\\xe6\\x95\\xb0\\xe7\\xbb\\x84.sol\":811:819  b.length */\n  0x03\n    /* \"_09_\\xe6\\x95\\xb0\\xe6\\x8d\\xae\\xe7\\xb1\\xbb\\xe5\\x9e\\x8b_\\xe5\\x80\\xbc\\xe7\\xb1\\xbb\\xe5\\x9e\\x8b_\\xe5\\xae\\x9a\\xe9\\x95\\xbf\\xe5\\xad\\x97\\xe8\\x8a\\x82\\xe6\\x95\\xb0\\xe7\\xbb\\x84.sol\":789:819  uint8 public length = b.length */\n  0x00\n  exp(0x0100, 0x04)\n  dup2\n  sload\n  dup2\n  0xff\n  mul\n  not\n  and\n  swap1\n  dup4\n  0xff\n  and\n  mul\n  or\n  swap1\n  sstore\n  pop\n    /* \"_09_\\xe6\\x95\\xb0\\xe6\\x8d\\xae\\xe7\\xb1\\xbb\\xe5\\x9e\\x8b_\\xe5\\x80\\xbc\\xe7\\xb1\\xbb\\xe5\\x9e\\x8b_\\xe5\\xae\\x9a\\xe9\\x95\\xbf\\xe5\\xad\\x97\\xe8\\x8a\\x82\\xe6\\x95\\xb0\\xe7\\xbb\\x84.sol\":1075:1098  bytes4 public s = \"abc\" */\n  0x6162630000000000000000000000000000000000000000000000000000000000\n  0x00\n  exp(0x0100, 0x05)\n  dup2\n  sload\n  dup2\n  0xffffffff\n  mul\n  not\n  and\n  swap1\n  dup4\n  0xe0\n  shr\n  mul\n  or\n  swap1\n  sstore\n  pop\n    /* \"_09_\\xe6\\x95\\xb0\\xe6\\x8d\\xae\\xe7\\xb1\\xbb\\xe5\\x9e\\x8b_\\xe5\\x80\\xbc\\xe7\\xb1\\xbb\\xe5\\x9e\\x8b_\\xe5\\xae\\x9a\\xe9\\x95\\xbf\\xe5\\xad\\x97\\xe8\\x8a\\x82\\xe6\\x95\\xb0\\xe7\\xbb\\x84.sol\":68:1103  contract HelloWorld {... */\n  callvalue\n  dup1\n  iszero\n  tag_4\n  jumpi\n  0x00\n  dup1\n  revert\ntag_4:\n  pop\n  jump(tag_5)\n    /* \"#utility.yul\":7:187   */\ntag_3:\n    /* \"#utility.yul\":55:132   */\n  0x4e487b7100000000000000000000000000000000000000000000000000000000\n    /* \"#utility.yul\":52:53   */\n  0x00\n    /* \"#utility.yul\":45:133   */\n  mstore\n    /* \"#utility.yul\":152:156   */\n  0x32\n    /* \"#utility.yul\":149:150   */\n  0x04\n    /* \"#utility.yul\":142:157   */\n  mstore\n    /* \"#utility.yul\":176:180   */\n  0x24\n    /* \"#utility.yul\":173:174   */\n  0x00\n    /* \"#utility.yul\":166:181   */\n  revert\n    /* \"_09_\\xe6\\x95\\xb0\\xe6\\x8d\\xae\\xe7\\xb1\\xbb\\xe5\\x9e\\x8b_\\xe5\\x80\\xbc\\xe7\\xb1\\xbb\\xe5\\x9e\\x8b_\\xe5\\xae\\x9a\\xe9\\x95\\xbf\\xe5\\xad\\x97\\xe8\\x8a\\x82\\xe6\\x95\\xb0\\xe7\\xbb\\x84.sol\":68:1103  contract HelloWorld {... */\ntag_5:\n  dataSize(sub_0)\n  dup1\n  dataOffset(sub_0)\n  0x00\n  codecopy\n  0x00\n  return\nstop\n\nsub_0: assembly {\n        /* \"_09_\\xe6\\x95\\xb0\\xe6\\x8d\\xae\\xe7\\xb1\\xbb\\xe5\\x9e\\x8b_\\xe5\\x80\\xbc\\xe7\\xb1\\xbb\\xe5\\x9e\\x8b_\\xe5\\xae\\x9a\\xe9\\x95\\xbf\\xe5\\xad\\x97\\xe8\\x8a\\x82\\xe6\\x95\\xb0\\xe7\\xbb\\x84.sol\":68:1103  contract HelloWorld {... */\n      mstore(0x40, 0x80)\n      callvalue\n      dup1\n      iszero\n      tag_1\n      jumpi\n      0x00\n      dup1\n      revert\n    tag_1:\n      pop\n      jumpi(tag_2, lt(calldatasize, 0x04))\n      shr(0xe0, calldataload(0x00))\n      dup1\n      0x1f7b6d32\n      eq\n      tag_3\n      jumpi\n      dup1\n      0x4df7e3d0\n      eq\n      tag_4\n      jumpi\n      dup1\n      0x86b714e2\n      eq\n      tag_5\n      jumpi\n      dup1\n      0xee495002\n      eq\n      tag_6\n      jumpi\n    tag_2:\n      0x00\n      dup1\n      revert\n        /* \"_09_\\xe6\\x95\\xb0\\xe6\\x8d\\xae\\xe7\\xb1\\xbb\\xe5\\x9e\\x8b_\\xe5\\x80\\xbc\\xe7\\xb1\\xbb\\xe5\\x9e\\x8b_\\xe5\\xae\\x9a\\xe9\\x95\\xbf\\xe5\\xad\\x97\\xe8\\x8a\\x82\\xe6\\x95\\xb0\\xe7\\xbb\\x84.sol\":789:819  uint8 public length = b.length */\n    tag_3:\n      tag_7\n      tag_8\n      jump\t// in\n    tag_7:\n      mload(0x40)\n      tag_9\n      swap2\n      swap1\n      tag_10\n      jump\t// in\n    tag_9:\n      mload(0x40)\n      dup1\n      swap2\n      sub\n      swap1\n      return\n        /* \"_09_\\xe6\\x95\\xb0\\xe6\\x8d\\xae\\xe7\\xb1\\xbb\\xe5\\x9e\\x8b_\\xe5\\x80\\xbc\\xe7\\xb1\\xbb\\xe5\\x9e\\x8b_\\xe5\\xae\\x9a\\xe9\\x95\\xbf\\xe5\\xad\\x97\\xe8\\x8a\\x82\\xe6\\x95\\xb0\\xe7\\xbb\\x84.sol\":658:686  bytes3 public b = 0xab_cd_ef */\n    tag_4:\n      tag_11\n      tag_12\n      jump\t// in\n    tag_11:\n      mload(0x40)\n      tag_13\n      swap2\n      swap1\n      tag_14\n      jump\t// in\n    tag_13:\n      mload(0x40)\n      dup1\n      swap2\n      sub\n      swap1\n      return\n        /* \"_09_\\xe6\\x95\\xb0\\xe6\\x8d\\xae\\xe7\\xb1\\xbb\\xe5\\x9e\\x8b_\\xe5\\x80\\xbc\\xe7\\xb1\\xbb\\xe5\\x9e\\x8b_\\xe5\\xae\\x9a\\xe9\\x95\\xbf\\xe5\\xad\\x97\\xe8\\x8a\\x82\\xe6\\x95\\xb0\\xe7\\xbb\\x84.sol\":1075:1098  bytes4 public s = \"abc\" */\n    tag_5:\n      tag_15\n      tag_16\n      jump\t// in\n    tag_15:\n      mload(0x40)\n      tag_17\n      swap2\n      swap1\n      tag_18\n      jump\t// in\n    tag_17:\n      mload(0x40)\n      dup1\n      swap2\n      sub\n      swap1\n      return\n        /* \"_09_\\xe6\\x95\\xb0\\xe6\\x8d\\xae\\xe7\\xb1\\xbb\\xe5\\x9e\\x8b_\\xe5\\x80\\xbc\\xe7\\xb1\\xbb\\xe5\\x9e\\x8b_\\xe5\\xae\\x9a\\xe9\\x95\\xbf\\xe5\\xad\\x97\\xe8\\x8a\\x82\\xe6\\x95\\xb0\\xe7\\xbb\\x84.sol\":750:773  bytes1 public b1 = b[2] */\n    tag_6:\n      tag_19\n      tag_20\n      jump\t// in\n    tag_19:\n      mload(0x40)\n      tag_21\n      swap2\n      swap1\n      tag_22\n      jump\t// in\n    tag_21:\n      mload(0x40)\n      dup1\n      swap2\n      sub\n      swap1\n      return\n        /* \"_09_\\xe6\\x95\\xb0\\xe6\\x8d\\xae\\xe7\\xb1\\xbb\\xe5\\x9e\\x8b_\\xe5\\x80\\xbc\\xe7\\xb1\\xbb\\xe5\\x9e\\x8b_\\xe5\\xae\\x9a\\xe9\\x95\\xbf\\xe5\\xad\\x97\\xe8\\x8a\\x82\\xe6\\x95\\xb0\\xe7\\xbb\\x84.sol\":789:819  uint8 public length = b.length */\n    tag_8:\n      0x00\n      0x04\n      swap1\n      sload\n      swap1\n      0x0100\n      exp\n      swap1\n      div\n      0xff\n      and\n      dup2\n      jump\t// out\n        /* \"_09_\\xe6\\x95\\xb0\\xe6\\x8d\\xae\\xe7\\xb1\\xbb\\xe5\\x9e\\x8b_\\xe5\\x80\\xbc\\xe7\\xb1\\xbb\\xe5\\x9e\\x8b_\\xe5\\xae\\x9a\\xe9\\x95\\xbf\\xe5\\xad\\x97\\xe8\\x8a\\x82\\xe6\\x95\\xb0\\xe7\\xbb\\x84.sol\":658:686  bytes3 public b = 0xab_cd_ef */\n    tag_12:\n      0x00\n      dup1\n      sload\n      swap1\n      0x0100\n      exp\n      swap1\n      div\n      0xe8\n      shl\n      dup2\n      jump\t// out\n        /* \"_09_\\xe6\\x95\\xb0\\xe6\\x8d\\xae\\xe7\\xb1\\xbb\\xe5\\x9e\\x8b_\\xe5\\x80\\xbc\\xe7\\xb1\\xbb\\xe5\\x9e\\x8b_\\xe5\\xae\\x9a\\xe9\\x95\\xbf\\xe5\\xad\\x97\\xe8\\x8a\\x82\\xe6\\x95\\xb0\\xe7\\xbb\\x84.sol\":1075:1098  bytes4 public s = \"abc\" */\n    tag_16:\n      0x00\n      0x05\n      swap1\n      sload\n      swap1\n      0x0100\n      exp\n      swap1\n      div\n      0xe0\n      shl\n      dup2\n      jump\t// out\n        /* \"_09_\\xe6\\x95\\xb0\\xe6\\x8d\\xae\\xe7\\xb1\\xbb\\xe5\\x9e\\x8b_\\xe5\\x80\\xbc\\xe7\\xb1\\xbb\\xe5\\x9e\\x8b_\\xe5\\xae\\x9a\\xe9\\x95\\xbf\\xe5\\xad\\x97\\xe8\\x8a\\x82\\xe6\\x95\\xb0\\xe7\\xbb\\x84.sol\":750:773  bytes1 public b1 = b[2] */\n    tag_20:\n      0x00\n      0x03\n      swap1\n      sload\n      swap1\n      0x0100\n      exp\n      swap1\n      div\n      0xf8\n      shl\n      dup2\n      jump\t// out\n        /* \"#utility.yul\":7:93   */\n    tag_23:\n        /* \"#utility.yul\":42:49   */\n      0x00\n        /* \"#utility.yul\":82:86   */\n      0xff\n        /* \"#utility.yul\":75:80   */\n      dup3\n        /* \"#utility.yul\":71:87   */\n      and\n        /* \"#utility.yul\":60:87   */\n      swap1\n      pop\n        /* \"#utility.yul\":7:93   */\n      swap2\n      swap1\n      pop\n      jump\t// out\n        /* \"#utility.yul\":99:211   */\n    tag_24:\n        /* \"#utility.yul\":182:204   */\n      tag_34\n        /* \"#utility.yul\":198:203   */\n      dup2\n        /* \"#utility.yul\":182:204   */\n      tag_23\n      jump\t// in\n    tag_34:\n        /* \"#utility.yul\":177:180   */\n      dup3\n        /* \"#utility.yul\":170:205   */\n      mstore\n        /* \"#utility.yul\":99:211   */\n      pop\n      pop\n      jump\t// out\n        /* \"#utility.yul\":217:431   */\n    tag_10:\n        /* \"#utility.yul\":306:310   */\n      0x00\n        /* \"#utility.yul\":344:346   */\n      0x20\n        /* \"#utility.yul\":333:342   */\n      dup3\n        /* \"#utility.yul\":329:347   */\n      add\n        /* \"#utility.yul\":321:347   */\n      swap1\n      pop\n        /* \"#utility.yul\":357:424   */\n      tag_36\n        /* \"#utility.yul\":421:422   */\n      0x00\n        /* \"#utility.yul\":410:419   */\n      dup4\n        /* \"#utility.yul\":406:423   */\n      add\n        /* \"#utility.yul\":397:403   */\n      dup5\n        /* \"#utility.yul\":357:424   */\n      tag_24\n      jump\t// in\n    tag_36:\n        /* \"#utility.yul\":217:431   */\n      swap3\n      swap2\n      pop\n      pop\n      jump\t// out\n        /* \"#utility.yul\":437:586   */\n    tag_25:\n        /* \"#utility.yul\":473:480   */\n      0x00\n        /* \"#utility.yul\":513:579   */\n      0xffffff0000000000000000000000000000000000000000000000000000000000\n        /* \"#utility.yul\":506:511   */\n      dup3\n        /* \"#utility.yul\":502:580   */\n      and\n        /* \"#utility.yul\":491:580   */\n      swap1\n      pop\n        /* \"#utility.yul\":437:586   */\n      swap2\n      swap1\n      pop\n      jump\t// out\n        /* \"#utility.yul\":592:707   */\n    tag_26:\n        /* \"#utility.yul\":677:700   */\n      tag_39\n        /* \"#utility.yul\":694:699   */\n      dup2\n        /* \"#utility.yul\":677:700   */\n      tag_25\n      jump\t// in\n    tag_39:\n        /* \"#utility.yul\":672:675   */\n      dup3\n        /* \"#utility.yul\":665:701   */\n      mstore\n        /* \"#utility.yul\":592:707   */\n      pop\n      pop\n      jump\t// out\n        /* \"#utility.yul\":713:931   */\n    tag_14:\n        /* \"#utility.yul\":804:808   */\n      0x00\n        /* \"#utility.yul\":842:844   */\n      0x20\n        /* \"#utility.yul\":831:840   */\n      dup3\n        /* \"#utility.yul\":827:845   */\n      add\n        /* \"#utility.yul\":819:845   */\n      swap1\n      pop\n        /* \"#utility.yul\":855:924   */\n      tag_41\n        /* \"#utility.yul\":921:922   */\n      0x00\n        /* \"#utility.yul\":910:919   */\n      dup4\n        /* \"#utility.yul\":906:923   */\n      add\n        /* \"#utility.yul\":897:903   */\n      dup5\n        /* \"#utility.yul\":855:924   */\n      tag_26\n      jump\t// in\n    tag_41:\n        /* \"#utility.yul\":713:931   */\n      swap3\n      swap2\n      pop\n      pop\n      jump\t// out\n        /* \"#utility.yul\":937:1086   */\n    tag_27:\n        /* \"#utility.yul\":973:980   */\n      0x00\n        /* \"#utility.yul\":1013:1079   */\n      0xffffffff00000000000000000000000000000000000000000000000000000000\n        /* \"#utility.yul\":1006:1011   */\n      dup3\n        /* \"#utility.yul\":1002:1080   */\n      and\n        /* \"#utility.yul\":991:1080   */\n      swap1\n      pop\n        /* \"#utility.yul\":937:1086   */\n      swap2\n      swap1\n      pop\n      jump\t// out\n        /* \"#utility.yul\":1092:1207   */\n    tag_28:\n        /* \"#utility.yul\":1177:1200   */\n      tag_44\n        /* \"#utility.yul\":1194:1199   */\n      dup2\n        /* \"#utility.yul\":1177:1200   */\n      tag_27\n      jump\t// in\n    tag_44:\n        /* \"#utility.yul\":1172:1175   */\n      dup3\n        /* \"#utility.yul\":1165:1201   */\n      mstore\n        /* \"#utility.yul\":1092:1207   */\n      pop\n      pop\n      jump\t// out\n        /* \"#utility.yul\":1213:1431   */\n    tag_18:\n        /* \"#utility.yul\":1304:1308   */\n      0x00\n        /* \"#utility.yul\":1342:1344   */\n      0x20\n        /* \"#utility.yul\":1331:1340   */\n      dup3\n        /* \"#utility.yul\":1327:1345   */\n      add\n        /* \"#utility.yul\":1319:1345   */\n      swap1\n      pop\n        /* \"#utility.yul\":1355:1424   */\n      tag_46\n        /* \"#utility.yul\":1421:1422   */\n      0x00\n        /* \"#utility.yul\":1410:1419   */\n      dup4\n        /* \"#utility.yul\":1406:1423   */\n      add\n        /* \"#utility.yul\":1397:1403   */\n      dup5\n        /* \"#utility.yul\":1355:1424   */\n      tag_28\n      jump\t// in\n    tag_46:\n        /* \"#utility.yul\":1213:1431   */\n      swap3\n      swap2\n      pop\n      pop\n      jump\t// out\n        /* \"#utility.yul\":1437:1586   */\n    tag_29:\n        /* \"#utility.yul\":1473:1480   */\n      0x00\n        /* \"#utility.yul\":1513:1579   */\n      0xff00000000000000000000000000000000000000000000000000000000000000\n        /* \"#utility.yul\":1506:1511   */\n      dup3\n        /* \"#utility.yul\":1502:1580   */\n      and\n        /* \"#utility.yul\":1491:1580   */\n      swap1\n      pop\n        /* \"#utility.yul\":1437:1586   */\n      swap2\n      swap1\n      pop\n      jump\t// out\n        /* \"#utility.yul\":1592:1707   */\n    tag_30:\n        /* \"#utility.yul\":1677:1700   */\n      tag_49\n        /* \"#utility.yul\":1694:1699   */\n      dup2\n        /* \"#utility.yul\":1677:1700   */\n      tag_29\n      jump\t// in\n    tag_49:\n        /* \"#utility.yul\":1672:1675   */\n      dup3\n        /* \"#utility.yul\":1665:1701   */\n      mstore\n        /* \"#utility.yul\":1592:1707   */\n      pop\n      pop\n      jump\t// out\n        /* \"#utility.yul\":1713:1931   */\n    tag_22:\n        /* \"#utility.yul\":1804:1808   */\n      0x00\n        /* \"#utility.yul\":1842:1844   */\n      0x20\n        /* \"#utility.yul\":1831:1840   */\n      dup3\n        /* \"#utility.yul\":1827:1845   */\n      add\n        /* \"#utility.yul\":1819:1845   */\n      swap1\n      pop\n        /* \"#utility.yul\":1855:1924   */\n      tag_51\n        /* \"#utility.yul\":1921:1922   */\n      0x00\n        /* \"#utility.yul\":1910:1919   */\n      dup4\n        /* \"#utility.yul\":1906:1923   */\n      add\n        /* \"#utility.yul\":1897:1903   */\n      dup5\n        /* \"#utility.yul\":1855:1924   */\n      tag_30\n      jump\t// in\n    tag_51:\n        /* \"#utility.yul\":1713:1931   */\n      swap3\n      swap2\n      pop\n      pop\n      jump\t// out\n\n    auxdata: 0xa2646970667358221220a1dc6169a388cbd9c2ceeea93c7d4bdf0faca11aab422ab94c65a2ee8db02b5864736f6c63430008110033\n}\n",
				"bytecode": {
					"linkReferences": {},
					"object": "608060405262abcdef60e81b6000806101000a81548162ffffff021916908360e81c021790555060008054906101000a900460e81b600260038110610047576100466100dd565b5b1a60f81b600060036101000a81548160ff021916908360f81c021790555060008054906101000a9050506003600060046101000a81548160ff021916908360ff1602179055507f6162630000000000000000000000000000000000000000000000000000000000600060056101000a81548163ffffffff021916908360e01c02179055503480156100d757600080fd5b5061010c565b7f4e487b7100000000000000000000000000000000000000000000000000000000600052603260045260246000fd5b6102828061011b6000396000f3fe608060405234801561001057600080fd5b506004361061004c5760003560e01c80631f7b6d32146100515780634df7e3d01461006f57806386b714e21461008d578063ee495002146100ab575b600080fd5b6100596100c9565b604051610066919061012f565b60405180910390f35b6100776100dc565b6040516100849190610185565b60405180910390f35b6100956100ed565b6040516100a291906101db565b60405180910390f35b6100b3610100565b6040516100c09190610231565b60405180910390f35b600060049054906101000a900460ff1681565b60008054906101000a900460e81b81565b600060059054906101000a900460e01b81565b600060039054906101000a900460f81b81565b600060ff82169050919050565b61012981610113565b82525050565b60006020820190506101446000830184610120565b92915050565b60007fffffff000000000000000000000000000000000000000000000000000000000082169050919050565b61017f8161014a565b82525050565b600060208201905061019a6000830184610176565b92915050565b60007fffffffff0000000000000000000000000000000000000000000000000000000082169050919050565b6101d5816101a0565b82525050565b60006020820190506101f060008301846101cc565b92915050565b60007fff0000000000000000000000000000000000000000000000000000000000000082169050919050565b61022b816101f6565b82525050565b60006020820190506102466000830184610222565b9291505056fea2646970667358221220a1dc6169a388cbd9c2ceeea93c7d4bdf0faca11aab422ab94c65a2ee8db02b5864736f6c63430008110033",
					"opcodes": "PUSH1 0x80 PUSH1 0x40 MSTORE PUSH3 0xABCDEF PUSH1 0xE8 SHL PUSH1 0x0 DUP1 PUSH2 0x100 EXP DUP2 SLOAD DUP2 PUSH3 0xFFFFFF MUL NOT AND SWAP1 DUP4 PUSH1 0xE8 SHR MUL OR SWAP1 SSTORE POP PUSH1 0x0 DUP1 SLOAD SWAP1 PUSH2 0x100 EXP SWAP1 DIV PUSH1 0xE8 SHL PUSH1 0x2 PUSH1 0x3 DUP2 LT PUSH2 0x47 JUMPI PUSH2 0x46 PUSH2 0xDD JUMP JUMPDEST JUMPDEST BYTE PUSH1 0xF8 SHL PUSH1 0x0 PUSH1 0x3 PUSH2 0x100 EXP DUP2 SLOAD DUP2 PUSH1 0xFF MUL NOT AND SWAP1 DUP4 PUSH1 0xF8 SHR MUL OR SWAP1 SSTORE POP PUSH1 0x0 DUP1 SLOAD SWAP1 PUSH2 0x100 EXP SWAP1 POP POP PUSH1 0x3 PUSH1 0x0 PUSH1 0x4 PUSH2 0x100 EXP DUP2 SLOAD DUP2 PUSH1 0xFF MUL NOT AND SWAP1 DUP4 PUSH1 0xFF AND MUL OR SWAP1 SSTORE POP PUSH32 0x6162630000000000000000000000000000000000000000000000000000000000 PUSH1 0x0 PUSH1 0x5 PUSH2 0x100 EXP DUP2 SLOAD DUP2 PUSH4 0xFFFFFFFF MUL NOT AND SWAP1 DUP4 PUSH1 0xE0 SHR MUL OR SWAP1 SSTORE POP CALLVALUE DUP1 ISZERO PUSH2 0xD7 JUMPI PUSH1 0x0 DUP1 REVERT JUMPDEST POP PUSH2 0x10C JUMP JUMPDEST PUSH32 0x4E487B7100000000000000000000000000000000000000000000000000000000 PUSH1 0x0 MSTORE PUSH1 0x32 PUSH1 0x4 MSTORE PUSH1 0x24 PUSH1 0x0 REVERT JUMPDEST PUSH2 0x282 DUP1 PUSH2 0x11B PUSH1 0x0 CODECOPY PUSH1 0x0 RETURN INVALID PUSH1 0x80 PUSH1 0x40 MSTORE CALLVALUE DUP1 ISZERO PUSH2 0x10 JUMPI PUSH1 0x0 DUP1 REVERT JUMPDEST POP PUSH1 0x4 CALLDATASIZE LT PUSH2 0x4C JUMPI PUSH1 0x0 CALLDATALOAD PUSH1 0xE0 SHR DUP1 PUSH4 0x1F7B6D32 EQ PUSH2 0x51 JUMPI DUP1 PUSH4 0x4DF7E3D0 EQ PUSH2 0x6F JUMPI DUP1 PUSH4 0x86B714E2 EQ PUSH2 0x8D JUMPI DUP1 PUSH4 0xEE495002 EQ PUSH2 0xAB JUMPI JUMPDEST PUSH1 0x0 DUP1 REVERT JUMPDEST PUSH2 0x59 PUSH2 0xC9 JUMP JUMPDEST PUSH1 0x40 MLOAD PUSH2 0x66 SWAP2 SWAP1 PUSH2 0x12F JUMP JUMPDEST PUSH1 0x40 MLOAD DUP1 SWAP2 SUB SWAP1 RETURN JUMPDEST PUSH2 0x77 PUSH2 0xDC JUMP JUMPDEST PUSH1 0x40 MLOAD PUSH2 0x84 SWAP2 SWAP1 PUSH2 0x185 JUMP JUMPDEST PUSH1 0x40 MLOAD DUP1 SWAP2 SUB SWAP1 RETURN JUMPDEST PUSH2 0x95 PUSH2 0xED JUMP JUMPDEST PUSH1 0x40 MLOAD PUSH2 0xA2 SWAP2 SWAP1 PUSH2 0x1DB JUMP JUMPDEST PUSH1 0x40 MLOAD DUP1 SWAP2 SUB SWAP1 RETURN JUMPDEST PUSH2 0xB3 PUSH2 0x100 JUMP JUMPDEST PUSH1 0x40 MLOAD PUSH2 0xC0 SWAP2 SWAP1 PUSH2 0x231 JUMP JUMPDEST PUSH1 0x40 MLOAD DUP1 SWAP2 SUB SWAP1 RETURN JUMPDEST PUSH1 0x0 PUSH1 0x4 SWAP1 SLOAD SWAP1 PUSH2 0x100 EXP SWAP1 DIV PUSH1 0xFF AND DUP2 JUMP JUMPDEST PUSH1 0x0 DUP1 SLOAD SWAP1 PUSH2 0x100 EXP SWAP1 DIV PUSH1 0xE8 SHL DUP2 JUMP JUMPDEST PUSH1 0x0 PUSH1 0x5 SWAP1 SLOAD SWAP1 PUSH2 0x100 EXP SWAP1 DIV PUSH1 0xE0 SHL DUP2 JUMP JUMPDEST PUSH1 0x0 PUSH1 0x3 SWAP1 SLOAD SWAP1 PUSH2 0x100 EXP SWAP1 DIV PUSH1 0xF8 SHL DUP2 JUMP JUMPDEST PUSH1 0x0 PUSH1 0xFF DUP3 AND SWAP1 POP SWAP2 SWAP1 POP JUMP JUMPDEST PUSH2 0x129 DUP2 PUSH2 0x113 JUMP JUMPDEST DUP3 MSTORE POP POP JUMP JUMPDEST PUSH1 0x0 PUSH1 0x20 DUP3 ADD SWAP1 POP PUSH2 0x144 PUSH1 0x0 DUP4 ADD DUP5 PUSH2 0x120 JUMP JUMPDEST SWAP3 SWAP2 POP POP JUMP JUMPDEST PUSH1 0x0 PUSH32 0xFFFFFF0000000000000000000000000000000000000000000000000000000000 DUP3 AND SWAP1 POP SWAP2 SWAP1 POP JUMP JUMPDEST PUSH2 0x17F DUP2 PUSH2 0x14A JUMP JUMPDEST DUP3 MSTORE POP POP JUMP JUMPDEST PUSH1 0x0 PUSH1 0x20 DUP3 ADD SWAP1 POP PUSH2 0x19A PUSH1 0x0 DUP4 ADD DUP5 PUSH2 0x176 JUMP JUMPDEST SWAP3 SWAP2 POP POP JUMP JUMPDEST PUSH1 0x0 PUSH32 0xFFFFFFFF00000000000000000000000000000000000000000000000000000000 DUP3 AND SWAP1 POP SWAP2 SWAP1 POP JUMP JUMPDEST PUSH2 0x1D5 DUP2 PUSH2 0x1A0 JUMP JUMPDEST DUP3 MSTORE POP POP JUMP JUMPDEST PUSH1 0x0 PUSH1 0x20 DUP3 ADD SWAP1 POP PUSH2 0x1F0 PUSH1 0x0 DUP4 ADD DUP5 PUSH2 0x1CC JUMP JUMPDEST SWAP3 SWAP2 POP POP JUMP JUMPDEST PUSH1 0x0 PUSH32 0xFF00000000000000000000000000000000000000000000000000000000000000 DUP3 AND SWAP1 POP SWAP2 SWAP1 POP JUMP JUMPDEST PUSH2 0x22B DUP2 PUSH2 0x1F6 JUMP JUMPDEST DUP3 MSTORE POP POP JUMP JUMPDEST PUSH1 0x0 PUSH1 0x20 DUP3 ADD SWAP1 POP PUSH2 0x246 PUSH1 0x0 DUP4 ADD DUP5 PUSH2 0x222 JUMP JUMPDEST SWAP3 SWAP2 POP POP JUMP INVALID LOG2 PUSH5 0x6970667358 0x22 SLT KECCAK256 LOG1 0xDC PUSH2 0x69A3 DUP9 0xCB 0xD9 0xC2 0xCE 0xEE 0xA9 EXTCODECOPY PUSH30 0x4BDF0FACA11AAB422AB94C65A2EE8DB02B5864736F6C6343000811003300 "
				},
				"gasEstimates": {
					"creation": {
						"codeDepositCost": "128400",
						"executionCost": "101710",
						"totalCost": "230110"
					},
					"external": {
						"b()": "2468",
						"b1()": "2565",
						"length()": "2499",
						"s()": "2543"
					}
				},
				"methodIdentifiers": {
					"b()": "4df7e3d0",
					"b1()": "ee495002",
					"length()": "1f7b6d32",
					"s()": "86b714e2"
				}
			},
			"storageLayout": {
				"storage": [
					{
						"astId": 5,
						"contract": "_09_数据类型_值类型_定长字节数组.sol:HelloWorld",
						"label": "b",
						"offset": 0,
						"slot": "0",
						"type": "t_bytes3"
					},
					{
						"astId": 10,
						"contract": "_09_数据类型_值类型_定长字节数组.sol:HelloWorld",
						"label": "b1",
						"offset": 3,
						"slot": "0",
						"type": "t_bytes1"
					},
					{
						"astId": 14,
						"contract": "_09_数据类型_值类型_定长字节数组.sol:HelloWorld",
						"label": "length",
						"offset": 4,
						"slot": "0",
						"type": "t_uint8"
					},
					{
						"astId": 17,
						"contract": "_09_数据类型_值类型_定长字节数组.sol:HelloWorld",
						"label": "s",
						"offset": 5,
						"slot": "0",
						"type": "t_bytes4"
					}
				],
				"types": {
					"t_bytes1": {
						"encoding": "inplace",
						"label": "bytes1",
						"numberOfBytes": "1"
					},
					"t_bytes3": {
						"encoding": "inplace",
						"label": "bytes3",
						"numberOfBytes": "3"
					},
					"t_bytes4": {
						"encoding": "inplace",
						"label": "bytes4",
						"numberOfBytes": "4"
					},
					"t_uint8": {
						"encoding": "inplace",
						"label": "uint8",
						"numberOfBytes": "1"
					}
				}
			},
			"userdoc": {
				"kind": "user",
				"methods": {
					"b()": {
						"notice": "定长字节数组: bytes1， bytes2， bytes3， …， bytes32 支持的运算符: 比较运算符： <=， <， ==， !=， >=， > （返回布尔型） 位运算符： &， |， ^ （按位异或）， ~ （按位取反） 移位运算符： << （左移位）， >> （右移位） 索引访问: 可以通过索引v[i]的形式来访问变量v的第i个字节, 只读 成员变量: length, uint8类型, 表示字节数组的长度, 只读"
					}
				},
				"version": 1
			}
		}
	}
}