{
	"结构控制.sol": {
		"HelloWorld": {
			"abi": [
				{
					"inputs": [],
					"name": "forTest",
					"outputs": [
						{
							"internalType": "uint256",
							"name": "",
							"type": "uint256"
						}
					],
					"stateMutability": "pure",
					"type": "function"
				},
				{
					"inputs": [
						{
							"internalType": "uint256",
							"name": "a",
							"type": "uint256"
						}
					],
					"name": "ifTest",
					"outputs": [
						{
							"internalType": "string",
							"name": "",
							"type": "string"
						}
					],
					"stateMutability": "pure",
					"type": "function"
				}
			],
			"devdoc": {
				"kind": "dev",
				"methods": {},
				"version": 1
			},
			"evm": {
				"assembly": "    /* \"\\xe7\\xbb\\x93\\xe6\\x9e\\x84\\xe6\\x8e\\xa7\\xe5\\x88\\xb6.sol\":66:1038  contract HelloWorld {... */\n  mstore(0x40, 0x80)\n  callvalue\n  dup1\n  iszero\n  tag_1\n  jumpi\n  0x00\n  dup1\n  revert\ntag_1:\n  pop\n  dataSize(sub_0)\n  dup1\n  dataOffset(sub_0)\n  0x00\n  codecopy\n  0x00\n  return\nstop\n\nsub_0: assembly {\n        /* \"\\xe7\\xbb\\x93\\xe6\\x9e\\x84\\xe6\\x8e\\xa7\\xe5\\x88\\xb6.sol\":66:1038  contract HelloWorld {... */\n      mstore(0x40, 0x80)\n      callvalue\n      dup1\n      iszero\n      tag_1\n      jumpi\n      0x00\n      dup1\n      revert\n    tag_1:\n      pop\n      jumpi(tag_2, lt(calldatasize, 0x04))\n      shr(0xe0, calldataload(0x00))\n      dup1\n      0x8ab605e5\n      eq\n      tag_3\n      jumpi\n      dup1\n      0xde152f8d\n      eq\n      tag_4\n      jumpi\n    tag_2:\n      0x00\n      dup1\n      revert\n        /* \"\\xe7\\xbb\\x93\\xe6\\x9e\\x84\\xe6\\x8e\\xa7\\xe5\\x88\\xb6.sol\":587:785  function ifTest(uint a) public pure returns (string memory) {... */\n    tag_3:\n      tag_5\n      0x04\n      dup1\n      calldatasize\n      sub\n      dup2\n      add\n      swap1\n      tag_6\n      swap2\n      swap1\n      tag_7\n      jump\t// in\n    tag_6:\n      tag_8\n      jump\t// in\n    tag_5:\n      mload(0x40)\n      tag_9\n      swap2\n      swap1\n      tag_10\n      jump\t// in\n    tag_9:\n      mload(0x40)\n      dup1\n      swap2\n      sub\n      swap1\n      return\n        /* \"\\xe7\\xbb\\x93\\xe6\\x9e\\x84\\xe6\\x8e\\xa7\\xe5\\x88\\xb6.sol\":794:1035  function forTest() public pure returns (uint) {... */\n    tag_4:\n      tag_11\n      tag_12\n      jump\t// in\n    tag_11:\n      mload(0x40)\n      tag_13\n      swap2\n      swap1\n      tag_14\n      jump\t// in\n    tag_13:\n      mload(0x40)\n      dup1\n      swap2\n      sub\n      swap1\n      return\n        /* \"\\xe7\\xbb\\x93\\xe6\\x9e\\x84\\xe6\\x8e\\xa7\\xe5\\x88\\xb6.sol\":587:785  function ifTest(uint a) public pure returns (string memory) {... */\n    tag_8:\n        /* \"\\xe7\\xbb\\x93\\xe6\\x9e\\x84\\xe6\\x8e\\xa7\\xe5\\x88\\xb6.sol\":632:645  string memory */\n      0x60\n        /* \"\\xe7\\xbb\\x93\\xe6\\x9e\\x84\\xe6\\x8e\\xa7\\xe5\\x88\\xb6.sol\":671:672  0 */\n      0x00\n        /* \"\\xe7\\xbb\\x93\\xe6\\x9e\\x84\\xe6\\x8e\\xa7\\xe5\\x88\\xb6.sol\":666:667  2 */\n      0x02\n        /* \"\\xe7\\xbb\\x93\\xe6\\x9e\\x84\\xe6\\x8e\\xa7\\xe5\\x88\\xb6.sol\":662:663  a */\n      dup4\n        /* \"\\xe7\\xbb\\x93\\xe6\\x9e\\x84\\xe6\\x8e\\xa7\\xe5\\x88\\xb6.sol\":662:667  a % 2 */\n      tag_16\n      swap2\n      swap1\n      tag_17\n      jump\t// in\n    tag_16:\n        /* \"\\xe7\\xbb\\x93\\xe6\\x9e\\x84\\xe6\\x8e\\xa7\\xe5\\x88\\xb6.sol\":662:672  a % 2 == 0 */\n      sub\n        /* \"\\xe7\\xbb\\x93\\xe6\\x9e\\x84\\xe6\\x8e\\xa7\\xe5\\x88\\xb6.sol\":658:777  if (a % 2 == 0){... */\n      tag_18\n      jumpi\n        /* \"\\xe7\\xbb\\x93\\xe6\\x9e\\x84\\xe6\\x8e\\xa7\\xe5\\x88\\xb6.sol\":688:710  return unicode\"偶数\" */\n      mload(0x40)\n      dup1\n      0x40\n      add\n      0x40\n      mstore\n      dup1\n      0x06\n      dup2\n      mstore\n      0x20\n      add\n      0xe581b6e695b00000000000000000000000000000000000000000000000000000\n      dup2\n      mstore\n      pop\n      swap1\n      pop\n      jump(tag_15)\n        /* \"\\xe7\\xbb\\x93\\xe6\\x9e\\x84\\xe6\\x8e\\xa7\\xe5\\x88\\xb6.sol\":658:777  if (a % 2 == 0){... */\n    tag_18:\n        /* \"\\xe7\\xbb\\x93\\xe6\\x9e\\x84\\xe6\\x8e\\xa7\\xe5\\x88\\xb6.sol\":743:765  return unicode\"奇数\" */\n      mload(0x40)\n      dup1\n      0x40\n      add\n      0x40\n      mstore\n      dup1\n      0x06\n      dup2\n      mstore\n      0x20\n      add\n      0xe5a587e695b00000000000000000000000000000000000000000000000000000\n      dup2\n      mstore\n      pop\n      swap1\n      pop\n        /* \"\\xe7\\xbb\\x93\\xe6\\x9e\\x84\\xe6\\x8e\\xa7\\xe5\\x88\\xb6.sol\":587:785  function ifTest(uint a) public pure returns (string memory) {... */\n    tag_15:\n      swap2\n      swap1\n      pop\n      jump\t// out\n        /* \"\\xe7\\xbb\\x93\\xe6\\x9e\\x84\\xe6\\x8e\\xa7\\xe5\\x88\\xb6.sol\":794:1035  function forTest() public pure returns (uint) {... */\n    tag_12:\n        /* \"\\xe7\\xbb\\x93\\xe6\\x9e\\x84\\xe6\\x8e\\xa7\\xe5\\x88\\xb6.sol\":834:838  uint */\n      0x00\n        /* \"\\xe7\\xbb\\x93\\xe6\\x9e\\x84\\xe6\\x8e\\xa7\\xe5\\x88\\xb6.sol\":851:872  uint8[5] memory array */\n      dup1\n        /* \"\\xe7\\xbb\\x93\\xe6\\x9e\\x84\\xe6\\x8e\\xa7\\xe5\\x88\\xb6.sol\":851:890  uint8[5] memory array = [1, 2, 3, 4, 5] */\n      mload(0x40)\n      dup1\n      0xa0\n      add\n      0x40\n      mstore\n      dup1\n        /* \"\\xe7\\xbb\\x93\\xe6\\x9e\\x84\\xe6\\x8e\\xa7\\xe5\\x88\\xb6.sol\":876:877  1 */\n      0x01\n        /* \"\\xe7\\xbb\\x93\\xe6\\x9e\\x84\\xe6\\x8e\\xa7\\xe5\\x88\\xb6.sol\":851:890  uint8[5] memory array = [1, 2, 3, 4, 5] */\n      0xff\n      and\n      dup2\n      mstore\n      0x20\n      add\n        /* \"\\xe7\\xbb\\x93\\xe6\\x9e\\x84\\xe6\\x8e\\xa7\\xe5\\x88\\xb6.sol\":879:880  2 */\n      0x02\n        /* \"\\xe7\\xbb\\x93\\xe6\\x9e\\x84\\xe6\\x8e\\xa7\\xe5\\x88\\xb6.sol\":851:890  uint8[5] memory array = [1, 2, 3, 4, 5] */\n      0xff\n      and\n      dup2\n      mstore\n      0x20\n      add\n        /* \"\\xe7\\xbb\\x93\\xe6\\x9e\\x84\\xe6\\x8e\\xa7\\xe5\\x88\\xb6.sol\":882:883  3 */\n      0x03\n        /* \"\\xe7\\xbb\\x93\\xe6\\x9e\\x84\\xe6\\x8e\\xa7\\xe5\\x88\\xb6.sol\":851:890  uint8[5] memory array = [1, 2, 3, 4, 5] */\n      0xff\n      and\n      dup2\n      mstore\n      0x20\n      add\n        /* \"\\xe7\\xbb\\x93\\xe6\\x9e\\x84\\xe6\\x8e\\xa7\\xe5\\x88\\xb6.sol\":885:886  4 */\n      0x04\n        /* \"\\xe7\\xbb\\x93\\xe6\\x9e\\x84\\xe6\\x8e\\xa7\\xe5\\x88\\xb6.sol\":851:890  uint8[5] memory array = [1, 2, 3, 4, 5] */\n      0xff\n      and\n      dup2\n      mstore\n      0x20\n      add\n        /* \"\\xe7\\xbb\\x93\\xe6\\x9e\\x84\\xe6\\x8e\\xa7\\xe5\\x88\\xb6.sol\":888:889  5 */\n      0x05\n        /* \"\\xe7\\xbb\\x93\\xe6\\x9e\\x84\\xe6\\x8e\\xa7\\xe5\\x88\\xb6.sol\":851:890  uint8[5] memory array = [1, 2, 3, 4, 5] */\n      0xff\n      and\n      dup2\n      mstore\n      pop\n      swap1\n      pop\n        /* \"\\xe7\\xbb\\x93\\xe6\\x9e\\x84\\xe6\\x8e\\xa7\\xe5\\x88\\xb6.sol\":901:909  uint sum */\n      0x00\n        /* \"\\xe7\\xbb\\x93\\xe6\\x9e\\x84\\xe6\\x8e\\xa7\\xe5\\x88\\xb6.sol\":929:936  uint8 i */\n      dup1\n        /* \"\\xe7\\xbb\\x93\\xe6\\x9e\\x84\\xe6\\x8e\\xa7\\xe5\\x88\\xb6.sol\":924:1006  for (uint8 i = 0; i < array.length; i++){... */\n    tag_21:\n        /* \"\\xe7\\xbb\\x93\\xe6\\x9e\\x84\\xe6\\x8e\\xa7\\xe5\\x88\\xb6.sol\":946:958  array.length */\n      0x05\n        /* \"\\xe7\\xbb\\x93\\xe6\\x9e\\x84\\xe6\\x8e\\xa7\\xe5\\x88\\xb6.sol\":942:943  i */\n      dup2\n        /* \"\\xe7\\xbb\\x93\\xe6\\x9e\\x84\\xe6\\x8e\\xa7\\xe5\\x88\\xb6.sol\":942:958  i < array.length */\n      0xff\n      and\n      lt\n        /* \"\\xe7\\xbb\\x93\\xe6\\x9e\\x84\\xe6\\x8e\\xa7\\xe5\\x88\\xb6.sol\":924:1006  for (uint8 i = 0; i < array.length; i++){... */\n      iszero\n      tag_22\n      jumpi\n        /* \"\\xe7\\xbb\\x93\\xe6\\x9e\\x84\\xe6\\x8e\\xa7\\xe5\\x88\\xb6.sol\":986:991  array */\n      dup3\n        /* \"\\xe7\\xbb\\x93\\xe6\\x9e\\x84\\xe6\\x8e\\xa7\\xe5\\x88\\xb6.sol\":992:993  i */\n      dup2\n        /* \"\\xe7\\xbb\\x93\\xe6\\x9e\\x84\\xe6\\x8e\\xa7\\xe5\\x88\\xb6.sol\":986:994  array[i] */\n      0xff\n      and\n      0x05\n      dup2\n      lt\n      tag_24\n      jumpi\n      tag_25\n      tag_26\n      jump\t// in\n    tag_25:\n    tag_24:\n      0x20\n      mul\n      add\n      mload\n        /* \"\\xe7\\xbb\\x93\\xe6\\x9e\\x84\\xe6\\x8e\\xa7\\xe5\\x88\\xb6.sol\":979:994  sum += array[i] */\n      0xff\n      and\n      dup3\n      tag_27\n      swap2\n      swap1\n      tag_28\n      jump\t// in\n    tag_27:\n      swap2\n      pop\n        /* \"\\xe7\\xbb\\x93\\xe6\\x9e\\x84\\xe6\\x8e\\xa7\\xe5\\x88\\xb6.sol\":960:963  i++ */\n      dup1\n      dup1\n      tag_29\n      swap1\n      tag_30\n      jump\t// in\n    tag_29:\n      swap2\n      pop\n      pop\n        /* \"\\xe7\\xbb\\x93\\xe6\\x9e\\x84\\xe6\\x8e\\xa7\\xe5\\x88\\xb6.sol\":924:1006  for (uint8 i = 0; i < array.length; i++){... */\n      jump(tag_21)\n    tag_22:\n      pop\n        /* \"\\xe7\\xbb\\x93\\xe6\\x9e\\x84\\xe6\\x8e\\xa7\\xe5\\x88\\xb6.sol\":1023:1026  sum */\n      dup1\n        /* \"\\xe7\\xbb\\x93\\xe6\\x9e\\x84\\xe6\\x8e\\xa7\\xe5\\x88\\xb6.sol\":1016:1026  return sum */\n      swap3\n      pop\n      pop\n      pop\n        /* \"\\xe7\\xbb\\x93\\xe6\\x9e\\x84\\xe6\\x8e\\xa7\\xe5\\x88\\xb6.sol\":794:1035  function forTest() public pure returns (uint) {... */\n      swap1\n      jump\t// out\n        /* \"#utility.yul\":88:205   */\n    tag_32:\n        /* \"#utility.yul\":197:198   */\n      0x00\n        /* \"#utility.yul\":194:195   */\n      dup1\n        /* \"#utility.yul\":187:199   */\n      revert\n        /* \"#utility.yul\":334:411   */\n    tag_34:\n        /* \"#utility.yul\":371:378   */\n      0x00\n        /* \"#utility.yul\":400:405   */\n      dup2\n        /* \"#utility.yul\":389:405   */\n      swap1\n      pop\n        /* \"#utility.yul\":334:411   */\n      swap2\n      swap1\n      pop\n      jump\t// out\n        /* \"#utility.yul\":417:539   */\n    tag_35:\n        /* \"#utility.yul\":490:514   */\n      tag_52\n        /* \"#utility.yul\":508:513   */\n      dup2\n        /* \"#utility.yul\":490:514   */\n      tag_34\n      jump\t// in\n    tag_52:\n        /* \"#utility.yul\":483:488   */\n      dup2\n        /* \"#utility.yul\":480:515   */\n      eq\n        /* \"#utility.yul\":470:533   */\n      tag_53\n      jumpi\n        /* \"#utility.yul\":529:530   */\n      0x00\n        /* \"#utility.yul\":526:527   */\n      dup1\n        /* \"#utility.yul\":519:531   */\n      revert\n        /* \"#utility.yul\":470:533   */\n    tag_53:\n        /* \"#utility.yul\":417:539   */\n      pop\n      jump\t// out\n        /* \"#utility.yul\":545:684   */\n    tag_36:\n        /* \"#utility.yul\":591:596   */\n      0x00\n        /* \"#utility.yul\":629:635   */\n      dup2\n        /* \"#utility.yul\":616:636   */\n      calldataload\n        /* \"#utility.yul\":607:636   */\n      swap1\n      pop\n        /* \"#utility.yul\":645:678   */\n      tag_55\n        /* \"#utility.yul\":672:677   */\n      dup2\n        /* \"#utility.yul\":645:678   */\n      tag_35\n      jump\t// in\n    tag_55:\n        /* \"#utility.yul\":545:684   */\n      swap3\n      swap2\n      pop\n      pop\n      jump\t// out\n        /* \"#utility.yul\":690:1019   */\n    tag_7:\n        /* \"#utility.yul\":749:755   */\n      0x00\n        /* \"#utility.yul\":798:800   */\n      0x20\n        /* \"#utility.yul\":786:795   */\n      dup3\n        /* \"#utility.yul\":777:784   */\n      dup5\n        /* \"#utility.yul\":773:796   */\n      sub\n        /* \"#utility.yul\":769:801   */\n      slt\n        /* \"#utility.yul\":766:885   */\n      iszero\n      tag_57\n      jumpi\n        /* \"#utility.yul\":804:883   */\n      tag_58\n      tag_32\n      jump\t// in\n    tag_58:\n        /* \"#utility.yul\":766:885   */\n    tag_57:\n        /* \"#utility.yul\":924:925   */\n      0x00\n        /* \"#utility.yul\":949:1002   */\n      tag_59\n        /* \"#utility.yul\":994:1001   */\n      dup5\n        /* \"#utility.yul\":985:991   */\n      dup3\n        /* \"#utility.yul\":974:983   */\n      dup6\n        /* \"#utility.yul\":970:992   */\n      add\n        /* \"#utility.yul\":949:1002   */\n      tag_36\n      jump\t// in\n    tag_59:\n        /* \"#utility.yul\":939:1002   */\n      swap2\n      pop\n        /* \"#utility.yul\":895:1012   */\n      pop\n        /* \"#utility.yul\":690:1019   */\n      swap3\n      swap2\n      pop\n      pop\n      jump\t// out\n        /* \"#utility.yul\":1025:1124   */\n    tag_37:\n        /* \"#utility.yul\":1077:1083   */\n      0x00\n        /* \"#utility.yul\":1111:1116   */\n      dup2\n        /* \"#utility.yul\":1105:1117   */\n      mload\n        /* \"#utility.yul\":1095:1117   */\n      swap1\n      pop\n        /* \"#utility.yul\":1025:1124   */\n      swap2\n      swap1\n      pop\n      jump\t// out\n        /* \"#utility.yul\":1130:1299   */\n    tag_38:\n        /* \"#utility.yul\":1214:1225   */\n      0x00\n        /* \"#utility.yul\":1248:1254   */\n      dup3\n        /* \"#utility.yul\":1243:1246   */\n      dup3\n        /* \"#utility.yul\":1236:1255   */\n      mstore\n        /* \"#utility.yul\":1288:1292   */\n      0x20\n        /* \"#utility.yul\":1283:1286   */\n      dup3\n        /* \"#utility.yul\":1279:1293   */\n      add\n        /* \"#utility.yul\":1264:1293   */\n      swap1\n      pop\n        /* \"#utility.yul\":1130:1299   */\n      swap3\n      swap2\n      pop\n      pop\n      jump\t// out\n        /* \"#utility.yul\":1305:1551   */\n    tag_39:\n        /* \"#utility.yul\":1386:1387   */\n      0x00\n        /* \"#utility.yul\":1396:1509   */\n    tag_63:\n        /* \"#utility.yul\":1410:1416   */\n      dup4\n        /* \"#utility.yul\":1407:1408   */\n      dup2\n        /* \"#utility.yul\":1404:1417   */\n      lt\n        /* \"#utility.yul\":1396:1509   */\n      iszero\n      tag_65\n      jumpi\n        /* \"#utility.yul\":1495:1496   */\n      dup1\n        /* \"#utility.yul\":1490:1493   */\n      dup3\n        /* \"#utility.yul\":1486:1497   */\n      add\n        /* \"#utility.yul\":1480:1498   */\n      mload\n        /* \"#utility.yul\":1476:1477   */\n      dup2\n        /* \"#utility.yul\":1471:1474   */\n      dup5\n        /* \"#utility.yul\":1467:1478   */\n      add\n        /* \"#utility.yul\":1460:1499   */\n      mstore\n        /* \"#utility.yul\":1432:1434   */\n      0x20\n        /* \"#utility.yul\":1429:1430   */\n      dup2\n        /* \"#utility.yul\":1425:1435   */\n      add\n        /* \"#utility.yul\":1420:1435   */\n      swap1\n      pop\n        /* \"#utility.yul\":1396:1509   */\n      jump(tag_63)\n    tag_65:\n        /* \"#utility.yul\":1543:1544   */\n      0x00\n        /* \"#utility.yul\":1534:1540   */\n      dup5\n        /* \"#utility.yul\":1529:1532   */\n      dup5\n        /* \"#utility.yul\":1525:1541   */\n      add\n        /* \"#utility.yul\":1518:1545   */\n      mstore\n        /* \"#utility.yul\":1367:1551   */\n      pop\n        /* \"#utility.yul\":1305:1551   */\n      pop\n      pop\n      pop\n      jump\t// out\n        /* \"#utility.yul\":1557:1659   */\n    tag_40:\n        /* \"#utility.yul\":1598:1604   */\n      0x00\n        /* \"#utility.yul\":1649:1651   */\n      0x1f\n        /* \"#utility.yul\":1645:1652   */\n      not\n        /* \"#utility.yul\":1640:1642   */\n      0x1f\n        /* \"#utility.yul\":1633:1638   */\n      dup4\n        /* \"#utility.yul\":1629:1643   */\n      add\n        /* \"#utility.yul\":1625:1653   */\n      and\n        /* \"#utility.yul\":1615:1653   */\n      swap1\n      pop\n        /* \"#utility.yul\":1557:1659   */\n      swap2\n      swap1\n      pop\n      jump\t// out\n        /* \"#utility.yul\":1665:2042   */\n    tag_41:\n        /* \"#utility.yul\":1753:1756   */\n      0x00\n        /* \"#utility.yul\":1781:1820   */\n      tag_68\n        /* \"#utility.yul\":1814:1819   */\n      dup3\n        /* \"#utility.yul\":1781:1820   */\n      tag_37\n      jump\t// in\n    tag_68:\n        /* \"#utility.yul\":1836:1907   */\n      tag_69\n        /* \"#utility.yul\":1900:1906   */\n      dup2\n        /* \"#utility.yul\":1895:1898   */\n      dup6\n        /* \"#utility.yul\":1836:1907   */\n      tag_38\n      jump\t// in\n    tag_69:\n        /* \"#utility.yul\":1829:1907   */\n      swap4\n      pop\n        /* \"#utility.yul\":1916:1981   */\n      tag_70\n        /* \"#utility.yul\":1974:1980   */\n      dup2\n        /* \"#utility.yul\":1969:1972   */\n      dup6\n        /* \"#utility.yul\":1962:1966   */\n      0x20\n        /* \"#utility.yul\":1955:1960   */\n      dup7\n        /* \"#utility.yul\":1951:1967   */\n      add\n        /* \"#utility.yul\":1916:1981   */\n      tag_39\n      jump\t// in\n    tag_70:\n        /* \"#utility.yul\":2006:2035   */\n      tag_71\n        /* \"#utility.yul\":2028:2034   */\n      dup2\n        /* \"#utility.yul\":2006:2035   */\n      tag_40\n      jump\t// in\n    tag_71:\n        /* \"#utility.yul\":2001:2004   */\n      dup5\n        /* \"#utility.yul\":1997:2036   */\n      add\n        /* \"#utility.yul\":1990:2036   */\n      swap2\n      pop\n        /* \"#utility.yul\":1757:2042   */\n      pop\n        /* \"#utility.yul\":1665:2042   */\n      swap3\n      swap2\n      pop\n      pop\n      jump\t// out\n        /* \"#utility.yul\":2048:2361   */\n    tag_10:\n        /* \"#utility.yul\":2161:2165   */\n      0x00\n        /* \"#utility.yul\":2199:2201   */\n      0x20\n        /* \"#utility.yul\":2188:2197   */\n      dup3\n        /* \"#utility.yul\":2184:2202   */\n      add\n        /* \"#utility.yul\":2176:2202   */\n      swap1\n      pop\n        /* \"#utility.yul\":2248:2257   */\n      dup2\n        /* \"#utility.yul\":2242:2246   */\n      dup2\n        /* \"#utility.yul\":2238:2258   */\n      sub\n        /* \"#utility.yul\":2234:2235   */\n      0x00\n        /* \"#utility.yul\":2223:2232   */\n      dup4\n        /* \"#utility.yul\":2219:2236   */\n      add\n        /* \"#utility.yul\":2212:2259   */\n      mstore\n        /* \"#utility.yul\":2276:2354   */\n      tag_73\n        /* \"#utility.yul\":2349:2353   */\n      dup2\n        /* \"#utility.yul\":2340:2346   */\n      dup5\n        /* \"#utility.yul\":2276:2354   */\n      tag_41\n      jump\t// in\n    tag_73:\n        /* \"#utility.yul\":2268:2354   */\n      swap1\n      pop\n        /* \"#utility.yul\":2048:2361   */\n      swap3\n      swap2\n      pop\n      pop\n      jump\t// out\n        /* \"#utility.yul\":2367:2485   */\n    tag_42:\n        /* \"#utility.yul\":2454:2478   */\n      tag_75\n        /* \"#utility.yul\":2472:2477   */\n      dup2\n        /* \"#utility.yul\":2454:2478   */\n      tag_34\n      jump\t// in\n    tag_75:\n        /* \"#utility.yul\":2449:2452   */\n      dup3\n        /* \"#utility.yul\":2442:2479   */\n      mstore\n        /* \"#utility.yul\":2367:2485   */\n      pop\n      pop\n      jump\t// out\n        /* \"#utility.yul\":2491:2713   */\n    tag_14:\n        /* \"#utility.yul\":2584:2588   */\n      0x00\n        /* \"#utility.yul\":2622:2624   */\n      0x20\n        /* \"#utility.yul\":2611:2620   */\n      dup3\n        /* \"#utility.yul\":2607:2625   */\n      add\n        /* \"#utility.yul\":2599:2625   */\n      swap1\n      pop\n        /* \"#utility.yul\":2635:2706   */\n      tag_77\n        /* \"#utility.yul\":2703:2704   */\n      0x00\n        /* \"#utility.yul\":2692:2701   */\n      dup4\n        /* \"#utility.yul\":2688:2705   */\n      add\n        /* \"#utility.yul\":2679:2685   */\n      dup5\n        /* \"#utility.yul\":2635:2706   */\n      tag_42\n      jump\t// in\n    tag_77:\n        /* \"#utility.yul\":2491:2713   */\n      swap3\n      swap2\n      pop\n      pop\n      jump\t// out\n        /* \"#utility.yul\":2719:2899   */\n    tag_43:\n        /* \"#utility.yul\":2767:2844   */\n      0x4e487b7100000000000000000000000000000000000000000000000000000000\n        /* \"#utility.yul\":2764:2765   */\n      0x00\n        /* \"#utility.yul\":2757:2845   */\n      mstore\n        /* \"#utility.yul\":2864:2868   */\n      0x12\n        /* \"#utility.yul\":2861:2862   */\n      0x04\n        /* \"#utility.yul\":2854:2869   */\n      mstore\n        /* \"#utility.yul\":2888:2892   */\n      0x24\n        /* \"#utility.yul\":2885:2886   */\n      0x00\n        /* \"#utility.yul\":2878:2893   */\n      revert\n        /* \"#utility.yul\":2905:3081   */\n    tag_17:\n        /* \"#utility.yul\":2937:2938   */\n      0x00\n        /* \"#utility.yul\":2954:2974   */\n      tag_80\n        /* \"#utility.yul\":2972:2973   */\n      dup3\n        /* \"#utility.yul\":2954:2974   */\n      tag_34\n      jump\t// in\n    tag_80:\n        /* \"#utility.yul\":2949:2974   */\n      swap2\n      pop\n        /* \"#utility.yul\":2988:3008   */\n      tag_81\n        /* \"#utility.yul\":3006:3007   */\n      dup4\n        /* \"#utility.yul\":2988:3008   */\n      tag_34\n      jump\t// in\n    tag_81:\n        /* \"#utility.yul\":2983:3008   */\n      swap3\n      pop\n        /* \"#utility.yul\":3027:3028   */\n      dup3\n        /* \"#utility.yul\":3017:3052   */\n      tag_82\n      jumpi\n        /* \"#utility.yul\":3032:3050   */\n      tag_83\n      tag_43\n      jump\t// in\n    tag_83:\n        /* \"#utility.yul\":3017:3052   */\n    tag_82:\n        /* \"#utility.yul\":3073:3074   */\n      dup3\n        /* \"#utility.yul\":3070:3071   */\n      dup3\n        /* \"#utility.yul\":3066:3075   */\n      mod\n        /* \"#utility.yul\":3061:3075   */\n      swap1\n      pop\n        /* \"#utility.yul\":2905:3081   */\n      swap3\n      swap2\n      pop\n      pop\n      jump\t// out\n        /* \"#utility.yul\":3087:3267   */\n    tag_26:\n        /* \"#utility.yul\":3135:3212   */\n      0x4e487b7100000000000000000000000000000000000000000000000000000000\n        /* \"#utility.yul\":3132:3133   */\n      0x00\n        /* \"#utility.yul\":3125:3213   */\n      mstore\n        /* \"#utility.yul\":3232:3236   */\n      0x32\n        /* \"#utility.yul\":3229:3230   */\n      0x04\n        /* \"#utility.yul\":3222:3237   */\n      mstore\n        /* \"#utility.yul\":3256:3260   */\n      0x24\n        /* \"#utility.yul\":3253:3254   */\n      0x00\n        /* \"#utility.yul\":3246:3261   */\n      revert\n        /* \"#utility.yul\":3273:3453   */\n    tag_44:\n        /* \"#utility.yul\":3321:3398   */\n      0x4e487b7100000000000000000000000000000000000000000000000000000000\n        /* \"#utility.yul\":3318:3319   */\n      0x00\n        /* \"#utility.yul\":3311:3399   */\n      mstore\n        /* \"#utility.yul\":3418:3422   */\n      0x11\n        /* \"#utility.yul\":3415:3416   */\n      0x04\n        /* \"#utility.yul\":3408:3423   */\n      mstore\n        /* \"#utility.yul\":3442:3446   */\n      0x24\n        /* \"#utility.yul\":3439:3440   */\n      0x00\n        /* \"#utility.yul\":3432:3447   */\n      revert\n        /* \"#utility.yul\":3459:3650   */\n    tag_28:\n        /* \"#utility.yul\":3499:3502   */\n      0x00\n        /* \"#utility.yul\":3518:3538   */\n      tag_87\n        /* \"#utility.yul\":3536:3537   */\n      dup3\n        /* \"#utility.yul\":3518:3538   */\n      tag_34\n      jump\t// in\n    tag_87:\n        /* \"#utility.yul\":3513:3538   */\n      swap2\n      pop\n        /* \"#utility.yul\":3552:3572   */\n      tag_88\n        /* \"#utility.yul\":3570:3571   */\n      dup4\n        /* \"#utility.yul\":3552:3572   */\n      tag_34\n      jump\t// in\n    tag_88:\n        /* \"#utility.yul\":3547:3572   */\n      swap3\n      pop\n        /* \"#utility.yul\":3595:3596   */\n      dup3\n        /* \"#utility.yul\":3592:3593   */\n      dup3\n        /* \"#utility.yul\":3588:3597   */\n      add\n        /* \"#utility.yul\":3581:3597   */\n      swap1\n      pop\n        /* \"#utility.yul\":3616:3619   */\n      dup1\n        /* \"#utility.yul\":3613:3614   */\n      dup3\n        /* \"#utility.yul\":3610:3620   */\n      gt\n        /* \"#utility.yul\":3607:3643   */\n      iszero\n      tag_89\n      jumpi\n        /* \"#utility.yul\":3623:3641   */\n      tag_90\n      tag_44\n      jump\t// in\n    tag_90:\n        /* \"#utility.yul\":3607:3643   */\n    tag_89:\n        /* \"#utility.yul\":3459:3650   */\n      swap3\n      swap2\n      pop\n      pop\n      jump\t// out\n        /* \"#utility.yul\":3656:3742   */\n    tag_45:\n        /* \"#utility.yul\":3691:3698   */\n      0x00\n        /* \"#utility.yul\":3731:3735   */\n      0xff\n        /* \"#utility.yul\":3724:3729   */\n      dup3\n        /* \"#utility.yul\":3720:3736   */\n      and\n        /* \"#utility.yul\":3709:3736   */\n      swap1\n      pop\n        /* \"#utility.yul\":3656:3742   */\n      swap2\n      swap1\n      pop\n      jump\t// out\n        /* \"#utility.yul\":3748:3915   */\n    tag_30:\n        /* \"#utility.yul\":3785:3788   */\n      0x00\n        /* \"#utility.yul\":3808:3830   */\n      tag_93\n        /* \"#utility.yul\":3824:3829   */\n      dup3\n        /* \"#utility.yul\":3808:3830   */\n      tag_45\n      jump\t// in\n    tag_93:\n        /* \"#utility.yul\":3799:3830   */\n      swap2\n      pop\n        /* \"#utility.yul\":3852:3856   */\n      0xff\n        /* \"#utility.yul\":3845:3850   */\n      dup3\n        /* \"#utility.yul\":3842:3857   */\n      sub\n        /* \"#utility.yul\":3839:3880   */\n      tag_94\n      jumpi\n        /* \"#utility.yul\":3860:3878   */\n      tag_95\n      tag_44\n      jump\t// in\n    tag_95:\n        /* \"#utility.yul\":3839:3880   */\n    tag_94:\n        /* \"#utility.yul\":3907:3908   */\n      0x01\n        /* \"#utility.yul\":3900:3905   */\n      dup3\n        /* \"#utility.yul\":3896:3909   */\n      add\n        /* \"#utility.yul\":3889:3909   */\n      swap1\n      pop\n        /* \"#utility.yul\":3748:3915   */\n      swap2\n      swap1\n      pop\n      jump\t// out\n\n    auxdata: 0xa264697066735822122087111c0ca12896c8943511b685c86bb2593ab7c888ea3a2905122c5a2f0a8ab564736f6c63430008110033\n}\n",
				"bytecode": {
					"linkReferences": {},
					"object": "608060405234801561001057600080fd5b50610453806100206000396000f3fe608060405234801561001057600080fd5b50600436106100365760003560e01c80638ab605e51461003b578063de152f8d1461006b575b600080fd5b610055600480360381019061005091906101ec565b610089565b60405161006291906102a9565b60405180910390f35b61007361011a565b60405161008091906102da565b60405180910390f35b6060600060028361009a9190610324565b036100dc576040518060400160405280600681526020017fe581b6e695b000000000000000000000000000000000000000000000000000008152509050610115565b6040518060400160405280600681526020017fe5a587e695b0000000000000000000000000000000000000000000000000000081525090505b919050565b6000806040518060a00160405280600160ff168152602001600260ff168152602001600360ff168152602001600460ff168152602001600560ff1681525090506000805b60058160ff1610156101a857828160ff16600581106101805761017f610355565b5b602002015160ff168261019391906103b3565b915080806101a0906103f4565b91505061015e565b50809250505090565b600080fd5b6000819050919050565b6101c9816101b6565b81146101d457600080fd5b50565b6000813590506101e6816101c0565b92915050565b600060208284031215610202576102016101b1565b5b6000610210848285016101d7565b91505092915050565b600081519050919050565b600082825260208201905092915050565b60005b83811015610253578082015181840152602081019050610238565b60008484015250505050565b6000601f19601f8301169050919050565b600061027b82610219565b6102858185610224565b9350610295818560208601610235565b61029e8161025f565b840191505092915050565b600060208201905081810360008301526102c38184610270565b905092915050565b6102d4816101b6565b82525050565b60006020820190506102ef60008301846102cb565b92915050565b7f4e487b7100000000000000000000000000000000000000000000000000000000600052601260045260246000fd5b600061032f826101b6565b915061033a836101b6565b92508261034a576103496102f5565b5b828206905092915050565b7f4e487b7100000000000000000000000000000000000000000000000000000000600052603260045260246000fd5b7f4e487b7100000000000000000000000000000000000000000000000000000000600052601160045260246000fd5b60006103be826101b6565b91506103c9836101b6565b92508282019050808211156103e1576103e0610384565b5b92915050565b600060ff82169050919050565b60006103ff826103e7565b915060ff820361041257610411610384565b5b60018201905091905056fea264697066735822122087111c0ca12896c8943511b685c86bb2593ab7c888ea3a2905122c5a2f0a8ab564736f6c63430008110033",
					"opcodes": "PUSH1 0x80 PUSH1 0x40 MSTORE CALLVALUE DUP1 ISZERO PUSH2 0x10 JUMPI PUSH1 0x0 DUP1 REVERT JUMPDEST POP PUSH2 0x453 DUP1 PUSH2 0x20 PUSH1 0x0 CODECOPY PUSH1 0x0 RETURN INVALID PUSH1 0x80 PUSH1 0x40 MSTORE CALLVALUE DUP1 ISZERO PUSH2 0x10 JUMPI PUSH1 0x0 DUP1 REVERT JUMPDEST POP PUSH1 0x4 CALLDATASIZE LT PUSH2 0x36 JUMPI PUSH1 0x0 CALLDATALOAD PUSH1 0xE0 SHR DUP1 PUSH4 0x8AB605E5 EQ PUSH2 0x3B JUMPI DUP1 PUSH4 0xDE152F8D EQ PUSH2 0x6B JUMPI JUMPDEST PUSH1 0x0 DUP1 REVERT JUMPDEST PUSH2 0x55 PUSH1 0x4 DUP1 CALLDATASIZE SUB DUP2 ADD SWAP1 PUSH2 0x50 SWAP2 SWAP1 PUSH2 0x1EC JUMP JUMPDEST PUSH2 0x89 JUMP JUMPDEST PUSH1 0x40 MLOAD PUSH2 0x62 SWAP2 SWAP1 PUSH2 0x2A9 JUMP JUMPDEST PUSH1 0x40 MLOAD DUP1 SWAP2 SUB SWAP1 RETURN JUMPDEST PUSH2 0x73 PUSH2 0x11A JUMP JUMPDEST PUSH1 0x40 MLOAD PUSH2 0x80 SWAP2 SWAP1 PUSH2 0x2DA JUMP JUMPDEST PUSH1 0x40 MLOAD DUP1 SWAP2 SUB SWAP1 RETURN JUMPDEST PUSH1 0x60 PUSH1 0x0 PUSH1 0x2 DUP4 PUSH2 0x9A SWAP2 SWAP1 PUSH2 0x324 JUMP JUMPDEST SUB PUSH2 0xDC JUMPI PUSH1 0x40 MLOAD DUP1 PUSH1 0x40 ADD PUSH1 0x40 MSTORE DUP1 PUSH1 0x6 DUP2 MSTORE PUSH1 0x20 ADD PUSH32 0xE581B6E695B00000000000000000000000000000000000000000000000000000 DUP2 MSTORE POP SWAP1 POP PUSH2 0x115 JUMP JUMPDEST PUSH1 0x40 MLOAD DUP1 PUSH1 0x40 ADD PUSH1 0x40 MSTORE DUP1 PUSH1 0x6 DUP2 MSTORE PUSH1 0x20 ADD PUSH32 0xE5A587E695B00000000000000000000000000000000000000000000000000000 DUP2 MSTORE POP SWAP1 POP JUMPDEST SWAP2 SWAP1 POP JUMP JUMPDEST PUSH1 0x0 DUP1 PUSH1 0x40 MLOAD DUP1 PUSH1 0xA0 ADD PUSH1 0x40 MSTORE DUP1 PUSH1 0x1 PUSH1 0xFF AND DUP2 MSTORE PUSH1 0x20 ADD PUSH1 0x2 PUSH1 0xFF AND DUP2 MSTORE PUSH1 0x20 ADD PUSH1 0x3 PUSH1 0xFF AND DUP2 MSTORE PUSH1 0x20 ADD PUSH1 0x4 PUSH1 0xFF AND DUP2 MSTORE PUSH1 0x20 ADD PUSH1 0x5 PUSH1 0xFF AND DUP2 MSTORE POP SWAP1 POP PUSH1 0x0 DUP1 JUMPDEST PUSH1 0x5 DUP2 PUSH1 0xFF AND LT ISZERO PUSH2 0x1A8 JUMPI DUP3 DUP2 PUSH1 0xFF AND PUSH1 0x5 DUP2 LT PUSH2 0x180 JUMPI PUSH2 0x17F PUSH2 0x355 JUMP JUMPDEST JUMPDEST PUSH1 0x20 MUL ADD MLOAD PUSH1 0xFF AND DUP3 PUSH2 0x193 SWAP2 SWAP1 PUSH2 0x3B3 JUMP JUMPDEST SWAP2 POP DUP1 DUP1 PUSH2 0x1A0 SWAP1 PUSH2 0x3F4 JUMP JUMPDEST SWAP2 POP POP PUSH2 0x15E JUMP JUMPDEST POP DUP1 SWAP3 POP POP POP SWAP1 JUMP JUMPDEST PUSH1 0x0 DUP1 REVERT JUMPDEST PUSH1 0x0 DUP2 SWAP1 POP SWAP2 SWAP1 POP JUMP JUMPDEST PUSH2 0x1C9 DUP2 PUSH2 0x1B6 JUMP JUMPDEST DUP2 EQ PUSH2 0x1D4 JUMPI PUSH1 0x0 DUP1 REVERT JUMPDEST POP JUMP JUMPDEST PUSH1 0x0 DUP2 CALLDATALOAD SWAP1 POP PUSH2 0x1E6 DUP2 PUSH2 0x1C0 JUMP JUMPDEST SWAP3 SWAP2 POP POP JUMP JUMPDEST PUSH1 0x0 PUSH1 0x20 DUP3 DUP5 SUB SLT ISZERO PUSH2 0x202 JUMPI PUSH2 0x201 PUSH2 0x1B1 JUMP JUMPDEST JUMPDEST PUSH1 0x0 PUSH2 0x210 DUP5 DUP3 DUP6 ADD PUSH2 0x1D7 JUMP JUMPDEST SWAP2 POP POP SWAP3 SWAP2 POP POP JUMP JUMPDEST PUSH1 0x0 DUP2 MLOAD SWAP1 POP SWAP2 SWAP1 POP JUMP JUMPDEST PUSH1 0x0 DUP3 DUP3 MSTORE PUSH1 0x20 DUP3 ADD SWAP1 POP SWAP3 SWAP2 POP POP JUMP JUMPDEST PUSH1 0x0 JUMPDEST DUP4 DUP2 LT ISZERO PUSH2 0x253 JUMPI DUP1 DUP3 ADD MLOAD DUP2 DUP5 ADD MSTORE PUSH1 0x20 DUP2 ADD SWAP1 POP PUSH2 0x238 JUMP JUMPDEST PUSH1 0x0 DUP5 DUP5 ADD MSTORE POP POP POP POP JUMP JUMPDEST PUSH1 0x0 PUSH1 0x1F NOT PUSH1 0x1F DUP4 ADD AND SWAP1 POP SWAP2 SWAP1 POP JUMP JUMPDEST PUSH1 0x0 PUSH2 0x27B DUP3 PUSH2 0x219 JUMP JUMPDEST PUSH2 0x285 DUP2 DUP6 PUSH2 0x224 JUMP JUMPDEST SWAP4 POP PUSH2 0x295 DUP2 DUP6 PUSH1 0x20 DUP7 ADD PUSH2 0x235 JUMP JUMPDEST PUSH2 0x29E DUP2 PUSH2 0x25F JUMP JUMPDEST DUP5 ADD SWAP2 POP POP SWAP3 SWAP2 POP POP JUMP JUMPDEST PUSH1 0x0 PUSH1 0x20 DUP3 ADD SWAP1 POP DUP2 DUP2 SUB PUSH1 0x0 DUP4 ADD MSTORE PUSH2 0x2C3 DUP2 DUP5 PUSH2 0x270 JUMP JUMPDEST SWAP1 POP SWAP3 SWAP2 POP POP JUMP JUMPDEST PUSH2 0x2D4 DUP2 PUSH2 0x1B6 JUMP JUMPDEST DUP3 MSTORE POP POP JUMP JUMPDEST PUSH1 0x0 PUSH1 0x20 DUP3 ADD SWAP1 POP PUSH2 0x2EF PUSH1 0x0 DUP4 ADD DUP5 PUSH2 0x2CB JUMP JUMPDEST SWAP3 SWAP2 POP POP JUMP JUMPDEST PUSH32 0x4E487B7100000000000000000000000000000000000000000000000000000000 PUSH1 0x0 MSTORE PUSH1 0x12 PUSH1 0x4 MSTORE PUSH1 0x24 PUSH1 0x0 REVERT JUMPDEST PUSH1 0x0 PUSH2 0x32F DUP3 PUSH2 0x1B6 JUMP JUMPDEST SWAP2 POP PUSH2 0x33A DUP4 PUSH2 0x1B6 JUMP JUMPDEST SWAP3 POP DUP3 PUSH2 0x34A JUMPI PUSH2 0x349 PUSH2 0x2F5 JUMP JUMPDEST JUMPDEST DUP3 DUP3 MOD SWAP1 POP SWAP3 SWAP2 POP POP JUMP JUMPDEST PUSH32 0x4E487B7100000000000000000000000000000000000000000000000000000000 PUSH1 0x0 MSTORE PUSH1 0x32 PUSH1 0x4 MSTORE PUSH1 0x24 PUSH1 0x0 REVERT JUMPDEST PUSH32 0x4E487B7100000000000000000000000000000000000000000000000000000000 PUSH1 0x0 MSTORE PUSH1 0x11 PUSH1 0x4 MSTORE PUSH1 0x24 PUSH1 0x0 REVERT JUMPDEST PUSH1 0x0 PUSH2 0x3BE DUP3 PUSH2 0x1B6 JUMP JUMPDEST SWAP2 POP PUSH2 0x3C9 DUP4 PUSH2 0x1B6 JUMP JUMPDEST SWAP3 POP DUP3 DUP3 ADD SWAP1 POP DUP1 DUP3 GT ISZERO PUSH2 0x3E1 JUMPI PUSH2 0x3E0 PUSH2 0x384 JUMP JUMPDEST JUMPDEST SWAP3 SWAP2 POP POP JUMP JUMPDEST PUSH1 0x0 PUSH1 0xFF DUP3 AND SWAP1 POP SWAP2 SWAP1 POP JUMP JUMPDEST PUSH1 0x0 PUSH2 0x3FF DUP3 PUSH2 0x3E7 JUMP JUMPDEST SWAP2 POP PUSH1 0xFF DUP3 SUB PUSH2 0x412 JUMPI PUSH2 0x411 PUSH2 0x384 JUMP JUMPDEST JUMPDEST PUSH1 0x1 DUP3 ADD SWAP1 POP SWAP2 SWAP1 POP JUMP INVALID LOG2 PUSH5 0x6970667358 0x22 SLT KECCAK256 DUP8 GT SHR 0xC LOG1 0x28 SWAP7 0xC8 SWAP5 CALLDATALOAD GT 0xB6 DUP6 0xC8 PUSH12 0xB2593AB7C888EA3A2905122C GAS 0x2F EXP DUP11 0xB5 PUSH5 0x736F6C6343 STOP ADDMOD GT STOP CALLER "
				},
				"gasEstimates": {
					"creation": {
						"codeDepositCost": "221400",
						"executionCost": "263",
						"totalCost": "221663"
					},
					"external": {
						"forTest()": "infinite",
						"ifTest(uint256)": "infinite"
					}
				},
				"methodIdentifiers": {
					"forTest()": "de152f8d",
					"ifTest(uint256)": "8ab605e5"
				}
			},
			"storageLayout": {
				"storage": [],
				"types": null
			},
			"userdoc": {
				"kind": "user",
				"methods": {
					"ifTest(uint256)": {
						"notice": "- Solidity 中有 if，else，while，do，for，break，continue，return，? :  用于表示条件的括号 不可以 被省略，单语句体两边的花括号可以被省略。 - if(1){}这种在solidity中不能使用 - Solidity还支持 try/ catch 语句形式的异常处理，但仅用于外部函数调用和合约创建调用。  使用:ref:revert 语句 <revert-statement> 可以触发一个”错误”。"
					}
				},
				"version": 1
			}
		}
	}
}