{
	"_14_数据类型_引用类型_定长数组.sol": {
		"HelloWorld": {
			"abi": [
				{
					"inputs": [],
					"name": "test",
					"outputs": [
						{
							"internalType": "uint8[3]",
							"name": "",
							"type": "uint8[3]"
						}
					],
					"stateMutability": "pure",
					"type": "function"
				},
				{
					"inputs": [],
					"name": "test2",
					"outputs": [
						{
							"internalType": "uint8[3]",
							"name": "",
							"type": "uint8[3]"
						},
						{
							"internalType": "bytes1[3]",
							"name": "",
							"type": "bytes1[3]"
						}
					],
					"stateMutability": "pure",
					"type": "function"
				},
				{
					"inputs": [],
					"name": "test3",
					"outputs": [
						{
							"internalType": "bytes1[2][3]",
							"name": "",
							"type": "bytes1[2][3]"
						}
					],
					"stateMutability": "pure",
					"type": "function"
				}
			],
			"devdoc": {
				"kind": "dev",
				"methods": {},
				"version": 1
			},
			"evm": {
				"assembly": "    /* \"_14_\\xe6\\x95\\xb0\\xe6\\x8d\\xae\\xe7\\xb1\\xbb\\xe5\\x9e\\x8b_\\xe5\\xbc\\x95\\xe7\\x94\\xa8\\xe7\\xb1\\xbb\\xe5\\x9e\\x8b_\\xe5\\xae\\x9a\\xe9\\x95\\xbf\\xe6\\x95\\xb0\\xe7\\xbb\\x84.sol\":66:2341  contract HelloWorld {... */\n  mstore(0x40, 0x80)\n  callvalue\n  dup1\n  iszero\n  tag_1\n  jumpi\n  0x00\n  dup1\n  revert\ntag_1:\n  pop\n  dataSize(sub_0)\n  dup1\n  dataOffset(sub_0)\n  0x00\n  codecopy\n  0x00\n  return\nstop\n\nsub_0: assembly {\n        /* \"_14_\\xe6\\x95\\xb0\\xe6\\x8d\\xae\\xe7\\xb1\\xbb\\xe5\\x9e\\x8b_\\xe5\\xbc\\x95\\xe7\\x94\\xa8\\xe7\\xb1\\xbb\\xe5\\x9e\\x8b_\\xe5\\xae\\x9a\\xe9\\x95\\xbf\\xe6\\x95\\xb0\\xe7\\xbb\\x84.sol\":66:2341  contract HelloWorld {... */\n      mstore(0x40, 0x80)\n      callvalue\n      dup1\n      iszero\n      tag_1\n      jumpi\n      0x00\n      dup1\n      revert\n    tag_1:\n      pop\n      jumpi(tag_2, lt(calldatasize, 0x04))\n      shr(0xe0, calldataload(0x00))\n      dup1\n      0x0a8e8e01\n      eq\n      tag_3\n      jumpi\n      dup1\n      0x66e41cb7\n      eq\n      tag_4\n      jumpi\n      dup1\n      0xf8a8fd6d\n      eq\n      tag_5\n      jumpi\n    tag_2:\n      0x00\n      dup1\n      revert\n        /* \"_14_\\xe6\\x95\\xb0\\xe6\\x8d\\xae\\xe7\\xb1\\xbb\\xe5\\x9e\\x8b_\\xe5\\xbc\\x95\\xe7\\x94\\xa8\\xe7\\xb1\\xbb\\xe5\\x9e\\x8b_\\xe5\\xae\\x9a\\xe9\\x95\\xbf\\xe6\\x95\\xb0\\xe7\\xbb\\x84.sol\":1825:2338  function test3() public pure returns (bytes1[2][3] memory){... */\n    tag_3:\n      tag_6\n      tag_7\n      jump\t// in\n    tag_6:\n      mload(0x40)\n      tag_8\n      swap2\n      swap1\n      tag_9\n      jump\t// in\n    tag_8:\n      mload(0x40)\n      dup1\n      swap2\n      sub\n      swap1\n      return\n        /* \"_14_\\xe6\\x95\\xb0\\xe6\\x8d\\xae\\xe7\\xb1\\xbb\\xe5\\x9e\\x8b_\\xe5\\xbc\\x95\\xe7\\x94\\xa8\\xe7\\xb1\\xbb\\xe5\\x9e\\x8b_\\xe5\\xae\\x9a\\xe9\\x95\\xbf\\xe6\\x95\\xb0\\xe7\\xbb\\x84.sol\":645:1790  function test2() public pure returns (uint8[3] memory, bytes1[3] memory) {... */\n    tag_4:\n      tag_10\n      tag_11\n      jump\t// in\n    tag_10:\n      mload(0x40)\n      tag_12\n      swap3\n      swap2\n      swap1\n      tag_13\n      jump\t// in\n    tag_12:\n      mload(0x40)\n      dup1\n      swap2\n      sub\n      swap1\n      return\n        /* \"_14_\\xe6\\x95\\xb0\\xe6\\x8d\\xae\\xe7\\xb1\\xbb\\xe5\\x9e\\x8b_\\xe5\\xbc\\x95\\xe7\\x94\\xa8\\xe7\\xb1\\xbb\\xe5\\x9e\\x8b_\\xe5\\xae\\x9a\\xe9\\x95\\xbf\\xe6\\x95\\xb0\\xe7\\xbb\\x84.sol\":126:613  function test() public pure returns(uint8[3] memory){... */\n    tag_5:\n      tag_14\n      tag_15\n      jump\t// in\n    tag_14:\n      mload(0x40)\n      tag_16\n      swap2\n      swap1\n      tag_17\n      jump\t// in\n    tag_16:\n      mload(0x40)\n      dup1\n      swap2\n      sub\n      swap1\n      return\n        /* \"_14_\\xe6\\x95\\xb0\\xe6\\x8d\\xae\\xe7\\xb1\\xbb\\xe5\\x9e\\x8b_\\xe5\\xbc\\x95\\xe7\\x94\\xa8\\xe7\\xb1\\xbb\\xe5\\x9e\\x8b_\\xe5\\xae\\x9a\\xe9\\x95\\xbf\\xe6\\x95\\xb0\\xe7\\xbb\\x84.sol\":1825:2338  function test3() public pure returns (bytes1[2][3] memory){... */\n    tag_7:\n        /* \"_14_\\xe6\\x95\\xb0\\xe6\\x8d\\xae\\xe7\\xb1\\xbb\\xe5\\x9e\\x8b_\\xe5\\xbc\\x95\\xe7\\x94\\xa8\\xe7\\xb1\\xbb\\xe5\\x9e\\x8b_\\xe5\\xae\\x9a\\xe9\\x95\\xbf\\xe6\\x95\\xb0\\xe7\\xbb\\x84.sol\":1863:1882  bytes1[2][3] memory */\n      tag_18\n      tag_19\n      jump\t// in\n    tag_18:\n        /* \"_14_\\xe6\\x95\\xb0\\xe6\\x8d\\xae\\xe7\\xb1\\xbb\\xe5\\x9e\\x8b_\\xe5\\xbc\\x95\\xe7\\x94\\xa8\\xe7\\xb1\\xbb\\xe5\\x9e\\x8b_\\xe5\\xae\\x9a\\xe9\\x95\\xbf\\xe6\\x95\\xb0\\xe7\\xbb\\x84.sol\":2056:2081  bytes1[2][3] memory array */\n      tag_21\n      tag_19\n      jump\t// in\n    tag_21:\n        /* \"_14_\\xe6\\x95\\xb0\\xe6\\x8d\\xae\\xe7\\xb1\\xbb\\xe5\\x9e\\x8b_\\xe5\\xbc\\x95\\xe7\\x94\\xa8\\xe7\\xb1\\xbb\\xe5\\x9e\\x8b_\\xe5\\xae\\x9a\\xe9\\x95\\xbf\\xe6\\x95\\xb0\\xe7\\xbb\\x84.sol\":2158:2162  0xaa */\n      0xaa\n        /* \"_14_\\xe6\\x95\\xb0\\xe6\\x8d\\xae\\xe7\\xb1\\xbb\\xe5\\x9e\\x8b_\\xe5\\xbc\\x95\\xe7\\x94\\xa8\\xe7\\xb1\\xbb\\xe5\\x9e\\x8b_\\xe5\\xae\\x9a\\xe9\\x95\\xbf\\xe6\\x95\\xb0\\xe7\\xbb\\x84.sol\":2144:2162  array[0][0] = 0xaa */\n      0xf8\n      shl\n        /* \"_14_\\xe6\\x95\\xb0\\xe6\\x8d\\xae\\xe7\\xb1\\xbb\\xe5\\x9e\\x8b_\\xe5\\xbc\\x95\\xe7\\x94\\xa8\\xe7\\xb1\\xbb\\xe5\\x9e\\x8b_\\xe5\\xae\\x9a\\xe9\\x95\\xbf\\xe6\\x95\\xb0\\xe7\\xbb\\x84.sol\":2144:2149  array */\n      dup2\n        /* \"_14_\\xe6\\x95\\xb0\\xe6\\x8d\\xae\\xe7\\xb1\\xbb\\xe5\\x9e\\x8b_\\xe5\\xbc\\x95\\xe7\\x94\\xa8\\xe7\\xb1\\xbb\\xe5\\x9e\\x8b_\\xe5\\xae\\x9a\\xe9\\x95\\xbf\\xe6\\x95\\xb0\\xe7\\xbb\\x84.sol\":2150:2151  0 */\n      0x00\n        /* \"_14_\\xe6\\x95\\xb0\\xe6\\x8d\\xae\\xe7\\xb1\\xbb\\xe5\\x9e\\x8b_\\xe5\\xbc\\x95\\xe7\\x94\\xa8\\xe7\\xb1\\xbb\\xe5\\x9e\\x8b_\\xe5\\xae\\x9a\\xe9\\x95\\xbf\\xe6\\x95\\xb0\\xe7\\xbb\\x84.sol\":2144:2152  array[0] */\n      0x03\n      dup2\n      lt\n      tag_22\n      jumpi\n      tag_23\n      tag_24\n      jump\t// in\n    tag_23:\n    tag_22:\n      0x20\n      mul\n      add\n      mload\n        /* \"_14_\\xe6\\x95\\xb0\\xe6\\x8d\\xae\\xe7\\xb1\\xbb\\xe5\\x9e\\x8b_\\xe5\\xbc\\x95\\xe7\\x94\\xa8\\xe7\\xb1\\xbb\\xe5\\x9e\\x8b_\\xe5\\xae\\x9a\\xe9\\x95\\xbf\\xe6\\x95\\xb0\\xe7\\xbb\\x84.sol\":2153:2154  0 */\n      0x00\n        /* \"_14_\\xe6\\x95\\xb0\\xe6\\x8d\\xae\\xe7\\xb1\\xbb\\xe5\\x9e\\x8b_\\xe5\\xbc\\x95\\xe7\\x94\\xa8\\xe7\\xb1\\xbb\\xe5\\x9e\\x8b_\\xe5\\xae\\x9a\\xe9\\x95\\xbf\\xe6\\x95\\xb0\\xe7\\xbb\\x84.sol\":2144:2155  array[0][0] */\n      0x02\n      dup2\n      lt\n      tag_25\n      jumpi\n      tag_26\n      tag_24\n      jump\t// in\n    tag_26:\n    tag_25:\n      0x20\n      mul\n      add\n        /* \"_14_\\xe6\\x95\\xb0\\xe6\\x8d\\xae\\xe7\\xb1\\xbb\\xe5\\x9e\\x8b_\\xe5\\xbc\\x95\\xe7\\x94\\xa8\\xe7\\xb1\\xbb\\xe5\\x9e\\x8b_\\xe5\\xae\\x9a\\xe9\\x95\\xbf\\xe6\\x95\\xb0\\xe7\\xbb\\x84.sol\":2144:2162  array[0][0] = 0xaa */\n      swap1\n      not(0xffffffffffffffffffffffffffffffffffffffffffffffffffffffffffffff)\n      and\n      swap1\n      dup2\n      not(0xffffffffffffffffffffffffffffffffffffffffffffffffffffffffffffff)\n      and\n      dup2\n      mstore\n      pop\n      pop\n        /* \"_14_\\xe6\\x95\\xb0\\xe6\\x8d\\xae\\xe7\\xb1\\xbb\\xe5\\x9e\\x8b_\\xe5\\xbc\\x95\\xe7\\x94\\xa8\\xe7\\xb1\\xbb\\xe5\\x9e\\x8b_\\xe5\\xae\\x9a\\xe9\\x95\\xbf\\xe6\\x95\\xb0\\xe7\\xbb\\x84.sol\":2187:2191  0xbb */\n      0xbb\n        /* \"_14_\\xe6\\x95\\xb0\\xe6\\x8d\\xae\\xe7\\xb1\\xbb\\xe5\\x9e\\x8b_\\xe5\\xbc\\x95\\xe7\\x94\\xa8\\xe7\\xb1\\xbb\\xe5\\x9e\\x8b_\\xe5\\xae\\x9a\\xe9\\x95\\xbf\\xe6\\x95\\xb0\\xe7\\xbb\\x84.sol\":2173:2191  array[0][1] = 0xbb */\n      0xf8\n      shl\n        /* \"_14_\\xe6\\x95\\xb0\\xe6\\x8d\\xae\\xe7\\xb1\\xbb\\xe5\\x9e\\x8b_\\xe5\\xbc\\x95\\xe7\\x94\\xa8\\xe7\\xb1\\xbb\\xe5\\x9e\\x8b_\\xe5\\xae\\x9a\\xe9\\x95\\xbf\\xe6\\x95\\xb0\\xe7\\xbb\\x84.sol\":2173:2178  array */\n      dup2\n        /* \"_14_\\xe6\\x95\\xb0\\xe6\\x8d\\xae\\xe7\\xb1\\xbb\\xe5\\x9e\\x8b_\\xe5\\xbc\\x95\\xe7\\x94\\xa8\\xe7\\xb1\\xbb\\xe5\\x9e\\x8b_\\xe5\\xae\\x9a\\xe9\\x95\\xbf\\xe6\\x95\\xb0\\xe7\\xbb\\x84.sol\":2179:2180  0 */\n      0x00\n        /* \"_14_\\xe6\\x95\\xb0\\xe6\\x8d\\xae\\xe7\\xb1\\xbb\\xe5\\x9e\\x8b_\\xe5\\xbc\\x95\\xe7\\x94\\xa8\\xe7\\xb1\\xbb\\xe5\\x9e\\x8b_\\xe5\\xae\\x9a\\xe9\\x95\\xbf\\xe6\\x95\\xb0\\xe7\\xbb\\x84.sol\":2173:2181  array[0] */\n      0x03\n      dup2\n      lt\n      tag_27\n      jumpi\n      tag_28\n      tag_24\n      jump\t// in\n    tag_28:\n    tag_27:\n      0x20\n      mul\n      add\n      mload\n        /* \"_14_\\xe6\\x95\\xb0\\xe6\\x8d\\xae\\xe7\\xb1\\xbb\\xe5\\x9e\\x8b_\\xe5\\xbc\\x95\\xe7\\x94\\xa8\\xe7\\xb1\\xbb\\xe5\\x9e\\x8b_\\xe5\\xae\\x9a\\xe9\\x95\\xbf\\xe6\\x95\\xb0\\xe7\\xbb\\x84.sol\":2182:2183  1 */\n      0x01\n        /* \"_14_\\xe6\\x95\\xb0\\xe6\\x8d\\xae\\xe7\\xb1\\xbb\\xe5\\x9e\\x8b_\\xe5\\xbc\\x95\\xe7\\x94\\xa8\\xe7\\xb1\\xbb\\xe5\\x9e\\x8b_\\xe5\\xae\\x9a\\xe9\\x95\\xbf\\xe6\\x95\\xb0\\xe7\\xbb\\x84.sol\":2173:2184  array[0][1] */\n      0x02\n      dup2\n      lt\n      tag_29\n      jumpi\n      tag_30\n      tag_24\n      jump\t// in\n    tag_30:\n    tag_29:\n      0x20\n      mul\n      add\n        /* \"_14_\\xe6\\x95\\xb0\\xe6\\x8d\\xae\\xe7\\xb1\\xbb\\xe5\\x9e\\x8b_\\xe5\\xbc\\x95\\xe7\\x94\\xa8\\xe7\\xb1\\xbb\\xe5\\x9e\\x8b_\\xe5\\xae\\x9a\\xe9\\x95\\xbf\\xe6\\x95\\xb0\\xe7\\xbb\\x84.sol\":2173:2191  array[0][1] = 0xbb */\n      swap1\n      not(0xffffffffffffffffffffffffffffffffffffffffffffffffffffffffffffff)\n      and\n      swap1\n      dup2\n      not(0xffffffffffffffffffffffffffffffffffffffffffffffffffffffffffffff)\n      and\n      dup2\n      mstore\n      pop\n      pop\n        /* \"_14_\\xe6\\x95\\xb0\\xe6\\x8d\\xae\\xe7\\xb1\\xbb\\xe5\\x9e\\x8b_\\xe5\\xbc\\x95\\xe7\\x94\\xa8\\xe7\\xb1\\xbb\\xe5\\x9e\\x8b_\\xe5\\xae\\x9a\\xe9\\x95\\xbf\\xe6\\x95\\xb0\\xe7\\xbb\\x84.sol\":2216:2220  0xcc */\n      0xcc\n        /* \"_14_\\xe6\\x95\\xb0\\xe6\\x8d\\xae\\xe7\\xb1\\xbb\\xe5\\x9e\\x8b_\\xe5\\xbc\\x95\\xe7\\x94\\xa8\\xe7\\xb1\\xbb\\xe5\\x9e\\x8b_\\xe5\\xae\\x9a\\xe9\\x95\\xbf\\xe6\\x95\\xb0\\xe7\\xbb\\x84.sol\":2202:2220  array[1][0] = 0xcc */\n      0xf8\n      shl\n        /* \"_14_\\xe6\\x95\\xb0\\xe6\\x8d\\xae\\xe7\\xb1\\xbb\\xe5\\x9e\\x8b_\\xe5\\xbc\\x95\\xe7\\x94\\xa8\\xe7\\xb1\\xbb\\xe5\\x9e\\x8b_\\xe5\\xae\\x9a\\xe9\\x95\\xbf\\xe6\\x95\\xb0\\xe7\\xbb\\x84.sol\":2202:2207  array */\n      dup2\n        /* \"_14_\\xe6\\x95\\xb0\\xe6\\x8d\\xae\\xe7\\xb1\\xbb\\xe5\\x9e\\x8b_\\xe5\\xbc\\x95\\xe7\\x94\\xa8\\xe7\\xb1\\xbb\\xe5\\x9e\\x8b_\\xe5\\xae\\x9a\\xe9\\x95\\xbf\\xe6\\x95\\xb0\\xe7\\xbb\\x84.sol\":2208:2209  1 */\n      0x01\n        /* \"_14_\\xe6\\x95\\xb0\\xe6\\x8d\\xae\\xe7\\xb1\\xbb\\xe5\\x9e\\x8b_\\xe5\\xbc\\x95\\xe7\\x94\\xa8\\xe7\\xb1\\xbb\\xe5\\x9e\\x8b_\\xe5\\xae\\x9a\\xe9\\x95\\xbf\\xe6\\x95\\xb0\\xe7\\xbb\\x84.sol\":2202:2210  array[1] */\n      0x03\n      dup2\n      lt\n      tag_31\n      jumpi\n      tag_32\n      tag_24\n      jump\t// in\n    tag_32:\n    tag_31:\n      0x20\n      mul\n      add\n      mload\n        /* \"_14_\\xe6\\x95\\xb0\\xe6\\x8d\\xae\\xe7\\xb1\\xbb\\xe5\\x9e\\x8b_\\xe5\\xbc\\x95\\xe7\\x94\\xa8\\xe7\\xb1\\xbb\\xe5\\x9e\\x8b_\\xe5\\xae\\x9a\\xe9\\x95\\xbf\\xe6\\x95\\xb0\\xe7\\xbb\\x84.sol\":2211:2212  0 */\n      0x00\n        /* \"_14_\\xe6\\x95\\xb0\\xe6\\x8d\\xae\\xe7\\xb1\\xbb\\xe5\\x9e\\x8b_\\xe5\\xbc\\x95\\xe7\\x94\\xa8\\xe7\\xb1\\xbb\\xe5\\x9e\\x8b_\\xe5\\xae\\x9a\\xe9\\x95\\xbf\\xe6\\x95\\xb0\\xe7\\xbb\\x84.sol\":2202:2213  array[1][0] */\n      0x02\n      dup2\n      lt\n      tag_33\n      jumpi\n      tag_34\n      tag_24\n      jump\t// in\n    tag_34:\n    tag_33:\n      0x20\n      mul\n      add\n        /* \"_14_\\xe6\\x95\\xb0\\xe6\\x8d\\xae\\xe7\\xb1\\xbb\\xe5\\x9e\\x8b_\\xe5\\xbc\\x95\\xe7\\x94\\xa8\\xe7\\xb1\\xbb\\xe5\\x9e\\x8b_\\xe5\\xae\\x9a\\xe9\\x95\\xbf\\xe6\\x95\\xb0\\xe7\\xbb\\x84.sol\":2202:2220  array[1][0] = 0xcc */\n      swap1\n      not(0xffffffffffffffffffffffffffffffffffffffffffffffffffffffffffffff)\n      and\n      swap1\n      dup2\n      not(0xffffffffffffffffffffffffffffffffffffffffffffffffffffffffffffff)\n      and\n      dup2\n      mstore\n      pop\n      pop\n        /* \"_14_\\xe6\\x95\\xb0\\xe6\\x8d\\xae\\xe7\\xb1\\xbb\\xe5\\x9e\\x8b_\\xe5\\xbc\\x95\\xe7\\x94\\xa8\\xe7\\xb1\\xbb\\xe5\\x9e\\x8b_\\xe5\\xae\\x9a\\xe9\\x95\\xbf\\xe6\\x95\\xb0\\xe7\\xbb\\x84.sol\":2245:2249  0xdd */\n      0xdd\n        /* \"_14_\\xe6\\x95\\xb0\\xe6\\x8d\\xae\\xe7\\xb1\\xbb\\xe5\\x9e\\x8b_\\xe5\\xbc\\x95\\xe7\\x94\\xa8\\xe7\\xb1\\xbb\\xe5\\x9e\\x8b_\\xe5\\xae\\x9a\\xe9\\x95\\xbf\\xe6\\x95\\xb0\\xe7\\xbb\\x84.sol\":2231:2249  array[1][1] = 0xdd */\n      0xf8\n      shl\n        /* \"_14_\\xe6\\x95\\xb0\\xe6\\x8d\\xae\\xe7\\xb1\\xbb\\xe5\\x9e\\x8b_\\xe5\\xbc\\x95\\xe7\\x94\\xa8\\xe7\\xb1\\xbb\\xe5\\x9e\\x8b_\\xe5\\xae\\x9a\\xe9\\x95\\xbf\\xe6\\x95\\xb0\\xe7\\xbb\\x84.sol\":2231:2236  array */\n      dup2\n        /* \"_14_\\xe6\\x95\\xb0\\xe6\\x8d\\xae\\xe7\\xb1\\xbb\\xe5\\x9e\\x8b_\\xe5\\xbc\\x95\\xe7\\x94\\xa8\\xe7\\xb1\\xbb\\xe5\\x9e\\x8b_\\xe5\\xae\\x9a\\xe9\\x95\\xbf\\xe6\\x95\\xb0\\xe7\\xbb\\x84.sol\":2237:2238  1 */\n      0x01\n        /* \"_14_\\xe6\\x95\\xb0\\xe6\\x8d\\xae\\xe7\\xb1\\xbb\\xe5\\x9e\\x8b_\\xe5\\xbc\\x95\\xe7\\x94\\xa8\\xe7\\xb1\\xbb\\xe5\\x9e\\x8b_\\xe5\\xae\\x9a\\xe9\\x95\\xbf\\xe6\\x95\\xb0\\xe7\\xbb\\x84.sol\":2231:2239  array[1] */\n      0x03\n      dup2\n      lt\n      tag_35\n      jumpi\n      tag_36\n      tag_24\n      jump\t// in\n    tag_36:\n    tag_35:\n      0x20\n      mul\n      add\n      mload\n        /* \"_14_\\xe6\\x95\\xb0\\xe6\\x8d\\xae\\xe7\\xb1\\xbb\\xe5\\x9e\\x8b_\\xe5\\xbc\\x95\\xe7\\x94\\xa8\\xe7\\xb1\\xbb\\xe5\\x9e\\x8b_\\xe5\\xae\\x9a\\xe9\\x95\\xbf\\xe6\\x95\\xb0\\xe7\\xbb\\x84.sol\":2240:2241  1 */\n      0x01\n        /* \"_14_\\xe6\\x95\\xb0\\xe6\\x8d\\xae\\xe7\\xb1\\xbb\\xe5\\x9e\\x8b_\\xe5\\xbc\\x95\\xe7\\x94\\xa8\\xe7\\xb1\\xbb\\xe5\\x9e\\x8b_\\xe5\\xae\\x9a\\xe9\\x95\\xbf\\xe6\\x95\\xb0\\xe7\\xbb\\x84.sol\":2231:2242  array[1][1] */\n      0x02\n      dup2\n      lt\n      tag_37\n      jumpi\n      tag_38\n      tag_24\n      jump\t// in\n    tag_38:\n    tag_37:\n      0x20\n      mul\n      add\n        /* \"_14_\\xe6\\x95\\xb0\\xe6\\x8d\\xae\\xe7\\xb1\\xbb\\xe5\\x9e\\x8b_\\xe5\\xbc\\x95\\xe7\\x94\\xa8\\xe7\\xb1\\xbb\\xe5\\x9e\\x8b_\\xe5\\xae\\x9a\\xe9\\x95\\xbf\\xe6\\x95\\xb0\\xe7\\xbb\\x84.sol\":2231:2249  array[1][1] = 0xdd */\n      swap1\n      not(0xffffffffffffffffffffffffffffffffffffffffffffffffffffffffffffff)\n      and\n      swap1\n      dup2\n      not(0xffffffffffffffffffffffffffffffffffffffffffffffffffffffffffffff)\n      and\n      dup2\n      mstore\n      pop\n      pop\n        /* \"_14_\\xe6\\x95\\xb0\\xe6\\x8d\\xae\\xe7\\xb1\\xbb\\xe5\\x9e\\x8b_\\xe5\\xbc\\x95\\xe7\\x94\\xa8\\xe7\\xb1\\xbb\\xe5\\x9e\\x8b_\\xe5\\xae\\x9a\\xe9\\x95\\xbf\\xe6\\x95\\xb0\\xe7\\xbb\\x84.sol\":2274:2278  0xee */\n      0xee\n        /* \"_14_\\xe6\\x95\\xb0\\xe6\\x8d\\xae\\xe7\\xb1\\xbb\\xe5\\x9e\\x8b_\\xe5\\xbc\\x95\\xe7\\x94\\xa8\\xe7\\xb1\\xbb\\xe5\\x9e\\x8b_\\xe5\\xae\\x9a\\xe9\\x95\\xbf\\xe6\\x95\\xb0\\xe7\\xbb\\x84.sol\":2260:2278  array[2][0] = 0xee */\n      0xf8\n      shl\n        /* \"_14_\\xe6\\x95\\xb0\\xe6\\x8d\\xae\\xe7\\xb1\\xbb\\xe5\\x9e\\x8b_\\xe5\\xbc\\x95\\xe7\\x94\\xa8\\xe7\\xb1\\xbb\\xe5\\x9e\\x8b_\\xe5\\xae\\x9a\\xe9\\x95\\xbf\\xe6\\x95\\xb0\\xe7\\xbb\\x84.sol\":2260:2265  array */\n      dup2\n        /* \"_14_\\xe6\\x95\\xb0\\xe6\\x8d\\xae\\xe7\\xb1\\xbb\\xe5\\x9e\\x8b_\\xe5\\xbc\\x95\\xe7\\x94\\xa8\\xe7\\xb1\\xbb\\xe5\\x9e\\x8b_\\xe5\\xae\\x9a\\xe9\\x95\\xbf\\xe6\\x95\\xb0\\xe7\\xbb\\x84.sol\":2266:2267  2 */\n      0x02\n        /* \"_14_\\xe6\\x95\\xb0\\xe6\\x8d\\xae\\xe7\\xb1\\xbb\\xe5\\x9e\\x8b_\\xe5\\xbc\\x95\\xe7\\x94\\xa8\\xe7\\xb1\\xbb\\xe5\\x9e\\x8b_\\xe5\\xae\\x9a\\xe9\\x95\\xbf\\xe6\\x95\\xb0\\xe7\\xbb\\x84.sol\":2260:2268  array[2] */\n      0x03\n      dup2\n      lt\n      tag_39\n      jumpi\n      tag_40\n      tag_24\n      jump\t// in\n    tag_40:\n    tag_39:\n      0x20\n      mul\n      add\n      mload\n        /* \"_14_\\xe6\\x95\\xb0\\xe6\\x8d\\xae\\xe7\\xb1\\xbb\\xe5\\x9e\\x8b_\\xe5\\xbc\\x95\\xe7\\x94\\xa8\\xe7\\xb1\\xbb\\xe5\\x9e\\x8b_\\xe5\\xae\\x9a\\xe9\\x95\\xbf\\xe6\\x95\\xb0\\xe7\\xbb\\x84.sol\":2269:2270  0 */\n      0x00\n        /* \"_14_\\xe6\\x95\\xb0\\xe6\\x8d\\xae\\xe7\\xb1\\xbb\\xe5\\x9e\\x8b_\\xe5\\xbc\\x95\\xe7\\x94\\xa8\\xe7\\xb1\\xbb\\xe5\\x9e\\x8b_\\xe5\\xae\\x9a\\xe9\\x95\\xbf\\xe6\\x95\\xb0\\xe7\\xbb\\x84.sol\":2260:2271  array[2][0] */\n      0x02\n      dup2\n      lt\n      tag_41\n      jumpi\n      tag_42\n      tag_24\n      jump\t// in\n    tag_42:\n    tag_41:\n      0x20\n      mul\n      add\n        /* \"_14_\\xe6\\x95\\xb0\\xe6\\x8d\\xae\\xe7\\xb1\\xbb\\xe5\\x9e\\x8b_\\xe5\\xbc\\x95\\xe7\\x94\\xa8\\xe7\\xb1\\xbb\\xe5\\x9e\\x8b_\\xe5\\xae\\x9a\\xe9\\x95\\xbf\\xe6\\x95\\xb0\\xe7\\xbb\\x84.sol\":2260:2278  array[2][0] = 0xee */\n      swap1\n      not(0xffffffffffffffffffffffffffffffffffffffffffffffffffffffffffffff)\n      and\n      swap1\n      dup2\n      not(0xffffffffffffffffffffffffffffffffffffffffffffffffffffffffffffff)\n      and\n      dup2\n      mstore\n      pop\n      pop\n        /* \"_14_\\xe6\\x95\\xb0\\xe6\\x8d\\xae\\xe7\\xb1\\xbb\\xe5\\x9e\\x8b_\\xe5\\xbc\\x95\\xe7\\x94\\xa8\\xe7\\xb1\\xbb\\xe5\\x9e\\x8b_\\xe5\\xae\\x9a\\xe9\\x95\\xbf\\xe6\\x95\\xb0\\xe7\\xbb\\x84.sol\":2303:2307  0xff */\n      0xff\n        /* \"_14_\\xe6\\x95\\xb0\\xe6\\x8d\\xae\\xe7\\xb1\\xbb\\xe5\\x9e\\x8b_\\xe5\\xbc\\x95\\xe7\\x94\\xa8\\xe7\\xb1\\xbb\\xe5\\x9e\\x8b_\\xe5\\xae\\x9a\\xe9\\x95\\xbf\\xe6\\x95\\xb0\\xe7\\xbb\\x84.sol\":2289:2307  array[2][1] = 0xff */\n      0xf8\n      shl\n        /* \"_14_\\xe6\\x95\\xb0\\xe6\\x8d\\xae\\xe7\\xb1\\xbb\\xe5\\x9e\\x8b_\\xe5\\xbc\\x95\\xe7\\x94\\xa8\\xe7\\xb1\\xbb\\xe5\\x9e\\x8b_\\xe5\\xae\\x9a\\xe9\\x95\\xbf\\xe6\\x95\\xb0\\xe7\\xbb\\x84.sol\":2289:2294  array */\n      dup2\n        /* \"_14_\\xe6\\x95\\xb0\\xe6\\x8d\\xae\\xe7\\xb1\\xbb\\xe5\\x9e\\x8b_\\xe5\\xbc\\x95\\xe7\\x94\\xa8\\xe7\\xb1\\xbb\\xe5\\x9e\\x8b_\\xe5\\xae\\x9a\\xe9\\x95\\xbf\\xe6\\x95\\xb0\\xe7\\xbb\\x84.sol\":2295:2296  2 */\n      0x02\n        /* \"_14_\\xe6\\x95\\xb0\\xe6\\x8d\\xae\\xe7\\xb1\\xbb\\xe5\\x9e\\x8b_\\xe5\\xbc\\x95\\xe7\\x94\\xa8\\xe7\\xb1\\xbb\\xe5\\x9e\\x8b_\\xe5\\xae\\x9a\\xe9\\x95\\xbf\\xe6\\x95\\xb0\\xe7\\xbb\\x84.sol\":2289:2297  array[2] */\n      0x03\n      dup2\n      lt\n      tag_43\n      jumpi\n      tag_44\n      tag_24\n      jump\t// in\n    tag_44:\n    tag_43:\n      0x20\n      mul\n      add\n      mload\n        /* \"_14_\\xe6\\x95\\xb0\\xe6\\x8d\\xae\\xe7\\xb1\\xbb\\xe5\\x9e\\x8b_\\xe5\\xbc\\x95\\xe7\\x94\\xa8\\xe7\\xb1\\xbb\\xe5\\x9e\\x8b_\\xe5\\xae\\x9a\\xe9\\x95\\xbf\\xe6\\x95\\xb0\\xe7\\xbb\\x84.sol\":2298:2299  1 */\n      0x01\n        /* \"_14_\\xe6\\x95\\xb0\\xe6\\x8d\\xae\\xe7\\xb1\\xbb\\xe5\\x9e\\x8b_\\xe5\\xbc\\x95\\xe7\\x94\\xa8\\xe7\\xb1\\xbb\\xe5\\x9e\\x8b_\\xe5\\xae\\x9a\\xe9\\x95\\xbf\\xe6\\x95\\xb0\\xe7\\xbb\\x84.sol\":2289:2300  array[2][1] */\n      0x02\n      dup2\n      lt\n      tag_45\n      jumpi\n      tag_46\n      tag_24\n      jump\t// in\n    tag_46:\n    tag_45:\n      0x20\n      mul\n      add\n        /* \"_14_\\xe6\\x95\\xb0\\xe6\\x8d\\xae\\xe7\\xb1\\xbb\\xe5\\x9e\\x8b_\\xe5\\xbc\\x95\\xe7\\x94\\xa8\\xe7\\xb1\\xbb\\xe5\\x9e\\x8b_\\xe5\\xae\\x9a\\xe9\\x95\\xbf\\xe6\\x95\\xb0\\xe7\\xbb\\x84.sol\":2289:2307  array[2][1] = 0xff */\n      swap1\n      not(0xffffffffffffffffffffffffffffffffffffffffffffffffffffffffffffff)\n      and\n      swap1\n      dup2\n      not(0xffffffffffffffffffffffffffffffffffffffffffffffffffffffffffffff)\n      and\n      dup2\n      mstore\n      pop\n      pop\n        /* \"_14_\\xe6\\x95\\xb0\\xe6\\x8d\\xae\\xe7\\xb1\\xbb\\xe5\\x9e\\x8b_\\xe5\\xbc\\x95\\xe7\\x94\\xa8\\xe7\\xb1\\xbb\\xe5\\x9e\\x8b_\\xe5\\xae\\x9a\\xe9\\x95\\xbf\\xe6\\x95\\xb0\\xe7\\xbb\\x84.sol\":2325:2330  array */\n      dup1\n        /* \"_14_\\xe6\\x95\\xb0\\xe6\\x8d\\xae\\xe7\\xb1\\xbb\\xe5\\x9e\\x8b_\\xe5\\xbc\\x95\\xe7\\x94\\xa8\\xe7\\xb1\\xbb\\xe5\\x9e\\x8b_\\xe5\\xae\\x9a\\xe9\\x95\\xbf\\xe6\\x95\\xb0\\xe7\\xbb\\x84.sol\":2318:2330  return array */\n      swap2\n      pop\n      pop\n        /* \"_14_\\xe6\\x95\\xb0\\xe6\\x8d\\xae\\xe7\\xb1\\xbb\\xe5\\x9e\\x8b_\\xe5\\xbc\\x95\\xe7\\x94\\xa8\\xe7\\xb1\\xbb\\xe5\\x9e\\x8b_\\xe5\\xae\\x9a\\xe9\\x95\\xbf\\xe6\\x95\\xb0\\xe7\\xbb\\x84.sol\":1825:2338  function test3() public pure returns (bytes1[2][3] memory){... */\n      swap1\n      jump\t// out\n        /* \"_14_\\xe6\\x95\\xb0\\xe6\\x8d\\xae\\xe7\\xb1\\xbb\\xe5\\x9e\\x8b_\\xe5\\xbc\\x95\\xe7\\x94\\xa8\\xe7\\xb1\\xbb\\xe5\\x9e\\x8b_\\xe5\\xae\\x9a\\xe9\\x95\\xbf\\xe6\\x95\\xb0\\xe7\\xbb\\x84.sol\":645:1790  function test2() public pure returns (uint8[3] memory, bytes1[3] memory) {... */\n    tag_11:\n        /* \"_14_\\xe6\\x95\\xb0\\xe6\\x8d\\xae\\xe7\\xb1\\xbb\\xe5\\x9e\\x8b_\\xe5\\xbc\\x95\\xe7\\x94\\xa8\\xe7\\xb1\\xbb\\xe5\\x9e\\x8b_\\xe5\\xae\\x9a\\xe9\\x95\\xbf\\xe6\\x95\\xb0\\xe7\\xbb\\x84.sol\":683:698  uint8[3] memory */\n      tag_47\n      tag_48\n      jump\t// in\n    tag_47:\n        /* \"_14_\\xe6\\x95\\xb0\\xe6\\x8d\\xae\\xe7\\xb1\\xbb\\xe5\\x9e\\x8b_\\xe5\\xbc\\x95\\xe7\\x94\\xa8\\xe7\\xb1\\xbb\\xe5\\x9e\\x8b_\\xe5\\xae\\x9a\\xe9\\x95\\xbf\\xe6\\x95\\xb0\\xe7\\xbb\\x84.sol\":700:716  bytes1[3] memory */\n      tag_49\n      tag_50\n      jump\t// in\n    tag_49:\n        /* \"_14_\\xe6\\x95\\xb0\\xe6\\x8d\\xae\\xe7\\xb1\\xbb\\xe5\\x9e\\x8b_\\xe5\\xbc\\x95\\xe7\\x94\\xa8\\xe7\\xb1\\xbb\\xe5\\x9e\\x8b_\\xe5\\xae\\x9a\\xe9\\x95\\xbf\\xe6\\x95\\xb0\\xe7\\xbb\\x84.sol\":1423:1444  uint8[3] memory array */\n      0x00\n        /* \"_14_\\xe6\\x95\\xb0\\xe6\\x8d\\xae\\xe7\\xb1\\xbb\\xe5\\x9e\\x8b_\\xe5\\xbc\\x95\\xe7\\x94\\xa8\\xe7\\xb1\\xbb\\xe5\\x9e\\x8b_\\xe5\\xae\\x9a\\xe9\\x95\\xbf\\xe6\\x95\\xb0\\xe7\\xbb\\x84.sol\":1423:1456  uint8[3] memory array = [1, 2, 3] */\n      mload(0x40)\n      dup1\n      0x60\n      add\n      0x40\n      mstore\n      dup1\n        /* \"_14_\\xe6\\x95\\xb0\\xe6\\x8d\\xae\\xe7\\xb1\\xbb\\xe5\\x9e\\x8b_\\xe5\\xbc\\x95\\xe7\\x94\\xa8\\xe7\\xb1\\xbb\\xe5\\x9e\\x8b_\\xe5\\xae\\x9a\\xe9\\x95\\xbf\\xe6\\x95\\xb0\\xe7\\xbb\\x84.sol\":1448:1449  1 */\n      0x01\n        /* \"_14_\\xe6\\x95\\xb0\\xe6\\x8d\\xae\\xe7\\xb1\\xbb\\xe5\\x9e\\x8b_\\xe5\\xbc\\x95\\xe7\\x94\\xa8\\xe7\\xb1\\xbb\\xe5\\x9e\\x8b_\\xe5\\xae\\x9a\\xe9\\x95\\xbf\\xe6\\x95\\xb0\\xe7\\xbb\\x84.sol\":1423:1456  uint8[3] memory array = [1, 2, 3] */\n      0xff\n      and\n      dup2\n      mstore\n      0x20\n      add\n        /* \"_14_\\xe6\\x95\\xb0\\xe6\\x8d\\xae\\xe7\\xb1\\xbb\\xe5\\x9e\\x8b_\\xe5\\xbc\\x95\\xe7\\x94\\xa8\\xe7\\xb1\\xbb\\xe5\\x9e\\x8b_\\xe5\\xae\\x9a\\xe9\\x95\\xbf\\xe6\\x95\\xb0\\xe7\\xbb\\x84.sol\":1451:1452  2 */\n      0x02\n        /* \"_14_\\xe6\\x95\\xb0\\xe6\\x8d\\xae\\xe7\\xb1\\xbb\\xe5\\x9e\\x8b_\\xe5\\xbc\\x95\\xe7\\x94\\xa8\\xe7\\xb1\\xbb\\xe5\\x9e\\x8b_\\xe5\\xae\\x9a\\xe9\\x95\\xbf\\xe6\\x95\\xb0\\xe7\\xbb\\x84.sol\":1423:1456  uint8[3] memory array = [1, 2, 3] */\n      0xff\n      and\n      dup2\n      mstore\n      0x20\n      add\n        /* \"_14_\\xe6\\x95\\xb0\\xe6\\x8d\\xae\\xe7\\xb1\\xbb\\xe5\\x9e\\x8b_\\xe5\\xbc\\x95\\xe7\\x94\\xa8\\xe7\\xb1\\xbb\\xe5\\x9e\\x8b_\\xe5\\xae\\x9a\\xe9\\x95\\xbf\\xe6\\x95\\xb0\\xe7\\xbb\\x84.sol\":1454:1455  3 */\n      0x03\n        /* \"_14_\\xe6\\x95\\xb0\\xe6\\x8d\\xae\\xe7\\xb1\\xbb\\xe5\\x9e\\x8b_\\xe5\\xbc\\x95\\xe7\\x94\\xa8\\xe7\\xb1\\xbb\\xe5\\x9e\\x8b_\\xe5\\xae\\x9a\\xe9\\x95\\xbf\\xe6\\x95\\xb0\\xe7\\xbb\\x84.sol\":1423:1456  uint8[3] memory array = [1, 2, 3] */\n      0xff\n      and\n      dup2\n      mstore\n      pop\n      swap1\n      pop\n        /* \"_14_\\xe6\\x95\\xb0\\xe6\\x8d\\xae\\xe7\\xb1\\xbb\\xe5\\x9e\\x8b_\\xe5\\xbc\\x95\\xe7\\x94\\xa8\\xe7\\xb1\\xbb\\xe5\\x9e\\x8b_\\xe5\\xae\\x9a\\xe9\\x95\\xbf\\xe6\\x95\\xb0\\xe7\\xbb\\x84.sol\":1695:1718  bytes1[3] memory array2 */\n      0x00\n        /* \"_14_\\xe6\\x95\\xb0\\xe6\\x8d\\xae\\xe7\\xb1\\xbb\\xe5\\x9e\\x8b_\\xe5\\xbc\\x95\\xe7\\x94\\xa8\\xe7\\xb1\\xbb\\xe5\\x9e\\x8b_\\xe5\\xae\\x9a\\xe9\\x95\\xbf\\xe6\\x95\\xb0\\xe7\\xbb\\x84.sol\":1695:1747  bytes1[3] memory array2 = [bytes1(0xff), 0xaa, 0xbb] */\n      mload(0x40)\n      dup1\n      0x60\n      add\n      0x40\n      mstore\n      dup1\n        /* \"_14_\\xe6\\x95\\xb0\\xe6\\x8d\\xae\\xe7\\xb1\\xbb\\xe5\\x9e\\x8b_\\xe5\\xbc\\x95\\xe7\\x94\\xa8\\xe7\\xb1\\xbb\\xe5\\x9e\\x8b_\\xe5\\xae\\x9a\\xe9\\x95\\xbf\\xe6\\x95\\xb0\\xe7\\xbb\\x84.sol\":1729:1733  0xff */\n      0xff\n        /* \"_14_\\xe6\\x95\\xb0\\xe6\\x8d\\xae\\xe7\\xb1\\xbb\\xe5\\x9e\\x8b_\\xe5\\xbc\\x95\\xe7\\x94\\xa8\\xe7\\xb1\\xbb\\xe5\\x9e\\x8b_\\xe5\\xae\\x9a\\xe9\\x95\\xbf\\xe6\\x95\\xb0\\xe7\\xbb\\x84.sol\":1722:1734  bytes1(0xff) */\n      0xf8\n      shl\n        /* \"_14_\\xe6\\x95\\xb0\\xe6\\x8d\\xae\\xe7\\xb1\\xbb\\xe5\\x9e\\x8b_\\xe5\\xbc\\x95\\xe7\\x94\\xa8\\xe7\\xb1\\xbb\\xe5\\x9e\\x8b_\\xe5\\xae\\x9a\\xe9\\x95\\xbf\\xe6\\x95\\xb0\\xe7\\xbb\\x84.sol\":1695:1747  bytes1[3] memory array2 = [bytes1(0xff), 0xaa, 0xbb] */\n      not(0xffffffffffffffffffffffffffffffffffffffffffffffffffffffffffffff)\n      and\n      not(0xffffffffffffffffffffffffffffffffffffffffffffffffffffffffffffff)\n      and\n      dup2\n      mstore\n      0x20\n      add\n        /* \"_14_\\xe6\\x95\\xb0\\xe6\\x8d\\xae\\xe7\\xb1\\xbb\\xe5\\x9e\\x8b_\\xe5\\xbc\\x95\\xe7\\x94\\xa8\\xe7\\xb1\\xbb\\xe5\\x9e\\x8b_\\xe5\\xae\\x9a\\xe9\\x95\\xbf\\xe6\\x95\\xb0\\xe7\\xbb\\x84.sol\":1736:1740  0xaa */\n      0xaa\n        /* \"_14_\\xe6\\x95\\xb0\\xe6\\x8d\\xae\\xe7\\xb1\\xbb\\xe5\\x9e\\x8b_\\xe5\\xbc\\x95\\xe7\\x94\\xa8\\xe7\\xb1\\xbb\\xe5\\x9e\\x8b_\\xe5\\xae\\x9a\\xe9\\x95\\xbf\\xe6\\x95\\xb0\\xe7\\xbb\\x84.sol\":1695:1747  bytes1[3] memory array2 = [bytes1(0xff), 0xaa, 0xbb] */\n      0xf8\n      shl\n      not(0xffffffffffffffffffffffffffffffffffffffffffffffffffffffffffffff)\n      and\n      dup2\n      mstore\n      0x20\n      add\n        /* \"_14_\\xe6\\x95\\xb0\\xe6\\x8d\\xae\\xe7\\xb1\\xbb\\xe5\\x9e\\x8b_\\xe5\\xbc\\x95\\xe7\\x94\\xa8\\xe7\\xb1\\xbb\\xe5\\x9e\\x8b_\\xe5\\xae\\x9a\\xe9\\x95\\xbf\\xe6\\x95\\xb0\\xe7\\xbb\\x84.sol\":1742:1746  0xbb */\n      0xbb\n        /* \"_14_\\xe6\\x95\\xb0\\xe6\\x8d\\xae\\xe7\\xb1\\xbb\\xe5\\x9e\\x8b_\\xe5\\xbc\\x95\\xe7\\x94\\xa8\\xe7\\xb1\\xbb\\xe5\\x9e\\x8b_\\xe5\\xae\\x9a\\xe9\\x95\\xbf\\xe6\\x95\\xb0\\xe7\\xbb\\x84.sol\":1695:1747  bytes1[3] memory array2 = [bytes1(0xff), 0xaa, 0xbb] */\n      0xf8\n      shl\n      not(0xffffffffffffffffffffffffffffffffffffffffffffffffffffffffffffff)\n      and\n      dup2\n      mstore\n      pop\n      swap1\n      pop\n        /* \"_14_\\xe6\\x95\\xb0\\xe6\\x8d\\xae\\xe7\\xb1\\xbb\\xe5\\x9e\\x8b_\\xe5\\xbc\\x95\\xe7\\x94\\xa8\\xe7\\xb1\\xbb\\xe5\\x9e\\x8b_\\xe5\\xae\\x9a\\xe9\\x95\\xbf\\xe6\\x95\\xb0\\xe7\\xbb\\x84.sol\":1768:1773  array */\n      dup2\n        /* \"_14_\\xe6\\x95\\xb0\\xe6\\x8d\\xae\\xe7\\xb1\\xbb\\xe5\\x9e\\x8b_\\xe5\\xbc\\x95\\xe7\\x94\\xa8\\xe7\\xb1\\xbb\\xe5\\x9e\\x8b_\\xe5\\xae\\x9a\\xe9\\x95\\xbf\\xe6\\x95\\xb0\\xe7\\xbb\\x84.sol\":1775:1781  array2 */\n      dup2\n        /* \"_14_\\xe6\\x95\\xb0\\xe6\\x8d\\xae\\xe7\\xb1\\xbb\\xe5\\x9e\\x8b_\\xe5\\xbc\\x95\\xe7\\x94\\xa8\\xe7\\xb1\\xbb\\xe5\\x9e\\x8b_\\xe5\\xae\\x9a\\xe9\\x95\\xbf\\xe6\\x95\\xb0\\xe7\\xbb\\x84.sol\":1760:1782  return (array, array2) */\n      swap4\n      pop\n      swap4\n      pop\n      pop\n      pop\n        /* \"_14_\\xe6\\x95\\xb0\\xe6\\x8d\\xae\\xe7\\xb1\\xbb\\xe5\\x9e\\x8b_\\xe5\\xbc\\x95\\xe7\\x94\\xa8\\xe7\\xb1\\xbb\\xe5\\x9e\\x8b_\\xe5\\xae\\x9a\\xe9\\x95\\xbf\\xe6\\x95\\xb0\\xe7\\xbb\\x84.sol\":645:1790  function test2() public pure returns (uint8[3] memory, bytes1[3] memory) {... */\n      swap1\n      swap2\n      jump\t// out\n        /* \"_14_\\xe6\\x95\\xb0\\xe6\\x8d\\xae\\xe7\\xb1\\xbb\\xe5\\x9e\\x8b_\\xe5\\xbc\\x95\\xe7\\x94\\xa8\\xe7\\xb1\\xbb\\xe5\\x9e\\x8b_\\xe5\\xae\\x9a\\xe9\\x95\\xbf\\xe6\\x95\\xb0\\xe7\\xbb\\x84.sol\":126:613  function test() public pure returns(uint8[3] memory){... */\n    tag_15:\n        /* \"_14_\\xe6\\x95\\xb0\\xe6\\x8d\\xae\\xe7\\xb1\\xbb\\xe5\\x9e\\x8b_\\xe5\\xbc\\x95\\xe7\\x94\\xa8\\xe7\\xb1\\xbb\\xe5\\x9e\\x8b_\\xe5\\xae\\x9a\\xe9\\x95\\xbf\\xe6\\x95\\xb0\\xe7\\xbb\\x84.sol\":162:177  uint8[3] memory */\n      tag_52\n      tag_48\n      jump\t// in\n    tag_52:\n        /* \"_14_\\xe6\\x95\\xb0\\xe6\\x8d\\xae\\xe7\\xb1\\xbb\\xe5\\x9e\\x8b_\\xe5\\xbc\\x95\\xe7\\x94\\xa8\\xe7\\xb1\\xbb\\xe5\\x9e\\x8b_\\xe5\\xae\\x9a\\xe9\\x95\\xbf\\xe6\\x95\\xb0\\xe7\\xbb\\x84.sol\":232:253  uint8[3] memory array */\n      tag_54\n      tag_48\n      jump\t// in\n    tag_54:\n        /* \"_14_\\xe6\\x95\\xb0\\xe6\\x8d\\xae\\xe7\\xb1\\xbb\\xe5\\x9e\\x8b_\\xe5\\xbc\\x95\\xe7\\x94\\xa8\\xe7\\xb1\\xbb\\xe5\\x9e\\x8b_\\xe5\\xae\\x9a\\xe9\\x95\\xbf\\xe6\\x95\\xb0\\xe7\\xbb\\x84.sol\":313:317  0xff */\n      0xff\n        /* \"_14_\\xe6\\x95\\xb0\\xe6\\x8d\\xae\\xe7\\xb1\\xbb\\xe5\\x9e\\x8b_\\xe5\\xbc\\x95\\xe7\\x94\\xa8\\xe7\\xb1\\xbb\\xe5\\x9e\\x8b_\\xe5\\xae\\x9a\\xe9\\x95\\xbf\\xe6\\x95\\xb0\\xe7\\xbb\\x84.sol\":302:307  array */\n      dup2\n        /* \"_14_\\xe6\\x95\\xb0\\xe6\\x8d\\xae\\xe7\\xb1\\xbb\\xe5\\x9e\\x8b_\\xe5\\xbc\\x95\\xe7\\x94\\xa8\\xe7\\xb1\\xbb\\xe5\\x9e\\x8b_\\xe5\\xae\\x9a\\xe9\\x95\\xbf\\xe6\\x95\\xb0\\xe7\\xbb\\x84.sol\":308:309  0 */\n      0x00\n        /* \"_14_\\xe6\\x95\\xb0\\xe6\\x8d\\xae\\xe7\\xb1\\xbb\\xe5\\x9e\\x8b_\\xe5\\xbc\\x95\\xe7\\x94\\xa8\\xe7\\xb1\\xbb\\xe5\\x9e\\x8b_\\xe5\\xae\\x9a\\xe9\\x95\\xbf\\xe6\\x95\\xb0\\xe7\\xbb\\x84.sol\":302:310  array[0] */\n      0x03\n      dup2\n      lt\n      tag_55\n      jumpi\n      tag_56\n      tag_24\n      jump\t// in\n    tag_56:\n    tag_55:\n      0x20\n      mul\n      add\n        /* \"_14_\\xe6\\x95\\xb0\\xe6\\x8d\\xae\\xe7\\xb1\\xbb\\xe5\\x9e\\x8b_\\xe5\\xbc\\x95\\xe7\\x94\\xa8\\xe7\\xb1\\xbb\\xe5\\x9e\\x8b_\\xe5\\xae\\x9a\\xe9\\x95\\xbf\\xe6\\x95\\xb0\\xe7\\xbb\\x84.sol\":302:317  array[0] = 0xff */\n      swap1\n      0xff\n      and\n      swap1\n      dup2\n      0xff\n      and\n      dup2\n      mstore\n      pop\n      pop\n        /* \"_14_\\xe6\\x95\\xb0\\xe6\\x8d\\xae\\xe7\\xb1\\xbb\\xe5\\x9e\\x8b_\\xe5\\xbc\\x95\\xe7\\x94\\xa8\\xe7\\xb1\\xbb\\xe5\\x9e\\x8b_\\xe5\\xae\\x9a\\xe9\\x95\\xbf\\xe6\\x95\\xb0\\xe7\\xbb\\x84.sol\":339:343  0xaa */\n      0xaa\n        /* \"_14_\\xe6\\x95\\xb0\\xe6\\x8d\\xae\\xe7\\xb1\\xbb\\xe5\\x9e\\x8b_\\xe5\\xbc\\x95\\xe7\\x94\\xa8\\xe7\\xb1\\xbb\\xe5\\x9e\\x8b_\\xe5\\xae\\x9a\\xe9\\x95\\xbf\\xe6\\x95\\xb0\\xe7\\xbb\\x84.sol\":328:333  array */\n      dup2\n        /* \"_14_\\xe6\\x95\\xb0\\xe6\\x8d\\xae\\xe7\\xb1\\xbb\\xe5\\x9e\\x8b_\\xe5\\xbc\\x95\\xe7\\x94\\xa8\\xe7\\xb1\\xbb\\xe5\\x9e\\x8b_\\xe5\\xae\\x9a\\xe9\\x95\\xbf\\xe6\\x95\\xb0\\xe7\\xbb\\x84.sol\":334:335  1 */\n      0x01\n        /* \"_14_\\xe6\\x95\\xb0\\xe6\\x8d\\xae\\xe7\\xb1\\xbb\\xe5\\x9e\\x8b_\\xe5\\xbc\\x95\\xe7\\x94\\xa8\\xe7\\xb1\\xbb\\xe5\\x9e\\x8b_\\xe5\\xae\\x9a\\xe9\\x95\\xbf\\xe6\\x95\\xb0\\xe7\\xbb\\x84.sol\":328:336  array[1] */\n      0x03\n      dup2\n      lt\n      tag_57\n      jumpi\n      tag_58\n      tag_24\n      jump\t// in\n    tag_58:\n    tag_57:\n      0x20\n      mul\n      add\n        /* \"_14_\\xe6\\x95\\xb0\\xe6\\x8d\\xae\\xe7\\xb1\\xbb\\xe5\\x9e\\x8b_\\xe5\\xbc\\x95\\xe7\\x94\\xa8\\xe7\\xb1\\xbb\\xe5\\x9e\\x8b_\\xe5\\xae\\x9a\\xe9\\x95\\xbf\\xe6\\x95\\xb0\\xe7\\xbb\\x84.sol\":328:343  array[1] = 0xaa */\n      swap1\n      0xff\n      and\n      swap1\n      dup2\n      0xff\n      and\n      dup2\n      mstore\n      pop\n      pop\n        /* \"_14_\\xe6\\x95\\xb0\\xe6\\x8d\\xae\\xe7\\xb1\\xbb\\xe5\\x9e\\x8b_\\xe5\\xbc\\x95\\xe7\\x94\\xa8\\xe7\\xb1\\xbb\\xe5\\x9e\\x8b_\\xe5\\xae\\x9a\\xe9\\x95\\xbf\\xe6\\x95\\xb0\\xe7\\xbb\\x84.sol\":365:369  0xbb */\n      0xbb\n        /* \"_14_\\xe6\\x95\\xb0\\xe6\\x8d\\xae\\xe7\\xb1\\xbb\\xe5\\x9e\\x8b_\\xe5\\xbc\\x95\\xe7\\x94\\xa8\\xe7\\xb1\\xbb\\xe5\\x9e\\x8b_\\xe5\\xae\\x9a\\xe9\\x95\\xbf\\xe6\\x95\\xb0\\xe7\\xbb\\x84.sol\":354:359  array */\n      dup2\n        /* \"_14_\\xe6\\x95\\xb0\\xe6\\x8d\\xae\\xe7\\xb1\\xbb\\xe5\\x9e\\x8b_\\xe5\\xbc\\x95\\xe7\\x94\\xa8\\xe7\\xb1\\xbb\\xe5\\x9e\\x8b_\\xe5\\xae\\x9a\\xe9\\x95\\xbf\\xe6\\x95\\xb0\\xe7\\xbb\\x84.sol\":360:361  2 */\n      0x02\n        /* \"_14_\\xe6\\x95\\xb0\\xe6\\x8d\\xae\\xe7\\xb1\\xbb\\xe5\\x9e\\x8b_\\xe5\\xbc\\x95\\xe7\\x94\\xa8\\xe7\\xb1\\xbb\\xe5\\x9e\\x8b_\\xe5\\xae\\x9a\\xe9\\x95\\xbf\\xe6\\x95\\xb0\\xe7\\xbb\\x84.sol\":354:362  array[2] */\n      0x03\n      dup2\n      lt\n      tag_59\n      jumpi\n      tag_60\n      tag_24\n      jump\t// in\n    tag_60:\n    tag_59:\n      0x20\n      mul\n      add\n        /* \"_14_\\xe6\\x95\\xb0\\xe6\\x8d\\xae\\xe7\\xb1\\xbb\\xe5\\x9e\\x8b_\\xe5\\xbc\\x95\\xe7\\x94\\xa8\\xe7\\xb1\\xbb\\xe5\\x9e\\x8b_\\xe5\\xae\\x9a\\xe9\\x95\\xbf\\xe6\\x95\\xb0\\xe7\\xbb\\x84.sol\":354:369  array[2] = 0xbb */\n      swap1\n      0xff\n      and\n      swap1\n      dup2\n      0xff\n      and\n      dup2\n      mstore\n      pop\n      pop\n        /* \"_14_\\xe6\\x95\\xb0\\xe6\\x8d\\xae\\xe7\\xb1\\xbb\\xe5\\x9e\\x8b_\\xe5\\xbc\\x95\\xe7\\x94\\xa8\\xe7\\xb1\\xbb\\xe5\\x9e\\x8b_\\xe5\\xae\\x9a\\xe9\\x95\\xbf\\xe6\\x95\\xb0\\xe7\\xbb\\x84.sol\":448:459  uint256 len */\n      0x00\n        /* \"_14_\\xe6\\x95\\xb0\\xe6\\x8d\\xae\\xe7\\xb1\\xbb\\xe5\\x9e\\x8b_\\xe5\\xbc\\x95\\xe7\\x94\\xa8\\xe7\\xb1\\xbb\\xe5\\x9e\\x8b_\\xe5\\xae\\x9a\\xe9\\x95\\xbf\\xe6\\x95\\xb0\\xe7\\xbb\\x84.sol\":462:474  array.length */\n      0x03\n        /* \"_14_\\xe6\\x95\\xb0\\xe6\\x8d\\xae\\xe7\\xb1\\xbb\\xe5\\x9e\\x8b_\\xe5\\xbc\\x95\\xe7\\x94\\xa8\\xe7\\xb1\\xbb\\xe5\\x9e\\x8b_\\xe5\\xae\\x9a\\xe9\\x95\\xbf\\xe6\\x95\\xb0\\xe7\\xbb\\x84.sol\":448:474  uint256 len = array.length */\n      swap1\n      pop\n        /* \"_14_\\xe6\\x95\\xb0\\xe6\\x8d\\xae\\xe7\\xb1\\xbb\\xe5\\x9e\\x8b_\\xe5\\xbc\\x95\\xe7\\x94\\xa8\\xe7\\xb1\\xbb\\xe5\\x9e\\x8b_\\xe5\\xae\\x9a\\xe9\\x95\\xbf\\xe6\\x95\\xb0\\xe7\\xbb\\x84.sol\":600:605  array */\n      dup2\n        /* \"_14_\\xe6\\x95\\xb0\\xe6\\x8d\\xae\\xe7\\xb1\\xbb\\xe5\\x9e\\x8b_\\xe5\\xbc\\x95\\xe7\\x94\\xa8\\xe7\\xb1\\xbb\\xe5\\x9e\\x8b_\\xe5\\xae\\x9a\\xe9\\x95\\xbf\\xe6\\x95\\xb0\\xe7\\xbb\\x84.sol\":593:605  return array */\n      swap3\n      pop\n      pop\n      pop\n        /* \"_14_\\xe6\\x95\\xb0\\xe6\\x8d\\xae\\xe7\\xb1\\xbb\\xe5\\x9e\\x8b_\\xe5\\xbc\\x95\\xe7\\x94\\xa8\\xe7\\xb1\\xbb\\xe5\\x9e\\x8b_\\xe5\\xae\\x9a\\xe9\\x95\\xbf\\xe6\\x95\\xb0\\xe7\\xbb\\x84.sol\":126:613  function test() public pure returns(uint8[3] memory){... */\n      swap1\n      jump\t// out\n    tag_19:\n      mload(0x40)\n      dup1\n      0x60\n      add\n      0x40\n      mstore\n      dup1\n      0x03\n      swap1\n    tag_61:\n      tag_62\n      tag_63\n      jump\t// in\n    tag_62:\n      dup2\n      mstore\n      0x20\n      add\n      swap1\n      0x01\n      swap1\n      sub\n      swap1\n      dup2\n      tag_61\n      jumpi\n      swap1\n      pop\n      pop\n      swap1\n      jump\t// out\n    tag_48:\n      mload(0x40)\n      dup1\n      0x60\n      add\n      0x40\n      mstore\n      dup1\n      0x03\n      swap1\n      0x20\n      dup3\n      mul\n      dup1\n      calldatasize\n      dup4\n      calldatacopy\n      dup1\n      dup3\n      add\n      swap2\n      pop\n      pop\n      swap1\n      pop\n      pop\n      swap1\n      jump\t// out\n    tag_50:\n      mload(0x40)\n      dup1\n      0x60\n      add\n      0x40\n      mstore\n      dup1\n      0x03\n      swap1\n      0x20\n      dup3\n      mul\n      dup1\n      calldatasize\n      dup4\n      calldatacopy\n      dup1\n      dup3\n      add\n      swap2\n      pop\n      pop\n      swap1\n      pop\n      pop\n      swap1\n      jump\t// out\n    tag_63:\n      mload(0x40)\n      dup1\n      0x40\n      add\n      0x40\n      mstore\n      dup1\n      0x02\n      swap1\n      0x20\n      dup3\n      mul\n      dup1\n      calldatasize\n      dup4\n      calldatacopy\n      dup1\n      dup3\n      add\n      swap2\n      pop\n      pop\n      swap1\n      pop\n      pop\n      swap1\n      jump\t// out\n        /* \"#utility.yul\":7:133   */\n    tag_64:\n        /* \"#utility.yul\":94:100   */\n      0x00\n        /* \"#utility.yul\":122:126   */\n      0x03\n        /* \"#utility.yul\":112:126   */\n      swap1\n      pop\n        /* \"#utility.yul\":7:133   */\n      swap2\n      swap1\n      pop\n      jump\t// out\n        /* \"#utility.yul\":139:304   */\n    tag_65:\n        /* \"#utility.yul\":258:269   */\n      0x00\n        /* \"#utility.yul\":295:298   */\n      dup2\n        /* \"#utility.yul\":280:298   */\n      swap1\n      pop\n        /* \"#utility.yul\":139:304   */\n      swap3\n      swap2\n      pop\n      pop\n      jump\t// out\n        /* \"#utility.yul\":310:430   */\n    tag_66:\n        /* \"#utility.yul\":397:401   */\n      0x00\n        /* \"#utility.yul\":420:423   */\n      dup2\n        /* \"#utility.yul\":412:423   */\n      swap1\n      pop\n        /* \"#utility.yul\":310:430   */\n      swap2\n      swap1\n      pop\n      jump\t// out\n        /* \"#utility.yul\":436:539   */\n    tag_67:\n        /* \"#utility.yul\":500:506   */\n      0x00\n        /* \"#utility.yul\":528:532   */\n      0x02\n        /* \"#utility.yul\":518:532   */\n      swap1\n      pop\n        /* \"#utility.yul\":436:539   */\n      swap2\n      swap1\n      pop\n      jump\t// out\n        /* \"#utility.yul\":545:677   */\n    tag_68:\n        /* \"#utility.yul\":631:642   */\n      0x00\n        /* \"#utility.yul\":668:671   */\n      dup2\n        /* \"#utility.yul\":653:671   */\n      swap1\n      pop\n        /* \"#utility.yul\":545:677   */\n      swap3\n      swap2\n      pop\n      pop\n      jump\t// out\n        /* \"#utility.yul\":683:780   */\n    tag_69:\n        /* \"#utility.yul\":747:751   */\n      0x00\n        /* \"#utility.yul\":770:773   */\n      dup2\n        /* \"#utility.yul\":762:773   */\n      swap1\n      pop\n        /* \"#utility.yul\":683:780   */\n      swap2\n      swap1\n      pop\n      jump\t// out\n        /* \"#utility.yul\":786:935   */\n    tag_70:\n        /* \"#utility.yul\":822:829   */\n      0x00\n        /* \"#utility.yul\":862:928   */\n      0xff00000000000000000000000000000000000000000000000000000000000000\n        /* \"#utility.yul\":855:860   */\n      dup3\n        /* \"#utility.yul\":851:929   */\n      and\n        /* \"#utility.yul\":840:929   */\n      swap1\n      pop\n        /* \"#utility.yul\":786:935   */\n      swap2\n      swap1\n      pop\n      jump\t// out\n        /* \"#utility.yul\":941:1046   */\n    tag_71:\n        /* \"#utility.yul\":1016:1039   */\n      tag_100\n        /* \"#utility.yul\":1033:1038   */\n      dup2\n        /* \"#utility.yul\":1016:1039   */\n      tag_70\n      jump\t// in\n    tag_100:\n        /* \"#utility.yul\":1011:1014   */\n      dup3\n        /* \"#utility.yul\":1004:1040   */\n      mstore\n        /* \"#utility.yul\":941:1046   */\n      pop\n      pop\n      jump\t// out\n        /* \"#utility.yul\":1052:1227   */\n    tag_72:\n        /* \"#utility.yul\":1119:1129   */\n      0x00\n        /* \"#utility.yul\":1140:1184   */\n      tag_102\n        /* \"#utility.yul\":1180:1183   */\n      dup4\n        /* \"#utility.yul\":1172:1178   */\n      dup4\n        /* \"#utility.yul\":1140:1184   */\n      tag_71\n      jump\t// in\n    tag_102:\n        /* \"#utility.yul\":1216:1220   */\n      0x20\n        /* \"#utility.yul\":1211:1214   */\n      dup4\n        /* \"#utility.yul\":1207:1221   */\n      add\n        /* \"#utility.yul\":1193:1221   */\n      swap1\n      pop\n        /* \"#utility.yul\":1052:1227   */\n      swap3\n      swap2\n      pop\n      pop\n      jump\t// out\n        /* \"#utility.yul\":1233:1343   */\n    tag_73:\n        /* \"#utility.yul\":1300:1304   */\n      0x00\n        /* \"#utility.yul\":1332:1336   */\n      0x20\n        /* \"#utility.yul\":1327:1330   */\n      dup3\n        /* \"#utility.yul\":1323:1337   */\n      add\n        /* \"#utility.yul\":1315:1337   */\n      swap1\n      pop\n        /* \"#utility.yul\":1233:1343   */\n      swap2\n      swap1\n      pop\n      jump\t// out\n        /* \"#utility.yul\":1379:2045   */\n    tag_74:\n        /* \"#utility.yul\":1503:1554   */\n      tag_105\n        /* \"#utility.yul\":1548:1553   */\n      dup2\n        /* \"#utility.yul\":1503:1554   */\n      tag_67\n      jump\t// in\n    tag_105:\n        /* \"#utility.yul\":1570:1643   */\n      tag_106\n        /* \"#utility.yul\":1636:1642   */\n      dup2\n        /* \"#utility.yul\":1631:1634   */\n      dup5\n        /* \"#utility.yul\":1570:1643   */\n      tag_68\n      jump\t// in\n    tag_106:\n        /* \"#utility.yul\":1563:1643   */\n      swap3\n      pop\n        /* \"#utility.yul\":1667:1720   */\n      tag_107\n        /* \"#utility.yul\":1714:1719   */\n      dup3\n        /* \"#utility.yul\":1667:1720   */\n      tag_69\n      jump\t// in\n    tag_107:\n        /* \"#utility.yul\":1743:1750   */\n      dup1\n        /* \"#utility.yul\":1774:1775   */\n      0x00\n        /* \"#utility.yul\":1759:2038   */\n    tag_108:\n        /* \"#utility.yul\":1784:1790   */\n      dup4\n        /* \"#utility.yul\":1781:1782   */\n      dup2\n        /* \"#utility.yul\":1778:1791   */\n      lt\n        /* \"#utility.yul\":1759:2038   */\n      iszero\n      tag_110\n      jumpi\n        /* \"#utility.yul\":1860:1866   */\n      dup2\n        /* \"#utility.yul\":1854:1867   */\n      mload\n        /* \"#utility.yul\":1887:1948   */\n      tag_111\n        /* \"#utility.yul\":1944:1947   */\n      dup8\n        /* \"#utility.yul\":1929:1942   */\n      dup3\n        /* \"#utility.yul\":1887:1948   */\n      tag_72\n      jump\t// in\n    tag_111:\n        /* \"#utility.yul\":1880:1948   */\n      swap7\n      pop\n        /* \"#utility.yul\":1971:2028   */\n      tag_112\n        /* \"#utility.yul\":2021:2027   */\n      dup4\n        /* \"#utility.yul\":1971:2028   */\n      tag_73\n      jump\t// in\n    tag_112:\n        /* \"#utility.yul\":1961:2028   */\n      swap3\n      pop\n        /* \"#utility.yul\":1819:2038   */\n      pop\n        /* \"#utility.yul\":1806:1807   */\n      0x01\n        /* \"#utility.yul\":1803:1804   */\n      dup2\n        /* \"#utility.yul\":1799:1808   */\n      add\n        /* \"#utility.yul\":1794:1808   */\n      swap1\n      pop\n        /* \"#utility.yul\":1759:2038   */\n      jump(tag_108)\n    tag_110:\n        /* \"#utility.yul\":1763:1777   */\n      pop\n        /* \"#utility.yul\":1479:2045   */\n      pop\n      pop\n      pop\n        /* \"#utility.yul\":1379:2045   */\n      pop\n      pop\n      jump\t// out\n        /* \"#utility.yul\":2051:2318   */\n    tag_75:\n        /* \"#utility.yul\":2164:2174   */\n      0x00\n        /* \"#utility.yul\":2185:2275   */\n      tag_114\n        /* \"#utility.yul\":2271:2274   */\n      dup4\n        /* \"#utility.yul\":2263:2269   */\n      dup4\n        /* \"#utility.yul\":2185:2275   */\n      tag_74\n      jump\t// in\n    tag_114:\n        /* \"#utility.yul\":2307:2311   */\n      0x40\n        /* \"#utility.yul\":2302:2305   */\n      dup4\n        /* \"#utility.yul\":2298:2312   */\n      add\n        /* \"#utility.yul\":2284:2312   */\n      swap1\n      pop\n        /* \"#utility.yul\":2051:2318   */\n      swap3\n      swap2\n      pop\n      pop\n      jump\t// out\n        /* \"#utility.yul\":2324:2457   */\n    tag_76:\n        /* \"#utility.yul\":2414:2418   */\n      0x00\n        /* \"#utility.yul\":2446:2450   */\n      0x20\n        /* \"#utility.yul\":2441:2444   */\n      dup3\n        /* \"#utility.yul\":2437:2451   */\n      add\n        /* \"#utility.yul\":2429:2451   */\n      swap1\n      pop\n        /* \"#utility.yul\":2324:2457   */\n      swap2\n      swap1\n      pop\n      jump\t// out\n        /* \"#utility.yul\":2499:3369   */\n    tag_77:\n        /* \"#utility.yul\":2679:2753   */\n      tag_117\n        /* \"#utility.yul\":2747:2752   */\n      dup2\n        /* \"#utility.yul\":2679:2753   */\n      tag_64\n      jump\t// in\n    tag_117:\n        /* \"#utility.yul\":2769:2875   */\n      tag_118\n        /* \"#utility.yul\":2868:2874   */\n      dup2\n        /* \"#utility.yul\":2863:2866   */\n      dup5\n        /* \"#utility.yul\":2769:2875   */\n      tag_65\n      jump\t// in\n    tag_118:\n        /* \"#utility.yul\":2762:2875   */\n      swap3\n      pop\n        /* \"#utility.yul\":2899:2975   */\n      tag_119\n        /* \"#utility.yul\":2969:2974   */\n      dup3\n        /* \"#utility.yul\":2899:2975   */\n      tag_66\n      jump\t// in\n    tag_119:\n        /* \"#utility.yul\":2998:3005   */\n      dup1\n        /* \"#utility.yul\":3029:3030   */\n      0x00\n        /* \"#utility.yul\":3014:3362   */\n    tag_120:\n        /* \"#utility.yul\":3039:3045   */\n      dup4\n        /* \"#utility.yul\":3036:3037   */\n      dup2\n        /* \"#utility.yul\":3033:3046   */\n      lt\n        /* \"#utility.yul\":3014:3362   */\n      iszero\n      tag_122\n      jumpi\n        /* \"#utility.yul\":3115:3121   */\n      dup2\n        /* \"#utility.yul\":3109:3122   */\n      mload\n        /* \"#utility.yul\":3142:3249   */\n      tag_123\n        /* \"#utility.yul\":3245:3248   */\n      dup8\n        /* \"#utility.yul\":3230:3243   */\n      dup3\n        /* \"#utility.yul\":3142:3249   */\n      tag_75\n      jump\t// in\n    tag_123:\n        /* \"#utility.yul\":3135:3249   */\n      swap7\n      pop\n        /* \"#utility.yul\":3272:3352   */\n      tag_124\n        /* \"#utility.yul\":3345:3351   */\n      dup4\n        /* \"#utility.yul\":3272:3352   */\n      tag_76\n      jump\t// in\n    tag_124:\n        /* \"#utility.yul\":3262:3352   */\n      swap3\n      pop\n        /* \"#utility.yul\":3074:3362   */\n      pop\n        /* \"#utility.yul\":3061:3062   */\n      0x01\n        /* \"#utility.yul\":3058:3059   */\n      dup2\n        /* \"#utility.yul\":3054:3063   */\n      add\n        /* \"#utility.yul\":3049:3063   */\n      swap1\n      pop\n        /* \"#utility.yul\":3014:3362   */\n      jump(tag_120)\n    tag_122:\n        /* \"#utility.yul\":3018:3032   */\n      pop\n        /* \"#utility.yul\":2655:3369   */\n      pop\n      pop\n      pop\n        /* \"#utility.yul\":2499:3369   */\n      pop\n      pop\n      jump\t// out\n        /* \"#utility.yul\":3375:3778   */\n    tag_9:\n        /* \"#utility.yul\":3558:3562   */\n      0x00\n        /* \"#utility.yul\":3596:3599   */\n      0xc0\n        /* \"#utility.yul\":3585:3594   */\n      dup3\n        /* \"#utility.yul\":3581:3600   */\n      add\n        /* \"#utility.yul\":3573:3600   */\n      swap1\n      pop\n        /* \"#utility.yul\":3610:3771   */\n      tag_126\n        /* \"#utility.yul\":3768:3769   */\n      0x00\n        /* \"#utility.yul\":3757:3766   */\n      dup4\n        /* \"#utility.yul\":3753:3770   */\n      add\n        /* \"#utility.yul\":3744:3750   */\n      dup5\n        /* \"#utility.yul\":3610:3771   */\n      tag_77\n      jump\t// in\n    tag_126:\n        /* \"#utility.yul\":3375:3778   */\n      swap3\n      swap2\n      pop\n      pop\n      jump\t// out\n        /* \"#utility.yul\":3784:3886   */\n    tag_78:\n        /* \"#utility.yul\":3847:3853   */\n      0x00\n        /* \"#utility.yul\":3875:3879   */\n      0x03\n        /* \"#utility.yul\":3865:3879   */\n      swap1\n      pop\n        /* \"#utility.yul\":3784:3886   */\n      swap2\n      swap1\n      pop\n      jump\t// out\n        /* \"#utility.yul\":3892:4033   */\n    tag_79:\n        /* \"#utility.yul\":3987:3998   */\n      0x00\n        /* \"#utility.yul\":4024:4027   */\n      dup2\n        /* \"#utility.yul\":4009:4027   */\n      swap1\n      pop\n        /* \"#utility.yul\":3892:4033   */\n      swap3\n      swap2\n      pop\n      pop\n      jump\t// out\n        /* \"#utility.yul\":4039:4135   */\n    tag_80:\n        /* \"#utility.yul\":4102:4106   */\n      0x00\n        /* \"#utility.yul\":4125:4128   */\n      dup2\n        /* \"#utility.yul\":4117:4128   */\n      swap1\n      pop\n        /* \"#utility.yul\":4039:4135   */\n      swap2\n      swap1\n      pop\n      jump\t// out\n        /* \"#utility.yul\":4141:4227   */\n    tag_81:\n        /* \"#utility.yul\":4176:4183   */\n      0x00\n        /* \"#utility.yul\":4216:4220   */\n      0xff\n        /* \"#utility.yul\":4209:4214   */\n      dup3\n        /* \"#utility.yul\":4205:4221   */\n      and\n        /* \"#utility.yul\":4194:4221   */\n      swap1\n      pop\n        /* \"#utility.yul\":4141:4227   */\n      swap2\n      swap1\n      pop\n      jump\t// out\n        /* \"#utility.yul\":4233:4335   */\n    tag_82:\n        /* \"#utility.yul\":4306:4328   */\n      tag_132\n        /* \"#utility.yul\":4322:4327   */\n      dup2\n        /* \"#utility.yul\":4306:4328   */\n      tag_81\n      jump\t// in\n    tag_132:\n        /* \"#utility.yul\":4301:4304   */\n      dup3\n        /* \"#utility.yul\":4294:4329   */\n      mstore\n        /* \"#utility.yul\":4233:4335   */\n      pop\n      pop\n      jump\t// out\n        /* \"#utility.yul\":4341:4512   */\n    tag_83:\n        /* \"#utility.yul\":4406:4416   */\n      0x00\n        /* \"#utility.yul\":4427:4469   */\n      tag_134\n        /* \"#utility.yul\":4465:4468   */\n      dup4\n        /* \"#utility.yul\":4457:4463   */\n      dup4\n        /* \"#utility.yul\":4427:4469   */\n      tag_82\n      jump\t// in\n    tag_134:\n        /* \"#utility.yul\":4501:4505   */\n      0x20\n        /* \"#utility.yul\":4496:4499   */\n      dup4\n        /* \"#utility.yul\":4492:4506   */\n      add\n        /* \"#utility.yul\":4478:4506   */\n      swap1\n      pop\n        /* \"#utility.yul\":4341:4512   */\n      swap3\n      swap2\n      pop\n      pop\n      jump\t// out\n        /* \"#utility.yul\":4518:4627   */\n    tag_84:\n        /* \"#utility.yul\":4584:4588   */\n      0x00\n        /* \"#utility.yul\":4616:4620   */\n      0x20\n        /* \"#utility.yul\":4611:4614   */\n      dup3\n        /* \"#utility.yul\":4607:4621   */\n      add\n        /* \"#utility.yul\":4599:4621   */\n      swap1\n      pop\n        /* \"#utility.yul\":4518:4627   */\n      swap2\n      swap1\n      pop\n      jump\t// out\n        /* \"#utility.yul\":4661:5339   */\n    tag_85:\n        /* \"#utility.yul\":4793:4843   */\n      tag_137\n        /* \"#utility.yul\":4837:4842   */\n      dup2\n        /* \"#utility.yul\":4793:4843   */\n      tag_78\n      jump\t// in\n    tag_137:\n        /* \"#utility.yul\":4859:4941   */\n      tag_138\n        /* \"#utility.yul\":4934:4940   */\n      dup2\n        /* \"#utility.yul\":4929:4932   */\n      dup5\n        /* \"#utility.yul\":4859:4941   */\n      tag_79\n      jump\t// in\n    tag_138:\n        /* \"#utility.yul\":4852:4941   */\n      swap3\n      pop\n        /* \"#utility.yul\":4965:5017   */\n      tag_139\n        /* \"#utility.yul\":5011:5016   */\n      dup3\n        /* \"#utility.yul\":4965:5017   */\n      tag_80\n      jump\t// in\n    tag_139:\n        /* \"#utility.yul\":5040:5047   */\n      dup1\n        /* \"#utility.yul\":5071:5072   */\n      0x00\n        /* \"#utility.yul\":5056:5332   */\n    tag_140:\n        /* \"#utility.yul\":5081:5087   */\n      dup4\n        /* \"#utility.yul\":5078:5079   */\n      dup2\n        /* \"#utility.yul\":5075:5088   */\n      lt\n        /* \"#utility.yul\":5056:5332   */\n      iszero\n      tag_142\n      jumpi\n        /* \"#utility.yul\":5157:5163   */\n      dup2\n        /* \"#utility.yul\":5151:5164   */\n      mload\n        /* \"#utility.yul\":5184:5243   */\n      tag_143\n        /* \"#utility.yul\":5239:5242   */\n      dup8\n        /* \"#utility.yul\":5224:5237   */\n      dup3\n        /* \"#utility.yul\":5184:5243   */\n      tag_83\n      jump\t// in\n    tag_143:\n        /* \"#utility.yul\":5177:5243   */\n      swap7\n      pop\n        /* \"#utility.yul\":5266:5322   */\n      tag_144\n        /* \"#utility.yul\":5315:5321   */\n      dup4\n        /* \"#utility.yul\":5266:5322   */\n      tag_84\n      jump\t// in\n    tag_144:\n        /* \"#utility.yul\":5256:5322   */\n      swap3\n      pop\n        /* \"#utility.yul\":5116:5332   */\n      pop\n        /* \"#utility.yul\":5103:5104   */\n      0x01\n        /* \"#utility.yul\":5100:5101   */\n      dup2\n        /* \"#utility.yul\":5096:5105   */\n      add\n        /* \"#utility.yul\":5091:5105   */\n      swap1\n      pop\n        /* \"#utility.yul\":5056:5332   */\n      jump(tag_140)\n    tag_142:\n        /* \"#utility.yul\":5060:5074   */\n      pop\n        /* \"#utility.yul\":4769:5339   */\n      pop\n      pop\n      pop\n        /* \"#utility.yul\":4661:5339   */\n      pop\n      pop\n      jump\t// out\n        /* \"#utility.yul\":5345:5448   */\n    tag_86:\n        /* \"#utility.yul\":5409:5415   */\n      0x00\n        /* \"#utility.yul\":5437:5441   */\n      0x03\n        /* \"#utility.yul\":5427:5441   */\n      swap1\n      pop\n        /* \"#utility.yul\":5345:5448   */\n      swap2\n      swap1\n      pop\n      jump\t// out\n        /* \"#utility.yul\":5454:5596   */\n    tag_87:\n        /* \"#utility.yul\":5550:5561   */\n      0x00\n        /* \"#utility.yul\":5587:5590   */\n      dup2\n        /* \"#utility.yul\":5572:5590   */\n      swap1\n      pop\n        /* \"#utility.yul\":5454:5596   */\n      swap3\n      swap2\n      pop\n      pop\n      jump\t// out\n        /* \"#utility.yul\":5602:5699   */\n    tag_88:\n        /* \"#utility.yul\":5666:5670   */\n      0x00\n        /* \"#utility.yul\":5689:5692   */\n      dup2\n        /* \"#utility.yul\":5681:5692   */\n      swap1\n      pop\n        /* \"#utility.yul\":5602:5699   */\n      swap2\n      swap1\n      pop\n      jump\t// out\n        /* \"#utility.yul\":5705:5815   */\n    tag_89:\n        /* \"#utility.yul\":5772:5776   */\n      0x00\n        /* \"#utility.yul\":5804:5808   */\n      0x20\n        /* \"#utility.yul\":5799:5802   */\n      dup3\n        /* \"#utility.yul\":5795:5809   */\n      add\n        /* \"#utility.yul\":5787:5809   */\n      swap1\n      pop\n        /* \"#utility.yul\":5705:5815   */\n      swap2\n      swap1\n      pop\n      jump\t// out\n        /* \"#utility.yul\":5851:6537   */\n    tag_90:\n        /* \"#utility.yul\":5985:6036   */\n      tag_150\n        /* \"#utility.yul\":6030:6035   */\n      dup2\n        /* \"#utility.yul\":5985:6036   */\n      tag_86\n      jump\t// in\n    tag_150:\n        /* \"#utility.yul\":6052:6135   */\n      tag_151\n        /* \"#utility.yul\":6128:6134   */\n      dup2\n        /* \"#utility.yul\":6123:6126   */\n      dup5\n        /* \"#utility.yul\":6052:6135   */\n      tag_87\n      jump\t// in\n    tag_151:\n        /* \"#utility.yul\":6045:6135   */\n      swap3\n      pop\n        /* \"#utility.yul\":6159:6212   */\n      tag_152\n        /* \"#utility.yul\":6206:6211   */\n      dup3\n        /* \"#utility.yul\":6159:6212   */\n      tag_88\n      jump\t// in\n    tag_152:\n        /* \"#utility.yul\":6235:6242   */\n      dup1\n        /* \"#utility.yul\":6266:6267   */\n      0x00\n        /* \"#utility.yul\":6251:6530   */\n    tag_153:\n        /* \"#utility.yul\":6276:6282   */\n      dup4\n        /* \"#utility.yul\":6273:6274   */\n      dup2\n        /* \"#utility.yul\":6270:6283   */\n      lt\n        /* \"#utility.yul\":6251:6530   */\n      iszero\n      tag_155\n      jumpi\n        /* \"#utility.yul\":6352:6358   */\n      dup2\n        /* \"#utility.yul\":6346:6359   */\n      mload\n        /* \"#utility.yul\":6379:6440   */\n      tag_156\n        /* \"#utility.yul\":6436:6439   */\n      dup8\n        /* \"#utility.yul\":6421:6434   */\n      dup3\n        /* \"#utility.yul\":6379:6440   */\n      tag_72\n      jump\t// in\n    tag_156:\n        /* \"#utility.yul\":6372:6440   */\n      swap7\n      pop\n        /* \"#utility.yul\":6463:6520   */\n      tag_157\n        /* \"#utility.yul\":6513:6519   */\n      dup4\n        /* \"#utility.yul\":6463:6520   */\n      tag_89\n      jump\t// in\n    tag_157:\n        /* \"#utility.yul\":6453:6520   */\n      swap3\n      pop\n        /* \"#utility.yul\":6311:6530   */\n      pop\n        /* \"#utility.yul\":6298:6299   */\n      0x01\n        /* \"#utility.yul\":6295:6296   */\n      dup2\n        /* \"#utility.yul\":6291:6300   */\n      add\n        /* \"#utility.yul\":6286:6300   */\n      swap1\n      pop\n        /* \"#utility.yul\":6251:6530   */\n      jump(tag_153)\n    tag_155:\n        /* \"#utility.yul\":6255:6269   */\n      pop\n        /* \"#utility.yul\":5961:6537   */\n      pop\n      pop\n      pop\n        /* \"#utility.yul\":5851:6537   */\n      pop\n      pop\n      jump\t// out\n        /* \"#utility.yul\":6543:7048   */\n    tag_13:\n        /* \"#utility.yul\":6750:6754   */\n      0x00\n        /* \"#utility.yul\":6788:6791   */\n      0xc0\n        /* \"#utility.yul\":6777:6786   */\n      dup3\n        /* \"#utility.yul\":6773:6792   */\n      add\n        /* \"#utility.yul\":6765:6792   */\n      swap1\n      pop\n        /* \"#utility.yul\":6802:6915   */\n      tag_159\n        /* \"#utility.yul\":6912:6913   */\n      0x00\n        /* \"#utility.yul\":6901:6910   */\n      dup4\n        /* \"#utility.yul\":6897:6914   */\n      add\n        /* \"#utility.yul\":6888:6894   */\n      dup6\n        /* \"#utility.yul\":6802:6915   */\n      tag_85\n      jump\t// in\n    tag_159:\n        /* \"#utility.yul\":6925:7041   */\n      tag_160\n        /* \"#utility.yul\":7037:7039   */\n      0x60\n        /* \"#utility.yul\":7026:7035   */\n      dup4\n        /* \"#utility.yul\":7022:7040   */\n      add\n        /* \"#utility.yul\":7013:7019   */\n      dup5\n        /* \"#utility.yul\":6925:7041   */\n      tag_90\n      jump\t// in\n    tag_160:\n        /* \"#utility.yul\":6543:7048   */\n      swap4\n      swap3\n      pop\n      pop\n      pop\n      jump\t// out\n        /* \"#utility.yul\":7054:7360   */\n    tag_17:\n        /* \"#utility.yul\":7189:7193   */\n      0x00\n        /* \"#utility.yul\":7227:7229   */\n      0x60\n        /* \"#utility.yul\":7216:7225   */\n      dup3\n        /* \"#utility.yul\":7212:7230   */\n      add\n        /* \"#utility.yul\":7204:7230   */\n      swap1\n      pop\n        /* \"#utility.yul\":7240:7353   */\n      tag_162\n        /* \"#utility.yul\":7350:7351   */\n      0x00\n        /* \"#utility.yul\":7339:7348   */\n      dup4\n        /* \"#utility.yul\":7335:7352   */\n      add\n        /* \"#utility.yul\":7326:7332   */\n      dup5\n        /* \"#utility.yul\":7240:7353   */\n      tag_85\n      jump\t// in\n    tag_162:\n        /* \"#utility.yul\":7054:7360   */\n      swap3\n      swap2\n      pop\n      pop\n      jump\t// out\n        /* \"#utility.yul\":7366:7546   */\n    tag_24:\n        /* \"#utility.yul\":7414:7491   */\n      0x4e487b7100000000000000000000000000000000000000000000000000000000\n        /* \"#utility.yul\":7411:7412   */\n      0x00\n        /* \"#utility.yul\":7404:7492   */\n      mstore\n        /* \"#utility.yul\":7511:7515   */\n      0x32\n        /* \"#utility.yul\":7508:7509   */\n      0x04\n        /* \"#utility.yul\":7501:7516   */\n      mstore\n        /* \"#utility.yul\":7535:7539   */\n      0x24\n        /* \"#utility.yul\":7532:7533   */\n      0x00\n        /* \"#utility.yul\":7525:7540   */\n      revert\n\n    auxdata: 0xa2646970667358221220787adce7f42c6998683676cef8a3270a4f0e822303b4ed368568ce8bc428e0b664736f6c63430008110033\n}\n",
				"bytecode": {
					"linkReferences": {},
					"object": "608060405234801561001057600080fd5b5061094b806100206000396000f3fe608060405234801561001057600080fd5b50600436106100415760003560e01c80630a8e8e011461004657806366e41cb714610064578063f8a8fd6d14610083575b600080fd5b61004e6100a1565b60405161005b919061074b565b60405180910390f35b61006c6103b8565b60405161007a9291906108a2565b60405180910390f35b61008b6104b2565b60405161009891906108cb565b60405180910390f35b6100a9610545565b6100b1610545565b60aa60f81b816000600381106100ca576100c96108e6565b5b60200201516000600281106100e2576100e16108e6565b5b60200201907effffffffffffffffffffffffffffffffffffffffffffffffffffffffffffff191690817effffffffffffffffffffffffffffffffffffffffffffffffffffffffffffff19168152505060bb60f81b8160006003811061014a576101496108e6565b5b6020020151600160028110610162576101616108e6565b5b60200201907effffffffffffffffffffffffffffffffffffffffffffffffffffffffffffff191690817effffffffffffffffffffffffffffffffffffffffffffffffffffffffffffff19168152505060cc60f81b816001600381106101ca576101c96108e6565b5b60200201516000600281106101e2576101e16108e6565b5b60200201907effffffffffffffffffffffffffffffffffffffffffffffffffffffffffffff191690817effffffffffffffffffffffffffffffffffffffffffffffffffffffffffffff19168152505060dd60f81b8160016003811061024a576102496108e6565b5b6020020151600160028110610262576102616108e6565b5b60200201907effffffffffffffffffffffffffffffffffffffffffffffffffffffffffffff191690817effffffffffffffffffffffffffffffffffffffffffffffffffffffffffffff19168152505060ee60f81b816002600381106102ca576102c96108e6565b5b60200201516000600281106102e2576102e16108e6565b5b60200201907effffffffffffffffffffffffffffffffffffffffffffffffffffffffffffff191690817effffffffffffffffffffffffffffffffffffffffffffffffffffffffffffff19168152505060ff60f81b8160026003811061034a576103496108e6565b5b6020020151600160028110610362576103616108e6565b5b60200201907effffffffffffffffffffffffffffffffffffffffffffffffffffffffffffff191690817effffffffffffffffffffffffffffffffffffffffffffffffffffffffffffff1916815250508091505090565b6103c0610572565b6103c8610594565b60006040518060600160405280600160ff168152602001600260ff168152602001600360ff1681525090506000604051806060016040528060ff60f81b7effffffffffffffffffffffffffffffffffffffffffffffffffffffffffffff19167effffffffffffffffffffffffffffffffffffffffffffffffffffffffffffff1916815260200160aa60f81b7effffffffffffffffffffffffffffffffffffffffffffffffffffffffffffff1916815260200160bb60f81b7effffffffffffffffffffffffffffffffffffffffffffffffffffffffffffff1916815250905081819350935050509091565b6104ba610572565b6104c2610572565b60ff816000600381106104d8576104d76108e6565b5b602002019060ff16908160ff168152505060aa816001600381106104ff576104fe6108e6565b5b602002019060ff16908160ff168152505060bb81600260038110610526576105256108e6565b5b602002019060ff16908160ff1681525050600060039050819250505090565b60405180606001604052806003905b61055c6105b6565b8152602001906001900390816105545790505090565b6040518060600160405280600390602082028036833780820191505090505090565b6040518060600160405280600390602082028036833780820191505090505090565b6040518060400160405280600290602082028036833780820191505090505090565b600060039050919050565b600081905092915050565b6000819050919050565b600060029050919050565b600081905092915050565b6000819050919050565b60007fff0000000000000000000000000000000000000000000000000000000000000082169050919050565b61064d81610618565b82525050565b600061065f8383610644565b60208301905092915050565b6000602082019050919050565b610681816105f8565b61068b8184610603565b92506106968261060e565b8060005b838110156106c75781516106ae8782610653565b96506106b98361066b565b92505060018101905061069a565b505050505050565b60006106db8383610678565b60408301905092915050565b6000602082019050919050565b6106fd816105d8565b61070781846105e3565b9250610712826105ee565b8060005b8381101561074357815161072a87826106cf565b9650610735836106e7565b925050600181019050610716565b505050505050565b600060c08201905061076060008301846106f4565b92915050565b600060039050919050565b600081905092915050565b6000819050919050565b600060ff82169050919050565b61079c81610786565b82525050565b60006107ae8383610793565b60208301905092915050565b6000602082019050919050565b6107d081610766565b6107da8184610771565b92506107e58261077c565b8060005b838110156108165781516107fd87826107a2565b9650610808836107ba565b9250506001810190506107e9565b505050505050565b600060039050919050565b600081905092915050565b6000819050919050565b6000602082019050919050565b6108548161081e565b61085e8184610829565b925061086982610834565b8060005b8381101561089a5781516108818782610653565b965061088c8361083e565b92505060018101905061086d565b505050505050565b600060c0820190506108b760008301856107c7565b6108c4606083018461084b565b9392505050565b60006060820190506108e060008301846107c7565b92915050565b7f4e487b7100000000000000000000000000000000000000000000000000000000600052603260045260246000fdfea2646970667358221220787adce7f42c6998683676cef8a3270a4f0e822303b4ed368568ce8bc428e0b664736f6c63430008110033",
					"opcodes": "PUSH1 0x80 PUSH1 0x40 MSTORE CALLVALUE DUP1 ISZERO PUSH2 0x10 JUMPI PUSH1 0x0 DUP1 REVERT JUMPDEST POP PUSH2 0x94B DUP1 PUSH2 0x20 PUSH1 0x0 CODECOPY PUSH1 0x0 RETURN INVALID PUSH1 0x80 PUSH1 0x40 MSTORE CALLVALUE DUP1 ISZERO PUSH2 0x10 JUMPI PUSH1 0x0 DUP1 REVERT JUMPDEST POP PUSH1 0x4 CALLDATASIZE LT PUSH2 0x41 JUMPI PUSH1 0x0 CALLDATALOAD PUSH1 0xE0 SHR DUP1 PUSH4 0xA8E8E01 EQ PUSH2 0x46 JUMPI DUP1 PUSH4 0x66E41CB7 EQ PUSH2 0x64 JUMPI DUP1 PUSH4 0xF8A8FD6D EQ PUSH2 0x83 JUMPI JUMPDEST PUSH1 0x0 DUP1 REVERT JUMPDEST PUSH2 0x4E PUSH2 0xA1 JUMP JUMPDEST PUSH1 0x40 MLOAD PUSH2 0x5B SWAP2 SWAP1 PUSH2 0x74B JUMP JUMPDEST PUSH1 0x40 MLOAD DUP1 SWAP2 SUB SWAP1 RETURN JUMPDEST PUSH2 0x6C PUSH2 0x3B8 JUMP JUMPDEST PUSH1 0x40 MLOAD PUSH2 0x7A SWAP3 SWAP2 SWAP1 PUSH2 0x8A2 JUMP JUMPDEST PUSH1 0x40 MLOAD DUP1 SWAP2 SUB SWAP1 RETURN JUMPDEST PUSH2 0x8B PUSH2 0x4B2 JUMP JUMPDEST PUSH1 0x40 MLOAD PUSH2 0x98 SWAP2 SWAP1 PUSH2 0x8CB JUMP JUMPDEST PUSH1 0x40 MLOAD DUP1 SWAP2 SUB SWAP1 RETURN JUMPDEST PUSH2 0xA9 PUSH2 0x545 JUMP JUMPDEST PUSH2 0xB1 PUSH2 0x545 JUMP JUMPDEST PUSH1 0xAA PUSH1 0xF8 SHL DUP2 PUSH1 0x0 PUSH1 0x3 DUP2 LT PUSH2 0xCA JUMPI PUSH2 0xC9 PUSH2 0x8E6 JUMP JUMPDEST JUMPDEST PUSH1 0x20 MUL ADD MLOAD PUSH1 0x0 PUSH1 0x2 DUP2 LT PUSH2 0xE2 JUMPI PUSH2 0xE1 PUSH2 0x8E6 JUMP JUMPDEST JUMPDEST PUSH1 0x20 MUL ADD SWAP1 PUSH31 0xFFFFFFFFFFFFFFFFFFFFFFFFFFFFFFFFFFFFFFFFFFFFFFFFFFFFFFFFFFFFFF NOT AND SWAP1 DUP2 PUSH31 0xFFFFFFFFFFFFFFFFFFFFFFFFFFFFFFFFFFFFFFFFFFFFFFFFFFFFFFFFFFFFFF NOT AND DUP2 MSTORE POP POP PUSH1 0xBB PUSH1 0xF8 SHL DUP2 PUSH1 0x0 PUSH1 0x3 DUP2 LT PUSH2 0x14A JUMPI PUSH2 0x149 PUSH2 0x8E6 JUMP JUMPDEST JUMPDEST PUSH1 0x20 MUL ADD MLOAD PUSH1 0x1 PUSH1 0x2 DUP2 LT PUSH2 0x162 JUMPI PUSH2 0x161 PUSH2 0x8E6 JUMP JUMPDEST JUMPDEST PUSH1 0x20 MUL ADD SWAP1 PUSH31 0xFFFFFFFFFFFFFFFFFFFFFFFFFFFFFFFFFFFFFFFFFFFFFFFFFFFFFFFFFFFFFF NOT AND SWAP1 DUP2 PUSH31 0xFFFFFFFFFFFFFFFFFFFFFFFFFFFFFFFFFFFFFFFFFFFFFFFFFFFFFFFFFFFFFF NOT AND DUP2 MSTORE POP POP PUSH1 0xCC PUSH1 0xF8 SHL DUP2 PUSH1 0x1 PUSH1 0x3 DUP2 LT PUSH2 0x1CA JUMPI PUSH2 0x1C9 PUSH2 0x8E6 JUMP JUMPDEST JUMPDEST PUSH1 0x20 MUL ADD MLOAD PUSH1 0x0 PUSH1 0x2 DUP2 LT PUSH2 0x1E2 JUMPI PUSH2 0x1E1 PUSH2 0x8E6 JUMP JUMPDEST JUMPDEST PUSH1 0x20 MUL ADD SWAP1 PUSH31 0xFFFFFFFFFFFFFFFFFFFFFFFFFFFFFFFFFFFFFFFFFFFFFFFFFFFFFFFFFFFFFF NOT AND SWAP1 DUP2 PUSH31 0xFFFFFFFFFFFFFFFFFFFFFFFFFFFFFFFFFFFFFFFFFFFFFFFFFFFFFFFFFFFFFF NOT AND DUP2 MSTORE POP POP PUSH1 0xDD PUSH1 0xF8 SHL DUP2 PUSH1 0x1 PUSH1 0x3 DUP2 LT PUSH2 0x24A JUMPI PUSH2 0x249 PUSH2 0x8E6 JUMP JUMPDEST JUMPDEST PUSH1 0x20 MUL ADD MLOAD PUSH1 0x1 PUSH1 0x2 DUP2 LT PUSH2 0x262 JUMPI PUSH2 0x261 PUSH2 0x8E6 JUMP JUMPDEST JUMPDEST PUSH1 0x20 MUL ADD SWAP1 PUSH31 0xFFFFFFFFFFFFFFFFFFFFFFFFFFFFFFFFFFFFFFFFFFFFFFFFFFFFFFFFFFFFFF NOT AND SWAP1 DUP2 PUSH31 0xFFFFFFFFFFFFFFFFFFFFFFFFFFFFFFFFFFFFFFFFFFFFFFFFFFFFFFFFFFFFFF NOT AND DUP2 MSTORE POP POP PUSH1 0xEE PUSH1 0xF8 SHL DUP2 PUSH1 0x2 PUSH1 0x3 DUP2 LT PUSH2 0x2CA JUMPI PUSH2 0x2C9 PUSH2 0x8E6 JUMP JUMPDEST JUMPDEST PUSH1 0x20 MUL ADD MLOAD PUSH1 0x0 PUSH1 0x2 DUP2 LT PUSH2 0x2E2 JUMPI PUSH2 0x2E1 PUSH2 0x8E6 JUMP JUMPDEST JUMPDEST PUSH1 0x20 MUL ADD SWAP1 PUSH31 0xFFFFFFFFFFFFFFFFFFFFFFFFFFFFFFFFFFFFFFFFFFFFFFFFFFFFFFFFFFFFFF NOT AND SWAP1 DUP2 PUSH31 0xFFFFFFFFFFFFFFFFFFFFFFFFFFFFFFFFFFFFFFFFFFFFFFFFFFFFFFFFFFFFFF NOT AND DUP2 MSTORE POP POP PUSH1 0xFF PUSH1 0xF8 SHL DUP2 PUSH1 0x2 PUSH1 0x3 DUP2 LT PUSH2 0x34A JUMPI PUSH2 0x349 PUSH2 0x8E6 JUMP JUMPDEST JUMPDEST PUSH1 0x20 MUL ADD MLOAD PUSH1 0x1 PUSH1 0x2 DUP2 LT PUSH2 0x362 JUMPI PUSH2 0x361 PUSH2 0x8E6 JUMP JUMPDEST JUMPDEST PUSH1 0x20 MUL ADD SWAP1 PUSH31 0xFFFFFFFFFFFFFFFFFFFFFFFFFFFFFFFFFFFFFFFFFFFFFFFFFFFFFFFFFFFFFF NOT AND SWAP1 DUP2 PUSH31 0xFFFFFFFFFFFFFFFFFFFFFFFFFFFFFFFFFFFFFFFFFFFFFFFFFFFFFFFFFFFFFF NOT AND DUP2 MSTORE POP POP DUP1 SWAP2 POP POP SWAP1 JUMP JUMPDEST PUSH2 0x3C0 PUSH2 0x572 JUMP JUMPDEST PUSH2 0x3C8 PUSH2 0x594 JUMP JUMPDEST PUSH1 0x0 PUSH1 0x40 MLOAD DUP1 PUSH1 0x60 ADD PUSH1 0x40 MSTORE DUP1 PUSH1 0x1 PUSH1 0xFF AND DUP2 MSTORE PUSH1 0x20 ADD PUSH1 0x2 PUSH1 0xFF AND DUP2 MSTORE PUSH1 0x20 ADD PUSH1 0x3 PUSH1 0xFF AND DUP2 MSTORE POP SWAP1 POP PUSH1 0x0 PUSH1 0x40 MLOAD DUP1 PUSH1 0x60 ADD PUSH1 0x40 MSTORE DUP1 PUSH1 0xFF PUSH1 0xF8 SHL PUSH31 0xFFFFFFFFFFFFFFFFFFFFFFFFFFFFFFFFFFFFFFFFFFFFFFFFFFFFFFFFFFFFFF NOT AND PUSH31 0xFFFFFFFFFFFFFFFFFFFFFFFFFFFFFFFFFFFFFFFFFFFFFFFFFFFFFFFFFFFFFF NOT AND DUP2 MSTORE PUSH1 0x20 ADD PUSH1 0xAA PUSH1 0xF8 SHL PUSH31 0xFFFFFFFFFFFFFFFFFFFFFFFFFFFFFFFFFFFFFFFFFFFFFFFFFFFFFFFFFFFFFF NOT AND DUP2 MSTORE PUSH1 0x20 ADD PUSH1 0xBB PUSH1 0xF8 SHL PUSH31 0xFFFFFFFFFFFFFFFFFFFFFFFFFFFFFFFFFFFFFFFFFFFFFFFFFFFFFFFFFFFFFF NOT AND DUP2 MSTORE POP SWAP1 POP DUP2 DUP2 SWAP4 POP SWAP4 POP POP POP SWAP1 SWAP2 JUMP JUMPDEST PUSH2 0x4BA PUSH2 0x572 JUMP JUMPDEST PUSH2 0x4C2 PUSH2 0x572 JUMP JUMPDEST PUSH1 0xFF DUP2 PUSH1 0x0 PUSH1 0x3 DUP2 LT PUSH2 0x4D8 JUMPI PUSH2 0x4D7 PUSH2 0x8E6 JUMP JUMPDEST JUMPDEST PUSH1 0x20 MUL ADD SWAP1 PUSH1 0xFF AND SWAP1 DUP2 PUSH1 0xFF AND DUP2 MSTORE POP POP PUSH1 0xAA DUP2 PUSH1 0x1 PUSH1 0x3 DUP2 LT PUSH2 0x4FF JUMPI PUSH2 0x4FE PUSH2 0x8E6 JUMP JUMPDEST JUMPDEST PUSH1 0x20 MUL ADD SWAP1 PUSH1 0xFF AND SWAP1 DUP2 PUSH1 0xFF AND DUP2 MSTORE POP POP PUSH1 0xBB DUP2 PUSH1 0x2 PUSH1 0x3 DUP2 LT PUSH2 0x526 JUMPI PUSH2 0x525 PUSH2 0x8E6 JUMP JUMPDEST JUMPDEST PUSH1 0x20 MUL ADD SWAP1 PUSH1 0xFF AND SWAP1 DUP2 PUSH1 0xFF AND DUP2 MSTORE POP POP PUSH1 0x0 PUSH1 0x3 SWAP1 POP DUP2 SWAP3 POP POP POP SWAP1 JUMP JUMPDEST PUSH1 0x40 MLOAD DUP1 PUSH1 0x60 ADD PUSH1 0x40 MSTORE DUP1 PUSH1 0x3 SWAP1 JUMPDEST PUSH2 0x55C PUSH2 0x5B6 JUMP JUMPDEST DUP2 MSTORE PUSH1 0x20 ADD SWAP1 PUSH1 0x1 SWAP1 SUB SWAP1 DUP2 PUSH2 0x554 JUMPI SWAP1 POP POP SWAP1 JUMP JUMPDEST PUSH1 0x40 MLOAD DUP1 PUSH1 0x60 ADD PUSH1 0x40 MSTORE DUP1 PUSH1 0x3 SWAP1 PUSH1 0x20 DUP3 MUL DUP1 CALLDATASIZE DUP4 CALLDATACOPY DUP1 DUP3 ADD SWAP2 POP POP SWAP1 POP POP SWAP1 JUMP JUMPDEST PUSH1 0x40 MLOAD DUP1 PUSH1 0x60 ADD PUSH1 0x40 MSTORE DUP1 PUSH1 0x3 SWAP1 PUSH1 0x20 DUP3 MUL DUP1 CALLDATASIZE DUP4 CALLDATACOPY DUP1 DUP3 ADD SWAP2 POP POP SWAP1 POP POP SWAP1 JUMP JUMPDEST PUSH1 0x40 MLOAD DUP1 PUSH1 0x40 ADD PUSH1 0x40 MSTORE DUP1 PUSH1 0x2 SWAP1 PUSH1 0x20 DUP3 MUL DUP1 CALLDATASIZE DUP4 CALLDATACOPY DUP1 DUP3 ADD SWAP2 POP POP SWAP1 POP POP SWAP1 JUMP JUMPDEST PUSH1 0x0 PUSH1 0x3 SWAP1 POP SWAP2 SWAP1 POP JUMP JUMPDEST PUSH1 0x0 DUP2 SWAP1 POP SWAP3 SWAP2 POP POP JUMP JUMPDEST PUSH1 0x0 DUP2 SWAP1 POP SWAP2 SWAP1 POP JUMP JUMPDEST PUSH1 0x0 PUSH1 0x2 SWAP1 POP SWAP2 SWAP1 POP JUMP JUMPDEST PUSH1 0x0 DUP2 SWAP1 POP SWAP3 SWAP2 POP POP JUMP JUMPDEST PUSH1 0x0 DUP2 SWAP1 POP SWAP2 SWAP1 POP JUMP JUMPDEST PUSH1 0x0 PUSH32 0xFF00000000000000000000000000000000000000000000000000000000000000 DUP3 AND SWAP1 POP SWAP2 SWAP1 POP JUMP JUMPDEST PUSH2 0x64D DUP2 PUSH2 0x618 JUMP JUMPDEST DUP3 MSTORE POP POP JUMP JUMPDEST PUSH1 0x0 PUSH2 0x65F DUP4 DUP4 PUSH2 0x644 JUMP JUMPDEST PUSH1 0x20 DUP4 ADD SWAP1 POP SWAP3 SWAP2 POP POP JUMP JUMPDEST PUSH1 0x0 PUSH1 0x20 DUP3 ADD SWAP1 POP SWAP2 SWAP1 POP JUMP JUMPDEST PUSH2 0x681 DUP2 PUSH2 0x5F8 JUMP JUMPDEST PUSH2 0x68B DUP2 DUP5 PUSH2 0x603 JUMP JUMPDEST SWAP3 POP PUSH2 0x696 DUP3 PUSH2 0x60E JUMP JUMPDEST DUP1 PUSH1 0x0 JUMPDEST DUP4 DUP2 LT ISZERO PUSH2 0x6C7 JUMPI DUP2 MLOAD PUSH2 0x6AE DUP8 DUP3 PUSH2 0x653 JUMP JUMPDEST SWAP7 POP PUSH2 0x6B9 DUP4 PUSH2 0x66B JUMP JUMPDEST SWAP3 POP POP PUSH1 0x1 DUP2 ADD SWAP1 POP PUSH2 0x69A JUMP JUMPDEST POP POP POP POP POP POP JUMP JUMPDEST PUSH1 0x0 PUSH2 0x6DB DUP4 DUP4 PUSH2 0x678 JUMP JUMPDEST PUSH1 0x40 DUP4 ADD SWAP1 POP SWAP3 SWAP2 POP POP JUMP JUMPDEST PUSH1 0x0 PUSH1 0x20 DUP3 ADD SWAP1 POP SWAP2 SWAP1 POP JUMP JUMPDEST PUSH2 0x6FD DUP2 PUSH2 0x5D8 JUMP JUMPDEST PUSH2 0x707 DUP2 DUP5 PUSH2 0x5E3 JUMP JUMPDEST SWAP3 POP PUSH2 0x712 DUP3 PUSH2 0x5EE JUMP JUMPDEST DUP1 PUSH1 0x0 JUMPDEST DUP4 DUP2 LT ISZERO PUSH2 0x743 JUMPI DUP2 MLOAD PUSH2 0x72A DUP8 DUP3 PUSH2 0x6CF JUMP JUMPDEST SWAP7 POP PUSH2 0x735 DUP4 PUSH2 0x6E7 JUMP JUMPDEST SWAP3 POP POP PUSH1 0x1 DUP2 ADD SWAP1 POP PUSH2 0x716 JUMP JUMPDEST POP POP POP POP POP POP JUMP JUMPDEST PUSH1 0x0 PUSH1 0xC0 DUP3 ADD SWAP1 POP PUSH2 0x760 PUSH1 0x0 DUP4 ADD DUP5 PUSH2 0x6F4 JUMP JUMPDEST SWAP3 SWAP2 POP POP JUMP JUMPDEST PUSH1 0x0 PUSH1 0x3 SWAP1 POP SWAP2 SWAP1 POP JUMP JUMPDEST PUSH1 0x0 DUP2 SWAP1 POP SWAP3 SWAP2 POP POP JUMP JUMPDEST PUSH1 0x0 DUP2 SWAP1 POP SWAP2 SWAP1 POP JUMP JUMPDEST PUSH1 0x0 PUSH1 0xFF DUP3 AND SWAP1 POP SWAP2 SWAP1 POP JUMP JUMPDEST PUSH2 0x79C DUP2 PUSH2 0x786 JUMP JUMPDEST DUP3 MSTORE POP POP JUMP JUMPDEST PUSH1 0x0 PUSH2 0x7AE DUP4 DUP4 PUSH2 0x793 JUMP JUMPDEST PUSH1 0x20 DUP4 ADD SWAP1 POP SWAP3 SWAP2 POP POP JUMP JUMPDEST PUSH1 0x0 PUSH1 0x20 DUP3 ADD SWAP1 POP SWAP2 SWAP1 POP JUMP JUMPDEST PUSH2 0x7D0 DUP2 PUSH2 0x766 JUMP JUMPDEST PUSH2 0x7DA DUP2 DUP5 PUSH2 0x771 JUMP JUMPDEST SWAP3 POP PUSH2 0x7E5 DUP3 PUSH2 0x77C JUMP JUMPDEST DUP1 PUSH1 0x0 JUMPDEST DUP4 DUP2 LT ISZERO PUSH2 0x816 JUMPI DUP2 MLOAD PUSH2 0x7FD DUP8 DUP3 PUSH2 0x7A2 JUMP JUMPDEST SWAP7 POP PUSH2 0x808 DUP4 PUSH2 0x7BA JUMP JUMPDEST SWAP3 POP POP PUSH1 0x1 DUP2 ADD SWAP1 POP PUSH2 0x7E9 JUMP JUMPDEST POP POP POP POP POP POP JUMP JUMPDEST PUSH1 0x0 PUSH1 0x3 SWAP1 POP SWAP2 SWAP1 POP JUMP JUMPDEST PUSH1 0x0 DUP2 SWAP1 POP SWAP3 SWAP2 POP POP JUMP JUMPDEST PUSH1 0x0 DUP2 SWAP1 POP SWAP2 SWAP1 POP JUMP JUMPDEST PUSH1 0x0 PUSH1 0x20 DUP3 ADD SWAP1 POP SWAP2 SWAP1 POP JUMP JUMPDEST PUSH2 0x854 DUP2 PUSH2 0x81E JUMP JUMPDEST PUSH2 0x85E DUP2 DUP5 PUSH2 0x829 JUMP JUMPDEST SWAP3 POP PUSH2 0x869 DUP3 PUSH2 0x834 JUMP JUMPDEST DUP1 PUSH1 0x0 JUMPDEST DUP4 DUP2 LT ISZERO PUSH2 0x89A JUMPI DUP2 MLOAD PUSH2 0x881 DUP8 DUP3 PUSH2 0x653 JUMP JUMPDEST SWAP7 POP PUSH2 0x88C DUP4 PUSH2 0x83E JUMP JUMPDEST SWAP3 POP POP PUSH1 0x1 DUP2 ADD SWAP1 POP PUSH2 0x86D JUMP JUMPDEST POP POP POP POP POP POP JUMP JUMPDEST PUSH1 0x0 PUSH1 0xC0 DUP3 ADD SWAP1 POP PUSH2 0x8B7 PUSH1 0x0 DUP4 ADD DUP6 PUSH2 0x7C7 JUMP JUMPDEST PUSH2 0x8C4 PUSH1 0x60 DUP4 ADD DUP5 PUSH2 0x84B JUMP JUMPDEST SWAP4 SWAP3 POP POP POP JUMP JUMPDEST PUSH1 0x0 PUSH1 0x60 DUP3 ADD SWAP1 POP PUSH2 0x8E0 PUSH1 0x0 DUP4 ADD DUP5 PUSH2 0x7C7 JUMP JUMPDEST SWAP3 SWAP2 POP POP JUMP JUMPDEST PUSH32 0x4E487B7100000000000000000000000000000000000000000000000000000000 PUSH1 0x0 MSTORE PUSH1 0x32 PUSH1 0x4 MSTORE PUSH1 0x24 PUSH1 0x0 REVERT INVALID LOG2 PUSH5 0x6970667358 0x22 SLT KECCAK256 PUSH25 0x7ADCE7F42C6998683676CEF8A3270A4F0E822303B4ED368568 0xCE DUP12 0xC4 0x28 0xE0 0xB6 PUSH5 0x736F6C6343 STOP ADDMOD GT STOP CALLER "
				},
				"gasEstimates": {
					"creation": {
						"codeDepositCost": "475800",
						"executionCost": "511",
						"totalCost": "476311"
					},
					"external": {
						"test()": "infinite",
						"test2()": "infinite",
						"test3()": "infinite"
					}
				},
				"methodIdentifiers": {
					"test()": "f8a8fd6d",
					"test2()": "66e41cb7",
					"test3()": "0a8e8e01"
				}
			},
			"storageLayout": {
				"storage": [],
				"types": null
			},
			"userdoc": {
				"kind": "user",
				"methods": {},
				"version": 1
			}
		}
	}
}