{
	"基本数据类型间的隐式转换.sol": {
		"HelloWorld": {
			"abi": [
				{
					"inputs": [],
					"name": "a16",
					"outputs": [
						{
							"internalType": "uint16",
							"name": "",
							"type": "uint16"
						}
					],
					"stateMutability": "view",
					"type": "function"
				},
				{
					"inputs": [],
					"name": "a32",
					"outputs": [
						{
							"internalType": "uint32",
							"name": "",
							"type": "uint32"
						}
					],
					"stateMutability": "view",
					"type": "function"
				},
				{
					"inputs": [],
					"name": "a8",
					"outputs": [
						{
							"internalType": "uint8",
							"name": "",
							"type": "uint8"
						}
					],
					"stateMutability": "view",
					"type": "function"
				}
			],
			"devdoc": {
				"kind": "dev",
				"methods": {},
				"version": 1
			},
			"evm": {
				"assembly": "    /* \"\\xe5\\x9f\\xba\\xe6\\x9c\\xac\\xe6\\x95\\xb0\\xe6\\x8d\\xae\\xe7\\xb1\\xbb\\xe5\\x9e\\x8b\\xe9\\x97\\xb4\\xe7\\x9a\\x84\\xe9\\x9a\\x90\\xe5\\xbc\\x8f\\xe8\\xbd\\xac\\xe6\\x8d\\xa2.sol\":66:682  contract HelloWorld {... */\n  mstore(0x40, 0x80)\n    /* \"\\xe5\\x9f\\xba\\xe6\\x9c\\xac\\xe6\\x95\\xb0\\xe6\\x8d\\xae\\xe7\\xb1\\xbb\\xe5\\x9e\\x8b\\xe9\\x97\\xb4\\xe7\\x9a\\x84\\xe9\\x9a\\x90\\xe5\\xbc\\x8f\\xe8\\xbd\\xac\\xe6\\x8d\\xa2.sol\":411:415  0xff */\n  0xff\n    /* \"\\xe5\\x9f\\xba\\xe6\\x9c\\xac\\xe6\\x95\\xb0\\xe6\\x8d\\xae\\xe7\\xb1\\xbb\\xe5\\x9e\\x8b\\xe9\\x97\\xb4\\xe7\\x9a\\x84\\xe9\\x9a\\x90\\xe5\\xbc\\x8f\\xe8\\xbd\\xac\\xe6\\x8d\\xa2.sol\":393:415  uint8 public a8 = 0xff */\n  0x00\n  dup1\n  0x0100\n  exp\n  dup2\n  sload\n  dup2\n  0xff\n  mul\n  not\n  and\n  swap1\n  dup4\n  0xff\n  and\n  mul\n  or\n  swap1\n  sstore\n  pop\n    /* \"\\xe5\\x9f\\xba\\xe6\\x9c\\xac\\xe6\\x95\\xb0\\xe6\\x8d\\xae\\xe7\\xb1\\xbb\\xe5\\x9e\\x8b\\xe9\\x97\\xb4\\xe7\\x9a\\x84\\xe9\\x9a\\x90\\xe5\\xbc\\x8f\\xe8\\xbd\\xac\\xe6\\x8d\\xa2.sol\":450:454  0xff */\n  0xff\n    /* \"\\xe5\\x9f\\xba\\xe6\\x9c\\xac\\xe6\\x95\\xb0\\xe6\\x8d\\xae\\xe7\\xb1\\xbb\\xe5\\x9e\\x8b\\xe9\\x97\\xb4\\xe7\\x9a\\x84\\xe9\\x9a\\x90\\xe5\\xbc\\x8f\\xe8\\xbd\\xac\\xe6\\x8d\\xa2.sol\":430:454  uint16 public a16 = 0xff */\n  0x00\n  exp(0x0100, 0x01)\n  dup2\n  sload\n  dup2\n  0xffff\n  mul\n  not\n  and\n  swap1\n  dup4\n  0xffff\n  and\n  mul\n  or\n  swap1\n  sstore\n  pop\n    /* \"\\xe5\\x9f\\xba\\xe6\\x9c\\xac\\xe6\\x95\\xb0\\xe6\\x8d\\xae\\xe7\\xb1\\xbb\\xe5\\x9e\\x8b\\xe9\\x97\\xb4\\xe7\\x9a\\x84\\xe9\\x9a\\x90\\xe5\\xbc\\x8f\\xe8\\xbd\\xac\\xe6\\x8d\\xa2.sol\":519:522  a16 */\n  0x00\n  0x01\n  swap1\n  sload\n  swap1\n  0x0100\n  exp\n  swap1\n  div\n  0xffff\n  and\n    /* \"\\xe5\\x9f\\xba\\xe6\\x9c\\xac\\xe6\\x95\\xb0\\xe6\\x8d\\xae\\xe7\\xb1\\xbb\\xe5\\x9e\\x8b\\xe9\\x97\\xb4\\xe7\\x9a\\x84\\xe9\\x9a\\x90\\xe5\\xbc\\x8f\\xe8\\xbd\\xac\\xe6\\x8d\\xa2.sol\":514:516  a8 */\n  0x00\n  dup1\n  sload\n  swap1\n  0x0100\n  exp\n  swap1\n  div\n  0xff\n  and\n    /* \"\\xe5\\x9f\\xba\\xe6\\x9c\\xac\\xe6\\x95\\xb0\\xe6\\x8d\\xae\\xe7\\xb1\\xbb\\xe5\\x9e\\x8b\\xe9\\x97\\xb4\\xe7\\x9a\\x84\\xe9\\x9a\\x90\\xe5\\xbc\\x8f\\xe8\\xbd\\xac\\xe6\\x8d\\xa2.sol\":514:522  a8 + a16 */\n  0xff\n  and\n  tag_1\n  swap2\n  swap1\n  tag_2\n  jump\t// in\ntag_1:\n    /* \"\\xe5\\x9f\\xba\\xe6\\x9c\\xac\\xe6\\x95\\xb0\\xe6\\x8d\\xae\\xe7\\xb1\\xbb\\xe5\\x9e\\x8b\\xe9\\x97\\xb4\\xe7\\x9a\\x84\\xe9\\x9a\\x90\\xe5\\xbc\\x8f\\xe8\\xbd\\xac\\xe6\\x8d\\xa2.sol\":494:522  uint32 public a32 = a8 + a16 */\n  0xffff\n  and\n  0x00\n  exp(0x0100, 0x03)\n  dup2\n  sload\n  dup2\n  0xffffffff\n  mul\n  not\n  and\n  swap1\n  dup4\n  0xffffffff\n  and\n  mul\n  or\n  swap1\n  sstore\n  pop\n    /* \"\\xe5\\x9f\\xba\\xe6\\x9c\\xac\\xe6\\x95\\xb0\\xe6\\x8d\\xae\\xe7\\xb1\\xbb\\xe5\\x9e\\x8b\\xe9\\x97\\xb4\\xe7\\x9a\\x84\\xe9\\x9a\\x90\\xe5\\xbc\\x8f\\xe8\\xbd\\xac\\xe6\\x8d\\xa2.sol\":66:682  contract HelloWorld {... */\n  callvalue\n  dup1\n  iszero\n  tag_3\n  jumpi\n  0x00\n  dup1\n  revert\ntag_3:\n  pop\n  jump(tag_4)\n    /* \"#utility.yul\":7:96   */\ntag_5:\n    /* \"#utility.yul\":43:50   */\n  0x00\n    /* \"#utility.yul\":83:89   */\n  0xffff\n    /* \"#utility.yul\":76:81   */\n  dup3\n    /* \"#utility.yul\":72:90   */\n  and\n    /* \"#utility.yul\":61:90   */\n  swap1\n  pop\n    /* \"#utility.yul\":7:96   */\n  swap2\n  swap1\n  pop\n  jump\t// out\n    /* \"#utility.yul\":102:282   */\ntag_6:\n    /* \"#utility.yul\":150:227   */\n  0x4e487b7100000000000000000000000000000000000000000000000000000000\n    /* \"#utility.yul\":147:148   */\n  0x00\n    /* \"#utility.yul\":140:228   */\n  mstore\n    /* \"#utility.yul\":247:251   */\n  0x11\n    /* \"#utility.yul\":244:245   */\n  0x04\n    /* \"#utility.yul\":237:252   */\n  mstore\n    /* \"#utility.yul\":271:275   */\n  0x24\n    /* \"#utility.yul\":268:269   */\n  0x00\n    /* \"#utility.yul\":261:276   */\n  revert\n    /* \"#utility.yul\":288:481   */\ntag_2:\n    /* \"#utility.yul\":327:330   */\n  0x00\n    /* \"#utility.yul\":346:365   */\n  tag_11\n    /* \"#utility.yul\":363:364   */\n  dup3\n    /* \"#utility.yul\":346:365   */\n  tag_5\n  jump\t// in\ntag_11:\n    /* \"#utility.yul\":341:365   */\n  swap2\n  pop\n    /* \"#utility.yul\":379:398   */\n  tag_12\n    /* \"#utility.yul\":396:397   */\n  dup4\n    /* \"#utility.yul\":379:398   */\n  tag_5\n  jump\t// in\ntag_12:\n    /* \"#utility.yul\":374:398   */\n  swap3\n  pop\n    /* \"#utility.yul\":421:422   */\n  dup3\n    /* \"#utility.yul\":418:419   */\n  dup3\n    /* \"#utility.yul\":414:423   */\n  add\n    /* \"#utility.yul\":407:423   */\n  swap1\n  pop\n    /* \"#utility.yul\":444:450   */\n  0xffff\n    /* \"#utility.yul\":439:442   */\n  dup2\n    /* \"#utility.yul\":436:451   */\n  gt\n    /* \"#utility.yul\":433:474   */\n  iszero\n  tag_13\n  jumpi\n    /* \"#utility.yul\":454:472   */\n  tag_14\n  tag_6\n  jump\t// in\ntag_14:\n    /* \"#utility.yul\":433:474   */\ntag_13:\n    /* \"#utility.yul\":288:481   */\n  swap3\n  swap2\n  pop\n  pop\n  jump\t// out\n    /* \"\\xe5\\x9f\\xba\\xe6\\x9c\\xac\\xe6\\x95\\xb0\\xe6\\x8d\\xae\\xe7\\xb1\\xbb\\xe5\\x9e\\x8b\\xe9\\x97\\xb4\\xe7\\x9a\\x84\\xe9\\x9a\\x90\\xe5\\xbc\\x8f\\xe8\\xbd\\xac\\xe6\\x8d\\xa2.sol\":66:682  contract HelloWorld {... */\ntag_4:\n  dataSize(sub_0)\n  dup1\n  dataOffset(sub_0)\n  0x00\n  codecopy\n  0x00\n  return\nstop\n\nsub_0: assembly {\n        /* \"\\xe5\\x9f\\xba\\xe6\\x9c\\xac\\xe6\\x95\\xb0\\xe6\\x8d\\xae\\xe7\\xb1\\xbb\\xe5\\x9e\\x8b\\xe9\\x97\\xb4\\xe7\\x9a\\x84\\xe9\\x9a\\x90\\xe5\\xbc\\x8f\\xe8\\xbd\\xac\\xe6\\x8d\\xa2.sol\":66:682  contract HelloWorld {... */\n      mstore(0x40, 0x80)\n      callvalue\n      dup1\n      iszero\n      tag_1\n      jumpi\n      0x00\n      dup1\n      revert\n    tag_1:\n      pop\n      jumpi(tag_2, lt(calldatasize, 0x04))\n      shr(0xe0, calldataload(0x00))\n      dup1\n      0x520ed411\n      eq\n      tag_3\n      jumpi\n      dup1\n      0x6ad847ff\n      eq\n      tag_4\n      jumpi\n      dup1\n      0xf1d744db\n      eq\n      tag_5\n      jumpi\n    tag_2:\n      0x00\n      dup1\n      revert\n        /* \"\\xe5\\x9f\\xba\\xe6\\x9c\\xac\\xe6\\x95\\xb0\\xe6\\x8d\\xae\\xe7\\xb1\\xbb\\xe5\\x9e\\x8b\\xe9\\x97\\xb4\\xe7\\x9a\\x84\\xe9\\x9a\\x90\\xe5\\xbc\\x8f\\xe8\\xbd\\xac\\xe6\\x8d\\xa2.sol\":494:522  uint32 public a32 = a8 + a16 */\n    tag_3:\n      tag_6\n      tag_7\n      jump\t// in\n    tag_6:\n      mload(0x40)\n      tag_8\n      swap2\n      swap1\n      tag_9\n      jump\t// in\n    tag_8:\n      mload(0x40)\n      dup1\n      swap2\n      sub\n      swap1\n      return\n        /* \"\\xe5\\x9f\\xba\\xe6\\x9c\\xac\\xe6\\x95\\xb0\\xe6\\x8d\\xae\\xe7\\xb1\\xbb\\xe5\\x9e\\x8b\\xe9\\x97\\xb4\\xe7\\x9a\\x84\\xe9\\x9a\\x90\\xe5\\xbc\\x8f\\xe8\\xbd\\xac\\xe6\\x8d\\xa2.sol\":393:415  uint8 public a8 = 0xff */\n    tag_4:\n      tag_10\n      tag_11\n      jump\t// in\n    tag_10:\n      mload(0x40)\n      tag_12\n      swap2\n      swap1\n      tag_13\n      jump\t// in\n    tag_12:\n      mload(0x40)\n      dup1\n      swap2\n      sub\n      swap1\n      return\n        /* \"\\xe5\\x9f\\xba\\xe6\\x9c\\xac\\xe6\\x95\\xb0\\xe6\\x8d\\xae\\xe7\\xb1\\xbb\\xe5\\x9e\\x8b\\xe9\\x97\\xb4\\xe7\\x9a\\x84\\xe9\\x9a\\x90\\xe5\\xbc\\x8f\\xe8\\xbd\\xac\\xe6\\x8d\\xa2.sol\":430:454  uint16 public a16 = 0xff */\n    tag_5:\n      tag_14\n      tag_15\n      jump\t// in\n    tag_14:\n      mload(0x40)\n      tag_16\n      swap2\n      swap1\n      tag_17\n      jump\t// in\n    tag_16:\n      mload(0x40)\n      dup1\n      swap2\n      sub\n      swap1\n      return\n        /* \"\\xe5\\x9f\\xba\\xe6\\x9c\\xac\\xe6\\x95\\xb0\\xe6\\x8d\\xae\\xe7\\xb1\\xbb\\xe5\\x9e\\x8b\\xe9\\x97\\xb4\\xe7\\x9a\\x84\\xe9\\x9a\\x90\\xe5\\xbc\\x8f\\xe8\\xbd\\xac\\xe6\\x8d\\xa2.sol\":494:522  uint32 public a32 = a8 + a16 */\n    tag_7:\n      0x00\n      0x03\n      swap1\n      sload\n      swap1\n      0x0100\n      exp\n      swap1\n      div\n      0xffffffff\n      and\n      dup2\n      jump\t// out\n        /* \"\\xe5\\x9f\\xba\\xe6\\x9c\\xac\\xe6\\x95\\xb0\\xe6\\x8d\\xae\\xe7\\xb1\\xbb\\xe5\\x9e\\x8b\\xe9\\x97\\xb4\\xe7\\x9a\\x84\\xe9\\x9a\\x90\\xe5\\xbc\\x8f\\xe8\\xbd\\xac\\xe6\\x8d\\xa2.sol\":393:415  uint8 public a8 = 0xff */\n    tag_11:\n      0x00\n      dup1\n      sload\n      swap1\n      0x0100\n      exp\n      swap1\n      div\n      0xff\n      and\n      dup2\n      jump\t// out\n        /* \"\\xe5\\x9f\\xba\\xe6\\x9c\\xac\\xe6\\x95\\xb0\\xe6\\x8d\\xae\\xe7\\xb1\\xbb\\xe5\\x9e\\x8b\\xe9\\x97\\xb4\\xe7\\x9a\\x84\\xe9\\x9a\\x90\\xe5\\xbc\\x8f\\xe8\\xbd\\xac\\xe6\\x8d\\xa2.sol\":430:454  uint16 public a16 = 0xff */\n    tag_15:\n      0x00\n      0x01\n      swap1\n      sload\n      swap1\n      0x0100\n      exp\n      swap1\n      div\n      0xffff\n      and\n      dup2\n      jump\t// out\n        /* \"#utility.yul\":7:100   */\n    tag_18:\n        /* \"#utility.yul\":43:50   */\n      0x00\n        /* \"#utility.yul\":83:93   */\n      0xffffffff\n        /* \"#utility.yul\":76:81   */\n      dup3\n        /* \"#utility.yul\":72:94   */\n      and\n        /* \"#utility.yul\":61:94   */\n      swap1\n      pop\n        /* \"#utility.yul\":7:100   */\n      swap2\n      swap1\n      pop\n      jump\t// out\n        /* \"#utility.yul\":106:221   */\n    tag_19:\n        /* \"#utility.yul\":191:214   */\n      tag_27\n        /* \"#utility.yul\":208:213   */\n      dup2\n        /* \"#utility.yul\":191:214   */\n      tag_18\n      jump\t// in\n    tag_27:\n        /* \"#utility.yul\":186:189   */\n      dup3\n        /* \"#utility.yul\":179:215   */\n      mstore\n        /* \"#utility.yul\":106:221   */\n      pop\n      pop\n      jump\t// out\n        /* \"#utility.yul\":227:445   */\n    tag_9:\n        /* \"#utility.yul\":318:322   */\n      0x00\n        /* \"#utility.yul\":356:358   */\n      0x20\n        /* \"#utility.yul\":345:354   */\n      dup3\n        /* \"#utility.yul\":341:359   */\n      add\n        /* \"#utility.yul\":333:359   */\n      swap1\n      pop\n        /* \"#utility.yul\":369:438   */\n      tag_29\n        /* \"#utility.yul\":435:436   */\n      0x00\n        /* \"#utility.yul\":424:433   */\n      dup4\n        /* \"#utility.yul\":420:437   */\n      add\n        /* \"#utility.yul\":411:417   */\n      dup5\n        /* \"#utility.yul\":369:438   */\n      tag_19\n      jump\t// in\n    tag_29:\n        /* \"#utility.yul\":227:445   */\n      swap3\n      swap2\n      pop\n      pop\n      jump\t// out\n        /* \"#utility.yul\":451:537   */\n    tag_20:\n        /* \"#utility.yul\":486:493   */\n      0x00\n        /* \"#utility.yul\":526:530   */\n      0xff\n        /* \"#utility.yul\":519:524   */\n      dup3\n        /* \"#utility.yul\":515:531   */\n      and\n        /* \"#utility.yul\":504:531   */\n      swap1\n      pop\n        /* \"#utility.yul\":451:537   */\n      swap2\n      swap1\n      pop\n      jump\t// out\n        /* \"#utility.yul\":543:655   */\n    tag_21:\n        /* \"#utility.yul\":626:648   */\n      tag_32\n        /* \"#utility.yul\":642:647   */\n      dup2\n        /* \"#utility.yul\":626:648   */\n      tag_20\n      jump\t// in\n    tag_32:\n        /* \"#utility.yul\":621:624   */\n      dup3\n        /* \"#utility.yul\":614:649   */\n      mstore\n        /* \"#utility.yul\":543:655   */\n      pop\n      pop\n      jump\t// out\n        /* \"#utility.yul\":661:875   */\n    tag_13:\n        /* \"#utility.yul\":750:754   */\n      0x00\n        /* \"#utility.yul\":788:790   */\n      0x20\n        /* \"#utility.yul\":777:786   */\n      dup3\n        /* \"#utility.yul\":773:791   */\n      add\n        /* \"#utility.yul\":765:791   */\n      swap1\n      pop\n        /* \"#utility.yul\":801:868   */\n      tag_34\n        /* \"#utility.yul\":865:866   */\n      0x00\n        /* \"#utility.yul\":854:863   */\n      dup4\n        /* \"#utility.yul\":850:867   */\n      add\n        /* \"#utility.yul\":841:847   */\n      dup5\n        /* \"#utility.yul\":801:868   */\n      tag_21\n      jump\t// in\n    tag_34:\n        /* \"#utility.yul\":661:875   */\n      swap3\n      swap2\n      pop\n      pop\n      jump\t// out\n        /* \"#utility.yul\":881:970   */\n    tag_22:\n        /* \"#utility.yul\":917:924   */\n      0x00\n        /* \"#utility.yul\":957:963   */\n      0xffff\n        /* \"#utility.yul\":950:955   */\n      dup3\n        /* \"#utility.yul\":946:964   */\n      and\n        /* \"#utility.yul\":935:964   */\n      swap1\n      pop\n        /* \"#utility.yul\":881:970   */\n      swap2\n      swap1\n      pop\n      jump\t// out\n        /* \"#utility.yul\":976:1091   */\n    tag_23:\n        /* \"#utility.yul\":1061:1084   */\n      tag_37\n        /* \"#utility.yul\":1078:1083   */\n      dup2\n        /* \"#utility.yul\":1061:1084   */\n      tag_22\n      jump\t// in\n    tag_37:\n        /* \"#utility.yul\":1056:1059   */\n      dup3\n        /* \"#utility.yul\":1049:1085   */\n      mstore\n        /* \"#utility.yul\":976:1091   */\n      pop\n      pop\n      jump\t// out\n        /* \"#utility.yul\":1097:1315   */\n    tag_17:\n        /* \"#utility.yul\":1188:1192   */\n      0x00\n        /* \"#utility.yul\":1226:1228   */\n      0x20\n        /* \"#utility.yul\":1215:1224   */\n      dup3\n        /* \"#utility.yul\":1211:1229   */\n      add\n        /* \"#utility.yul\":1203:1229   */\n      swap1\n      pop\n        /* \"#utility.yul\":1239:1308   */\n      tag_39\n        /* \"#utility.yul\":1305:1306   */\n      0x00\n        /* \"#utility.yul\":1294:1303   */\n      dup4\n        /* \"#utility.yul\":1290:1307   */\n      add\n        /* \"#utility.yul\":1281:1287   */\n      dup5\n        /* \"#utility.yul\":1239:1308   */\n      tag_23\n      jump\t// in\n    tag_39:\n        /* \"#utility.yul\":1097:1315   */\n      swap3\n      swap2\n      pop\n      pop\n      jump\t// out\n\n    auxdata: 0xa26469706673582212204ff4bac57109d43e0d1726c54c65df6f83f9ed4259f13d1b97710332d4aeeec864736f6c63430008110033\n}\n",
				"bytecode": {
					"linkReferences": {},
					"object": "608060405260ff6000806101000a81548160ff021916908360ff16021790555060ff600060016101000a81548161ffff021916908361ffff160217905550600060019054906101000a900461ffff1660008054906101000a900460ff1660ff1661006991906100dc565b61ffff16600060036101000a81548163ffffffff021916908363ffffffff16021790555034801561009957600080fd5b50610112565b600061ffff82169050919050565b7f4e487b7100000000000000000000000000000000000000000000000000000000600052601160045260246000fd5b60006100e78261009f565b91506100f28361009f565b9250828201905061ffff81111561010c5761010b6100ad565b5b92915050565b6101ba806101216000396000f3fe608060405234801561001057600080fd5b50600436106100415760003560e01c8063520ed411146100465780636ad847ff14610064578063f1d744db14610082575b600080fd5b61004e6100a0565b60405161005b91906100fa565b60405180910390f35b61006c6100b6565b6040516100799190610131565b60405180910390f35b61008a6100c7565b6040516100979190610169565b60405180910390f35b600060039054906101000a900463ffffffff1681565b60008054906101000a900460ff1681565b600060019054906101000a900461ffff1681565b600063ffffffff82169050919050565b6100f4816100db565b82525050565b600060208201905061010f60008301846100eb565b92915050565b600060ff82169050919050565b61012b81610115565b82525050565b60006020820190506101466000830184610122565b92915050565b600061ffff82169050919050565b6101638161014c565b82525050565b600060208201905061017e600083018461015a565b9291505056fea26469706673582212204ff4bac57109d43e0d1726c54c65df6f83f9ed4259f13d1b97710332d4aeeec864736f6c63430008110033",
					"opcodes": "PUSH1 0x80 PUSH1 0x40 MSTORE PUSH1 0xFF PUSH1 0x0 DUP1 PUSH2 0x100 EXP DUP2 SLOAD DUP2 PUSH1 0xFF MUL NOT AND SWAP1 DUP4 PUSH1 0xFF AND MUL OR SWAP1 SSTORE POP PUSH1 0xFF PUSH1 0x0 PUSH1 0x1 PUSH2 0x100 EXP DUP2 SLOAD DUP2 PUSH2 0xFFFF MUL NOT AND SWAP1 DUP4 PUSH2 0xFFFF AND MUL OR SWAP1 SSTORE POP PUSH1 0x0 PUSH1 0x1 SWAP1 SLOAD SWAP1 PUSH2 0x100 EXP SWAP1 DIV PUSH2 0xFFFF AND PUSH1 0x0 DUP1 SLOAD SWAP1 PUSH2 0x100 EXP SWAP1 DIV PUSH1 0xFF AND PUSH1 0xFF AND PUSH2 0x69 SWAP2 SWAP1 PUSH2 0xDC JUMP JUMPDEST PUSH2 0xFFFF AND PUSH1 0x0 PUSH1 0x3 PUSH2 0x100 EXP DUP2 SLOAD DUP2 PUSH4 0xFFFFFFFF MUL NOT AND SWAP1 DUP4 PUSH4 0xFFFFFFFF AND MUL OR SWAP1 SSTORE POP CALLVALUE DUP1 ISZERO PUSH2 0x99 JUMPI PUSH1 0x0 DUP1 REVERT JUMPDEST POP PUSH2 0x112 JUMP JUMPDEST PUSH1 0x0 PUSH2 0xFFFF DUP3 AND SWAP1 POP SWAP2 SWAP1 POP JUMP JUMPDEST PUSH32 0x4E487B7100000000000000000000000000000000000000000000000000000000 PUSH1 0x0 MSTORE PUSH1 0x11 PUSH1 0x4 MSTORE PUSH1 0x24 PUSH1 0x0 REVERT JUMPDEST PUSH1 0x0 PUSH2 0xE7 DUP3 PUSH2 0x9F JUMP JUMPDEST SWAP2 POP PUSH2 0xF2 DUP4 PUSH2 0x9F JUMP JUMPDEST SWAP3 POP DUP3 DUP3 ADD SWAP1 POP PUSH2 0xFFFF DUP2 GT ISZERO PUSH2 0x10C JUMPI PUSH2 0x10B PUSH2 0xAD JUMP JUMPDEST JUMPDEST SWAP3 SWAP2 POP POP JUMP JUMPDEST PUSH2 0x1BA DUP1 PUSH2 0x121 PUSH1 0x0 CODECOPY PUSH1 0x0 RETURN INVALID PUSH1 0x80 PUSH1 0x40 MSTORE CALLVALUE DUP1 ISZERO PUSH2 0x10 JUMPI PUSH1 0x0 DUP1 REVERT JUMPDEST POP PUSH1 0x4 CALLDATASIZE LT PUSH2 0x41 JUMPI PUSH1 0x0 CALLDATALOAD PUSH1 0xE0 SHR DUP1 PUSH4 0x520ED411 EQ PUSH2 0x46 JUMPI DUP1 PUSH4 0x6AD847FF EQ PUSH2 0x64 JUMPI DUP1 PUSH4 0xF1D744DB EQ PUSH2 0x82 JUMPI JUMPDEST PUSH1 0x0 DUP1 REVERT JUMPDEST PUSH2 0x4E PUSH2 0xA0 JUMP JUMPDEST PUSH1 0x40 MLOAD PUSH2 0x5B SWAP2 SWAP1 PUSH2 0xFA JUMP JUMPDEST PUSH1 0x40 MLOAD DUP1 SWAP2 SUB SWAP1 RETURN JUMPDEST PUSH2 0x6C PUSH2 0xB6 JUMP JUMPDEST PUSH1 0x40 MLOAD PUSH2 0x79 SWAP2 SWAP1 PUSH2 0x131 JUMP JUMPDEST PUSH1 0x40 MLOAD DUP1 SWAP2 SUB SWAP1 RETURN JUMPDEST PUSH2 0x8A PUSH2 0xC7 JUMP JUMPDEST PUSH1 0x40 MLOAD PUSH2 0x97 SWAP2 SWAP1 PUSH2 0x169 JUMP JUMPDEST PUSH1 0x40 MLOAD DUP1 SWAP2 SUB SWAP1 RETURN JUMPDEST PUSH1 0x0 PUSH1 0x3 SWAP1 SLOAD SWAP1 PUSH2 0x100 EXP SWAP1 DIV PUSH4 0xFFFFFFFF AND DUP2 JUMP JUMPDEST PUSH1 0x0 DUP1 SLOAD SWAP1 PUSH2 0x100 EXP SWAP1 DIV PUSH1 0xFF AND DUP2 JUMP JUMPDEST PUSH1 0x0 PUSH1 0x1 SWAP1 SLOAD SWAP1 PUSH2 0x100 EXP SWAP1 DIV PUSH2 0xFFFF AND DUP2 JUMP JUMPDEST PUSH1 0x0 PUSH4 0xFFFFFFFF DUP3 AND SWAP1 POP SWAP2 SWAP1 POP JUMP JUMPDEST PUSH2 0xF4 DUP2 PUSH2 0xDB JUMP JUMPDEST DUP3 MSTORE POP POP JUMP JUMPDEST PUSH1 0x0 PUSH1 0x20 DUP3 ADD SWAP1 POP PUSH2 0x10F PUSH1 0x0 DUP4 ADD DUP5 PUSH2 0xEB JUMP JUMPDEST SWAP3 SWAP2 POP POP JUMP JUMPDEST PUSH1 0x0 PUSH1 0xFF DUP3 AND SWAP1 POP SWAP2 SWAP1 POP JUMP JUMPDEST PUSH2 0x12B DUP2 PUSH2 0x115 JUMP JUMPDEST DUP3 MSTORE POP POP JUMP JUMPDEST PUSH1 0x0 PUSH1 0x20 DUP3 ADD SWAP1 POP PUSH2 0x146 PUSH1 0x0 DUP4 ADD DUP5 PUSH2 0x122 JUMP JUMPDEST SWAP3 SWAP2 POP POP JUMP JUMPDEST PUSH1 0x0 PUSH2 0xFFFF DUP3 AND SWAP1 POP SWAP2 SWAP1 POP JUMP JUMPDEST PUSH2 0x163 DUP2 PUSH2 0x14C JUMP JUMPDEST DUP3 MSTORE POP POP JUMP JUMPDEST PUSH1 0x0 PUSH1 0x20 DUP3 ADD SWAP1 POP PUSH2 0x17E PUSH1 0x0 DUP4 ADD DUP5 PUSH2 0x15A JUMP JUMPDEST SWAP3 SWAP2 POP POP JUMP INVALID LOG2 PUSH5 0x6970667358 0x22 SLT KECCAK256 0x4F DELEGATECALL 0xBA 0xC5 PUSH18 0x9D43E0D1726C54C65DF6F83F9ED4259F13D SHL SWAP8 PUSH18 0x332D4AEEEC864736F6C6343000811003300 "
				},
				"gasEstimates": {
					"creation": {
						"codeDepositCost": "88400",
						"executionCost": "infinite",
						"totalCost": "infinite"
					},
					"external": {
						"a16()": "2543",
						"a32()": "2499",
						"a8()": "2468"
					}
				},
				"methodIdentifiers": {
					"a16()": "f1d744db",
					"a32()": "520ed411",
					"a8()": "6ad847ff"
				}
			},
			"storageLayout": {
				"storage": [
					{
						"astId": 5,
						"contract": "基本数据类型间的隐式转换.sol:HelloWorld",
						"label": "a8",
						"offset": 0,
						"slot": "0",
						"type": "t_uint8"
					},
					{
						"astId": 8,
						"contract": "基本数据类型间的隐式转换.sol:HelloWorld",
						"label": "a16",
						"offset": 1,
						"slot": "0",
						"type": "t_uint16"
					},
					{
						"astId": 13,
						"contract": "基本数据类型间的隐式转换.sol:HelloWorld",
						"label": "a32",
						"offset": 3,
						"slot": "0",
						"type": "t_uint32"
					}
				],
				"types": {
					"t_uint16": {
						"encoding": "inplace",
						"label": "uint16",
						"numberOfBytes": "2"
					},
					"t_uint32": {
						"encoding": "inplace",
						"label": "uint32",
						"numberOfBytes": "4"
					},
					"t_uint8": {
						"encoding": "inplace",
						"label": "uint8",
						"numberOfBytes": "1"
					}
				}
			},
			"userdoc": {
				"kind": "user",
				"methods": {
					"a8()": {
						"notice": "隐式转换发生在 赋值, 传参, 使用运算符 通常情况下, 如果不会发生信息的丢失, 都可以进行隐式类型转换 - uint之间可以从低精度转换为高精度 - int之间可以从低精度转换为高精度"
					}
				},
				"version": 1
			}
		}
	}
}