{
	"_11_数据类型_值类型_地址类型.sol": {
		"HelloWorld": {
			"abi": [
				{
					"inputs": [],
					"name": "addr1",
					"outputs": [
						{
							"internalType": "address",
							"name": "",
							"type": "address"
						}
					],
					"stateMutability": "view",
					"type": "function"
				},
				{
					"inputs": [],
					"name": "addr3",
					"outputs": [
						{
							"internalType": "address",
							"name": "",
							"type": "address"
						}
					],
					"stateMutability": "view",
					"type": "function"
				},
				{
					"inputs": [],
					"name": "addr4",
					"outputs": [
						{
							"internalType": "address",
							"name": "",
							"type": "address"
						}
					],
					"stateMutability": "view",
					"type": "function"
				},
				{
					"inputs": [],
					"name": "addr5",
					"outputs": [
						{
							"internalType": "address",
							"name": "",
							"type": "address"
						}
					],
					"stateMutability": "view",
					"type": "function"
				},
				{
					"inputs": [],
					"name": "addr6",
					"outputs": [
						{
							"internalType": "address",
							"name": "",
							"type": "address"
						}
					],
					"stateMutability": "view",
					"type": "function"
				},
				{
					"inputs": [],
					"name": "addrPayable",
					"outputs": [
						{
							"internalType": "address payable",
							"name": "",
							"type": "address"
						}
					],
					"stateMutability": "view",
					"type": "function"
				},
				{
					"inputs": [],
					"name": "b20",
					"outputs": [
						{
							"internalType": "bytes20",
							"name": "",
							"type": "bytes20"
						}
					],
					"stateMutability": "view",
					"type": "function"
				},
				{
					"inputs": [],
					"name": "b32",
					"outputs": [
						{
							"internalType": "bytes32",
							"name": "",
							"type": "bytes32"
						}
					],
					"stateMutability": "view",
					"type": "function"
				},
				{
					"inputs": [],
					"name": "getBalance",
					"outputs": [
						{
							"internalType": "uint256",
							"name": "",
							"type": "uint256"
						}
					],
					"stateMutability": "view",
					"type": "function"
				},
				{
					"inputs": [],
					"name": "u160",
					"outputs": [
						{
							"internalType": "uint160",
							"name": "",
							"type": "uint160"
						}
					],
					"stateMutability": "view",
					"type": "function"
				},
				{
					"stateMutability": "payable",
					"type": "receive"
				}
			],
			"devdoc": {
				"kind": "dev",
				"methods": {},
				"version": 1
			},
			"evm": {
				"assembly": "    /* \"_11_\\xe6\\x95\\xb0\\xe6\\x8d\\xae\\xe7\\xb1\\xbb\\xe5\\x9e\\x8b_\\xe5\\x80\\xbc\\xe7\\xb1\\xbb\\xe5\\x9e\\x8b_\\xe5\\x9c\\xb0\\xe5\\x9d\\x80\\xe7\\xb1\\xbb\\xe5\\x9e\\x8b.sol\":66:2573  contract HelloWorld {... */\n  mstore(0x40, 0x80)\n    /* \"_11_\\xe6\\x95\\xb0\\xe6\\x8d\\xae\\xe7\\xb1\\xbb\\xe5\\x9e\\x8b_\\xe5\\x80\\xbc\\xe7\\xb1\\xbb\\xe5\\x9e\\x8b_\\xe5\\x9c\\xb0\\xe5\\x9d\\x80\\xe7\\xb1\\xbb\\xe5\\x9e\\x8b.sol\":879:921  0xdCad3a6d3569DF655070DEd06cb7A1b2Ccd1D3AF */\n  0xdcad3a6d3569df655070ded06cb7a1b2ccd1d3af\n    /* \"_11_\\xe6\\x95\\xb0\\xe6\\x8d\\xae\\xe7\\xb1\\xbb\\xe5\\x9e\\x8b_\\xe5\\x80\\xbc\\xe7\\xb1\\xbb\\xe5\\x9e\\x8b_\\xe5\\x9c\\xb0\\xe5\\x9d\\x80\\xe7\\xb1\\xbb\\xe5\\x9e\\x8b.sol\":856:921  address public addr1 = 0xdCad3a6d3569DF655070DEd06cb7A1b2Ccd1D3AF */\n  0x00\n  dup1\n  0x0100\n  exp\n  dup2\n  sload\n  dup2\n  0xffffffffffffffffffffffffffffffffffffffff\n  mul\n  not\n  and\n  swap1\n  dup4\n  0xffffffffffffffffffffffffffffffffffffffff\n  and\n  mul\n  or\n  swap1\n  sstore\n  pop\n    /* \"_11_\\xe6\\x95\\xb0\\xe6\\x8d\\xae\\xe7\\xb1\\xbb\\xe5\\x9e\\x8b_\\xe5\\x80\\xbc\\xe7\\xb1\\xbb\\xe5\\x9e\\x8b_\\xe5\\x9c\\xb0\\xe5\\x9d\\x80\\xe7\\xb1\\xbb\\xe5\\x9e\\x8b.sol\":982:1024  0xdCad3a6d3569DF655070DEd06cb7A1b2Ccd1D3AF */\n  0xdcad3a6d3569df655070ded06cb7a1b2ccd1d3af\n    /* \"_11_\\xe6\\x95\\xb0\\xe6\\x8d\\xae\\xe7\\xb1\\xbb\\xe5\\x9e\\x8b_\\xe5\\x80\\xbc\\xe7\\xb1\\xbb\\xe5\\x9e\\x8b_\\xe5\\x9c\\xb0\\xe5\\x9d\\x80\\xe7\\xb1\\xbb\\xe5\\x9e\\x8b.sol\":928:1025  address payable public addrPayable =... */\n  0x01\n  exp(0x0100, 0x00)\n  dup2\n  sload\n  dup2\n  0xffffffffffffffffffffffffffffffffffffffff\n  mul\n  not\n  and\n  swap1\n  dup4\n  0xffffffffffffffffffffffffffffffffffffffff\n  and\n  mul\n  or\n  swap1\n  sstore\n  pop\n    /* \"_11_\\xe6\\x95\\xb0\\xe6\\x8d\\xae\\xe7\\xb1\\xbb\\xe5\\x9e\\x8b_\\xe5\\x80\\xbc\\xe7\\xb1\\xbb\\xe5\\x9e\\x8b_\\xe5\\x9c\\xb0\\xe5\\x9d\\x80\\xe7\\xb1\\xbb\\xe5\\x9e\\x8b.sol\":1136:1147  addrPayable */\n  0x01\n  0x00\n  swap1\n  sload\n  swap1\n  0x0100\n  exp\n  swap1\n  div\n  0xffffffffffffffffffffffffffffffffffffffff\n  and\n    /* \"_11_\\xe6\\x95\\xb0\\xe6\\x8d\\xae\\xe7\\xb1\\xbb\\xe5\\x9e\\x8b_\\xe5\\x80\\xbc\\xe7\\xb1\\xbb\\xe5\\x9e\\x8b_\\xe5\\x9c\\xb0\\xe5\\x9d\\x80\\xe7\\xb1\\xbb\\xe5\\x9e\\x8b.sol\":1120:1147  address addr2 = addrPayable */\n  0x02\n  exp(0x0100, 0x00)\n  dup2\n  sload\n  dup2\n  0xffffffffffffffffffffffffffffffffffffffff\n  mul\n  not\n  and\n  swap1\n  dup4\n  0xffffffffffffffffffffffffffffffffffffffff\n  and\n  mul\n  or\n  swap1\n  sstore\n  pop\n    /* \"_11_\\xe6\\x95\\xb0\\xe6\\x8d\\xae\\xe7\\xb1\\xbb\\xe5\\x9e\\x8b_\\xe5\\x80\\xbc\\xe7\\xb1\\xbb\\xe5\\x9e\\x8b_\\xe5\\x9c\\xb0\\xe5\\x9d\\x80\\xe7\\xb1\\xbb\\xe5\\x9e\\x8b.sol\":1235:1240  addr1 */\n  0x00\n  dup1\n  sload\n  swap1\n  0x0100\n  exp\n  swap1\n  div\n  0xffffffffffffffffffffffffffffffffffffffff\n  and\n    /* \"_11_\\xe6\\x95\\xb0\\xe6\\x8d\\xae\\xe7\\xb1\\xbb\\xe5\\x9e\\x8b_\\xe5\\x80\\xbc\\xe7\\xb1\\xbb\\xe5\\x9e\\x8b_\\xe5\\x9c\\xb0\\xe5\\x9d\\x80\\xe7\\xb1\\xbb\\xe5\\x9e\\x8b.sol\":1227:1241  bytes20(addr1) */\n  0x60\n  shl\n    /* \"_11_\\xe6\\x95\\xb0\\xe6\\x8d\\xae\\xe7\\xb1\\xbb\\xe5\\x9e\\x8b_\\xe5\\x80\\xbc\\xe7\\xb1\\xbb\\xe5\\x9e\\x8b_\\xe5\\x9c\\xb0\\xe5\\x9d\\x80\\xe7\\xb1\\xbb\\xe5\\x9e\\x8b.sol\":1206:1241  bytes20 public b20 = bytes20(addr1) */\n  0x03\n  exp(0x0100, 0x00)\n  dup2\n  sload\n  dup2\n  0xffffffffffffffffffffffffffffffffffffffff\n  mul\n  not\n  and\n  swap1\n  dup4\n  0x60\n  shr\n  mul\n  or\n  swap1\n  sstore\n  pop\n    /* \"_11_\\xe6\\x95\\xb0\\xe6\\x8d\\xae\\xe7\\xb1\\xbb\\xe5\\x9e\\x8b_\\xe5\\x80\\xbc\\xe7\\xb1\\xbb\\xe5\\x9e\\x8b_\\xe5\\x9c\\xb0\\xe5\\x9d\\x80\\xe7\\xb1\\xbb\\xe5\\x9e\\x8b.sol\":1301:1304  b20 */\n  0x03\n  0x00\n  swap1\n  sload\n  swap1\n  0x0100\n  exp\n  swap1\n  div\n  0x60\n  shl\n    /* \"_11_\\xe6\\x95\\xb0\\xe6\\x8d\\xae\\xe7\\xb1\\xbb\\xe5\\x9e\\x8b_\\xe5\\x80\\xbc\\xe7\\xb1\\xbb\\xe5\\x9e\\x8b_\\xe5\\x9c\\xb0\\xe5\\x9d\\x80\\xe7\\xb1\\xbb\\xe5\\x9e\\x8b.sol\":1293:1305  address(b20) */\n  0x60\n  shr\n    /* \"_11_\\xe6\\x95\\xb0\\xe6\\x8d\\xae\\xe7\\xb1\\xbb\\xe5\\x9e\\x8b_\\xe5\\x80\\xbc\\xe7\\xb1\\xbb\\xe5\\x9e\\x8b_\\xe5\\x9c\\xb0\\xe5\\x9d\\x80\\xe7\\xb1\\xbb\\xe5\\x9e\\x8b.sol\":1270:1305  address public addr3 = address(b20) */\n  0x04\n  exp(0x0100, 0x00)\n  dup2\n  sload\n  dup2\n  0xffffffffffffffffffffffffffffffffffffffff\n  mul\n  not\n  and\n  swap1\n  dup4\n  0xffffffffffffffffffffffffffffffffffffffff\n  and\n  mul\n  or\n  swap1\n  sstore\n  pop\n    /* \"_11_\\xe6\\x95\\xb0\\xe6\\x8d\\xae\\xe7\\xb1\\xbb\\xe5\\x9e\\x8b_\\xe5\\x80\\xbc\\xe7\\xb1\\xbb\\xe5\\x9e\\x8b_\\xe5\\x9c\\xb0\\xe5\\x9d\\x80\\xe7\\xb1\\xbb\\xe5\\x9e\\x8b.sol\":1367:1372  addr1 */\n  0x00\n  dup1\n  sload\n  swap1\n  0x0100\n  exp\n  swap1\n  div\n  0xffffffffffffffffffffffffffffffffffffffff\n  and\n    /* \"_11_\\xe6\\x95\\xb0\\xe6\\x8d\\xae\\xe7\\xb1\\xbb\\xe5\\x9e\\x8b_\\xe5\\x80\\xbc\\xe7\\xb1\\xbb\\xe5\\x9e\\x8b_\\xe5\\x9c\\xb0\\xe5\\x9d\\x80\\xe7\\xb1\\xbb\\xe5\\x9e\\x8b.sol\":1337:1373  uint160 public u160 = uint160(addr1) */\n  0x05\n  exp(0x0100, 0x00)\n  dup2\n  sload\n  dup2\n  0xffffffffffffffffffffffffffffffffffffffff\n  mul\n  not\n  and\n  swap1\n  dup4\n  0xffffffffffffffffffffffffffffffffffffffff\n  and\n  mul\n  or\n  swap1\n  sstore\n  pop\n    /* \"_11_\\xe6\\x95\\xb0\\xe6\\x8d\\xae\\xe7\\xb1\\xbb\\xe5\\x9e\\x8b_\\xe5\\x80\\xbc\\xe7\\xb1\\xbb\\xe5\\x9e\\x8b_\\xe5\\x9c\\xb0\\xe5\\x9d\\x80\\xe7\\xb1\\xbb\\xe5\\x9e\\x8b.sol\":1433:1437  u160 */\n  0x05\n  0x00\n  swap1\n  sload\n  swap1\n  0x0100\n  exp\n  swap1\n  div\n  0xffffffffffffffffffffffffffffffffffffffff\n  and\n    /* \"_11_\\xe6\\x95\\xb0\\xe6\\x8d\\xae\\xe7\\xb1\\xbb\\xe5\\x9e\\x8b_\\xe5\\x80\\xbc\\xe7\\xb1\\xbb\\xe5\\x9e\\x8b_\\xe5\\x9c\\xb0\\xe5\\x9d\\x80\\xe7\\xb1\\xbb\\xe5\\x9e\\x8b.sol\":1402:1438  address public addr4 = address(u160) */\n  0x06\n  exp(0x0100, 0x00)\n  dup2\n  sload\n  dup2\n  0xffffffffffffffffffffffffffffffffffffffff\n  mul\n  not\n  and\n  swap1\n  dup4\n  0xffffffffffffffffffffffffffffffffffffffff\n  and\n  mul\n  or\n  swap1\n  sstore\n  pop\n    /* \"_11_\\xe6\\x95\\xb0\\xe6\\x8d\\xae\\xe7\\xb1\\xbb\\xe5\\x9e\\x8b_\\xe5\\x80\\xbc\\xe7\\xb1\\xbb\\xe5\\x9e\\x8b_\\xe5\\x9c\\xb0\\xe5\\x9d\\x80\\xe7\\xb1\\xbb\\xe5\\x9e\\x8b.sol\":1821:1887  0x111122223333444455556666777788889999AAAABBBBCCCCDDDDEEEEFFFFCCCC */\n  0x111122223333444455556666777788889999aaaabbbbccccddddeeeeffffcccc\n    /* \"_11_\\xe6\\x95\\xb0\\xe6\\x8d\\xae\\xe7\\xb1\\xbb\\xe5\\x9e\\x8b_\\xe5\\x80\\xbc\\xe7\\xb1\\xbb\\xe5\\x9e\\x8b_\\xe5\\x9c\\xb0\\xe5\\x9d\\x80\\xe7\\xb1\\xbb\\xe5\\x9e\\x8b.sol\":1799:1887  bytes32 public b32 =  0x111122223333444455556666777788889999AAAABBBBCCCCDDDDEEEEFFFFCCCC */\n  0x00\n  shl\n  0x07\n  sstore\n    /* \"_11_\\xe6\\x95\\xb0\\xe6\\x8d\\xae\\xe7\\xb1\\xbb\\xe5\\x9e\\x8b_\\xe5\\x80\\xbc\\xe7\\xb1\\xbb\\xe5\\x9e\\x8b_\\xe5\\x9c\\xb0\\xe5\\x9d\\x80\\xe7\\xb1\\xbb\\xe5\\x9e\\x8b.sol\":1933:1936  b32 */\n  sload(0x07)\n    /* \"_11_\\xe6\\x95\\xb0\\xe6\\x8d\\xae\\xe7\\xb1\\xbb\\xe5\\x9e\\x8b_\\xe5\\x80\\xbc\\xe7\\xb1\\xbb\\xe5\\x9e\\x8b_\\xe5\\x9c\\xb0\\xe5\\x9d\\x80\\xe7\\xb1\\xbb\\xe5\\x9e\\x8b.sol\":1917:1938  address(bytes20(b32)) */\n  0x60\n  shr\n    /* \"_11_\\xe6\\x95\\xb0\\xe6\\x8d\\xae\\xe7\\xb1\\xbb\\xe5\\x9e\\x8b_\\xe5\\x80\\xbc\\xe7\\xb1\\xbb\\xe5\\x9e\\x8b_\\xe5\\x9c\\xb0\\xe5\\x9d\\x80\\xe7\\xb1\\xbb\\xe5\\x9e\\x8b.sol\":1894:1938  address public addr5 = address(bytes20(b32)) */\n  0x08\n  exp(0x0100, 0x00)\n  dup2\n  sload\n  dup2\n  0xffffffffffffffffffffffffffffffffffffffff\n  mul\n  not\n  and\n  swap1\n  dup4\n  0xffffffffffffffffffffffffffffffffffffffff\n  and\n  mul\n  or\n  swap1\n  sstore\n  pop\n    /* \"_11_\\xe6\\x95\\xb0\\xe6\\x8d\\xae\\xe7\\xb1\\xbb\\xe5\\x9e\\x8b_\\xe5\\x80\\xbc\\xe7\\xb1\\xbb\\xe5\\x9e\\x8b_\\xe5\\x9c\\xb0\\xe5\\x9d\\x80\\xe7\\xb1\\xbb\\xe5\\x9e\\x8b.sol\":2052:2055  b32 */\n  sload(0x07)\n    /* \"_11_\\xe6\\x95\\xb0\\xe6\\x8d\\xae\\xe7\\xb1\\xbb\\xe5\\x9e\\x8b_\\xe5\\x80\\xbc\\xe7\\xb1\\xbb\\xe5\\x9e\\x8b_\\xe5\\x9c\\xb0\\xe5\\x9d\\x80\\xe7\\xb1\\xbb\\xe5\\x9e\\x8b.sol\":2044:2056  uint256(b32) */\n  0x00\n  shr\n    /* \"_11_\\xe6\\x95\\xb0\\xe6\\x8d\\xae\\xe7\\xb1\\xbb\\xe5\\x9e\\x8b_\\xe5\\x80\\xbc\\xe7\\xb1\\xbb\\xe5\\x9e\\x8b_\\xe5\\x9c\\xb0\\xe5\\x9d\\x80\\xe7\\xb1\\xbb\\xe5\\x9e\\x8b.sol\":2005:2058  address public addr6 = address(uint160(uint256(b32))) */\n  0x09\n  exp(0x0100, 0x00)\n  dup2\n  sload\n  dup2\n  0xffffffffffffffffffffffffffffffffffffffff\n  mul\n  not\n  and\n  swap1\n  dup4\n  0xffffffffffffffffffffffffffffffffffffffff\n  and\n  mul\n  or\n  swap1\n  sstore\n  pop\n    /* \"_11_\\xe6\\x95\\xb0\\xe6\\x8d\\xae\\xe7\\xb1\\xbb\\xe5\\x9e\\x8b_\\xe5\\x80\\xbc\\xe7\\xb1\\xbb\\xe5\\x9e\\x8b_\\xe5\\x9c\\xb0\\xe5\\x9d\\x80\\xe7\\xb1\\xbb\\xe5\\x9e\\x8b.sol\":66:2573  contract HelloWorld {... */\n  callvalue\n  dup1\n  iszero\n  tag_1\n  jumpi\n  0x00\n  dup1\n  revert\ntag_1:\n  pop\n  dataSize(sub_0)\n  dup1\n  dataOffset(sub_0)\n  0x00\n  codecopy\n  0x00\n  return\nstop\n\nsub_0: assembly {\n        /* \"_11_\\xe6\\x95\\xb0\\xe6\\x8d\\xae\\xe7\\xb1\\xbb\\xe5\\x9e\\x8b_\\xe5\\x80\\xbc\\xe7\\xb1\\xbb\\xe5\\x9e\\x8b_\\xe5\\x9c\\xb0\\xe5\\x9d\\x80\\xe7\\xb1\\xbb\\xe5\\x9e\\x8b.sol\":66:2573  contract HelloWorld {... */\n      mstore(0x40, 0x80)\n      jumpi(tag_1, lt(calldatasize, 0x04))\n      shr(0xe0, calldataload(0x00))\n      dup1\n      0xc3ffc4d2\n      gt\n      tag_13\n      jumpi\n      dup1\n      0xc3ffc4d2\n      eq\n      tag_8\n      jumpi\n      dup1\n      0xeabe09ad\n      eq\n      tag_9\n      jumpi\n      dup1\n      0xeaca4853\n      eq\n      tag_10\n      jumpi\n      dup1\n      0xf8aab238\n      eq\n      tag_11\n      jumpi\n      dup1\n      0xfd7808f6\n      eq\n      tag_12\n      jumpi\n      jump(tag_2)\n    tag_13:\n      dup1\n      0x12065fe0\n      eq\n      tag_3\n      jumpi\n      dup1\n      0x29f7c57c\n      eq\n      tag_4\n      jumpi\n      dup1\n      0x4ae53b58\n      eq\n      tag_5\n      jumpi\n      dup1\n      0x527116d5\n      eq\n      tag_6\n      jumpi\n      dup1\n      0x9347e6d7\n      eq\n      tag_7\n      jumpi\n      jump(tag_2)\n    tag_1:\n      jumpi(tag_2, calldatasize)\n      stop\n    tag_2:\n      0x00\n      dup1\n      revert\n        /* \"_11_\\xe6\\x95\\xb0\\xe6\\x8d\\xae\\xe7\\xb1\\xbb\\xe5\\x9e\\x8b_\\xe5\\x80\\xbc\\xe7\\xb1\\xbb\\xe5\\x9e\\x8b_\\xe5\\x9c\\xb0\\xe5\\x9d\\x80\\xe7\\xb1\\xbb\\xe5\\x9e\\x8b.sol\":2422:2523  function getBalance() external view returns (uint256) {... */\n    tag_3:\n      callvalue\n      dup1\n      iszero\n      tag_16\n      jumpi\n      0x00\n      dup1\n      revert\n    tag_16:\n      pop\n      tag_17\n      tag_18\n      jump\t// in\n    tag_17:\n      mload(0x40)\n      tag_19\n      swap2\n      swap1\n      tag_20\n      jump\t// in\n    tag_19:\n      mload(0x40)\n      dup1\n      swap2\n      sub\n      swap1\n      return\n        /* \"_11_\\xe6\\x95\\xb0\\xe6\\x8d\\xae\\xe7\\xb1\\xbb\\xe5\\x9e\\x8b_\\xe5\\x80\\xbc\\xe7\\xb1\\xbb\\xe5\\x9e\\x8b_\\xe5\\x9c\\xb0\\xe5\\x9d\\x80\\xe7\\xb1\\xbb\\xe5\\x9e\\x8b.sol\":928:1025  address payable public addrPayable =... */\n    tag_4:\n      callvalue\n      dup1\n      iszero\n      tag_21\n      jumpi\n      0x00\n      dup1\n      revert\n    tag_21:\n      pop\n      tag_22\n      tag_23\n      jump\t// in\n    tag_22:\n      mload(0x40)\n      tag_24\n      swap2\n      swap1\n      tag_25\n      jump\t// in\n    tag_24:\n      mload(0x40)\n      dup1\n      swap2\n      sub\n      swap1\n      return\n        /* \"_11_\\xe6\\x95\\xb0\\xe6\\x8d\\xae\\xe7\\xb1\\xbb\\xe5\\x9e\\x8b_\\xe5\\x80\\xbc\\xe7\\xb1\\xbb\\xe5\\x9e\\x8b_\\xe5\\x9c\\xb0\\xe5\\x9d\\x80\\xe7\\xb1\\xbb\\xe5\\x9e\\x8b.sol\":1206:1241  bytes20 public b20 = bytes20(addr1) */\n    tag_5:\n      callvalue\n      dup1\n      iszero\n      tag_26\n      jumpi\n      0x00\n      dup1\n      revert\n    tag_26:\n      pop\n      tag_27\n      tag_28\n      jump\t// in\n    tag_27:\n      mload(0x40)\n      tag_29\n      swap2\n      swap1\n      tag_30\n      jump\t// in\n    tag_29:\n      mload(0x40)\n      dup1\n      swap2\n      sub\n      swap1\n      return\n        /* \"_11_\\xe6\\x95\\xb0\\xe6\\x8d\\xae\\xe7\\xb1\\xbb\\xe5\\x9e\\x8b_\\xe5\\x80\\xbc\\xe7\\xb1\\xbb\\xe5\\x9e\\x8b_\\xe5\\x9c\\xb0\\xe5\\x9d\\x80\\xe7\\xb1\\xbb\\xe5\\x9e\\x8b.sol\":2005:2058  address public addr6 = address(uint160(uint256(b32))) */\n    tag_6:\n      callvalue\n      dup1\n      iszero\n      tag_31\n      jumpi\n      0x00\n      dup1\n      revert\n    tag_31:\n      pop\n      tag_32\n      tag_33\n      jump\t// in\n    tag_32:\n      mload(0x40)\n      tag_34\n      swap2\n      swap1\n      tag_35\n      jump\t// in\n    tag_34:\n      mload(0x40)\n      dup1\n      swap2\n      sub\n      swap1\n      return\n        /* \"_11_\\xe6\\x95\\xb0\\xe6\\x8d\\xae\\xe7\\xb1\\xbb\\xe5\\x9e\\x8b_\\xe5\\x80\\xbc\\xe7\\xb1\\xbb\\xe5\\x9e\\x8b_\\xe5\\x9c\\xb0\\xe5\\x9d\\x80\\xe7\\xb1\\xbb\\xe5\\x9e\\x8b.sol\":1270:1305  address public addr3 = address(b20) */\n    tag_7:\n      callvalue\n      dup1\n      iszero\n      tag_36\n      jumpi\n      0x00\n      dup1\n      revert\n    tag_36:\n      pop\n      tag_37\n      tag_38\n      jump\t// in\n    tag_37:\n      mload(0x40)\n      tag_39\n      swap2\n      swap1\n      tag_35\n      jump\t// in\n    tag_39:\n      mload(0x40)\n      dup1\n      swap2\n      sub\n      swap1\n      return\n        /* \"_11_\\xe6\\x95\\xb0\\xe6\\x8d\\xae\\xe7\\xb1\\xbb\\xe5\\x9e\\x8b_\\xe5\\x80\\xbc\\xe7\\xb1\\xbb\\xe5\\x9e\\x8b_\\xe5\\x9c\\xb0\\xe5\\x9d\\x80\\xe7\\xb1\\xbb\\xe5\\x9e\\x8b.sol\":1894:1938  address public addr5 = address(bytes20(b32)) */\n    tag_8:\n      callvalue\n      dup1\n      iszero\n      tag_40\n      jumpi\n      0x00\n      dup1\n      revert\n    tag_40:\n      pop\n      tag_41\n      tag_42\n      jump\t// in\n    tag_41:\n      mload(0x40)\n      tag_43\n      swap2\n      swap1\n      tag_35\n      jump\t// in\n    tag_43:\n      mload(0x40)\n      dup1\n      swap2\n      sub\n      swap1\n      return\n        /* \"_11_\\xe6\\x95\\xb0\\xe6\\x8d\\xae\\xe7\\xb1\\xbb\\xe5\\x9e\\x8b_\\xe5\\x80\\xbc\\xe7\\xb1\\xbb\\xe5\\x9e\\x8b_\\xe5\\x9c\\xb0\\xe5\\x9d\\x80\\xe7\\xb1\\xbb\\xe5\\x9e\\x8b.sol\":856:921  address public addr1 = 0xdCad3a6d3569DF655070DEd06cb7A1b2Ccd1D3AF */\n    tag_9:\n      callvalue\n      dup1\n      iszero\n      tag_44\n      jumpi\n      0x00\n      dup1\n      revert\n    tag_44:\n      pop\n      tag_45\n      tag_46\n      jump\t// in\n    tag_45:\n      mload(0x40)\n      tag_47\n      swap2\n      swap1\n      tag_35\n      jump\t// in\n    tag_47:\n      mload(0x40)\n      dup1\n      swap2\n      sub\n      swap1\n      return\n        /* \"_11_\\xe6\\x95\\xb0\\xe6\\x8d\\xae\\xe7\\xb1\\xbb\\xe5\\x9e\\x8b_\\xe5\\x80\\xbc\\xe7\\xb1\\xbb\\xe5\\x9e\\x8b_\\xe5\\x9c\\xb0\\xe5\\x9d\\x80\\xe7\\xb1\\xbb\\xe5\\x9e\\x8b.sol\":1337:1373  uint160 public u160 = uint160(addr1) */\n    tag_10:\n      callvalue\n      dup1\n      iszero\n      tag_48\n      jumpi\n      0x00\n      dup1\n      revert\n    tag_48:\n      pop\n      tag_49\n      tag_50\n      jump\t// in\n    tag_49:\n      mload(0x40)\n      tag_51\n      swap2\n      swap1\n      tag_52\n      jump\t// in\n    tag_51:\n      mload(0x40)\n      dup1\n      swap2\n      sub\n      swap1\n      return\n        /* \"_11_\\xe6\\x95\\xb0\\xe6\\x8d\\xae\\xe7\\xb1\\xbb\\xe5\\x9e\\x8b_\\xe5\\x80\\xbc\\xe7\\xb1\\xbb\\xe5\\x9e\\x8b_\\xe5\\x9c\\xb0\\xe5\\x9d\\x80\\xe7\\xb1\\xbb\\xe5\\x9e\\x8b.sol\":1799:1887  bytes32 public b32 =  0x111122223333444455556666777788889999AAAABBBBCCCCDDDDEEEEFFFFCCCC */\n    tag_11:\n      callvalue\n      dup1\n      iszero\n      tag_53\n      jumpi\n      0x00\n      dup1\n      revert\n    tag_53:\n      pop\n      tag_54\n      tag_55\n      jump\t// in\n    tag_54:\n      mload(0x40)\n      tag_56\n      swap2\n      swap1\n      tag_57\n      jump\t// in\n    tag_56:\n      mload(0x40)\n      dup1\n      swap2\n      sub\n      swap1\n      return\n        /* \"_11_\\xe6\\x95\\xb0\\xe6\\x8d\\xae\\xe7\\xb1\\xbb\\xe5\\x9e\\x8b_\\xe5\\x80\\xbc\\xe7\\xb1\\xbb\\xe5\\x9e\\x8b_\\xe5\\x9c\\xb0\\xe5\\x9d\\x80\\xe7\\xb1\\xbb\\xe5\\x9e\\x8b.sol\":1402:1438  address public addr4 = address(u160) */\n    tag_12:\n      callvalue\n      dup1\n      iszero\n      tag_58\n      jumpi\n      0x00\n      dup1\n      revert\n    tag_58:\n      pop\n      tag_59\n      tag_60\n      jump\t// in\n    tag_59:\n      mload(0x40)\n      tag_61\n      swap2\n      swap1\n      tag_35\n      jump\t// in\n    tag_61:\n      mload(0x40)\n      dup1\n      swap2\n      sub\n      swap1\n      return\n        /* \"_11_\\xe6\\x95\\xb0\\xe6\\x8d\\xae\\xe7\\xb1\\xbb\\xe5\\x9e\\x8b_\\xe5\\x80\\xbc\\xe7\\xb1\\xbb\\xe5\\x9e\\x8b_\\xe5\\x9c\\xb0\\xe5\\x9d\\x80\\xe7\\xb1\\xbb\\xe5\\x9e\\x8b.sol\":2422:2523  function getBalance() external view returns (uint256) {... */\n    tag_18:\n        /* \"_11_\\xe6\\x95\\xb0\\xe6\\x8d\\xae\\xe7\\xb1\\xbb\\xe5\\x9e\\x8b_\\xe5\\x80\\xbc\\xe7\\xb1\\xbb\\xe5\\x9e\\x8b_\\xe5\\x9c\\xb0\\xe5\\x9d\\x80\\xe7\\xb1\\xbb\\xe5\\x9e\\x8b.sol\":2467:2474  uint256 */\n      0x00\n        /* \"_11_\\xe6\\x95\\xb0\\xe6\\x8d\\xae\\xe7\\xb1\\xbb\\xe5\\x9e\\x8b_\\xe5\\x80\\xbc\\xe7\\xb1\\xbb\\xe5\\x9e\\x8b_\\xe5\\x9c\\xb0\\xe5\\x9d\\x80\\xe7\\xb1\\xbb\\xe5\\x9e\\x8b.sol\":2494:2515  address(this).balance */\n      selfbalance\n        /* \"_11_\\xe6\\x95\\xb0\\xe6\\x8d\\xae\\xe7\\xb1\\xbb\\xe5\\x9e\\x8b_\\xe5\\x80\\xbc\\xe7\\xb1\\xbb\\xe5\\x9e\\x8b_\\xe5\\x9c\\xb0\\xe5\\x9d\\x80\\xe7\\xb1\\xbb\\xe5\\x9e\\x8b.sol\":2487:2515  return address(this).balance */\n      swap1\n      pop\n        /* \"_11_\\xe6\\x95\\xb0\\xe6\\x8d\\xae\\xe7\\xb1\\xbb\\xe5\\x9e\\x8b_\\xe5\\x80\\xbc\\xe7\\xb1\\xbb\\xe5\\x9e\\x8b_\\xe5\\x9c\\xb0\\xe5\\x9d\\x80\\xe7\\xb1\\xbb\\xe5\\x9e\\x8b.sol\":2422:2523  function getBalance() external view returns (uint256) {... */\n      swap1\n      jump\t// out\n        /* \"_11_\\xe6\\x95\\xb0\\xe6\\x8d\\xae\\xe7\\xb1\\xbb\\xe5\\x9e\\x8b_\\xe5\\x80\\xbc\\xe7\\xb1\\xbb\\xe5\\x9e\\x8b_\\xe5\\x9c\\xb0\\xe5\\x9d\\x80\\xe7\\xb1\\xbb\\xe5\\x9e\\x8b.sol\":928:1025  address payable public addrPayable =... */\n    tag_23:\n      0x01\n      0x00\n      swap1\n      sload\n      swap1\n      0x0100\n      exp\n      swap1\n      div\n      0xffffffffffffffffffffffffffffffffffffffff\n      and\n      dup2\n      jump\t// out\n        /* \"_11_\\xe6\\x95\\xb0\\xe6\\x8d\\xae\\xe7\\xb1\\xbb\\xe5\\x9e\\x8b_\\xe5\\x80\\xbc\\xe7\\xb1\\xbb\\xe5\\x9e\\x8b_\\xe5\\x9c\\xb0\\xe5\\x9d\\x80\\xe7\\xb1\\xbb\\xe5\\x9e\\x8b.sol\":1206:1241  bytes20 public b20 = bytes20(addr1) */\n    tag_28:\n      0x03\n      0x00\n      swap1\n      sload\n      swap1\n      0x0100\n      exp\n      swap1\n      div\n      0x60\n      shl\n      dup2\n      jump\t// out\n        /* \"_11_\\xe6\\x95\\xb0\\xe6\\x8d\\xae\\xe7\\xb1\\xbb\\xe5\\x9e\\x8b_\\xe5\\x80\\xbc\\xe7\\xb1\\xbb\\xe5\\x9e\\x8b_\\xe5\\x9c\\xb0\\xe5\\x9d\\x80\\xe7\\xb1\\xbb\\xe5\\x9e\\x8b.sol\":2005:2058  address public addr6 = address(uint160(uint256(b32))) */\n    tag_33:\n      0x09\n      0x00\n      swap1\n      sload\n      swap1\n      0x0100\n      exp\n      swap1\n      div\n      0xffffffffffffffffffffffffffffffffffffffff\n      and\n      dup2\n      jump\t// out\n        /* \"_11_\\xe6\\x95\\xb0\\xe6\\x8d\\xae\\xe7\\xb1\\xbb\\xe5\\x9e\\x8b_\\xe5\\x80\\xbc\\xe7\\xb1\\xbb\\xe5\\x9e\\x8b_\\xe5\\x9c\\xb0\\xe5\\x9d\\x80\\xe7\\xb1\\xbb\\xe5\\x9e\\x8b.sol\":1270:1305  address public addr3 = address(b20) */\n    tag_38:\n      0x04\n      0x00\n      swap1\n      sload\n      swap1\n      0x0100\n      exp\n      swap1\n      div\n      0xffffffffffffffffffffffffffffffffffffffff\n      and\n      dup2\n      jump\t// out\n        /* \"_11_\\xe6\\x95\\xb0\\xe6\\x8d\\xae\\xe7\\xb1\\xbb\\xe5\\x9e\\x8b_\\xe5\\x80\\xbc\\xe7\\xb1\\xbb\\xe5\\x9e\\x8b_\\xe5\\x9c\\xb0\\xe5\\x9d\\x80\\xe7\\xb1\\xbb\\xe5\\x9e\\x8b.sol\":1894:1938  address public addr5 = address(bytes20(b32)) */\n    tag_42:\n      0x08\n      0x00\n      swap1\n      sload\n      swap1\n      0x0100\n      exp\n      swap1\n      div\n      0xffffffffffffffffffffffffffffffffffffffff\n      and\n      dup2\n      jump\t// out\n        /* \"_11_\\xe6\\x95\\xb0\\xe6\\x8d\\xae\\xe7\\xb1\\xbb\\xe5\\x9e\\x8b_\\xe5\\x80\\xbc\\xe7\\xb1\\xbb\\xe5\\x9e\\x8b_\\xe5\\x9c\\xb0\\xe5\\x9d\\x80\\xe7\\xb1\\xbb\\xe5\\x9e\\x8b.sol\":856:921  address public addr1 = 0xdCad3a6d3569DF655070DEd06cb7A1b2Ccd1D3AF */\n    tag_46:\n      0x00\n      dup1\n      sload\n      swap1\n      0x0100\n      exp\n      swap1\n      div\n      0xffffffffffffffffffffffffffffffffffffffff\n      and\n      dup2\n      jump\t// out\n        /* \"_11_\\xe6\\x95\\xb0\\xe6\\x8d\\xae\\xe7\\xb1\\xbb\\xe5\\x9e\\x8b_\\xe5\\x80\\xbc\\xe7\\xb1\\xbb\\xe5\\x9e\\x8b_\\xe5\\x9c\\xb0\\xe5\\x9d\\x80\\xe7\\xb1\\xbb\\xe5\\x9e\\x8b.sol\":1337:1373  uint160 public u160 = uint160(addr1) */\n    tag_50:\n      0x05\n      0x00\n      swap1\n      sload\n      swap1\n      0x0100\n      exp\n      swap1\n      div\n      0xffffffffffffffffffffffffffffffffffffffff\n      and\n      dup2\n      jump\t// out\n        /* \"_11_\\xe6\\x95\\xb0\\xe6\\x8d\\xae\\xe7\\xb1\\xbb\\xe5\\x9e\\x8b_\\xe5\\x80\\xbc\\xe7\\xb1\\xbb\\xe5\\x9e\\x8b_\\xe5\\x9c\\xb0\\xe5\\x9d\\x80\\xe7\\xb1\\xbb\\xe5\\x9e\\x8b.sol\":1799:1887  bytes32 public b32 =  0x111122223333444455556666777788889999AAAABBBBCCCCDDDDEEEEFFFFCCCC */\n    tag_55:\n      sload(0x07)\n      dup2\n      jump\t// out\n        /* \"_11_\\xe6\\x95\\xb0\\xe6\\x8d\\xae\\xe7\\xb1\\xbb\\xe5\\x9e\\x8b_\\xe5\\x80\\xbc\\xe7\\xb1\\xbb\\xe5\\x9e\\x8b_\\xe5\\x9c\\xb0\\xe5\\x9d\\x80\\xe7\\xb1\\xbb\\xe5\\x9e\\x8b.sol\":1402:1438  address public addr4 = address(u160) */\n    tag_60:\n      0x06\n      0x00\n      swap1\n      sload\n      swap1\n      0x0100\n      exp\n      swap1\n      div\n      0xffffffffffffffffffffffffffffffffffffffff\n      and\n      dup2\n      jump\t// out\n        /* \"#utility.yul\":7:84   */\n    tag_63:\n        /* \"#utility.yul\":44:51   */\n      0x00\n        /* \"#utility.yul\":73:78   */\n      dup2\n        /* \"#utility.yul\":62:78   */\n      swap1\n      pop\n        /* \"#utility.yul\":7:84   */\n      swap2\n      swap1\n      pop\n      jump\t// out\n        /* \"#utility.yul\":90:208   */\n    tag_64:\n        /* \"#utility.yul\":177:201   */\n      tag_78\n        /* \"#utility.yul\":195:200   */\n      dup2\n        /* \"#utility.yul\":177:201   */\n      tag_63\n      jump\t// in\n    tag_78:\n        /* \"#utility.yul\":172:175   */\n      dup3\n        /* \"#utility.yul\":165:202   */\n      mstore\n        /* \"#utility.yul\":90:208   */\n      pop\n      pop\n      jump\t// out\n        /* \"#utility.yul\":214:436   */\n    tag_20:\n        /* \"#utility.yul\":307:311   */\n      0x00\n        /* \"#utility.yul\":345:347   */\n      0x20\n        /* \"#utility.yul\":334:343   */\n      dup3\n        /* \"#utility.yul\":330:348   */\n      add\n        /* \"#utility.yul\":322:348   */\n      swap1\n      pop\n        /* \"#utility.yul\":358:429   */\n      tag_80\n        /* \"#utility.yul\":426:427   */\n      0x00\n        /* \"#utility.yul\":415:424   */\n      dup4\n        /* \"#utility.yul\":411:428   */\n      add\n        /* \"#utility.yul\":402:408   */\n      dup5\n        /* \"#utility.yul\":358:429   */\n      tag_64\n      jump\t// in\n    tag_80:\n        /* \"#utility.yul\":214:436   */\n      swap3\n      swap2\n      pop\n      pop\n      jump\t// out\n        /* \"#utility.yul\":442:568   */\n    tag_65:\n        /* \"#utility.yul\":479:486   */\n      0x00\n        /* \"#utility.yul\":519:561   */\n      0xffffffffffffffffffffffffffffffffffffffff\n        /* \"#utility.yul\":512:517   */\n      dup3\n        /* \"#utility.yul\":508:562   */\n      and\n        /* \"#utility.yul\":497:562   */\n      swap1\n      pop\n        /* \"#utility.yul\":442:568   */\n      swap2\n      swap1\n      pop\n      jump\t// out\n        /* \"#utility.yul\":574:678   */\n    tag_66:\n        /* \"#utility.yul\":619:626   */\n      0x00\n        /* \"#utility.yul\":648:672   */\n      tag_83\n        /* \"#utility.yul\":666:671   */\n      dup3\n        /* \"#utility.yul\":648:672   */\n      tag_65\n      jump\t// in\n    tag_83:\n        /* \"#utility.yul\":637:672   */\n      swap1\n      pop\n        /* \"#utility.yul\":574:678   */\n      swap2\n      swap1\n      pop\n      jump\t// out\n        /* \"#utility.yul\":684:826   */\n    tag_67:\n        /* \"#utility.yul\":787:819   */\n      tag_85\n        /* \"#utility.yul\":813:818   */\n      dup2\n        /* \"#utility.yul\":787:819   */\n      tag_66\n      jump\t// in\n    tag_85:\n        /* \"#utility.yul\":782:785   */\n      dup3\n        /* \"#utility.yul\":775:820   */\n      mstore\n        /* \"#utility.yul\":684:826   */\n      pop\n      pop\n      jump\t// out\n        /* \"#utility.yul\":832:1086   */\n    tag_25:\n        /* \"#utility.yul\":941:945   */\n      0x00\n        /* \"#utility.yul\":979:981   */\n      0x20\n        /* \"#utility.yul\":968:977   */\n      dup3\n        /* \"#utility.yul\":964:982   */\n      add\n        /* \"#utility.yul\":956:982   */\n      swap1\n      pop\n        /* \"#utility.yul\":992:1079   */\n      tag_87\n        /* \"#utility.yul\":1076:1077   */\n      0x00\n        /* \"#utility.yul\":1065:1074   */\n      dup4\n        /* \"#utility.yul\":1061:1078   */\n      add\n        /* \"#utility.yul\":1052:1058   */\n      dup5\n        /* \"#utility.yul\":992:1079   */\n      tag_67\n      jump\t// in\n    tag_87:\n        /* \"#utility.yul\":832:1086   */\n      swap3\n      swap2\n      pop\n      pop\n      jump\t// out\n        /* \"#utility.yul\":1092:1242   */\n    tag_68:\n        /* \"#utility.yul\":1129:1136   */\n      0x00\n        /* \"#utility.yul\":1169:1235   */\n      0xffffffffffffffffffffffffffffffffffffffff000000000000000000000000\n        /* \"#utility.yul\":1162:1167   */\n      dup3\n        /* \"#utility.yul\":1158:1236   */\n      and\n        /* \"#utility.yul\":1147:1236   */\n      swap1\n      pop\n        /* \"#utility.yul\":1092:1242   */\n      swap2\n      swap1\n      pop\n      jump\t// out\n        /* \"#utility.yul\":1248:1366   */\n    tag_69:\n        /* \"#utility.yul\":1335:1359   */\n      tag_90\n        /* \"#utility.yul\":1353:1358   */\n      dup2\n        /* \"#utility.yul\":1335:1359   */\n      tag_68\n      jump\t// in\n    tag_90:\n        /* \"#utility.yul\":1330:1333   */\n      dup3\n        /* \"#utility.yul\":1323:1360   */\n      mstore\n        /* \"#utility.yul\":1248:1366   */\n      pop\n      pop\n      jump\t// out\n        /* \"#utility.yul\":1372:1594   */\n    tag_30:\n        /* \"#utility.yul\":1465:1469   */\n      0x00\n        /* \"#utility.yul\":1503:1505   */\n      0x20\n        /* \"#utility.yul\":1492:1501   */\n      dup3\n        /* \"#utility.yul\":1488:1506   */\n      add\n        /* \"#utility.yul\":1480:1506   */\n      swap1\n      pop\n        /* \"#utility.yul\":1516:1587   */\n      tag_92\n        /* \"#utility.yul\":1584:1585   */\n      0x00\n        /* \"#utility.yul\":1573:1582   */\n      dup4\n        /* \"#utility.yul\":1569:1586   */\n      add\n        /* \"#utility.yul\":1560:1566   */\n      dup5\n        /* \"#utility.yul\":1516:1587   */\n      tag_69\n      jump\t// in\n    tag_92:\n        /* \"#utility.yul\":1372:1594   */\n      swap3\n      swap2\n      pop\n      pop\n      jump\t// out\n        /* \"#utility.yul\":1600:1696   */\n    tag_70:\n        /* \"#utility.yul\":1637:1644   */\n      0x00\n        /* \"#utility.yul\":1666:1690   */\n      tag_94\n        /* \"#utility.yul\":1684:1689   */\n      dup3\n        /* \"#utility.yul\":1666:1690   */\n      tag_65\n      jump\t// in\n    tag_94:\n        /* \"#utility.yul\":1655:1690   */\n      swap1\n      pop\n        /* \"#utility.yul\":1600:1696   */\n      swap2\n      swap1\n      pop\n      jump\t// out\n        /* \"#utility.yul\":1702:1820   */\n    tag_71:\n        /* \"#utility.yul\":1789:1813   */\n      tag_96\n        /* \"#utility.yul\":1807:1812   */\n      dup2\n        /* \"#utility.yul\":1789:1813   */\n      tag_70\n      jump\t// in\n    tag_96:\n        /* \"#utility.yul\":1784:1787   */\n      dup3\n        /* \"#utility.yul\":1777:1814   */\n      mstore\n        /* \"#utility.yul\":1702:1820   */\n      pop\n      pop\n      jump\t// out\n        /* \"#utility.yul\":1826:2048   */\n    tag_35:\n        /* \"#utility.yul\":1919:1923   */\n      0x00\n        /* \"#utility.yul\":1957:1959   */\n      0x20\n        /* \"#utility.yul\":1946:1955   */\n      dup3\n        /* \"#utility.yul\":1942:1960   */\n      add\n        /* \"#utility.yul\":1934:1960   */\n      swap1\n      pop\n        /* \"#utility.yul\":1970:2041   */\n      tag_98\n        /* \"#utility.yul\":2038:2039   */\n      0x00\n        /* \"#utility.yul\":2027:2036   */\n      dup4\n        /* \"#utility.yul\":2023:2040   */\n      add\n        /* \"#utility.yul\":2014:2020   */\n      dup5\n        /* \"#utility.yul\":1970:2041   */\n      tag_71\n      jump\t// in\n    tag_98:\n        /* \"#utility.yul\":1826:2048   */\n      swap3\n      swap2\n      pop\n      pop\n      jump\t// out\n        /* \"#utility.yul\":2054:2172   */\n    tag_72:\n        /* \"#utility.yul\":2141:2165   */\n      tag_100\n        /* \"#utility.yul\":2159:2164   */\n      dup2\n        /* \"#utility.yul\":2141:2165   */\n      tag_65\n      jump\t// in\n    tag_100:\n        /* \"#utility.yul\":2136:2139   */\n      dup3\n        /* \"#utility.yul\":2129:2166   */\n      mstore\n        /* \"#utility.yul\":2054:2172   */\n      pop\n      pop\n      jump\t// out\n        /* \"#utility.yul\":2178:2400   */\n    tag_52:\n        /* \"#utility.yul\":2271:2275   */\n      0x00\n        /* \"#utility.yul\":2309:2311   */\n      0x20\n        /* \"#utility.yul\":2298:2307   */\n      dup3\n        /* \"#utility.yul\":2294:2312   */\n      add\n        /* \"#utility.yul\":2286:2312   */\n      swap1\n      pop\n        /* \"#utility.yul\":2322:2393   */\n      tag_102\n        /* \"#utility.yul\":2390:2391   */\n      0x00\n        /* \"#utility.yul\":2379:2388   */\n      dup4\n        /* \"#utility.yul\":2375:2392   */\n      add\n        /* \"#utility.yul\":2366:2372   */\n      dup5\n        /* \"#utility.yul\":2322:2393   */\n      tag_72\n      jump\t// in\n    tag_102:\n        /* \"#utility.yul\":2178:2400   */\n      swap3\n      swap2\n      pop\n      pop\n      jump\t// out\n        /* \"#utility.yul\":2406:2483   */\n    tag_73:\n        /* \"#utility.yul\":2443:2450   */\n      0x00\n        /* \"#utility.yul\":2472:2477   */\n      dup2\n        /* \"#utility.yul\":2461:2477   */\n      swap1\n      pop\n        /* \"#utility.yul\":2406:2483   */\n      swap2\n      swap1\n      pop\n      jump\t// out\n        /* \"#utility.yul\":2489:2607   */\n    tag_74:\n        /* \"#utility.yul\":2576:2600   */\n      tag_105\n        /* \"#utility.yul\":2594:2599   */\n      dup2\n        /* \"#utility.yul\":2576:2600   */\n      tag_73\n      jump\t// in\n    tag_105:\n        /* \"#utility.yul\":2571:2574   */\n      dup3\n        /* \"#utility.yul\":2564:2601   */\n      mstore\n        /* \"#utility.yul\":2489:2607   */\n      pop\n      pop\n      jump\t// out\n        /* \"#utility.yul\":2613:2835   */\n    tag_57:\n        /* \"#utility.yul\":2706:2710   */\n      0x00\n        /* \"#utility.yul\":2744:2746   */\n      0x20\n        /* \"#utility.yul\":2733:2742   */\n      dup3\n        /* \"#utility.yul\":2729:2747   */\n      add\n        /* \"#utility.yul\":2721:2747   */\n      swap1\n      pop\n        /* \"#utility.yul\":2757:2828   */\n      tag_107\n        /* \"#utility.yul\":2825:2826   */\n      0x00\n        /* \"#utility.yul\":2814:2823   */\n      dup4\n        /* \"#utility.yul\":2810:2827   */\n      add\n        /* \"#utility.yul\":2801:2807   */\n      dup5\n        /* \"#utility.yul\":2757:2828   */\n      tag_74\n      jump\t// in\n    tag_107:\n        /* \"#utility.yul\":2613:2835   */\n      swap3\n      swap2\n      pop\n      pop\n      jump\t// out\n\n    auxdata: 0xa26469706673582212203298497d91fbc60c14049bb73aa002d1a4499b46760d2d83fa168e2d436912cd64736f6c63430008110033\n}\n",
				"bytecode": {
					"linkReferences": {},
					"object": "608060405273dcad3a6d3569df655070ded06cb7a1b2ccd1d3af6000806101000a81548173ffffffffffffffffffffffffffffffffffffffff021916908373ffffffffffffffffffffffffffffffffffffffff16021790555073dcad3a6d3569df655070ded06cb7a1b2ccd1d3af600160006101000a81548173ffffffffffffffffffffffffffffffffffffffff021916908373ffffffffffffffffffffffffffffffffffffffff160217905550600160009054906101000a900473ffffffffffffffffffffffffffffffffffffffff16600260006101000a81548173ffffffffffffffffffffffffffffffffffffffff021916908373ffffffffffffffffffffffffffffffffffffffff16021790555060008054906101000a900473ffffffffffffffffffffffffffffffffffffffff1660601b600360006101000a81548173ffffffffffffffffffffffffffffffffffffffff021916908360601c0217905550600360009054906101000a900460601b60601c600460006101000a81548173ffffffffffffffffffffffffffffffffffffffff021916908373ffffffffffffffffffffffffffffffffffffffff16021790555060008054906101000a900473ffffffffffffffffffffffffffffffffffffffff16600560006101000a81548173ffffffffffffffffffffffffffffffffffffffff021916908373ffffffffffffffffffffffffffffffffffffffff160217905550600560009054906101000a900473ffffffffffffffffffffffffffffffffffffffff16600660006101000a81548173ffffffffffffffffffffffffffffffffffffffff021916908373ffffffffffffffffffffffffffffffffffffffff1602179055507f111122223333444455556666777788889999aaaabbbbccccddddeeeeffffcccc60001b60075560075460601c600860006101000a81548173ffffffffffffffffffffffffffffffffffffffff021916908373ffffffffffffffffffffffffffffffffffffffff16021790555060075460001c600960006101000a81548173ffffffffffffffffffffffffffffffffffffffff021916908373ffffffffffffffffffffffffffffffffffffffff16021790555034801561033757600080fd5b5061052e806103476000396000f3fe6080604052600436106100955760003560e01c8063c3ffc4d211610059578063c3ffc4d214610178578063eabe09ad146101a3578063eaca4853146101ce578063f8aab238146101f9578063fd7808f6146102245761009c565b806312065fe0146100a157806329f7c57c146100cc5780634ae53b58146100f7578063527116d5146101225780639347e6d71461014d5761009c565b3661009c57005b600080fd5b3480156100ad57600080fd5b506100b661024f565b6040516100c39190610391565b60405180910390f35b3480156100d857600080fd5b506100e1610257565b6040516100ee91906103ed565b60405180910390f35b34801561010357600080fd5b5061010c61027d565b6040516101199190610443565b60405180910390f35b34801561012e57600080fd5b50610137610290565b604051610144919061047f565b60405180910390f35b34801561015957600080fd5b506101626102b6565b60405161016f919061047f565b60405180910390f35b34801561018457600080fd5b5061018d6102dc565b60405161019a919061047f565b60405180910390f35b3480156101af57600080fd5b506101b8610302565b6040516101c5919061047f565b60405180910390f35b3480156101da57600080fd5b506101e3610326565b6040516101f091906104a9565b60405180910390f35b34801561020557600080fd5b5061020e61034c565b60405161021b91906104dd565b60405180910390f35b34801561023057600080fd5b50610239610352565b604051610246919061047f565b60405180910390f35b600047905090565b600160009054906101000a900473ffffffffffffffffffffffffffffffffffffffff1681565b600360009054906101000a900460601b81565b600960009054906101000a900473ffffffffffffffffffffffffffffffffffffffff1681565b600460009054906101000a900473ffffffffffffffffffffffffffffffffffffffff1681565b600860009054906101000a900473ffffffffffffffffffffffffffffffffffffffff1681565b60008054906101000a900473ffffffffffffffffffffffffffffffffffffffff1681565b600560009054906101000a900473ffffffffffffffffffffffffffffffffffffffff1681565b60075481565b600660009054906101000a900473ffffffffffffffffffffffffffffffffffffffff1681565b6000819050919050565b61038b81610378565b82525050565b60006020820190506103a66000830184610382565b92915050565b600073ffffffffffffffffffffffffffffffffffffffff82169050919050565b60006103d7826103ac565b9050919050565b6103e7816103cc565b82525050565b600060208201905061040260008301846103de565b92915050565b60007fffffffffffffffffffffffffffffffffffffffff00000000000000000000000082169050919050565b61043d81610408565b82525050565b60006020820190506104586000830184610434565b92915050565b6000610469826103ac565b9050919050565b6104798161045e565b82525050565b60006020820190506104946000830184610470565b92915050565b6104a3816103ac565b82525050565b60006020820190506104be600083018461049a565b92915050565b6000819050919050565b6104d7816104c4565b82525050565b60006020820190506104f260008301846104ce565b9291505056fea26469706673582212203298497d91fbc60c14049bb73aa002d1a4499b46760d2d83fa168e2d436912cd64736f6c63430008110033",
					"opcodes": "PUSH1 0x80 PUSH1 0x40 MSTORE PUSH20 0xDCAD3A6D3569DF655070DED06CB7A1B2CCD1D3AF PUSH1 0x0 DUP1 PUSH2 0x100 EXP DUP2 SLOAD DUP2 PUSH20 0xFFFFFFFFFFFFFFFFFFFFFFFFFFFFFFFFFFFFFFFF MUL NOT AND SWAP1 DUP4 PUSH20 0xFFFFFFFFFFFFFFFFFFFFFFFFFFFFFFFFFFFFFFFF AND MUL OR SWAP1 SSTORE POP PUSH20 0xDCAD3A6D3569DF655070DED06CB7A1B2CCD1D3AF PUSH1 0x1 PUSH1 0x0 PUSH2 0x100 EXP DUP2 SLOAD DUP2 PUSH20 0xFFFFFFFFFFFFFFFFFFFFFFFFFFFFFFFFFFFFFFFF MUL NOT AND SWAP1 DUP4 PUSH20 0xFFFFFFFFFFFFFFFFFFFFFFFFFFFFFFFFFFFFFFFF AND MUL OR SWAP1 SSTORE POP PUSH1 0x1 PUSH1 0x0 SWAP1 SLOAD SWAP1 PUSH2 0x100 EXP SWAP1 DIV PUSH20 0xFFFFFFFFFFFFFFFFFFFFFFFFFFFFFFFFFFFFFFFF AND PUSH1 0x2 PUSH1 0x0 PUSH2 0x100 EXP DUP2 SLOAD DUP2 PUSH20 0xFFFFFFFFFFFFFFFFFFFFFFFFFFFFFFFFFFFFFFFF MUL NOT AND SWAP1 DUP4 PUSH20 0xFFFFFFFFFFFFFFFFFFFFFFFFFFFFFFFFFFFFFFFF AND MUL OR SWAP1 SSTORE POP PUSH1 0x0 DUP1 SLOAD SWAP1 PUSH2 0x100 EXP SWAP1 DIV PUSH20 0xFFFFFFFFFFFFFFFFFFFFFFFFFFFFFFFFFFFFFFFF AND PUSH1 0x60 SHL PUSH1 0x3 PUSH1 0x0 PUSH2 0x100 EXP DUP2 SLOAD DUP2 PUSH20 0xFFFFFFFFFFFFFFFFFFFFFFFFFFFFFFFFFFFFFFFF MUL NOT AND SWAP1 DUP4 PUSH1 0x60 SHR MUL OR SWAP1 SSTORE POP PUSH1 0x3 PUSH1 0x0 SWAP1 SLOAD SWAP1 PUSH2 0x100 EXP SWAP1 DIV PUSH1 0x60 SHL PUSH1 0x60 SHR PUSH1 0x4 PUSH1 0x0 PUSH2 0x100 EXP DUP2 SLOAD DUP2 PUSH20 0xFFFFFFFFFFFFFFFFFFFFFFFFFFFFFFFFFFFFFFFF MUL NOT AND SWAP1 DUP4 PUSH20 0xFFFFFFFFFFFFFFFFFFFFFFFFFFFFFFFFFFFFFFFF AND MUL OR SWAP1 SSTORE POP PUSH1 0x0 DUP1 SLOAD SWAP1 PUSH2 0x100 EXP SWAP1 DIV PUSH20 0xFFFFFFFFFFFFFFFFFFFFFFFFFFFFFFFFFFFFFFFF AND PUSH1 0x5 PUSH1 0x0 PUSH2 0x100 EXP DUP2 SLOAD DUP2 PUSH20 0xFFFFFFFFFFFFFFFFFFFFFFFFFFFFFFFFFFFFFFFF MUL NOT AND SWAP1 DUP4 PUSH20 0xFFFFFFFFFFFFFFFFFFFFFFFFFFFFFFFFFFFFFFFF AND MUL OR SWAP1 SSTORE POP PUSH1 0x5 PUSH1 0x0 SWAP1 SLOAD SWAP1 PUSH2 0x100 EXP SWAP1 DIV PUSH20 0xFFFFFFFFFFFFFFFFFFFFFFFFFFFFFFFFFFFFFFFF AND PUSH1 0x6 PUSH1 0x0 PUSH2 0x100 EXP DUP2 SLOAD DUP2 PUSH20 0xFFFFFFFFFFFFFFFFFFFFFFFFFFFFFFFFFFFFFFFF MUL NOT AND SWAP1 DUP4 PUSH20 0xFFFFFFFFFFFFFFFFFFFFFFFFFFFFFFFFFFFFFFFF AND MUL OR SWAP1 SSTORE POP PUSH32 0x111122223333444455556666777788889999AAAABBBBCCCCDDDDEEEEFFFFCCCC PUSH1 0x0 SHL PUSH1 0x7 SSTORE PUSH1 0x7 SLOAD PUSH1 0x60 SHR PUSH1 0x8 PUSH1 0x0 PUSH2 0x100 EXP DUP2 SLOAD DUP2 PUSH20 0xFFFFFFFFFFFFFFFFFFFFFFFFFFFFFFFFFFFFFFFF MUL NOT AND SWAP1 DUP4 PUSH20 0xFFFFFFFFFFFFFFFFFFFFFFFFFFFFFFFFFFFFFFFF AND MUL OR SWAP1 SSTORE POP PUSH1 0x7 SLOAD PUSH1 0x0 SHR PUSH1 0x9 PUSH1 0x0 PUSH2 0x100 EXP DUP2 SLOAD DUP2 PUSH20 0xFFFFFFFFFFFFFFFFFFFFFFFFFFFFFFFFFFFFFFFF MUL NOT AND SWAP1 DUP4 PUSH20 0xFFFFFFFFFFFFFFFFFFFFFFFFFFFFFFFFFFFFFFFF AND MUL OR SWAP1 SSTORE POP CALLVALUE DUP1 ISZERO PUSH2 0x337 JUMPI PUSH1 0x0 DUP1 REVERT JUMPDEST POP PUSH2 0x52E DUP1 PUSH2 0x347 PUSH1 0x0 CODECOPY PUSH1 0x0 RETURN INVALID PUSH1 0x80 PUSH1 0x40 MSTORE PUSH1 0x4 CALLDATASIZE LT PUSH2 0x95 JUMPI PUSH1 0x0 CALLDATALOAD PUSH1 0xE0 SHR DUP1 PUSH4 0xC3FFC4D2 GT PUSH2 0x59 JUMPI DUP1 PUSH4 0xC3FFC4D2 EQ PUSH2 0x178 JUMPI DUP1 PUSH4 0xEABE09AD EQ PUSH2 0x1A3 JUMPI DUP1 PUSH4 0xEACA4853 EQ PUSH2 0x1CE JUMPI DUP1 PUSH4 0xF8AAB238 EQ PUSH2 0x1F9 JUMPI DUP1 PUSH4 0xFD7808F6 EQ PUSH2 0x224 JUMPI PUSH2 0x9C JUMP JUMPDEST DUP1 PUSH4 0x12065FE0 EQ PUSH2 0xA1 JUMPI DUP1 PUSH4 0x29F7C57C EQ PUSH2 0xCC JUMPI DUP1 PUSH4 0x4AE53B58 EQ PUSH2 0xF7 JUMPI DUP1 PUSH4 0x527116D5 EQ PUSH2 0x122 JUMPI DUP1 PUSH4 0x9347E6D7 EQ PUSH2 0x14D JUMPI PUSH2 0x9C JUMP JUMPDEST CALLDATASIZE PUSH2 0x9C JUMPI STOP JUMPDEST PUSH1 0x0 DUP1 REVERT JUMPDEST CALLVALUE DUP1 ISZERO PUSH2 0xAD JUMPI PUSH1 0x0 DUP1 REVERT JUMPDEST POP PUSH2 0xB6 PUSH2 0x24F JUMP JUMPDEST PUSH1 0x40 MLOAD PUSH2 0xC3 SWAP2 SWAP1 PUSH2 0x391 JUMP JUMPDEST PUSH1 0x40 MLOAD DUP1 SWAP2 SUB SWAP1 RETURN JUMPDEST CALLVALUE DUP1 ISZERO PUSH2 0xD8 JUMPI PUSH1 0x0 DUP1 REVERT JUMPDEST POP PUSH2 0xE1 PUSH2 0x257 JUMP JUMPDEST PUSH1 0x40 MLOAD PUSH2 0xEE SWAP2 SWAP1 PUSH2 0x3ED JUMP JUMPDEST PUSH1 0x40 MLOAD DUP1 SWAP2 SUB SWAP1 RETURN JUMPDEST CALLVALUE DUP1 ISZERO PUSH2 0x103 JUMPI PUSH1 0x0 DUP1 REVERT JUMPDEST POP PUSH2 0x10C PUSH2 0x27D JUMP JUMPDEST PUSH1 0x40 MLOAD PUSH2 0x119 SWAP2 SWAP1 PUSH2 0x443 JUMP JUMPDEST PUSH1 0x40 MLOAD DUP1 SWAP2 SUB SWAP1 RETURN JUMPDEST CALLVALUE DUP1 ISZERO PUSH2 0x12E JUMPI PUSH1 0x0 DUP1 REVERT JUMPDEST POP PUSH2 0x137 PUSH2 0x290 JUMP JUMPDEST PUSH1 0x40 MLOAD PUSH2 0x144 SWAP2 SWAP1 PUSH2 0x47F JUMP JUMPDEST PUSH1 0x40 MLOAD DUP1 SWAP2 SUB SWAP1 RETURN JUMPDEST CALLVALUE DUP1 ISZERO PUSH2 0x159 JUMPI PUSH1 0x0 DUP1 REVERT JUMPDEST POP PUSH2 0x162 PUSH2 0x2B6 JUMP JUMPDEST PUSH1 0x40 MLOAD PUSH2 0x16F SWAP2 SWAP1 PUSH2 0x47F JUMP JUMPDEST PUSH1 0x40 MLOAD DUP1 SWAP2 SUB SWAP1 RETURN JUMPDEST CALLVALUE DUP1 ISZERO PUSH2 0x184 JUMPI PUSH1 0x0 DUP1 REVERT JUMPDEST POP PUSH2 0x18D PUSH2 0x2DC JUMP JUMPDEST PUSH1 0x40 MLOAD PUSH2 0x19A SWAP2 SWAP1 PUSH2 0x47F JUMP JUMPDEST PUSH1 0x40 MLOAD DUP1 SWAP2 SUB SWAP1 RETURN JUMPDEST CALLVALUE DUP1 ISZERO PUSH2 0x1AF JUMPI PUSH1 0x0 DUP1 REVERT JUMPDEST POP PUSH2 0x1B8 PUSH2 0x302 JUMP JUMPDEST PUSH1 0x40 MLOAD PUSH2 0x1C5 SWAP2 SWAP1 PUSH2 0x47F JUMP JUMPDEST PUSH1 0x40 MLOAD DUP1 SWAP2 SUB SWAP1 RETURN JUMPDEST CALLVALUE DUP1 ISZERO PUSH2 0x1DA JUMPI PUSH1 0x0 DUP1 REVERT JUMPDEST POP PUSH2 0x1E3 PUSH2 0x326 JUMP JUMPDEST PUSH1 0x40 MLOAD PUSH2 0x1F0 SWAP2 SWAP1 PUSH2 0x4A9 JUMP JUMPDEST PUSH1 0x40 MLOAD DUP1 SWAP2 SUB SWAP1 RETURN JUMPDEST CALLVALUE DUP1 ISZERO PUSH2 0x205 JUMPI PUSH1 0x0 DUP1 REVERT JUMPDEST POP PUSH2 0x20E PUSH2 0x34C JUMP JUMPDEST PUSH1 0x40 MLOAD PUSH2 0x21B SWAP2 SWAP1 PUSH2 0x4DD JUMP JUMPDEST PUSH1 0x40 MLOAD DUP1 SWAP2 SUB SWAP1 RETURN JUMPDEST CALLVALUE DUP1 ISZERO PUSH2 0x230 JUMPI PUSH1 0x0 DUP1 REVERT JUMPDEST POP PUSH2 0x239 PUSH2 0x352 JUMP JUMPDEST PUSH1 0x40 MLOAD PUSH2 0x246 SWAP2 SWAP1 PUSH2 0x47F JUMP JUMPDEST PUSH1 0x40 MLOAD DUP1 SWAP2 SUB SWAP1 RETURN JUMPDEST PUSH1 0x0 SELFBALANCE SWAP1 POP SWAP1 JUMP JUMPDEST PUSH1 0x1 PUSH1 0x0 SWAP1 SLOAD SWAP1 PUSH2 0x100 EXP SWAP1 DIV PUSH20 0xFFFFFFFFFFFFFFFFFFFFFFFFFFFFFFFFFFFFFFFF AND DUP2 JUMP JUMPDEST PUSH1 0x3 PUSH1 0x0 SWAP1 SLOAD SWAP1 PUSH2 0x100 EXP SWAP1 DIV PUSH1 0x60 SHL DUP2 JUMP JUMPDEST PUSH1 0x9 PUSH1 0x0 SWAP1 SLOAD SWAP1 PUSH2 0x100 EXP SWAP1 DIV PUSH20 0xFFFFFFFFFFFFFFFFFFFFFFFFFFFFFFFFFFFFFFFF AND DUP2 JUMP JUMPDEST PUSH1 0x4 PUSH1 0x0 SWAP1 SLOAD SWAP1 PUSH2 0x100 EXP SWAP1 DIV PUSH20 0xFFFFFFFFFFFFFFFFFFFFFFFFFFFFFFFFFFFFFFFF AND DUP2 JUMP JUMPDEST PUSH1 0x8 PUSH1 0x0 SWAP1 SLOAD SWAP1 PUSH2 0x100 EXP SWAP1 DIV PUSH20 0xFFFFFFFFFFFFFFFFFFFFFFFFFFFFFFFFFFFFFFFF AND DUP2 JUMP JUMPDEST PUSH1 0x0 DUP1 SLOAD SWAP1 PUSH2 0x100 EXP SWAP1 DIV PUSH20 0xFFFFFFFFFFFFFFFFFFFFFFFFFFFFFFFFFFFFFFFF AND DUP2 JUMP JUMPDEST PUSH1 0x5 PUSH1 0x0 SWAP1 SLOAD SWAP1 PUSH2 0x100 EXP SWAP1 DIV PUSH20 0xFFFFFFFFFFFFFFFFFFFFFFFFFFFFFFFFFFFFFFFF AND DUP2 JUMP JUMPDEST PUSH1 0x7 SLOAD DUP2 JUMP JUMPDEST PUSH1 0x6 PUSH1 0x0 SWAP1 SLOAD SWAP1 PUSH2 0x100 EXP SWAP1 DIV PUSH20 0xFFFFFFFFFFFFFFFFFFFFFFFFFFFFFFFFFFFFFFFF AND DUP2 JUMP JUMPDEST PUSH1 0x0 DUP2 SWAP1 POP SWAP2 SWAP1 POP JUMP JUMPDEST PUSH2 0x38B DUP2 PUSH2 0x378 JUMP JUMPDEST DUP3 MSTORE POP POP JUMP JUMPDEST PUSH1 0x0 PUSH1 0x20 DUP3 ADD SWAP1 POP PUSH2 0x3A6 PUSH1 0x0 DUP4 ADD DUP5 PUSH2 0x382 JUMP JUMPDEST SWAP3 SWAP2 POP POP JUMP JUMPDEST PUSH1 0x0 PUSH20 0xFFFFFFFFFFFFFFFFFFFFFFFFFFFFFFFFFFFFFFFF DUP3 AND SWAP1 POP SWAP2 SWAP1 POP JUMP JUMPDEST PUSH1 0x0 PUSH2 0x3D7 DUP3 PUSH2 0x3AC JUMP JUMPDEST SWAP1 POP SWAP2 SWAP1 POP JUMP JUMPDEST PUSH2 0x3E7 DUP2 PUSH2 0x3CC JUMP JUMPDEST DUP3 MSTORE POP POP JUMP JUMPDEST PUSH1 0x0 PUSH1 0x20 DUP3 ADD SWAP1 POP PUSH2 0x402 PUSH1 0x0 DUP4 ADD DUP5 PUSH2 0x3DE JUMP JUMPDEST SWAP3 SWAP2 POP POP JUMP JUMPDEST PUSH1 0x0 PUSH32 0xFFFFFFFFFFFFFFFFFFFFFFFFFFFFFFFFFFFFFFFF000000000000000000000000 DUP3 AND SWAP1 POP SWAP2 SWAP1 POP JUMP JUMPDEST PUSH2 0x43D DUP2 PUSH2 0x408 JUMP JUMPDEST DUP3 MSTORE POP POP JUMP JUMPDEST PUSH1 0x0 PUSH1 0x20 DUP3 ADD SWAP1 POP PUSH2 0x458 PUSH1 0x0 DUP4 ADD DUP5 PUSH2 0x434 JUMP JUMPDEST SWAP3 SWAP2 POP POP JUMP JUMPDEST PUSH1 0x0 PUSH2 0x469 DUP3 PUSH2 0x3AC JUMP JUMPDEST SWAP1 POP SWAP2 SWAP1 POP JUMP JUMPDEST PUSH2 0x479 DUP2 PUSH2 0x45E JUMP JUMPDEST DUP3 MSTORE POP POP JUMP JUMPDEST PUSH1 0x0 PUSH1 0x20 DUP3 ADD SWAP1 POP PUSH2 0x494 PUSH1 0x0 DUP4 ADD DUP5 PUSH2 0x470 JUMP JUMPDEST SWAP3 SWAP2 POP POP JUMP JUMPDEST PUSH2 0x4A3 DUP2 PUSH2 0x3AC JUMP JUMPDEST DUP3 MSTORE POP POP JUMP JUMPDEST PUSH1 0x0 PUSH1 0x20 DUP3 ADD SWAP1 POP PUSH2 0x4BE PUSH1 0x0 DUP4 ADD DUP5 PUSH2 0x49A JUMP JUMPDEST SWAP3 SWAP2 POP POP JUMP JUMPDEST PUSH1 0x0 DUP2 SWAP1 POP SWAP2 SWAP1 POP JUMP JUMPDEST PUSH2 0x4D7 DUP2 PUSH2 0x4C4 JUMP JUMPDEST DUP3 MSTORE POP POP JUMP JUMPDEST PUSH1 0x0 PUSH1 0x20 DUP3 ADD SWAP1 POP PUSH2 0x4F2 PUSH1 0x0 DUP4 ADD DUP5 PUSH2 0x4CE JUMP JUMPDEST SWAP3 SWAP2 POP POP JUMP INVALID LOG2 PUSH5 0x6970667358 0x22 SLT KECCAK256 ORIGIN SWAP9 0x49 PUSH30 0x91FBC60C14049BB73AA002D1A4499B46760D2D83FA168E2D436912CD6473 PUSH16 0x6C634300081100330000000000000000 "
				},
				"gasEstimates": {
					"creation": {
						"codeDepositCost": "265200",
						"executionCost": "255719",
						"totalCost": "520919"
					},
					"external": {
						"addr1()": "2533",
						"addr3()": "2603",
						"addr4()": "2602",
						"addr5()": "2514",
						"addr6()": "2581",
						"addrPayable()": "2537",
						"b20()": "2516",
						"b32()": "2495",
						"getBalance()": "340",
						"u160()": "2515"
					}
				},
				"methodIdentifiers": {
					"addr1()": "eabe09ad",
					"addr3()": "9347e6d7",
					"addr4()": "fd7808f6",
					"addr5()": "c3ffc4d2",
					"addr6()": "527116d5",
					"addrPayable()": "29f7c57c",
					"b20()": "4ae53b58",
					"b32()": "f8aab238",
					"getBalance()": "12065fe0",
					"u160()": "eaca4853"
				}
			},
			"storageLayout": {
				"storage": [
					{
						"astId": 5,
						"contract": "_11_数据类型_值类型_地址类型.sol:HelloWorld",
						"label": "addr1",
						"offset": 0,
						"slot": "0",
						"type": "t_address"
					},
					{
						"astId": 11,
						"contract": "_11_数据类型_值类型_地址类型.sol:HelloWorld",
						"label": "addrPayable",
						"offset": 0,
						"slot": "1",
						"type": "t_address_payable"
					},
					{
						"astId": 14,
						"contract": "_11_数据类型_值类型_地址类型.sol:HelloWorld",
						"label": "addr2",
						"offset": 0,
						"slot": "2",
						"type": "t_address"
					},
					{
						"astId": 20,
						"contract": "_11_数据类型_值类型_地址类型.sol:HelloWorld",
						"label": "b20",
						"offset": 0,
						"slot": "3",
						"type": "t_bytes20"
					},
					{
						"astId": 26,
						"contract": "_11_数据类型_值类型_地址类型.sol:HelloWorld",
						"label": "addr3",
						"offset": 0,
						"slot": "4",
						"type": "t_address"
					},
					{
						"astId": 32,
						"contract": "_11_数据类型_值类型_地址类型.sol:HelloWorld",
						"label": "u160",
						"offset": 0,
						"slot": "5",
						"type": "t_uint160"
					},
					{
						"astId": 38,
						"contract": "_11_数据类型_值类型_地址类型.sol:HelloWorld",
						"label": "addr4",
						"offset": 0,
						"slot": "6",
						"type": "t_address"
					},
					{
						"astId": 41,
						"contract": "_11_数据类型_值类型_地址类型.sol:HelloWorld",
						"label": "b32",
						"offset": 0,
						"slot": "7",
						"type": "t_bytes32"
					},
					{
						"astId": 50,
						"contract": "_11_数据类型_值类型_地址类型.sol:HelloWorld",
						"label": "addr5",
						"offset": 0,
						"slot": "8",
						"type": "t_address"
					},
					{
						"astId": 62,
						"contract": "_11_数据类型_值类型_地址类型.sol:HelloWorld",
						"label": "addr6",
						"offset": 0,
						"slot": "9",
						"type": "t_address"
					}
				],
				"types": {
					"t_address": {
						"encoding": "inplace",
						"label": "address",
						"numberOfBytes": "20"
					},
					"t_address_payable": {
						"encoding": "inplace",
						"label": "address payable",
						"numberOfBytes": "20"
					},
					"t_bytes20": {
						"encoding": "inplace",
						"label": "bytes20",
						"numberOfBytes": "20"
					},
					"t_bytes32": {
						"encoding": "inplace",
						"label": "bytes32",
						"numberOfBytes": "32"
					},
					"t_uint160": {
						"encoding": "inplace",
						"label": "uint160",
						"numberOfBytes": "20"
					}
				}
			},
			"userdoc": {
				"kind": "user",
				"methods": {
					"addr1()": {
						"notice": "地址分为外部地址和合约地址, 每个地址都有一块持久化内存区, 称为存储 - 一个地址20字节 - 地址支持<=, <, ==, !=, >=, > (直接转成10进制比较) - 地址有两种类型:  address address payable(可支付地址): 与address相同，不过有成员函数transfer和send,  可以向可支付地址发送以太币, 而不能向一个普通地址发送以太币 - 可支付地址可以隐式转换为普通地址, 普通地址必须通过payable()函数转换为可支付地址 - address可以和uint160, 整型字面量, bytes20, 合约类型相互转换"
					},
					"getBalance()": {
						"notice": "address成员变量: - balance: 类型uint256, 表示当前账户余额,单位Wei - code: 类型bytes memory, 表示当前地址上的代码 - codehash: 类型bytes32, 表示当前地址上的code的hash address方法: "
					}
				},
				"version": 1
			}
		}
	}
}