{
	"_12_数据类型_值类型_地址的方法.sol": {
		"Caller": {
			"abi": [
				{
					"inputs": [
						{
							"internalType": "address",
							"name": "addr",
							"type": "address"
						}
					],
					"name": "callTest",
					"outputs": [
						{
							"internalType": "address",
							"name": "",
							"type": "address"
						},
						{
							"internalType": "address",
							"name": "",
							"type": "address"
						},
						{
							"internalType": "uint256",
							"name": "",
							"type": "uint256"
						}
					],
					"stateMutability": "nonpayable",
					"type": "function"
				},
				{
					"inputs": [
						{
							"internalType": "address",
							"name": "addr",
							"type": "address"
						}
					],
					"name": "delegatecallTest",
					"outputs": [
						{
							"internalType": "address",
							"name": "",
							"type": "address"
						},
						{
							"internalType": "address",
							"name": "",
							"type": "address"
						},
						{
							"internalType": "uint256",
							"name": "",
							"type": "uint256"
						},
						{
							"internalType": "bool",
							"name": "",
							"type": "bool"
						}
					],
					"stateMutability": "nonpayable",
					"type": "function"
				},
				{
					"inputs": [
						{
							"internalType": "address",
							"name": "addr",
							"type": "address"
						}
					],
					"name": "staticcallTest",
					"outputs": [
						{
							"internalType": "address",
							"name": "",
							"type": "address"
						},
						{
							"internalType": "address",
							"name": "",
							"type": "address"
						},
						{
							"internalType": "uint256",
							"name": "",
							"type": "uint256"
						}
					],
					"stateMutability": "nonpayable",
					"type": "function"
				},
				{
					"inputs": [],
					"name": "testAddress",
					"outputs": [],
					"stateMutability": "view",
					"type": "function"
				}
			],
			"devdoc": {
				"kind": "dev",
				"methods": {},
				"version": 1
			},
			"evm": {
				"assembly": "    /* \"_12_\\xe6\\x95\\xb0\\xe6\\x8d\\xae\\xe7\\xb1\\xbb\\xe5\\x9e\\x8b_\\xe5\\x80\\xbc\\xe7\\xb1\\xbb\\xe5\\x9e\\x8b_\\xe5\\x9c\\xb0\\xe5\\x9d\\x80\\xe7\\x9a\\x84\\xe6\\x96\\xb9\\xe6\\xb3\\x95.sol\":66:3217  contract Caller {... */\n  mstore(0x40, 0x80)\n  callvalue\n  dup1\n  iszero\n  tag_1\n  jumpi\n  0x00\n  dup1\n  revert\ntag_1:\n  pop\n  dataSize(sub_0)\n  dup1\n  dataOffset(sub_0)\n  0x00\n  codecopy\n  0x00\n  return\nstop\n\nsub_0: assembly {\n        /* \"_12_\\xe6\\x95\\xb0\\xe6\\x8d\\xae\\xe7\\xb1\\xbb\\xe5\\x9e\\x8b_\\xe5\\x80\\xbc\\xe7\\xb1\\xbb\\xe5\\x9e\\x8b_\\xe5\\x9c\\xb0\\xe5\\x9d\\x80\\xe7\\x9a\\x84\\xe6\\x96\\xb9\\xe6\\xb3\\x95.sol\":66:3217  contract Caller {... */\n      mstore(0x40, 0x80)\n      callvalue\n      dup1\n      iszero\n      tag_1\n      jumpi\n      0x00\n      dup1\n      revert\n    tag_1:\n      pop\n      jumpi(tag_2, lt(calldatasize, 0x04))\n      shr(0xe0, calldataload(0x00))\n      dup1\n      0x262330b4\n      eq\n      tag_3\n      jumpi\n      dup1\n      0x32eb12f1\n      eq\n      tag_4\n      jumpi\n      dup1\n      0x33a48d09\n      eq\n      tag_5\n      jumpi\n      dup1\n      0xeb3134c9\n      eq\n      tag_6\n      jumpi\n    tag_2:\n      0x00\n      dup1\n      revert\n        /* \"_12_\\xe6\\x95\\xb0\\xe6\\x8d\\xae\\xe7\\xb1\\xbb\\xe5\\x9e\\x8b_\\xe5\\x80\\xbc\\xe7\\xb1\\xbb\\xe5\\x9e\\x8b_\\xe5\\x9c\\xb0\\xe5\\x9d\\x80\\xe7\\x9a\\x84\\xe6\\x96\\xb9\\xe6\\xb3\\x95.sol\":252:456  function testAddress() public view {... */\n    tag_3:\n      tag_7\n      tag_8\n      jump\t// in\n    tag_7:\n      stop\n        /* \"_12_\\xe6\\x95\\xb0\\xe6\\x8d\\xae\\xe7\\xb1\\xbb\\xe5\\x9e\\x8b_\\xe5\\x80\\xbc\\xe7\\xb1\\xbb\\xe5\\x9e\\x8b_\\xe5\\x9c\\xb0\\xe5\\x9d\\x80\\xe7\\x9a\\x84\\xe6\\x96\\xb9\\xe6\\xb3\\x95.sol\":1685:2212  function callTest(address addr) public  returns (address,  address,  uint) {... */\n    tag_4:\n      tag_9\n      0x04\n      dup1\n      calldatasize\n      sub\n      dup2\n      add\n      swap1\n      tag_10\n      swap2\n      swap1\n      tag_11\n      jump\t// in\n    tag_10:\n      tag_12\n      jump\t// in\n    tag_9:\n      mload(0x40)\n      tag_13\n      swap4\n      swap3\n      swap2\n      swap1\n      tag_14\n      jump\t// in\n    tag_13:\n      mload(0x40)\n      dup1\n      swap2\n      sub\n      swap1\n      return\n        /* \"_12_\\xe6\\x95\\xb0\\xe6\\x8d\\xae\\xe7\\xb1\\xbb\\xe5\\x9e\\x8b_\\xe5\\x80\\xbc\\xe7\\xb1\\xbb\\xe5\\x9e\\x8b_\\xe5\\x9c\\xb0\\xe5\\x9d\\x80\\xe7\\x9a\\x84\\xe6\\x96\\xb9\\xe6\\xb3\\x95.sol\":2218:2807  function delegatecallTest(address addr) public  returns (address,  address,  uint, bool){... */\n    tag_5:\n      tag_15\n      0x04\n      dup1\n      calldatasize\n      sub\n      dup2\n      add\n      swap1\n      tag_16\n      swap2\n      swap1\n      tag_11\n      jump\t// in\n    tag_16:\n      tag_17\n      jump\t// in\n    tag_15:\n      mload(0x40)\n      tag_18\n      swap5\n      swap4\n      swap3\n      swap2\n      swap1\n      tag_19\n      jump\t// in\n    tag_18:\n      mload(0x40)\n      dup1\n      swap2\n      sub\n      swap1\n      return\n        /* \"_12_\\xe6\\x95\\xb0\\xe6\\x8d\\xae\\xe7\\xb1\\xbb\\xe5\\x9e\\x8b_\\xe5\\x80\\xbc\\xe7\\xb1\\xbb\\xe5\\x9e\\x8b_\\xe5\\x9c\\xb0\\xe5\\x9d\\x80\\xe7\\x9a\\x84\\xe6\\x96\\xb9\\xe6\\xb3\\x95.sol\":2813:3212  function staticcallTest(address addr) public  returns (address,  address,  uint){... */\n    tag_6:\n      tag_20\n      0x04\n      dup1\n      calldatasize\n      sub\n      dup2\n      add\n      swap1\n      tag_21\n      swap2\n      swap1\n      tag_11\n      jump\t// in\n    tag_21:\n      tag_22\n      jump\t// in\n    tag_20:\n      mload(0x40)\n      tag_23\n      swap4\n      swap3\n      swap2\n      swap1\n      tag_14\n      jump\t// in\n    tag_23:\n      mload(0x40)\n      dup1\n      swap2\n      sub\n      swap1\n      return\n        /* \"_12_\\xe6\\x95\\xb0\\xe6\\x8d\\xae\\xe7\\xb1\\xbb\\xe5\\x9e\\x8b_\\xe5\\x80\\xbc\\xe7\\xb1\\xbb\\xe5\\x9e\\x8b_\\xe5\\x9c\\xb0\\xe5\\x9d\\x80\\xe7\\x9a\\x84\\xe6\\x96\\xb9\\xe6\\xb3\\x95.sol\":252:456  function testAddress() public view {... */\n    tag_8:\n        /* \"_12_\\xe6\\x95\\xb0\\xe6\\x8d\\xae\\xe7\\xb1\\xbb\\xe5\\x9e\\x8b_\\xe5\\x80\\xbc\\xe7\\xb1\\xbb\\xe5\\x9e\\x8b_\\xe5\\x9c\\xb0\\xe5\\x9d\\x80\\xe7\\x9a\\x84\\xe6\\x96\\xb9\\xe6\\xb3\\x95.sol\":298:313  address current */\n      0x00\n        /* \"_12_\\xe6\\x95\\xb0\\xe6\\x8d\\xae\\xe7\\xb1\\xbb\\xe5\\x9e\\x8b_\\xe5\\x80\\xbc\\xe7\\xb1\\xbb\\xe5\\x9e\\x8b_\\xe5\\x9c\\xb0\\xe5\\x9d\\x80\\xe7\\x9a\\x84\\xe6\\x96\\xb9\\xe6\\xb3\\x95.sol\":324:328  this */\n      address\n        /* \"_12_\\xe6\\x95\\xb0\\xe6\\x8d\\xae\\xe7\\xb1\\xbb\\xe5\\x9e\\x8b_\\xe5\\x80\\xbc\\xe7\\xb1\\xbb\\xe5\\x9e\\x8b_\\xe5\\x9c\\xb0\\xe5\\x9d\\x80\\xe7\\x9a\\x84\\xe6\\x96\\xb9\\xe6\\xb3\\x95.sol\":298:329  address current = address(this) */\n      swap1\n      pop\n        /* \"_12_\\xe6\\x95\\xb0\\xe6\\x8d\\xae\\xe7\\xb1\\xbb\\xe5\\x9e\\x8b_\\xe5\\x80\\xbc\\xe7\\xb1\\xbb\\xe5\\x9e\\x8b_\\xe5\\x9c\\xb0\\xe5\\x9d\\x80\\xe7\\x9a\\x84\\xe6\\x96\\xb9\\xe6\\xb3\\x95.sol\":368:394  address payable currentPay */\n      0x00\n        /* \"_12_\\xe6\\x95\\xb0\\xe6\\x8d\\xae\\xe7\\xb1\\xbb\\xe5\\x9e\\x8b_\\xe5\\x80\\xbc\\xe7\\xb1\\xbb\\xe5\\x9e\\x8b_\\xe5\\x9c\\xb0\\xe5\\x9d\\x80\\xe7\\x9a\\x84\\xe6\\x96\\xb9\\xe6\\xb3\\x95.sol\":405:412  current */\n      dup2\n        /* \"_12_\\xe6\\x95\\xb0\\xe6\\x8d\\xae\\xe7\\xb1\\xbb\\xe5\\x9e\\x8b_\\xe5\\x80\\xbc\\xe7\\xb1\\xbb\\xe5\\x9e\\x8b_\\xe5\\x9c\\xb0\\xe5\\x9d\\x80\\xe7\\x9a\\x84\\xe6\\x96\\xb9\\xe6\\xb3\\x95.sol\":368:413  address payable currentPay = payable(current) */\n      swap1\n      pop\n        /* \"_12_\\xe6\\x95\\xb0\\xe6\\x8d\\xae\\xe7\\xb1\\xbb\\xe5\\x9e\\x8b_\\xe5\\x80\\xbc\\xe7\\xb1\\xbb\\xe5\\x9e\\x8b_\\xe5\\x9c\\xb0\\xe5\\x9d\\x80\\xe7\\x9a\\x84\\xe6\\x96\\xb9\\xe6\\xb3\\x95.sol\":287:456  {... */\n      pop\n      pop\n        /* \"_12_\\xe6\\x95\\xb0\\xe6\\x8d\\xae\\xe7\\xb1\\xbb\\xe5\\x9e\\x8b_\\xe5\\x80\\xbc\\xe7\\xb1\\xbb\\xe5\\x9e\\x8b_\\xe5\\x9c\\xb0\\xe5\\x9d\\x80\\xe7\\x9a\\x84\\xe6\\x96\\xb9\\xe6\\xb3\\x95.sol\":252:456  function testAddress() public view {... */\n      jump\t// out\n        /* \"_12_\\xe6\\x95\\xb0\\xe6\\x8d\\xae\\xe7\\xb1\\xbb\\xe5\\x9e\\x8b_\\xe5\\x80\\xbc\\xe7\\xb1\\xbb\\xe5\\x9e\\x8b_\\xe5\\x9c\\xb0\\xe5\\x9d\\x80\\xe7\\x9a\\x84\\xe6\\x96\\xb9\\xe6\\xb3\\x95.sol\":1685:2212  function callTest(address addr) public  returns (address,  address,  uint) {... */\n    tag_12:\n        /* \"_12_\\xe6\\x95\\xb0\\xe6\\x8d\\xae\\xe7\\xb1\\xbb\\xe5\\x9e\\x8b_\\xe5\\x80\\xbc\\xe7\\xb1\\xbb\\xe5\\x9e\\x8b_\\xe5\\x9c\\xb0\\xe5\\x9d\\x80\\xe7\\x9a\\x84\\xe6\\x96\\xb9\\xe6\\xb3\\x95.sol\":1734:1741  address */\n      0x00\n        /* \"_12_\\xe6\\x95\\xb0\\xe6\\x8d\\xae\\xe7\\xb1\\xbb\\xe5\\x9e\\x8b_\\xe5\\x80\\xbc\\xe7\\xb1\\xbb\\xe5\\x9e\\x8b_\\xe5\\x9c\\xb0\\xe5\\x9d\\x80\\xe7\\x9a\\x84\\xe6\\x96\\xb9\\xe6\\xb3\\x95.sol\":1744:1751  address */\n      dup1\n        /* \"_12_\\xe6\\x95\\xb0\\xe6\\x8d\\xae\\xe7\\xb1\\xbb\\xe5\\x9e\\x8b_\\xe5\\x80\\xbc\\xe7\\xb1\\xbb\\xe5\\x9e\\x8b_\\xe5\\x9c\\xb0\\xe5\\x9d\\x80\\xe7\\x9a\\x84\\xe6\\x96\\xb9\\xe6\\xb3\\x95.sol\":1754:1758  uint */\n      0x00\n        /* \"_12_\\xe6\\x95\\xb0\\xe6\\x8d\\xae\\xe7\\xb1\\xbb\\xe5\\x9e\\x8b_\\xe5\\x80\\xbc\\xe7\\xb1\\xbb\\xe5\\x9e\\x8b_\\xe5\\x9c\\xb0\\xe5\\x9d\\x80\\xe7\\x9a\\x84\\xe6\\x96\\xb9\\xe6\\xb3\\x95.sol\":1772:1784  bool success */\n      dup1\n        /* \"_12_\\xe6\\x95\\xb0\\xe6\\x8d\\xae\\xe7\\xb1\\xbb\\xe5\\x9e\\x8b_\\xe5\\x80\\xbc\\xe7\\xb1\\xbb\\xe5\\x9e\\x8b_\\xe5\\x9c\\xb0\\xe5\\x9d\\x80\\xe7\\x9a\\x84\\xe6\\x96\\xb9\\xe6\\xb3\\x95.sol\":1786:1803  bytes memory data */\n      0x00\n        /* \"_12_\\xe6\\x95\\xb0\\xe6\\x8d\\xae\\xe7\\xb1\\xbb\\xe5\\x9e\\x8b_\\xe5\\x80\\xbc\\xe7\\xb1\\xbb\\xe5\\x9e\\x8b_\\xe5\\x9c\\xb0\\xe5\\x9d\\x80\\xe7\\x9a\\x84\\xe6\\x96\\xb9\\xe6\\xb3\\x95.sol\":1807:1811  addr */\n      dup6\n        /* \"_12_\\xe6\\x95\\xb0\\xe6\\x8d\\xae\\xe7\\xb1\\xbb\\xe5\\x9e\\x8b_\\xe5\\x80\\xbc\\xe7\\xb1\\xbb\\xe5\\x9e\\x8b_\\xe5\\x9c\\xb0\\xe5\\x9d\\x80\\xe7\\x9a\\x84\\xe6\\x96\\xb9\\xe6\\xb3\\x95.sol\":1807:1816  addr.call */\n      0xffffffffffffffffffffffffffffffffffffffff\n      and\n        /* \"_12_\\xe6\\x95\\xb0\\xe6\\x8d\\xae\\xe7\\xb1\\xbb\\xe5\\x9e\\x8b_\\xe5\\x80\\xbc\\xe7\\xb1\\xbb\\xe5\\x9e\\x8b_\\xe5\\x9c\\xb0\\xe5\\x9d\\x80\\xe7\\x9a\\x84\\xe6\\x96\\xb9\\xe6\\xb3\\x95.sol\":1882:1883  1 */\n      0x01\n        /* \"_12_\\xe6\\x95\\xb0\\xe6\\x8d\\xae\\xe7\\xb1\\xbb\\xe5\\x9e\\x8b_\\xe5\\x80\\xbc\\xe7\\xb1\\xbb\\xe5\\x9e\\x8b_\\xe5\\x9c\\xb0\\xe5\\x9d\\x80\\xe7\\x9a\\x84\\xe6\\x96\\xb9\\xe6\\xb3\\x95.sol\":1885:1886  2 */\n      0x02\n        /* \"_12_\\xe6\\x95\\xb0\\xe6\\x8d\\xae\\xe7\\xb1\\xbb\\xe5\\x9e\\x8b_\\xe5\\x80\\xbc\\xe7\\xb1\\xbb\\xe5\\x9e\\x8b_\\xe5\\x9c\\xb0\\xe5\\x9d\\x80\\xe7\\x9a\\x84\\xe6\\x96\\xb9\\xe6\\xb3\\x95.sol\":1817:1887  abi.encodeWithSignature(\"getAddressAndBalance(uint256,uint256)\", 1, 2) */\n      add(0x24, mload(0x40))\n      tag_26\n      swap3\n      swap2\n      swap1\n      tag_27\n      jump\t// in\n    tag_26:\n      mload(0x40)\n      0x20\n      dup2\n      dup4\n      sub\n      sub\n      dup2\n      mstore\n      swap1\n      0x40\n      mstore\n      and(not(0xffffffffffffffffffffffffffffffffffffffffffffffffffffffff), 0x492cecf700000000000000000000000000000000000000000000000000000000)\n      0x20\n      dup3\n      add\n      dup1\n      mload\n      0xffffffffffffffffffffffffffffffffffffffffffffffffffffffff\n      dup4\n      dup2\n      dup4\n      and\n      or\n      dup4\n      mstore\n      pop\n      pop\n      pop\n      pop\n        /* \"_12_\\xe6\\x95\\xb0\\xe6\\x8d\\xae\\xe7\\xb1\\xbb\\xe5\\x9e\\x8b_\\xe5\\x80\\xbc\\xe7\\xb1\\xbb\\xe5\\x9e\\x8b_\\xe5\\x9c\\xb0\\xe5\\x9d\\x80\\xe7\\x9a\\x84\\xe6\\x96\\xb9\\xe6\\xb3\\x95.sol\":1807:1888  addr.call(abi.encodeWithSignature(\"getAddressAndBalance(uint256,uint256)\", 1, 2)) */\n      mload(0x40)\n      tag_28\n      swap2\n      swap1\n      tag_29\n      jump\t// in\n    tag_28:\n      0x00\n      mload(0x40)\n      dup1\n      dup4\n      sub\n      dup2\n      0x00\n      dup7\n      gas\n      call\n      swap2\n      pop\n      pop\n      returndatasize\n      dup1\n      0x00\n      dup2\n      eq\n      tag_32\n      jumpi\n      mload(0x40)\n      swap2\n      pop\n      and(add(returndatasize, 0x3f), not(0x1f))\n      dup3\n      add\n      0x40\n      mstore\n      returndatasize\n      dup3\n      mstore\n      returndatasize\n      0x00\n      0x20\n      dup5\n      add\n      returndatacopy\n      jump(tag_31)\n    tag_32:\n      0x60\n      swap2\n      pop\n    tag_31:\n      pop\n        /* \"_12_\\xe6\\x95\\xb0\\xe6\\x8d\\xae\\xe7\\xb1\\xbb\\xe5\\x9e\\x8b_\\xe5\\x80\\xbc\\xe7\\xb1\\xbb\\xe5\\x9e\\x8b_\\xe5\\x9c\\xb0\\xe5\\x9d\\x80\\xe7\\x9a\\x84\\xe6\\x96\\xb9\\xe6\\xb3\\x95.sol\":1771:1888  (bool success, bytes memory data) = addr.call(abi.encodeWithSignature(\"getAddressAndBalance(uint256,uint256)\", 1, 2)) */\n      swap2\n      pop\n      swap2\n      pop\n        /* \"_12_\\xe6\\x95\\xb0\\xe6\\x8d\\xae\\xe7\\xb1\\xbb\\xe5\\x9e\\x8b_\\xe5\\x80\\xbc\\xe7\\xb1\\xbb\\xe5\\x9e\\x8b_\\xe5\\x9c\\xb0\\xe5\\x9d\\x80\\xe7\\x9a\\x84\\xe6\\x96\\xb9\\xe6\\xb3\\x95.sol\":2065:2079  address sender */\n      0x00\n        /* \"_12_\\xe6\\x95\\xb0\\xe6\\x8d\\xae\\xe7\\xb1\\xbb\\xe5\\x9e\\x8b_\\xe5\\x80\\xbc\\xe7\\xb1\\xbb\\xe5\\x9e\\x8b_\\xe5\\x9c\\xb0\\xe5\\x9d\\x80\\xe7\\x9a\\x84\\xe6\\x96\\xb9\\xe6\\xb3\\x95.sol\":2082:2095  address _this */\n      dup1\n        /* \"_12_\\xe6\\x95\\xb0\\xe6\\x8d\\xae\\xe7\\xb1\\xbb\\xe5\\x9e\\x8b_\\xe5\\x80\\xbc\\xe7\\xb1\\xbb\\xe5\\x9e\\x8b_\\xe5\\x9c\\xb0\\xe5\\x9d\\x80\\xe7\\x9a\\x84\\xe6\\x96\\xb9\\xe6\\xb3\\x95.sol\":2098:2111  uint _balance */\n      0x00\n        /* \"_12_\\xe6\\x95\\xb0\\xe6\\x8d\\xae\\xe7\\xb1\\xbb\\xe5\\x9e\\x8b_\\xe5\\x80\\xbc\\xe7\\xb1\\xbb\\xe5\\x9e\\x8b_\\xe5\\x9c\\xb0\\xe5\\x9d\\x80\\xe7\\x9a\\x84\\xe6\\x96\\xb9\\xe6\\xb3\\x95.sol\":2126:2130  data */\n      dup4\n        /* \"_12_\\xe6\\x95\\xb0\\xe6\\x8d\\xae\\xe7\\xb1\\xbb\\xe5\\x9e\\x8b_\\xe5\\x80\\xbc\\xe7\\xb1\\xbb\\xe5\\x9e\\x8b_\\xe5\\x9c\\xb0\\xe5\\x9d\\x80\\xe7\\x9a\\x84\\xe6\\x96\\xb9\\xe6\\xb3\\x95.sol\":2115:2157  abi.decode(data, (address, address, uint)) */\n      dup1\n      0x20\n      add\n      swap1\n      mload\n      dup2\n      add\n      swap1\n      tag_33\n      swap2\n      swap1\n      tag_34\n      jump\t// in\n    tag_33:\n        /* \"_12_\\xe6\\x95\\xb0\\xe6\\x8d\\xae\\xe7\\xb1\\xbb\\xe5\\x9e\\x8b_\\xe5\\x80\\xbc\\xe7\\xb1\\xbb\\xe5\\x9e\\x8b_\\xe5\\x9c\\xb0\\xe5\\x9d\\x80\\xe7\\x9a\\x84\\xe6\\x96\\xb9\\xe6\\xb3\\x95.sol\":2064:2157  (address sender,  address _this,  uint _balance) = abi.decode(data, (address, address, uint)) */\n      swap3\n      pop\n      swap3\n      pop\n      swap3\n      pop\n        /* \"_12_\\xe6\\x95\\xb0\\xe6\\x8d\\xae\\xe7\\xb1\\xbb\\xe5\\x9e\\x8b_\\xe5\\x80\\xbc\\xe7\\xb1\\xbb\\xe5\\x9e\\x8b_\\xe5\\x9c\\xb0\\xe5\\x9d\\x80\\xe7\\x9a\\x84\\xe6\\x96\\xb9\\xe6\\xb3\\x95.sol\":2176:2182  sender */\n      dup3\n        /* \"_12_\\xe6\\x95\\xb0\\xe6\\x8d\\xae\\xe7\\xb1\\xbb\\xe5\\x9e\\x8b_\\xe5\\x80\\xbc\\xe7\\xb1\\xbb\\xe5\\x9e\\x8b_\\xe5\\x9c\\xb0\\xe5\\x9d\\x80\\xe7\\x9a\\x84\\xe6\\x96\\xb9\\xe6\\xb3\\x95.sol\":2186:2191  _this */\n      dup3\n        /* \"_12_\\xe6\\x95\\xb0\\xe6\\x8d\\xae\\xe7\\xb1\\xbb\\xe5\\x9e\\x8b_\\xe5\\x80\\xbc\\xe7\\xb1\\xbb\\xe5\\x9e\\x8b_\\xe5\\x9c\\xb0\\xe5\\x9d\\x80\\xe7\\x9a\\x84\\xe6\\x96\\xb9\\xe6\\xb3\\x95.sol\":2195:2203  _balance */\n      dup3\n        /* \"_12_\\xe6\\x95\\xb0\\xe6\\x8d\\xae\\xe7\\xb1\\xbb\\xe5\\x9e\\x8b_\\xe5\\x80\\xbc\\xe7\\xb1\\xbb\\xe5\\x9e\\x8b_\\xe5\\x9c\\xb0\\xe5\\x9d\\x80\\xe7\\x9a\\x84\\xe6\\x96\\xb9\\xe6\\xb3\\x95.sol\":2167:2204  return ( sender,   _this,   _balance) */\n      swap8\n      pop\n      swap8\n      pop\n      swap8\n      pop\n      pop\n      pop\n      pop\n      pop\n      pop\n        /* \"_12_\\xe6\\x95\\xb0\\xe6\\x8d\\xae\\xe7\\xb1\\xbb\\xe5\\x9e\\x8b_\\xe5\\x80\\xbc\\xe7\\xb1\\xbb\\xe5\\x9e\\x8b_\\xe5\\x9c\\xb0\\xe5\\x9d\\x80\\xe7\\x9a\\x84\\xe6\\x96\\xb9\\xe6\\xb3\\x95.sol\":1685:2212  function callTest(address addr) public  returns (address,  address,  uint) {... */\n      swap2\n      swap4\n      swap1\n      swap3\n      pop\n      jump\t// out\n        /* \"_12_\\xe6\\x95\\xb0\\xe6\\x8d\\xae\\xe7\\xb1\\xbb\\xe5\\x9e\\x8b_\\xe5\\x80\\xbc\\xe7\\xb1\\xbb\\xe5\\x9e\\x8b_\\xe5\\x9c\\xb0\\xe5\\x9d\\x80\\xe7\\x9a\\x84\\xe6\\x96\\xb9\\xe6\\xb3\\x95.sol\":2218:2807  function delegatecallTest(address addr) public  returns (address,  address,  uint, bool){... */\n    tag_17:\n        /* \"_12_\\xe6\\x95\\xb0\\xe6\\x8d\\xae\\xe7\\xb1\\xbb\\xe5\\x9e\\x8b_\\xe5\\x80\\xbc\\xe7\\xb1\\xbb\\xe5\\x9e\\x8b_\\xe5\\x9c\\xb0\\xe5\\x9d\\x80\\xe7\\x9a\\x84\\xe6\\x96\\xb9\\xe6\\xb3\\x95.sol\":2275:2282  address */\n      0x00\n        /* \"_12_\\xe6\\x95\\xb0\\xe6\\x8d\\xae\\xe7\\xb1\\xbb\\xe5\\x9e\\x8b_\\xe5\\x80\\xbc\\xe7\\xb1\\xbb\\xe5\\x9e\\x8b_\\xe5\\x9c\\xb0\\xe5\\x9d\\x80\\xe7\\x9a\\x84\\xe6\\x96\\xb9\\xe6\\xb3\\x95.sol\":2285:2292  address */\n      dup1\n        /* \"_12_\\xe6\\x95\\xb0\\xe6\\x8d\\xae\\xe7\\xb1\\xbb\\xe5\\x9e\\x8b_\\xe5\\x80\\xbc\\xe7\\xb1\\xbb\\xe5\\x9e\\x8b_\\xe5\\x9c\\xb0\\xe5\\x9d\\x80\\xe7\\x9a\\x84\\xe6\\x96\\xb9\\xe6\\xb3\\x95.sol\":2295:2299  uint */\n      0x00\n        /* \"_12_\\xe6\\x95\\xb0\\xe6\\x8d\\xae\\xe7\\xb1\\xbb\\xe5\\x9e\\x8b_\\xe5\\x80\\xbc\\xe7\\xb1\\xbb\\xe5\\x9e\\x8b_\\xe5\\x9c\\xb0\\xe5\\x9d\\x80\\xe7\\x9a\\x84\\xe6\\x96\\xb9\\xe6\\xb3\\x95.sol\":2301:2305  bool */\n      dup1\n        /* \"_12_\\xe6\\x95\\xb0\\xe6\\x8d\\xae\\xe7\\xb1\\xbb\\xe5\\x9e\\x8b_\\xe5\\x80\\xbc\\xe7\\xb1\\xbb\\xe5\\x9e\\x8b_\\xe5\\x9c\\xb0\\xe5\\x9d\\x80\\xe7\\x9a\\x84\\xe6\\x96\\xb9\\xe6\\xb3\\x95.sol\":2318:2330  bool success */\n      0x00\n        /* \"_12_\\xe6\\x95\\xb0\\xe6\\x8d\\xae\\xe7\\xb1\\xbb\\xe5\\x9e\\x8b_\\xe5\\x80\\xbc\\xe7\\xb1\\xbb\\xe5\\x9e\\x8b_\\xe5\\x9c\\xb0\\xe5\\x9d\\x80\\xe7\\x9a\\x84\\xe6\\x96\\xb9\\xe6\\xb3\\x95.sol\":2332:2349  bytes memory data */\n      dup1\n        /* \"_12_\\xe6\\x95\\xb0\\xe6\\x8d\\xae\\xe7\\xb1\\xbb\\xe5\\x9e\\x8b_\\xe5\\x80\\xbc\\xe7\\xb1\\xbb\\xe5\\x9e\\x8b_\\xe5\\x9c\\xb0\\xe5\\x9d\\x80\\xe7\\x9a\\x84\\xe6\\x96\\xb9\\xe6\\xb3\\x95.sol\":2353:2357  addr */\n      dup7\n        /* \"_12_\\xe6\\x95\\xb0\\xe6\\x8d\\xae\\xe7\\xb1\\xbb\\xe5\\x9e\\x8b_\\xe5\\x80\\xbc\\xe7\\xb1\\xbb\\xe5\\x9e\\x8b_\\xe5\\x9c\\xb0\\xe5\\x9d\\x80\\xe7\\x9a\\x84\\xe6\\x96\\xb9\\xe6\\xb3\\x95.sol\":2353:2370  addr.delegatecall */\n      0xffffffffffffffffffffffffffffffffffffffff\n      and\n        /* \"_12_\\xe6\\x95\\xb0\\xe6\\x8d\\xae\\xe7\\xb1\\xbb\\xe5\\x9e\\x8b_\\xe5\\x80\\xbc\\xe7\\xb1\\xbb\\xe5\\x9e\\x8b_\\xe5\\x9c\\xb0\\xe5\\x9d\\x80\\xe7\\x9a\\x84\\xe6\\x96\\xb9\\xe6\\xb3\\x95.sol\":2436:2437  1 */\n      0x01\n        /* \"_12_\\xe6\\x95\\xb0\\xe6\\x8d\\xae\\xe7\\xb1\\xbb\\xe5\\x9e\\x8b_\\xe5\\x80\\xbc\\xe7\\xb1\\xbb\\xe5\\x9e\\x8b_\\xe5\\x9c\\xb0\\xe5\\x9d\\x80\\xe7\\x9a\\x84\\xe6\\x96\\xb9\\xe6\\xb3\\x95.sol\":2439:2440  2 */\n      0x02\n        /* \"_12_\\xe6\\x95\\xb0\\xe6\\x8d\\xae\\xe7\\xb1\\xbb\\xe5\\x9e\\x8b_\\xe5\\x80\\xbc\\xe7\\xb1\\xbb\\xe5\\x9e\\x8b_\\xe5\\x9c\\xb0\\xe5\\x9d\\x80\\xe7\\x9a\\x84\\xe6\\x96\\xb9\\xe6\\xb3\\x95.sol\":2371:2441  abi.encodeWithSignature(\"getAddressAndBalance(uint256,uint256)\", 1, 2) */\n      add(0x24, mload(0x40))\n      tag_36\n      swap3\n      swap2\n      swap1\n      tag_27\n      jump\t// in\n    tag_36:\n      mload(0x40)\n      0x20\n      dup2\n      dup4\n      sub\n      sub\n      dup2\n      mstore\n      swap1\n      0x40\n      mstore\n      and(not(0xffffffffffffffffffffffffffffffffffffffffffffffffffffffff), 0x492cecf700000000000000000000000000000000000000000000000000000000)\n      0x20\n      dup3\n      add\n      dup1\n      mload\n      0xffffffffffffffffffffffffffffffffffffffffffffffffffffffff\n      dup4\n      dup2\n      dup4\n      and\n      or\n      dup4\n      mstore\n      pop\n      pop\n      pop\n      pop\n        /* \"_12_\\xe6\\x95\\xb0\\xe6\\x8d\\xae\\xe7\\xb1\\xbb\\xe5\\x9e\\x8b_\\xe5\\x80\\xbc\\xe7\\xb1\\xbb\\xe5\\x9e\\x8b_\\xe5\\x9c\\xb0\\xe5\\x9d\\x80\\xe7\\x9a\\x84\\xe6\\x96\\xb9\\xe6\\xb3\\x95.sol\":2353:2442  addr.delegatecall(abi.encodeWithSignature(\"getAddressAndBalance(uint256,uint256)\", 1, 2)) */\n      mload(0x40)\n      tag_37\n      swap2\n      swap1\n      tag_29\n      jump\t// in\n    tag_37:\n      0x00\n      mload(0x40)\n      dup1\n      dup4\n      sub\n      dup2\n      dup6\n      gas\n      delegatecall\n      swap2\n      pop\n      pop\n      returndatasize\n      dup1\n      0x00\n      dup2\n      eq\n      tag_40\n      jumpi\n      mload(0x40)\n      swap2\n      pop\n      and(add(returndatasize, 0x3f), not(0x1f))\n      dup3\n      add\n      0x40\n      mstore\n      returndatasize\n      dup3\n      mstore\n      returndatasize\n      0x00\n      0x20\n      dup5\n      add\n      returndatacopy\n      jump(tag_39)\n    tag_40:\n      0x60\n      swap2\n      pop\n    tag_39:\n      pop\n        /* \"_12_\\xe6\\x95\\xb0\\xe6\\x8d\\xae\\xe7\\xb1\\xbb\\xe5\\x9e\\x8b_\\xe5\\x80\\xbc\\xe7\\xb1\\xbb\\xe5\\x9e\\x8b_\\xe5\\x9c\\xb0\\xe5\\x9d\\x80\\xe7\\x9a\\x84\\xe6\\x96\\xb9\\xe6\\xb3\\x95.sol\":2317:2442  (bool success, bytes memory data) = addr.delegatecall(abi.encodeWithSignature(\"getAddressAndBalance(uint256,uint256)\", 1, 2)) */\n      swap2\n      pop\n      swap2\n      pop\n        /* \"_12_\\xe6\\x95\\xb0\\xe6\\x8d\\xae\\xe7\\xb1\\xbb\\xe5\\x9e\\x8b_\\xe5\\x80\\xbc\\xe7\\xb1\\xbb\\xe5\\x9e\\x8b_\\xe5\\x9c\\xb0\\xe5\\x9d\\x80\\xe7\\x9a\\x84\\xe6\\x96\\xb9\\xe6\\xb3\\x95.sol\":2531:2545  address sender */\n      0x00\n        /* \"_12_\\xe6\\x95\\xb0\\xe6\\x8d\\xae\\xe7\\xb1\\xbb\\xe5\\x9e\\x8b_\\xe5\\x80\\xbc\\xe7\\xb1\\xbb\\xe5\\x9e\\x8b_\\xe5\\x9c\\xb0\\xe5\\x9d\\x80\\xe7\\x9a\\x84\\xe6\\x96\\xb9\\xe6\\xb3\\x95.sol\":2548:2561  address _this */\n      dup1\n        /* \"_12_\\xe6\\x95\\xb0\\xe6\\x8d\\xae\\xe7\\xb1\\xbb\\xe5\\x9e\\x8b_\\xe5\\x80\\xbc\\xe7\\xb1\\xbb\\xe5\\x9e\\x8b_\\xe5\\x9c\\xb0\\xe5\\x9d\\x80\\xe7\\x9a\\x84\\xe6\\x96\\xb9\\xe6\\xb3\\x95.sol\":2564:2577  uint _balance */\n      0x00\n        /* \"_12_\\xe6\\x95\\xb0\\xe6\\x8d\\xae\\xe7\\xb1\\xbb\\xe5\\x9e\\x8b_\\xe5\\x80\\xbc\\xe7\\xb1\\xbb\\xe5\\x9e\\x8b_\\xe5\\x9c\\xb0\\xe5\\x9d\\x80\\xe7\\x9a\\x84\\xe6\\x96\\xb9\\xe6\\xb3\\x95.sol\":2592:2596  data */\n      dup4\n        /* \"_12_\\xe6\\x95\\xb0\\xe6\\x8d\\xae\\xe7\\xb1\\xbb\\xe5\\x9e\\x8b_\\xe5\\x80\\xbc\\xe7\\xb1\\xbb\\xe5\\x9e\\x8b_\\xe5\\x9c\\xb0\\xe5\\x9d\\x80\\xe7\\x9a\\x84\\xe6\\x96\\xb9\\xe6\\xb3\\x95.sol\":2581:2623  abi.decode(data, (address, address, uint)) */\n      dup1\n      0x20\n      add\n      swap1\n      mload\n      dup2\n      add\n      swap1\n      tag_41\n      swap2\n      swap1\n      tag_34\n      jump\t// in\n    tag_41:\n        /* \"_12_\\xe6\\x95\\xb0\\xe6\\x8d\\xae\\xe7\\xb1\\xbb\\xe5\\x9e\\x8b_\\xe5\\x80\\xbc\\xe7\\xb1\\xbb\\xe5\\x9e\\x8b_\\xe5\\x9c\\xb0\\xe5\\x9d\\x80\\xe7\\x9a\\x84\\xe6\\x96\\xb9\\xe6\\xb3\\x95.sol\":2530:2623  (address sender,  address _this,  uint _balance) = abi.decode(data, (address, address, uint)) */\n      swap3\n      pop\n      swap3\n      pop\n      swap3\n      pop\n        /* \"_12_\\xe6\\x95\\xb0\\xe6\\x8d\\xae\\xe7\\xb1\\xbb\\xe5\\x9e\\x8b_\\xe5\\x80\\xbc\\xe7\\xb1\\xbb\\xe5\\x9e\\x8b_\\xe5\\x9c\\xb0\\xe5\\x9d\\x80\\xe7\\x9a\\x84\\xe6\\x96\\xb9\\xe6\\xb3\\x95.sol\":2634:2643  bool same */\n      0x00\n        /* \"_12_\\xe6\\x95\\xb0\\xe6\\x8d\\xae\\xe7\\xb1\\xbb\\xe5\\x9e\\x8b_\\xe5\\x80\\xbc\\xe7\\xb1\\xbb\\xe5\\x9e\\x8b_\\xe5\\x9c\\xb0\\xe5\\x9d\\x80\\xe7\\x9a\\x84\\xe6\\x96\\xb9\\xe6\\xb3\\x95.sol\":2656:2666  msg.sender */\n      caller\n        /* \"_12_\\xe6\\x95\\xb0\\xe6\\x8d\\xae\\xe7\\xb1\\xbb\\xe5\\x9e\\x8b_\\xe5\\x80\\xbc\\xe7\\xb1\\xbb\\xe5\\x9e\\x8b_\\xe5\\x9c\\xb0\\xe5\\x9d\\x80\\xe7\\x9a\\x84\\xe6\\x96\\xb9\\xe6\\xb3\\x95.sol\":2646:2666  sender == msg.sender */\n      0xffffffffffffffffffffffffffffffffffffffff\n      and\n        /* \"_12_\\xe6\\x95\\xb0\\xe6\\x8d\\xae\\xe7\\xb1\\xbb\\xe5\\x9e\\x8b_\\xe5\\x80\\xbc\\xe7\\xb1\\xbb\\xe5\\x9e\\x8b_\\xe5\\x9c\\xb0\\xe5\\x9d\\x80\\xe7\\x9a\\x84\\xe6\\x96\\xb9\\xe6\\xb3\\x95.sol\":2646:2652  sender */\n      dup5\n        /* \"_12_\\xe6\\x95\\xb0\\xe6\\x8d\\xae\\xe7\\xb1\\xbb\\xe5\\x9e\\x8b_\\xe5\\x80\\xbc\\xe7\\xb1\\xbb\\xe5\\x9e\\x8b_\\xe5\\x9c\\xb0\\xe5\\x9d\\x80\\xe7\\x9a\\x84\\xe6\\x96\\xb9\\xe6\\xb3\\x95.sol\":2646:2666  sender == msg.sender */\n      0xffffffffffffffffffffffffffffffffffffffff\n      and\n      eq\n        /* \"_12_\\xe6\\x95\\xb0\\xe6\\x8d\\xae\\xe7\\xb1\\xbb\\xe5\\x9e\\x8b_\\xe5\\x80\\xbc\\xe7\\xb1\\xbb\\xe5\\x9e\\x8b_\\xe5\\x9c\\xb0\\xe5\\x9d\\x80\\xe7\\x9a\\x84\\xe6\\x96\\xb9\\xe6\\xb3\\x95.sol\":2634:2666  bool same = sender == msg.sender */\n      swap1\n      pop\n        /* \"_12_\\xe6\\x95\\xb0\\xe6\\x8d\\xae\\xe7\\xb1\\xbb\\xe5\\x9e\\x8b_\\xe5\\x80\\xbc\\xe7\\xb1\\xbb\\xe5\\x9e\\x8b_\\xe5\\x9c\\xb0\\xe5\\x9d\\x80\\xe7\\x9a\\x84\\xe6\\x96\\xb9\\xe6\\xb3\\x95.sol\":2765:2771  sender */\n      dup4\n        /* \"_12_\\xe6\\x95\\xb0\\xe6\\x8d\\xae\\xe7\\xb1\\xbb\\xe5\\x9e\\x8b_\\xe5\\x80\\xbc\\xe7\\xb1\\xbb\\xe5\\x9e\\x8b_\\xe5\\x9c\\xb0\\xe5\\x9d\\x80\\xe7\\x9a\\x84\\xe6\\x96\\xb9\\xe6\\xb3\\x95.sol\":2775:2780  _this */\n      dup4\n        /* \"_12_\\xe6\\x95\\xb0\\xe6\\x8d\\xae\\xe7\\xb1\\xbb\\xe5\\x9e\\x8b_\\xe5\\x80\\xbc\\xe7\\xb1\\xbb\\xe5\\x9e\\x8b_\\xe5\\x9c\\xb0\\xe5\\x9d\\x80\\xe7\\x9a\\x84\\xe6\\x96\\xb9\\xe6\\xb3\\x95.sol\":2784:2792  _balance */\n      dup4\n        /* \"_12_\\xe6\\x95\\xb0\\xe6\\x8d\\xae\\xe7\\xb1\\xbb\\xe5\\x9e\\x8b_\\xe5\\x80\\xbc\\xe7\\xb1\\xbb\\xe5\\x9e\\x8b_\\xe5\\x9c\\xb0\\xe5\\x9d\\x80\\xe7\\x9a\\x84\\xe6\\x96\\xb9\\xe6\\xb3\\x95.sol\":2794:2798  same */\n      dup4\n        /* \"_12_\\xe6\\x95\\xb0\\xe6\\x8d\\xae\\xe7\\xb1\\xbb\\xe5\\x9e\\x8b_\\xe5\\x80\\xbc\\xe7\\xb1\\xbb\\xe5\\x9e\\x8b_\\xe5\\x9c\\xb0\\xe5\\x9d\\x80\\xe7\\x9a\\x84\\xe6\\x96\\xb9\\xe6\\xb3\\x95.sol\":2756:2799  return ( sender,   _this,   _balance, same) */\n      swap10\n      pop\n      swap10\n      pop\n      swap10\n      pop\n      swap10\n      pop\n      pop\n      pop\n      pop\n      pop\n      pop\n      pop\n        /* \"_12_\\xe6\\x95\\xb0\\xe6\\x8d\\xae\\xe7\\xb1\\xbb\\xe5\\x9e\\x8b_\\xe5\\x80\\xbc\\xe7\\xb1\\xbb\\xe5\\x9e\\x8b_\\xe5\\x9c\\xb0\\xe5\\x9d\\x80\\xe7\\x9a\\x84\\xe6\\x96\\xb9\\xe6\\xb3\\x95.sol\":2218:2807  function delegatecallTest(address addr) public  returns (address,  address,  uint, bool){... */\n      swap2\n      swap4\n      pop\n      swap2\n      swap4\n      jump\t// out\n        /* \"_12_\\xe6\\x95\\xb0\\xe6\\x8d\\xae\\xe7\\xb1\\xbb\\xe5\\x9e\\x8b_\\xe5\\x80\\xbc\\xe7\\xb1\\xbb\\xe5\\x9e\\x8b_\\xe5\\x9c\\xb0\\xe5\\x9d\\x80\\xe7\\x9a\\x84\\xe6\\x96\\xb9\\xe6\\xb3\\x95.sol\":2813:3212  function staticcallTest(address addr) public  returns (address,  address,  uint){... */\n    tag_22:\n        /* \"_12_\\xe6\\x95\\xb0\\xe6\\x8d\\xae\\xe7\\xb1\\xbb\\xe5\\x9e\\x8b_\\xe5\\x80\\xbc\\xe7\\xb1\\xbb\\xe5\\x9e\\x8b_\\xe5\\x9c\\xb0\\xe5\\x9d\\x80\\xe7\\x9a\\x84\\xe6\\x96\\xb9\\xe6\\xb3\\x95.sol\":2868:2875  address */\n      0x00\n        /* \"_12_\\xe6\\x95\\xb0\\xe6\\x8d\\xae\\xe7\\xb1\\xbb\\xe5\\x9e\\x8b_\\xe5\\x80\\xbc\\xe7\\xb1\\xbb\\xe5\\x9e\\x8b_\\xe5\\x9c\\xb0\\xe5\\x9d\\x80\\xe7\\x9a\\x84\\xe6\\x96\\xb9\\xe6\\xb3\\x95.sol\":2878:2885  address */\n      dup1\n        /* \"_12_\\xe6\\x95\\xb0\\xe6\\x8d\\xae\\xe7\\xb1\\xbb\\xe5\\x9e\\x8b_\\xe5\\x80\\xbc\\xe7\\xb1\\xbb\\xe5\\x9e\\x8b_\\xe5\\x9c\\xb0\\xe5\\x9d\\x80\\xe7\\x9a\\x84\\xe6\\x96\\xb9\\xe6\\xb3\\x95.sol\":2888:2892  uint */\n      0x00\n        /* \"_12_\\xe6\\x95\\xb0\\xe6\\x8d\\xae\\xe7\\xb1\\xbb\\xe5\\x9e\\x8b_\\xe5\\x80\\xbc\\xe7\\xb1\\xbb\\xe5\\x9e\\x8b_\\xe5\\x9c\\xb0\\xe5\\x9d\\x80\\xe7\\x9a\\x84\\xe6\\x96\\xb9\\xe6\\xb3\\x95.sol\":2905:2917  bool success */\n      dup1\n        /* \"_12_\\xe6\\x95\\xb0\\xe6\\x8d\\xae\\xe7\\xb1\\xbb\\xe5\\x9e\\x8b_\\xe5\\x80\\xbc\\xe7\\xb1\\xbb\\xe5\\x9e\\x8b_\\xe5\\x9c\\xb0\\xe5\\x9d\\x80\\xe7\\x9a\\x84\\xe6\\x96\\xb9\\xe6\\xb3\\x95.sol\":2919:2936  bytes memory data */\n      0x00\n        /* \"_12_\\xe6\\x95\\xb0\\xe6\\x8d\\xae\\xe7\\xb1\\xbb\\xe5\\x9e\\x8b_\\xe5\\x80\\xbc\\xe7\\xb1\\xbb\\xe5\\x9e\\x8b_\\xe5\\x9c\\xb0\\xe5\\x9d\\x80\\xe7\\x9a\\x84\\xe6\\x96\\xb9\\xe6\\xb3\\x95.sol\":2940:2944  addr */\n      dup6\n        /* \"_12_\\xe6\\x95\\xb0\\xe6\\x8d\\xae\\xe7\\xb1\\xbb\\xe5\\x9e\\x8b_\\xe5\\x80\\xbc\\xe7\\xb1\\xbb\\xe5\\x9e\\x8b_\\xe5\\x9c\\xb0\\xe5\\x9d\\x80\\xe7\\x9a\\x84\\xe6\\x96\\xb9\\xe6\\xb3\\x95.sol\":2940:2955  addr.staticcall */\n      0xffffffffffffffffffffffffffffffffffffffff\n      and\n        /* \"_12_\\xe6\\x95\\xb0\\xe6\\x8d\\xae\\xe7\\xb1\\xbb\\xe5\\x9e\\x8b_\\xe5\\x80\\xbc\\xe7\\xb1\\xbb\\xe5\\x9e\\x8b_\\xe5\\x9c\\xb0\\xe5\\x9d\\x80\\xe7\\x9a\\x84\\xe6\\x96\\xb9\\xe6\\xb3\\x95.sol\":3021:3022  1 */\n      0x01\n        /* \"_12_\\xe6\\x95\\xb0\\xe6\\x8d\\xae\\xe7\\xb1\\xbb\\xe5\\x9e\\x8b_\\xe5\\x80\\xbc\\xe7\\xb1\\xbb\\xe5\\x9e\\x8b_\\xe5\\x9c\\xb0\\xe5\\x9d\\x80\\xe7\\x9a\\x84\\xe6\\x96\\xb9\\xe6\\xb3\\x95.sol\":3024:3025  2 */\n      0x02\n        /* \"_12_\\xe6\\x95\\xb0\\xe6\\x8d\\xae\\xe7\\xb1\\xbb\\xe5\\x9e\\x8b_\\xe5\\x80\\xbc\\xe7\\xb1\\xbb\\xe5\\x9e\\x8b_\\xe5\\x9c\\xb0\\xe5\\x9d\\x80\\xe7\\x9a\\x84\\xe6\\x96\\xb9\\xe6\\xb3\\x95.sol\":2956:3026  abi.encodeWithSignature(\"getAddressAndBalance(uint256,uint256)\", 1, 2) */\n      add(0x24, mload(0x40))\n      tag_43\n      swap3\n      swap2\n      swap1\n      tag_27\n      jump\t// in\n    tag_43:\n      mload(0x40)\n      0x20\n      dup2\n      dup4\n      sub\n      sub\n      dup2\n      mstore\n      swap1\n      0x40\n      mstore\n      and(not(0xffffffffffffffffffffffffffffffffffffffffffffffffffffffff), 0x492cecf700000000000000000000000000000000000000000000000000000000)\n      0x20\n      dup3\n      add\n      dup1\n      mload\n      0xffffffffffffffffffffffffffffffffffffffffffffffffffffffff\n      dup4\n      dup2\n      dup4\n      and\n      or\n      dup4\n      mstore\n      pop\n      pop\n      pop\n      pop\n        /* \"_12_\\xe6\\x95\\xb0\\xe6\\x8d\\xae\\xe7\\xb1\\xbb\\xe5\\x9e\\x8b_\\xe5\\x80\\xbc\\xe7\\xb1\\xbb\\xe5\\x9e\\x8b_\\xe5\\x9c\\xb0\\xe5\\x9d\\x80\\xe7\\x9a\\x84\\xe6\\x96\\xb9\\xe6\\xb3\\x95.sol\":2940:3027  addr.staticcall(abi.encodeWithSignature(\"getAddressAndBalance(uint256,uint256)\", 1, 2)) */\n      mload(0x40)\n      tag_44\n      swap2\n      swap1\n      tag_29\n      jump\t// in\n    tag_44:\n      0x00\n      mload(0x40)\n      dup1\n      dup4\n      sub\n      dup2\n      dup6\n      gas\n      staticcall\n      swap2\n      pop\n      pop\n      returndatasize\n      dup1\n      0x00\n      dup2\n      eq\n      tag_47\n      jumpi\n      mload(0x40)\n      swap2\n      pop\n      and(add(returndatasize, 0x3f), not(0x1f))\n      dup3\n      add\n      0x40\n      mstore\n      returndatasize\n      dup3\n      mstore\n      returndatasize\n      0x00\n      0x20\n      dup5\n      add\n      returndatacopy\n      jump(tag_46)\n    tag_47:\n      0x60\n      swap2\n      pop\n    tag_46:\n      pop\n        /* \"_12_\\xe6\\x95\\xb0\\xe6\\x8d\\xae\\xe7\\xb1\\xbb\\xe5\\x9e\\x8b_\\xe5\\x80\\xbc\\xe7\\xb1\\xbb\\xe5\\x9e\\x8b_\\xe5\\x9c\\xb0\\xe5\\x9d\\x80\\xe7\\x9a\\x84\\xe6\\x96\\xb9\\xe6\\xb3\\x95.sol\":2904:3027  (bool success, bytes memory data) = addr.staticcall(abi.encodeWithSignature(\"getAddressAndBalance(uint256,uint256)\", 1, 2)) */\n      swap2\n      pop\n      swap2\n      pop\n        /* \"_12_\\xe6\\x95\\xb0\\xe6\\x8d\\xae\\xe7\\xb1\\xbb\\xe5\\x9e\\x8b_\\xe5\\x80\\xbc\\xe7\\xb1\\xbb\\xe5\\x9e\\x8b_\\xe5\\x9c\\xb0\\xe5\\x9d\\x80\\xe7\\x9a\\x84\\xe6\\x96\\xb9\\xe6\\xb3\\x95.sol\":3065:3079  address sender */\n      0x00\n        /* \"_12_\\xe6\\x95\\xb0\\xe6\\x8d\\xae\\xe7\\xb1\\xbb\\xe5\\x9e\\x8b_\\xe5\\x80\\xbc\\xe7\\xb1\\xbb\\xe5\\x9e\\x8b_\\xe5\\x9c\\xb0\\xe5\\x9d\\x80\\xe7\\x9a\\x84\\xe6\\x96\\xb9\\xe6\\xb3\\x95.sol\":3082:3095  address _this */\n      dup1\n        /* \"_12_\\xe6\\x95\\xb0\\xe6\\x8d\\xae\\xe7\\xb1\\xbb\\xe5\\x9e\\x8b_\\xe5\\x80\\xbc\\xe7\\xb1\\xbb\\xe5\\x9e\\x8b_\\xe5\\x9c\\xb0\\xe5\\x9d\\x80\\xe7\\x9a\\x84\\xe6\\x96\\xb9\\xe6\\xb3\\x95.sol\":3098:3111  uint _balance */\n      0x00\n        /* \"_12_\\xe6\\x95\\xb0\\xe6\\x8d\\xae\\xe7\\xb1\\xbb\\xe5\\x9e\\x8b_\\xe5\\x80\\xbc\\xe7\\xb1\\xbb\\xe5\\x9e\\x8b_\\xe5\\x9c\\xb0\\xe5\\x9d\\x80\\xe7\\x9a\\x84\\xe6\\x96\\xb9\\xe6\\xb3\\x95.sol\":3126:3130  data */\n      dup4\n        /* \"_12_\\xe6\\x95\\xb0\\xe6\\x8d\\xae\\xe7\\xb1\\xbb\\xe5\\x9e\\x8b_\\xe5\\x80\\xbc\\xe7\\xb1\\xbb\\xe5\\x9e\\x8b_\\xe5\\x9c\\xb0\\xe5\\x9d\\x80\\xe7\\x9a\\x84\\xe6\\x96\\xb9\\xe6\\xb3\\x95.sol\":3115:3157  abi.decode(data, (address, address, uint)) */\n      dup1\n      0x20\n      add\n      swap1\n      mload\n      dup2\n      add\n      swap1\n      tag_48\n      swap2\n      swap1\n      tag_34\n      jump\t// in\n    tag_48:\n        /* \"_12_\\xe6\\x95\\xb0\\xe6\\x8d\\xae\\xe7\\xb1\\xbb\\xe5\\x9e\\x8b_\\xe5\\x80\\xbc\\xe7\\xb1\\xbb\\xe5\\x9e\\x8b_\\xe5\\x9c\\xb0\\xe5\\x9d\\x80\\xe7\\x9a\\x84\\xe6\\x96\\xb9\\xe6\\xb3\\x95.sol\":3064:3157  (address sender,  address _this,  uint _balance) = abi.decode(data, (address, address, uint)) */\n      swap3\n      pop\n      swap3\n      pop\n      swap3\n      pop\n        /* \"_12_\\xe6\\x95\\xb0\\xe6\\x8d\\xae\\xe7\\xb1\\xbb\\xe5\\x9e\\x8b_\\xe5\\x80\\xbc\\xe7\\xb1\\xbb\\xe5\\x9e\\x8b_\\xe5\\x9c\\xb0\\xe5\\x9d\\x80\\xe7\\x9a\\x84\\xe6\\x96\\xb9\\xe6\\xb3\\x95.sol\":3176:3182  sender */\n      dup3\n        /* \"_12_\\xe6\\x95\\xb0\\xe6\\x8d\\xae\\xe7\\xb1\\xbb\\xe5\\x9e\\x8b_\\xe5\\x80\\xbc\\xe7\\xb1\\xbb\\xe5\\x9e\\x8b_\\xe5\\x9c\\xb0\\xe5\\x9d\\x80\\xe7\\x9a\\x84\\xe6\\x96\\xb9\\xe6\\xb3\\x95.sol\":3186:3191  _this */\n      dup3\n        /* \"_12_\\xe6\\x95\\xb0\\xe6\\x8d\\xae\\xe7\\xb1\\xbb\\xe5\\x9e\\x8b_\\xe5\\x80\\xbc\\xe7\\xb1\\xbb\\xe5\\x9e\\x8b_\\xe5\\x9c\\xb0\\xe5\\x9d\\x80\\xe7\\x9a\\x84\\xe6\\x96\\xb9\\xe6\\xb3\\x95.sol\":3195:3203  _balance */\n      dup3\n        /* \"_12_\\xe6\\x95\\xb0\\xe6\\x8d\\xae\\xe7\\xb1\\xbb\\xe5\\x9e\\x8b_\\xe5\\x80\\xbc\\xe7\\xb1\\xbb\\xe5\\x9e\\x8b_\\xe5\\x9c\\xb0\\xe5\\x9d\\x80\\xe7\\x9a\\x84\\xe6\\x96\\xb9\\xe6\\xb3\\x95.sol\":3167:3204  return ( sender,   _this,   _balance) */\n      swap8\n      pop\n      swap8\n      pop\n      swap8\n      pop\n      pop\n      pop\n      pop\n      pop\n      pop\n        /* \"_12_\\xe6\\x95\\xb0\\xe6\\x8d\\xae\\xe7\\xb1\\xbb\\xe5\\x9e\\x8b_\\xe5\\x80\\xbc\\xe7\\xb1\\xbb\\xe5\\x9e\\x8b_\\xe5\\x9c\\xb0\\xe5\\x9d\\x80\\xe7\\x9a\\x84\\xe6\\x96\\xb9\\xe6\\xb3\\x95.sol\":2813:3212  function staticcallTest(address addr) public  returns (address,  address,  uint){... */\n      swap2\n      swap4\n      swap1\n      swap3\n      pop\n      jump\t// out\n        /* \"#utility.yul\":88:205   */\n    tag_50:\n        /* \"#utility.yul\":197:198   */\n      0x00\n        /* \"#utility.yul\":194:195   */\n      dup1\n        /* \"#utility.yul\":187:199   */\n      revert\n        /* \"#utility.yul\":334:460   */\n    tag_52:\n        /* \"#utility.yul\":371:378   */\n      0x00\n        /* \"#utility.yul\":411:453   */\n      0xffffffffffffffffffffffffffffffffffffffff\n        /* \"#utility.yul\":404:409   */\n      dup3\n        /* \"#utility.yul\":400:454   */\n      and\n        /* \"#utility.yul\":389:454   */\n      swap1\n      pop\n        /* \"#utility.yul\":334:460   */\n      swap2\n      swap1\n      pop\n      jump\t// out\n        /* \"#utility.yul\":466:562   */\n    tag_53:\n        /* \"#utility.yul\":503:510   */\n      0x00\n        /* \"#utility.yul\":532:556   */\n      tag_84\n        /* \"#utility.yul\":550:555   */\n      dup3\n        /* \"#utility.yul\":532:556   */\n      tag_52\n      jump\t// in\n    tag_84:\n        /* \"#utility.yul\":521:556   */\n      swap1\n      pop\n        /* \"#utility.yul\":466:562   */\n      swap2\n      swap1\n      pop\n      jump\t// out\n        /* \"#utility.yul\":568:690   */\n    tag_54:\n        /* \"#utility.yul\":641:665   */\n      tag_86\n        /* \"#utility.yul\":659:664   */\n      dup2\n        /* \"#utility.yul\":641:665   */\n      tag_53\n      jump\t// in\n    tag_86:\n        /* \"#utility.yul\":634:639   */\n      dup2\n        /* \"#utility.yul\":631:666   */\n      eq\n        /* \"#utility.yul\":621:684   */\n      tag_87\n      jumpi\n        /* \"#utility.yul\":680:681   */\n      0x00\n        /* \"#utility.yul\":677:678   */\n      dup1\n        /* \"#utility.yul\":670:682   */\n      revert\n        /* \"#utility.yul\":621:684   */\n    tag_87:\n        /* \"#utility.yul\":568:690   */\n      pop\n      jump\t// out\n        /* \"#utility.yul\":696:835   */\n    tag_55:\n        /* \"#utility.yul\":742:747   */\n      0x00\n        /* \"#utility.yul\":780:786   */\n      dup2\n        /* \"#utility.yul\":767:787   */\n      calldataload\n        /* \"#utility.yul\":758:787   */\n      swap1\n      pop\n        /* \"#utility.yul\":796:829   */\n      tag_89\n        /* \"#utility.yul\":823:828   */\n      dup2\n        /* \"#utility.yul\":796:829   */\n      tag_54\n      jump\t// in\n    tag_89:\n        /* \"#utility.yul\":696:835   */\n      swap3\n      swap2\n      pop\n      pop\n      jump\t// out\n        /* \"#utility.yul\":841:1170   */\n    tag_11:\n        /* \"#utility.yul\":900:906   */\n      0x00\n        /* \"#utility.yul\":949:951   */\n      0x20\n        /* \"#utility.yul\":937:946   */\n      dup3\n        /* \"#utility.yul\":928:935   */\n      dup5\n        /* \"#utility.yul\":924:947   */\n      sub\n        /* \"#utility.yul\":920:952   */\n      slt\n        /* \"#utility.yul\":917:1036   */\n      iszero\n      tag_91\n      jumpi\n        /* \"#utility.yul\":955:1034   */\n      tag_92\n      tag_50\n      jump\t// in\n    tag_92:\n        /* \"#utility.yul\":917:1036   */\n    tag_91:\n        /* \"#utility.yul\":1075:1076   */\n      0x00\n        /* \"#utility.yul\":1100:1153   */\n      tag_93\n        /* \"#utility.yul\":1145:1152   */\n      dup5\n        /* \"#utility.yul\":1136:1142   */\n      dup3\n        /* \"#utility.yul\":1125:1134   */\n      dup6\n        /* \"#utility.yul\":1121:1143   */\n      add\n        /* \"#utility.yul\":1100:1153   */\n      tag_55\n      jump\t// in\n    tag_93:\n        /* \"#utility.yul\":1090:1153   */\n      swap2\n      pop\n        /* \"#utility.yul\":1046:1163   */\n      pop\n        /* \"#utility.yul\":841:1170   */\n      swap3\n      swap2\n      pop\n      pop\n      jump\t// out\n        /* \"#utility.yul\":1176:1294   */\n    tag_56:\n        /* \"#utility.yul\":1263:1287   */\n      tag_95\n        /* \"#utility.yul\":1281:1286   */\n      dup2\n        /* \"#utility.yul\":1263:1287   */\n      tag_53\n      jump\t// in\n    tag_95:\n        /* \"#utility.yul\":1258:1261   */\n      dup3\n        /* \"#utility.yul\":1251:1288   */\n      mstore\n        /* \"#utility.yul\":1176:1294   */\n      pop\n      pop\n      jump\t// out\n        /* \"#utility.yul\":1300:1377   */\n    tag_57:\n        /* \"#utility.yul\":1337:1344   */\n      0x00\n        /* \"#utility.yul\":1366:1371   */\n      dup2\n        /* \"#utility.yul\":1355:1371   */\n      swap1\n      pop\n        /* \"#utility.yul\":1300:1377   */\n      swap2\n      swap1\n      pop\n      jump\t// out\n        /* \"#utility.yul\":1383:1501   */\n    tag_58:\n        /* \"#utility.yul\":1470:1494   */\n      tag_98\n        /* \"#utility.yul\":1488:1493   */\n      dup2\n        /* \"#utility.yul\":1470:1494   */\n      tag_57\n      jump\t// in\n    tag_98:\n        /* \"#utility.yul\":1465:1468   */\n      dup3\n        /* \"#utility.yul\":1458:1495   */\n      mstore\n        /* \"#utility.yul\":1383:1501   */\n      pop\n      pop\n      jump\t// out\n        /* \"#utility.yul\":1507:1949   */\n    tag_14:\n        /* \"#utility.yul\":1656:1660   */\n      0x00\n        /* \"#utility.yul\":1694:1696   */\n      0x60\n        /* \"#utility.yul\":1683:1692   */\n      dup3\n        /* \"#utility.yul\":1679:1697   */\n      add\n        /* \"#utility.yul\":1671:1697   */\n      swap1\n      pop\n        /* \"#utility.yul\":1707:1778   */\n      tag_100\n        /* \"#utility.yul\":1775:1776   */\n      0x00\n        /* \"#utility.yul\":1764:1773   */\n      dup4\n        /* \"#utility.yul\":1760:1777   */\n      add\n        /* \"#utility.yul\":1751:1757   */\n      dup7\n        /* \"#utility.yul\":1707:1778   */\n      tag_56\n      jump\t// in\n    tag_100:\n        /* \"#utility.yul\":1788:1860   */\n      tag_101\n        /* \"#utility.yul\":1856:1858   */\n      0x20\n        /* \"#utility.yul\":1845:1854   */\n      dup4\n        /* \"#utility.yul\":1841:1859   */\n      add\n        /* \"#utility.yul\":1832:1838   */\n      dup6\n        /* \"#utility.yul\":1788:1860   */\n      tag_56\n      jump\t// in\n    tag_101:\n        /* \"#utility.yul\":1870:1942   */\n      tag_102\n        /* \"#utility.yul\":1938:1940   */\n      0x40\n        /* \"#utility.yul\":1927:1936   */\n      dup4\n        /* \"#utility.yul\":1923:1941   */\n      add\n        /* \"#utility.yul\":1914:1920   */\n      dup5\n        /* \"#utility.yul\":1870:1942   */\n      tag_58\n      jump\t// in\n    tag_102:\n        /* \"#utility.yul\":1507:1949   */\n      swap5\n      swap4\n      pop\n      pop\n      pop\n      pop\n      jump\t// out\n        /* \"#utility.yul\":1955:2045   */\n    tag_59:\n        /* \"#utility.yul\":1989:1996   */\n      0x00\n        /* \"#utility.yul\":2032:2037   */\n      dup2\n        /* \"#utility.yul\":2025:2038   */\n      iszero\n        /* \"#utility.yul\":2018:2039   */\n      iszero\n        /* \"#utility.yul\":2007:2039   */\n      swap1\n      pop\n        /* \"#utility.yul\":1955:2045   */\n      swap2\n      swap1\n      pop\n      jump\t// out\n        /* \"#utility.yul\":2051:2160   */\n    tag_60:\n        /* \"#utility.yul\":2132:2153   */\n      tag_105\n        /* \"#utility.yul\":2147:2152   */\n      dup2\n        /* \"#utility.yul\":2132:2153   */\n      tag_59\n      jump\t// in\n    tag_105:\n        /* \"#utility.yul\":2127:2130   */\n      dup3\n        /* \"#utility.yul\":2120:2154   */\n      mstore\n        /* \"#utility.yul\":2051:2160   */\n      pop\n      pop\n      jump\t// out\n        /* \"#utility.yul\":2166:2707   */\n    tag_19:\n        /* \"#utility.yul\":2337:2341   */\n      0x00\n        /* \"#utility.yul\":2375:2378   */\n      0x80\n        /* \"#utility.yul\":2364:2373   */\n      dup3\n        /* \"#utility.yul\":2360:2379   */\n      add\n        /* \"#utility.yul\":2352:2379   */\n      swap1\n      pop\n        /* \"#utility.yul\":2389:2460   */\n      tag_107\n        /* \"#utility.yul\":2457:2458   */\n      0x00\n        /* \"#utility.yul\":2446:2455   */\n      dup4\n        /* \"#utility.yul\":2442:2459   */\n      add\n        /* \"#utility.yul\":2433:2439   */\n      dup8\n        /* \"#utility.yul\":2389:2460   */\n      tag_56\n      jump\t// in\n    tag_107:\n        /* \"#utility.yul\":2470:2542   */\n      tag_108\n        /* \"#utility.yul\":2538:2540   */\n      0x20\n        /* \"#utility.yul\":2527:2536   */\n      dup4\n        /* \"#utility.yul\":2523:2541   */\n      add\n        /* \"#utility.yul\":2514:2520   */\n      dup7\n        /* \"#utility.yul\":2470:2542   */\n      tag_56\n      jump\t// in\n    tag_108:\n        /* \"#utility.yul\":2552:2624   */\n      tag_109\n        /* \"#utility.yul\":2620:2622   */\n      0x40\n        /* \"#utility.yul\":2609:2618   */\n      dup4\n        /* \"#utility.yul\":2605:2623   */\n      add\n        /* \"#utility.yul\":2596:2602   */\n      dup6\n        /* \"#utility.yul\":2552:2624   */\n      tag_58\n      jump\t// in\n    tag_109:\n        /* \"#utility.yul\":2634:2700   */\n      tag_110\n        /* \"#utility.yul\":2696:2698   */\n      0x60\n        /* \"#utility.yul\":2685:2694   */\n      dup4\n        /* \"#utility.yul\":2681:2699   */\n      add\n        /* \"#utility.yul\":2672:2678   */\n      dup5\n        /* \"#utility.yul\":2634:2700   */\n      tag_60\n      jump\t// in\n    tag_110:\n        /* \"#utility.yul\":2166:2707   */\n      swap6\n      swap5\n      pop\n      pop\n      pop\n      pop\n      pop\n      jump\t// out\n        /* \"#utility.yul\":2713:2798   */\n    tag_61:\n        /* \"#utility.yul\":2758:2765   */\n      0x00\n        /* \"#utility.yul\":2787:2792   */\n      dup2\n        /* \"#utility.yul\":2776:2792   */\n      swap1\n      pop\n        /* \"#utility.yul\":2713:2798   */\n      swap2\n      swap1\n      pop\n      jump\t// out\n        /* \"#utility.yul\":2804:2890   */\n    tag_62:\n        /* \"#utility.yul\":2839:2846   */\n      0x00\n        /* \"#utility.yul\":2879:2883   */\n      0xff\n        /* \"#utility.yul\":2872:2877   */\n      dup3\n        /* \"#utility.yul\":2868:2884   */\n      and\n        /* \"#utility.yul\":2857:2884   */\n      swap1\n      pop\n        /* \"#utility.yul\":2804:2890   */\n      swap2\n      swap1\n      pop\n      jump\t// out\n        /* \"#utility.yul\":2896:2956   */\n    tag_63:\n        /* \"#utility.yul\":2924:2927   */\n      0x00\n        /* \"#utility.yul\":2945:2950   */\n      dup2\n        /* \"#utility.yul\":2938:2950   */\n      swap1\n      pop\n        /* \"#utility.yul\":2896:2956   */\n      swap2\n      swap1\n      pop\n      jump\t// out\n        /* \"#utility.yul\":2962:3116   */\n    tag_64:\n        /* \"#utility.yul\":3018:3027   */\n      0x00\n        /* \"#utility.yul\":3051:3110   */\n      tag_115\n        /* \"#utility.yul\":3067:3109   */\n      tag_116\n        /* \"#utility.yul\":3076:3108   */\n      tag_117\n        /* \"#utility.yul\":3102:3107   */\n      dup5\n        /* \"#utility.yul\":3076:3108   */\n      tag_61\n      jump\t// in\n    tag_117:\n        /* \"#utility.yul\":3067:3109   */\n      tag_63\n      jump\t// in\n    tag_116:\n        /* \"#utility.yul\":3051:3110   */\n      tag_62\n      jump\t// in\n    tag_115:\n        /* \"#utility.yul\":3038:3110   */\n      swap1\n      pop\n        /* \"#utility.yul\":2962:3116   */\n      swap2\n      swap1\n      pop\n      jump\t// out\n        /* \"#utility.yul\":3122:3265   */\n    tag_65:\n        /* \"#utility.yul\":3215:3258   */\n      tag_119\n        /* \"#utility.yul\":3252:3257   */\n      dup2\n        /* \"#utility.yul\":3215:3258   */\n      tag_64\n      jump\t// in\n    tag_119:\n        /* \"#utility.yul\":3210:3213   */\n      dup3\n        /* \"#utility.yul\":3203:3259   */\n      mstore\n        /* \"#utility.yul\":3122:3265   */\n      pop\n      pop\n      jump\t// out\n        /* \"#utility.yul\":3271:3356   */\n    tag_66:\n        /* \"#utility.yul\":3316:3323   */\n      0x00\n        /* \"#utility.yul\":3345:3350   */\n      dup2\n        /* \"#utility.yul\":3334:3350   */\n      swap1\n      pop\n        /* \"#utility.yul\":3271:3356   */\n      swap2\n      swap1\n      pop\n      jump\t// out\n        /* \"#utility.yul\":3362:3516   */\n    tag_67:\n        /* \"#utility.yul\":3418:3427   */\n      0x00\n        /* \"#utility.yul\":3451:3510   */\n      tag_122\n        /* \"#utility.yul\":3467:3509   */\n      tag_123\n        /* \"#utility.yul\":3476:3508   */\n      tag_124\n        /* \"#utility.yul\":3502:3507   */\n      dup5\n        /* \"#utility.yul\":3476:3508   */\n      tag_66\n      jump\t// in\n    tag_124:\n        /* \"#utility.yul\":3467:3509   */\n      tag_63\n      jump\t// in\n    tag_123:\n        /* \"#utility.yul\":3451:3510   */\n      tag_62\n      jump\t// in\n    tag_122:\n        /* \"#utility.yul\":3438:3510   */\n      swap1\n      pop\n        /* \"#utility.yul\":3362:3516   */\n      swap2\n      swap1\n      pop\n      jump\t// out\n        /* \"#utility.yul\":3522:3665   */\n    tag_68:\n        /* \"#utility.yul\":3615:3658   */\n      tag_126\n        /* \"#utility.yul\":3652:3657   */\n      dup2\n        /* \"#utility.yul\":3615:3658   */\n      tag_67\n      jump\t// in\n    tag_126:\n        /* \"#utility.yul\":3610:3613   */\n      dup3\n        /* \"#utility.yul\":3603:3659   */\n      mstore\n        /* \"#utility.yul\":3522:3665   */\n      pop\n      pop\n      jump\t// out\n        /* \"#utility.yul\":3671:4027   */\n    tag_27:\n        /* \"#utility.yul\":3804:3808   */\n      0x00\n        /* \"#utility.yul\":3842:3844   */\n      0x40\n        /* \"#utility.yul\":3831:3840   */\n      dup3\n        /* \"#utility.yul\":3827:3845   */\n      add\n        /* \"#utility.yul\":3819:3845   */\n      swap1\n      pop\n        /* \"#utility.yul\":3855:3932   */\n      tag_128\n        /* \"#utility.yul\":3929:3930   */\n      0x00\n        /* \"#utility.yul\":3918:3927   */\n      dup4\n        /* \"#utility.yul\":3914:3931   */\n      add\n        /* \"#utility.yul\":3905:3911   */\n      dup6\n        /* \"#utility.yul\":3855:3932   */\n      tag_65\n      jump\t// in\n    tag_128:\n        /* \"#utility.yul\":3942:4020   */\n      tag_129\n        /* \"#utility.yul\":4016:4018   */\n      0x20\n        /* \"#utility.yul\":4005:4014   */\n      dup4\n        /* \"#utility.yul\":4001:4019   */\n      add\n        /* \"#utility.yul\":3992:3998   */\n      dup5\n        /* \"#utility.yul\":3942:4020   */\n      tag_68\n      jump\t// in\n    tag_129:\n        /* \"#utility.yul\":3671:4027   */\n      swap4\n      swap3\n      pop\n      pop\n      pop\n      jump\t// out\n        /* \"#utility.yul\":4033:4131   */\n    tag_69:\n        /* \"#utility.yul\":4084:4090   */\n      0x00\n        /* \"#utility.yul\":4118:4123   */\n      dup2\n        /* \"#utility.yul\":4112:4124   */\n      mload\n        /* \"#utility.yul\":4102:4124   */\n      swap1\n      pop\n        /* \"#utility.yul\":4033:4131   */\n      swap2\n      swap1\n      pop\n      jump\t// out\n        /* \"#utility.yul\":4137:4284   */\n    tag_70:\n        /* \"#utility.yul\":4238:4249   */\n      0x00\n        /* \"#utility.yul\":4275:4278   */\n      dup2\n        /* \"#utility.yul\":4260:4278   */\n      swap1\n      pop\n        /* \"#utility.yul\":4137:4284   */\n      swap3\n      swap2\n      pop\n      pop\n      jump\t// out\n        /* \"#utility.yul\":4290:4536   */\n    tag_71:\n        /* \"#utility.yul\":4371:4372   */\n      0x00\n        /* \"#utility.yul\":4381:4494   */\n    tag_133:\n        /* \"#utility.yul\":4395:4401   */\n      dup4\n        /* \"#utility.yul\":4392:4393   */\n      dup2\n        /* \"#utility.yul\":4389:4402   */\n      lt\n        /* \"#utility.yul\":4381:4494   */\n      iszero\n      tag_135\n      jumpi\n        /* \"#utility.yul\":4480:4481   */\n      dup1\n        /* \"#utility.yul\":4475:4478   */\n      dup3\n        /* \"#utility.yul\":4471:4482   */\n      add\n        /* \"#utility.yul\":4465:4483   */\n      mload\n        /* \"#utility.yul\":4461:4462   */\n      dup2\n        /* \"#utility.yul\":4456:4459   */\n      dup5\n        /* \"#utility.yul\":4452:4463   */\n      add\n        /* \"#utility.yul\":4445:4484   */\n      mstore\n        /* \"#utility.yul\":4417:4419   */\n      0x20\n        /* \"#utility.yul\":4414:4415   */\n      dup2\n        /* \"#utility.yul\":4410:4420   */\n      add\n        /* \"#utility.yul\":4405:4420   */\n      swap1\n      pop\n        /* \"#utility.yul\":4381:4494   */\n      jump(tag_133)\n    tag_135:\n        /* \"#utility.yul\":4528:4529   */\n      0x00\n        /* \"#utility.yul\":4519:4525   */\n      dup5\n        /* \"#utility.yul\":4514:4517   */\n      dup5\n        /* \"#utility.yul\":4510:4526   */\n      add\n        /* \"#utility.yul\":4503:4530   */\n      mstore\n        /* \"#utility.yul\":4352:4536   */\n      pop\n        /* \"#utility.yul\":4290:4536   */\n      pop\n      pop\n      pop\n      jump\t// out\n        /* \"#utility.yul\":4542:4928   */\n    tag_72:\n        /* \"#utility.yul\":4646:4649   */\n      0x00\n        /* \"#utility.yul\":4674:4712   */\n      tag_137\n        /* \"#utility.yul\":4706:4711   */\n      dup3\n        /* \"#utility.yul\":4674:4712   */\n      tag_69\n      jump\t// in\n    tag_137:\n        /* \"#utility.yul\":4728:4816   */\n      tag_138\n        /* \"#utility.yul\":4809:4815   */\n      dup2\n        /* \"#utility.yul\":4804:4807   */\n      dup6\n        /* \"#utility.yul\":4728:4816   */\n      tag_70\n      jump\t// in\n    tag_138:\n        /* \"#utility.yul\":4721:4816   */\n      swap4\n      pop\n        /* \"#utility.yul\":4825:4890   */\n      tag_139\n        /* \"#utility.yul\":4883:4889   */\n      dup2\n        /* \"#utility.yul\":4878:4881   */\n      dup6\n        /* \"#utility.yul\":4871:4875   */\n      0x20\n        /* \"#utility.yul\":4864:4869   */\n      dup7\n        /* \"#utility.yul\":4860:4876   */\n      add\n        /* \"#utility.yul\":4825:4890   */\n      tag_71\n      jump\t// in\n    tag_139:\n        /* \"#utility.yul\":4915:4921   */\n      dup1\n        /* \"#utility.yul\":4910:4913   */\n      dup5\n        /* \"#utility.yul\":4906:4922   */\n      add\n        /* \"#utility.yul\":4899:4922   */\n      swap2\n      pop\n        /* \"#utility.yul\":4650:4928   */\n      pop\n        /* \"#utility.yul\":4542:4928   */\n      swap3\n      swap2\n      pop\n      pop\n      jump\t// out\n        /* \"#utility.yul\":4934:5205   */\n    tag_29:\n        /* \"#utility.yul\":5064:5067   */\n      0x00\n        /* \"#utility.yul\":5086:5179   */\n      tag_141\n        /* \"#utility.yul\":5175:5178   */\n      dup3\n        /* \"#utility.yul\":5166:5172   */\n      dup5\n        /* \"#utility.yul\":5086:5179   */\n      tag_72\n      jump\t// in\n    tag_141:\n        /* \"#utility.yul\":5079:5179   */\n      swap2\n      pop\n        /* \"#utility.yul\":5196:5199   */\n      dup2\n        /* \"#utility.yul\":5189:5199   */\n      swap1\n      pop\n        /* \"#utility.yul\":4934:5205   */\n      swap3\n      swap2\n      pop\n      pop\n      jump\t// out\n        /* \"#utility.yul\":5211:5315   */\n    tag_73:\n        /* \"#utility.yul\":5256:5263   */\n      0x00\n        /* \"#utility.yul\":5285:5309   */\n      tag_143\n        /* \"#utility.yul\":5303:5308   */\n      dup3\n        /* \"#utility.yul\":5285:5309   */\n      tag_52\n      jump\t// in\n    tag_143:\n        /* \"#utility.yul\":5274:5309   */\n      swap1\n      pop\n        /* \"#utility.yul\":5211:5315   */\n      swap2\n      swap1\n      pop\n      jump\t// out\n        /* \"#utility.yul\":5321:5459   */\n    tag_74:\n        /* \"#utility.yul\":5402:5434   */\n      tag_145\n        /* \"#utility.yul\":5428:5433   */\n      dup2\n        /* \"#utility.yul\":5402:5434   */\n      tag_73\n      jump\t// in\n    tag_145:\n        /* \"#utility.yul\":5395:5400   */\n      dup2\n        /* \"#utility.yul\":5392:5435   */\n      eq\n        /* \"#utility.yul\":5382:5453   */\n      tag_146\n      jumpi\n        /* \"#utility.yul\":5449:5450   */\n      0x00\n        /* \"#utility.yul\":5446:5447   */\n      dup1\n        /* \"#utility.yul\":5439:5451   */\n      revert\n        /* \"#utility.yul\":5382:5453   */\n    tag_146:\n        /* \"#utility.yul\":5321:5459   */\n      pop\n      jump\t// out\n        /* \"#utility.yul\":5465:5624   */\n    tag_75:\n        /* \"#utility.yul\":5530:5535   */\n      0x00\n        /* \"#utility.yul\":5561:5567   */\n      dup2\n        /* \"#utility.yul\":5555:5568   */\n      mload\n        /* \"#utility.yul\":5546:5568   */\n      swap1\n      pop\n        /* \"#utility.yul\":5577:5618   */\n      tag_148\n        /* \"#utility.yul\":5612:5617   */\n      dup2\n        /* \"#utility.yul\":5577:5618   */\n      tag_74\n      jump\t// in\n    tag_148:\n        /* \"#utility.yul\":5465:5624   */\n      swap3\n      swap2\n      pop\n      pop\n      jump\t// out\n        /* \"#utility.yul\":5630:5752   */\n    tag_76:\n        /* \"#utility.yul\":5703:5727   */\n      tag_150\n        /* \"#utility.yul\":5721:5726   */\n      dup2\n        /* \"#utility.yul\":5703:5727   */\n      tag_57\n      jump\t// in\n    tag_150:\n        /* \"#utility.yul\":5696:5701   */\n      dup2\n        /* \"#utility.yul\":5693:5728   */\n      eq\n        /* \"#utility.yul\":5683:5746   */\n      tag_151\n      jumpi\n        /* \"#utility.yul\":5742:5743   */\n      0x00\n        /* \"#utility.yul\":5739:5740   */\n      dup1\n        /* \"#utility.yul\":5732:5744   */\n      revert\n        /* \"#utility.yul\":5683:5746   */\n    tag_151:\n        /* \"#utility.yul\":5630:5752   */\n      pop\n      jump\t// out\n        /* \"#utility.yul\":5758:5901   */\n    tag_77:\n        /* \"#utility.yul\":5815:5820   */\n      0x00\n        /* \"#utility.yul\":5846:5852   */\n      dup2\n        /* \"#utility.yul\":5840:5853   */\n      mload\n        /* \"#utility.yul\":5831:5853   */\n      swap1\n      pop\n        /* \"#utility.yul\":5862:5895   */\n      tag_153\n        /* \"#utility.yul\":5889:5894   */\n      dup2\n        /* \"#utility.yul\":5862:5895   */\n      tag_76\n      jump\t// in\n    tag_153:\n        /* \"#utility.yul\":5758:5901   */\n      swap3\n      swap2\n      pop\n      pop\n      jump\t// out\n        /* \"#utility.yul\":5907:6602   */\n    tag_34:\n        /* \"#utility.yul\":6011:6017   */\n      0x00\n        /* \"#utility.yul\":6019:6025   */\n      dup1\n        /* \"#utility.yul\":6027:6033   */\n      0x00\n        /* \"#utility.yul\":6076:6078   */\n      0x60\n        /* \"#utility.yul\":6064:6073   */\n      dup5\n        /* \"#utility.yul\":6055:6062   */\n      dup7\n        /* \"#utility.yul\":6051:6074   */\n      sub\n        /* \"#utility.yul\":6047:6079   */\n      slt\n        /* \"#utility.yul\":6044:6163   */\n      iszero\n      tag_155\n      jumpi\n        /* \"#utility.yul\":6082:6161   */\n      tag_156\n      tag_50\n      jump\t// in\n    tag_156:\n        /* \"#utility.yul\":6044:6163   */\n    tag_155:\n        /* \"#utility.yul\":6202:6203   */\n      0x00\n        /* \"#utility.yul\":6227:6299   */\n      tag_157\n        /* \"#utility.yul\":6291:6298   */\n      dup7\n        /* \"#utility.yul\":6282:6288   */\n      dup3\n        /* \"#utility.yul\":6271:6280   */\n      dup8\n        /* \"#utility.yul\":6267:6289   */\n      add\n        /* \"#utility.yul\":6227:6299   */\n      tag_75\n      jump\t// in\n    tag_157:\n        /* \"#utility.yul\":6217:6299   */\n      swap4\n      pop\n        /* \"#utility.yul\":6173:6309   */\n      pop\n        /* \"#utility.yul\":6348:6350   */\n      0x20\n        /* \"#utility.yul\":6374:6446   */\n      tag_158\n        /* \"#utility.yul\":6438:6445   */\n      dup7\n        /* \"#utility.yul\":6429:6435   */\n      dup3\n        /* \"#utility.yul\":6418:6427   */\n      dup8\n        /* \"#utility.yul\":6414:6436   */\n      add\n        /* \"#utility.yul\":6374:6446   */\n      tag_75\n      jump\t// in\n    tag_158:\n        /* \"#utility.yul\":6364:6446   */\n      swap3\n      pop\n        /* \"#utility.yul\":6319:6456   */\n      pop\n        /* \"#utility.yul\":6495:6497   */\n      0x40\n        /* \"#utility.yul\":6521:6585   */\n      tag_159\n        /* \"#utility.yul\":6577:6584   */\n      dup7\n        /* \"#utility.yul\":6568:6574   */\n      dup3\n        /* \"#utility.yul\":6557:6566   */\n      dup8\n        /* \"#utility.yul\":6553:6575   */\n      add\n        /* \"#utility.yul\":6521:6585   */\n      tag_77\n      jump\t// in\n    tag_159:\n        /* \"#utility.yul\":6511:6585   */\n      swap2\n      pop\n        /* \"#utility.yul\":6466:6595   */\n      pop\n        /* \"#utility.yul\":5907:6602   */\n      swap3\n      pop\n      swap3\n      pop\n      swap3\n      jump\t// out\n\n    auxdata: 0xa2646970667358221220e63f7dd52f0c5c9996b37a2b9ae34788b9599ff9f34b438a0452e960826ef64064736f6c63430008110033\n}\n",
				"bytecode": {
					"linkReferences": {},
					"object": "608060405234801561001057600080fd5b5061085f806100206000396000f3fe608060405234801561001057600080fd5b506004361061004c5760003560e01c8063262330b41461005157806332eb12f11461005b57806333a48d091461008d578063eb3134c9146100c0575b600080fd5b6100596100f2565b005b61007560048036038101906100709190610542565b610100565b60405161008493929190610597565b60405180910390f35b6100a760048036038101906100a29190610542565b610239565b6040516100b794939291906105e9565b60405180910390f35b6100da60048036038101906100d59190610542565b6103a8565b6040516100e993929190610597565b60405180910390f35b600030905060008190505050565b60008060008060008573ffffffffffffffffffffffffffffffffffffffff16600160026040516024016101349291906106bb565b6040516020818303038152906040527f492cecf7000000000000000000000000000000000000000000000000000000007bffffffffffffffffffffffffffffffffffffffffffffffffffffffff19166020820180517bffffffffffffffffffffffffffffffffffffffffffffffffffffffff83818316178352505050506040516101be9190610755565b6000604051808303816000865af19150503d80600081146101fb576040519150601f19603f3d011682016040523d82523d6000602084013e610200565b606091505b509150915060008060008380602001905181019061021e91906107d6565b92509250925082828297509750975050505050509193909250565b6000806000806000808673ffffffffffffffffffffffffffffffffffffffff166001600260405160240161026e9291906106bb565b6040516020818303038152906040527f492cecf7000000000000000000000000000000000000000000000000000000007bffffffffffffffffffffffffffffffffffffffffffffffffffffffff19166020820180517bffffffffffffffffffffffffffffffffffffffffffffffffffffffff83818316178352505050506040516102f89190610755565b600060405180830381855af49150503d8060008114610333576040519150601f19603f3d011682016040523d82523d6000602084013e610338565b606091505b509150915060008060008380602001905181019061035691906107d6565b92509250925060003373ffffffffffffffffffffffffffffffffffffffff168473ffffffffffffffffffffffffffffffffffffffff161490508383838399509950995099505050505050509193509193565b60008060008060008573ffffffffffffffffffffffffffffffffffffffff16600160026040516024016103dc9291906106bb565b6040516020818303038152906040527f492cecf7000000000000000000000000000000000000000000000000000000007bffffffffffffffffffffffffffffffffffffffffffffffffffffffff19166020820180517bffffffffffffffffffffffffffffffffffffffffffffffffffffffff83818316178352505050506040516104669190610755565b600060405180830381855afa9150503d80600081146104a1576040519150601f19603f3d011682016040523d82523d6000602084013e6104a6565b606091505b50915091506000806000838060200190518101906104c491906107d6565b92509250925082828297509750975050505050509193909250565b600080fd5b600073ffffffffffffffffffffffffffffffffffffffff82169050919050565b600061050f826104e4565b9050919050565b61051f81610504565b811461052a57600080fd5b50565b60008135905061053c81610516565b92915050565b600060208284031215610558576105576104df565b5b60006105668482850161052d565b91505092915050565b61057881610504565b82525050565b6000819050919050565b6105918161057e565b82525050565b60006060820190506105ac600083018661056f565b6105b9602083018561056f565b6105c66040830184610588565b949350505050565b60008115159050919050565b6105e3816105ce565b82525050565b60006080820190506105fe600083018761056f565b61060b602083018661056f565b6106186040830185610588565b61062560608301846105da565b95945050505050565b6000819050919050565b600060ff82169050919050565b6000819050919050565b600061066a6106656106608461062e565b610645565b610638565b9050919050565b61067a8161064f565b82525050565b6000819050919050565b60006106a56106a061069b84610680565b610645565b610638565b9050919050565b6106b58161068a565b82525050565b60006040820190506106d06000830185610671565b6106dd60208301846106ac565b9392505050565b600081519050919050565b600081905092915050565b60005b838110156107185780820151818401526020810190506106fd565b60008484015250505050565b600061072f826106e4565b61073981856106ef565b93506107498185602086016106fa565b80840191505092915050565b60006107618284610724565b915081905092915050565b6000610777826104e4565b9050919050565b6107878161076c565b811461079257600080fd5b50565b6000815190506107a48161077e565b92915050565b6107b38161057e565b81146107be57600080fd5b50565b6000815190506107d0816107aa565b92915050565b6000806000606084860312156107ef576107ee6104df565b5b60006107fd86828701610795565b935050602061080e86828701610795565b925050604061081f868287016107c1565b915050925092509256fea2646970667358221220e63f7dd52f0c5c9996b37a2b9ae34788b9599ff9f34b438a0452e960826ef64064736f6c63430008110033",
					"opcodes": "PUSH1 0x80 PUSH1 0x40 MSTORE CALLVALUE DUP1 ISZERO PUSH2 0x10 JUMPI PUSH1 0x0 DUP1 REVERT JUMPDEST POP PUSH2 0x85F DUP1 PUSH2 0x20 PUSH1 0x0 CODECOPY PUSH1 0x0 RETURN INVALID PUSH1 0x80 PUSH1 0x40 MSTORE CALLVALUE DUP1 ISZERO PUSH2 0x10 JUMPI PUSH1 0x0 DUP1 REVERT JUMPDEST POP PUSH1 0x4 CALLDATASIZE LT PUSH2 0x4C JUMPI PUSH1 0x0 CALLDATALOAD PUSH1 0xE0 SHR DUP1 PUSH4 0x262330B4 EQ PUSH2 0x51 JUMPI DUP1 PUSH4 0x32EB12F1 EQ PUSH2 0x5B JUMPI DUP1 PUSH4 0x33A48D09 EQ PUSH2 0x8D JUMPI DUP1 PUSH4 0xEB3134C9 EQ PUSH2 0xC0 JUMPI JUMPDEST PUSH1 0x0 DUP1 REVERT JUMPDEST PUSH2 0x59 PUSH2 0xF2 JUMP JUMPDEST STOP JUMPDEST PUSH2 0x75 PUSH1 0x4 DUP1 CALLDATASIZE SUB DUP2 ADD SWAP1 PUSH2 0x70 SWAP2 SWAP1 PUSH2 0x542 JUMP JUMPDEST PUSH2 0x100 JUMP JUMPDEST PUSH1 0x40 MLOAD PUSH2 0x84 SWAP4 SWAP3 SWAP2 SWAP1 PUSH2 0x597 JUMP JUMPDEST PUSH1 0x40 MLOAD DUP1 SWAP2 SUB SWAP1 RETURN JUMPDEST PUSH2 0xA7 PUSH1 0x4 DUP1 CALLDATASIZE SUB DUP2 ADD SWAP1 PUSH2 0xA2 SWAP2 SWAP1 PUSH2 0x542 JUMP JUMPDEST PUSH2 0x239 JUMP JUMPDEST PUSH1 0x40 MLOAD PUSH2 0xB7 SWAP5 SWAP4 SWAP3 SWAP2 SWAP1 PUSH2 0x5E9 JUMP JUMPDEST PUSH1 0x40 MLOAD DUP1 SWAP2 SUB SWAP1 RETURN JUMPDEST PUSH2 0xDA PUSH1 0x4 DUP1 CALLDATASIZE SUB DUP2 ADD SWAP1 PUSH2 0xD5 SWAP2 SWAP1 PUSH2 0x542 JUMP JUMPDEST PUSH2 0x3A8 JUMP JUMPDEST PUSH1 0x40 MLOAD PUSH2 0xE9 SWAP4 SWAP3 SWAP2 SWAP1 PUSH2 0x597 JUMP JUMPDEST PUSH1 0x40 MLOAD DUP1 SWAP2 SUB SWAP1 RETURN JUMPDEST PUSH1 0x0 ADDRESS SWAP1 POP PUSH1 0x0 DUP2 SWAP1 POP POP POP JUMP JUMPDEST PUSH1 0x0 DUP1 PUSH1 0x0 DUP1 PUSH1 0x0 DUP6 PUSH20 0xFFFFFFFFFFFFFFFFFFFFFFFFFFFFFFFFFFFFFFFF AND PUSH1 0x1 PUSH1 0x2 PUSH1 0x40 MLOAD PUSH1 0x24 ADD PUSH2 0x134 SWAP3 SWAP2 SWAP1 PUSH2 0x6BB JUMP JUMPDEST PUSH1 0x40 MLOAD PUSH1 0x20 DUP2 DUP4 SUB SUB DUP2 MSTORE SWAP1 PUSH1 0x40 MSTORE PUSH32 0x492CECF700000000000000000000000000000000000000000000000000000000 PUSH28 0xFFFFFFFFFFFFFFFFFFFFFFFFFFFFFFFFFFFFFFFFFFFFFFFFFFFFFFFF NOT AND PUSH1 0x20 DUP3 ADD DUP1 MLOAD PUSH28 0xFFFFFFFFFFFFFFFFFFFFFFFFFFFFFFFFFFFFFFFFFFFFFFFFFFFFFFFF DUP4 DUP2 DUP4 AND OR DUP4 MSTORE POP POP POP POP PUSH1 0x40 MLOAD PUSH2 0x1BE SWAP2 SWAP1 PUSH2 0x755 JUMP JUMPDEST PUSH1 0x0 PUSH1 0x40 MLOAD DUP1 DUP4 SUB DUP2 PUSH1 0x0 DUP7 GAS CALL SWAP2 POP POP RETURNDATASIZE DUP1 PUSH1 0x0 DUP2 EQ PUSH2 0x1FB JUMPI PUSH1 0x40 MLOAD SWAP2 POP PUSH1 0x1F NOT PUSH1 0x3F RETURNDATASIZE ADD AND DUP3 ADD PUSH1 0x40 MSTORE RETURNDATASIZE DUP3 MSTORE RETURNDATASIZE PUSH1 0x0 PUSH1 0x20 DUP5 ADD RETURNDATACOPY PUSH2 0x200 JUMP JUMPDEST PUSH1 0x60 SWAP2 POP JUMPDEST POP SWAP2 POP SWAP2 POP PUSH1 0x0 DUP1 PUSH1 0x0 DUP4 DUP1 PUSH1 0x20 ADD SWAP1 MLOAD DUP2 ADD SWAP1 PUSH2 0x21E SWAP2 SWAP1 PUSH2 0x7D6 JUMP JUMPDEST SWAP3 POP SWAP3 POP SWAP3 POP DUP3 DUP3 DUP3 SWAP8 POP SWAP8 POP SWAP8 POP POP POP POP POP POP SWAP2 SWAP4 SWAP1 SWAP3 POP JUMP JUMPDEST PUSH1 0x0 DUP1 PUSH1 0x0 DUP1 PUSH1 0x0 DUP1 DUP7 PUSH20 0xFFFFFFFFFFFFFFFFFFFFFFFFFFFFFFFFFFFFFFFF AND PUSH1 0x1 PUSH1 0x2 PUSH1 0x40 MLOAD PUSH1 0x24 ADD PUSH2 0x26E SWAP3 SWAP2 SWAP1 PUSH2 0x6BB JUMP JUMPDEST PUSH1 0x40 MLOAD PUSH1 0x20 DUP2 DUP4 SUB SUB DUP2 MSTORE SWAP1 PUSH1 0x40 MSTORE PUSH32 0x492CECF700000000000000000000000000000000000000000000000000000000 PUSH28 0xFFFFFFFFFFFFFFFFFFFFFFFFFFFFFFFFFFFFFFFFFFFFFFFFFFFFFFFF NOT AND PUSH1 0x20 DUP3 ADD DUP1 MLOAD PUSH28 0xFFFFFFFFFFFFFFFFFFFFFFFFFFFFFFFFFFFFFFFFFFFFFFFFFFFFFFFF DUP4 DUP2 DUP4 AND OR DUP4 MSTORE POP POP POP POP PUSH1 0x40 MLOAD PUSH2 0x2F8 SWAP2 SWAP1 PUSH2 0x755 JUMP JUMPDEST PUSH1 0x0 PUSH1 0x40 MLOAD DUP1 DUP4 SUB DUP2 DUP6 GAS DELEGATECALL SWAP2 POP POP RETURNDATASIZE DUP1 PUSH1 0x0 DUP2 EQ PUSH2 0x333 JUMPI PUSH1 0x40 MLOAD SWAP2 POP PUSH1 0x1F NOT PUSH1 0x3F RETURNDATASIZE ADD AND DUP3 ADD PUSH1 0x40 MSTORE RETURNDATASIZE DUP3 MSTORE RETURNDATASIZE PUSH1 0x0 PUSH1 0x20 DUP5 ADD RETURNDATACOPY PUSH2 0x338 JUMP JUMPDEST PUSH1 0x60 SWAP2 POP JUMPDEST POP SWAP2 POP SWAP2 POP PUSH1 0x0 DUP1 PUSH1 0x0 DUP4 DUP1 PUSH1 0x20 ADD SWAP1 MLOAD DUP2 ADD SWAP1 PUSH2 0x356 SWAP2 SWAP1 PUSH2 0x7D6 JUMP JUMPDEST SWAP3 POP SWAP3 POP SWAP3 POP PUSH1 0x0 CALLER PUSH20 0xFFFFFFFFFFFFFFFFFFFFFFFFFFFFFFFFFFFFFFFF AND DUP5 PUSH20 0xFFFFFFFFFFFFFFFFFFFFFFFFFFFFFFFFFFFFFFFF AND EQ SWAP1 POP DUP4 DUP4 DUP4 DUP4 SWAP10 POP SWAP10 POP SWAP10 POP SWAP10 POP POP POP POP POP POP POP SWAP2 SWAP4 POP SWAP2 SWAP4 JUMP JUMPDEST PUSH1 0x0 DUP1 PUSH1 0x0 DUP1 PUSH1 0x0 DUP6 PUSH20 0xFFFFFFFFFFFFFFFFFFFFFFFFFFFFFFFFFFFFFFFF AND PUSH1 0x1 PUSH1 0x2 PUSH1 0x40 MLOAD PUSH1 0x24 ADD PUSH2 0x3DC SWAP3 SWAP2 SWAP1 PUSH2 0x6BB JUMP JUMPDEST PUSH1 0x40 MLOAD PUSH1 0x20 DUP2 DUP4 SUB SUB DUP2 MSTORE SWAP1 PUSH1 0x40 MSTORE PUSH32 0x492CECF700000000000000000000000000000000000000000000000000000000 PUSH28 0xFFFFFFFFFFFFFFFFFFFFFFFFFFFFFFFFFFFFFFFFFFFFFFFFFFFFFFFF NOT AND PUSH1 0x20 DUP3 ADD DUP1 MLOAD PUSH28 0xFFFFFFFFFFFFFFFFFFFFFFFFFFFFFFFFFFFFFFFFFFFFFFFFFFFFFFFF DUP4 DUP2 DUP4 AND OR DUP4 MSTORE POP POP POP POP PUSH1 0x40 MLOAD PUSH2 0x466 SWAP2 SWAP1 PUSH2 0x755 JUMP JUMPDEST PUSH1 0x0 PUSH1 0x40 MLOAD DUP1 DUP4 SUB DUP2 DUP6 GAS STATICCALL SWAP2 POP POP RETURNDATASIZE DUP1 PUSH1 0x0 DUP2 EQ PUSH2 0x4A1 JUMPI PUSH1 0x40 MLOAD SWAP2 POP PUSH1 0x1F NOT PUSH1 0x3F RETURNDATASIZE ADD AND DUP3 ADD PUSH1 0x40 MSTORE RETURNDATASIZE DUP3 MSTORE RETURNDATASIZE PUSH1 0x0 PUSH1 0x20 DUP5 ADD RETURNDATACOPY PUSH2 0x4A6 JUMP JUMPDEST PUSH1 0x60 SWAP2 POP JUMPDEST POP SWAP2 POP SWAP2 POP PUSH1 0x0 DUP1 PUSH1 0x0 DUP4 DUP1 PUSH1 0x20 ADD SWAP1 MLOAD DUP2 ADD SWAP1 PUSH2 0x4C4 SWAP2 SWAP1 PUSH2 0x7D6 JUMP JUMPDEST SWAP3 POP SWAP3 POP SWAP3 POP DUP3 DUP3 DUP3 SWAP8 POP SWAP8 POP SWAP8 POP POP POP POP POP POP SWAP2 SWAP4 SWAP1 SWAP3 POP JUMP JUMPDEST PUSH1 0x0 DUP1 REVERT JUMPDEST PUSH1 0x0 PUSH20 0xFFFFFFFFFFFFFFFFFFFFFFFFFFFFFFFFFFFFFFFF DUP3 AND SWAP1 POP SWAP2 SWAP1 POP JUMP JUMPDEST PUSH1 0x0 PUSH2 0x50F DUP3 PUSH2 0x4E4 JUMP JUMPDEST SWAP1 POP SWAP2 SWAP1 POP JUMP JUMPDEST PUSH2 0x51F DUP2 PUSH2 0x504 JUMP JUMPDEST DUP2 EQ PUSH2 0x52A JUMPI PUSH1 0x0 DUP1 REVERT JUMPDEST POP JUMP JUMPDEST PUSH1 0x0 DUP2 CALLDATALOAD SWAP1 POP PUSH2 0x53C DUP2 PUSH2 0x516 JUMP JUMPDEST SWAP3 SWAP2 POP POP JUMP JUMPDEST PUSH1 0x0 PUSH1 0x20 DUP3 DUP5 SUB SLT ISZERO PUSH2 0x558 JUMPI PUSH2 0x557 PUSH2 0x4DF JUMP JUMPDEST JUMPDEST PUSH1 0x0 PUSH2 0x566 DUP5 DUP3 DUP6 ADD PUSH2 0x52D JUMP JUMPDEST SWAP2 POP POP SWAP3 SWAP2 POP POP JUMP JUMPDEST PUSH2 0x578 DUP2 PUSH2 0x504 JUMP JUMPDEST DUP3 MSTORE POP POP JUMP JUMPDEST PUSH1 0x0 DUP2 SWAP1 POP SWAP2 SWAP1 POP JUMP JUMPDEST PUSH2 0x591 DUP2 PUSH2 0x57E JUMP JUMPDEST DUP3 MSTORE POP POP JUMP JUMPDEST PUSH1 0x0 PUSH1 0x60 DUP3 ADD SWAP1 POP PUSH2 0x5AC PUSH1 0x0 DUP4 ADD DUP7 PUSH2 0x56F JUMP JUMPDEST PUSH2 0x5B9 PUSH1 0x20 DUP4 ADD DUP6 PUSH2 0x56F JUMP JUMPDEST PUSH2 0x5C6 PUSH1 0x40 DUP4 ADD DUP5 PUSH2 0x588 JUMP JUMPDEST SWAP5 SWAP4 POP POP POP POP JUMP JUMPDEST PUSH1 0x0 DUP2 ISZERO ISZERO SWAP1 POP SWAP2 SWAP1 POP JUMP JUMPDEST PUSH2 0x5E3 DUP2 PUSH2 0x5CE JUMP JUMPDEST DUP3 MSTORE POP POP JUMP JUMPDEST PUSH1 0x0 PUSH1 0x80 DUP3 ADD SWAP1 POP PUSH2 0x5FE PUSH1 0x0 DUP4 ADD DUP8 PUSH2 0x56F JUMP JUMPDEST PUSH2 0x60B PUSH1 0x20 DUP4 ADD DUP7 PUSH2 0x56F JUMP JUMPDEST PUSH2 0x618 PUSH1 0x40 DUP4 ADD DUP6 PUSH2 0x588 JUMP JUMPDEST PUSH2 0x625 PUSH1 0x60 DUP4 ADD DUP5 PUSH2 0x5DA JUMP JUMPDEST SWAP6 SWAP5 POP POP POP POP POP JUMP JUMPDEST PUSH1 0x0 DUP2 SWAP1 POP SWAP2 SWAP1 POP JUMP JUMPDEST PUSH1 0x0 PUSH1 0xFF DUP3 AND SWAP1 POP SWAP2 SWAP1 POP JUMP JUMPDEST PUSH1 0x0 DUP2 SWAP1 POP SWAP2 SWAP1 POP JUMP JUMPDEST PUSH1 0x0 PUSH2 0x66A PUSH2 0x665 PUSH2 0x660 DUP5 PUSH2 0x62E JUMP JUMPDEST PUSH2 0x645 JUMP JUMPDEST PUSH2 0x638 JUMP JUMPDEST SWAP1 POP SWAP2 SWAP1 POP JUMP JUMPDEST PUSH2 0x67A DUP2 PUSH2 0x64F JUMP JUMPDEST DUP3 MSTORE POP POP JUMP JUMPDEST PUSH1 0x0 DUP2 SWAP1 POP SWAP2 SWAP1 POP JUMP JUMPDEST PUSH1 0x0 PUSH2 0x6A5 PUSH2 0x6A0 PUSH2 0x69B DUP5 PUSH2 0x680 JUMP JUMPDEST PUSH2 0x645 JUMP JUMPDEST PUSH2 0x638 JUMP JUMPDEST SWAP1 POP SWAP2 SWAP1 POP JUMP JUMPDEST PUSH2 0x6B5 DUP2 PUSH2 0x68A JUMP JUMPDEST DUP3 MSTORE POP POP JUMP JUMPDEST PUSH1 0x0 PUSH1 0x40 DUP3 ADD SWAP1 POP PUSH2 0x6D0 PUSH1 0x0 DUP4 ADD DUP6 PUSH2 0x671 JUMP JUMPDEST PUSH2 0x6DD PUSH1 0x20 DUP4 ADD DUP5 PUSH2 0x6AC JUMP JUMPDEST SWAP4 SWAP3 POP POP POP JUMP JUMPDEST PUSH1 0x0 DUP2 MLOAD SWAP1 POP SWAP2 SWAP1 POP JUMP JUMPDEST PUSH1 0x0 DUP2 SWAP1 POP SWAP3 SWAP2 POP POP JUMP JUMPDEST PUSH1 0x0 JUMPDEST DUP4 DUP2 LT ISZERO PUSH2 0x718 JUMPI DUP1 DUP3 ADD MLOAD DUP2 DUP5 ADD MSTORE PUSH1 0x20 DUP2 ADD SWAP1 POP PUSH2 0x6FD JUMP JUMPDEST PUSH1 0x0 DUP5 DUP5 ADD MSTORE POP POP POP POP JUMP JUMPDEST PUSH1 0x0 PUSH2 0x72F DUP3 PUSH2 0x6E4 JUMP JUMPDEST PUSH2 0x739 DUP2 DUP6 PUSH2 0x6EF JUMP JUMPDEST SWAP4 POP PUSH2 0x749 DUP2 DUP6 PUSH1 0x20 DUP7 ADD PUSH2 0x6FA JUMP JUMPDEST DUP1 DUP5 ADD SWAP2 POP POP SWAP3 SWAP2 POP POP JUMP JUMPDEST PUSH1 0x0 PUSH2 0x761 DUP3 DUP5 PUSH2 0x724 JUMP JUMPDEST SWAP2 POP DUP2 SWAP1 POP SWAP3 SWAP2 POP POP JUMP JUMPDEST PUSH1 0x0 PUSH2 0x777 DUP3 PUSH2 0x4E4 JUMP JUMPDEST SWAP1 POP SWAP2 SWAP1 POP JUMP JUMPDEST PUSH2 0x787 DUP2 PUSH2 0x76C JUMP JUMPDEST DUP2 EQ PUSH2 0x792 JUMPI PUSH1 0x0 DUP1 REVERT JUMPDEST POP JUMP JUMPDEST PUSH1 0x0 DUP2 MLOAD SWAP1 POP PUSH2 0x7A4 DUP2 PUSH2 0x77E JUMP JUMPDEST SWAP3 SWAP2 POP POP JUMP JUMPDEST PUSH2 0x7B3 DUP2 PUSH2 0x57E JUMP JUMPDEST DUP2 EQ PUSH2 0x7BE JUMPI PUSH1 0x0 DUP1 REVERT JUMPDEST POP JUMP JUMPDEST PUSH1 0x0 DUP2 MLOAD SWAP1 POP PUSH2 0x7D0 DUP2 PUSH2 0x7AA JUMP JUMPDEST SWAP3 SWAP2 POP POP JUMP JUMPDEST PUSH1 0x0 DUP1 PUSH1 0x0 PUSH1 0x60 DUP5 DUP7 SUB SLT ISZERO PUSH2 0x7EF JUMPI PUSH2 0x7EE PUSH2 0x4DF JUMP JUMPDEST JUMPDEST PUSH1 0x0 PUSH2 0x7FD DUP7 DUP3 DUP8 ADD PUSH2 0x795 JUMP JUMPDEST SWAP4 POP POP PUSH1 0x20 PUSH2 0x80E DUP7 DUP3 DUP8 ADD PUSH2 0x795 JUMP JUMPDEST SWAP3 POP POP PUSH1 0x40 PUSH2 0x81F DUP7 DUP3 DUP8 ADD PUSH2 0x7C1 JUMP JUMPDEST SWAP2 POP POP SWAP3 POP SWAP3 POP SWAP3 JUMP INVALID LOG2 PUSH5 0x6970667358 0x22 SLT KECCAK256 0xE6 EXTCODEHASH PUSH30 0xD52F0C5C9996B37A2B9AE34788B9599FF9F34B438A0452E960826EF64064 PUSH20 0x6F6C634300081100330000000000000000000000 "
				},
				"gasEstimates": {
					"creation": {
						"codeDepositCost": "428600",
						"executionCost": "461",
						"totalCost": "429061"
					},
					"external": {
						"callTest(address)": "infinite",
						"delegatecallTest(address)": "infinite",
						"staticcallTest(address)": "infinite",
						"testAddress()": "147"
					}
				},
				"methodIdentifiers": {
					"callTest(address)": "32eb12f1",
					"delegatecallTest(address)": "33a48d09",
					"staticcallTest(address)": "eb3134c9",
					"testAddress()": "262330b4"
				}
			},
			"storageLayout": {
				"storage": [],
				"types": null
			},
			"userdoc": {
				"kind": "user",
				"methods": {
					"callTest(address)": {
						"notice": ".call(bytes memory): 用给定的有效荷载(payload)发出低级`call`调用,并返回交易释放成功和返回数据 .delegatecall(bytes memory):用给定的有效荷载(payload)发出低级`DELEGATECALL`调用,并返回交易释放成功和返回数据 .staticcall(bytes memory):用给定的有效荷载(payload)发出低级`STATICCALL`调用,并返回交易释放成功和返回数据 call: 调用后内置变量 msg 的值会修改为调用者，执行环境为被调用者的运行环境(storage, 变量, this都是被调用者的)。 delegatecall: 调用后内置变量 msg 的值不会修改为调用者，但执行环境为调用者的运行环境((storage, 变量, this都是调用者的))。 staticcall: 与call相同, 但是不能修改状态变量"
					},
					"testAddress()": {
						"notice": "address(): 将十六进制转换为普通地址, 或者获取合约的地址 payable(): 将普通地址转换为可支付地址"
					}
				},
				"version": 1
			}
		}
	}
}