{
	"_03_数据类型_值类型_整型.sol": {
		"HelloWorld": {
			"abi": [
				{
					"inputs": [],
					"name": "add",
					"outputs": [
						{
							"internalType": "uint256",
							"name": "",
							"type": "uint256"
						}
					],
					"stateMutability": "pure",
					"type": "function"
				},
				{
					"inputs": [],
					"name": "add1",
					"outputs": [
						{
							"internalType": "uint256",
							"name": "",
							"type": "uint256"
						}
					],
					"stateMutability": "pure",
					"type": "function"
				},
				{
					"inputs": [],
					"name": "max256",
					"outputs": [
						{
							"internalType": "int256",
							"name": "",
							"type": "int256"
						}
					],
					"stateMutability": "view",
					"type": "function"
				},
				{
					"inputs": [],
					"name": "min256",
					"outputs": [
						{
							"internalType": "int256",
							"name": "",
							"type": "int256"
						}
					],
					"stateMutability": "view",
					"type": "function"
				},
				{
					"inputs": [],
					"name": "u1",
					"outputs": [
						{
							"internalType": "uint256",
							"name": "",
							"type": "uint256"
						}
					],
					"stateMutability": "view",
					"type": "function"
				},
				{
					"inputs": [],
					"name": "u256Max",
					"outputs": [
						{
							"internalType": "uint256",
							"name": "",
							"type": "uint256"
						}
					],
					"stateMutability": "view",
					"type": "function"
				},
				{
					"inputs": [],
					"name": "u258Min",
					"outputs": [
						{
							"internalType": "uint256",
							"name": "",
							"type": "uint256"
						}
					],
					"stateMutability": "view",
					"type": "function"
				},
				{
					"inputs": [],
					"name": "u8Max",
					"outputs": [
						{
							"internalType": "uint8",
							"name": "",
							"type": "uint8"
						}
					],
					"stateMutability": "view",
					"type": "function"
				},
				{
					"inputs": [],
					"name": "u8Min",
					"outputs": [
						{
							"internalType": "uint8",
							"name": "",
							"type": "uint8"
						}
					],
					"stateMutability": "view",
					"type": "function"
				}
			],
			"devdoc": {
				"kind": "dev",
				"methods": {},
				"version": 1
			},
			"evm": {
				"assembly": "    /* \"_03_\\xe6\\x95\\xb0\\xe6\\x8d\\xae\\xe7\\xb1\\xbb\\xe5\\x9e\\x8b_\\xe5\\x80\\xbc\\xe7\\xb1\\xbb\\xe5\\x9e\\x8b_\\xe6\\x95\\xb4\\xe5\\x9e\\x8b.sol\":129:1921  contract HelloWorld {... */\n  mstore(0x40, 0x80)\n    /* \"_03_\\xe6\\x95\\xb0\\xe6\\x8d\\xae\\xe7\\xb1\\xbb\\xe5\\x9e\\x8b_\\xe5\\x80\\xbc\\xe7\\xb1\\xbb\\xe5\\x9e\\x8b_\\xe6\\x95\\xb4\\xe5\\x9e\\x8b.sol\":783:786  123 */\n  0x7b\n    /* \"_03_\\xe6\\x95\\xb0\\xe6\\x8d\\xae\\xe7\\xb1\\xbb\\xe5\\x9e\\x8b_\\xe5\\x80\\xbc\\xe7\\xb1\\xbb\\xe5\\x9e\\x8b_\\xe6\\x95\\xb4\\xe5\\x9e\\x8b.sol\":763:786  uint256 public u1 = 123 */\n  0x00\n  sstore\n    /* \"_03_\\xe6\\x95\\xb0\\xe6\\x8d\\xae\\xe7\\xb1\\xbb\\xe5\\x9e\\x8b_\\xe5\\x80\\xbc\\xe7\\xb1\\xbb\\xe5\\x9e\\x8b_\\xe6\\x95\\xb4\\xe5\\x9e\\x8b.sol\":818:833  type(uint8).max */\n  0xff\n    /* \"_03_\\xe6\\x95\\xb0\\xe6\\x8d\\xae\\xe7\\xb1\\xbb\\xe5\\x9e\\x8b_\\xe5\\x80\\xbc\\xe7\\xb1\\xbb\\xe5\\x9e\\x8b_\\xe6\\x95\\xb4\\xe5\\x9e\\x8b.sol\":797:833  uint8 public u8Max = type(uint8).max */\n  0x01\n  exp(0x0100, 0x00)\n  dup2\n  sload\n  dup2\n  0xff\n  mul\n  not\n  and\n  swap1\n  dup4\n  0xff\n  and\n  mul\n  or\n  swap1\n  sstore\n  pop\n    /* \"_03_\\xe6\\x95\\xb0\\xe6\\x8d\\xae\\xe7\\xb1\\xbb\\xe5\\x9e\\x8b_\\xe5\\x80\\xbc\\xe7\\xb1\\xbb\\xe5\\x9e\\x8b_\\xe6\\x95\\xb4\\xe5\\x9e\\x8b.sol\":896:911  type(uint8).min */\n  0x00\n    /* \"_03_\\xe6\\x95\\xb0\\xe6\\x8d\\xae\\xe7\\xb1\\xbb\\xe5\\x9e\\x8b_\\xe5\\x80\\xbc\\xe7\\xb1\\xbb\\xe5\\x9e\\x8b_\\xe6\\x95\\xb4\\xe5\\x9e\\x8b.sol\":875:911  uint8 public u8Min = type(uint8).min */\n  0x01\n  dup1\n  0x0100\n  exp\n  dup2\n  sload\n  dup2\n  0xff\n  mul\n  not\n  and\n  swap1\n  dup4\n  0xff\n  and\n  mul\n  or\n  swap1\n  sstore\n  pop\n    /* \"_03_\\xe6\\x95\\xb0\\xe6\\x8d\\xae\\xe7\\xb1\\xbb\\xe5\\x9e\\x8b_\\xe5\\x80\\xbc\\xe7\\xb1\\xbb\\xe5\\x9e\\x8b_\\xe6\\x95\\xb4\\xe5\\x9e\\x8b.sol\":975:992  type(uint256).max */\n  0xffffffffffffffffffffffffffffffffffffffffffffffffffffffffffffffff\n    /* \"_03_\\xe6\\x95\\xb0\\xe6\\x8d\\xae\\xe7\\xb1\\xbb\\xe5\\x9e\\x8b_\\xe5\\x80\\xbc\\xe7\\xb1\\xbb\\xe5\\x9e\\x8b_\\xe6\\x95\\xb4\\xe5\\x9e\\x8b.sol\":950:992  uint256 public u256Max = type(uint256).max */\n  0x02\n  sstore\n    /* \"_03_\\xe6\\x95\\xb0\\xe6\\x8d\\xae\\xe7\\xb1\\xbb\\xe5\\x9e\\x8b_\\xe5\\x80\\xbc\\xe7\\xb1\\xbb\\xe5\\x9e\\x8b_\\xe6\\x95\\xb4\\xe5\\x9e\\x8b.sol\":1063:1080  type(uint256).min */\n  0x00\n    /* \"_03_\\xe6\\x95\\xb0\\xe6\\x8d\\xae\\xe7\\xb1\\xbb\\xe5\\x9e\\x8b_\\xe5\\x80\\xbc\\xe7\\xb1\\xbb\\xe5\\x9e\\x8b_\\xe6\\x95\\xb4\\xe5\\x9e\\x8b.sol\":1038:1080  uint256 public u258Min = type(uint256).min */\n  0x03\n  sstore\n    /* \"_03_\\xe6\\x95\\xb0\\xe6\\x8d\\xae\\xe7\\xb1\\xbb\\xe5\\x9e\\x8b_\\xe5\\x80\\xbc\\xe7\\xb1\\xbb\\xe5\\x9e\\x8b_\\xe6\\x95\\xb4\\xe5\\x9e\\x8b.sol\":1144:1160  type(int256).max */\n  0x7fffffffffffffffffffffffffffffffffffffffffffffffffffffffffffffff\n    /* \"_03_\\xe6\\x95\\xb0\\xe6\\x8d\\xae\\xe7\\xb1\\xbb\\xe5\\x9e\\x8b_\\xe5\\x80\\xbc\\xe7\\xb1\\xbb\\xe5\\x9e\\x8b_\\xe6\\x95\\xb4\\xe5\\x9e\\x8b.sol\":1121:1160  int256 public max256 = type(int256).max */\n  0x04\n  sstore\n    /* \"_03_\\xe6\\x95\\xb0\\xe6\\x8d\\xae\\xe7\\xb1\\xbb\\xe5\\x9e\\x8b_\\xe5\\x80\\xbc\\xe7\\xb1\\xbb\\xe5\\x9e\\x8b_\\xe6\\x95\\xb4\\xe5\\x9e\\x8b.sol\":1228:1244  type(int256).min */\n  0x8000000000000000000000000000000000000000000000000000000000000000\n    /* \"_03_\\xe6\\x95\\xb0\\xe6\\x8d\\xae\\xe7\\xb1\\xbb\\xe5\\x9e\\x8b_\\xe5\\x80\\xbc\\xe7\\xb1\\xbb\\xe5\\x9e\\x8b_\\xe6\\x95\\xb4\\xe5\\x9e\\x8b.sol\":1205:1244  int256 public min256 = type(int256).min */\n  0x05\n  sstore\n    /* \"_03_\\xe6\\x95\\xb0\\xe6\\x8d\\xae\\xe7\\xb1\\xbb\\xe5\\x9e\\x8b_\\xe5\\x80\\xbc\\xe7\\xb1\\xbb\\xe5\\x9e\\x8b_\\xe6\\x95\\xb4\\xe5\\x9e\\x8b.sol\":129:1921  contract HelloWorld {... */\n  callvalue\n  dup1\n  iszero\n  tag_1\n  jumpi\n  0x00\n  dup1\n  revert\ntag_1:\n  pop\n  dataSize(sub_0)\n  dup1\n  dataOffset(sub_0)\n  0x00\n  codecopy\n  0x00\n  return\nstop\n\nsub_0: assembly {\n        /* \"_03_\\xe6\\x95\\xb0\\xe6\\x8d\\xae\\xe7\\xb1\\xbb\\xe5\\x9e\\x8b_\\xe5\\x80\\xbc\\xe7\\xb1\\xbb\\xe5\\x9e\\x8b_\\xe6\\x95\\xb4\\xe5\\x9e\\x8b.sol\":129:1921  contract HelloWorld {... */\n      mstore(0x40, 0x80)\n      callvalue\n      dup1\n      iszero\n      tag_1\n      jumpi\n      0x00\n      dup1\n      revert\n    tag_1:\n      pop\n      jumpi(tag_2, lt(calldatasize, 0x04))\n      shr(0xe0, calldataload(0x00))\n      dup1\n      0x50b85f21\n      gt\n      tag_12\n      jumpi\n      dup1\n      0x50b85f21\n      eq\n      tag_7\n      jumpi\n      dup1\n      0x7d34f10f\n      eq\n      tag_8\n      jumpi\n      dup1\n      0xbc1a0ffb\n      eq\n      tag_9\n      jumpi\n      dup1\n      0xc728df8b\n      eq\n      tag_10\n      jumpi\n      dup1\n      0xd567e94b\n      eq\n      tag_11\n      jumpi\n      jump(tag_2)\n    tag_12:\n      dup1\n      0x35921a\n      eq\n      tag_3\n      jumpi\n      dup1\n      0x1aa35610\n      eq\n      tag_4\n      jumpi\n      dup1\n      0x234a73d0\n      eq\n      tag_5\n      jumpi\n      dup1\n      0x4f2be91f\n      eq\n      tag_6\n      jumpi\n    tag_2:\n      0x00\n      dup1\n      revert\n        /* \"_03_\\xe6\\x95\\xb0\\xe6\\x8d\\xae\\xe7\\xb1\\xbb\\xe5\\x9e\\x8b_\\xe5\\x80\\xbc\\xe7\\xb1\\xbb\\xe5\\x9e\\x8b_\\xe6\\x95\\xb4\\xe5\\x9e\\x8b.sol\":1763:1918  function add1() public pure returns (uint256) {... */\n    tag_3:\n      tag_13\n      tag_14\n      jump\t// in\n    tag_13:\n      mload(0x40)\n      tag_15\n      swap2\n      swap1\n      tag_16\n      jump\t// in\n    tag_15:\n      mload(0x40)\n      dup1\n      swap2\n      sub\n      swap1\n      return\n        /* \"_03_\\xe6\\x95\\xb0\\xe6\\x8d\\xae\\xe7\\xb1\\xbb\\xe5\\x9e\\x8b_\\xe5\\x80\\xbc\\xe7\\xb1\\xbb\\xe5\\x9e\\x8b_\\xe6\\x95\\xb4\\xe5\\x9e\\x8b.sol\":763:786  uint256 public u1 = 123 */\n    tag_4:\n      tag_17\n      tag_18\n      jump\t// in\n    tag_17:\n      mload(0x40)\n      tag_19\n      swap2\n      swap1\n      tag_16\n      jump\t// in\n    tag_19:\n      mload(0x40)\n      dup1\n      swap2\n      sub\n      swap1\n      return\n        /* \"_03_\\xe6\\x95\\xb0\\xe6\\x8d\\xae\\xe7\\xb1\\xbb\\xe5\\x9e\\x8b_\\xe5\\x80\\xbc\\xe7\\xb1\\xbb\\xe5\\x9e\\x8b_\\xe6\\x95\\xb4\\xe5\\x9e\\x8b.sol\":1121:1160  int256 public max256 = type(int256).max */\n    tag_5:\n      tag_20\n      tag_21\n      jump\t// in\n    tag_20:\n      mload(0x40)\n      tag_22\n      swap2\n      swap1\n      tag_23\n      jump\t// in\n    tag_22:\n      mload(0x40)\n      dup1\n      swap2\n      sub\n      swap1\n      return\n        /* \"_03_\\xe6\\x95\\xb0\\xe6\\x8d\\xae\\xe7\\xb1\\xbb\\xe5\\x9e\\x8b_\\xe5\\x80\\xbc\\xe7\\xb1\\xbb\\xe5\\x9e\\x8b_\\xe6\\x95\\xb4\\xe5\\x9e\\x8b.sol\":1567:1755  function add() public pure returns (uint256) {... */\n    tag_6:\n      tag_24\n      tag_25\n      jump\t// in\n    tag_24:\n      mload(0x40)\n      tag_26\n      swap2\n      swap1\n      tag_16\n      jump\t// in\n    tag_26:\n      mload(0x40)\n      dup1\n      swap2\n      sub\n      swap1\n      return\n        /* \"_03_\\xe6\\x95\\xb0\\xe6\\x8d\\xae\\xe7\\xb1\\xbb\\xe5\\x9e\\x8b_\\xe5\\x80\\xbc\\xe7\\xb1\\xbb\\xe5\\x9e\\x8b_\\xe6\\x95\\xb4\\xe5\\x9e\\x8b.sol\":1205:1244  int256 public min256 = type(int256).min */\n    tag_7:\n      tag_27\n      tag_28\n      jump\t// in\n    tag_27:\n      mload(0x40)\n      tag_29\n      swap2\n      swap1\n      tag_23\n      jump\t// in\n    tag_29:\n      mload(0x40)\n      dup1\n      swap2\n      sub\n      swap1\n      return\n        /* \"_03_\\xe6\\x95\\xb0\\xe6\\x8d\\xae\\xe7\\xb1\\xbb\\xe5\\x9e\\x8b_\\xe5\\x80\\xbc\\xe7\\xb1\\xbb\\xe5\\x9e\\x8b_\\xe6\\x95\\xb4\\xe5\\x9e\\x8b.sol\":875:911  uint8 public u8Min = type(uint8).min */\n    tag_8:\n      tag_30\n      tag_31\n      jump\t// in\n    tag_30:\n      mload(0x40)\n      tag_32\n      swap2\n      swap1\n      tag_33\n      jump\t// in\n    tag_32:\n      mload(0x40)\n      dup1\n      swap2\n      sub\n      swap1\n      return\n        /* \"_03_\\xe6\\x95\\xb0\\xe6\\x8d\\xae\\xe7\\xb1\\xbb\\xe5\\x9e\\x8b_\\xe5\\x80\\xbc\\xe7\\xb1\\xbb\\xe5\\x9e\\x8b_\\xe6\\x95\\xb4\\xe5\\x9e\\x8b.sol\":1038:1080  uint256 public u258Min = type(uint256).min */\n    tag_9:\n      tag_34\n      tag_35\n      jump\t// in\n    tag_34:\n      mload(0x40)\n      tag_36\n      swap2\n      swap1\n      tag_16\n      jump\t// in\n    tag_36:\n      mload(0x40)\n      dup1\n      swap2\n      sub\n      swap1\n      return\n        /* \"_03_\\xe6\\x95\\xb0\\xe6\\x8d\\xae\\xe7\\xb1\\xbb\\xe5\\x9e\\x8b_\\xe5\\x80\\xbc\\xe7\\xb1\\xbb\\xe5\\x9e\\x8b_\\xe6\\x95\\xb4\\xe5\\x9e\\x8b.sol\":950:992  uint256 public u256Max = type(uint256).max */\n    tag_10:\n      tag_37\n      tag_38\n      jump\t// in\n    tag_37:\n      mload(0x40)\n      tag_39\n      swap2\n      swap1\n      tag_16\n      jump\t// in\n    tag_39:\n      mload(0x40)\n      dup1\n      swap2\n      sub\n      swap1\n      return\n        /* \"_03_\\xe6\\x95\\xb0\\xe6\\x8d\\xae\\xe7\\xb1\\xbb\\xe5\\x9e\\x8b_\\xe5\\x80\\xbc\\xe7\\xb1\\xbb\\xe5\\x9e\\x8b_\\xe6\\x95\\xb4\\xe5\\x9e\\x8b.sol\":797:833  uint8 public u8Max = type(uint8).max */\n    tag_11:\n      tag_40\n      tag_41\n      jump\t// in\n    tag_40:\n      mload(0x40)\n      tag_42\n      swap2\n      swap1\n      tag_33\n      jump\t// in\n    tag_42:\n      mload(0x40)\n      dup1\n      swap2\n      sub\n      swap1\n      return\n        /* \"_03_\\xe6\\x95\\xb0\\xe6\\x8d\\xae\\xe7\\xb1\\xbb\\xe5\\x9e\\x8b_\\xe5\\x80\\xbc\\xe7\\xb1\\xbb\\xe5\\x9e\\x8b_\\xe6\\x95\\xb4\\xe5\\x9e\\x8b.sol\":1763:1918  function add1() public pure returns (uint256) {... */\n    tag_14:\n        /* \"_03_\\xe6\\x95\\xb0\\xe6\\x8d\\xae\\xe7\\xb1\\xbb\\xe5\\x9e\\x8b_\\xe5\\x80\\xbc\\xe7\\xb1\\xbb\\xe5\\x9e\\x8b_\\xe6\\x95\\xb4\\xe5\\x9e\\x8b.sol\":1800:1807  uint256 */\n      0x00\n        /* \"_03_\\xe6\\x95\\xb0\\xe6\\x8d\\xae\\xe7\\xb1\\xbb\\xe5\\x9e\\x8b_\\xe5\\x80\\xbc\\xe7\\xb1\\xbb\\xe5\\x9e\\x8b_\\xe6\\x95\\xb4\\xe5\\x9e\\x8b.sol\":1820:1831  uint256 max */\n      dup1\n        /* \"_03_\\xe6\\x95\\xb0\\xe6\\x8d\\xae\\xe7\\xb1\\xbb\\xe5\\x9e\\x8b_\\xe5\\x80\\xbc\\xe7\\xb1\\xbb\\xe5\\x9e\\x8b_\\xe6\\x95\\xb4\\xe5\\x9e\\x8b.sol\":1834:1851  type(uint256).max */\n      0xffffffffffffffffffffffffffffffffffffffffffffffffffffffffffffffff\n        /* \"_03_\\xe6\\x95\\xb0\\xe6\\x8d\\xae\\xe7\\xb1\\xbb\\xe5\\x9e\\x8b_\\xe5\\x80\\xbc\\xe7\\xb1\\xbb\\xe5\\x9e\\x8b_\\xe6\\x95\\xb4\\xe5\\x9e\\x8b.sol\":1820:1851  uint256 max = type(uint256).max */\n      swap1\n      pop\n        /* \"_03_\\xe6\\x95\\xb0\\xe6\\x8d\\xae\\xe7\\xb1\\xbb\\xe5\\x9e\\x8b_\\xe5\\x80\\xbc\\xe7\\xb1\\xbb\\xe5\\x9e\\x8b_\\xe6\\x95\\xb4\\xe5\\x9e\\x8b.sol\":1875:1876  1 */\n      0x01\n        /* \"_03_\\xe6\\x95\\xb0\\xe6\\x8d\\xae\\xe7\\xb1\\xbb\\xe5\\x9e\\x8b_\\xe5\\x80\\xbc\\xe7\\xb1\\xbb\\xe5\\x9e\\x8b_\\xe6\\x95\\xb4\\xe5\\x9e\\x8b.sol\":1869:1872  max */\n      dup2\n        /* \"_03_\\xe6\\x95\\xb0\\xe6\\x8d\\xae\\xe7\\xb1\\xbb\\xe5\\x9e\\x8b_\\xe5\\x80\\xbc\\xe7\\xb1\\xbb\\xe5\\x9e\\x8b_\\xe6\\x95\\xb4\\xe5\\x9e\\x8b.sol\":1869:1876  max + 1 */\n      tag_44\n      swap2\n      swap1\n      tag_45\n      jump\t// in\n    tag_44:\n        /* \"_03_\\xe6\\x95\\xb0\\xe6\\x8d\\xae\\xe7\\xb1\\xbb\\xe5\\x9e\\x8b_\\xe5\\x80\\xbc\\xe7\\xb1\\xbb\\xe5\\x9e\\x8b_\\xe6\\x95\\xb4\\xe5\\x9e\\x8b.sol\":1862:1876  return max + 1 */\n      swap2\n      pop\n      pop\n        /* \"_03_\\xe6\\x95\\xb0\\xe6\\x8d\\xae\\xe7\\xb1\\xbb\\xe5\\x9e\\x8b_\\xe5\\x80\\xbc\\xe7\\xb1\\xbb\\xe5\\x9e\\x8b_\\xe6\\x95\\xb4\\xe5\\x9e\\x8b.sol\":1763:1918  function add1() public pure returns (uint256) {... */\n      swap1\n      jump\t// out\n        /* \"_03_\\xe6\\x95\\xb0\\xe6\\x8d\\xae\\xe7\\xb1\\xbb\\xe5\\x9e\\x8b_\\xe5\\x80\\xbc\\xe7\\xb1\\xbb\\xe5\\x9e\\x8b_\\xe6\\x95\\xb4\\xe5\\x9e\\x8b.sol\":763:786  uint256 public u1 = 123 */\n    tag_18:\n      sload(0x00)\n      dup2\n      jump\t// out\n        /* \"_03_\\xe6\\x95\\xb0\\xe6\\x8d\\xae\\xe7\\xb1\\xbb\\xe5\\x9e\\x8b_\\xe5\\x80\\xbc\\xe7\\xb1\\xbb\\xe5\\x9e\\x8b_\\xe6\\x95\\xb4\\xe5\\x9e\\x8b.sol\":1121:1160  int256 public max256 = type(int256).max */\n    tag_21:\n      sload(0x04)\n      dup2\n      jump\t// out\n        /* \"_03_\\xe6\\x95\\xb0\\xe6\\x8d\\xae\\xe7\\xb1\\xbb\\xe5\\x9e\\x8b_\\xe5\\x80\\xbc\\xe7\\xb1\\xbb\\xe5\\x9e\\x8b_\\xe6\\x95\\xb4\\xe5\\x9e\\x8b.sol\":1567:1755  function add() public pure returns (uint256) {... */\n    tag_25:\n        /* \"_03_\\xe6\\x95\\xb0\\xe6\\x8d\\xae\\xe7\\xb1\\xbb\\xe5\\x9e\\x8b_\\xe5\\x80\\xbc\\xe7\\xb1\\xbb\\xe5\\x9e\\x8b_\\xe6\\x95\\xb4\\xe5\\x9e\\x8b.sol\":1603:1610  uint256 */\n      0x00\n        /* \"_03_\\xe6\\x95\\xb0\\xe6\\x8d\\xae\\xe7\\xb1\\xbb\\xe5\\x9e\\x8b_\\xe5\\x80\\xbc\\xe7\\xb1\\xbb\\xe5\\x9e\\x8b_\\xe6\\x95\\xb4\\xe5\\x9e\\x8b.sol\":1623:1634  uint256 max */\n      dup1\n        /* \"_03_\\xe6\\x95\\xb0\\xe6\\x8d\\xae\\xe7\\xb1\\xbb\\xe5\\x9e\\x8b_\\xe5\\x80\\xbc\\xe7\\xb1\\xbb\\xe5\\x9e\\x8b_\\xe6\\x95\\xb4\\xe5\\x9e\\x8b.sol\":1637:1654  type(uint256).max */\n      0xffffffffffffffffffffffffffffffffffffffffffffffffffffffffffffffff\n        /* \"_03_\\xe6\\x95\\xb0\\xe6\\x8d\\xae\\xe7\\xb1\\xbb\\xe5\\x9e\\x8b_\\xe5\\x80\\xbc\\xe7\\xb1\\xbb\\xe5\\x9e\\x8b_\\xe6\\x95\\xb4\\xe5\\x9e\\x8b.sol\":1623:1654  uint256 max = type(uint256).max */\n      swap1\n      pop\n        /* \"_03_\\xe6\\x95\\xb0\\xe6\\x8d\\xae\\xe7\\xb1\\xbb\\xe5\\x9e\\x8b_\\xe5\\x80\\xbc\\xe7\\xb1\\xbb\\xe5\\x9e\\x8b_\\xe6\\x95\\xb4\\xe5\\x9e\\x8b.sol\":1703:1704  1 */\n      0x01\n        /* \"_03_\\xe6\\x95\\xb0\\xe6\\x8d\\xae\\xe7\\xb1\\xbb\\xe5\\x9e\\x8b_\\xe5\\x80\\xbc\\xe7\\xb1\\xbb\\xe5\\x9e\\x8b_\\xe6\\x95\\xb4\\xe5\\x9e\\x8b.sol\":1697:1700  max */\n      dup2\n        /* \"_03_\\xe6\\x95\\xb0\\xe6\\x8d\\xae\\xe7\\xb1\\xbb\\xe5\\x9e\\x8b_\\xe5\\x80\\xbc\\xe7\\xb1\\xbb\\xe5\\x9e\\x8b_\\xe6\\x95\\xb4\\xe5\\x9e\\x8b.sol\":1697:1704  max + 1 */\n      add\n        /* \"_03_\\xe6\\x95\\xb0\\xe6\\x8d\\xae\\xe7\\xb1\\xbb\\xe5\\x9e\\x8b_\\xe5\\x80\\xbc\\xe7\\xb1\\xbb\\xe5\\x9e\\x8b_\\xe6\\x95\\xb4\\xe5\\x9e\\x8b.sol\":1690:1704  return max + 1 */\n      swap2\n      pop\n      pop\n        /* \"_03_\\xe6\\x95\\xb0\\xe6\\x8d\\xae\\xe7\\xb1\\xbb\\xe5\\x9e\\x8b_\\xe5\\x80\\xbc\\xe7\\xb1\\xbb\\xe5\\x9e\\x8b_\\xe6\\x95\\xb4\\xe5\\x9e\\x8b.sol\":1567:1755  function add() public pure returns (uint256) {... */\n      swap1\n      jump\t// out\n        /* \"_03_\\xe6\\x95\\xb0\\xe6\\x8d\\xae\\xe7\\xb1\\xbb\\xe5\\x9e\\x8b_\\xe5\\x80\\xbc\\xe7\\xb1\\xbb\\xe5\\x9e\\x8b_\\xe6\\x95\\xb4\\xe5\\x9e\\x8b.sol\":1205:1244  int256 public min256 = type(int256).min */\n    tag_28:\n      sload(0x05)\n      dup2\n      jump\t// out\n        /* \"_03_\\xe6\\x95\\xb0\\xe6\\x8d\\xae\\xe7\\xb1\\xbb\\xe5\\x9e\\x8b_\\xe5\\x80\\xbc\\xe7\\xb1\\xbb\\xe5\\x9e\\x8b_\\xe6\\x95\\xb4\\xe5\\x9e\\x8b.sol\":875:911  uint8 public u8Min = type(uint8).min */\n    tag_31:\n      0x01\n      dup1\n      sload\n      swap1\n      0x0100\n      exp\n      swap1\n      div\n      0xff\n      and\n      dup2\n      jump\t// out\n        /* \"_03_\\xe6\\x95\\xb0\\xe6\\x8d\\xae\\xe7\\xb1\\xbb\\xe5\\x9e\\x8b_\\xe5\\x80\\xbc\\xe7\\xb1\\xbb\\xe5\\x9e\\x8b_\\xe6\\x95\\xb4\\xe5\\x9e\\x8b.sol\":1038:1080  uint256 public u258Min = type(uint256).min */\n    tag_35:\n      sload(0x03)\n      dup2\n      jump\t// out\n        /* \"_03_\\xe6\\x95\\xb0\\xe6\\x8d\\xae\\xe7\\xb1\\xbb\\xe5\\x9e\\x8b_\\xe5\\x80\\xbc\\xe7\\xb1\\xbb\\xe5\\x9e\\x8b_\\xe6\\x95\\xb4\\xe5\\x9e\\x8b.sol\":950:992  uint256 public u256Max = type(uint256).max */\n    tag_38:\n      sload(0x02)\n      dup2\n      jump\t// out\n        /* \"_03_\\xe6\\x95\\xb0\\xe6\\x8d\\xae\\xe7\\xb1\\xbb\\xe5\\x9e\\x8b_\\xe5\\x80\\xbc\\xe7\\xb1\\xbb\\xe5\\x9e\\x8b_\\xe6\\x95\\xb4\\xe5\\x9e\\x8b.sol\":797:833  uint8 public u8Max = type(uint8).max */\n    tag_41:\n      0x01\n      0x00\n      swap1\n      sload\n      swap1\n      0x0100\n      exp\n      swap1\n      div\n      0xff\n      and\n      dup2\n      jump\t// out\n        /* \"#utility.yul\":7:84   */\n    tag_47:\n        /* \"#utility.yul\":44:51   */\n      0x00\n        /* \"#utility.yul\":73:78   */\n      dup2\n        /* \"#utility.yul\":62:78   */\n      swap1\n      pop\n        /* \"#utility.yul\":7:84   */\n      swap2\n      swap1\n      pop\n      jump\t// out\n        /* \"#utility.yul\":90:208   */\n    tag_48:\n        /* \"#utility.yul\":177:201   */\n      tag_57\n        /* \"#utility.yul\":195:200   */\n      dup2\n        /* \"#utility.yul\":177:201   */\n      tag_47\n      jump\t// in\n    tag_57:\n        /* \"#utility.yul\":172:175   */\n      dup3\n        /* \"#utility.yul\":165:202   */\n      mstore\n        /* \"#utility.yul\":90:208   */\n      pop\n      pop\n      jump\t// out\n        /* \"#utility.yul\":214:436   */\n    tag_16:\n        /* \"#utility.yul\":307:311   */\n      0x00\n        /* \"#utility.yul\":345:347   */\n      0x20\n        /* \"#utility.yul\":334:343   */\n      dup3\n        /* \"#utility.yul\":330:348   */\n      add\n        /* \"#utility.yul\":322:348   */\n      swap1\n      pop\n        /* \"#utility.yul\":358:429   */\n      tag_59\n        /* \"#utility.yul\":426:427   */\n      0x00\n        /* \"#utility.yul\":415:424   */\n      dup4\n        /* \"#utility.yul\":411:428   */\n      add\n        /* \"#utility.yul\":402:408   */\n      dup5\n        /* \"#utility.yul\":358:429   */\n      tag_48\n      jump\t// in\n    tag_59:\n        /* \"#utility.yul\":214:436   */\n      swap3\n      swap2\n      pop\n      pop\n      jump\t// out\n        /* \"#utility.yul\":442:518   */\n    tag_49:\n        /* \"#utility.yul\":478:485   */\n      0x00\n        /* \"#utility.yul\":507:512   */\n      dup2\n        /* \"#utility.yul\":496:512   */\n      swap1\n      pop\n        /* \"#utility.yul\":442:518   */\n      swap2\n      swap1\n      pop\n      jump\t// out\n        /* \"#utility.yul\":524:639   */\n    tag_50:\n        /* \"#utility.yul\":609:632   */\n      tag_62\n        /* \"#utility.yul\":626:631   */\n      dup2\n        /* \"#utility.yul\":609:632   */\n      tag_49\n      jump\t// in\n    tag_62:\n        /* \"#utility.yul\":604:607   */\n      dup3\n        /* \"#utility.yul\":597:633   */\n      mstore\n        /* \"#utility.yul\":524:639   */\n      pop\n      pop\n      jump\t// out\n        /* \"#utility.yul\":645:863   */\n    tag_23:\n        /* \"#utility.yul\":736:740   */\n      0x00\n        /* \"#utility.yul\":774:776   */\n      0x20\n        /* \"#utility.yul\":763:772   */\n      dup3\n        /* \"#utility.yul\":759:777   */\n      add\n        /* \"#utility.yul\":751:777   */\n      swap1\n      pop\n        /* \"#utility.yul\":787:856   */\n      tag_64\n        /* \"#utility.yul\":853:854   */\n      0x00\n        /* \"#utility.yul\":842:851   */\n      dup4\n        /* \"#utility.yul\":838:855   */\n      add\n        /* \"#utility.yul\":829:835   */\n      dup5\n        /* \"#utility.yul\":787:856   */\n      tag_50\n      jump\t// in\n    tag_64:\n        /* \"#utility.yul\":645:863   */\n      swap3\n      swap2\n      pop\n      pop\n      jump\t// out\n        /* \"#utility.yul\":869:955   */\n    tag_51:\n        /* \"#utility.yul\":904:911   */\n      0x00\n        /* \"#utility.yul\":944:948   */\n      0xff\n        /* \"#utility.yul\":937:942   */\n      dup3\n        /* \"#utility.yul\":933:949   */\n      and\n        /* \"#utility.yul\":922:949   */\n      swap1\n      pop\n        /* \"#utility.yul\":869:955   */\n      swap2\n      swap1\n      pop\n      jump\t// out\n        /* \"#utility.yul\":961:1073   */\n    tag_52:\n        /* \"#utility.yul\":1044:1066   */\n      tag_67\n        /* \"#utility.yul\":1060:1065   */\n      dup2\n        /* \"#utility.yul\":1044:1066   */\n      tag_51\n      jump\t// in\n    tag_67:\n        /* \"#utility.yul\":1039:1042   */\n      dup3\n        /* \"#utility.yul\":1032:1067   */\n      mstore\n        /* \"#utility.yul\":961:1073   */\n      pop\n      pop\n      jump\t// out\n        /* \"#utility.yul\":1079:1293   */\n    tag_33:\n        /* \"#utility.yul\":1168:1172   */\n      0x00\n        /* \"#utility.yul\":1206:1208   */\n      0x20\n        /* \"#utility.yul\":1195:1204   */\n      dup3\n        /* \"#utility.yul\":1191:1209   */\n      add\n        /* \"#utility.yul\":1183:1209   */\n      swap1\n      pop\n        /* \"#utility.yul\":1219:1286   */\n      tag_69\n        /* \"#utility.yul\":1283:1284   */\n      0x00\n        /* \"#utility.yul\":1272:1281   */\n      dup4\n        /* \"#utility.yul\":1268:1285   */\n      add\n        /* \"#utility.yul\":1259:1265   */\n      dup5\n        /* \"#utility.yul\":1219:1286   */\n      tag_52\n      jump\t// in\n    tag_69:\n        /* \"#utility.yul\":1079:1293   */\n      swap3\n      swap2\n      pop\n      pop\n      jump\t// out\n        /* \"#utility.yul\":1299:1479   */\n    tag_53:\n        /* \"#utility.yul\":1347:1424   */\n      0x4e487b7100000000000000000000000000000000000000000000000000000000\n        /* \"#utility.yul\":1344:1345   */\n      0x00\n        /* \"#utility.yul\":1337:1425   */\n      mstore\n        /* \"#utility.yul\":1444:1448   */\n      0x11\n        /* \"#utility.yul\":1441:1442   */\n      0x04\n        /* \"#utility.yul\":1434:1449   */\n      mstore\n        /* \"#utility.yul\":1468:1472   */\n      0x24\n        /* \"#utility.yul\":1465:1466   */\n      0x00\n        /* \"#utility.yul\":1458:1473   */\n      revert\n        /* \"#utility.yul\":1485:1676   */\n    tag_45:\n        /* \"#utility.yul\":1525:1528   */\n      0x00\n        /* \"#utility.yul\":1544:1564   */\n      tag_72\n        /* \"#utility.yul\":1562:1563   */\n      dup3\n        /* \"#utility.yul\":1544:1564   */\n      tag_47\n      jump\t// in\n    tag_72:\n        /* \"#utility.yul\":1539:1564   */\n      swap2\n      pop\n        /* \"#utility.yul\":1578:1598   */\n      tag_73\n        /* \"#utility.yul\":1596:1597   */\n      dup4\n        /* \"#utility.yul\":1578:1598   */\n      tag_47\n      jump\t// in\n    tag_73:\n        /* \"#utility.yul\":1573:1598   */\n      swap3\n      pop\n        /* \"#utility.yul\":1621:1622   */\n      dup3\n        /* \"#utility.yul\":1618:1619   */\n      dup3\n        /* \"#utility.yul\":1614:1623   */\n      add\n        /* \"#utility.yul\":1607:1623   */\n      swap1\n      pop\n        /* \"#utility.yul\":1642:1645   */\n      dup1\n        /* \"#utility.yul\":1639:1640   */\n      dup3\n        /* \"#utility.yul\":1636:1646   */\n      gt\n        /* \"#utility.yul\":1633:1669   */\n      iszero\n      tag_74\n      jumpi\n        /* \"#utility.yul\":1649:1667   */\n      tag_75\n      tag_53\n      jump\t// in\n    tag_75:\n        /* \"#utility.yul\":1633:1669   */\n    tag_74:\n        /* \"#utility.yul\":1485:1676   */\n      swap3\n      swap2\n      pop\n      pop\n      jump\t// out\n\n    auxdata: 0xa26469706673582212209871db2c4a338247fc3f476510fbc8b706fc1ebcdb061329052636a522074b7a64736f6c63430008110033\n}\n",
				"bytecode": {
					"linkReferences": {},
					"object": "6080604052607b60005560ff600160006101000a81548160ff021916908360ff16021790555060006001806101000a81548160ff021916908360ff1602179055507fffffffffffffffffffffffffffffffffffffffffffffffffffffffffffffffff60025560006003557f7fffffffffffffffffffffffffffffffffffffffffffffffffffffffffffffff6004557f80000000000000000000000000000000000000000000000000000000000000006005553480156100bd57600080fd5b50610388806100cd6000396000f3fe608060405234801561001057600080fd5b50600436106100925760003560e01c806350b85f211161006657806350b85f211461010f5780637d34f10f1461012d578063bc1a0ffb1461014b578063c728df8b14610169578063d567e94b1461018757610092565b806235921a146100975780631aa35610146100b5578063234a73d0146100d35780634f2be91f146100f1575b600080fd5b61009f6101a5565b6040516100ac9190610269565b60405180910390f35b6100bd6101de565b6040516100ca9190610269565b60405180910390f35b6100db6101e4565b6040516100e8919061029d565b60405180910390f35b6100f96101ea565b6040516101069190610269565b60405180910390f35b61011761021a565b604051610124919061029d565b60405180910390f35b610135610220565b60405161014291906102d4565b60405180910390f35b610153610231565b6040516101609190610269565b60405180910390f35b610171610237565b60405161017e9190610269565b60405180910390f35b61018f61023d565b60405161019c91906102d4565b60405180910390f35b6000807fffffffffffffffffffffffffffffffffffffffffffffffffffffffffffffffff90506001816101d8919061031e565b91505090565b60005481565b60045481565b6000807fffffffffffffffffffffffffffffffffffffffffffffffffffffffffffffffff90506001810191505090565b60055481565b60018054906101000a900460ff1681565b60035481565b60025481565b600160009054906101000a900460ff1681565b6000819050919050565b61026381610250565b82525050565b600060208201905061027e600083018461025a565b92915050565b6000819050919050565b61029781610284565b82525050565b60006020820190506102b2600083018461028e565b92915050565b600060ff82169050919050565b6102ce816102b8565b82525050565b60006020820190506102e960008301846102c5565b92915050565b7f4e487b7100000000000000000000000000000000000000000000000000000000600052601160045260246000fd5b600061032982610250565b915061033483610250565b925082820190508082111561034c5761034b6102ef565b5b9291505056fea26469706673582212209871db2c4a338247fc3f476510fbc8b706fc1ebcdb061329052636a522074b7a64736f6c63430008110033",
					"opcodes": "PUSH1 0x80 PUSH1 0x40 MSTORE PUSH1 0x7B PUSH1 0x0 SSTORE PUSH1 0xFF PUSH1 0x1 PUSH1 0x0 PUSH2 0x100 EXP DUP2 SLOAD DUP2 PUSH1 0xFF MUL NOT AND SWAP1 DUP4 PUSH1 0xFF AND MUL OR SWAP1 SSTORE POP PUSH1 0x0 PUSH1 0x1 DUP1 PUSH2 0x100 EXP DUP2 SLOAD DUP2 PUSH1 0xFF MUL NOT AND SWAP1 DUP4 PUSH1 0xFF AND MUL OR SWAP1 SSTORE POP PUSH32 0xFFFFFFFFFFFFFFFFFFFFFFFFFFFFFFFFFFFFFFFFFFFFFFFFFFFFFFFFFFFFFFFF PUSH1 0x2 SSTORE PUSH1 0x0 PUSH1 0x3 SSTORE PUSH32 0x7FFFFFFFFFFFFFFFFFFFFFFFFFFFFFFFFFFFFFFFFFFFFFFFFFFFFFFFFFFFFFFF PUSH1 0x4 SSTORE PUSH32 0x8000000000000000000000000000000000000000000000000000000000000000 PUSH1 0x5 SSTORE CALLVALUE DUP1 ISZERO PUSH2 0xBD JUMPI PUSH1 0x0 DUP1 REVERT JUMPDEST POP PUSH2 0x388 DUP1 PUSH2 0xCD PUSH1 0x0 CODECOPY PUSH1 0x0 RETURN INVALID PUSH1 0x80 PUSH1 0x40 MSTORE CALLVALUE DUP1 ISZERO PUSH2 0x10 JUMPI PUSH1 0x0 DUP1 REVERT JUMPDEST POP PUSH1 0x4 CALLDATASIZE LT PUSH2 0x92 JUMPI PUSH1 0x0 CALLDATALOAD PUSH1 0xE0 SHR DUP1 PUSH4 0x50B85F21 GT PUSH2 0x66 JUMPI DUP1 PUSH4 0x50B85F21 EQ PUSH2 0x10F JUMPI DUP1 PUSH4 0x7D34F10F EQ PUSH2 0x12D JUMPI DUP1 PUSH4 0xBC1A0FFB EQ PUSH2 0x14B JUMPI DUP1 PUSH4 0xC728DF8B EQ PUSH2 0x169 JUMPI DUP1 PUSH4 0xD567E94B EQ PUSH2 0x187 JUMPI PUSH2 0x92 JUMP JUMPDEST DUP1 PUSH3 0x35921A EQ PUSH2 0x97 JUMPI DUP1 PUSH4 0x1AA35610 EQ PUSH2 0xB5 JUMPI DUP1 PUSH4 0x234A73D0 EQ PUSH2 0xD3 JUMPI DUP1 PUSH4 0x4F2BE91F EQ PUSH2 0xF1 JUMPI JUMPDEST PUSH1 0x0 DUP1 REVERT JUMPDEST PUSH2 0x9F PUSH2 0x1A5 JUMP JUMPDEST PUSH1 0x40 MLOAD PUSH2 0xAC SWAP2 SWAP1 PUSH2 0x269 JUMP JUMPDEST PUSH1 0x40 MLOAD DUP1 SWAP2 SUB SWAP1 RETURN JUMPDEST PUSH2 0xBD PUSH2 0x1DE JUMP JUMPDEST PUSH1 0x40 MLOAD PUSH2 0xCA SWAP2 SWAP1 PUSH2 0x269 JUMP JUMPDEST PUSH1 0x40 MLOAD DUP1 SWAP2 SUB SWAP1 RETURN JUMPDEST PUSH2 0xDB PUSH2 0x1E4 JUMP JUMPDEST PUSH1 0x40 MLOAD PUSH2 0xE8 SWAP2 SWAP1 PUSH2 0x29D JUMP JUMPDEST PUSH1 0x40 MLOAD DUP1 SWAP2 SUB SWAP1 RETURN JUMPDEST PUSH2 0xF9 PUSH2 0x1EA JUMP JUMPDEST PUSH1 0x40 MLOAD PUSH2 0x106 SWAP2 SWAP1 PUSH2 0x269 JUMP JUMPDEST PUSH1 0x40 MLOAD DUP1 SWAP2 SUB SWAP1 RETURN JUMPDEST PUSH2 0x117 PUSH2 0x21A JUMP JUMPDEST PUSH1 0x40 MLOAD PUSH2 0x124 SWAP2 SWAP1 PUSH2 0x29D JUMP JUMPDEST PUSH1 0x40 MLOAD DUP1 SWAP2 SUB SWAP1 RETURN JUMPDEST PUSH2 0x135 PUSH2 0x220 JUMP JUMPDEST PUSH1 0x40 MLOAD PUSH2 0x142 SWAP2 SWAP1 PUSH2 0x2D4 JUMP JUMPDEST PUSH1 0x40 MLOAD DUP1 SWAP2 SUB SWAP1 RETURN JUMPDEST PUSH2 0x153 PUSH2 0x231 JUMP JUMPDEST PUSH1 0x40 MLOAD PUSH2 0x160 SWAP2 SWAP1 PUSH2 0x269 JUMP JUMPDEST PUSH1 0x40 MLOAD DUP1 SWAP2 SUB SWAP1 RETURN JUMPDEST PUSH2 0x171 PUSH2 0x237 JUMP JUMPDEST PUSH1 0x40 MLOAD PUSH2 0x17E SWAP2 SWAP1 PUSH2 0x269 JUMP JUMPDEST PUSH1 0x40 MLOAD DUP1 SWAP2 SUB SWAP1 RETURN JUMPDEST PUSH2 0x18F PUSH2 0x23D JUMP JUMPDEST PUSH1 0x40 MLOAD PUSH2 0x19C SWAP2 SWAP1 PUSH2 0x2D4 JUMP JUMPDEST PUSH1 0x40 MLOAD DUP1 SWAP2 SUB SWAP1 RETURN JUMPDEST PUSH1 0x0 DUP1 PUSH32 0xFFFFFFFFFFFFFFFFFFFFFFFFFFFFFFFFFFFFFFFFFFFFFFFFFFFFFFFFFFFFFFFF SWAP1 POP PUSH1 0x1 DUP2 PUSH2 0x1D8 SWAP2 SWAP1 PUSH2 0x31E JUMP JUMPDEST SWAP2 POP POP SWAP1 JUMP JUMPDEST PUSH1 0x0 SLOAD DUP2 JUMP JUMPDEST PUSH1 0x4 SLOAD DUP2 JUMP JUMPDEST PUSH1 0x0 DUP1 PUSH32 0xFFFFFFFFFFFFFFFFFFFFFFFFFFFFFFFFFFFFFFFFFFFFFFFFFFFFFFFFFFFFFFFF SWAP1 POP PUSH1 0x1 DUP2 ADD SWAP2 POP POP SWAP1 JUMP JUMPDEST PUSH1 0x5 SLOAD DUP2 JUMP JUMPDEST PUSH1 0x1 DUP1 SLOAD SWAP1 PUSH2 0x100 EXP SWAP1 DIV PUSH1 0xFF AND DUP2 JUMP JUMPDEST PUSH1 0x3 SLOAD DUP2 JUMP JUMPDEST PUSH1 0x2 SLOAD DUP2 JUMP JUMPDEST PUSH1 0x1 PUSH1 0x0 SWAP1 SLOAD SWAP1 PUSH2 0x100 EXP SWAP1 DIV PUSH1 0xFF AND DUP2 JUMP JUMPDEST PUSH1 0x0 DUP2 SWAP1 POP SWAP2 SWAP1 POP JUMP JUMPDEST PUSH2 0x263 DUP2 PUSH2 0x250 JUMP JUMPDEST DUP3 MSTORE POP POP JUMP JUMPDEST PUSH1 0x0 PUSH1 0x20 DUP3 ADD SWAP1 POP PUSH2 0x27E PUSH1 0x0 DUP4 ADD DUP5 PUSH2 0x25A JUMP JUMPDEST SWAP3 SWAP2 POP POP JUMP JUMPDEST PUSH1 0x0 DUP2 SWAP1 POP SWAP2 SWAP1 POP JUMP JUMPDEST PUSH2 0x297 DUP2 PUSH2 0x284 JUMP JUMPDEST DUP3 MSTORE POP POP JUMP JUMPDEST PUSH1 0x0 PUSH1 0x20 DUP3 ADD SWAP1 POP PUSH2 0x2B2 PUSH1 0x0 DUP4 ADD DUP5 PUSH2 0x28E JUMP JUMPDEST SWAP3 SWAP2 POP POP JUMP JUMPDEST PUSH1 0x0 PUSH1 0xFF DUP3 AND SWAP1 POP SWAP2 SWAP1 POP JUMP JUMPDEST PUSH2 0x2CE DUP2 PUSH2 0x2B8 JUMP JUMPDEST DUP3 MSTORE POP POP JUMP JUMPDEST PUSH1 0x0 PUSH1 0x20 DUP3 ADD SWAP1 POP PUSH2 0x2E9 PUSH1 0x0 DUP4 ADD DUP5 PUSH2 0x2C5 JUMP JUMPDEST SWAP3 SWAP2 POP POP JUMP JUMPDEST PUSH32 0x4E487B7100000000000000000000000000000000000000000000000000000000 PUSH1 0x0 MSTORE PUSH1 0x11 PUSH1 0x4 MSTORE PUSH1 0x24 PUSH1 0x0 REVERT JUMPDEST PUSH1 0x0 PUSH2 0x329 DUP3 PUSH2 0x250 JUMP JUMPDEST SWAP2 POP PUSH2 0x334 DUP4 PUSH2 0x250 JUMP JUMPDEST SWAP3 POP DUP3 DUP3 ADD SWAP1 POP DUP1 DUP3 GT ISZERO PUSH2 0x34C JUMPI PUSH2 0x34B PUSH2 0x2EF JUMP JUMPDEST JUMPDEST SWAP3 SWAP2 POP POP JUMP INVALID LOG2 PUSH5 0x6970667358 0x22 SLT KECCAK256 SWAP9 PUSH18 0xDB2C4A338247FC3F476510FBC8B706FC1EBC 0xDB MOD SGT 0x29 SDIV 0x26 CALLDATASIZE 0xA5 0x22 SMOD 0x4B PUSH27 0x64736F6C6343000811003300000000000000000000000000000000 "
				},
				"gasEstimates": {
					"creation": {
						"codeDepositCost": "180800",
						"executionCost": "142240",
						"totalCost": "323040"
					},
					"external": {
						"add()": "423",
						"add1()": "infinite",
						"max256()": "2474",
						"min256()": "2429",
						"u1()": "2452",
						"u256Max()": "2495",
						"u258Min()": "2473",
						"u8Max()": "2559",
						"u8Min()": "2540"
					}
				},
				"methodIdentifiers": {
					"add()": "4f2be91f",
					"add1()": "0035921a",
					"max256()": "234a73d0",
					"min256()": "50b85f21",
					"u1()": "1aa35610",
					"u256Max()": "c728df8b",
					"u258Min()": "bc1a0ffb",
					"u8Max()": "d567e94b",
					"u8Min()": "7d34f10f"
				}
			},
			"storageLayout": {
				"storage": [
					{
						"astId": 6,
						"contract": "_03_数据类型_值类型_整型.sol:HelloWorld",
						"label": "u1",
						"offset": 0,
						"slot": "0",
						"type": "t_uint256"
					},
					{
						"astId": 13,
						"contract": "_03_数据类型_值类型_整型.sol:HelloWorld",
						"label": "u8Max",
						"offset": 0,
						"slot": "1",
						"type": "t_uint8"
					},
					{
						"astId": 20,
						"contract": "_03_数据类型_值类型_整型.sol:HelloWorld",
						"label": "u8Min",
						"offset": 1,
						"slot": "1",
						"type": "t_uint8"
					},
					{
						"astId": 27,
						"contract": "_03_数据类型_值类型_整型.sol:HelloWorld",
						"label": "u256Max",
						"offset": 0,
						"slot": "2",
						"type": "t_uint256"
					},
					{
						"astId": 34,
						"contract": "_03_数据类型_值类型_整型.sol:HelloWorld",
						"label": "u258Min",
						"offset": 0,
						"slot": "3",
						"type": "t_uint256"
					},
					{
						"astId": 41,
						"contract": "_03_数据类型_值类型_整型.sol:HelloWorld",
						"label": "max256",
						"offset": 0,
						"slot": "4",
						"type": "t_int256"
					},
					{
						"astId": 48,
						"contract": "_03_数据类型_值类型_整型.sol:HelloWorld",
						"label": "min256",
						"offset": 0,
						"slot": "5",
						"type": "t_int256"
					}
				],
				"types": {
					"t_int256": {
						"encoding": "inplace",
						"label": "int256",
						"numberOfBytes": "32"
					},
					"t_uint256": {
						"encoding": "inplace",
						"label": "uint256",
						"numberOfBytes": "32"
					},
					"t_uint8": {
						"encoding": "inplace",
						"label": "uint8",
						"numberOfBytes": "1"
					}
				}
			},
			"userdoc": {
				"kind": "user",
				"methods": {
					"u1()": {
						"notice": "整型: - 支持关键字uint8到uint256以及int8到int256，以8位为步长递增。  - uint 和 int 分别是 uint256 和 int256 的别名。 - 零值: 0 - 支持的运算符:  比较运算符： <= ， < ， == ， != ， >= ， > （返回布尔值） 位运算符： & ， | ， ^ （异或）， ~ （位取反） 移位运算符： <<， >> 算数运算符： +, -, -(负号, 仅针对有符号整型），*，/， %, **(幂）"
					}
				},
				"notice": "!!!!与go类似, 任何的变量都有零值!!!!",
				"version": 1
			}
		}
	}
}