{
	"_10_数据类型_值类似_自定义值类型.sol": {
		"HelloWorld": {
			"abi": [
				{
					"inputs": [],
					"name": "m",
					"outputs": [
						{
							"internalType": "HelloWorld.My256",
							"name": "",
							"type": "uint256"
						}
					],
					"stateMutability": "view",
					"type": "function"
				},
				{
					"inputs": [],
					"name": "u",
					"outputs": [
						{
							"internalType": "uint256",
							"name": "",
							"type": "uint256"
						}
					],
					"stateMutability": "view",
					"type": "function"
				}
			],
			"devdoc": {
				"kind": "dev",
				"methods": {},
				"version": 1
			},
			"evm": {
				"assembly": "    /* \"_10_\\xe6\\x95\\xb0\\xe6\\x8d\\xae\\xe7\\xb1\\xbb\\xe5\\x9e\\x8b_\\xe5\\x80\\xbc\\xe7\\xb1\\xbb\\xe4\\xbc\\xbc_\\xe8\\x87\\xaa\\xe5\\xae\\x9a\\xe4\\xb9\\x89\\xe5\\x80\\xbc\\xe7\\xb1\\xbb\\xe5\\x9e\\x8b.sol\":68:693  contract HelloWorld {... */\n  mstore(0x40, 0x80)\n    /* \"_10_\\xe6\\x95\\xb0\\xe6\\x8d\\xae\\xe7\\xb1\\xbb\\xe5\\x9e\\x8b_\\xe5\\x80\\xbc\\xe7\\xb1\\xbb\\xe4\\xbc\\xbc_\\xe8\\x87\\xaa\\xe5\\xae\\x9a\\xe4\\xb9\\x89\\xe5\\x80\\xbc\\xe7\\xb1\\xbb\\xe5\\x9e\\x8b.sol\":539:546  1234556 */\n  0x12d67c\n    /* \"_10_\\xe6\\x95\\xb0\\xe6\\x8d\\xae\\xe7\\xb1\\xbb\\xe5\\x9e\\x8b_\\xe5\\x80\\xbc\\xe7\\xb1\\xbb\\xe4\\xbc\\xbc_\\xe8\\x87\\xaa\\xe5\\xae\\x9a\\xe4\\xb9\\x89\\xe5\\x80\\xbc\\xe7\\xb1\\xbb\\xe5\\x9e\\x8b.sol\":511:547  My256 public m = My256.wrap(1234556) */\n  0x00\n  sstore\n    /* \"_10_\\xe6\\x95\\xb0\\xe6\\x8d\\xae\\xe7\\xb1\\xbb\\xe5\\x9e\\x8b_\\xe5\\x80\\xbc\\xe7\\xb1\\xbb\\xe4\\xbc\\xbc_\\xe8\\x87\\xaa\\xe5\\xae\\x9a\\xe4\\xb9\\x89\\xe5\\x80\\xbc\\xe7\\xb1\\xbb\\xe5\\x9e\\x8b.sol\":586:587  m */\n  sload(0x00)\n    /* \"_10_\\xe6\\x95\\xb0\\xe6\\x8d\\xae\\xe7\\xb1\\xbb\\xe5\\x9e\\x8b_\\xe5\\x80\\xbc\\xe7\\xb1\\xbb\\xe4\\xbc\\xbc_\\xe8\\x87\\xaa\\xe5\\xae\\x9a\\xe4\\xb9\\x89\\xe5\\x80\\xbc\\xe7\\xb1\\xbb\\xe5\\x9e\\x8b.sol\":554:588  uint256 public u = My256.unwrap(m) */\n  0x01\n  sstore\n    /* \"_10_\\xe6\\x95\\xb0\\xe6\\x8d\\xae\\xe7\\xb1\\xbb\\xe5\\x9e\\x8b_\\xe5\\x80\\xbc\\xe7\\xb1\\xbb\\xe4\\xbc\\xbc_\\xe8\\x87\\xaa\\xe5\\xae\\x9a\\xe4\\xb9\\x89\\xe5\\x80\\xbc\\xe7\\xb1\\xbb\\xe5\\x9e\\x8b.sol\":68:693  contract HelloWorld {... */\n  callvalue\n  dup1\n  iszero\n  tag_1\n  jumpi\n  0x00\n  dup1\n  revert\ntag_1:\n  pop\n  dataSize(sub_0)\n  dup1\n  dataOffset(sub_0)\n  0x00\n  codecopy\n  0x00\n  return\nstop\n\nsub_0: assembly {\n        /* \"_10_\\xe6\\x95\\xb0\\xe6\\x8d\\xae\\xe7\\xb1\\xbb\\xe5\\x9e\\x8b_\\xe5\\x80\\xbc\\xe7\\xb1\\xbb\\xe4\\xbc\\xbc_\\xe8\\x87\\xaa\\xe5\\xae\\x9a\\xe4\\xb9\\x89\\xe5\\x80\\xbc\\xe7\\xb1\\xbb\\xe5\\x9e\\x8b.sol\":68:693  contract HelloWorld {... */\n      mstore(0x40, 0x80)\n      callvalue\n      dup1\n      iszero\n      tag_1\n      jumpi\n      0x00\n      dup1\n      revert\n    tag_1:\n      pop\n      jumpi(tag_2, lt(calldatasize, 0x04))\n      shr(0xe0, calldataload(0x00))\n      dup1\n      0x5a2ee019\n      eq\n      tag_3\n      jumpi\n      dup1\n      0xc6a898c5\n      eq\n      tag_4\n      jumpi\n    tag_2:\n      0x00\n      dup1\n      revert\n        /* \"_10_\\xe6\\x95\\xb0\\xe6\\x8d\\xae\\xe7\\xb1\\xbb\\xe5\\x9e\\x8b_\\xe5\\x80\\xbc\\xe7\\xb1\\xbb\\xe4\\xbc\\xbc_\\xe8\\x87\\xaa\\xe5\\xae\\x9a\\xe4\\xb9\\x89\\xe5\\x80\\xbc\\xe7\\xb1\\xbb\\xe5\\x9e\\x8b.sol\":511:547  My256 public m = My256.wrap(1234556) */\n    tag_3:\n      tag_5\n      tag_6\n      jump\t// in\n    tag_5:\n      mload(0x40)\n      tag_7\n      swap2\n      swap1\n      tag_8\n      jump\t// in\n    tag_7:\n      mload(0x40)\n      dup1\n      swap2\n      sub\n      swap1\n      return\n        /* \"_10_\\xe6\\x95\\xb0\\xe6\\x8d\\xae\\xe7\\xb1\\xbb\\xe5\\x9e\\x8b_\\xe5\\x80\\xbc\\xe7\\xb1\\xbb\\xe4\\xbc\\xbc_\\xe8\\x87\\xaa\\xe5\\xae\\x9a\\xe4\\xb9\\x89\\xe5\\x80\\xbc\\xe7\\xb1\\xbb\\xe5\\x9e\\x8b.sol\":554:588  uint256 public u = My256.unwrap(m) */\n    tag_4:\n      tag_9\n      tag_10\n      jump\t// in\n    tag_9:\n      mload(0x40)\n      tag_11\n      swap2\n      swap1\n      tag_12\n      jump\t// in\n    tag_11:\n      mload(0x40)\n      dup1\n      swap2\n      sub\n      swap1\n      return\n        /* \"_10_\\xe6\\x95\\xb0\\xe6\\x8d\\xae\\xe7\\xb1\\xbb\\xe5\\x9e\\x8b_\\xe5\\x80\\xbc\\xe7\\xb1\\xbb\\xe4\\xbc\\xbc_\\xe8\\x87\\xaa\\xe5\\xae\\x9a\\xe4\\xb9\\x89\\xe5\\x80\\xbc\\xe7\\xb1\\xbb\\xe5\\x9e\\x8b.sol\":511:547  My256 public m = My256.wrap(1234556) */\n    tag_6:\n      sload(0x00)\n      dup2\n      jump\t// out\n        /* \"_10_\\xe6\\x95\\xb0\\xe6\\x8d\\xae\\xe7\\xb1\\xbb\\xe5\\x9e\\x8b_\\xe5\\x80\\xbc\\xe7\\xb1\\xbb\\xe4\\xbc\\xbc_\\xe8\\x87\\xaa\\xe5\\xae\\x9a\\xe4\\xb9\\x89\\xe5\\x80\\xbc\\xe7\\xb1\\xbb\\xe5\\x9e\\x8b.sol\":554:588  uint256 public u = My256.unwrap(m) */\n    tag_10:\n      sload(0x01)\n      dup2\n      jump\t// out\n        /* \"#utility.yul\":7:84   */\n    tag_13:\n        /* \"#utility.yul\":44:51   */\n      0x00\n        /* \"#utility.yul\":73:78   */\n      dup2\n        /* \"#utility.yul\":62:78   */\n      swap1\n      pop\n        /* \"#utility.yul\":7:84   */\n      swap2\n      swap1\n      pop\n      jump\t// out\n        /* \"#utility.yul\":90:150   */\n    tag_14:\n        /* \"#utility.yul\":118:121   */\n      0x00\n        /* \"#utility.yul\":139:144   */\n      dup2\n        /* \"#utility.yul\":132:144   */\n      swap1\n      pop\n        /* \"#utility.yul\":90:150   */\n      swap2\n      swap1\n      pop\n      jump\t// out\n        /* \"#utility.yul\":156:298   */\n    tag_15:\n        /* \"#utility.yul\":206:215   */\n      0x00\n        /* \"#utility.yul\":239:292   */\n      tag_22\n        /* \"#utility.yul\":257:291   */\n      tag_23\n        /* \"#utility.yul\":266:290   */\n      tag_24\n        /* \"#utility.yul\":284:289   */\n      dup5\n        /* \"#utility.yul\":266:290   */\n      tag_13\n      jump\t// in\n    tag_24:\n        /* \"#utility.yul\":257:291   */\n      tag_14\n      jump\t// in\n    tag_23:\n        /* \"#utility.yul\":239:292   */\n      tag_13\n      jump\t// in\n    tag_22:\n        /* \"#utility.yul\":226:292   */\n      swap1\n      pop\n        /* \"#utility.yul\":156:298   */\n      swap2\n      swap1\n      pop\n      jump\t// out\n        /* \"#utility.yul\":304:458   */\n    tag_16:\n        /* \"#utility.yul\":414:451   */\n      tag_26\n        /* \"#utility.yul\":445:450   */\n      dup2\n        /* \"#utility.yul\":414:451   */\n      tag_15\n      jump\t// in\n    tag_26:\n        /* \"#utility.yul\":409:412   */\n      dup3\n        /* \"#utility.yul\":402:452   */\n      mstore\n        /* \"#utility.yul\":304:458   */\n      pop\n      pop\n      jump\t// out\n        /* \"#utility.yul\":464:732   */\n    tag_8:\n        /* \"#utility.yul\":580:584   */\n      0x00\n        /* \"#utility.yul\":618:620   */\n      0x20\n        /* \"#utility.yul\":607:616   */\n      dup3\n        /* \"#utility.yul\":603:621   */\n      add\n        /* \"#utility.yul\":595:621   */\n      swap1\n      pop\n        /* \"#utility.yul\":631:725   */\n      tag_28\n        /* \"#utility.yul\":722:723   */\n      0x00\n        /* \"#utility.yul\":711:720   */\n      dup4\n        /* \"#utility.yul\":707:724   */\n      add\n        /* \"#utility.yul\":698:704   */\n      dup5\n        /* \"#utility.yul\":631:725   */\n      tag_16\n      jump\t// in\n    tag_28:\n        /* \"#utility.yul\":464:732   */\n      swap3\n      swap2\n      pop\n      pop\n      jump\t// out\n        /* \"#utility.yul\":738:856   */\n    tag_17:\n        /* \"#utility.yul\":825:849   */\n      tag_30\n        /* \"#utility.yul\":843:848   */\n      dup2\n        /* \"#utility.yul\":825:849   */\n      tag_13\n      jump\t// in\n    tag_30:\n        /* \"#utility.yul\":820:823   */\n      dup3\n        /* \"#utility.yul\":813:850   */\n      mstore\n        /* \"#utility.yul\":738:856   */\n      pop\n      pop\n      jump\t// out\n        /* \"#utility.yul\":862:1084   */\n    tag_12:\n        /* \"#utility.yul\":955:959   */\n      0x00\n        /* \"#utility.yul\":993:995   */\n      0x20\n        /* \"#utility.yul\":982:991   */\n      dup3\n        /* \"#utility.yul\":978:996   */\n      add\n        /* \"#utility.yul\":970:996   */\n      swap1\n      pop\n        /* \"#utility.yul\":1006:1077   */\n      tag_32\n        /* \"#utility.yul\":1074:1075   */\n      0x00\n        /* \"#utility.yul\":1063:1072   */\n      dup4\n        /* \"#utility.yul\":1059:1076   */\n      add\n        /* \"#utility.yul\":1050:1056   */\n      dup5\n        /* \"#utility.yul\":1006:1077   */\n      tag_17\n      jump\t// in\n    tag_32:\n        /* \"#utility.yul\":862:1084   */\n      swap3\n      swap2\n      pop\n      pop\n      jump\t// out\n\n    auxdata: 0xa2646970667358221220fd9c393c38df645641c0f8b62edfa157565d70cf4ac3168a09ab3dadd3e8d9cd64736f6c63430008110033\n}\n",
				"bytecode": {
					"linkReferences": {},
					"object": "60806040526212d67c60005560005460015534801561001d57600080fd5b506101298061002d6000396000f3fe6080604052348015600f57600080fd5b506004361060325760003560e01c80635a2ee019146037578063c6a898c5146051575b600080fd5b603d606b565b6040516048919060b4565b60405180910390f35b60576071565b6040516062919060da565b60405180910390f35b60005481565b60015481565b6000819050919050565b6000819050919050565b600060a0609c6098846077565b6081565b6077565b9050919050565b60ae81608b565b82525050565b600060208201905060c7600083018460a7565b92915050565b60d4816077565b82525050565b600060208201905060ed600083018460cd565b9291505056fea2646970667358221220fd9c393c38df645641c0f8b62edfa157565d70cf4ac3168a09ab3dadd3e8d9cd64736f6c63430008110033",
					"opcodes": "PUSH1 0x80 PUSH1 0x40 MSTORE PUSH3 0x12D67C PUSH1 0x0 SSTORE PUSH1 0x0 SLOAD PUSH1 0x1 SSTORE CALLVALUE DUP1 ISZERO PUSH2 0x1D JUMPI PUSH1 0x0 DUP1 REVERT JUMPDEST POP PUSH2 0x129 DUP1 PUSH2 0x2D PUSH1 0x0 CODECOPY PUSH1 0x0 RETURN INVALID PUSH1 0x80 PUSH1 0x40 MSTORE CALLVALUE DUP1 ISZERO PUSH1 0xF JUMPI PUSH1 0x0 DUP1 REVERT JUMPDEST POP PUSH1 0x4 CALLDATASIZE LT PUSH1 0x32 JUMPI PUSH1 0x0 CALLDATALOAD PUSH1 0xE0 SHR DUP1 PUSH4 0x5A2EE019 EQ PUSH1 0x37 JUMPI DUP1 PUSH4 0xC6A898C5 EQ PUSH1 0x51 JUMPI JUMPDEST PUSH1 0x0 DUP1 REVERT JUMPDEST PUSH1 0x3D PUSH1 0x6B JUMP JUMPDEST PUSH1 0x40 MLOAD PUSH1 0x48 SWAP2 SWAP1 PUSH1 0xB4 JUMP JUMPDEST PUSH1 0x40 MLOAD DUP1 SWAP2 SUB SWAP1 RETURN JUMPDEST PUSH1 0x57 PUSH1 0x71 JUMP JUMPDEST PUSH1 0x40 MLOAD PUSH1 0x62 SWAP2 SWAP1 PUSH1 0xDA JUMP JUMPDEST PUSH1 0x40 MLOAD DUP1 SWAP2 SUB SWAP1 RETURN JUMPDEST PUSH1 0x0 SLOAD DUP2 JUMP JUMPDEST PUSH1 0x1 SLOAD DUP2 JUMP JUMPDEST PUSH1 0x0 DUP2 SWAP1 POP SWAP2 SWAP1 POP JUMP JUMPDEST PUSH1 0x0 DUP2 SWAP1 POP SWAP2 SWAP1 POP JUMP JUMPDEST PUSH1 0x0 PUSH1 0xA0 PUSH1 0x9C PUSH1 0x98 DUP5 PUSH1 0x77 JUMP JUMPDEST PUSH1 0x81 JUMP JUMPDEST PUSH1 0x77 JUMP JUMPDEST SWAP1 POP SWAP2 SWAP1 POP JUMP JUMPDEST PUSH1 0xAE DUP2 PUSH1 0x8B JUMP JUMPDEST DUP3 MSTORE POP POP JUMP JUMPDEST PUSH1 0x0 PUSH1 0x20 DUP3 ADD SWAP1 POP PUSH1 0xC7 PUSH1 0x0 DUP4 ADD DUP5 PUSH1 0xA7 JUMP JUMPDEST SWAP3 SWAP2 POP POP JUMP JUMPDEST PUSH1 0xD4 DUP2 PUSH1 0x77 JUMP JUMPDEST DUP3 MSTORE POP POP JUMP JUMPDEST PUSH1 0x0 PUSH1 0x20 DUP3 ADD SWAP1 POP PUSH1 0xED PUSH1 0x0 DUP4 ADD DUP5 PUSH1 0xCD JUMP JUMPDEST SWAP3 SWAP2 POP POP JUMP INVALID LOG2 PUSH5 0x6970667358 0x22 SLT KECCAK256 REVERT SWAP13 CODECOPY EXTCODECOPY CODESIZE 0xDF PUSH5 0x5641C0F8B6 0x2E 0xDF LOG1 JUMPI JUMP 0x5D PUSH17 0xCF4AC3168A09AB3DADD3E8D9CD64736F6C PUSH4 0x43000811 STOP CALLER "
				},
				"gasEstimates": {
					"creation": {
						"codeDepositCost": "59400",
						"executionCost": "46423",
						"totalCost": "105823"
					},
					"external": {
						"m()": "infinite",
						"u()": "2429"
					}
				},
				"methodIdentifiers": {
					"m()": "5a2ee019",
					"u()": "c6a898c5"
				}
			},
			"storageLayout": {
				"storage": [
					{
						"astId": 10,
						"contract": "_10_数据类型_值类似_自定义值类型.sol:HelloWorld",
						"label": "m",
						"offset": 0,
						"slot": "0",
						"type": "t_userDefinedValueType(My256)3"
					},
					{
						"astId": 16,
						"contract": "_10_数据类型_值类似_自定义值类型.sol:HelloWorld",
						"label": "u",
						"offset": 0,
						"slot": "1",
						"type": "t_uint256"
					}
				],
				"types": {
					"t_uint256": {
						"encoding": "inplace",
						"label": "uint256",
						"numberOfBytes": "32"
					},
					"t_userDefinedValueType(My256)3": {
						"encoding": "inplace",
						"label": "HelloWorld.My256",
						"numberOfBytes": "32"
					}
				}
			},
			"userdoc": {
				"kind": "user",
				"methods": {},
				"version": 1
			}
		}
	}
}