{
	"基本数据类型间的显示转换.sol": {
		"HelloWorld": {
			"abi": [
				{
					"inputs": [],
					"name": "a16",
					"outputs": [
						{
							"internalType": "uint16",
							"name": "",
							"type": "uint16"
						}
					],
					"stateMutability": "view",
					"type": "function"
				},
				{
					"inputs": [],
					"name": "a32",
					"outputs": [
						{
							"internalType": "uint32",
							"name": "",
							"type": "uint32"
						}
					],
					"stateMutability": "view",
					"type": "function"
				},
				{
					"inputs": [],
					"name": "b16",
					"outputs": [
						{
							"internalType": "uint16",
							"name": "",
							"type": "uint16"
						}
					],
					"stateMutability": "view",
					"type": "function"
				},
				{
					"inputs": [],
					"name": "b32",
					"outputs": [
						{
							"internalType": "uint32",
							"name": "",
							"type": "uint32"
						}
					],
					"stateMutability": "view",
					"type": "function"
				},
				{
					"inputs": [],
					"name": "bs2",
					"outputs": [
						{
							"internalType": "bytes2",
							"name": "",
							"type": "bytes2"
						}
					],
					"stateMutability": "view",
					"type": "function"
				},
				{
					"inputs": [],
					"name": "bs4",
					"outputs": [
						{
							"internalType": "bytes4",
							"name": "",
							"type": "bytes4"
						}
					],
					"stateMutability": "view",
					"type": "function"
				},
				{
					"inputs": [],
					"name": "bz2",
					"outputs": [
						{
							"internalType": "bytes2",
							"name": "",
							"type": "bytes2"
						}
					],
					"stateMutability": "view",
					"type": "function"
				},
				{
					"inputs": [],
					"name": "bz4",
					"outputs": [
						{
							"internalType": "bytes4",
							"name": "",
							"type": "bytes4"
						}
					],
					"stateMutability": "view",
					"type": "function"
				}
			],
			"devdoc": {
				"kind": "dev",
				"methods": {},
				"version": 1
			},
			"evm": {
				"assembly": "    /* \"\\xe5\\x9f\\xba\\xe6\\x9c\\xac\\xe6\\x95\\xb0\\xe6\\x8d\\xae\\xe7\\xb1\\xbb\\xe5\\x9e\\x8b\\xe9\\x97\\xb4\\xe7\\x9a\\x84\\xe6\\x98\\xbe\\xe7\\xa4\\xba\\xe8\\xbd\\xac\\xe6\\x8d\\xa2.sol\":66:1547  contract HelloWorld {... */\n  mstore(0x40, 0x80)\n    /* \"\\xe5\\x9f\\xba\\xe6\\x9c\\xac\\xe6\\x95\\xb0\\xe6\\x8d\\xae\\xe7\\xb1\\xbb\\xe5\\x9e\\x8b\\xe9\\x97\\xb4\\xe7\\x9a\\x84\\xe6\\x98\\xbe\\xe7\\xa4\\xba\\xe8\\xbd\\xac\\xe6\\x8d\\xa2.sol\":182:192  0xaabbccdd */\n  0xaabbccdd\n    /* \"\\xe5\\x9f\\xba\\xe6\\x9c\\xac\\xe6\\x95\\xb0\\xe6\\x8d\\xae\\xe7\\xb1\\xbb\\xe5\\x9e\\x8b\\xe9\\x97\\xb4\\xe7\\x9a\\x84\\xe6\\x98\\xbe\\xe7\\xa4\\xba\\xe8\\xbd\\xac\\xe6\\x8d\\xa2.sol\":162:192  uint32 public a32 = 0xaabbccdd */\n  0x00\n  dup1\n  0x0100\n  exp\n  dup2\n  sload\n  dup2\n  0xffffffff\n  mul\n  not\n  and\n  swap1\n  dup4\n  0xffffffff\n  and\n  mul\n  or\n  swap1\n  sstore\n  pop\n    /* \"\\xe5\\x9f\\xba\\xe6\\x9c\\xac\\xe6\\x95\\xb0\\xe6\\x8d\\xae\\xe7\\xb1\\xbb\\xe5\\x9e\\x8b\\xe9\\x97\\xb4\\xe7\\x9a\\x84\\xe6\\x98\\xbe\\xe7\\xa4\\xba\\xe8\\xbd\\xac\\xe6\\x8d\\xa2.sol\":226:229  a32 */\n  0x00\n  dup1\n  sload\n  swap1\n  0x0100\n  exp\n  swap1\n  div\n  0xffffffff\n  and\n    /* \"\\xe5\\x9f\\xba\\xe6\\x9c\\xac\\xe6\\x95\\xb0\\xe6\\x8d\\xae\\xe7\\xb1\\xbb\\xe5\\x9e\\x8b\\xe9\\x97\\xb4\\xe7\\x9a\\x84\\xe6\\x98\\xbe\\xe7\\xa4\\xba\\xe8\\xbd\\xac\\xe6\\x8d\\xa2.sol\":199:230  uint16 public a16 = uint16(a32) */\n  0x00\n  exp(0x0100, 0x04)\n  dup2\n  sload\n  dup2\n  0xffff\n  mul\n  not\n  and\n  swap1\n  dup4\n  0xffff\n  and\n  mul\n  or\n  swap1\n  sstore\n  pop\n    /* \"\\xe5\\x9f\\xba\\xe6\\x9c\\xac\\xe6\\x95\\xb0\\xe6\\x8d\\xae\\xe7\\xb1\\xbb\\xe5\\x9e\\x8b\\xe9\\x97\\xb4\\xe7\\x9a\\x84\\xe6\\x98\\xbe\\xe7\\xa4\\xba\\xe8\\xbd\\xac\\xe6\\x8d\\xa2.sol\":281:287  0xaabb */\n  0xaabb\n    /* \"\\xe5\\x9f\\xba\\xe6\\x9c\\xac\\xe6\\x95\\xb0\\xe6\\x8d\\xae\\xe7\\xb1\\xbb\\xe5\\x9e\\x8b\\xe9\\x97\\xb4\\xe7\\x9a\\x84\\xe6\\x98\\xbe\\xe7\\xa4\\xba\\xe8\\xbd\\xac\\xe6\\x8d\\xa2.sol\":261:287  uint16 public b16 = 0xaabb */\n  0x00\n  exp(0x0100, 0x06)\n  dup2\n  sload\n  dup2\n  0xffff\n  mul\n  not\n  and\n  swap1\n  dup4\n  0xffff\n  and\n  mul\n  or\n  swap1\n  sstore\n  pop\n    /* \"\\xe5\\x9f\\xba\\xe6\\x9c\\xac\\xe6\\x95\\xb0\\xe6\\x8d\\xae\\xe7\\xb1\\xbb\\xe5\\x9e\\x8b\\xe9\\x97\\xb4\\xe7\\x9a\\x84\\xe6\\x98\\xbe\\xe7\\xa4\\xba\\xe8\\xbd\\xac\\xe6\\x8d\\xa2.sol\":314:317  b16 */\n  0x00\n  0x06\n  swap1\n  sload\n  swap1\n  0x0100\n  exp\n  swap1\n  div\n  0xffff\n  and\n    /* \"\\xe5\\x9f\\xba\\xe6\\x9c\\xac\\xe6\\x95\\xb0\\xe6\\x8d\\xae\\xe7\\xb1\\xbb\\xe5\\x9e\\x8b\\xe9\\x97\\xb4\\xe7\\x9a\\x84\\xe6\\x98\\xbe\\xe7\\xa4\\xba\\xe8\\xbd\\xac\\xe6\\x8d\\xa2.sol\":294:317  uint32 public b32 = b16 */\n  0xffff\n  and\n  0x00\n  exp(0x0100, 0x08)\n  dup2\n  sload\n  dup2\n  0xffffffff\n  mul\n  not\n  and\n  swap1\n  dup4\n  0xffffffff\n  and\n  mul\n  or\n  swap1\n  sstore\n  pop\n    /* \"\\xe5\\x9f\\xba\\xe6\\x9c\\xac\\xe6\\x95\\xb0\\xe6\\x8d\\xae\\xe7\\xb1\\xbb\\xe5\\x9e\\x8b\\xe9\\x97\\xb4\\xe7\\x9a\\x84\\xe6\\x98\\xbe\\xe7\\xa4\\xba\\xe8\\xbd\\xac\\xe6\\x8d\\xa2.sol\":465:475  0xaabbccdd */\n  0xaabbccdd\n    /* \"\\xe5\\x9f\\xba\\xe6\\x9c\\xac\\xe6\\x95\\xb0\\xe6\\x8d\\xae\\xe7\\xb1\\xbb\\xe5\\x9e\\x8b\\xe9\\x97\\xb4\\xe7\\x9a\\x84\\xe6\\x98\\xbe\\xe7\\xa4\\xba\\xe8\\xbd\\xac\\xe6\\x8d\\xa2.sol\":445:475  bytes4 public bs4 = 0xaabbccdd */\n  0xe0\n  shl\n  0x00\n  exp(0x0100, 0x0c)\n  dup2\n  sload\n  dup2\n  0xffffffff\n  mul\n  not\n  and\n  swap1\n  dup4\n  0xe0\n  shr\n  mul\n  or\n  swap1\n  sstore\n  pop\n    /* \"\\xe5\\x9f\\xba\\xe6\\x9c\\xac\\xe6\\x95\\xb0\\xe6\\x8d\\xae\\xe7\\xb1\\xbb\\xe5\\x9e\\x8b\\xe9\\x97\\xb4\\xe7\\x9a\\x84\\xe6\\x98\\xbe\\xe7\\xa4\\xba\\xe8\\xbd\\xac\\xe6\\x8d\\xa2.sol\":509:512  bs4 */\n  0x00\n  0x0c\n  swap1\n  sload\n  swap1\n  0x0100\n  exp\n  swap1\n  div\n  0xe0\n  shl\n    /* \"\\xe5\\x9f\\xba\\xe6\\x9c\\xac\\xe6\\x95\\xb0\\xe6\\x8d\\xae\\xe7\\xb1\\xbb\\xe5\\x9e\\x8b\\xe9\\x97\\xb4\\xe7\\x9a\\x84\\xe6\\x98\\xbe\\xe7\\xa4\\xba\\xe8\\xbd\\xac\\xe6\\x8d\\xa2.sol\":482:513  bytes2 public bs2 = bytes2(bs4) */\n  0x00\n  exp(0x0100, 0x10)\n  dup2\n  sload\n  dup2\n  0xffff\n  mul\n  not\n  and\n  swap1\n  dup4\n  0xf0\n  shr\n  mul\n  or\n  swap1\n  sstore\n  pop\n    /* \"\\xe5\\x9f\\xba\\xe6\\x9c\\xac\\xe6\\x95\\xb0\\xe6\\x8d\\xae\\xe7\\xb1\\xbb\\xe5\\x9e\\x8b\\xe9\\x97\\xb4\\xe7\\x9a\\x84\\xe6\\x98\\xbe\\xe7\\xa4\\xba\\xe8\\xbd\\xac\\xe6\\x8d\\xa2.sol\":564:570  0xaabb */\n  0xaabb\n    /* \"\\xe5\\x9f\\xba\\xe6\\x9c\\xac\\xe6\\x95\\xb0\\xe6\\x8d\\xae\\xe7\\xb1\\xbb\\xe5\\x9e\\x8b\\xe9\\x97\\xb4\\xe7\\x9a\\x84\\xe6\\x98\\xbe\\xe7\\xa4\\xba\\xe8\\xbd\\xac\\xe6\\x8d\\xa2.sol\":544:570  bytes2 public bz2 = 0xaabb */\n  0xf0\n  shl\n  0x00\n  exp(0x0100, 0x12)\n  dup2\n  sload\n  dup2\n  0xffff\n  mul\n  not\n  and\n  swap1\n  dup4\n  0xf0\n  shr\n  mul\n  or\n  swap1\n  sstore\n  pop\n    /* \"\\xe5\\x9f\\xba\\xe6\\x9c\\xac\\xe6\\x95\\xb0\\xe6\\x8d\\xae\\xe7\\xb1\\xbb\\xe5\\x9e\\x8b\\xe9\\x97\\xb4\\xe7\\x9a\\x84\\xe6\\x98\\xbe\\xe7\\xa4\\xba\\xe8\\xbd\\xac\\xe6\\x8d\\xa2.sol\":597:600  bz2 */\n  0x00\n  0x12\n  swap1\n  sload\n  swap1\n  0x0100\n  exp\n  swap1\n  div\n  0xf0\n  shl\n    /* \"\\xe5\\x9f\\xba\\xe6\\x9c\\xac\\xe6\\x95\\xb0\\xe6\\x8d\\xae\\xe7\\xb1\\xbb\\xe5\\x9e\\x8b\\xe9\\x97\\xb4\\xe7\\x9a\\x84\\xe6\\x98\\xbe\\xe7\\xa4\\xba\\xe8\\xbd\\xac\\xe6\\x8d\\xa2.sol\":577:600  bytes4 public bz4 = bz2 */\n  not(0xffffffffffffffffffffffffffffffffffffffffffffffffffffffffffff)\n  and\n  0x00\n  exp(0x0100, 0x14)\n  dup2\n  sload\n  dup2\n  0xffffffff\n  mul\n  not\n  and\n  swap1\n  dup4\n  0xe0\n  shr\n  mul\n  or\n  swap1\n  sstore\n  pop\n    /* \"\\xe5\\x9f\\xba\\xe6\\x9c\\xac\\xe6\\x95\\xb0\\xe6\\x8d\\xae\\xe7\\xb1\\xbb\\xe5\\x9e\\x8b\\xe9\\x97\\xb4\\xe7\\x9a\\x84\\xe6\\x98\\xbe\\xe7\\xa4\\xba\\xe8\\xbd\\xac\\xe6\\x8d\\xa2.sol\":1225:1231  0x1234 */\n  0x1234\n    /* \"\\xe5\\x9f\\xba\\xe6\\x9c\\xac\\xe6\\x95\\xb0\\xe6\\x8d\\xae\\xe7\\xb1\\xbb\\xe5\\x9e\\x8b\\xe9\\x97\\xb4\\xe7\\x9a\\x84\\xe6\\x98\\xbe\\xe7\\xa4\\xba\\xe8\\xbd\\xac\\xe6\\x8d\\xa2.sol\":1214:1231  bytes2 a = 0x1234 */\n  0xf0\n  shl\n  0x00\n  exp(0x0100, 0x18)\n  dup2\n  sload\n  dup2\n  0xffff\n  mul\n  not\n  and\n  swap1\n  dup4\n  0xf0\n  shr\n  mul\n  or\n  swap1\n  sstore\n  pop\n    /* \"\\xe5\\x9f\\xba\\xe6\\x9c\\xac\\xe6\\x95\\xb0\\xe6\\x8d\\xae\\xe7\\xb1\\xbb\\xe5\\x9e\\x8b\\xe9\\x97\\xb4\\xe7\\x9a\\x84\\xe6\\x98\\xbe\\xe7\\xa4\\xba\\xe8\\xbd\\xac\\xe6\\x8d\\xa2.sol\":1256:1257  a */\n  0x00\n  0x18\n  swap1\n  sload\n  swap1\n  0x0100\n  exp\n  swap1\n  div\n  0xf0\n  shl\n    /* \"\\xe5\\x9f\\xba\\xe6\\x9c\\xac\\xe6\\x95\\xb0\\xe6\\x8d\\xae\\xe7\\xb1\\xbb\\xe5\\x9e\\x8b\\xe9\\x97\\xb4\\xe7\\x9a\\x84\\xe6\\x98\\xbe\\xe7\\xa4\\xba\\xe8\\xbd\\xac\\xe6\\x8d\\xa2.sol\":1249:1258  uint16(a) */\n  0xf0\n  shr\n    /* \"\\xe5\\x9f\\xba\\xe6\\x9c\\xac\\xe6\\x95\\xb0\\xe6\\x8d\\xae\\xe7\\xb1\\xbb\\xe5\\x9e\\x8b\\xe9\\x97\\xb4\\xe7\\x9a\\x84\\xe6\\x98\\xbe\\xe7\\xa4\\xba\\xe8\\xbd\\xac\\xe6\\x8d\\xa2.sol\":1238:1258  uint32 b = uint16(a) */\n  0xffff\n  and\n  0x00\n  exp(0x0100, 0x1a)\n  dup2\n  sload\n  dup2\n  0xffffffff\n  mul\n  not\n  and\n  swap1\n  dup4\n  0xffffffff\n  and\n  mul\n  or\n  swap1\n  sstore\n  pop\n    /* \"\\xe5\\x9f\\xba\\xe6\\x9c\\xac\\xe6\\x95\\xb0\\xe6\\x8d\\xae\\xe7\\xb1\\xbb\\xe5\\x9e\\x8b\\xe9\\x97\\xb4\\xe7\\x9a\\x84\\xe6\\x98\\xbe\\xe7\\xa4\\xba\\xe8\\xbd\\xac\\xe6\\x8d\\xa2.sol\":1353:1354  a */\n  0x00\n  0x18\n  swap1\n  sload\n  swap1\n  0x0100\n  exp\n  swap1\n  div\n  0xf0\n  shl\n    /* \"\\xe5\\x9f\\xba\\xe6\\x9c\\xac\\xe6\\x95\\xb0\\xe6\\x8d\\xae\\xe7\\xb1\\xbb\\xe5\\x9e\\x8b\\xe9\\x97\\xb4\\xe7\\x9a\\x84\\xe6\\x98\\xbe\\xe7\\xa4\\xba\\xe8\\xbd\\xac\\xe6\\x8d\\xa2.sol\":1346:1355  bytes4(a) */\n  not(0xffffffffffffffffffffffffffffffffffffffffffffffffffffffffffff)\n  and\n    /* \"\\xe5\\x9f\\xba\\xe6\\x9c\\xac\\xe6\\x95\\xb0\\xe6\\x8d\\xae\\xe7\\xb1\\xbb\\xe5\\x9e\\x8b\\xe9\\x97\\xb4\\xe7\\x9a\\x84\\xe6\\x98\\xbe\\xe7\\xa4\\xba\\xe8\\xbd\\xac\\xe6\\x8d\\xa2.sol\":1339:1356  uint32(bytes4(a)) */\n  0xe0\n  shr\n    /* \"\\xe5\\x9f\\xba\\xe6\\x9c\\xac\\xe6\\x95\\xb0\\xe6\\x8d\\xae\\xe7\\xb1\\xbb\\xe5\\x9e\\x8b\\xe9\\x97\\xb4\\xe7\\x9a\\x84\\xe6\\x98\\xbe\\xe7\\xa4\\xba\\xe8\\xbd\\xac\\xe6\\x8d\\xa2.sol\":1328:1356  uint32 c = uint32(bytes4(a)) */\n  0x01\n  exp(0x0100, 0x00)\n  dup2\n  sload\n  dup2\n  0xffffffff\n  mul\n  not\n  and\n  swap1\n  dup4\n  0xffffffff\n  and\n  mul\n  or\n  swap1\n  sstore\n  pop\n    /* \"\\xe5\\x9f\\xba\\xe6\\x9c\\xac\\xe6\\x95\\xb0\\xe6\\x8d\\xae\\xe7\\xb1\\xbb\\xe5\\x9e\\x8b\\xe9\\x97\\xb4\\xe7\\x9a\\x84\\xe6\\x98\\xbe\\xe7\\xa4\\xba\\xe8\\xbd\\xac\\xe6\\x8d\\xa2.sol\":1449:1450  a */\n  0x00\n  0x18\n  swap1\n  sload\n  swap1\n  0x0100\n  exp\n  swap1\n  div\n  0xf0\n  shl\n    /* \"\\xe5\\x9f\\xba\\xe6\\x9c\\xac\\xe6\\x95\\xb0\\xe6\\x8d\\xae\\xe7\\xb1\\xbb\\xe5\\x9e\\x8b\\xe9\\x97\\xb4\\xe7\\x9a\\x84\\xe6\\x98\\xbe\\xe7\\xa4\\xba\\xe8\\xbd\\xac\\xe6\\x8d\\xa2.sol\":1442:1451  uint16(a) */\n  0xf0\n  shr\n    /* \"\\xe5\\x9f\\xba\\xe6\\x9c\\xac\\xe6\\x95\\xb0\\xe6\\x8d\\xae\\xe7\\xb1\\xbb\\xe5\\x9e\\x8b\\xe9\\x97\\xb4\\xe7\\x9a\\x84\\xe6\\x98\\xbe\\xe7\\xa4\\xba\\xe8\\xbd\\xac\\xe6\\x8d\\xa2.sol\":1426:1452  uint8 d = uint8(uint16(a)) */\n  0x01\n  exp(0x0100, 0x04)\n  dup2\n  sload\n  dup2\n  0xff\n  mul\n  not\n  and\n  swap1\n  dup4\n  0xff\n  and\n  mul\n  or\n  swap1\n  sstore\n  pop\n    /* \"\\xe5\\x9f\\xba\\xe6\\x9c\\xac\\xe6\\x95\\xb0\\xe6\\x8d\\xae\\xe7\\xb1\\xbb\\xe5\\x9e\\x8b\\xe9\\x97\\xb4\\xe7\\x9a\\x84\\xe6\\x98\\xbe\\xe7\\xa4\\xba\\xe8\\xbd\\xac\\xe6\\x8d\\xa2.sol\":1511:1512  a */\n  0x00\n  0x18\n  swap1\n  sload\n  swap1\n  0x0100\n  exp\n  swap1\n  div\n  0xf0\n  shl\n    /* \"\\xe5\\x9f\\xba\\xe6\\x9c\\xac\\xe6\\x95\\xb0\\xe6\\x8d\\xae\\xe7\\xb1\\xbb\\xe5\\x9e\\x8b\\xe9\\x97\\xb4\\xe7\\x9a\\x84\\xe6\\x98\\xbe\\xe7\\xa4\\xba\\xe8\\xbd\\xac\\xe6\\x8d\\xa2.sol\":1498:1514  uint8(bytes1(a)) */\n  0xf8\n  shr\n    /* \"\\xe5\\x9f\\xba\\xe6\\x9c\\xac\\xe6\\x95\\xb0\\xe6\\x8d\\xae\\xe7\\xb1\\xbb\\xe5\\x9e\\x8b\\xe9\\x97\\xb4\\xe7\\x9a\\x84\\xe6\\x98\\xbe\\xe7\\xa4\\xba\\xe8\\xbd\\xac\\xe6\\x8d\\xa2.sol\":1488:1514  uint8 e = uint8(bytes1(a)) */\n  0x01\n  exp(0x0100, 0x05)\n  dup2\n  sload\n  dup2\n  0xff\n  mul\n  not\n  and\n  swap1\n  dup4\n  0xff\n  and\n  mul\n  or\n  swap1\n  sstore\n  pop\n    /* \"\\xe5\\x9f\\xba\\xe6\\x9c\\xac\\xe6\\x95\\xb0\\xe6\\x8d\\xae\\xe7\\xb1\\xbb\\xe5\\x9e\\x8b\\xe9\\x97\\xb4\\xe7\\x9a\\x84\\xe6\\x98\\xbe\\xe7\\xa4\\xba\\xe8\\xbd\\xac\\xe6\\x8d\\xa2.sol\":66:1547  contract HelloWorld {... */\n  callvalue\n  dup1\n  iszero\n  tag_1\n  jumpi\n  0x00\n  dup1\n  revert\ntag_1:\n  pop\n  dataSize(sub_0)\n  dup1\n  dataOffset(sub_0)\n  0x00\n  codecopy\n  0x00\n  return\nstop\n\nsub_0: assembly {\n        /* \"\\xe5\\x9f\\xba\\xe6\\x9c\\xac\\xe6\\x95\\xb0\\xe6\\x8d\\xae\\xe7\\xb1\\xbb\\xe5\\x9e\\x8b\\xe9\\x97\\xb4\\xe7\\x9a\\x84\\xe6\\x98\\xbe\\xe7\\xa4\\xba\\xe8\\xbd\\xac\\xe6\\x8d\\xa2.sol\":66:1547  contract HelloWorld {... */\n      mstore(0x40, 0x80)\n      callvalue\n      dup1\n      iszero\n      tag_1\n      jumpi\n      0x00\n      dup1\n      revert\n    tag_1:\n      pop\n      jumpi(tag_2, lt(calldatasize, 0x04))\n      shr(0xe0, calldataload(0x00))\n      dup1\n      0xaf9abe42\n      gt\n      tag_11\n      jumpi\n      dup1\n      0xaf9abe42\n      eq\n      tag_7\n      jumpi\n      dup1\n      0xd698f5f5\n      eq\n      tag_8\n      jumpi\n      dup1\n      0xf1d744db\n      eq\n      tag_9\n      jumpi\n      dup1\n      0xf8aab238\n      eq\n      tag_10\n      jumpi\n      jump(tag_2)\n    tag_11:\n      dup1\n      0x12002f71\n      eq\n      tag_3\n      jumpi\n      dup1\n      0x520ed411\n      eq\n      tag_4\n      jumpi\n      dup1\n      0x84640813\n      eq\n      tag_5\n      jumpi\n      dup1\n      0x914a880d\n      eq\n      tag_6\n      jumpi\n    tag_2:\n      0x00\n      dup1\n      revert\n        /* \"\\xe5\\x9f\\xba\\xe6\\x9c\\xac\\xe6\\x95\\xb0\\xe6\\x8d\\xae\\xe7\\xb1\\xbb\\xe5\\x9e\\x8b\\xe9\\x97\\xb4\\xe7\\x9a\\x84\\xe6\\x98\\xbe\\xe7\\xa4\\xba\\xe8\\xbd\\xac\\xe6\\x8d\\xa2.sol\":544:570  bytes2 public bz2 = 0xaabb */\n    tag_3:\n      tag_12\n      tag_13\n      jump\t// in\n    tag_12:\n      mload(0x40)\n      tag_14\n      swap2\n      swap1\n      tag_15\n      jump\t// in\n    tag_14:\n      mload(0x40)\n      dup1\n      swap2\n      sub\n      swap1\n      return\n        /* \"\\xe5\\x9f\\xba\\xe6\\x9c\\xac\\xe6\\x95\\xb0\\xe6\\x8d\\xae\\xe7\\xb1\\xbb\\xe5\\x9e\\x8b\\xe9\\x97\\xb4\\xe7\\x9a\\x84\\xe6\\x98\\xbe\\xe7\\xa4\\xba\\xe8\\xbd\\xac\\xe6\\x8d\\xa2.sol\":162:192  uint32 public a32 = 0xaabbccdd */\n    tag_4:\n      tag_16\n      tag_17\n      jump\t// in\n    tag_16:\n      mload(0x40)\n      tag_18\n      swap2\n      swap1\n      tag_19\n      jump\t// in\n    tag_18:\n      mload(0x40)\n      dup1\n      swap2\n      sub\n      swap1\n      return\n        /* \"\\xe5\\x9f\\xba\\xe6\\x9c\\xac\\xe6\\x95\\xb0\\xe6\\x8d\\xae\\xe7\\xb1\\xbb\\xe5\\x9e\\x8b\\xe9\\x97\\xb4\\xe7\\x9a\\x84\\xe6\\x98\\xbe\\xe7\\xa4\\xba\\xe8\\xbd\\xac\\xe6\\x8d\\xa2.sol\":577:600  bytes4 public bz4 = bz2 */\n    tag_5:\n      tag_20\n      tag_21\n      jump\t// in\n    tag_20:\n      mload(0x40)\n      tag_22\n      swap2\n      swap1\n      tag_23\n      jump\t// in\n    tag_22:\n      mload(0x40)\n      dup1\n      swap2\n      sub\n      swap1\n      return\n        /* \"\\xe5\\x9f\\xba\\xe6\\x9c\\xac\\xe6\\x95\\xb0\\xe6\\x8d\\xae\\xe7\\xb1\\xbb\\xe5\\x9e\\x8b\\xe9\\x97\\xb4\\xe7\\x9a\\x84\\xe6\\x98\\xbe\\xe7\\xa4\\xba\\xe8\\xbd\\xac\\xe6\\x8d\\xa2.sol\":261:287  uint16 public b16 = 0xaabb */\n    tag_6:\n      tag_24\n      tag_25\n      jump\t// in\n    tag_24:\n      mload(0x40)\n      tag_26\n      swap2\n      swap1\n      tag_27\n      jump\t// in\n    tag_26:\n      mload(0x40)\n      dup1\n      swap2\n      sub\n      swap1\n      return\n        /* \"\\xe5\\x9f\\xba\\xe6\\x9c\\xac\\xe6\\x95\\xb0\\xe6\\x8d\\xae\\xe7\\xb1\\xbb\\xe5\\x9e\\x8b\\xe9\\x97\\xb4\\xe7\\x9a\\x84\\xe6\\x98\\xbe\\xe7\\xa4\\xba\\xe8\\xbd\\xac\\xe6\\x8d\\xa2.sol\":482:513  bytes2 public bs2 = bytes2(bs4) */\n    tag_7:\n      tag_28\n      tag_29\n      jump\t// in\n    tag_28:\n      mload(0x40)\n      tag_30\n      swap2\n      swap1\n      tag_15\n      jump\t// in\n    tag_30:\n      mload(0x40)\n      dup1\n      swap2\n      sub\n      swap1\n      return\n        /* \"\\xe5\\x9f\\xba\\xe6\\x9c\\xac\\xe6\\x95\\xb0\\xe6\\x8d\\xae\\xe7\\xb1\\xbb\\xe5\\x9e\\x8b\\xe9\\x97\\xb4\\xe7\\x9a\\x84\\xe6\\x98\\xbe\\xe7\\xa4\\xba\\xe8\\xbd\\xac\\xe6\\x8d\\xa2.sol\":445:475  bytes4 public bs4 = 0xaabbccdd */\n    tag_8:\n      tag_31\n      tag_32\n      jump\t// in\n    tag_31:\n      mload(0x40)\n      tag_33\n      swap2\n      swap1\n      tag_23\n      jump\t// in\n    tag_33:\n      mload(0x40)\n      dup1\n      swap2\n      sub\n      swap1\n      return\n        /* \"\\xe5\\x9f\\xba\\xe6\\x9c\\xac\\xe6\\x95\\xb0\\xe6\\x8d\\xae\\xe7\\xb1\\xbb\\xe5\\x9e\\x8b\\xe9\\x97\\xb4\\xe7\\x9a\\x84\\xe6\\x98\\xbe\\xe7\\xa4\\xba\\xe8\\xbd\\xac\\xe6\\x8d\\xa2.sol\":199:230  uint16 public a16 = uint16(a32) */\n    tag_9:\n      tag_34\n      tag_35\n      jump\t// in\n    tag_34:\n      mload(0x40)\n      tag_36\n      swap2\n      swap1\n      tag_27\n      jump\t// in\n    tag_36:\n      mload(0x40)\n      dup1\n      swap2\n      sub\n      swap1\n      return\n        /* \"\\xe5\\x9f\\xba\\xe6\\x9c\\xac\\xe6\\x95\\xb0\\xe6\\x8d\\xae\\xe7\\xb1\\xbb\\xe5\\x9e\\x8b\\xe9\\x97\\xb4\\xe7\\x9a\\x84\\xe6\\x98\\xbe\\xe7\\xa4\\xba\\xe8\\xbd\\xac\\xe6\\x8d\\xa2.sol\":294:317  uint32 public b32 = b16 */\n    tag_10:\n      tag_37\n      tag_38\n      jump\t// in\n    tag_37:\n      mload(0x40)\n      tag_39\n      swap2\n      swap1\n      tag_19\n      jump\t// in\n    tag_39:\n      mload(0x40)\n      dup1\n      swap2\n      sub\n      swap1\n      return\n        /* \"\\xe5\\x9f\\xba\\xe6\\x9c\\xac\\xe6\\x95\\xb0\\xe6\\x8d\\xae\\xe7\\xb1\\xbb\\xe5\\x9e\\x8b\\xe9\\x97\\xb4\\xe7\\x9a\\x84\\xe6\\x98\\xbe\\xe7\\xa4\\xba\\xe8\\xbd\\xac\\xe6\\x8d\\xa2.sol\":544:570  bytes2 public bz2 = 0xaabb */\n    tag_13:\n      0x00\n      0x12\n      swap1\n      sload\n      swap1\n      0x0100\n      exp\n      swap1\n      div\n      0xf0\n      shl\n      dup2\n      jump\t// out\n        /* \"\\xe5\\x9f\\xba\\xe6\\x9c\\xac\\xe6\\x95\\xb0\\xe6\\x8d\\xae\\xe7\\xb1\\xbb\\xe5\\x9e\\x8b\\xe9\\x97\\xb4\\xe7\\x9a\\x84\\xe6\\x98\\xbe\\xe7\\xa4\\xba\\xe8\\xbd\\xac\\xe6\\x8d\\xa2.sol\":162:192  uint32 public a32 = 0xaabbccdd */\n    tag_17:\n      0x00\n      dup1\n      sload\n      swap1\n      0x0100\n      exp\n      swap1\n      div\n      0xffffffff\n      and\n      dup2\n      jump\t// out\n        /* \"\\xe5\\x9f\\xba\\xe6\\x9c\\xac\\xe6\\x95\\xb0\\xe6\\x8d\\xae\\xe7\\xb1\\xbb\\xe5\\x9e\\x8b\\xe9\\x97\\xb4\\xe7\\x9a\\x84\\xe6\\x98\\xbe\\xe7\\xa4\\xba\\xe8\\xbd\\xac\\xe6\\x8d\\xa2.sol\":577:600  bytes4 public bz4 = bz2 */\n    tag_21:\n      0x00\n      0x14\n      swap1\n      sload\n      swap1\n      0x0100\n      exp\n      swap1\n      div\n      0xe0\n      shl\n      dup2\n      jump\t// out\n        /* \"\\xe5\\x9f\\xba\\xe6\\x9c\\xac\\xe6\\x95\\xb0\\xe6\\x8d\\xae\\xe7\\xb1\\xbb\\xe5\\x9e\\x8b\\xe9\\x97\\xb4\\xe7\\x9a\\x84\\xe6\\x98\\xbe\\xe7\\xa4\\xba\\xe8\\xbd\\xac\\xe6\\x8d\\xa2.sol\":261:287  uint16 public b16 = 0xaabb */\n    tag_25:\n      0x00\n      0x06\n      swap1\n      sload\n      swap1\n      0x0100\n      exp\n      swap1\n      div\n      0xffff\n      and\n      dup2\n      jump\t// out\n        /* \"\\xe5\\x9f\\xba\\xe6\\x9c\\xac\\xe6\\x95\\xb0\\xe6\\x8d\\xae\\xe7\\xb1\\xbb\\xe5\\x9e\\x8b\\xe9\\x97\\xb4\\xe7\\x9a\\x84\\xe6\\x98\\xbe\\xe7\\xa4\\xba\\xe8\\xbd\\xac\\xe6\\x8d\\xa2.sol\":482:513  bytes2 public bs2 = bytes2(bs4) */\n    tag_29:\n      0x00\n      0x10\n      swap1\n      sload\n      swap1\n      0x0100\n      exp\n      swap1\n      div\n      0xf0\n      shl\n      dup2\n      jump\t// out\n        /* \"\\xe5\\x9f\\xba\\xe6\\x9c\\xac\\xe6\\x95\\xb0\\xe6\\x8d\\xae\\xe7\\xb1\\xbb\\xe5\\x9e\\x8b\\xe9\\x97\\xb4\\xe7\\x9a\\x84\\xe6\\x98\\xbe\\xe7\\xa4\\xba\\xe8\\xbd\\xac\\xe6\\x8d\\xa2.sol\":445:475  bytes4 public bs4 = 0xaabbccdd */\n    tag_32:\n      0x00\n      0x0c\n      swap1\n      sload\n      swap1\n      0x0100\n      exp\n      swap1\n      div\n      0xe0\n      shl\n      dup2\n      jump\t// out\n        /* \"\\xe5\\x9f\\xba\\xe6\\x9c\\xac\\xe6\\x95\\xb0\\xe6\\x8d\\xae\\xe7\\xb1\\xbb\\xe5\\x9e\\x8b\\xe9\\x97\\xb4\\xe7\\x9a\\x84\\xe6\\x98\\xbe\\xe7\\xa4\\xba\\xe8\\xbd\\xac\\xe6\\x8d\\xa2.sol\":199:230  uint16 public a16 = uint16(a32) */\n    tag_35:\n      0x00\n      0x04\n      swap1\n      sload\n      swap1\n      0x0100\n      exp\n      swap1\n      div\n      0xffff\n      and\n      dup2\n      jump\t// out\n        /* \"\\xe5\\x9f\\xba\\xe6\\x9c\\xac\\xe6\\x95\\xb0\\xe6\\x8d\\xae\\xe7\\xb1\\xbb\\xe5\\x9e\\x8b\\xe9\\x97\\xb4\\xe7\\x9a\\x84\\xe6\\x98\\xbe\\xe7\\xa4\\xba\\xe8\\xbd\\xac\\xe6\\x8d\\xa2.sol\":294:317  uint32 public b32 = b16 */\n    tag_38:\n      0x00\n      0x08\n      swap1\n      sload\n      swap1\n      0x0100\n      exp\n      swap1\n      div\n      0xffffffff\n      and\n      dup2\n      jump\t// out\n        /* \"#utility.yul\":7:156   */\n    tag_40:\n        /* \"#utility.yul\":43:50   */\n      0x00\n        /* \"#utility.yul\":83:149   */\n      0xffff000000000000000000000000000000000000000000000000000000000000\n        /* \"#utility.yul\":76:81   */\n      dup3\n        /* \"#utility.yul\":72:150   */\n      and\n        /* \"#utility.yul\":61:150   */\n      swap1\n      pop\n        /* \"#utility.yul\":7:156   */\n      swap2\n      swap1\n      pop\n      jump\t// out\n        /* \"#utility.yul\":162:277   */\n    tag_41:\n        /* \"#utility.yul\":247:270   */\n      tag_51\n        /* \"#utility.yul\":264:269   */\n      dup2\n        /* \"#utility.yul\":247:270   */\n      tag_40\n      jump\t// in\n    tag_51:\n        /* \"#utility.yul\":242:245   */\n      dup3\n        /* \"#utility.yul\":235:271   */\n      mstore\n        /* \"#utility.yul\":162:277   */\n      pop\n      pop\n      jump\t// out\n        /* \"#utility.yul\":283:501   */\n    tag_15:\n        /* \"#utility.yul\":374:378   */\n      0x00\n        /* \"#utility.yul\":412:414   */\n      0x20\n        /* \"#utility.yul\":401:410   */\n      dup3\n        /* \"#utility.yul\":397:415   */\n      add\n        /* \"#utility.yul\":389:415   */\n      swap1\n      pop\n        /* \"#utility.yul\":425:494   */\n      tag_53\n        /* \"#utility.yul\":491:492   */\n      0x00\n        /* \"#utility.yul\":480:489   */\n      dup4\n        /* \"#utility.yul\":476:493   */\n      add\n        /* \"#utility.yul\":467:473   */\n      dup5\n        /* \"#utility.yul\":425:494   */\n      tag_41\n      jump\t// in\n    tag_53:\n        /* \"#utility.yul\":283:501   */\n      swap3\n      swap2\n      pop\n      pop\n      jump\t// out\n        /* \"#utility.yul\":507:600   */\n    tag_42:\n        /* \"#utility.yul\":543:550   */\n      0x00\n        /* \"#utility.yul\":583:593   */\n      0xffffffff\n        /* \"#utility.yul\":576:581   */\n      dup3\n        /* \"#utility.yul\":572:594   */\n      and\n        /* \"#utility.yul\":561:594   */\n      swap1\n      pop\n        /* \"#utility.yul\":507:600   */\n      swap2\n      swap1\n      pop\n      jump\t// out\n        /* \"#utility.yul\":606:721   */\n    tag_43:\n        /* \"#utility.yul\":691:714   */\n      tag_56\n        /* \"#utility.yul\":708:713   */\n      dup2\n        /* \"#utility.yul\":691:714   */\n      tag_42\n      jump\t// in\n    tag_56:\n        /* \"#utility.yul\":686:689   */\n      dup3\n        /* \"#utility.yul\":679:715   */\n      mstore\n        /* \"#utility.yul\":606:721   */\n      pop\n      pop\n      jump\t// out\n        /* \"#utility.yul\":727:945   */\n    tag_19:\n        /* \"#utility.yul\":818:822   */\n      0x00\n        /* \"#utility.yul\":856:858   */\n      0x20\n        /* \"#utility.yul\":845:854   */\n      dup3\n        /* \"#utility.yul\":841:859   */\n      add\n        /* \"#utility.yul\":833:859   */\n      swap1\n      pop\n        /* \"#utility.yul\":869:938   */\n      tag_58\n        /* \"#utility.yul\":935:936   */\n      0x00\n        /* \"#utility.yul\":924:933   */\n      dup4\n        /* \"#utility.yul\":920:937   */\n      add\n        /* \"#utility.yul\":911:917   */\n      dup5\n        /* \"#utility.yul\":869:938   */\n      tag_43\n      jump\t// in\n    tag_58:\n        /* \"#utility.yul\":727:945   */\n      swap3\n      swap2\n      pop\n      pop\n      jump\t// out\n        /* \"#utility.yul\":951:1100   */\n    tag_44:\n        /* \"#utility.yul\":987:994   */\n      0x00\n        /* \"#utility.yul\":1027:1093   */\n      0xffffffff00000000000000000000000000000000000000000000000000000000\n        /* \"#utility.yul\":1020:1025   */\n      dup3\n        /* \"#utility.yul\":1016:1094   */\n      and\n        /* \"#utility.yul\":1005:1094   */\n      swap1\n      pop\n        /* \"#utility.yul\":951:1100   */\n      swap2\n      swap1\n      pop\n      jump\t// out\n        /* \"#utility.yul\":1106:1221   */\n    tag_45:\n        /* \"#utility.yul\":1191:1214   */\n      tag_61\n        /* \"#utility.yul\":1208:1213   */\n      dup2\n        /* \"#utility.yul\":1191:1214   */\n      tag_44\n      jump\t// in\n    tag_61:\n        /* \"#utility.yul\":1186:1189   */\n      dup3\n        /* \"#utility.yul\":1179:1215   */\n      mstore\n        /* \"#utility.yul\":1106:1221   */\n      pop\n      pop\n      jump\t// out\n        /* \"#utility.yul\":1227:1445   */\n    tag_23:\n        /* \"#utility.yul\":1318:1322   */\n      0x00\n        /* \"#utility.yul\":1356:1358   */\n      0x20\n        /* \"#utility.yul\":1345:1354   */\n      dup3\n        /* \"#utility.yul\":1341:1359   */\n      add\n        /* \"#utility.yul\":1333:1359   */\n      swap1\n      pop\n        /* \"#utility.yul\":1369:1438   */\n      tag_63\n        /* \"#utility.yul\":1435:1436   */\n      0x00\n        /* \"#utility.yul\":1424:1433   */\n      dup4\n        /* \"#utility.yul\":1420:1437   */\n      add\n        /* \"#utility.yul\":1411:1417   */\n      dup5\n        /* \"#utility.yul\":1369:1438   */\n      tag_45\n      jump\t// in\n    tag_63:\n        /* \"#utility.yul\":1227:1445   */\n      swap3\n      swap2\n      pop\n      pop\n      jump\t// out\n        /* \"#utility.yul\":1451:1540   */\n    tag_46:\n        /* \"#utility.yul\":1487:1494   */\n      0x00\n        /* \"#utility.yul\":1527:1533   */\n      0xffff\n        /* \"#utility.yul\":1520:1525   */\n      dup3\n        /* \"#utility.yul\":1516:1534   */\n      and\n        /* \"#utility.yul\":1505:1534   */\n      swap1\n      pop\n        /* \"#utility.yul\":1451:1540   */\n      swap2\n      swap1\n      pop\n      jump\t// out\n        /* \"#utility.yul\":1546:1661   */\n    tag_47:\n        /* \"#utility.yul\":1631:1654   */\n      tag_66\n        /* \"#utility.yul\":1648:1653   */\n      dup2\n        /* \"#utility.yul\":1631:1654   */\n      tag_46\n      jump\t// in\n    tag_66:\n        /* \"#utility.yul\":1626:1629   */\n      dup3\n        /* \"#utility.yul\":1619:1655   */\n      mstore\n        /* \"#utility.yul\":1546:1661   */\n      pop\n      pop\n      jump\t// out\n        /* \"#utility.yul\":1667:1885   */\n    tag_27:\n        /* \"#utility.yul\":1758:1762   */\n      0x00\n        /* \"#utility.yul\":1796:1798   */\n      0x20\n        /* \"#utility.yul\":1785:1794   */\n      dup3\n        /* \"#utility.yul\":1781:1799   */\n      add\n        /* \"#utility.yul\":1773:1799   */\n      swap1\n      pop\n        /* \"#utility.yul\":1809:1878   */\n      tag_68\n        /* \"#utility.yul\":1875:1876   */\n      0x00\n        /* \"#utility.yul\":1864:1873   */\n      dup4\n        /* \"#utility.yul\":1860:1877   */\n      add\n        /* \"#utility.yul\":1851:1857   */\n      dup5\n        /* \"#utility.yul\":1809:1878   */\n      tag_47\n      jump\t// in\n    tag_68:\n        /* \"#utility.yul\":1667:1885   */\n      swap3\n      swap2\n      pop\n      pop\n      jump\t// out\n\n    auxdata: 0xa2646970667358221220b44dd4f36665e459079a1be8b2e5c326abc041a02d8766a6eddabefff183f79564736f6c63430008110033\n}\n",
				"bytecode": {
					"linkReferences": {},
					"object": "608060405263aabbccdd6000806101000a81548163ffffffff021916908363ffffffff16021790555060008054906101000a900463ffffffff16600060046101000a81548161ffff021916908361ffff16021790555061aabb600060066101000a81548161ffff021916908361ffff160217905550600060069054906101000a900461ffff1661ffff16600060086101000a81548163ffffffff021916908363ffffffff16021790555063aabbccdd60e01b6000600c6101000a81548163ffffffff021916908360e01c02179055506000600c9054906101000a900460e01b600060106101000a81548161ffff021916908360f01c021790555061aabb60f01b600060126101000a81548161ffff021916908360f01c0217905550600060129054906101000a900460f01b7dffffffffffffffffffffffffffffffffffffffffffffffffffffffffffff1916600060146101000a81548163ffffffff021916908360e01c021790555061123460f01b600060186101000a81548161ffff021916908360f01c0217905550600060189054906101000a900460f01b60f01c61ffff166000601a6101000a81548163ffffffff021916908363ffffffff160217905550600060189054906101000a900460f01b7dffffffffffffffffffffffffffffffffffffffffffffffffffffffffffff191660e01c600160006101000a81548163ffffffff021916908363ffffffff160217905550600060189054906101000a900460f01b60f01c600160046101000a81548160ff021916908360ff160217905550600060189054906101000a900460f01b60f81c600160056101000a81548160ff021916908360ff16021790555034801561027a57600080fd5b5061036f8061028a6000396000f3fe608060405234801561001057600080fd5b50600436106100885760003560e01c8063af9abe421161005b578063af9abe4214610105578063d698f5f514610123578063f1d744db14610141578063f8aab2381461015f57610088565b806312002f711461008d578063520ed411146100ab57806384640813146100c9578063914a880d146100e7575b600080fd5b61009561017d565b6040516100a29190610256565b60405180910390f35b6100b3610190565b6040516100c09190610290565b60405180910390f35b6100d16101a4565b6040516100de91906102e6565b60405180910390f35b6100ef6101b7565b6040516100fc919061031e565b60405180910390f35b61010d6101cb565b60405161011a9190610256565b60405180910390f35b61012b6101de565b60405161013891906102e6565b60405180910390f35b6101496101f1565b604051610156919061031e565b60405180910390f35b610167610205565b6040516101749190610290565b60405180910390f35b600060129054906101000a900460f01b81565b60008054906101000a900463ffffffff1681565b600060149054906101000a900460e01b81565b600060069054906101000a900461ffff1681565b600060109054906101000a900460f01b81565b6000600c9054906101000a900460e01b81565b600060049054906101000a900461ffff1681565b600060089054906101000a900463ffffffff1681565b60007fffff00000000000000000000000000000000000000000000000000000000000082169050919050565b6102508161021b565b82525050565b600060208201905061026b6000830184610247565b92915050565b600063ffffffff82169050919050565b61028a81610271565b82525050565b60006020820190506102a56000830184610281565b92915050565b60007fffffffff0000000000000000000000000000000000000000000000000000000082169050919050565b6102e0816102ab565b82525050565b60006020820190506102fb60008301846102d7565b92915050565b600061ffff82169050919050565b61031881610301565b82525050565b6000602082019050610333600083018461030f565b9291505056fea2646970667358221220b44dd4f36665e459079a1be8b2e5c326abc041a02d8766a6eddabefff183f79564736f6c63430008110033",
					"opcodes": "PUSH1 0x80 PUSH1 0x40 MSTORE PUSH4 0xAABBCCDD PUSH1 0x0 DUP1 PUSH2 0x100 EXP DUP2 SLOAD DUP2 PUSH4 0xFFFFFFFF MUL NOT AND SWAP1 DUP4 PUSH4 0xFFFFFFFF AND MUL OR SWAP1 SSTORE POP PUSH1 0x0 DUP1 SLOAD SWAP1 PUSH2 0x100 EXP SWAP1 DIV PUSH4 0xFFFFFFFF AND PUSH1 0x0 PUSH1 0x4 PUSH2 0x100 EXP DUP2 SLOAD DUP2 PUSH2 0xFFFF MUL NOT AND SWAP1 DUP4 PUSH2 0xFFFF AND MUL OR SWAP1 SSTORE POP PUSH2 0xAABB PUSH1 0x0 PUSH1 0x6 PUSH2 0x100 EXP DUP2 SLOAD DUP2 PUSH2 0xFFFF MUL NOT AND SWAP1 DUP4 PUSH2 0xFFFF AND MUL OR SWAP1 SSTORE POP PUSH1 0x0 PUSH1 0x6 SWAP1 SLOAD SWAP1 PUSH2 0x100 EXP SWAP1 DIV PUSH2 0xFFFF AND PUSH2 0xFFFF AND PUSH1 0x0 PUSH1 0x8 PUSH2 0x100 EXP DUP2 SLOAD DUP2 PUSH4 0xFFFFFFFF MUL NOT AND SWAP1 DUP4 PUSH4 0xFFFFFFFF AND MUL OR SWAP1 SSTORE POP PUSH4 0xAABBCCDD PUSH1 0xE0 SHL PUSH1 0x0 PUSH1 0xC PUSH2 0x100 EXP DUP2 SLOAD DUP2 PUSH4 0xFFFFFFFF MUL NOT AND SWAP1 DUP4 PUSH1 0xE0 SHR MUL OR SWAP1 SSTORE POP PUSH1 0x0 PUSH1 0xC SWAP1 SLOAD SWAP1 PUSH2 0x100 EXP SWAP1 DIV PUSH1 0xE0 SHL PUSH1 0x0 PUSH1 0x10 PUSH2 0x100 EXP DUP2 SLOAD DUP2 PUSH2 0xFFFF MUL NOT AND SWAP1 DUP4 PUSH1 0xF0 SHR MUL OR SWAP1 SSTORE POP PUSH2 0xAABB PUSH1 0xF0 SHL PUSH1 0x0 PUSH1 0x12 PUSH2 0x100 EXP DUP2 SLOAD DUP2 PUSH2 0xFFFF MUL NOT AND SWAP1 DUP4 PUSH1 0xF0 SHR MUL OR SWAP1 SSTORE POP PUSH1 0x0 PUSH1 0x12 SWAP1 SLOAD SWAP1 PUSH2 0x100 EXP SWAP1 DIV PUSH1 0xF0 SHL PUSH30 0xFFFFFFFFFFFFFFFFFFFFFFFFFFFFFFFFFFFFFFFFFFFFFFFFFFFFFFFFFFFF NOT AND PUSH1 0x0 PUSH1 0x14 PUSH2 0x100 EXP DUP2 SLOAD DUP2 PUSH4 0xFFFFFFFF MUL NOT AND SWAP1 DUP4 PUSH1 0xE0 SHR MUL OR SWAP1 SSTORE POP PUSH2 0x1234 PUSH1 0xF0 SHL PUSH1 0x0 PUSH1 0x18 PUSH2 0x100 EXP DUP2 SLOAD DUP2 PUSH2 0xFFFF MUL NOT AND SWAP1 DUP4 PUSH1 0xF0 SHR MUL OR SWAP1 SSTORE POP PUSH1 0x0 PUSH1 0x18 SWAP1 SLOAD SWAP1 PUSH2 0x100 EXP SWAP1 DIV PUSH1 0xF0 SHL PUSH1 0xF0 SHR PUSH2 0xFFFF AND PUSH1 0x0 PUSH1 0x1A PUSH2 0x100 EXP DUP2 SLOAD DUP2 PUSH4 0xFFFFFFFF MUL NOT AND SWAP1 DUP4 PUSH4 0xFFFFFFFF AND MUL OR SWAP1 SSTORE POP PUSH1 0x0 PUSH1 0x18 SWAP1 SLOAD SWAP1 PUSH2 0x100 EXP SWAP1 DIV PUSH1 0xF0 SHL PUSH30 0xFFFFFFFFFFFFFFFFFFFFFFFFFFFFFFFFFFFFFFFFFFFFFFFFFFFFFFFFFFFF NOT AND PUSH1 0xE0 SHR PUSH1 0x1 PUSH1 0x0 PUSH2 0x100 EXP DUP2 SLOAD DUP2 PUSH4 0xFFFFFFFF MUL NOT AND SWAP1 DUP4 PUSH4 0xFFFFFFFF AND MUL OR SWAP1 SSTORE POP PUSH1 0x0 PUSH1 0x18 SWAP1 SLOAD SWAP1 PUSH2 0x100 EXP SWAP1 DIV PUSH1 0xF0 SHL PUSH1 0xF0 SHR PUSH1 0x1 PUSH1 0x4 PUSH2 0x100 EXP DUP2 SLOAD DUP2 PUSH1 0xFF MUL NOT AND SWAP1 DUP4 PUSH1 0xFF AND MUL OR SWAP1 SSTORE POP PUSH1 0x0 PUSH1 0x18 SWAP1 SLOAD SWAP1 PUSH2 0x100 EXP SWAP1 DIV PUSH1 0xF0 SHL PUSH1 0xF8 SHR PUSH1 0x1 PUSH1 0x5 PUSH2 0x100 EXP DUP2 SLOAD DUP2 PUSH1 0xFF MUL NOT AND SWAP1 DUP4 PUSH1 0xFF AND MUL OR SWAP1 SSTORE POP CALLVALUE DUP1 ISZERO PUSH2 0x27A JUMPI PUSH1 0x0 DUP1 REVERT JUMPDEST POP PUSH2 0x36F DUP1 PUSH2 0x28A PUSH1 0x0 CODECOPY PUSH1 0x0 RETURN INVALID PUSH1 0x80 PUSH1 0x40 MSTORE CALLVALUE DUP1 ISZERO PUSH2 0x10 JUMPI PUSH1 0x0 DUP1 REVERT JUMPDEST POP PUSH1 0x4 CALLDATASIZE LT PUSH2 0x88 JUMPI PUSH1 0x0 CALLDATALOAD PUSH1 0xE0 SHR DUP1 PUSH4 0xAF9ABE42 GT PUSH2 0x5B JUMPI DUP1 PUSH4 0xAF9ABE42 EQ PUSH2 0x105 JUMPI DUP1 PUSH4 0xD698F5F5 EQ PUSH2 0x123 JUMPI DUP1 PUSH4 0xF1D744DB EQ PUSH2 0x141 JUMPI DUP1 PUSH4 0xF8AAB238 EQ PUSH2 0x15F JUMPI PUSH2 0x88 JUMP JUMPDEST DUP1 PUSH4 0x12002F71 EQ PUSH2 0x8D JUMPI DUP1 PUSH4 0x520ED411 EQ PUSH2 0xAB JUMPI DUP1 PUSH4 0x84640813 EQ PUSH2 0xC9 JUMPI DUP1 PUSH4 0x914A880D EQ PUSH2 0xE7 JUMPI JUMPDEST PUSH1 0x0 DUP1 REVERT JUMPDEST PUSH2 0x95 PUSH2 0x17D JUMP JUMPDEST PUSH1 0x40 MLOAD PUSH2 0xA2 SWAP2 SWAP1 PUSH2 0x256 JUMP JUMPDEST PUSH1 0x40 MLOAD DUP1 SWAP2 SUB SWAP1 RETURN JUMPDEST PUSH2 0xB3 PUSH2 0x190 JUMP JUMPDEST PUSH1 0x40 MLOAD PUSH2 0xC0 SWAP2 SWAP1 PUSH2 0x290 JUMP JUMPDEST PUSH1 0x40 MLOAD DUP1 SWAP2 SUB SWAP1 RETURN JUMPDEST PUSH2 0xD1 PUSH2 0x1A4 JUMP JUMPDEST PUSH1 0x40 MLOAD PUSH2 0xDE SWAP2 SWAP1 PUSH2 0x2E6 JUMP JUMPDEST PUSH1 0x40 MLOAD DUP1 SWAP2 SUB SWAP1 RETURN JUMPDEST PUSH2 0xEF PUSH2 0x1B7 JUMP JUMPDEST PUSH1 0x40 MLOAD PUSH2 0xFC SWAP2 SWAP1 PUSH2 0x31E JUMP JUMPDEST PUSH1 0x40 MLOAD DUP1 SWAP2 SUB SWAP1 RETURN JUMPDEST PUSH2 0x10D PUSH2 0x1CB JUMP JUMPDEST PUSH1 0x40 MLOAD PUSH2 0x11A SWAP2 SWAP1 PUSH2 0x256 JUMP JUMPDEST PUSH1 0x40 MLOAD DUP1 SWAP2 SUB SWAP1 RETURN JUMPDEST PUSH2 0x12B PUSH2 0x1DE JUMP JUMPDEST PUSH1 0x40 MLOAD PUSH2 0x138 SWAP2 SWAP1 PUSH2 0x2E6 JUMP JUMPDEST PUSH1 0x40 MLOAD DUP1 SWAP2 SUB SWAP1 RETURN JUMPDEST PUSH2 0x149 PUSH2 0x1F1 JUMP JUMPDEST PUSH1 0x40 MLOAD PUSH2 0x156 SWAP2 SWAP1 PUSH2 0x31E JUMP JUMPDEST PUSH1 0x40 MLOAD DUP1 SWAP2 SUB SWAP1 RETURN JUMPDEST PUSH2 0x167 PUSH2 0x205 JUMP JUMPDEST PUSH1 0x40 MLOAD PUSH2 0x174 SWAP2 SWAP1 PUSH2 0x290 JUMP JUMPDEST PUSH1 0x40 MLOAD DUP1 SWAP2 SUB SWAP1 RETURN JUMPDEST PUSH1 0x0 PUSH1 0x12 SWAP1 SLOAD SWAP1 PUSH2 0x100 EXP SWAP1 DIV PUSH1 0xF0 SHL DUP2 JUMP JUMPDEST PUSH1 0x0 DUP1 SLOAD SWAP1 PUSH2 0x100 EXP SWAP1 DIV PUSH4 0xFFFFFFFF AND DUP2 JUMP JUMPDEST PUSH1 0x0 PUSH1 0x14 SWAP1 SLOAD SWAP1 PUSH2 0x100 EXP SWAP1 DIV PUSH1 0xE0 SHL DUP2 JUMP JUMPDEST PUSH1 0x0 PUSH1 0x6 SWAP1 SLOAD SWAP1 PUSH2 0x100 EXP SWAP1 DIV PUSH2 0xFFFF AND DUP2 JUMP JUMPDEST PUSH1 0x0 PUSH1 0x10 SWAP1 SLOAD SWAP1 PUSH2 0x100 EXP SWAP1 DIV PUSH1 0xF0 SHL DUP2 JUMP JUMPDEST PUSH1 0x0 PUSH1 0xC SWAP1 SLOAD SWAP1 PUSH2 0x100 EXP SWAP1 DIV PUSH1 0xE0 SHL DUP2 JUMP JUMPDEST PUSH1 0x0 PUSH1 0x4 SWAP1 SLOAD SWAP1 PUSH2 0x100 EXP SWAP1 DIV PUSH2 0xFFFF AND DUP2 JUMP JUMPDEST PUSH1 0x0 PUSH1 0x8 SWAP1 SLOAD SWAP1 PUSH2 0x100 EXP SWAP1 DIV PUSH4 0xFFFFFFFF AND DUP2 JUMP JUMPDEST PUSH1 0x0 PUSH32 0xFFFF000000000000000000000000000000000000000000000000000000000000 DUP3 AND SWAP1 POP SWAP2 SWAP1 POP JUMP JUMPDEST PUSH2 0x250 DUP2 PUSH2 0x21B JUMP JUMPDEST DUP3 MSTORE POP POP JUMP JUMPDEST PUSH1 0x0 PUSH1 0x20 DUP3 ADD SWAP1 POP PUSH2 0x26B PUSH1 0x0 DUP4 ADD DUP5 PUSH2 0x247 JUMP JUMPDEST SWAP3 SWAP2 POP POP JUMP JUMPDEST PUSH1 0x0 PUSH4 0xFFFFFFFF DUP3 AND SWAP1 POP SWAP2 SWAP1 POP JUMP JUMPDEST PUSH2 0x28A DUP2 PUSH2 0x271 JUMP JUMPDEST DUP3 MSTORE POP POP JUMP JUMPDEST PUSH1 0x0 PUSH1 0x20 DUP3 ADD SWAP1 POP PUSH2 0x2A5 PUSH1 0x0 DUP4 ADD DUP5 PUSH2 0x281 JUMP JUMPDEST SWAP3 SWAP2 POP POP JUMP JUMPDEST PUSH1 0x0 PUSH32 0xFFFFFFFF00000000000000000000000000000000000000000000000000000000 DUP3 AND SWAP1 POP SWAP2 SWAP1 POP JUMP JUMPDEST PUSH2 0x2E0 DUP2 PUSH2 0x2AB JUMP JUMPDEST DUP3 MSTORE POP POP JUMP JUMPDEST PUSH1 0x0 PUSH1 0x20 DUP3 ADD SWAP1 POP PUSH2 0x2FB PUSH1 0x0 DUP4 ADD DUP5 PUSH2 0x2D7 JUMP JUMPDEST SWAP3 SWAP2 POP POP JUMP JUMPDEST PUSH1 0x0 PUSH2 0xFFFF DUP3 AND SWAP1 POP SWAP2 SWAP1 POP JUMP JUMPDEST PUSH2 0x318 DUP2 PUSH2 0x301 JUMP JUMPDEST DUP3 MSTORE POP POP JUMP JUMPDEST PUSH1 0x0 PUSH1 0x20 DUP3 ADD SWAP1 POP PUSH2 0x333 PUSH1 0x0 DUP4 ADD DUP5 PUSH2 0x30F JUMP JUMPDEST SWAP3 SWAP2 POP POP JUMP INVALID LOG2 PUSH5 0x6970667358 0x22 SLT KECCAK256 0xB4 0x4D 0xD4 RETURN PUSH7 0x65E459079A1BE8 0xB2 0xE5 0xC3 0x26 0xAB 0xC0 COINBASE LOG0 0x2D DUP8 PUSH7 0xA6EDDABEFFF183 0xF7 SWAP6 PUSH5 0x736F6C6343 STOP ADDMOD GT STOP CALLER "
				},
				"gasEstimates": {
					"creation": {
						"codeDepositCost": "175800",
						"executionCost": "333748",
						"totalCost": "509548"
					},
					"external": {
						"a16()": "2565",
						"a32()": "2491",
						"b16()": "2588",
						"b32()": "2587",
						"bs2()": "2521",
						"bs4()": "2543",
						"bz2()": "2522",
						"bz4()": "2566"
					}
				},
				"methodIdentifiers": {
					"a16()": "f1d744db",
					"a32()": "520ed411",
					"b16()": "914a880d",
					"b32()": "f8aab238",
					"bs2()": "af9abe42",
					"bs4()": "d698f5f5",
					"bz2()": "12002f71",
					"bz4()": "84640813"
				}
			},
			"storageLayout": {
				"storage": [
					{
						"astId": 4,
						"contract": "基本数据类型间的显示转换.sol:HelloWorld",
						"label": "a32",
						"offset": 0,
						"slot": "0",
						"type": "t_uint32"
					},
					{
						"astId": 10,
						"contract": "基本数据类型间的显示转换.sol:HelloWorld",
						"label": "a16",
						"offset": 4,
						"slot": "0",
						"type": "t_uint16"
					},
					{
						"astId": 13,
						"contract": "基本数据类型间的显示转换.sol:HelloWorld",
						"label": "b16",
						"offset": 6,
						"slot": "0",
						"type": "t_uint16"
					},
					{
						"astId": 16,
						"contract": "基本数据类型间的显示转换.sol:HelloWorld",
						"label": "b32",
						"offset": 8,
						"slot": "0",
						"type": "t_uint32"
					},
					{
						"astId": 19,
						"contract": "基本数据类型间的显示转换.sol:HelloWorld",
						"label": "bs4",
						"offset": 12,
						"slot": "0",
						"type": "t_bytes4"
					},
					{
						"astId": 25,
						"contract": "基本数据类型间的显示转换.sol:HelloWorld",
						"label": "bs2",
						"offset": 16,
						"slot": "0",
						"type": "t_bytes2"
					},
					{
						"astId": 28,
						"contract": "基本数据类型间的显示转换.sol:HelloWorld",
						"label": "bz2",
						"offset": 18,
						"slot": "0",
						"type": "t_bytes2"
					},
					{
						"astId": 31,
						"contract": "基本数据类型间的显示转换.sol:HelloWorld",
						"label": "bz4",
						"offset": 20,
						"slot": "0",
						"type": "t_bytes4"
					},
					{
						"astId": 34,
						"contract": "基本数据类型间的显示转换.sol:HelloWorld",
						"label": "a",
						"offset": 24,
						"slot": "0",
						"type": "t_bytes2"
					},
					{
						"astId": 40,
						"contract": "基本数据类型间的显示转换.sol:HelloWorld",
						"label": "b",
						"offset": 26,
						"slot": "0",
						"type": "t_uint32"
					},
					{
						"astId": 49,
						"contract": "基本数据类型间的显示转换.sol:HelloWorld",
						"label": "c",
						"offset": 0,
						"slot": "1",
						"type": "t_uint32"
					},
					{
						"astId": 58,
						"contract": "基本数据类型间的显示转换.sol:HelloWorld",
						"label": "d",
						"offset": 4,
						"slot": "1",
						"type": "t_uint8"
					},
					{
						"astId": 67,
						"contract": "基本数据类型间的显示转换.sol:HelloWorld",
						"label": "e",
						"offset": 5,
						"slot": "1",
						"type": "t_uint8"
					}
				],
				"types": {
					"t_bytes2": {
						"encoding": "inplace",
						"label": "bytes2",
						"numberOfBytes": "2"
					},
					"t_bytes4": {
						"encoding": "inplace",
						"label": "bytes4",
						"numberOfBytes": "4"
					},
					"t_uint16": {
						"encoding": "inplace",
						"label": "uint16",
						"numberOfBytes": "2"
					},
					"t_uint32": {
						"encoding": "inplace",
						"label": "uint32",
						"numberOfBytes": "4"
					},
					"t_uint8": {
						"encoding": "inplace",
						"label": "uint8",
						"numberOfBytes": "1"
					}
				}
			},
			"userdoc": {
				"kind": "user",
				"methods": {},
				"version": 1
			}
		}
	}
}