{
	"_15_数据类型_引用类型_数组字面量.sol": {
		"HelloWorld": {
			"abi": [
				{
					"inputs": [],
					"name": "test2",
					"outputs": [
						{
							"internalType": "uint8[3]",
							"name": "",
							"type": "uint8[3]"
						},
						{
							"internalType": "bytes1[3]",
							"name": "",
							"type": "bytes1[3]"
						}
					],
					"stateMutability": "pure",
					"type": "function"
				}
			],
			"devdoc": {
				"kind": "dev",
				"methods": {},
				"version": 1
			},
			"evm": {
				"assembly": "    /* \"_15_\\xe6\\x95\\xb0\\xe6\\x8d\\xae\\xe7\\xb1\\xbb\\xe5\\x9e\\x8b_\\xe5\\xbc\\x95\\xe7\\x94\\xa8\\xe7\\xb1\\xbb\\xe5\\x9e\\x8b_\\xe6\\x95\\xb0\\xe7\\xbb\\x84\\xe5\\xad\\x97\\xe9\\x9d\\xa2\\xe9\\x87\\x8f.sol\":66:1265  contract HelloWorld {... */\n  mstore(0x40, 0x80)\n  callvalue\n  dup1\n  iszero\n  tag_1\n  jumpi\n  0x00\n  dup1\n  revert\ntag_1:\n  pop\n  dataSize(sub_0)\n  dup1\n  dataOffset(sub_0)\n  0x00\n  codecopy\n  0x00\n  return\nstop\n\nsub_0: assembly {\n        /* \"_15_\\xe6\\x95\\xb0\\xe6\\x8d\\xae\\xe7\\xb1\\xbb\\xe5\\x9e\\x8b_\\xe5\\xbc\\x95\\xe7\\x94\\xa8\\xe7\\xb1\\xbb\\xe5\\x9e\\x8b_\\xe6\\x95\\xb0\\xe7\\xbb\\x84\\xe5\\xad\\x97\\xe9\\x9d\\xa2\\xe9\\x87\\x8f.sol\":66:1265  contract HelloWorld {... */\n      mstore(0x40, 0x80)\n      callvalue\n      dup1\n      iszero\n      tag_1\n      jumpi\n      0x00\n      dup1\n      revert\n    tag_1:\n      pop\n      jumpi(tag_2, lt(calldatasize, 0x04))\n      shr(0xe0, calldataload(0x00))\n      dup1\n      0x66e41cb7\n      eq\n      tag_3\n      jumpi\n    tag_2:\n      0x00\n      dup1\n      revert\n        /* \"_15_\\xe6\\x95\\xb0\\xe6\\x8d\\xae\\xe7\\xb1\\xbb\\xe5\\x9e\\x8b_\\xe5\\xbc\\x95\\xe7\\x94\\xa8\\xe7\\xb1\\xbb\\xe5\\x9e\\x8b_\\xe6\\x95\\xb0\\xe7\\xbb\\x84\\xe5\\xad\\x97\\xe9\\x9d\\xa2\\xe9\\x87\\x8f.sol\":117:1262  function test2() public pure returns (uint8[3] memory, bytes1[3] memory) {... */\n    tag_3:\n      tag_4\n      tag_5\n      jump\t// in\n    tag_4:\n      mload(0x40)\n      tag_6\n      swap3\n      swap2\n      swap1\n      tag_7\n      jump\t// in\n    tag_6:\n      mload(0x40)\n      dup1\n      swap2\n      sub\n      swap1\n      return\n    tag_5:\n        /* \"_15_\\xe6\\x95\\xb0\\xe6\\x8d\\xae\\xe7\\xb1\\xbb\\xe5\\x9e\\x8b_\\xe5\\xbc\\x95\\xe7\\x94\\xa8\\xe7\\xb1\\xbb\\xe5\\x9e\\x8b_\\xe6\\x95\\xb0\\xe7\\xbb\\x84\\xe5\\xad\\x97\\xe9\\x9d\\xa2\\xe9\\x87\\x8f.sol\":155:170  uint8[3] memory */\n      tag_8\n      tag_9\n      jump\t// in\n    tag_8:\n        /* \"_15_\\xe6\\x95\\xb0\\xe6\\x8d\\xae\\xe7\\xb1\\xbb\\xe5\\x9e\\x8b_\\xe5\\xbc\\x95\\xe7\\x94\\xa8\\xe7\\xb1\\xbb\\xe5\\x9e\\x8b_\\xe6\\x95\\xb0\\xe7\\xbb\\x84\\xe5\\xad\\x97\\xe9\\x9d\\xa2\\xe9\\x87\\x8f.sol\":172:188  bytes1[3] memory */\n      tag_10\n      tag_11\n      jump\t// in\n    tag_10:\n        /* \"_15_\\xe6\\x95\\xb0\\xe6\\x8d\\xae\\xe7\\xb1\\xbb\\xe5\\x9e\\x8b_\\xe5\\xbc\\x95\\xe7\\x94\\xa8\\xe7\\xb1\\xbb\\xe5\\x9e\\x8b_\\xe6\\x95\\xb0\\xe7\\xbb\\x84\\xe5\\xad\\x97\\xe9\\x9d\\xa2\\xe9\\x87\\x8f.sol\":895:916  uint8[3] memory array */\n      0x00\n        /* \"_15_\\xe6\\x95\\xb0\\xe6\\x8d\\xae\\xe7\\xb1\\xbb\\xe5\\x9e\\x8b_\\xe5\\xbc\\x95\\xe7\\x94\\xa8\\xe7\\xb1\\xbb\\xe5\\x9e\\x8b_\\xe6\\x95\\xb0\\xe7\\xbb\\x84\\xe5\\xad\\x97\\xe9\\x9d\\xa2\\xe9\\x87\\x8f.sol\":895:928  uint8[3] memory array = [1, 2, 3] */\n      mload(0x40)\n      dup1\n      0x60\n      add\n      0x40\n      mstore\n      dup1\n        /* \"_15_\\xe6\\x95\\xb0\\xe6\\x8d\\xae\\xe7\\xb1\\xbb\\xe5\\x9e\\x8b_\\xe5\\xbc\\x95\\xe7\\x94\\xa8\\xe7\\xb1\\xbb\\xe5\\x9e\\x8b_\\xe6\\x95\\xb0\\xe7\\xbb\\x84\\xe5\\xad\\x97\\xe9\\x9d\\xa2\\xe9\\x87\\x8f.sol\":920:921  1 */\n      0x01\n        /* \"_15_\\xe6\\x95\\xb0\\xe6\\x8d\\xae\\xe7\\xb1\\xbb\\xe5\\x9e\\x8b_\\xe5\\xbc\\x95\\xe7\\x94\\xa8\\xe7\\xb1\\xbb\\xe5\\x9e\\x8b_\\xe6\\x95\\xb0\\xe7\\xbb\\x84\\xe5\\xad\\x97\\xe9\\x9d\\xa2\\xe9\\x87\\x8f.sol\":895:928  uint8[3] memory array = [1, 2, 3] */\n      0xff\n      and\n      dup2\n      mstore\n      0x20\n      add\n        /* \"_15_\\xe6\\x95\\xb0\\xe6\\x8d\\xae\\xe7\\xb1\\xbb\\xe5\\x9e\\x8b_\\xe5\\xbc\\x95\\xe7\\x94\\xa8\\xe7\\xb1\\xbb\\xe5\\x9e\\x8b_\\xe6\\x95\\xb0\\xe7\\xbb\\x84\\xe5\\xad\\x97\\xe9\\x9d\\xa2\\xe9\\x87\\x8f.sol\":923:924  2 */\n      0x02\n        /* \"_15_\\xe6\\x95\\xb0\\xe6\\x8d\\xae\\xe7\\xb1\\xbb\\xe5\\x9e\\x8b_\\xe5\\xbc\\x95\\xe7\\x94\\xa8\\xe7\\xb1\\xbb\\xe5\\x9e\\x8b_\\xe6\\x95\\xb0\\xe7\\xbb\\x84\\xe5\\xad\\x97\\xe9\\x9d\\xa2\\xe9\\x87\\x8f.sol\":895:928  uint8[3] memory array = [1, 2, 3] */\n      0xff\n      and\n      dup2\n      mstore\n      0x20\n      add\n        /* \"_15_\\xe6\\x95\\xb0\\xe6\\x8d\\xae\\xe7\\xb1\\xbb\\xe5\\x9e\\x8b_\\xe5\\xbc\\x95\\xe7\\x94\\xa8\\xe7\\xb1\\xbb\\xe5\\x9e\\x8b_\\xe6\\x95\\xb0\\xe7\\xbb\\x84\\xe5\\xad\\x97\\xe9\\x9d\\xa2\\xe9\\x87\\x8f.sol\":926:927  3 */\n      0x03\n        /* \"_15_\\xe6\\x95\\xb0\\xe6\\x8d\\xae\\xe7\\xb1\\xbb\\xe5\\x9e\\x8b_\\xe5\\xbc\\x95\\xe7\\x94\\xa8\\xe7\\xb1\\xbb\\xe5\\x9e\\x8b_\\xe6\\x95\\xb0\\xe7\\xbb\\x84\\xe5\\xad\\x97\\xe9\\x9d\\xa2\\xe9\\x87\\x8f.sol\":895:928  uint8[3] memory array = [1, 2, 3] */\n      0xff\n      and\n      dup2\n      mstore\n      pop\n      swap1\n      pop\n        /* \"_15_\\xe6\\x95\\xb0\\xe6\\x8d\\xae\\xe7\\xb1\\xbb\\xe5\\x9e\\x8b_\\xe5\\xbc\\x95\\xe7\\x94\\xa8\\xe7\\xb1\\xbb\\xe5\\x9e\\x8b_\\xe6\\x95\\xb0\\xe7\\xbb\\x84\\xe5\\xad\\x97\\xe9\\x9d\\xa2\\xe9\\x87\\x8f.sol\":1167:1190  bytes1[3] memory array2 */\n      0x00\n        /* \"_15_\\xe6\\x95\\xb0\\xe6\\x8d\\xae\\xe7\\xb1\\xbb\\xe5\\x9e\\x8b_\\xe5\\xbc\\x95\\xe7\\x94\\xa8\\xe7\\xb1\\xbb\\xe5\\x9e\\x8b_\\xe6\\x95\\xb0\\xe7\\xbb\\x84\\xe5\\xad\\x97\\xe9\\x9d\\xa2\\xe9\\x87\\x8f.sol\":1167:1219  bytes1[3] memory array2 = [bytes1(0xff), 0xaa, 0xbb] */\n      mload(0x40)\n      dup1\n      0x60\n      add\n      0x40\n      mstore\n      dup1\n        /* \"_15_\\xe6\\x95\\xb0\\xe6\\x8d\\xae\\xe7\\xb1\\xbb\\xe5\\x9e\\x8b_\\xe5\\xbc\\x95\\xe7\\x94\\xa8\\xe7\\xb1\\xbb\\xe5\\x9e\\x8b_\\xe6\\x95\\xb0\\xe7\\xbb\\x84\\xe5\\xad\\x97\\xe9\\x9d\\xa2\\xe9\\x87\\x8f.sol\":1201:1205  0xff */\n      0xff\n        /* \"_15_\\xe6\\x95\\xb0\\xe6\\x8d\\xae\\xe7\\xb1\\xbb\\xe5\\x9e\\x8b_\\xe5\\xbc\\x95\\xe7\\x94\\xa8\\xe7\\xb1\\xbb\\xe5\\x9e\\x8b_\\xe6\\x95\\xb0\\xe7\\xbb\\x84\\xe5\\xad\\x97\\xe9\\x9d\\xa2\\xe9\\x87\\x8f.sol\":1194:1206  bytes1(0xff) */\n      0xf8\n      shl\n        /* \"_15_\\xe6\\x95\\xb0\\xe6\\x8d\\xae\\xe7\\xb1\\xbb\\xe5\\x9e\\x8b_\\xe5\\xbc\\x95\\xe7\\x94\\xa8\\xe7\\xb1\\xbb\\xe5\\x9e\\x8b_\\xe6\\x95\\xb0\\xe7\\xbb\\x84\\xe5\\xad\\x97\\xe9\\x9d\\xa2\\xe9\\x87\\x8f.sol\":1167:1219  bytes1[3] memory array2 = [bytes1(0xff), 0xaa, 0xbb] */\n      not(0xffffffffffffffffffffffffffffffffffffffffffffffffffffffffffffff)\n      and\n      not(0xffffffffffffffffffffffffffffffffffffffffffffffffffffffffffffff)\n      and\n      dup2\n      mstore\n      0x20\n      add\n        /* \"_15_\\xe6\\x95\\xb0\\xe6\\x8d\\xae\\xe7\\xb1\\xbb\\xe5\\x9e\\x8b_\\xe5\\xbc\\x95\\xe7\\x94\\xa8\\xe7\\xb1\\xbb\\xe5\\x9e\\x8b_\\xe6\\x95\\xb0\\xe7\\xbb\\x84\\xe5\\xad\\x97\\xe9\\x9d\\xa2\\xe9\\x87\\x8f.sol\":1208:1212  0xaa */\n      0xaa\n        /* \"_15_\\xe6\\x95\\xb0\\xe6\\x8d\\xae\\xe7\\xb1\\xbb\\xe5\\x9e\\x8b_\\xe5\\xbc\\x95\\xe7\\x94\\xa8\\xe7\\xb1\\xbb\\xe5\\x9e\\x8b_\\xe6\\x95\\xb0\\xe7\\xbb\\x84\\xe5\\xad\\x97\\xe9\\x9d\\xa2\\xe9\\x87\\x8f.sol\":1167:1219  bytes1[3] memory array2 = [bytes1(0xff), 0xaa, 0xbb] */\n      0xf8\n      shl\n      not(0xffffffffffffffffffffffffffffffffffffffffffffffffffffffffffffff)\n      and\n      dup2\n      mstore\n      0x20\n      add\n        /* \"_15_\\xe6\\x95\\xb0\\xe6\\x8d\\xae\\xe7\\xb1\\xbb\\xe5\\x9e\\x8b_\\xe5\\xbc\\x95\\xe7\\x94\\xa8\\xe7\\xb1\\xbb\\xe5\\x9e\\x8b_\\xe6\\x95\\xb0\\xe7\\xbb\\x84\\xe5\\xad\\x97\\xe9\\x9d\\xa2\\xe9\\x87\\x8f.sol\":1214:1218  0xbb */\n      0xbb\n        /* \"_15_\\xe6\\x95\\xb0\\xe6\\x8d\\xae\\xe7\\xb1\\xbb\\xe5\\x9e\\x8b_\\xe5\\xbc\\x95\\xe7\\x94\\xa8\\xe7\\xb1\\xbb\\xe5\\x9e\\x8b_\\xe6\\x95\\xb0\\xe7\\xbb\\x84\\xe5\\xad\\x97\\xe9\\x9d\\xa2\\xe9\\x87\\x8f.sol\":1167:1219  bytes1[3] memory array2 = [bytes1(0xff), 0xaa, 0xbb] */\n      0xf8\n      shl\n      not(0xffffffffffffffffffffffffffffffffffffffffffffffffffffffffffffff)\n      and\n      dup2\n      mstore\n      pop\n      swap1\n      pop\n        /* \"_15_\\xe6\\x95\\xb0\\xe6\\x8d\\xae\\xe7\\xb1\\xbb\\xe5\\x9e\\x8b_\\xe5\\xbc\\x95\\xe7\\x94\\xa8\\xe7\\xb1\\xbb\\xe5\\x9e\\x8b_\\xe6\\x95\\xb0\\xe7\\xbb\\x84\\xe5\\xad\\x97\\xe9\\x9d\\xa2\\xe9\\x87\\x8f.sol\":1240:1245  array */\n      dup2\n        /* \"_15_\\xe6\\x95\\xb0\\xe6\\x8d\\xae\\xe7\\xb1\\xbb\\xe5\\x9e\\x8b_\\xe5\\xbc\\x95\\xe7\\x94\\xa8\\xe7\\xb1\\xbb\\xe5\\x9e\\x8b_\\xe6\\x95\\xb0\\xe7\\xbb\\x84\\xe5\\xad\\x97\\xe9\\x9d\\xa2\\xe9\\x87\\x8f.sol\":1247:1253  array2 */\n      dup2\n        /* \"_15_\\xe6\\x95\\xb0\\xe6\\x8d\\xae\\xe7\\xb1\\xbb\\xe5\\x9e\\x8b_\\xe5\\xbc\\x95\\xe7\\x94\\xa8\\xe7\\xb1\\xbb\\xe5\\x9e\\x8b_\\xe6\\x95\\xb0\\xe7\\xbb\\x84\\xe5\\xad\\x97\\xe9\\x9d\\xa2\\xe9\\x87\\x8f.sol\":1232:1254  return (array, array2) */\n      swap4\n      pop\n      swap4\n      pop\n      pop\n      pop\n        /* \"_15_\\xe6\\x95\\xb0\\xe6\\x8d\\xae\\xe7\\xb1\\xbb\\xe5\\x9e\\x8b_\\xe5\\xbc\\x95\\xe7\\x94\\xa8\\xe7\\xb1\\xbb\\xe5\\x9e\\x8b_\\xe6\\x95\\xb0\\xe7\\xbb\\x84\\xe5\\xad\\x97\\xe9\\x9d\\xa2\\xe9\\x87\\x8f.sol\":117:1262  function test2() public pure returns (uint8[3] memory, bytes1[3] memory) {... */\n      swap1\n      swap2\n      jump\t// out\n    tag_9:\n      mload(0x40)\n      dup1\n      0x60\n      add\n      0x40\n      mstore\n      dup1\n      0x03\n      swap1\n      0x20\n      dup3\n      mul\n      dup1\n      calldatasize\n      dup4\n      calldatacopy\n      dup1\n      dup3\n      add\n      swap2\n      pop\n      pop\n      swap1\n      pop\n      pop\n      swap1\n      jump\t// out\n    tag_11:\n      mload(0x40)\n      dup1\n      0x60\n      add\n      0x40\n      mstore\n      dup1\n      0x03\n      swap1\n      0x20\n      dup3\n      mul\n      dup1\n      calldatasize\n      dup4\n      calldatacopy\n      dup1\n      dup3\n      add\n      swap2\n      pop\n      pop\n      swap1\n      pop\n      pop\n      swap1\n      jump\t// out\n        /* \"#utility.yul\":7:109   */\n    tag_13:\n        /* \"#utility.yul\":70:76   */\n      0x00\n        /* \"#utility.yul\":98:102   */\n      0x03\n        /* \"#utility.yul\":88:102   */\n      swap1\n      pop\n        /* \"#utility.yul\":7:109   */\n      swap2\n      swap1\n      pop\n      jump\t// out\n        /* \"#utility.yul\":115:256   */\n    tag_14:\n        /* \"#utility.yul\":210:221   */\n      0x00\n        /* \"#utility.yul\":247:250   */\n      dup2\n        /* \"#utility.yul\":232:250   */\n      swap1\n      pop\n        /* \"#utility.yul\":115:256   */\n      swap3\n      swap2\n      pop\n      pop\n      jump\t// out\n        /* \"#utility.yul\":262:358   */\n    tag_15:\n        /* \"#utility.yul\":325:329   */\n      0x00\n        /* \"#utility.yul\":348:351   */\n      dup2\n        /* \"#utility.yul\":340:351   */\n      swap1\n      pop\n        /* \"#utility.yul\":262:358   */\n      swap2\n      swap1\n      pop\n      jump\t// out\n        /* \"#utility.yul\":364:450   */\n    tag_16:\n        /* \"#utility.yul\":399:406   */\n      0x00\n        /* \"#utility.yul\":439:443   */\n      0xff\n        /* \"#utility.yul\":432:437   */\n      dup3\n        /* \"#utility.yul\":428:444   */\n      and\n        /* \"#utility.yul\":417:444   */\n      swap1\n      pop\n        /* \"#utility.yul\":364:450   */\n      swap2\n      swap1\n      pop\n      jump\t// out\n        /* \"#utility.yul\":456:558   */\n    tag_17:\n        /* \"#utility.yul\":529:551   */\n      tag_35\n        /* \"#utility.yul\":545:550   */\n      dup2\n        /* \"#utility.yul\":529:551   */\n      tag_16\n      jump\t// in\n    tag_35:\n        /* \"#utility.yul\":524:527   */\n      dup3\n        /* \"#utility.yul\":517:552   */\n      mstore\n        /* \"#utility.yul\":456:558   */\n      pop\n      pop\n      jump\t// out\n        /* \"#utility.yul\":564:735   */\n    tag_18:\n        /* \"#utility.yul\":629:639   */\n      0x00\n        /* \"#utility.yul\":650:692   */\n      tag_37\n        /* \"#utility.yul\":688:691   */\n      dup4\n        /* \"#utility.yul\":680:686   */\n      dup4\n        /* \"#utility.yul\":650:692   */\n      tag_17\n      jump\t// in\n    tag_37:\n        /* \"#utility.yul\":724:728   */\n      0x20\n        /* \"#utility.yul\":719:722   */\n      dup4\n        /* \"#utility.yul\":715:729   */\n      add\n        /* \"#utility.yul\":701:729   */\n      swap1\n      pop\n        /* \"#utility.yul\":564:735   */\n      swap3\n      swap2\n      pop\n      pop\n      jump\t// out\n        /* \"#utility.yul\":741:850   */\n    tag_19:\n        /* \"#utility.yul\":807:811   */\n      0x00\n        /* \"#utility.yul\":839:843   */\n      0x20\n        /* \"#utility.yul\":834:837   */\n      dup3\n        /* \"#utility.yul\":830:844   */\n      add\n        /* \"#utility.yul\":822:844   */\n      swap1\n      pop\n        /* \"#utility.yul\":741:850   */\n      swap2\n      swap1\n      pop\n      jump\t// out\n        /* \"#utility.yul\":884:1562   */\n    tag_20:\n        /* \"#utility.yul\":1016:1066   */\n      tag_40\n        /* \"#utility.yul\":1060:1065   */\n      dup2\n        /* \"#utility.yul\":1016:1066   */\n      tag_13\n      jump\t// in\n    tag_40:\n        /* \"#utility.yul\":1082:1164   */\n      tag_41\n        /* \"#utility.yul\":1157:1163   */\n      dup2\n        /* \"#utility.yul\":1152:1155   */\n      dup5\n        /* \"#utility.yul\":1082:1164   */\n      tag_14\n      jump\t// in\n    tag_41:\n        /* \"#utility.yul\":1075:1164   */\n      swap3\n      pop\n        /* \"#utility.yul\":1188:1240   */\n      tag_42\n        /* \"#utility.yul\":1234:1239   */\n      dup3\n        /* \"#utility.yul\":1188:1240   */\n      tag_15\n      jump\t// in\n    tag_42:\n        /* \"#utility.yul\":1263:1270   */\n      dup1\n        /* \"#utility.yul\":1294:1295   */\n      0x00\n        /* \"#utility.yul\":1279:1555   */\n    tag_43:\n        /* \"#utility.yul\":1304:1310   */\n      dup4\n        /* \"#utility.yul\":1301:1302   */\n      dup2\n        /* \"#utility.yul\":1298:1311   */\n      lt\n        /* \"#utility.yul\":1279:1555   */\n      iszero\n      tag_45\n      jumpi\n        /* \"#utility.yul\":1380:1386   */\n      dup2\n        /* \"#utility.yul\":1374:1387   */\n      mload\n        /* \"#utility.yul\":1407:1466   */\n      tag_46\n        /* \"#utility.yul\":1462:1465   */\n      dup8\n        /* \"#utility.yul\":1447:1460   */\n      dup3\n        /* \"#utility.yul\":1407:1466   */\n      tag_18\n      jump\t// in\n    tag_46:\n        /* \"#utility.yul\":1400:1466   */\n      swap7\n      pop\n        /* \"#utility.yul\":1489:1545   */\n      tag_47\n        /* \"#utility.yul\":1538:1544   */\n      dup4\n        /* \"#utility.yul\":1489:1545   */\n      tag_19\n      jump\t// in\n    tag_47:\n        /* \"#utility.yul\":1479:1545   */\n      swap3\n      pop\n        /* \"#utility.yul\":1339:1555   */\n      pop\n        /* \"#utility.yul\":1326:1327   */\n      0x01\n        /* \"#utility.yul\":1323:1324   */\n      dup2\n        /* \"#utility.yul\":1319:1328   */\n      add\n        /* \"#utility.yul\":1314:1328   */\n      swap1\n      pop\n        /* \"#utility.yul\":1279:1555   */\n      jump(tag_43)\n    tag_45:\n        /* \"#utility.yul\":1283:1297   */\n      pop\n        /* \"#utility.yul\":992:1562   */\n      pop\n      pop\n      pop\n        /* \"#utility.yul\":884:1562   */\n      pop\n      pop\n      jump\t// out\n        /* \"#utility.yul\":1568:1671   */\n    tag_21:\n        /* \"#utility.yul\":1632:1638   */\n      0x00\n        /* \"#utility.yul\":1660:1664   */\n      0x03\n        /* \"#utility.yul\":1650:1664   */\n      swap1\n      pop\n        /* \"#utility.yul\":1568:1671   */\n      swap2\n      swap1\n      pop\n      jump\t// out\n        /* \"#utility.yul\":1677:1819   */\n    tag_22:\n        /* \"#utility.yul\":1773:1784   */\n      0x00\n        /* \"#utility.yul\":1810:1813   */\n      dup2\n        /* \"#utility.yul\":1795:1813   */\n      swap1\n      pop\n        /* \"#utility.yul\":1677:1819   */\n      swap3\n      swap2\n      pop\n      pop\n      jump\t// out\n        /* \"#utility.yul\":1825:1922   */\n    tag_23:\n        /* \"#utility.yul\":1889:1893   */\n      0x00\n        /* \"#utility.yul\":1912:1915   */\n      dup2\n        /* \"#utility.yul\":1904:1915   */\n      swap1\n      pop\n        /* \"#utility.yul\":1825:1922   */\n      swap2\n      swap1\n      pop\n      jump\t// out\n        /* \"#utility.yul\":1928:2077   */\n    tag_24:\n        /* \"#utility.yul\":1964:1971   */\n      0x00\n        /* \"#utility.yul\":2004:2070   */\n      0xff00000000000000000000000000000000000000000000000000000000000000\n        /* \"#utility.yul\":1997:2002   */\n      dup3\n        /* \"#utility.yul\":1993:2071   */\n      and\n        /* \"#utility.yul\":1982:2071   */\n      swap1\n      pop\n        /* \"#utility.yul\":1928:2077   */\n      swap2\n      swap1\n      pop\n      jump\t// out\n        /* \"#utility.yul\":2083:2188   */\n    tag_25:\n        /* \"#utility.yul\":2158:2181   */\n      tag_53\n        /* \"#utility.yul\":2175:2180   */\n      dup2\n        /* \"#utility.yul\":2158:2181   */\n      tag_24\n      jump\t// in\n    tag_53:\n        /* \"#utility.yul\":2153:2156   */\n      dup3\n        /* \"#utility.yul\":2146:2182   */\n      mstore\n        /* \"#utility.yul\":2083:2188   */\n      pop\n      pop\n      jump\t// out\n        /* \"#utility.yul\":2194:2369   */\n    tag_26:\n        /* \"#utility.yul\":2261:2271   */\n      0x00\n        /* \"#utility.yul\":2282:2326   */\n      tag_55\n        /* \"#utility.yul\":2322:2325   */\n      dup4\n        /* \"#utility.yul\":2314:2320   */\n      dup4\n        /* \"#utility.yul\":2282:2326   */\n      tag_25\n      jump\t// in\n    tag_55:\n        /* \"#utility.yul\":2358:2362   */\n      0x20\n        /* \"#utility.yul\":2353:2356   */\n      dup4\n        /* \"#utility.yul\":2349:2363   */\n      add\n        /* \"#utility.yul\":2335:2363   */\n      swap1\n      pop\n        /* \"#utility.yul\":2194:2369   */\n      swap3\n      swap2\n      pop\n      pop\n      jump\t// out\n        /* \"#utility.yul\":2375:2485   */\n    tag_27:\n        /* \"#utility.yul\":2442:2446   */\n      0x00\n        /* \"#utility.yul\":2474:2478   */\n      0x20\n        /* \"#utility.yul\":2469:2472   */\n      dup3\n        /* \"#utility.yul\":2465:2479   */\n      add\n        /* \"#utility.yul\":2457:2479   */\n      swap1\n      pop\n        /* \"#utility.yul\":2375:2485   */\n      swap2\n      swap1\n      pop\n      jump\t// out\n        /* \"#utility.yul\":2521:3207   */\n    tag_28:\n        /* \"#utility.yul\":2655:2706   */\n      tag_58\n        /* \"#utility.yul\":2700:2705   */\n      dup2\n        /* \"#utility.yul\":2655:2706   */\n      tag_21\n      jump\t// in\n    tag_58:\n        /* \"#utility.yul\":2722:2805   */\n      tag_59\n        /* \"#utility.yul\":2798:2804   */\n      dup2\n        /* \"#utility.yul\":2793:2796   */\n      dup5\n        /* \"#utility.yul\":2722:2805   */\n      tag_22\n      jump\t// in\n    tag_59:\n        /* \"#utility.yul\":2715:2805   */\n      swap3\n      pop\n        /* \"#utility.yul\":2829:2882   */\n      tag_60\n        /* \"#utility.yul\":2876:2881   */\n      dup3\n        /* \"#utility.yul\":2829:2882   */\n      tag_23\n      jump\t// in\n    tag_60:\n        /* \"#utility.yul\":2905:2912   */\n      dup1\n        /* \"#utility.yul\":2936:2937   */\n      0x00\n        /* \"#utility.yul\":2921:3200   */\n    tag_61:\n        /* \"#utility.yul\":2946:2952   */\n      dup4\n        /* \"#utility.yul\":2943:2944   */\n      dup2\n        /* \"#utility.yul\":2940:2953   */\n      lt\n        /* \"#utility.yul\":2921:3200   */\n      iszero\n      tag_63\n      jumpi\n        /* \"#utility.yul\":3022:3028   */\n      dup2\n        /* \"#utility.yul\":3016:3029   */\n      mload\n        /* \"#utility.yul\":3049:3110   */\n      tag_64\n        /* \"#utility.yul\":3106:3109   */\n      dup8\n        /* \"#utility.yul\":3091:3104   */\n      dup3\n        /* \"#utility.yul\":3049:3110   */\n      tag_26\n      jump\t// in\n    tag_64:\n        /* \"#utility.yul\":3042:3110   */\n      swap7\n      pop\n        /* \"#utility.yul\":3133:3190   */\n      tag_65\n        /* \"#utility.yul\":3183:3189   */\n      dup4\n        /* \"#utility.yul\":3133:3190   */\n      tag_27\n      jump\t// in\n    tag_65:\n        /* \"#utility.yul\":3123:3190   */\n      swap3\n      pop\n        /* \"#utility.yul\":2981:3200   */\n      pop\n        /* \"#utility.yul\":2968:2969   */\n      0x01\n        /* \"#utility.yul\":2965:2966   */\n      dup2\n        /* \"#utility.yul\":2961:2970   */\n      add\n        /* \"#utility.yul\":2956:2970   */\n      swap1\n      pop\n        /* \"#utility.yul\":2921:3200   */\n      jump(tag_61)\n    tag_63:\n        /* \"#utility.yul\":2925:2939   */\n      pop\n        /* \"#utility.yul\":2631:3207   */\n      pop\n      pop\n      pop\n        /* \"#utility.yul\":2521:3207   */\n      pop\n      pop\n      jump\t// out\n        /* \"#utility.yul\":3213:3718   */\n    tag_7:\n        /* \"#utility.yul\":3420:3424   */\n      0x00\n        /* \"#utility.yul\":3458:3461   */\n      0xc0\n        /* \"#utility.yul\":3447:3456   */\n      dup3\n        /* \"#utility.yul\":3443:3462   */\n      add\n        /* \"#utility.yul\":3435:3462   */\n      swap1\n      pop\n        /* \"#utility.yul\":3472:3585   */\n      tag_67\n        /* \"#utility.yul\":3582:3583   */\n      0x00\n        /* \"#utility.yul\":3571:3580   */\n      dup4\n        /* \"#utility.yul\":3567:3584   */\n      add\n        /* \"#utility.yul\":3558:3564   */\n      dup6\n        /* \"#utility.yul\":3472:3585   */\n      tag_20\n      jump\t// in\n    tag_67:\n        /* \"#utility.yul\":3595:3711   */\n      tag_68\n        /* \"#utility.yul\":3707:3709   */\n      0x60\n        /* \"#utility.yul\":3696:3705   */\n      dup4\n        /* \"#utility.yul\":3692:3710   */\n      add\n        /* \"#utility.yul\":3683:3689   */\n      dup5\n        /* \"#utility.yul\":3595:3711   */\n      tag_28\n      jump\t// in\n    tag_68:\n        /* \"#utility.yul\":3213:3718   */\n      swap4\n      swap3\n      pop\n      pop\n      pop\n      jump\t// out\n\n    auxdata: 0xa26469706673582212203d0a975db9d6f86320b163dc42ea2589d134a188e5b535ad7b261d6b6d3b0a5564736f6c63430008110033\n}\n",
				"bytecode": {
					"linkReferences": {},
					"object": "608060405234801561001057600080fd5b5061037b806100206000396000f3fe608060405234801561001057600080fd5b506004361061002b5760003560e01c806366e41cb714610030575b600080fd5b61003861004f565b60405161004692919061031c565b60405180910390f35b610057610149565b61005f61016b565b60006040518060600160405280600160ff168152602001600260ff168152602001600360ff1681525090506000604051806060016040528060ff60f81b7effffffffffffffffffffffffffffffffffffffffffffffffffffffffffffff19167effffffffffffffffffffffffffffffffffffffffffffffffffffffffffffff1916815260200160aa60f81b7effffffffffffffffffffffffffffffffffffffffffffffffffffffffffffff1916815260200160bb60f81b7effffffffffffffffffffffffffffffffffffffffffffffffffffffffffffff1916815250905081819350935050509091565b6040518060600160405280600390602082028036833780820191505090505090565b6040518060600160405280600390602082028036833780820191505090505090565b600060039050919050565b600081905092915050565b6000819050919050565b600060ff82169050919050565b6101c3816101ad565b82525050565b60006101d583836101ba565b60208301905092915050565b6000602082019050919050565b6101f78161018d565b6102018184610198565b925061020c826101a3565b8060005b8381101561023d57815161022487826101c9565b965061022f836101e1565b925050600181019050610210565b505050505050565b600060039050919050565b600081905092915050565b6000819050919050565b60007fff0000000000000000000000000000000000000000000000000000000000000082169050919050565b61029a81610265565b82525050565b60006102ac8383610291565b60208301905092915050565b6000602082019050919050565b6102ce81610245565b6102d88184610250565b92506102e38261025b565b8060005b838110156103145781516102fb87826102a0565b9650610306836102b8565b9250506001810190506102e7565b505050505050565b600060c08201905061033160008301856101ee565b61033e60608301846102c5565b939250505056fea26469706673582212203d0a975db9d6f86320b163dc42ea2589d134a188e5b535ad7b261d6b6d3b0a5564736f6c63430008110033",
					"opcodes": "PUSH1 0x80 PUSH1 0x40 MSTORE CALLVALUE DUP1 ISZERO PUSH2 0x10 JUMPI PUSH1 0x0 DUP1 REVERT JUMPDEST POP PUSH2 0x37B DUP1 PUSH2 0x20 PUSH1 0x0 CODECOPY PUSH1 0x0 RETURN INVALID PUSH1 0x80 PUSH1 0x40 MSTORE CALLVALUE DUP1 ISZERO PUSH2 0x10 JUMPI PUSH1 0x0 DUP1 REVERT JUMPDEST POP PUSH1 0x4 CALLDATASIZE LT PUSH2 0x2B JUMPI PUSH1 0x0 CALLDATALOAD PUSH1 0xE0 SHR DUP1 PUSH4 0x66E41CB7 EQ PUSH2 0x30 JUMPI JUMPDEST PUSH1 0x0 DUP1 REVERT JUMPDEST PUSH2 0x38 PUSH2 0x4F JUMP JUMPDEST PUSH1 0x40 MLOAD PUSH2 0x46 SWAP3 SWAP2 SWAP1 PUSH2 0x31C JUMP JUMPDEST PUSH1 0x40 MLOAD DUP1 SWAP2 SUB SWAP1 RETURN JUMPDEST PUSH2 0x57 PUSH2 0x149 JUMP JUMPDEST PUSH2 0x5F PUSH2 0x16B JUMP JUMPDEST PUSH1 0x0 PUSH1 0x40 MLOAD DUP1 PUSH1 0x60 ADD PUSH1 0x40 MSTORE DUP1 PUSH1 0x1 PUSH1 0xFF AND DUP2 MSTORE PUSH1 0x20 ADD PUSH1 0x2 PUSH1 0xFF AND DUP2 MSTORE PUSH1 0x20 ADD PUSH1 0x3 PUSH1 0xFF AND DUP2 MSTORE POP SWAP1 POP PUSH1 0x0 PUSH1 0x40 MLOAD DUP1 PUSH1 0x60 ADD PUSH1 0x40 MSTORE DUP1 PUSH1 0xFF PUSH1 0xF8 SHL PUSH31 0xFFFFFFFFFFFFFFFFFFFFFFFFFFFFFFFFFFFFFFFFFFFFFFFFFFFFFFFFFFFFFF NOT AND PUSH31 0xFFFFFFFFFFFFFFFFFFFFFFFFFFFFFFFFFFFFFFFFFFFFFFFFFFFFFFFFFFFFFF NOT AND DUP2 MSTORE PUSH1 0x20 ADD PUSH1 0xAA PUSH1 0xF8 SHL PUSH31 0xFFFFFFFFFFFFFFFFFFFFFFFFFFFFFFFFFFFFFFFFFFFFFFFFFFFFFFFFFFFFFF NOT AND DUP2 MSTORE PUSH1 0x20 ADD PUSH1 0xBB PUSH1 0xF8 SHL PUSH31 0xFFFFFFFFFFFFFFFFFFFFFFFFFFFFFFFFFFFFFFFFFFFFFFFFFFFFFFFFFFFFFF NOT AND DUP2 MSTORE POP SWAP1 POP DUP2 DUP2 SWAP4 POP SWAP4 POP POP POP SWAP1 SWAP2 JUMP JUMPDEST PUSH1 0x40 MLOAD DUP1 PUSH1 0x60 ADD PUSH1 0x40 MSTORE DUP1 PUSH1 0x3 SWAP1 PUSH1 0x20 DUP3 MUL DUP1 CALLDATASIZE DUP4 CALLDATACOPY DUP1 DUP3 ADD SWAP2 POP POP SWAP1 POP POP SWAP1 JUMP JUMPDEST PUSH1 0x40 MLOAD DUP1 PUSH1 0x60 ADD PUSH1 0x40 MSTORE DUP1 PUSH1 0x3 SWAP1 PUSH1 0x20 DUP3 MUL DUP1 CALLDATASIZE DUP4 CALLDATACOPY DUP1 DUP3 ADD SWAP2 POP POP SWAP1 POP POP SWAP1 JUMP JUMPDEST PUSH1 0x0 PUSH1 0x3 SWAP1 POP SWAP2 SWAP1 POP JUMP JUMPDEST PUSH1 0x0 DUP2 SWAP1 POP SWAP3 SWAP2 POP POP JUMP JUMPDEST PUSH1 0x0 DUP2 SWAP1 POP SWAP2 SWAP1 POP JUMP JUMPDEST PUSH1 0x0 PUSH1 0xFF DUP3 AND SWAP1 POP SWAP2 SWAP1 POP JUMP JUMPDEST PUSH2 0x1C3 DUP2 PUSH2 0x1AD JUMP JUMPDEST DUP3 MSTORE POP POP JUMP JUMPDEST PUSH1 0x0 PUSH2 0x1D5 DUP4 DUP4 PUSH2 0x1BA JUMP JUMPDEST PUSH1 0x20 DUP4 ADD SWAP1 POP SWAP3 SWAP2 POP POP JUMP JUMPDEST PUSH1 0x0 PUSH1 0x20 DUP3 ADD SWAP1 POP SWAP2 SWAP1 POP JUMP JUMPDEST PUSH2 0x1F7 DUP2 PUSH2 0x18D JUMP JUMPDEST PUSH2 0x201 DUP2 DUP5 PUSH2 0x198 JUMP JUMPDEST SWAP3 POP PUSH2 0x20C DUP3 PUSH2 0x1A3 JUMP JUMPDEST DUP1 PUSH1 0x0 JUMPDEST DUP4 DUP2 LT ISZERO PUSH2 0x23D JUMPI DUP2 MLOAD PUSH2 0x224 DUP8 DUP3 PUSH2 0x1C9 JUMP JUMPDEST SWAP7 POP PUSH2 0x22F DUP4 PUSH2 0x1E1 JUMP JUMPDEST SWAP3 POP POP PUSH1 0x1 DUP2 ADD SWAP1 POP PUSH2 0x210 JUMP JUMPDEST POP POP POP POP POP POP JUMP JUMPDEST PUSH1 0x0 PUSH1 0x3 SWAP1 POP SWAP2 SWAP1 POP JUMP JUMPDEST PUSH1 0x0 DUP2 SWAP1 POP SWAP3 SWAP2 POP POP JUMP JUMPDEST PUSH1 0x0 DUP2 SWAP1 POP SWAP2 SWAP1 POP JUMP JUMPDEST PUSH1 0x0 PUSH32 0xFF00000000000000000000000000000000000000000000000000000000000000 DUP3 AND SWAP1 POP SWAP2 SWAP1 POP JUMP JUMPDEST PUSH2 0x29A DUP2 PUSH2 0x265 JUMP JUMPDEST DUP3 MSTORE POP POP JUMP JUMPDEST PUSH1 0x0 PUSH2 0x2AC DUP4 DUP4 PUSH2 0x291 JUMP JUMPDEST PUSH1 0x20 DUP4 ADD SWAP1 POP SWAP3 SWAP2 POP POP JUMP JUMPDEST PUSH1 0x0 PUSH1 0x20 DUP3 ADD SWAP1 POP SWAP2 SWAP1 POP JUMP JUMPDEST PUSH2 0x2CE DUP2 PUSH2 0x245 JUMP JUMPDEST PUSH2 0x2D8 DUP2 DUP5 PUSH2 0x250 JUMP JUMPDEST SWAP3 POP PUSH2 0x2E3 DUP3 PUSH2 0x25B JUMP JUMPDEST DUP1 PUSH1 0x0 JUMPDEST DUP4 DUP2 LT ISZERO PUSH2 0x314 JUMPI DUP2 MLOAD PUSH2 0x2FB DUP8 DUP3 PUSH2 0x2A0 JUMP JUMPDEST SWAP7 POP PUSH2 0x306 DUP4 PUSH2 0x2B8 JUMP JUMPDEST SWAP3 POP POP PUSH1 0x1 DUP2 ADD SWAP1 POP PUSH2 0x2E7 JUMP JUMPDEST POP POP POP POP POP POP JUMP JUMPDEST PUSH1 0x0 PUSH1 0xC0 DUP3 ADD SWAP1 POP PUSH2 0x331 PUSH1 0x0 DUP4 ADD DUP6 PUSH2 0x1EE JUMP JUMPDEST PUSH2 0x33E PUSH1 0x60 DUP4 ADD DUP5 PUSH2 0x2C5 JUMP JUMPDEST SWAP4 SWAP3 POP POP POP JUMP INVALID LOG2 PUSH5 0x6970667358 0x22 SLT KECCAK256 RETURNDATASIZE EXP SWAP8 0x5D 0xB9 0xD6 0xF8 PUSH4 0x20B163DC TIMESTAMP 0xEA 0x25 DUP10 0xD1 CALLVALUE LOG1 DUP9 0xE5 0xB5 CALLDATALOAD 0xAD PUSH28 0x261D6B6D3B0A5564736F6C6343000811003300000000000000000000 "
				},
				"gasEstimates": {
					"creation": {
						"codeDepositCost": "178200",
						"executionCost": "220",
						"totalCost": "178420"
					},
					"external": {
						"test2()": "infinite"
					}
				},
				"methodIdentifiers": {
					"test2()": "66e41cb7"
				}
			},
			"storageLayout": {
				"storage": [],
				"types": null
			},
			"userdoc": {
				"kind": "user",
				"methods": {},
				"version": 1
			}
		}
	}
}