{
	"_04_数据类型_值类型_有理数和整数字面量.sol": {
		"HelloWorld": {
			"abi": [
				{
					"inputs": [],
					"name": "num",
					"outputs": [
						{
							"internalType": "int256",
							"name": "",
							"type": "int256"
						}
					],
					"stateMutability": "view",
					"type": "function"
				},
				{
					"inputs": [],
					"name": "x",
					"outputs": [
						{
							"internalType": "int256",
							"name": "",
							"type": "int256"
						}
					],
					"stateMutability": "view",
					"type": "function"
				}
			],
			"devdoc": {
				"kind": "dev",
				"methods": {},
				"version": 1
			},
			"evm": {
				"assembly": "    /* \"_04_\\xe6\\x95\\xb0\\xe6\\x8d\\xae\\xe7\\xb1\\xbb\\xe5\\x9e\\x8b_\\xe5\\x80\\xbc\\xe7\\xb1\\xbb\\xe5\\x9e\\x8b_\\xe6\\x9c\\x89\\xe7\\x90\\x86\\xe6\\x95\\xb0\\xe5\\x92\\x8c\\xe6\\x95\\xb4\\xe6\\x95\\xb0\\xe5\\xad\\x97\\xe9\\x9d\\xa2\\xe9\\x87\\x8f.sol\":68:480  contract HelloWorld {... */\n  mstore(0x40, 0x80)\n    /* \"_04_\\xe6\\x95\\xb0\\xe6\\x8d\\xae\\xe7\\xb1\\xbb\\xe5\\x9e\\x8b_\\xe5\\x80\\xbc\\xe7\\xb1\\xbb\\xe5\\x9e\\x8b_\\xe6\\x9c\\x89\\xe7\\x90\\x86\\xe6\\x95\\xb0\\xe5\\x92\\x8c\\xe6\\x95\\xb4\\xe6\\x95\\xb0\\xe5\\xad\\x97\\xe9\\x9d\\xa2\\xe9\\x87\\x8f.sol\":178:189  123_456_789 */\n  0x075bcd15\n    /* \"_04_\\xe6\\x95\\xb0\\xe6\\x8d\\xae\\xe7\\xb1\\xbb\\xe5\\x9e\\x8b_\\xe5\\x80\\xbc\\xe7\\xb1\\xbb\\xe5\\x9e\\x8b_\\xe6\\x9c\\x89\\xe7\\x90\\x86\\xe6\\x95\\xb0\\xe5\\x92\\x8c\\xe6\\x95\\xb4\\xe6\\x95\\xb0\\xe5\\xad\\x97\\xe9\\x9d\\xa2\\xe9\\x87\\x8f.sol\":161:189  int public num = 123_456_789 */\n  0x00\n  sstore\n    /* \"_04_\\xe6\\x95\\xb0\\xe6\\x8d\\xae\\xe7\\xb1\\xbb\\xe5\\x9e\\x8b_\\xe5\\x80\\xbc\\xe7\\xb1\\xbb\\xe5\\x9e\\x8b_\\xe6\\x9c\\x89\\xe7\\x90\\x86\\xe6\\x95\\xb0\\xe5\\x92\\x8c\\xe6\\x95\\xb4\\xe6\\x95\\xb0\\xe5\\xad\\x97\\xe9\\x9d\\xa2\\xe9\\x87\\x8f.sol\":449:470  2**1000 - 2**1000 + 1 */\n  0x01\n    /* \"_04_\\xe6\\x95\\xb0\\xe6\\x8d\\xae\\xe7\\xb1\\xbb\\xe5\\x9e\\x8b_\\xe5\\x80\\xbc\\xe7\\xb1\\xbb\\xe5\\x9e\\x8b_\\xe6\\x9c\\x89\\xe7\\x90\\x86\\xe6\\x95\\xb0\\xe5\\x92\\x8c\\xe6\\x95\\xb4\\xe6\\x95\\xb0\\xe5\\xad\\x97\\xe9\\x9d\\xa2\\xe9\\x87\\x8f.sol\":434:470  int public x = 2**1000 - 2**1000 + 1 */\n  dup1\n  sstore\n    /* \"_04_\\xe6\\x95\\xb0\\xe6\\x8d\\xae\\xe7\\xb1\\xbb\\xe5\\x9e\\x8b_\\xe5\\x80\\xbc\\xe7\\xb1\\xbb\\xe5\\x9e\\x8b_\\xe6\\x9c\\x89\\xe7\\x90\\x86\\xe6\\x95\\xb0\\xe5\\x92\\x8c\\xe6\\x95\\xb4\\xe6\\x95\\xb0\\xe5\\xad\\x97\\xe9\\x9d\\xa2\\xe9\\x87\\x8f.sol\":68:480  contract HelloWorld {... */\n  callvalue\n  dup1\n  iszero\n  tag_1\n  jumpi\n  0x00\n  dup1\n  revert\ntag_1:\n  pop\n  dataSize(sub_0)\n  dup1\n  dataOffset(sub_0)\n  0x00\n  codecopy\n  0x00\n  return\nstop\n\nsub_0: assembly {\n        /* \"_04_\\xe6\\x95\\xb0\\xe6\\x8d\\xae\\xe7\\xb1\\xbb\\xe5\\x9e\\x8b_\\xe5\\x80\\xbc\\xe7\\xb1\\xbb\\xe5\\x9e\\x8b_\\xe6\\x9c\\x89\\xe7\\x90\\x86\\xe6\\x95\\xb0\\xe5\\x92\\x8c\\xe6\\x95\\xb4\\xe6\\x95\\xb0\\xe5\\xad\\x97\\xe9\\x9d\\xa2\\xe9\\x87\\x8f.sol\":68:480  contract HelloWorld {... */\n      mstore(0x40, 0x80)\n      callvalue\n      dup1\n      iszero\n      tag_1\n      jumpi\n      0x00\n      dup1\n      revert\n    tag_1:\n      pop\n      jumpi(tag_2, lt(calldatasize, 0x04))\n      shr(0xe0, calldataload(0x00))\n      dup1\n      0x0c55699c\n      eq\n      tag_3\n      jumpi\n      dup1\n      0x4e70b1dc\n      eq\n      tag_4\n      jumpi\n    tag_2:\n      0x00\n      dup1\n      revert\n        /* \"_04_\\xe6\\x95\\xb0\\xe6\\x8d\\xae\\xe7\\xb1\\xbb\\xe5\\x9e\\x8b_\\xe5\\x80\\xbc\\xe7\\xb1\\xbb\\xe5\\x9e\\x8b_\\xe6\\x9c\\x89\\xe7\\x90\\x86\\xe6\\x95\\xb0\\xe5\\x92\\x8c\\xe6\\x95\\xb4\\xe6\\x95\\xb0\\xe5\\xad\\x97\\xe9\\x9d\\xa2\\xe9\\x87\\x8f.sol\":434:470  int public x = 2**1000 - 2**1000 + 1 */\n    tag_3:\n      tag_5\n      tag_6\n      jump\t// in\n    tag_5:\n      mload(0x40)\n      tag_7\n      swap2\n      swap1\n      tag_8\n      jump\t// in\n    tag_7:\n      mload(0x40)\n      dup1\n      swap2\n      sub\n      swap1\n      return\n        /* \"_04_\\xe6\\x95\\xb0\\xe6\\x8d\\xae\\xe7\\xb1\\xbb\\xe5\\x9e\\x8b_\\xe5\\x80\\xbc\\xe7\\xb1\\xbb\\xe5\\x9e\\x8b_\\xe6\\x9c\\x89\\xe7\\x90\\x86\\xe6\\x95\\xb0\\xe5\\x92\\x8c\\xe6\\x95\\xb4\\xe6\\x95\\xb0\\xe5\\xad\\x97\\xe9\\x9d\\xa2\\xe9\\x87\\x8f.sol\":161:189  int public num = 123_456_789 */\n    tag_4:\n      tag_9\n      tag_10\n      jump\t// in\n    tag_9:\n      mload(0x40)\n      tag_11\n      swap2\n      swap1\n      tag_8\n      jump\t// in\n    tag_11:\n      mload(0x40)\n      dup1\n      swap2\n      sub\n      swap1\n      return\n        /* \"_04_\\xe6\\x95\\xb0\\xe6\\x8d\\xae\\xe7\\xb1\\xbb\\xe5\\x9e\\x8b_\\xe5\\x80\\xbc\\xe7\\xb1\\xbb\\xe5\\x9e\\x8b_\\xe6\\x9c\\x89\\xe7\\x90\\x86\\xe6\\x95\\xb0\\xe5\\x92\\x8c\\xe6\\x95\\xb4\\xe6\\x95\\xb0\\xe5\\xad\\x97\\xe9\\x9d\\xa2\\xe9\\x87\\x8f.sol\":434:470  int public x = 2**1000 - 2**1000 + 1 */\n    tag_6:\n      sload(0x01)\n      dup2\n      jump\t// out\n        /* \"_04_\\xe6\\x95\\xb0\\xe6\\x8d\\xae\\xe7\\xb1\\xbb\\xe5\\x9e\\x8b_\\xe5\\x80\\xbc\\xe7\\xb1\\xbb\\xe5\\x9e\\x8b_\\xe6\\x9c\\x89\\xe7\\x90\\x86\\xe6\\x95\\xb0\\xe5\\x92\\x8c\\xe6\\x95\\xb4\\xe6\\x95\\xb0\\xe5\\xad\\x97\\xe9\\x9d\\xa2\\xe9\\x87\\x8f.sol\":161:189  int public num = 123_456_789 */\n    tag_10:\n      sload(0x00)\n      dup2\n      jump\t// out\n        /* \"#utility.yul\":7:83   */\n    tag_12:\n        /* \"#utility.yul\":43:50   */\n      0x00\n        /* \"#utility.yul\":72:77   */\n      dup2\n        /* \"#utility.yul\":61:77   */\n      swap1\n      pop\n        /* \"#utility.yul\":7:83   */\n      swap2\n      swap1\n      pop\n      jump\t// out\n        /* \"#utility.yul\":89:204   */\n    tag_13:\n        /* \"#utility.yul\":174:197   */\n      tag_17\n        /* \"#utility.yul\":191:196   */\n      dup2\n        /* \"#utility.yul\":174:197   */\n      tag_12\n      jump\t// in\n    tag_17:\n        /* \"#utility.yul\":169:172   */\n      dup3\n        /* \"#utility.yul\":162:198   */\n      mstore\n        /* \"#utility.yul\":89:204   */\n      pop\n      pop\n      jump\t// out\n        /* \"#utility.yul\":210:428   */\n    tag_8:\n        /* \"#utility.yul\":301:305   */\n      0x00\n        /* \"#utility.yul\":339:341   */\n      0x20\n        /* \"#utility.yul\":328:337   */\n      dup3\n        /* \"#utility.yul\":324:342   */\n      add\n        /* \"#utility.yul\":316:342   */\n      swap1\n      pop\n        /* \"#utility.yul\":352:421   */\n      tag_19\n        /* \"#utility.yul\":418:419   */\n      0x00\n        /* \"#utility.yul\":407:416   */\n      dup4\n        /* \"#utility.yul\":403:420   */\n      add\n        /* \"#utility.yul\":394:400   */\n      dup5\n        /* \"#utility.yul\":352:421   */\n      tag_13\n      jump\t// in\n    tag_19:\n        /* \"#utility.yul\":210:428   */\n      swap3\n      swap2\n      pop\n      pop\n      jump\t// out\n\n    auxdata: 0xa26469706673582212208f0b3fa4d053f2cdc32b0e2f97f0e4a774c6f68da11f80364a3875be7eb7c4f064736f6c63430008110033\n}\n",
				"bytecode": {
					"linkReferences": {},
					"object": "608060405263075bcd156000556001805534801561001c57600080fd5b5060dd8061002b6000396000f3fe6080604052348015600f57600080fd5b506004361060325760003560e01c80630c55699c1460375780634e70b1dc146051575b600080fd5b603d606b565b60405160489190608e565b60405180910390f35b60576071565b60405160629190608e565b60405180910390f35b60015481565b60005481565b6000819050919050565b6088816077565b82525050565b600060208201905060a160008301846081565b9291505056fea26469706673582212208f0b3fa4d053f2cdc32b0e2f97f0e4a774c6f68da11f80364a3875be7eb7c4f064736f6c63430008110033",
					"opcodes": "PUSH1 0x80 PUSH1 0x40 MSTORE PUSH4 0x75BCD15 PUSH1 0x0 SSTORE PUSH1 0x1 DUP1 SSTORE CALLVALUE DUP1 ISZERO PUSH2 0x1C JUMPI PUSH1 0x0 DUP1 REVERT JUMPDEST POP PUSH1 0xDD DUP1 PUSH2 0x2B PUSH1 0x0 CODECOPY PUSH1 0x0 RETURN INVALID PUSH1 0x80 PUSH1 0x40 MSTORE CALLVALUE DUP1 ISZERO PUSH1 0xF JUMPI PUSH1 0x0 DUP1 REVERT JUMPDEST POP PUSH1 0x4 CALLDATASIZE LT PUSH1 0x32 JUMPI PUSH1 0x0 CALLDATALOAD PUSH1 0xE0 SHR DUP1 PUSH4 0xC55699C EQ PUSH1 0x37 JUMPI DUP1 PUSH4 0x4E70B1DC EQ PUSH1 0x51 JUMPI JUMPDEST PUSH1 0x0 DUP1 REVERT JUMPDEST PUSH1 0x3D PUSH1 0x6B JUMP JUMPDEST PUSH1 0x40 MLOAD PUSH1 0x48 SWAP2 SWAP1 PUSH1 0x8E JUMP JUMPDEST PUSH1 0x40 MLOAD DUP1 SWAP2 SUB SWAP1 RETURN JUMPDEST PUSH1 0x57 PUSH1 0x71 JUMP JUMPDEST PUSH1 0x40 MLOAD PUSH1 0x62 SWAP2 SWAP1 PUSH1 0x8E JUMP JUMPDEST PUSH1 0x40 MLOAD DUP1 SWAP2 SUB SWAP1 RETURN JUMPDEST PUSH1 0x1 SLOAD DUP2 JUMP JUMPDEST PUSH1 0x0 SLOAD DUP2 JUMP JUMPDEST PUSH1 0x0 DUP2 SWAP1 POP SWAP2 SWAP1 POP JUMP JUMPDEST PUSH1 0x88 DUP2 PUSH1 0x77 JUMP JUMPDEST DUP3 MSTORE POP POP JUMP JUMPDEST PUSH1 0x0 PUSH1 0x20 DUP3 ADD SWAP1 POP PUSH1 0xA1 PUSH1 0x0 DUP4 ADD DUP5 PUSH1 0x81 JUMP JUMPDEST SWAP3 SWAP2 POP POP JUMP INVALID LOG2 PUSH5 0x6970667358 0x22 SLT KECCAK256 DUP16 SIGNEXTEND EXTCODEHASH LOG4 0xD0 MSTORE8 CALLCODE 0xCD 0xC3 0x2B 0xE 0x2F SWAP8 CREATE 0xE4 0xA7 PUSH21 0xC6F68DA11F80364A3875BE7EB7C4F064736F6C6343 STOP ADDMOD GT STOP CALLER "
				},
				"gasEstimates": {
					"creation": {
						"codeDepositCost": "44200",
						"executionCost": "44305",
						"totalCost": "88505"
					},
					"external": {
						"num()": "2429",
						"x()": "2407"
					}
				},
				"methodIdentifiers": {
					"num()": "4e70b1dc",
					"x()": "0c55699c"
				}
			},
			"storageLayout": {
				"storage": [
					{
						"astId": 4,
						"contract": "_04_数据类型_值类型_有理数和整数字面量.sol:HelloWorld",
						"label": "num",
						"offset": 0,
						"slot": "0",
						"type": "t_int256"
					},
					{
						"astId": 15,
						"contract": "_04_数据类型_值类型_有理数和整数字面量.sol:HelloWorld",
						"label": "x",
						"offset": 0,
						"slot": "1",
						"type": "t_int256"
					}
				],
				"types": {
					"t_int256": {
						"encoding": "inplace",
						"label": "int256",
						"numberOfBytes": "32"
					}
				}
			},
			"userdoc": {
				"kind": "user",
				"methods": {},
				"version": 1
			}
		}
	}
}